:020000040000FA
:0490000047EF48F0FE
:109008005B82FACF4DF0FBCF4EF0E9CF4FF0EACFBD
:1090180050F0E1CF51F0E2CF52F0D9CF53F0DACF90
:1090280054F0F3CF55F0F4CF56F0F6CF57F0F7CF12
:1090380058F0F8CF59F0F5CF5AF04BEC76F09EB2D5
:10904800ABEC5BF0F2B49CEC93F05AC0F5FF59C05E
:10905800F8FF58C0F7FF57C0F6FF56C0F4FF55C0D9
:10906800F3FF54C0DAFF53C0D9FF52C0E2FF51C02A
:10907800E1FF50C0EAFF4FC0E9FF4EC0FBFF4DC003
:10908800FAFF5B9211009EEF89F00008000C0010B7
:10909800001300160019001C001E002100230026E2
:1090A8000028002A002C002E003000320034003640
:1090B8000038003A003C003D003F004100430045B5
:1090C800004600480049004B004D004E005000513A
:1090D80000530054005600570059005A005C005DC8
:1090E800005F00600062006300640066006700695A
:1090F800006A006C006D006E0070007100720073F1
:109108000074007600780079007A007B007D007E8C
:10911800007F008200850087008A008C008F009104
:10912800009200940098009A009C009E00A100A361
:1091380000A500A700AA00AC00AF00B200B400B7B9
:1091480000B800BA00BC00BE00C000C300C400C61E
:1091580000C800CA00CC00CE00D000D200D400D68F
:1091680000D800D900DB00DD00DF00E100E200E507
:1091780000E700E800EA00EC00EE00EF00F200F380
:1091880000F500F700F800FB00FD000001030104F2
:109198000107010A010C010F01120114011701193D
:1091A800011C011E0121012301250129012B012C8C
:1091B800012E0132013401360138013B013D013FE6
:1091C800014301460148014A014C014F0151015434
:1091D80001560159015B015E016001630166016985
:1091E800016B016E017101740177017A017D0180C3
:1091F80001830187018A018D019101940198019BE6
:10920800019F01A301A601AA01AE01B201B601BAEC
:1092180001BE01C301C701CC01D001D501D901DECE
:1092280001E301E801ED01F301F801FE0103020980
:10923800020F0215021B02210227022E0235023CF0
:109248000243024A0251025902610269027102791B
:109258000282028B0294029E02A702B102BC02C6DD
:1092680002D102DC02DC02DF02E202E502E802EBE4
:1092780002EE02F102F402F702FA02FD0200030410
:109288000307030A030D031103140317031A031E2C
:10929800032103250328032C032F03330336033A42
:1092A800033E034103450349034D03500354035848
:1092B800035C036003640368036C0370037403793D
:1092C800037D03810385038A038E03930397039C1D
:1092D80003A003A503AA03AE03B303B803BD03C2E7
:1092E80003C603CC03D103D603DB03E003E503EB9A
:1092F80003F003F603FB03010406040C041204172D
:10930800041D04230429042F0436043C04420448A1
:10931800044F0455045C0463046A04700477047EF3
:109328000485048D0494049B04A304AA04B204BA1B
:1093380004C204C904D204DA04E204EA04F304FC13
:109348000404050D0516051F05280532053B0545CE
:10935800054F05590563056D05770582058C059749
:1093680005A205AD05B905C405D005DC05E805F479
:109378000501060E061A0628063506430650065E3F
:10938800066D067B068A069906A906B806C806D899
:1093980006E906FA060B071C072E0740075307665F
:1093A8000779078D07A107B607CB07E007F6070C73
:1093B8000823083B0853086B0884089E08B808D39C
:1093C80008EF080B092809450964098309A309C49A
:1093D80009E609080A2C0A510A770A9D0AC50AEF04
:1093E8000A190B450B720B720B7D0B890B940BA0A2
:1093F8000BAC0BB80BC40BD00BDC0BE90BF50B0259
:109408000C0E0C1B0C280C350C420C4F0C5D0C6A16
:109418000C770C850C930CA10CAF0CBD0CCB0CD9A4
:109428000CE80CF70C050D140D230D320D420D51EF
:109438000D610D700D800D900DA00DB10DC10DD2F7
:109448000DE30DF30D050E160E270E390E4B0E5CAF
:109458000E6F0E810E930EA60E010002000300048B
:1094680000050006000700080009000A000B000CB0
:10947800000D000E000F0010001100120013001460
:1094880000150016001700180019001A001B001C10
:10949800001D001E001F00200021002200230024C0
:1094A80000250026002700280029002A002B002C70
:1094B800002D002E002F0030003100320033003420
:1094C80000350036003700380039003A003B003CD0
:1094D800003D003E003F004000410042004300457F
:1094E80000470049004B004D004F00510053005504
:1094F80000570059005B005D005F00610063006574
:1095080000670069006B006E0070007300750077DB
:109518000079007B007D007F008100830085008743
:109528000089008B008D008F0091009300950097B3
:109538000099009B009D009F00A100A300A500A723
:1095480000A900AB00AD00AF00B100B300B500B793
:1095580000B900BB00BD00C000C300C600C900CCF4
:1095680000CF00D200D500D800DB00DE00E100E427
:1095780000E700EA00ED00F000F300F600F900FC57
:1095880000FF000201050108010B010E0111011481
:109598000117011A011D012001230126012A012DAD
:1095A800013001330137013A013E014201450149C9
:1095B800014D015101550159015D01610166016AC1
:1095C800016E01730178017D01820187018C01918F
:1095D8000196019C01A101A701AD01B301B901BF29
:1095E80001C601CC01D301DA01E101E801F001F77C
:1095F80001FF0107020F02180221022A0233023D6D
:1096080002470251025C02670272027E028A0297D6
:1096180002A402B202C002CF02DF02EF02FF02116F
:10962800032303360349035E0373038903A103B9C4
:1096380003D303DD03E403EA03F103F803FF03069E
:10964800040D0415041C0424042B0433043B0442B5
:10965800044A0452045A0463046B0474047C0485A9
:10966800048E0496049F04A904B204BB04C504CE66
:1096780004D804E204EC04F60400050B05150520E3
:10968800052B05360541054C05580564056F057B16
:109698000587059405A005AD05BA05C705D405E2FB
:1096A80005EF05FD050B061906280637064606557B
:1096B800066406740684069406A406B506C606D78C
:1096C80006E906FA060C071F073107440758076B17
:1096D800077F079307A807BD07D207E807FE071506
:1096E800082C0843085B0873088B08A508BE08D82F
:1096F80008F2080D092909450961097E099C09BA7A
:1097080009D909F909190A390A5B0A7D0A9F0AC3A6
:109718000AE70A0C0B310B580B7F0BA70BD00BFA7F
:109728000B250C510C7E0CAB0CDA0C0A0D3B0D6DA5
:109738000DA00DD40D0A0E410E790EB30EEE0E2AB1
:109748000F680FA80FE90F2C107010B610FE104804
:10975800119411E21132128512D91230138913E5CE
:10976800134414A51409157015DA154716B8162BE5
:1097780017A3171E189D182119A819341AC41A5AA4
:109788001BF41B941C391DE41D951E4C1F0A20CE8A
:10979800209A216E224A232E241B25122612271DC9
:1097A800283229532A812BBB2C032E5A2FC030363E
:1097B80032BD335735F5356136CD363B37AA371BC1
:1097C800388C3800397439EA39623ADB3A553BD17A
:1097D8003B4E3CCD3C4E3DD03D543EDA3E613FEAE7
:1097E8003F744001418F411F42B1424543DB4373FF
:1097F800440D45A9454746E74689472E48D5487E42
:1098080049294AD74A874B3A4CEF4CA64D614E1E20
:109818004FDD4FA05065512D52F852C65397546BE7
:109828005542561C57FA570C070504040303030254
:10983800020202020201010101010101010101010B
:109848000101010101010101010101010101010100
:1098580001010101010101010101010101010101F0
:1098680001010101010101010101010101010101E0
:1098780001010101010101010101010101010101D0
:1098880001010000000000000000000000000000CE
:1098980000000000000000000000000000000000C0
:1098A80000000000000000000000000000000000B0
:1098B80000000000000000000000000000000000A0
:1098C8000000000000000000000000000000000090
:1098D8000000000000000000000000000000000080
:1098E8000000000000000000000000000000000070
:1098F8000000000000000000000000000000000060
:10990800000000000000000000000000000000004F
:10991800000000000000000000000000000000003F
:10992800000000000000000000000000000000002F
:10993800000000000000000000000000000000001F
:10994800000000000000000000000000000000000F
:1099580000000000000000000000000000000000FF
:1099680000000000000000000000000000000000EF
:1099780000000000000000000000000000000000DF
:1099880000000000000000000000000000000000CF
:1099980000000000000000000000000000000000BF
:1099A80000000000000000000000000000000000AF
:1099B800000000000000000000000000000000009F
:1099C800000000000000000000000000000000008F
:1099D800000000000000000000000000000000007F
:1099E800000000000000000000000000000000006F
:1099F800000000000000000000000000000000005F
:109A08000000000000000000000000000000ECF270
:109A1800F6F4D2E8D2C0ECDCCFC3B9B0FCF2E8DF90
:109A2800D7D0CAC3BEB8B3AFAAA6A29F9B98959237
:109A38008F8C8A878583817F7D7B79777574727136
:109A48006F6E6C6B6A68676665646261605F5E5DB5
:109A58005C5B595756545351504F4E4C4B4A4948EA
:109A680047464544434241403FFEFBF8F6F3F0EEDB
:109A7800ECE9E7E5E3E0DEDCDAD8D7D5D3D1CFCE21
:109A8800CCCAC9C7C6C4C3C1C0BEBDBCBAB8B6B4C7
:109A9800B3B1AFAEACAAA9A7A6A4A3A1A09F9D9C51
:109AA8009B9A98979695949392908F8E8D8C8B8A8B
:109AB800898887868584838281807F7E7D7C7B7A86
:109AC800797877767574737271706F6E6D6C6B6A76
:109AD800696867666564636261605F5E5D5C5B5A66
:109AE800595857565554535251504F4E4D4C4B4A56
:109AF800494847464544434241403FFFFEFDFCFB81
:109B0800FAF9F8F7F6F5F4F3F2F1F0EFEEEDECEB25
:109B1800EAE9E8E7E6E5E4E3E2E1E0DFDEDDDCDB15
:109B2800DAD9D8D7D6D5D4D3D2D1D0CFCECDCCCB05
:109B3800CAC9C8C7C6C5C4C3C2C1C0BFBEBDBCBBF5
:109B4800BAB9B8B7B6B5B4B3B2B1B0AFAEADACABE5
:109B5800AAA9A8A7A6A5A4A3A2A1A09F9E9D9C9BD5
:109B68009A999897969594939291908F8E8D8C8BC5
:109B78008A898887868584838281807F7E7D7C7BB5
:109B88007A797877767574737271706F6E6D6C6BA5
:109B98006A696867666564636261605F5E5D5C5B95
:109BA8005A595857565554535251504F4E4D4C4B85
:109BB8004A494847464544434241403FFFFEFDFC71
:109BC800FBFAF9F8F7F6F5F4F3F2F1F0EFEEEDEC55
:109BD800EBEAE9E8E7E6E5E4E3E2E1E0DFDEDDDC45
:109BE800DBDAD9D8D7D6D5D4D3D2D1D0CFCECDCC35
:109BF800CBCAC9C8C702020202020202020202025A
:109C0800020202020202020202020202020202022C
:109C1800020202020202020202020202020202021C
:109C2800020202020202020202020202020202020C
:109C380002020202020202020202020202020202FC
:109C480002020202020202020202020202020202EC
:109C580002020202020202020202020202020202DC
:109C680002020202020202020202020202020202CC
:109C780002020202020202020202020202020202BC
:109C880002020202020202020202020202020202AC
:109C9800020202020202020202020202020202029C
:109CA800020202020202020202020202020202028C
:109CB800020202020202020202020202020202027C
:109CC800020202020202020202020202020202026C
:109CD800020202020202020202020202020202025C
:109CE800020201010101010101010101010101015A
:109CF800010101010101010101010101010101014C
:109D0800010101010101010101010101010101013B
:109D1800010101010101010101010101010101012B
:109D2800010101010101010101010101010101011B
:109D3800010101010101010101010101010101010B
:109D480001010101010101010101010101010101FB
:109D580001010101010101010101010101010101EB
:109D680001010101010101010101010101010101DB
:109D780001010101010101010101010101010101CB
:109D880001010101010101010101010101010101BB
:109D980001010101010101010101010101010101AB
:109DA80001010100000000000000000000000000A8
:109DB800000000000000000000000000000000009B
:109DC800000000000000000000000000000000008B
:109DD800000000000000000000000000EDA1FEA04F
:109DE80032A1A1A1BEA04D616E75616C204D6F645A
:109DF8006520202020202020202043757272656E67
:109E08007420706F733A2020202020202001547580
:109E1800726E2043435720002053706565642020EC
:109E280020205374617274202020200020202020DC
:109E380020202020202052657475726E20746F20B7
:109E48005A65726F3F202020202043757272656E1C
:109E58007420706F733A202020202020202020209A
:109E680020202020202020202020202020202020EA
:109E78002020205965732020202020202020202009
:109E880020204E6F20204172633A2053697A653D45
:109E98002020202020202020202043757272656E0B
:109EA8007420706F733A20202020202020015475E0
:109EB800726E20434357200020537065656420204C
:109EC800202053746172742020202000202020203C
:109ED8002020202020204172633A2053657420619D
:109EE80072632073697A6520202041726320736948
:109EF8007A653A202020202020202020202053741A
:109F080065702073697A6520002020436F6E66694A
:109F1800726D202020202020202020200020204397
:109F2800616E63656C204469766964653A20202017
:109F380020202020202020202020506F733A20202D
:109F480020202020202020202020202020204A758A
:109F58006D702073697A653A202020202020202007
:109F680020205072657373546F4A756D70200020FD
:109F780043616E63656C4469766964653A2053652C
:109F880074206469766973696F6E20202020202010
:109F980020202020202020202020202020202020B9
:109FA800202F737465702020002020436F6E66692F
:109FB800726D3132333420202020202000202043AD
:109FC800616E63656C2053657475703A20536574CF
:109FD80020646972656374696F6E202020202020D8
:109FE8002020202020202020202020202020204346
:109FF8006F756E746572436C6F636B7769736520F8
:10A00800202020436C6F636B7769736520202020C4
:10A0180020202020202053657475703A20536574E1
:10A02800207A65726F20706F732E202020202020E8
:10A038002020202020202020202020202020537491
:10A0480065702073697A6520002020436F6E666909
:10A05800726D20782E78780120202020002020435F
:10A06800616E63656C204D61696E204D656E753A51
:10A078002020202020202020202020536574757067
:10A088002020202044697669646520202020204112
:10A0980072632020202020204D616E75616C202085
:10A0A800202020476F325A65726F20202020202000
:10A0B80020202020202009024000020100C032098F
:10A0C8000400000203000000092111010001221D03
:10A0D800000705810340000107050103400001094D
:10A0E800040100020806500007058202400001072B
:10A0F800050202400001340353006F006C00640045
:10A10800650072006E006500720064002E00630036
:10A118006F006D002000200020002000200020009B
:10A12800200020002000200020002E03530074008F
:10A13800650070007000650072004D006F007400CB
:10A148006F00720043006F006E00740072006F00B1
:10A158006C006C00650072000080040220000000A2
:10A168004D6963726F6368704D6173732053746FC8
:10A178007261676520202020303030310600FF09E9
:10A1880001A10119012940150026FF007508954015
:10A198008100190129409100C01A033100320033AF
:10A1A80000340035003600370038003900300039F7
:10A1B8000039001201000200000008D804CFED00A9
:10A1C80001010200010A000E010F110F001818000A
:10A1D800000000000004040404040404043D2A8070
:10A1E800A73D2A80A60403090468656C6C6F207774
:10A1F8006F726C642100536F6C617243686172679F
:10A20800720046494C4520202020004D53444F53AE
:10A21800352E300020202020202020200043616E91
:0FA2280063656C0053746F70200054585400002D
:10A2380005EF57F0780E0001606F020E616F6E0E29
:10A24800626FA00E636F000E656F500E646FC9ECED
:10A258008EF00FD03E0E02018C6F32EF57F03E0E9B
:10A268000201956F32EF57F03E0E0201A96F32EFEF
:10A2780057F00001DD51010AD8B4ECD7030AD8B46D
:10A28800EED7010AD8B464D0070AD8B4EDD7010ACA
:10A298006FD0780E606F020E616F1E0E626FA00E97
:10A2A800636F000E656F500E646FC9EC8EF0E0C0EE
:10A2B80095F0E1C096F0020E0001976FBE0E986F00
:10A2C800000E996F92EC6BF0E80E0001E05D030E52
:10A2D800E159D8A002D0000E01D0010EC86F000EBF
:10A2E800C96F18D0C951010DBE0EF324D96E000EE6
:10A2F800F420DA6EC951C8C0BCF0BD6BBC27000E93
:10A30800BD23B40EBC25E16E020EBD21E26EDFCF87
:10A31800E7FFC92BC951010DBE0EF324D96E000EFB
:10A32800F420DA6EDF50D8A4DDD70001DD51110A20
:10A338008CD0780E606F020E616FCE0E626F9F0E2A
:10A34800636F000E656F500E646FC9EC8EF00AD013
:10A358003E0E0201A06F32EF57F03E0E0201B46FBD
:10A3680032EF57F00001DD51210AD8B4F1D7030AC2
:10A37800D8B4F3D732EF57F0780E606F020E616FE2
:10A388007E0E626F9F0E636F000E656F500E646FD6
:10A39800C9EC8EF0E5C078F00001796B030E7A6F96
:10A3A800BE0E7B6F000E7C6F32EC81F0000E000158
:10A3B800C96F020EC96501D014D0C951010DBE0E76
:10A3C800F324D96E000EF420DA6EC951010DA00EE7
:10A3D800F324E16E020EF420E26EDFCFE7FFC92B13
:10A3E800E8D7E3C078F0E4C079F0040E7A6FBE0EC7
:10A3F8007B6F000E7C6F32EC81F0000E0001C96F9C
:10A40800030EC96501D01ED0C951010DBE0EF3243B
:10A41800D96E000EF420DA6EC951010DB40EF32482
:10A42800E16E020EF420E26EDFCFE7FFC92BE8D71A
:10A438003E0E0201AC6F32EF57F03E0E0201C06FC4
:10A4480032EF57F00001DD51310AD8B4F1D7030AD1
:10A45800D8B4F3D732EF57F0780E606F020E616F01
:10A468002E0E626F9F0E636F000E656F500E646F45
:10A47800C9EC8EF0E3C078F0E4C079F0000E00017A
:10A488007A6FBE0E7B6F000E7C6F32EC81F0000E8F
:10A498000001C96F18D0C951010DBE0EF324D96E41
:10A4A800000EF420DA6EC951BC6FBD6B080EBC27D4
:10A4B800000EBD23780EBC25E16E020EBD21E26EB2
:10A4C800DFCFE7FFC92BC951010DBE0EF324D96EAA
:10A4D800000EF420DA6EDF50D8A4DDD7C951BC6F66
:10A4E800BD6B080EBC27000EBD23780EBC25D96EA7
:10A4F800020EBD21DA6E2C0EDF6EE229D8A423D01D
:10A50800C951BC6FBD6B0A0EBC27000EBD23780E67
:10A51800BC25D96E020EBD21DA6E430EDF6EC9511D
:10A52800BC6FBD6B0B0EBC27000EBD23780EBC257F
:10A53800D96E020EBD21DA6E430EDF6EC951BC6FB3
:10A54800BD6B0C0E13D0C951BC6FBD6B0A0EBC2776
:10A55800000EBD23780EBC25D96E020EBD21DA6E21
:10A56800430EDF6EC951BC6FBD6B0B0EBC27000ECE
:10A57800BD23780EBC25D96E020EBD21DA6E570EAA
:10A58800DF6EE6C078F0E7C079F0000E7A6FBE0E95
:10A598007B6F000E7C6F32EC81F0000E0001C96FFA
:10A5A80018D0C951010DBE0EF324D96E000EF42047
:10A5B800DA6EC951BC6FBD6B050EBC27000EBD23FA
:10A5C8008C0EBC25E16E020EBD21E26EDFCFE7FFE7
:10A5D800C92BC951010DBE0EF324D96E000EF4200B
:10A5E800DA6EDF50D8A4DDD7C951BC6FBD6B060E3B
:10A5F800BC27000EBD238C0EBC25D96E020EBD21D2
:10A60800DA6E280EDF6EC951070FC86FDBC0ADF0D8
:10A61800DCC0AEF0AF6BB06B020EB16FBE0EB26FA6
:10A62800000EB36FA6EC7BF0000E0001C96F18D0C6
:10A63800C951010DBE0EF324D96E000EF420DA6E56
:10A64800C851C9C0BCF0BD6BBC27000EBD238C0E21
:10A65800BC25E16E020EBD21E26EDFCFE7FFC92BFC
:10A66800C951010DBE0EF324D96E000EF420DA6E26
:10A67800DF50D8A4DDD7C851C9C0BCF0BD6BBC271A
:10A68800000EBD238C0EBC25D96E020EBD21DA6EDC
:10A69800010EDF6EC851C9C0BCF0BD6BBC27000EEF
:10A6A800BD23010EBC27000EBD238C0EBC25D96E20
:10A6B800020EBD21DA6E290EDF6EE8C08FF0E9C008
:10A6C80090F0BE0E916F000E926F98EC92F0000E13
:10A6D8000001C96F18D0C951010DBE0EF324D96EFF
:10A6E800000EF420DA6EC951BC6FBD6B0B0EBC278F
:10A6F800000EBD23A00EBC25E16E020EBD21E26E48
:10A70800DFCFE7FFC92BC951010DBE0EF324D96E67
:10A71800000EF420DA6EDF50D8B4A0D3DCD7780E60
:10A72800606F020E616FDE0E626F9E0E636F000E29
:10A73800656F500E646FC9EC8EF008D03E0E0201B2
:10A74800AC6F0CD03E0E0201C06F08D00001DD5185
:10A75800510AD8B4F3D7030AD8B4F4D7ECC0ADF093
:10A76800EDC0AEF0EEC0AFF0EFC0B0F0020E0001E9
:10A77800B16FBE0EB26F000EB36FA6EC7BF0000E89
:10A788000001C96F18D0C951010DBE0EF324D96E4E
:10A79800000EF420DA6EC951BC6FBD6B0A0EBC27DF
:10A7A800000EBD238C0EBC25E16E020EBD21E26EAB
:10A7B800DFCFE7FFC92BC951010DBE0EF324D96EB7
:10A7C800000EF420DA6EDF50D8A4DDD7C951BC6F73
:10A7D800BD6B0A0EBC27000EBD238C0EBC25D96E9E
:10A7E800020EBD21DA6E010EDF6EEAC095F0EBC0F5
:10A7F80096F0020E976FBE0E986F000E996F92EC4E
:10A808006BF0E80E0001EA5D030EEB59D8A002D008
:10A81800000E01D0010EC86F000EC96F18D0C951C3
:10A82800010DBE0EF324D96E000EF420DA6EC95164
:10A83800C8C0BCF0BD6BBC27000EBD23B40EBC2540
:10A84800E16E020EBD21E26EDFCFE7FFC92BC951D1
:10A85800010DBE0EF324D96E000EF420DA6EDF501F
:10A86800D8A4DDD7C951C8C0BCF0BD6BBC27000E49
:10A87800BD23B40EBC25D96E020EBD21DA6E010EC1
:10A888005BD2780E606F020E616F8E0E626F9E0E45
:10A89800636F000E656F500E646FC9EC8EF025D0A3
:10A8A800570E0201A66F200EA76F27D0A00E000139
:10A8B800606F020E616F1C0E626FA20E636F000E56
:10A8C800656F080E646FC9EC8EF0B40E0001606FFE
:10A8D800020E616F250E626FA20E636F000E656F28
:10A8E800060E646FC9EC8EF008D00001DD51620AD3
:10A8F800D8B4DCD7010AD8B4D3D7ECC0ADF0EDC0DA
:10A90800AEF0EEC0AFF0EFC0B0F0020E0001B16FD4
:10A91800BE0EB26F000EB36FA6EC7BF0000E000106
:10A92800C96F18D0C951010DBE0EF324D96E000E9F
:10A93800F420DA6EC951BC6FBD6B0A0EBC27000E3D
:10A94800BD23780EBC25E16E020EBD21E26EDFCF7D
:10A95800E7FFC92BC951010DBE0EF324D96E000EB5
:10A96800F420DA6EDF50D8A4DDD7C951BC6FBD6BB7
:10A978000A0EBC27000EBD23780EBC25D96E020E28
:10A98800BD21DA6E010EDF6EDBC0ADF0DCC0AEF0CB
:10A99800AF6BB06B020EB16FBE0EB26F000EB36F2D
:10A9A800A6EC7BF0BE0E0001606F000E616F40ECFC
:10A9B80093F0000160510008060FC86F000EC96FC0
:10A9C8001CD0C951010DBE0EF324D96E000EF4201F
:10A9D800DA6EC951C8C0BCF0BD6BBC27000EBD23E0
:10A9E8000D0EBC27000EBD238C0EBC25E16E020E99
:10A9F800BD21E26EDFCFE7FFC92BC951010DBE0EA5
:10AA0800F324D96E000EF420DA6EDF50D8A4D9D71B
:10AA1800F0C093F0F1C094F036EC96F093C095F046
:10AA280094C096F0020E0001976FBE0E986F000E4C
:10AA3800996F92EC6BF0000E0001C96F18D0C951E4
:10AA4800010DBE0EF324D96E000EF420DA6EC95142
:10AA5800BC6FBD6B0B0EBC27000EBD23B40EBC250E
:10AA6800E16E020EBD21E26EDFCFE7FFC92BC951AF
:10AA7800010DBE0EF324D96E000EF420DA6EDF50FD
:10AA8800D8A4DDD72DD1780E606F020E616F3E0E0F
:10AA9800626F9E0E636F000E656F500E646FC9EC97
:10AAA8008EF0DBC0ADF0DCC0AEF00001AF6BB06B78
:10AAB800020EB16FBE0EB26F000EB36FA6EC7BF044
:10AAC800000E0001C96F18D0C951010DBE0EF32444
:10AAD800D96E000EF420DA6EC951BC6FBD6B0D0E35
:10AAE800BC27000EBD238C0EBC25E16E020EBD21D5
:10AAF800E26EDFCFE7FFC92BC951010DBE0EF3246B
:10AB0800D96E000EF420DA6EDF50D8A4DDD7C95113
:10AB1800BC6FBD6B0D0EBC27000EBD238C0EBC2573
:10AB2800D96E020EAAD6780E606F020E616FEE0E15
:10AB3800626F9D0E636F000E656F500E646FC9ECF7
:10AB48008EF044D0570E0201A66F200EA76F49D091
:10AB5800A00E0001606F020E616F1C0E626FA20EE4
:10AB6800636F000E656F080E646FC9EC8EF0B40E4B
:10AB78000001606F020E616F250E626FA20E636F97
:10AB8800000E656F060E646FC9EC8EF02AD0A00E19
:10AB98000001606F020E616F1C0E626FA20E636F80
:10ABA800000E656F080E646FC9EC8EF0B40E0001DC
:10ABB800606F020E616F2C0E626FA20E636F000E43
:10ABC800656F050E646FC9EC8EF00BD00001DD5186
:10ABD800820AD8B4BDD7010AD8B4B4D7070AD8B402
:10ABE800D6D7DBC0ADF0DCC0AEF00001AF6BB06B08
:10ABF800020EB16FBE0EB26F000EB36FA6EC7BF003
:10AC0800BE0E0001606F000E616F40EC93F0000112
:10AC180060510008070FC86F000EC96F1CD0C951DA
:10AC2800010DBE0EF324D96E000EF420DA6EC95160
:10AC3800C8C0BCF0BD6BBC27000EBD230C0EBC27E2
:10AC4800000EBD238C0EBC25E16E020EBD21E26E06
:10AC5800DFCFE7FFC92BC951010DBE0EF324D96E12
:10AC6800000EF420DA6EDF50D8A4D9D7F3C093F0E1
:10AC7800F4C094F036EC96F093C095F094C096F03A
:10AC8800020E0001976FBE0E986F000E996F92EC3E
:10AC98006BF0000E0001C96F18D0C951010DBE0E2E
:10ACA800F324D96E000EF420DA6EC951BC6FBD6B67
:10ACB8000B0EBC27000EBD23B40EBC25E16E020EA0
:10ACC800BD21E26EDFCFE7FFC92BC951010DBE0ED2
:10ACD800F324D96E000EF420DA6EDF50D8A4DDD745
:10ACE800C951BC6FBD6B0B0EBC27000EBD23B40E43
:10ACF800BC25D96E020EBD21DA6E010EDF6EC95178
:10AD0800BC6FBD6B0C0EBC27000EBD23B40EBC255A
:10AD1800D96E020EBD21DA6E2F0EDF6EC951BC6FDF
:10AD2800BD6B0D0EBC27000EBD23B40EBC25D96E1D
:10AD3800020EBD21DA6E730EDF6E90D050EC92F0E9
:10AD48000001D351956F966B95BF9607000E976FCC
:10AD5800780E986F020E996F92EC6BF084A402D073
:10AD6800480E01D04C0E0201806F84A002D0480E1C
:10AD780001D04C0E816F0001D451956F966B95BF31
:10AD88009607000E976F8C0E986F020E996F92ECD3
:10AD98006BF084A202D0480E01D04C0E0201946FD1
:10ADA8000001D551956F966B95BF9607000E976F6A
:10ADB800A00E986F020E996F92EC6BF080A002D0F3
:10ADC800480E01D04C0E0201A86F80A402D0480E94
:10ADD80001D04C0EA96F0001D651956F966B95BFA7
:10ADE8009607000E976FB40E986F020E996F92EC4B
:10ADF8006BF080A202D0480E01D04C0E0201BC6F4D
:10AE08002DD00001DD51F00BBC6FBD6BBD51000AA8
:10AE1800D8A424D0BC51000AD8B41EEF51F0100AAF
:10AE2800D8B44DEF51F0300AD8B49DEF51F0100A64
:10AE3800D8B4C0EF51F0700AD8B430EF52F0100A0D
:10AE4800D8B46DD4300AD8B41CD5100AD8B41BD6DF
:10AE5800F00AD8B468D6700AD8B470D783B4120090
:10AE6800450E0201786F520E796F520E7A6F4F0EAF
:10AE78007B6F520E7C6F12000001D351D8A47DEF76
:10AE88005BF0D551D8A47DEF5BF0D451D8A47DEF09
:10AE98005BF0D651D8B412007DEF5BF0D405D8B47E
:10AEA80003D0D605D8A402D0110EDD6FD5C0C4F0EA
:10AEB800C56BC4BFC507D3C0C6F0C76BC6BFC7073D
:10AEC800C451C627C551C723C7BF07D0C75103E11F
:10AED800C605D8A002D0020EDD6FD5C0C4F0C56B80
:10AEE800C4BFC507D3C0C6F0C76BC6BFC707C45128
:10AEF800C627C551C723C7AFA1EF5BF0050EE8D33E
:10AF0800D405D8B403D0D605D8A402D0310EDD6F4D
:10AF1800D5C0C4F0C56BC4BFC507D3C0C6F0C76BE6
:10AF2800C6BFC707C451C627C551C723C7BF07D067
:10AF3800C75103E1C605D8A002D0030EDD6FD5C006
:10AF4800C4F0C56BC4BFC507D3C0C6F0C76BC6BFC6
:10AF5800C707C451C627C551C723C7AFEED3010ED3
:10AF6800B7D3D405D8B403D0D605D8A402D0510E8F
:10AF7800DD6FD5C0C4F0C56BC4BFC507D3C0C6F06C
:10AF8800C76BC6BFC707C451C627C551C723C7BFAC
:10AF980007D0C75103E1C605D8A002D0040EDD6F63
:10AFA800D5C0C4F0C56BC4BFC507D3C0C6F0C76B56
:10AFB800C6BFC707C451C627C551C723C7AFBDD32E
:10AFC800020E86D3D405D8B403D0D605D8A402D0AF
:10AFD800820EDD6FD5C0C4F0C56BC4BFC507D3C032
:10AFE800C6F0C76BC6BFC707C451C627C551C7231C
:10AFF800C7BF07D0C75103E1C605D8A002D0050EC8
:10B00800DD6FD5C0C4F0C56BC4BFC507D3C0C6F0DB
:10B01800C76BC6BFC707C451C627C551C723C7AF2B
:10B028008CD3030E55D3D405D8B403D0D605D8A4F1
:10B0380002D0710EDD6FD5C0C4F0C56BC4BFC507A3
:10B04800D3C0C6F0C76BC6BFC707C451C627C55112
:10B05800C723C7BF07D0C75103E1C605D8A002D090
:10B06800010EDD6FD5C0C4F0C56BC4BFC507D3C022
:10B07800C6F0C76BC6BFC707C451C627C551C7238B
:10B08800C7AF5BD3040E24D3DD51010AD8B406D769
:10B09800030AD8B435D7010AD8B463D7070AD8B495
:10B0A80091D7010AD8B4BFD7F50A47D3D405D8A495
:10B0B8000ED0000ED76F000ED86F000ED96F000E9D
:10B0C800DA6F000EE76F000EE66F210EDD6FD351C9
:10B0D800800A7F0FD8A002D0120EDD6FD3AF1AD02E
:10B0E800120E0FD0D405D8A402D0010EDD6FD351B3
:10B0F800800A7F0FD8A002D0110EDD6FD3AF0AD01F
:10B10800110EDD6F07D0DD51110AD8B4CFD7030A6D
:10B11800D8B4E8D7D605D8A40AD0E0C060F0E1C01A
:10B1280061F028EC8DF060C0E0F061C0E1F0000152
:10B13800D551800A7F0FD8A019D0DE51D8A416D0D7
:10B14800E0C08FF0E1C090F02AEC92F08FC097F049
:10B1580090C098F091C099F092C09AF0000E00014A
:10B168009C6F000E9B6F010EFCEC88F00001D5AFC0
:10B17800E4D2DE51D8A4E1D2E0C08FF0E1C090F073
:10B188002AEC92F08FC097F090C098F091C099F097
:10B1980092C09AF0000E00019C6F000E9B6FFF0E8C
:10B1A800FCEC88F0CAD20001D405D8B403D0D60587
:10B1B800D8A41FD088C197F089C198F0996B9A6B71
:10B1C800000E9C6F000E9B6F010EFCEC88F088C18E
:10B1D80097F089C198F00001996B9A6B000E9C6FEB
:10B1E800000E9B6FFF0EFCEC88F00001E269010E77
:10B1F800DD6FD5C0C4F0C56BC4BFC507D3C0C6F0EA
:10B20800C76BC6BFC707C451C627C551C723C7BF29
:10B2180007D0C75103E1C605D8A002D0220EDD6FC2
:10B22800D5C0C4F0C56BC4BFC507D3C0C6F0C76BD3
:10B23800C6BFC707C451C627C551C723C7AF7DD2EC
:10B24800220E46D2D405D8B403D0D605D8A420D02F
:10B2580088C197F089C198F0996B9A6B000E9C6F22
:10B26800000E9B6FFF0EFCEC88F088C197F089C137
:10B2780098F00001996B9A6B000E9C6F000E9B6F03
:10B28800010EFCEC88F0010E0001E26F010EDD6F8B
:10B29800D5C0C4F0C56BC4BFC507D3C0C6F0C76B63
:10B2A800C6BFC707C451C627C551C723C7BF07D0E4
:10B2B800C75103E1C605D8A002D0210EDD6FD5C065
:10B2C800C4F0C56BC4BFC507D3C0C6F0C76BC6BF43
:10B2D800C707C451C627C551C723C7AF2ED2210EF1
:10B2E800F7D10001DD51210AD8B45DD7030AD8B4DB
:10B2F800A9D723D2D405D8A405D0B6EC73F0410E53
:10B308000001DD6FD351800A7F0FD8A002D0320E22
:10B31800DD6FD3AF1AD0320E0FD0D405D8A402D027
:10B32800020EDD6FD351800A7F0FD8A002D0310EF4
:10B33800DD6FD3AF0AD0310EDD6F07D0DD51310A92
:10B34800D8B4D8D7030AD8B4E8D7D605D8A405D036
:10B35800E5510EEC95F00001E56FD551800A7F0F9D
:10B36800D8A004D0E551E327000EE423D5AFE5D1FA
:10B37800E551C46FC56BE351C45DC551800AC66F02
:10B38800E451800AC659D8B005D0E551E35F000EF4
:10B39800E45BD3D1000EE46F010EE36FCED1D40588
:10B3A800D8A402D0020EDD6FD605D8B4CEEC8AF050
:10B3B8000001D551800A7F0FD8B0F1EC93F000015D
:10B3C800D5AFBBD1F9EC8EF0B8D10001D405D8A423
:10B3D80002D0620EDD6FD351800A7F0FD8A002D051
:10B3E800520EDD6FD3AF1BD0520E0FD0D405D8A4A8
:10B3F80002D0030EDD6FD351800A7F0FD8A002D090
:10B40800510EDD6FD3AF0BD0510EDD6F08D00001A8
:10B41800DD51510AD8B4D9D7030AD8B4E7D7D6052D
:10B42800D8A40AD0EAC060F0EBC061F060EC8DF0FF
:10B4380060C0EAF061C0EBF00001D551800A7F0FCF
:10B44800D8A01CD0EA51EC27EB51ED23000EEE23D7
:10B45800000EEF23EFBF12D0EF5108E1A10EEC5D13
:10B46800860EED59010EEE59D8A008D0A00EEC6F4B
:10B47800860EED6F010EEE6F000EEF6FD5AF5DD14A
:10B48800EA51C46FEB51C56FC66BC76BC451EC5F13
:10B49800C551ED5BC651EE5BC751EF5BEFBF07D0FF
:10B4A800EF51EE11ED1102E1EC05D8B046D1010ED5
:10B4B800EC6F000EED6F000EEE6F000EEF6F3DD1DA
:10B4C800D351800A7F0FD8A015D0010192510001F5
:10B4D800F05D010193510001F159D8B002D0F04B51
:10B4E800F12BDE51D8B406D0F0C060F0F1C061F0A5
:10B4F80076EC96F00001D3AF4BD0F05101018C5D92
:10B508000001F15101018D59D8B004D00001F007B4
:10B51800D8A0F1070001DE51D8B43AD0F0C060F0ED
:10B52800F1C061F076EC96F033D00001D605D8A4CE
:10B5380006D0FF0EA3EC81F0620E0001DD6FD5513D
:10B54800800A7F0FD8A0F9D0620EC2D0D605D8A441
:10B5580007D0DE51D8A475EC92F0030E0001DD6F20
:10B56800D551800A7F0FD8A002D0630EDD6FD5AF0A
:10B57800E4D0610EADD0D605D8A406D0010EA3EC58
:10B5880081F0620E0001DD6FD5AFD7D0620EA0D07A
:10B598000001DD51610AD8B4C8D7030AD8B4D6D798
:10B5A800010AD8B4E8D7C9D0D605D8A411D0000E5E
:10B5B8009E6F000E9F6F000EA06F000EA16FB8EC7B
:10B5C80063F0050E0001DD6F000EE76F000EE66FF9
:10B5D800D405D8A4B2D0050E7BD0D351800A7F0FF2
:10B5E800D8A012D0010196510001F35D01019751D5
:10B5F8000001F459D8B008D0F34BF42BF3C060F035
:10B60800F4C061F076EC96F00001D3AF63D0F3514B
:10B6180001018C5D0001F45101018D59D8B05AD057
:10B628000001F307D8A0F407F3C060F0F4C061F09C
:10B6380076EC96F04FD00001D605D8A412D0000EB3
:10B64800976F000E986F000E996F000E9A6FF3C0F7
:10B658009BF0F4C09CF0FF0EFCEC88F0840E000117
:10B66800DD6FD551800A7F0FD8A067D0820E30D009
:10B67800D605D8A402D0040EDD6FD551800A7F0FFD
:10B68800D8A002D0830EDD6FD5AF57D0810E20D061
:10B69800D605D8A411D0840EDD6F000E976F000E6A
:10B6A800986F000E996F000E9A6FF3C09BF0F4C06C
:10B6B8009CF0010EFCEC88F00001D5AF3ED0820E64
:10B6C80007D0D605D8A439D075EC92F0820E0001C7
:10B6D800DD6F33D00001DD51810AD8B4ACD7030A3D
:10B6E800D8B4C6D7010AD8B4D3D7070AD8B4E9D78B
:10B6F80024D0DD51F00BC46FC56BC551000AD8A426
:10B708001CD0C451000AD8B4BFD4100AD8B4FBD492
:10B71800300AD8B4E6D5100AD8B410D6700AD8B40E
:10B728003ED6100AD8B473D6300AD8B4C9D6100A8F
:10B73800D8B43AD7F00AD8B450D7000E0001D36F66
:10B74800000ED56F000ED46F000ED66F12009E92B9
:10B758001C50D8A419D08AA216D08A9201014B5144
:10B768000D1809E14C510E1806E14D510F1803E16F
:10B778004E511018D8A41200CA949E929D92000EA1
:10B788000001DE6F12008A82010E0D26000E0E22C5
:10B798000F2210221B502E6E000E2EBEFF0E2F6E93
:10B7A800306E316E2E500001D7272F50D8233050DD
:10B7B800D9233150DA23010183510001D71918E147
:10B7C800010184510001D81913E1010185510001DB
:10B7D800D9190EE1010186510001DA19D8A408D05F
:10B7E800000ED76F000ED86F000ED96F000EDA6FFB
:10B7F800D7291BE1D82919E1D92917E1DA29D8A4D1
:10B8080014D0FF0E010183250001D76FFF0E01013F
:10B8180084210001D86FFF0E010185210001D96F35
:10B82800FF0E010186210001DA6F010147510D1851
:10B8380009E148510E1806E149510F1803E14A5130
:10B848001018D8A40FD20DC02EF00EC02FF00FC0C4
:10B8580030F010C031F02E1E2F1E301E311E2E2A41
:10B86800000E2F22302231224B512E24426E4C5191
:10B878002F20436E4D513020446E4E513120456E7D
:10B88800D8900001CA35F66ECB35F76E610EF626F4
:10B89800940EF722F86A000EF8220900F5CF3EF060
:10B8A8000A00F5CF3FF0CAC02EF0CBC02FF0D890D9
:10B8B8002E362F36040E2E26000E2F22610E2E2431
:10B8C800F66E940E2F20F76EF86A000EF822090023
:10B8D800F5CF40F00A00F5CF41F0CA5101016B5D88
:10B8E8000001CB5101016C59D8A010D03E502E6EEA
:10B8F8003F502F6E306A316A42502E5C43502F58A9
:10B908004450305845503158D8A0E0D00001CA51B1
:10B91800CB11D8B403D0CA07D8A0CB071C04D8A42D
:10B9280024D02F0ECA25F66E980ECB21F76EF86A32
:10B93800000EF8220800F5500009D8B416D0000E01
:10B948001C6E8A82550EA76EAA0EA76E0E01BF91B5
:10B95800000EC46F550EA76EAA0EA76EBF81000E0B
:10B96800CC6EBA90BA92BA94BA96FD0E0001CA2566
:10B97800F66E9B0ECB21F76EF86A000EF8220800CF
:10B98800F5CF2EF0CA502E18FC0B2E18CA6E160EC4
:10B99800CA25F66E9A0ECB21F76EF86A000EF822C9
:10B9A8000800F5CFCBFF2F0ECA25F66E980ECB21D7
:10B9B800F76EF86A000EF8220800F5CF2EF02E4632
:10B9C8002E462E46CA502E18870B2E18CA6ED890AF
:10B9D800CB30BB6ECA51CB11D8B458D0FE0E2E6EE8
:10B9E800FF0E2F6ECAC030F0CBC031F0D890303681
:10B9F80031362E5030262F503122610E3024F66E0B
:10BA0800940E3120F76EF86A000EF8220900F5CF7F
:10BA180032F00900F5CF33F03250346E3350356EC2
:10BA2800366A376A341E351E361E371E342A000E13
:10BA3800352236223722D890CA35F66ECB35F76EC6
:10BA4800610EF626940EF722F86A000EF822090015
:10BA5800F5CF38F00900F5CF39F0385034243A6E74
:10BA6800395035203B6E000E36203C6E000E3720D4
:10BA78003D6E0D503A240101476F0E503B20486F30
:10BA88000F503C20496F10503D20EBD0D89000015A
:10BA9800CA35F66ECB35F76E610EF626940EF72290
:10BAA800F86A000EF8220900F5CF2EF00900F5CF4C
:10BAB8002FF02E500D240101476F2F500E20486F94
:10BAC800000E0F20496F000E1020CBD06B510001E3
:10BAD800CA1906E101016C510001CB19D8B410D084
:10BAE80040502E6E41502F6E306A316A42502E5CA3
:10BAF80043502F584450305845503158D8A002D0A0
:10BB0800D8905DD00001CA4BCB2BFD0ECA25F66E2E
:10BB18009B0ECB21F76EF86A000EF8220800F5CFCD
:10BB28002EF0CA502E18FC0B2E18CA6E160ECA25F7
:10BB3800F66E9A0ECB21F76EF86A000EF82208000E
:10BB4800F5CFCBFF2F0ECA25F66E980ECB21F76ED8
:10BB5800F86A000EF8220800F5CF2EF02E462E4681
:10BB68002E46CA502E18870B2E18CA6ED890CB3086
:10BB7800BB6E1C50D8A421D02F0ECA25F66E980E85
:10BB8800CB21F76EF86A000EF8220800F55000097C
:10BB9800D8A413D0010E1C6EBA50F00B0C09BA6E63
:10BBA800550EA76EAA0EA76E0E01BF910E0EC46F9A
:10BBB800550EA76EAA0EA76EBF81D8900001CA3590
:10BBC800F66ECB35F76E610EF626940EF722F86AFC
:10BBD800000EF8220900F5CF2EF00900F5CF2FF05E
:10BBE8002E50306E2F50316E326A336A301E311E3D
:10BBF800321E331E302A000E312232223322CAC0AE
:10BC080034F0CBC035F0D89034363536020E3426B1
:10BC1800000E3522610E3424F66E940E3520F76E30
:10BC2800F86A000EF8220900F5CF36F00900F5CFC2
:10BC380037F036503024386E37503120396E000EC8
:10BC480032203A6E000E33203B6E0D50382401012D
:10BC5800476F0E503920486F0F503A20496F1050E7
:10BC68003B204A6F9EA212009E92010E0D26000EE6
:10BC78000E220F2210221B502E6E000E2EBEFF0E1B
:10BC88002F6E306E316E2E500001D7272F50D823DB
:10BC98003050D9233150DA23010183510001D719DB
:10BCA80018E1010184510001D81913E101018551FE
:10BCB8000001D9190EE1010186510001DA19D8A451
:10BCC80008D0000ED76F000ED86F000ED96F000E87
:10BCD800DA6FD7291CE1D8291AE1D92918E1DA291C
:10BCE800D8A41200FF0E010183250001D76FFF0EB3
:10BCF800010184210001D86FFF0E01018521000197
:10BD0800D96FFF0E010186210001DA6F12001200BF
:10BD1800BFD1ACEC6EF00009D8A412000001CF69C5
:10BD280012002AEC65F00009D8A412000001CF69BE
:10BD38001200CE05D8A402D0CF69120012C112F0A9
:10BD480013C111F011C06AF012C06BF06C6B6D6B0F
:10BD580047EC7FF00009D8A41200000E0001616FC3
:10BD6800240E606F4CEC87F0000E0001606F060E29
:10BD7800616F600E626FA10E636F000E656F240E17
:10BD8800646FC9EC8EF0FD0E0001CF6F1200B7C1D1
:10BD980060F0B8C161F021EEA5F001D80AD0050025
:10BDA800FA6EDE50FD6EDE50FE6EDE50FF6EFA500B
:10BDB800120060C0A2F061C0A3F062C0A4F063C02A
:10BDC800A5F0B7C160F0B8C161F021EEA8F001D8C4
:10BDD8000AD00500FA6EDE50FD6EDE50FE6EDE50B3
:10BDE800FF6EFA501200000160C09EF061C09FF023
:10BDF800A06BA16B26EE00F0A5C0DFFF26EE01F0D8
:10BE0800A4C0DFFF26EE02F0A3C0DFFF26EE03F09A
:10BE1800A2C0DFFF26EE04F0A1C0DFFF26EE05F08A
:10BE2800A0C0DFFF26EE06F09FC0DFFF26EE07F07A
:10BE38009EC0DFFF000E126E080E116E000E616FBD
:10BE4800080E606F4CEC87F0FD0E0001CF6F1200FA
:10BE5800CE05D8A402D0CF691200000E126E120EC1
:10BE6800116E000E616F120E606F4CEC87F0000EC1
:10BE78000001A66F110EA66501D014D0A651010DC0
:10BE88001F0EF324D96E010EF420DA6EA651010DAF
:10BE9800000EF324E16E060EF420E26EDFCFE7FF1A
:10BEA800A62BE8D7FD0ECF6F1200030EE8CF00F6E1
:10BEB800000EE8CF01F6B7C160F0B8C161F021EE1D
:10BEC800B1F001D80AD00500FA6EDE50FD6EDE50E2
:10BED800FE6EDE50FF6EFA5012000009D8A405D09D
:10BEE800000E00019C6F000E04D0000E00019C6F34
:10BEF800800E9B6F26EE02F09BC0DFFF000EE8CF9E
:10BF080003F6000E126E040E116E000E616F040E21
:10BF1800606F4CEC87F0FD0E0001CF6F120001013D
:10BF28002151F00B0509216F200E2B6F000E2C6F8D
:10BF3800010E0D018C6F000E886F000E896F000EC8
:10BF48008A6F000E8B6F0001CF691200000E6A6FB6
:10BF5800000E6B6F000E6C6F000E6D6F47EC7FF07C
:10BF68000009D8A41200010121510F0B060AD8A418
:10BF780007D00D018C05D8A403D00001CF691200A9
:10BF880067EC8EF0000E0D01886F000E896F000EB1
:10BF98008A6F000E8B6F0001CF691200000E0D0131
:10BFA800886F000E896F000E8A6F000E8B6F00017C
:10BFB800CF69120013501410D8B406D013C0D9FF9B
:10BFC80014C0DAFFDFBE120001010B510A1109117A
:10BFD80004E1400E085DD8A00BD0400E00019D6F13
:10BFE800400E0101085F000E095B0A5B0B5B0AD07B
:10BFF80008C19DF0000E086F000E096F000E0A6F51
:10C00800000E0B6F00019D51996F9A6B9951115C4D
:10C018009A511258D8A005D09D51115E000E125A9F
:10C028001AD0000EA66F13D011501210D8B404D035
:10C038001106D8A012060AD0A651010D000EF3244D
:10C04800D96E060EF420DA6E000EDF6EA62B9D5117
:10C05800A65DD8A0E9D7010E606F000E616F060ECD
:10C06800626F9DC063F0020EC0EC7DF060C013F0FB
:10C0780061C014F00101085109110A110B11D8A46B
:10C0880012000001CF6912007F0E91EC7AF01200C5
:10C098000001CF51000AD8B459D7030AD8B4D8D66A
:10C0A800110AD8B446D6080AD8B4FFD6010AD8B4BB
:10C0B80075D7050AD8B433D73B0AD8B468D60D0A61
:10C0C800D8B427D6020AD8B42CD6050AD8B466D76D
:10C0D800D20AD8B46FD7030AD7D700017151800BA1
:10C0E8007A6F71517125806F70BF80818051D8B48B
:10C0F8000DD08029D8A408D0000E6E6F000E6F6F87
:10C10800000E706F000E716F708F08D0000E6E6F8A
:10C11800000E6F6F000E706F000E716F7551800BFF
:10C128007A1B755175257B6F74BF7B817B51D8B4A1
:10C138000DD07B29D8A408D0000E726F000E736F43
:10C14800000E746F000E756F748F08D0000E726F3A
:10C15800000E736F000E746F000E756F7B51D8B4AC
:10C1680003D08051D8A409D0000E6E6F000E6F6FF7
:10C17800000E706F000E716F120074516E03F3CFD2
:10C1880085F0F4CF86F085517C6F7D6B7E6B7F6B7D
:10C198008651816F826B836B846B73516F03F3CF0E
:10C1A80085F0F4CF86F085517C27000E7D237E2311
:10C1B8007F2386518127000E822383238423725193
:10C1C8007003F3CF85F0F4CF86F085517C27000EFD
:10C1D8007D237E237F2386518127000E822383239C
:10C1E80084237EC07FF07DC07EF07CC07DF07C6BB8
:10C1F80072516F03F3CF85F0F4CF86F085517C2719
:10C2080086517D23000E7E23000E7F2373516E031B
:10C21800F3CF85F0F4CF86F085517C2786517D23B6
:10C22800000E7E23000E7F237EC07FF07DC07EF04F
:10C238007CC07DF07C6B72516E03F3CF85F0F4CF38
:10C2480086F085517C2786517D23000E7E23000EC3
:10C258007F2374516F03F3CF85F0F4CF86F08551B7
:10C26800812786518223000E8323000E8423735175
:10C278007003F3CF85F0F4CF86F08551812786517E
:10C288008223000E8323000E842374517003F3CF9E
:10C2980085F0F4CF86F08551766F8651776F786B8D
:10C2A800796B78C079F077C078F076C077F0766BE4
:10C2B80076518127775182237851832379518423BA
:10C2C8007CC076F07DC077F07EC078F07FC079F0D2
:10C2D800190E05D0D8907933783377337633E82E32
:10C2E800F9D7765181277751822378518323795161
:10C2F80084237EC07FF07DC07EF07CC07DF07C6BA7
:10C308007B5180C076F0776B7627000E7723820EFC
:10C318007625856FFF0E7721866F0FD0D8908137ED
:10C328008237833784377FBF8181D8907C377D37C8
:10C338007E377F378507D8A0860783AFEFD7000EF3
:10C348007B6F7FAF16D0FF0E7C15766FFF0E7D15C5
:10C35800776FFF0E7E15786F7F0E7F15796F765198
:10C36800771178117911D8A402D081A102D0010ED9
:10C378007B6F7B51D8B41FD0010E8127000E82231A
:10C388008323842384A117D081C076F082C077F0FC
:10C3980083C078F084C079F079357933783377338E
:10C3A800763376C081F077C082F078C083F079C0A8
:10C3B80084F0854B862B86BF0DD0865103E18529F5
:10C3C800D8A008D0000E816F000E826F800E836F98
:10C3D8007F0E20D086BF05D086510EE18505D8B0E6
:10C3E8000BD0000E816F000E826F000E836F000E5F
:10C3F800846F000E7A6F0FD085C080F0FF0E811712
:10C40800FF0E82177F0E8317000E841780B1838F6B
:10C41800D8908031846F7A51841381C06EF082C0C5
:10C428006FF083C070F084C071F012000001755184
:10C43800800B826F75517525846F74BF8481845118
:10C44800D8B40DD08429D8A408D0000E726F000E7D
:10C45800736F000E746F000E756F748F06D0000E28
:10C46800726F000E736F000E746F000E756F795146
:10C47800800B836F82518319D8A4828D79517925D5
:10C48800836F78BF83818351D8B40DD08329D8A412
:10C4980008D0000E766F000E776F000E786F000ED2
:10C4A800796F788F06D0000E766F000E776F000ECA
:10C4B800786F000E796F8451835DD8B022D082AD39
:10C4C80002D0800E821B84C085F083C084F085C0B2
:10C4D80083F072C085F076C072F085C076F073C0C4
:10C4E80085F077C073F085C077F074C085F078C0A8
:10C4F80074F085C078F075C085F079C075F085C096
:10C5080079F0000E856F84517A6F7B6B7A1F7B1FE1
:10C518007A4B7B2B83517C6F7D6B7A517C277B51C7
:10C528007D237DBF2CD07D5104E11A0E7C5DD8A0FF
:10C5380026D07251731174117511D8B402D0010E3E
:10C5480001D0000E856F000E726F000E736F000E23
:10C55800746F000E756F83C084F015D085A105D067
:10C56800D89085310109856F02D0D890853372B192
:10C57800858F75357533743373337233842B8351D8
:10C58800845DD8A0EBD782BD28D08451D8A409D027
:10C59800000E726F000E736F000E746F000E756FD1
:10C5A8001200765172277751732378517423795189
:10C5B800752375A182D085A105D0D8908531010950
:10C5C800856F02D0D890853372B1858F75357533F4
:10C5D800743373337233842B70D07651725D775114
:10C5E8007359785174597551800A7A6F7951800A54
:10C5F8007A59D8B036D072C07AF073C07BF074C064
:10C608007CF075C07DF07A1F7B1F7C1F7D1F7A2B05
:10C61800000E7B237C237D2376517A257E6F77510C
:10C628007B217F6F78517C21806F79517D21816FCB
:10C63800FF0E7E25726FFF0E7F21736FFF0E802124
:10C64800746FFF0E8121756F800E821B856D855179
:10C65800D8A40FD0010E7227000E732374237523FC
:10C6680008D07651725F7751735B7851745B79515A
:10C67800755B7251731174117511D8A41CD0855152
:10C68800D8A419D0000E726F000E736F000E746F6D
:10C69800000E756F1200D89072377337743775377C
:10C6A80085BF728185A102D0D88001D0D890853706
:10C6B8008451D8A4840774AFEED7000E836F85AF7A
:10C6C8000AD085C07AF07F0E7A17D8A402D072A15A
:10C6D80002D0010E836F8351D8B420D0010E722787
:10C6E800000E73237423752375A118D072C07AF0D5
:10C6F80073C07BF074C07CF075C07DF07D357D33F0
:10C708007C337B337A337AC072F07BC073F07CC0A1
:10C7180074F07DC075F08429D8A4842B8429D8B4FA
:10C7280003D08451D8A40DD0000E726F000E736F21
:10C73800000E746F000E756F8451D8A402D0000EDD
:10C74800826F84A102D0748F01D0749FD8908431F5
:10C75800756F82BF758F72C072F073C073F074C04A
:10C7680074F075C075F012000001DE51D8A41200F3
:10C778009E51D7190AE19F51D81907E1A051D9193B
:10C7880004E1A151DA19D8B41200000EAA6F000E04
:10C79800AB6F000EAC6F000EAD6FD7C0A2F0D8C063
:10C7A800A3F0D9C0A4F0DAC0A5F0A21FA31FA41F4C
:10C7B800A51FA22B000EA323A423A5239E51A225C7
:10C7C800B26F9F51A321B36FA051A421B46FA1519F
:10C7D800A521B56FB2510101835D0001B35101017B
:10C7E80084590001B451010185590001B551010175
:10C7F8008659D8B00FD083510001B2270101845166
:10C808000001B323010185510001B42301018651C0
:10C818000001B5230001E229D8A424D001018851E0
:10C828000001B227010189510001B323000EB4238E
:10C83800000EB523010188510001AA270101895181
:10C848000001AB23000EAC23000EAD2301018A5179
:10C858000001AA2701018B510001AB23000EAC2374
:10C86800000EAD23000EAE6F000EAF6F000EB06F5E
:10C87800000EB16F9EC0A2F09FC0A3F0A0C0A4F0AC
:10C88800A1C0A5F0A21FA31FA41FA51FA22B000EC5
:10C89800A323A423A523D751A225B66FD851A3213A
:10C8A800B76FD951A421B86FDA51A521B96FB65124
:10C8B8000101835D0001B751010184590001B8519C
:10C8C800010185590001B95101018659D8B00FD02D
:10C8D80083510001B627010184510001B7230101EA
:10C8E80085510001B823010186510001B9230001D7
:10C8F800E205D8A424D0010188510001B62701011E
:10C9080089510001B723000EB823000EB923010195
:10C9180088510001AE27010189510001AF23000EA3
:10C92800B023000EB12301018A510001AE27010195
:10C938008B510001AF23000EB023000EB123AE517E
:10C94800B625A26FAF51B721A36FB051B821A46F1C
:10C95800B151B921A56FAA51B225A66FAB51B32128
:10C96800A76FAC51B421A86FAD51B521A96FA251E1
:10C97800A65DA351A759A451A859A551A959D8B042
:10C9880032D0E205D8A410D0B2C097F0B3C098F066
:10C99800B4C099F0B5C09AF0000E9C6F000E9B6F62
:10C9A800010EFCEC88F01200B2C097F0B3C098F00A
:10C9B800B4C099F0B5C09AF0000E00019C6F000E4B
:10C9C8009B6F010EFCEC88F088C197F089C198F044
:10C9D8000001996B9A6B000E9C6F000E9B6FFF0E07
:10C9E800FCEC88F012000001E229D8A410D0B6C0EF
:10C9F80097F0B7C098F0B8C099F0B9C09AF0000E97
:10CA08009C6F000E9B6FFF0EFCEC88F01200B6C006
:10CA180097F0B7C098F0B8C099F0B9C09AF0000E76
:10CA280000019C6F000E9B6FFF0EFCEC88F088C124
:10CA380097F089C198F00001996B9A6B000E9C6F72
:10CA4800000E9B6F010EFCEC88F0120057D111C14B
:10CA58005AF112C159F113C158F114C157F116C155
:10CA680012F017C111F011500001716F1250726F5E
:10CA7800736B746B090ED8907137723773377437CC
:10CA8800E82EF9D771C06AF072C06BF073C06CF011
:10CA980074C06DF047EC7FF00009D8A440D1B7C14D
:10CAA80060F0B8C161F021EEB1F001D80AD00500FC
:10CAB800FA6EDE50FD6EDE50FE6EDE50FF6EFA50EE
:10CAC80012000009D8B416D0010E0D018C6F0101B7
:10CAD8002151F00B0709216F270E2B6F000E2C6FC9
:10CAE800000E0001606F020E3BEC7DF0000E206E20
:10CAF80020501200010E216E11501210D8B4FBD034
:10CB0800030E206E000E0101756F060E766F000E83
:10CB18000D01886F020E896F000E8A6F000E8B6FF1
:10CB28000D01885189118A118B11D8B41DD00001CB
:10CB3800CC51CD11D8B406D0CCC0D9FFCDC0DAFFC6
:10CB4800DFBEEDD0000E606F75C161F076C162F096
:10CB5800400E636F020EC0EC7DF060C0CCF061C087
:10CB6800CDF0040E206E23D0B7C160F0B8C161F0DB
:10CB780021EEB1F001D80AD00500FA6EDE50FD6E44
:10CB8800DE50FE6EDE50FF6EFA5012000009D8B477
:10CB98000CD0010E0D018C6F01012151F00B02091F
:10CBA800216F270E2B6F000E2C6F020EA5D00001EF
:10CBB800CC51CD11D8B406D0CCC0D9FFCDC0DAFF46
:10CBC800DFBEADD020EE01F0CC51D926CD51DA220E
:10CBD800DF50716F71C072F0736B746B756B72514B
:10CBE8000101085F000173510101095B00017451E3
:10CBF80001010A5B0001755101010B5B000120EE88
:10CC080001F0CC51D926CD51DA22DF50716F71C0B5
:10CC180072F0736B746B756B72510D01885F000154
:10CC280073510D01895B000174510D018A5B00018C
:10CC380075510D018B5B400E01017527000E76239F
:10CC4800030E5AD00D018C51D8A440D0B7C160F062
:10CC5800B8C161F057C162F058C163F059C164F0BE
:10CC68005AC165F0000E0001666F060E676F01017C
:10CC78005751581159115A11D8A402D0010E01D098
:10CC8800000E0001686F21EEB4F001D80AD005004B
:10CC9800FA6EDE50FD6EDE50FE6EDE50FF6EFA500C
:10CCA8001200E806D8B412D0640E01017D6102D0EA
:10CCB8007D2B35D0010E0D018C6F01012151F00B38
:10CCC8000309216F000E2B6F000E2C6F010E01015E
:10CCD8005727000E582359235A231106D8A01206A5
:10CCE800010E0AD0020E0D018C6F000E0001606F5C
:10CCF800020E3BEC7DF0000E206E11D02050000A91
:10CD0800D8B4A5D6010AD8B4F7D6030AD8B49AD7A6
:10CD1800010AD8B405D7070AD8B449D7E3D72050B1
:10CD2800120000017151800B7E6F71517125856F62
:10CD380070BF85818551D8B40DD08529D8A408D075
:10CD4800000E6E6F000E6F6F000E706F000E716F29
:10CD5800708F06D0000E6E6F000E6F6F000E706F32
:10CD6800000E716F7551800B7E1B75517525866F8E
:10CD780074BF86818651D8B40DD08629D8A408D02E
:10CD8800000E726F000E736F000E746F000E756FD9
:10CD9800748F06D0000E726F000E736F000E746FE2
:10CDA800000E756F7251731174117511D8A417D0D4
:10CDB800000E6E6F000E6F6F000E706F000E716FB9
:10CDC800800E70137F0E71137E5171136EC06EF05A
:10CDD8006FC06FF070C070F071C071F012008551B3
:10CDE800D8A411D0000E6E6F000E6F6F000E706F1A
:10CDF800000E716F6EC06EF06FC06FF070C070F093
:10CE080071C071F012008651766F776B761F771FAD
:10CE1800764B772B8551786F796B765178277751D8
:10CE280079237F0E78257F6F000E7921806F6EC081
:10CE38007AF06FC07BF070C07CF071C07DF0000E9E
:10CE48006E6F000E6F6F000E706F000E716F000E28
:10CE5800816F000E826F000E836F000E846F000ECC
:10CE6800866F28D08651D8B411D0D8907A377B37BE
:10CE78007C377D37D8906E376F377037713784BFFE
:10CE88006E81D890813782378337843772517A5DC3
:10CE980073517B5974517C5975517D59D8A009D06B
:10CEA800848D72517A5F73517B5B74517C5B7551D1
:10CEB8007D5B862B190E8665D5D77A517B117C113F
:10CEC8007D11D8B411D081810FD0D8906E376F37CB
:10CED8007037713784BF6E81D89081378237833736
:10CEE80084377F07D8A0800770AFEFD7000E866F12
:10CEF80084AF16D0FF0E8115766FFF0E8215776FFF
:10CF0800FF0E8315786F7F0E8415796F7651771130
:10CF180078117911D8A402D06EA102D0010E866FC3
:10CF28008651D8B41FD0010E6E27000E6F237023D0
:10CF3800712371A117D06EC076F06FC077F070C002
:10CF480078F071C079F0793579337833773376337F
:10CF580076C06EF077C06FF078C070F079C071F06D
:10CF68007F4B802B80BF10D0805103E17F29D8A050
:10CF78000BD0000E806F7F69000E6E6F000E6F6F12
:10CF8800000E706F000E716F80BF05D0805111E1E7
:10CF98007F05D8B00ED0000E806F000E7F6F000E98
:10CFA8006E6F000E6F6F000E706F000E716F000EC7
:10CFB8007E6F7FC085F085A102D0708F01D0709FF1
:10CFC800D8908531716F7E5171136EC06EF06FC04D
:10CFD8006FF070C070F071C071F012000D01320571
:10CFE800D8A40ED030511F0B0009D8A409D0048E44
:10CFF800030E3119D8A402D0010E01D0000E286EFC
:10D008003251D8A4120030511F0B020AD8A41200C2
:10D0180034510F0B0009D8B4120034510F0B456E70
:10D02800030E45601200200E2B18D8A41200048E9F
:10D0380034BF19D034510F0B456E4550020D410EC7
:10D04800F324D96E010EF420DA6EDECF49F0DDCF7D
:10D058004AF034510F0B456E4550010D650EF3240F
:10D06800D96E010E18D034510F0B456E4550020D84
:10D07800070EF324D96E000EF420DA6EDECF49F0E5
:10D08800DDCF4AF034510F0B456E4550010D680E47
:10D09800F324D96E010EF420DA6EDF50486E48B0E2
:10D0A80006D0FB0E4914496EFF0E4A1404D0040E34
:10D0B8004910496E4A504A6E34BF0AD034510F0B9A
:10D0C800456E4550020D410EF324D96E010E09D06C
:10D0D80034510F0B456E4550020D070EF324D96EDF
:10D0E800000EF420DA6E49C0DEFF4AC0DDFF030EF1
:10D0F8003119D8A42DD049C0D9FF4AC0DAFFDFAE14
:10D108001AD034BF0AD034510F0B456E4550010D6B
:10D11800650EF324D96E010E0AD00D0134510F0BA0
:10D12800456E4550010D680EF324D96E010EF420AA
:10D13800DA6E0101DF8249C0D9FF4AC0DAFF000E6A
:10D14800DB8449C0D9FF4AC0DAFF000EDB8E12002B
:10D15800040E4918496E4A504A6E49C0D9FF4AC060
:10D16800DAFFDFAE1BD049C0D9FF4AC0DAFF7F0E15
:10D17800DF1649C0D9FF4AC0DAFF000EDB8C000E6B
:10D188003E6E050E3D6E49C03FF04AC040F0000EAD
:10D19800426E020E416EF2EC8BF006D049C0D9FF08
:10D1A8004AC0DAFF000EDB8C040E4918496E4A505B
:10D1B8004A6E48B206D049C0D9FF4AC0DAFFDFAE8E
:10D1C80030D00D0134BF0AD034510F0B456E455095
:10D1D800010D650EF324D96E010E0AD00D013451EC
:10D1E8000F0B456E4550010D680EF324D96E010EE4
:10D1F800F420DA6E0101DF9249C0D9FF4AC0DAFF94
:10D208003B0EDF16000E3E6E050E3D6E49C03FF028
:10D218004AC040F0000E426E020E416EF2EC8BF0F6
:10D2280006D049C0D9FF4AC0DAFF3B0EDF160D0110
:10D2380034510F0B456E4550010D260EF324466EF2
:10D248000F0EF420476E46C0D9FF47C0DAFFFE0E26
:10D25800DF16120098D0EB0E12003C0E1200900E52
:10D268001200130EF66EA20EF76E000EF86E08008E
:10D27800F5501200140EF66EA20EF76E000EF86E40
:10D288000800F5501200150EF66EA20EF76E000E8D
:10D29800F86E0800F5501200160EF66EA20EF76E24
:10D2A800000EF86E0800F5501200170EF66EA20E6A
:10D2B800F76E000EF86E0800F5501200180EF66EA4
:10D2C800A20EF76E000EF86E0800F5501200190E47
:10D2D800F66EA20EF76E000EF86E0800F5501200FA
:10D2E8001A0EF66EA20EF76E000EF86E0800F550D4
:10D2F8001200000E1200020E1200010E1200010EA2
:10D308001200000E1200010E1200400E1200000E54
:10D318001200FF0E12001F0E1200F80E1200200E4F
:10D328001200000E12003F0E1200000E1200100E26
:10D338001200000E1200000E1200000E1200000E65
:10D348001200000E1200010E1200000E1200220E32
:10D358001200000E1200000E1200460E1200410EBE
:10D368001200540E1200310E1200360E1200200E5A
:10D378001200200E1200200E1200550E1200AA0EE6
:10D388001200000E120060C062F061C063F000017C
:10D398006351000AD8B404D0010AD8B48DD0F1D7AB
:10D3A8006251000AD8B457D7010AD8B456D7030A2D
:10D3B800D8B455D7010AD8B454D7070AD8B45AD71D
:10D3C800010AD8B460D7030AD8B466D7010AD8B41A
:10D3D8006CD70F0AD8B472D7010AD8B478D7030A21
:10D3E800D8B47ED7010AD8B484D7070AD8B483D76B
:10D3F800010AD8B482D7030AD8B481D7010AD8B4AD
:10D4080080D71F0AD8B47FD7010AD8B47ED7030AB9
:10D41800D8B47DD7010AD8B47CD7070AD8B47BD74B
:10D42800010AD8B47AD7030AD8B479D7010AD8B48C
:10D4380078D70F0AD8B477D7010AD8B476D7030AB1
:10D44800D8B475D7010AD8B474D7070AD8B473D733
:10D45800010AD8B472D7030AD8B471D7010AD8B46C
:10D4680070D7370AD8B46FD7010AD8B46ED7050A6F
:10D47800D8B46DD7010AD8B46CD7030AD8B46BD71F
:10D48800010AD8B468D7190AD8B467D7010AD8B43A
:10D4980066D70F0AD8B465D7010AD8B464D7030A87
:10D4A800D8B463D7010AD8B462D7070AD8B461D709
:10D4B800010AD8B460D765D76251FE0AD8B45DD7DF
:10D4C800010AD8B45CD75DD7200E2B18D8A4120057
:10D4D800A09814D10001CC51CD11D8B406D0CCC03D
:10D4E800D9FFCDC0DAFFDFBE17D1000EB16F1E0E17
:10D4F800B16501D014D0B151010D400EF324D96E9D
:10D508000D0EF420DA6EB151010D000EF324E16E18
:10D51800010EF420E26EDFCFE7FFB12BE8D720EE53
:10D5280001F0CC51D926CD51DA221F0EDE18D8A42D
:10D5380071D0550E010100196DE1530E01196AE110
:10D54800420E021967E1430E0319D8A463D0010EF5
:10D558007A6F0D51D8A451D0110E0E614ED00E51D4
:10D56800D8B44BD00CC1ACF03F0E0001AC17D8A416
:10D5780044D0550E0D01806F530E816F420E826F9D
:10D58800530E836F04C184FD05C185FD06C186FD68
:10D5980007C187FD000E886F000E896F000E8A6F25
:10D5A800000E8B6F000E8C6F0001CF69000E010119
:10D5B8007E6F000E206E000E7D6F030E0F19D8B41B
:10D5C80008D02191219321952197000E2B6F000EF1
:10D5D8002C6F0CAF02D0010E01D0020E216E085143
:10D5E80009110A110B11D8B402D0000E01D0010E96
:10D5F8000001CE6F0FC1CFF08FD0010E0001606F18
:10D60800020E3BEC7DF0000E0001606F020E3BEC59
:10D618007DF082D0010E0001606F020E3BEC7DF0C0
:10D62800000E0001606F020E3BEC7DF0000E010160
:10D638007A6F72D0CDEC78F0FF0AD8A46DD011D0F3
:10D64800CDEC78F0FF0AD8A467D00D018C51D8A48E
:10D6580008D0885189118A118B11D8B402D0020ED2
:10D668008C6F030E3DD00BC0ADF00CC0AEF00001C6
:10D67800AD51AE11D8B40AD00BC0AFF00CC0B0F0A9
:10D68800AFC0D9FFB0C0DAFFDFBE46D0010E606F71
:10D69800800E616F0D0E626F0D0E636F020EC0EC8F
:10D6A8007DF060C013F061C014F00001CC51CD11C1
:10D6B800D8B406D0CCC0D9FFCDC0DAFFDFBE0FD0BA
:10D6C800000E606F400E616F0D0E626F400E636F4B
:10D6D800020EC0EC7DF060C0CCF061C0CDF0000E51
:10D6E800216E1AD0000E216E020E0D018C6F000EF5
:10D6F8000001606F020E3BEC7DF00ED02150000A55
:10D70800D8B4E8D6010AD8B495D7030AD8B498D7BC
:10D71800010AD8B4A8D7E6D7A0881200A00E000145
:10D72800706F000E716F95C072F096C073F0000EA6
:10D73800756F0A0E746FBAEC92F0A00E0001606F5C
:10D74800000E616F40EC93F000016051AA6F96AF34
:10D7580054D0AA5100089725020FAB6FAB51800A2D
:10D768007F0FD8A090D097C0ACF0AC29D8B442D0E5
:10D77800AC51ABBF04D0FF0AAB25D8B02AD0ABC0A0
:10D788009AF09B6B9ABF9B079A1F9B1F9A4B9B2BE8
:10D79800AC519C6F9D6B9A519C279B519D23010E08
:10D7A8009C27000E9D23A00E9C25D96E000E9D215E
:10D7B800DA6EAC519E6F9F6B010E9E27000E9F2361
:10D7C800A00E9E25E16E000E9F21E26EDFCFE7FFDF
:10D7D8000FD0AC519A6F9B6B010E9A27000E9B23BA
:10D7E800A00E9A25D96E000E9B21DA6E300EDF6EE0
:10D7F800AC07BBD79751020F45D0AA51000897250F
:10D808009A6F9A29AB6FAB51800A7F0FD8A03BD093
:10D8180097C0ACF0AC29D8B434D0AC51ABBF04D06D
:10D82800FF0AAB25D8B021D0ABC09AF09B6B9ABF4A
:10D838009B079A1F9B1F9A4B9B2BAC519C6F9D6B10
:10D848009A519C279B519D23A00E9C25D96E000EB2
:10D858009D21DA6EAC51010DA00EF324E16E000E8D
:10D86800F420E26EDFCFE7FF0AD0AC51010DA00E25
:10D87800F324D96E000EF420DA6E300EDF6EAC079A
:10D88800C9D79729AA6F97510008AA259A6F9A05B0
:10D89800976F000EAC6F23D0AC51010DA00EF3248E
:10D8A800D96E000EF420DA6EAC51010DF3509825B4
:10D8B800E16EF4509921E26EDFCFE7FF9751AC1982
:10D8C800D8A40CD0AC2BAC51010DF3509825D96ECF
:10D8D800F4509921DA6E2E0EDF6E1ED0AC2BAA51B1
:10D8E800AC5DD8B019D0D8D7AC51010DA00EF32437
:10D8F800D96E000EF420DA6EAC519A6F9B6B010E54
:10D908009A27000E9B239A519825E16E9B519921E5
:10D91800E26EDFCFE7FFAC2BAA51AC5DD8A0E4D70D
:10D92800AC519A6F9B6B010E9A27000E9B239A515C
:10D938009825D96E9B519921DA6E000EDF6E120080
:10D94800000E0001856F000E846F020E855DD8B051
:10D9580011D0000E8425D96E080E8521DA6E84C098
:10D9680060F085C061F0CBEC83F0DF6E0001844B82
:10D97800852BEBD7000E806F000E7F6F000E816F36
:10D98800080E826FB2EC91F0000E0001856F000E58
:10D99800846F020E855DD8B011D0000E8425D96E33
:10D9A800080E8521DA6E84C060F085C061F02EEC27
:10D9B80069F0DF6E0001844B852BEBD7000E806F7A
:10D9C800010E7F6F000E816F080E826FB2EC91F02E
:10D9D800000E0001856F000E846F020E855DD8B0C1
:10D9E80011D0000E8425D96E080E8521DA6E84C008
:10D9F80060F085C061F00BEC90F0DF6E0001844BA5
:10DA0800852BEBD7000E806F020E7F6F000E816FA3
:10DA1800080E826FB2EC91F0000E0001856F000EC7
:10DA2800846F020E855DD8B00BD0000E8425D96EA8
:10DA3800080E8521DA6E000EDF6E844B852BF1D738
:10DA4800000E856F030E846F855112E1220E845DEE
:10DA5800D8B00ED084C07FF085C080F0000E816FF2
:10DA6800080E826FB2EC91F00001844B852BECD745
:10DA7800000E856F000E846F020E855DD8B011D040
:10DA8800000E8425D96E080E8521DA6E84C060F0F8
:10DA980085C061F06FEC71F0DF6E0001844B852B5F
:10DAA800EBD7000E806F220E7F6F000E816F080E7D
:10DAB800826FB2EC91F0000E0001856F000E846F4A
:10DAC800020E855DD8B00BD0000E8425D96E080EE5
:10DAD8008521DA6E000EDF6E844B852BF1D7000EA0
:10DAE800856F230E846F855112E1260E845DD8B0B0
:10DAF8000ED084C07FF085C080F0000E816F080EC4
:10DB0800826FB2EC91F00001844B852BECD7000EAC
:10DB1800856F000E846F020E855DD8B011D0000E9F
:10DB28008425D96E080E8521DA6E84C060F085C020
:10DB380061F068EC95F0DF6E0001844B852BEBD724
:10DB4800000E806F260E7F6F000E816F080E826FA9
:10DB5800B2EC91F0120000016A6F6AC01BF000017C
:10DB68006051611162116311D8A40AD0000E01013D
:10DB78004B6FFF0E4C6FFF0E4D6FFF0E4E6F08D0B0
:10DB880060C04BF161C04CF162C04DF163C04EF111
:10DB9800000164516511D8A405D08EC16BF18FC105
:10DBA8006CF104D064C06BF165C06CF1000ECB6FF2
:10DBB800000ECA6F000E0D6E000E0E6E000E0F6E78
:10DBC800000E106E630EF66E940EF76E000EF86E71
:10DBD8000900F5CF66F00900F5CF67F066C047F198
:10DBE80067C048F10101496B4A6BBA90BA92BA947E
:10DBF800BA968A9000016A29D8A405D001018751F4
:10DC0800D8B405D006D001018751D8B402D08A947F
:10DC180001D08A848A82010E0D26000E0E220F2260
:10DC280010221B500001666F000E66BFFF0E676F63
:10DC3800686F696F6651D7276751D8236851D92310
:10DC48006951DA23010183510001D71918E1010153
:10DC580084510001D81913E1010185510001D91936
:10DC68000EE1010186510001DA19D8A408D0000E8E
:10DC7800D76F000ED86F000ED96F000EDA6FD72954
:10DC88001BE1D82919E1D92917E1DA29D8A414D038
:10DC9800FF0E010183250001D76FFF0E01018421CA
:10DCA8000001D86FFF0E010185210001D96FFF0E19
:10DCB800010186210001DA6F550EA76EAA0EA76E24
:10DCC8000E01BF91000EC46F550EA76EAA0EA76E67
:10DCD800BF81000E1C6EFD0E0001CA25F66E9B0E5C
:10DCE800CB21F76EF86A000EF8220800F5CF66F02F
:10DCF800CA506619FC0B6619CA6E160ECA25F66E4E
:10DD08009A0ECB21F76EF86A000EF8220800F5CFBC
:10DD1800CBFF2F0ECA25F66E980ECB21F76EF86A48
:10DD2800000EF8220800F5CF66F06647664766479A
:10DD3800CA506619870B6619CA6ED890CB30BB6E6D
:10DD48009E929D82000ECC6ECA84010EDE6F120078
:10DD5800DCD011C15AF112C159F113C158F114C1E3
:10DD680057F116C112F017C111F011500001956F4B
:10DD78001250966F976B986B090ED8909537963717
:10DD880097379837E82EF9D795C06AF096C06BF0A8
:10DD980097C06CF098C06DF047EC7FF00009D8A4EC
:10DDA800C6D0010E01017E6F11501210D8A402D006
:10DDB800000E4AD01106D8A01206020E7E6F13502C
:10DDC8001410D8B406D013C0D9FF14C0DAFFDFBED0
:10DDD800AED0B7C18BF0B8C18CF057C18DF058C127
:10DDE8008EF059C18FF05AC190F0000E0001916F6A
:10DDF800060E926F21EEAEF001D80AD00500FA6E39
:10DE0800DE50FD6EDE50FE6EDE50FF6EFA501200E0
:10DE1800E806D8B41BD0640E01017D6102D07D2BC9
:10DE280086D0020E0D018C6F01012151F00B030900
:10DE3800216F000E2B6F000E2C6F010E0001606F1A
:10DE4800020E3BEC7DF05ED07E6F71D0010E0101B9
:10DE58005727000E582359235A23000E0D01886FA7
:10DE6800020E896F000E8A6F000E8B6F000E010183
:10DE7800756F060E766F030E7E6F0D01885189113E
:10DE88008A118B11D8A402D0010E3DD0040E0101D5
:10DE98007E6F13501410D8B406D013C0D9FF14C025
:10DEA800DAFFDFBE44D0010E0001606F75C161F07A
:10DEB80076C162F0400E636F020EC0EC7DF060C068
:10DEC80013F061C014F0030E01017E6F400E085F6D
:10DED800000E095B0A5B0B5B400E0D01885F000EAC
:10DEE800895B8A5B8B5B400E01017527000E7623E8
:10DEF8001ED0020E0D018C6F010E0001606F020E24
:10DF08003BEC7DF0000E01019FD701017E51000A14
:10DF1800D8B41FD7010AD8B447D7030AD8B44FD703
:10DF2800010AD8B4AAD7070AD8B4B3D7E2D70101EF
:10DF38007E511200C4CF89F000018A6B89518A6F23
:10DF4800896BC350891301013A51020D3B0EF3242A
:10DF5800D96E010EF420DA6E00018951DE268A514D
:10DF6800DD2201013A51010D3F0EF324D96E010E55
:10DF7800F420DA6EDF2AC2823A51010D3F0EF324F3
:10DF8800D96E010EF420DA6E080EDE18D8A4AFD0D0
:10DF98003A51020D3B0EF324D96E010EF420DA6ECD
:10DFA800DECF87F0DDCF88F087C060F088C061F0F1
:10DFB8000001626B636B000EA9EC75F060C06EF037
:10DFC80061C06FF062C070F063C071F0C6EC94F08D
:10DFD8006EC072F06FC073F070C074F071C075F0ED
:10DFE800000E0001766F900E776FA40E786F460EC4
:10DFF800796F1AEC62F072C08BF073C08CF074C049
:10E008008DF075C08EF08BC06EF08CC06FF08DC037
:10E0180070F08EC071F0680E0001726F910E736F10
:10E028003D0E746F3F0E756F71EC60F06EC08BF033
:10E038006FC08CF070C08DF071C08EF08BC060F036
:10E048008CC061F08DC062F08EC063F013EC82F07A
:10E0580001013A51020DF70EF324D96E000EF42097
:10E06800DA6E000160C0DEFF61C0DDFF01013A51D8
:10E07800020D3B0EF324D96E010EF420DA6E000E69
:10E08800DE6E000EDD6E3A51010D3F0EF324D96E9F
:10E09800010EF420DA6E000EDF6E0001FE51D8B4D6
:10E0A80013D0F8BF06D0600EF75D090EF859D8B046
:10E0B8001ED0FABF06D0600EF95D090EFA59D8B025
:10E0C80016D08B9C000E12D0F8BF06D0C50EF75D97
:10E0D800090EF859D8B008D0FABF09D0C50EF95DB5
:10E0E800090EFA59D8A003D08B8C010EFE6F0101DE
:10E0F8003A51D8A407D0C250C30B2C09C26E010EE6
:10E108003A6F1200C250C30B2409C26E000E3A6F58
:10E1180012006BC0D9FF6CC0DAFF100EDF6E000171
:10E1280020EE01F06B51D9266C51DA22A10EDF6E78
:10E1380020EE02F06B51D9266C51DA22620EDF6EA6
:10E1480020EE03F06B51D9266C51DA22000EDF6EF7
:10E1580020EE04F06B51D9266C51DA22030EDF6EE3
:10E1680020EE05F06B51D9266C51DA22000EDF6ED5
:10E1780020EE06F06B51D9266C51DA22D0C0DFFFB1
:10E1880020EE07F06B51D9266C51DA22D1C0DFFF9F
:10E1980020EE08F06B51D9266C51DA22D2C0DFFF8D
:10E1A80020EE09F06B51D9266C51DA22D3C0DFFF7B
:10E1B80020EE0AF06B51D9266C51DA22D4C0DFFF69
:10E1C80020EE0BF06B51D9266C51DA22D5C0DFFF57
:10E1D80020EE0CF06B51D9266C51DA22D6C0DFFF45
:10E1E8000D0E6B25606F000E6C21616FD70E626F8C
:10E1F800000E636F000E656F040E646FC9EC8EF03D
:10E20800110E00016B25606F000E6C21616FDB0E33
:10E21800626F000E636F000E656F040E646FC9ECC9
:10E228008EF0000120EE15F06B51D9266C51DA22E0
:10E23800DDC0DFFF20EE16F06B51D9266C51DA22D3
:10E24800F6C0DFFF20EE17F06B51D9266C51DA22A9
:10E25800F7C0DFFF20EE18F06B51D9266C51DA2297
:10E26800F851DF6E20EE19F06B51D9266C51DA2285
:10E27800F9C0DFFF20EE1AF06B51D9266C51DA2273
:10E28800FA51DF6E20EE1BF06B51D9266C51DA2261
:10E29800FEC0DFFF20EE1CF06B51D9266C51DA224C
:10E2A800FFC0DFFF20EE1DF06B51D9266C51DA223A
:10E2B800DEC0DFFF2A0E6B25606F000E6C21616FD8
:10E2C800830E626F010E636F000E656F160E646F2A
:10E2D800C9EC8EF01200000161511DE1200E605D55
:10E2E800D8B019D0615110E10B0E605DD8B00CD0D8
:10E2F800FE0E6025F66EA10E6121F76EF86A000E1B
:10E30800F8220800F55012000B0E60196111D8A40C
:10E3180002D0080E1200615103E1400E605DD8B0D2
:10E32800A4D0200E605F000E615B615110E1080E01
:10E33800605DD8B00CD00A0E6025F66EA20E612181
:10E34800F76EF86A000EF8220800F55012006151C5
:10E3580046E10B0E605DD8B042D0F80E626FFF0E3A
:10E36800636F60C064F061C065F0625164276351F7
:10E378006523320E6425F66EA20E6521F76EF86AE3
:10E38800000EF8220800F5501200200E1200060EAA
:10E398001200280E1200780E1200DE0E1200380E3F
:10E3A80012005F0E12004B0E1200000E1200000E3B
:10E3B8001200040E1200770E1200DE0E1200380E44
:10E3C8001200020E1200000E12000C0E1200000EB7
:10E3D8001200000E1200000E1200000E120060C0A3
:10E3E80062F061C063F06351000AD8A4F6D76251A5
:10E3F8000B0AD8B4CAD7060AD8B4C9D7030AD8B4FE
:10E40800C8D7010AD8B4C7D71F0AD8B4C6D7010AD3
:10E41800D8B4C5D7030AD8B4C4D7010AD8B4C3D767
:10E42800070AD8B4C2D7010AD8B4C1D7030AD8B4E6
:10E43800C0D7010AD8B4BFD70F0AD8B4BED7010ACB
:10E44800D8B4BDD7030AD8B4BCD7010AD8B4BBD74F
:10E45800070AD8B4BAD7010AD8B4B9D7030AD8B4C6
:10E46800B8D7010AD8B4B7D7B8D7000E120060C021
:10E47800D9FF61C0DAFF130EDF6E000120EE01F054
:10E488006051D9266151DA22A10EDF6E20EE02F02A
:10E498006051D9266151DA22620EDF6E20EE03F058
:10E4A8006051D9266151DA22DDC0DFFF84D020EE29
:10E4B80004F06051D9266151DA22E0C0DFFF120072
:10E4C80020EE04F06051D9266151DA22E5C0DFFF61
:10E4D80020EE05F06051D9266151DA22E451DF6E51
:10E4E80020EE06F06051D9266151DA22E3C0DFFF41
:10E4F80020EE07F06051D9266151DA22E951DF6E2A
:10E5080020EE08F06051D9266151DA22E8C0DFFF19
:10E5180020EE09F06051D9266151DA22E751DF6E09
:10E5280020EE0AF06051D9266151DA22E6C0DFFFF9
:10E53800120020EE04F06051D9266151DA22EB5125
:10E54800DF6E20EE05F06051D9266151DA22EAC06B
:10E55800DFFF20EE06F06051D9266151DA22F2C0C1
:10E56800DFFF20EE07F06051D9266151DA22F15120
:10E57800DF6E20EE08F06051D9266151DA22F0C032
:10E58800DFFF120020EE04F06051D9266151DA2233
:10E59800F5C0DFFF20EE05F06051D9266151DA227F
:10E5A800F451DF6E20EE06F06051D9266151DA226F
:10E5B800F3C0DFFF1200DD510F0B626F636B635115
:10E5C800000AD8A412006251000AD8B41200100A36
:10E5D800D8B46DD7300AD8B46AD7100AD8B470D76F
:10E5E800700AD8B46DD7100AD8B4A3D7300AD8B4F3
:10E5F800A0D7100AD8B41200F00AD8A41200C2D7C3
:10E608000001BA6F7FD0010E0001DD6F1200110EFC
:10E61800DD6F1200310EDD6F1200510EDD6F12003A
:10E62800820EDD6F1200710EDD6F1200000ED76FC3
:10E63800000ED86F000ED96F000EDA6F000EE76F6C
:10E64800000EE66F88C197F089C198F0996B9A6BB4
:10E65800000E9C6F000E9B6F010EFCEC88F088C1C9
:10E6680097F089C198F00001996B9A6B000E9C6F26
:10E67800000E9B6FFF0EFCEC88F00001E2691200AF
:10E68800000ED76F000ED86F000ED96F000EDA6F2C
:10E69800000EE76F000EE66F88C197F089C198F009
:10E6A800996B9A6B000E9C6F000E9B6FFF0EFCEC33
:10E6B80088F088C197F089C198F00001996B9A6B2E
:10E6C800000E9C6F000E9B6F010EFCEC88F0010E93
:10E6D8000001E26F1200000E9E6F000E9F6F000E89
:10E6E800A06F000EA16FB8EC63F00001D50712000F
:10E6F800D52B1200D62B1200D3071200D32B1200F1
:10E70800D42B12000001BA51200AD8B47CD7010AD0
:10E71800D8B47DD7030AD8B47DD7010AD8B47DD739
:10E72800070AD8B47DD7010AD8B47DD7030AD8B46C
:10E738007DD7010AD8B4A4D70F0AD8B4CCD7180A01
:10E74800D8B4D3D7010AD8B4D3D7030AD8B4D2D708
:10E75800010AD8B4D1D7070AD8B4D0D7010AD8A4A7
:10E768001200CED7D7C060F0D8C061F0D9C062F02F
:10E77800DAC063F0000EA9EC75F060C0C0F061C0AB
:10E78800C1F062C0C2F063C0C3F0C0C06EF0C1C0C7
:10E798006FF0C2C070F0C3C071F020EEE3F0DECFBE
:10E7A80060F0DDCF61F00001000E61BFFF0E626F07
:10E7B800636F010EA9EC75F060C072F061C073F070
:10E7C80062C074F063C075F071EC60F06EC0C0F0A8
:10E7D8006FC0C1F070C0C2F071C0C3F0C0C06EF0AD
:10E7E800C1C06FF0C2C070F0C3C071F083C160F0E7
:10E7F80084C161F085C162F086C163F0000EA9ECA6
:10E8080075F060C072F061C073F062C074F063C0EC
:10E8180075F095EC66F06EC0C0F06FC0C1F070C0C6
:10E82800C2F071C0C3F0C0C072F0C1C073F0C2C002
:10E8380074F0C3C075F0000E0001766F000E776F9C
:10E84800000E786F3F0E796F1AEC62F072C0C0F05C
:10E8580073C0C1F074C0C2F075C0C3F0C0C060F02E
:10E86800C1C061F0C2C062F0C3C063F013EC82F0B3
:10E8780060C0BEF061C0BFF0BEC087F0BFC088F006
:10E88800BCEC80F087C0BAF088C0BBF089C0BCF08F
:10E898008AC0BDF0BEC0E6F0BFC0E7F0BAC09EF0C7
:10E8A800BBC09FF0BCC0A0F0BDC0A1F0B8EC63F045
:10E8B8001200000120EE01F09E51D9269F51DA2264
:10E8C800DF50A46FA451A66FA76BA86BA96BA8C053
:10E8D800A9F0A7C0A8F0A6C0A7F0A66B20EE02F08A
:10E8E8009E51D9269F51DA22DF50A46FA451A61356
:10E8F800A8C0A9F0A7C0A8F0A6C0A7F0A66B20EEF4
:10E9080003F09E51D9269F51DA22DF50A46FA451FB
:10E91800A613A8C0A9F0A7C0A8F0A6C0A7F0A66B28
:10E9280020EE04F09E51D9269F51DA22DF50A46FC1
:10E93800A451A613A9BF17D0A951A811A71103E183
:10E94800A605D8A010D0A6C097F0A7C098F0A8C078
:10E9580099F0A9C09AF0000E9C6F000E9B6F010EF3
:10E96800FCEC88F017D0A91FA81FA71FA66D000EE2
:10E97800A723A823A923A6C097F0A7C098F0A8C0EA
:10E9880099F0A9C09AF0000E9C6F000E9B6FFF0EC5
:10E99800FCEC88F00001A56FA2C0D9FFA3C0DAFF84
:10E9A800DF50D8B42BD0A2C0D9FFA3C0DAFF3F0EE6
:10E9B800DF6024D0A2C0D9FFA3C0DAFFDFCFA4F064
:10E9C800010EDF26A451010DF350A025D96EF45095
:10E9D800A121DA6E900EDF6EA2C0D9FFA3C0DAFFC4
:10E9E800DFCFA4F0010EDF26A451010DF350A025BE
:10E9F800D96EF450A121DA6EA5C0DFFF050E120012
:10EA0800A098000E636E000E626E000E0F01266F56
:10EA1800270E0001606F0F0E616F000E636F000E0E
:10EA2800626F000E656F020E646FDEEC94F0160ED6
:10EA38000F01396F9F0E376F7B0E366F000E000186
:10EA4800686F0B0E686501D00ED06851040D000E7A
:10EA5800F324D96E0D0EF420DA6EDE6ADE6ADE6A01
:10EA6800DD6A682BEED7658C000E0F01386F65984C
:10EA7800659C6296000E046E000E0101346F000E54
:10EA8800366F000E356F62B6F4D7010E226E010E96
:10EA9800826F000E816F000E806F000E276E000ED1
:10EAA8000001686F020E686501D02ED06851020D12
:10EAB800070EF324D96E000EF420DA6E000EDE6E17
:10EAC800000EDD6E6851020D410EF324D96E010E61
