:020000040000FA
:0490000047EF48F0FE
:109008005F82FACF49F0FBCF4AF0E9CF4BF0EACFC5
:109018004CF0E1CF4DF0E2CF4EF0D9CF4FF0DACFA0
:1090280050F0F3CF51F0F4CF52F0F6CF53F0F7CF22
:1090380054F0F8CF55F0F5CF56F0DEEC80F09EB244
:10904800FBEC5BF0F2B42CECACF056C0F5FF55C06D
:10905800F8FF54C0F7FF53C0F6FF52C0F4FF51C0E9
:10906800F3FF50C0DAFF4FC0D9FF4EC0E2FF4DC03A
:10907800E1FF4CC0EAFF4BC0E9FF4AC0FBFF49C013
:10908800FAFF5F921100ACEF9EF00008000C001090
:10909800001300160019001C001E002100230026E2
:1090A8000028002A002C002E003000320034003640
:1090B8000038003A003C003D003F004100430045B5
:1090C800004600480049004B004D004E005000513A
:1090D80000530054005600570059005A005C005DC8
:1090E800005F00600062006300640066006700695A
:1090F800006A006C006D006E0070007100720073F1
:109108000074007600780079007A007B007D007E8C
:10911800007F008200850087008A008C008F009104
:10912800009200940098009A009C009E00A100A361
:1091380000A500A700AA00AC00AF00B200B400B7B9
:1091480000B800BA00BC00BE00C000C300C400C61E
:1091580000C800CA00CC00CE00D000D200D400D68F
:1091680000D800D900DB00DD00DF00E100E200E507
:1091780000E700E800EA00EC00EE00EF00F200F380
:1091880000F500F700F800FB00FD000001030104F2
:109198000107010A010C010F01120114011701193D
:1091A800011C011E0121012301250129012B012C8C
:1091B800012E0132013401360138013B013D013FE6
:1091C800014301460148014A014C014F0151015434
:1091D80001560159015B015E016001630166016985
:1091E800016B016E017101740177017A017D0180C3
:1091F80001830187018A018D019101940198019BE6
:10920800019F01A301A601AA01AE01B201B601BAEC
:1092180001BE01C301C701CC01D001D501D901DECE
:1092280001E301E801ED01F301F801FE0103020980
:10923800020F0215021B02210227022E0235023CF0
:109248000243024A0251025902610269027102791B
:109258000282028B0294029E02A702B102BC02C6DD
:1092680002D102DC02DC02DF02E202E502E802EBE4
:1092780002EE02F102F402F702FA02FD0200030410
:109288000307030A030D031103140317031A031E2C
:10929800032103250328032C032F03330336033A42
:1092A800033E034103450349034D03500354035848
:1092B800035C036003640368036C0370037403793D
:1092C800037D03810385038A038E03930397039C1D
:1092D80003A003A503AA03AE03B303B803BD03C2E7
:1092E80003C603CC03D103D603DB03E003E503EB9A
:1092F80003F003F603FB03010406040C041204172D
:10930800041D04230429042F0436043C04420448A1
:10931800044F0455045C0463046A04700477047EF3
:109328000485048D0494049B04A304AA04B204BA1B
:1093380004C204C904D204DA04E204EA04F304FC13
:109348000404050D0516051F05280532053B0545CE
:10935800054F05590563056D05770582058C059749
:1093680005A205AD05B905C405D005DC05E805F479
:109378000501060E061A0628063506430650065E3F
:10938800066D067B068A069906A906B806C806D899
:1093980006E906FA060B071C072E0740075307665F
:1093A8000779078D07A107B607CB07E007F6070C73
:1093B8000823083B0853086B0884089E08B808D39C
:1093C80008EF080B092809450964098309A309C49A
:1093D80009E609080A2C0A510A770A9D0AC50AEF04
:1093E8000A190B450B720B720B7D0B890B940BA0A2
:1093F8000BAC0BB80BC40BD00BDC0BE90BF50B0259
:109408000C0E0C1B0C280C350C420C4F0C5D0C6A16
:109418000C770C850C930CA10CAF0CBD0CCB0CD9A4
:109428000CE80CF70C050D140D230D320D420D51EF
:109438000D610D700D800D900DA00DB10DC10DD2F7
:109448000DE30DF30D050E160E270E390E4B0E5CAF
:109458000E6F0E810E930EA60E010002000300048B
:1094680000050006000700080009000A000B000CB0
:10947800000D000E000F0010001100120013001460
:1094880000150016001700180019001A001B001C10
:10949800001D001E001F00200021002200230024C0
:1094A80000250026002700280029002A002B002C70
:1094B800002D002E002F0030003100320033003420
:1094C80000350036003700380039003A003B003CD0
:1094D800003D003E003F004000410042004300457F
:1094E80000470049004B004D004F00510053005504
:1094F80000570059005B005D005F00610063006574
:1095080000670069006B006E0070007300750077DB
:109518000079007B007D007F008100830085008743
:109528000089008B008D008F0091009300950097B3
:109538000099009B009D009F00A100A300A500A723
:1095480000A900AB00AD00AF00B100B300B500B793
:1095580000B900BB00BD00C000C300C600C900CCF4
:1095680000CF00D200D500D800DB00DE00E100E427
:1095780000E700EA00ED00F000F300F600F900FC57
:1095880000FF000201050108010B010E0111011481
:109598000117011A011D012001230126012A012DAD
:1095A800013001330137013A013E014201450149C9
:1095B800014D015101550159015D01610166016AC1
:1095C800016E01730178017D01820187018C01918F
:1095D8000196019C01A101A701AD01B301B901BF29
:1095E80001C601CC01D301DA01E101E801F001F77C
:1095F80001FF0107020F02180221022A0233023D6D
:1096080002470251025C02670272027E028A0297D6
:1096180002A402B202C002CF02DF02EF02FF02116F
:10962800032303360349035E0373038903A103B9C4
:1096380003D303DD03E403EA03F103F803FF03069E
:10964800040D0415041C0424042B0433043B0442B5
:10965800044A0452045A0463046B0474047C0485A9
:10966800048E0496049F04A904B204BB04C504CE66
:1096780004D804E204EC04F60400050B05150520E3
:10968800052B05360541054C05580564056F057B16
:109698000587059405A005AD05BA05C705D405E2FB
:1096A80005EF05FD050B061906280637064606557B
:1096B800066406740684069406A406B506C606D78C
:1096C80006E906FA060C071F073107440758076B17
:1096D800077F079307A807BD07D207E807FE071506
:1096E800082C0843085B0873088B08A508BE08D82F
:1096F80008F2080D092909450961097E099C09BA7A
:1097080009D909F909190A390A5B0A7D0A9F0AC3A6
:109718000AE70A0C0B310B580B7F0BA70BD00BFA7F
:109728000B250C510C7E0CAB0CDA0C0A0D3B0D6DA5
:109738000DA00DD40D0A0E410E790EB30EEE0E2AB1
:109748000F680FA80FE90F2C107010B610FE104804
:10975800119411E21132128512D91230138913E5CE
:10976800134414A51409157015DA154716B8162BE5
:1097780017A3171E189D182119A819341AC41A5AA4
:109788001BF41B941C391DE41D951E4C1F0A20CE8A
:10979800209A216E224A232E241B25122612271DC9
:1097A800283229532A812BBB2C032E5A2FC030363E
:1097B80032BD335735F5356136CD363B37AA371BC1
:1097C800388C3800397439EA39623ADB3A553BD17A
:1097D8003B4E3CCD3C4E3DD03D543EDA3E613FEAE7
:1097E8003F744001418F411F42B1424543DB4373FF
:1097F800440D45A9454746E74689472E48D5487E42
:1098080049294AD74A874B3A4CEF4CA64D614E1E20
:109818004FDD4FA05065512D52F852C65397546BE7
:109828005542561C57FA570C070504040303030254
:10983800020202020201010101010101010101010B
:109848000101010101010101010101010101010100
:1098580001010101010101010101010101010101F0
:1098680001010101010101010101010101010101E0
:1098780001010101010101010101010101010101D0
:1098880001010000000000000000000000000000CE
:1098980000000000000000000000000000000000C0
:1098A80000000000000000000000000000000000B0
:1098B80000000000000000000000000000000000A0
:1098C8000000000000000000000000000000000090
:1098D8000000000000000000000000000000000080
:1098E8000000000000000000000000000000000070
:1098F8000000000000000000000000000000000060
:10990800000000000000000000000000000000004F
:10991800000000000000000000000000000000003F
:10992800000000000000000000000000000000002F
:10993800000000000000000000000000000000001F
:10994800000000000000000000000000000000000F
:1099580000000000000000000000000000000000FF
:1099680000000000000000000000000000000000EF
:1099780000000000000000000000000000000000DF
:1099880000000000000000000000000000000000CF
:1099980000000000000000000000000000000000BF
:1099A80000000000000000000000000000000000AF
:1099B800000000000000000000000000000000009F
:1099C800000000000000000000000000000000008F
:1099D800000000000000000000000000000000007F
:1099E800000000000000000000000000000000006F
:1099F800000000000000000000000000000000005F
:109A08000000000000000000000000000000ECF270
:109A1800F6F4D2E8D2C0ECDCCFC3B9B0FCF2E8DF90
:109A2800D7D0CAC3BEB8B3AFAAA6A29F9B98959237
:109A38008F8C8A878583817F7D7B79777574727136
:109A48006F6E6C6B6A68676665646261605F5E5DB5
:109A58005C5B595756545351504F4E4C4B4A4948EA
:109A680047464544434241403FFEFBF8F6F3F0EEDB
:109A7800ECE9E7E5E3E0DEDCDAD8D7D5D3D1CFCE21
:109A8800CCCAC9C7C6C4C3C1C0BEBDBCBAB8B6B4C7
:109A9800B3B1AFAEACAAA9A7A6A4A3A1A09F9D9C51
:109AA8009B9A98979695949392908F8E8D8C8B8A8B
:109AB800898887868584838281807F7E7D7C7B7A86
:109AC800797877767574737271706F6E6D6C6B6A76
:109AD800696867666564636261605F5E5D5C5B5A66
:109AE800595857565554535251504F4E4D4C4B4A56
:109AF800494847464544434241403FFFFEFDFCFB81
:109B0800FAF9F8F7F6F5F4F3F2F1F0EFEEEDECEB25
:109B1800EAE9E8E7E6E5E4E3E2E1E0DFDEDDDCDB15
:109B2800DAD9D8D7D6D5D4D3D2D1D0CFCECDCCCB05
:109B3800CAC9C8C7C6C5C4C3C2C1C0BFBEBDBCBBF5
:109B4800BAB9B8B7B6B5B4B3B2B1B0AFAEADACABE5
:109B5800AAA9A8A7A6A5A4A3A2A1A09F9E9D9C9BD5
:109B68009A999897969594939291908F8E8D8C8BC5
:109B78008A898887868584838281807F7E7D7C7BB5
:109B88007A797877767574737271706F6E6D6C6BA5
:109B98006A696867666564636261605F5E5D5C5B95
:109BA8005A595857565554535251504F4E4D4C4B85
:109BB8004A494847464544434241403FFFFEFDFC71
:109BC800FBFAF9F8F7F6F5F4F3F2F1F0EFEEEDEC55
:109BD800EBEAE9E8E7E6E5E4E3E2E1E0DFDEDDDC45
:109BE800DBDAD9D8D7D6D5D4D3D2D1D0CFCECDCC35
:109BF800CBCAC9C8C702020202020202020202025A
:109C0800020202020202020202020202020202022C
:109C1800020202020202020202020202020202021C
:109C2800020202020202020202020202020202020C
:109C380002020202020202020202020202020202FC
:109C480002020202020202020202020202020202EC
:109C580002020202020202020202020202020202DC
:109C680002020202020202020202020202020202CC
:109C780002020202020202020202020202020202BC
:109C880002020202020202020202020202020202AC
:109C9800020202020202020202020202020202029C
:109CA800020202020202020202020202020202028C
:109CB800020202020202020202020202020202027C
:109CC800020202020202020202020202020202026C
:109CD800020202020202020202020202020202025C
:109CE800020201010101010101010101010101015A
:109CF800010101010101010101010101010101014C
:109D0800010101010101010101010101010101013B
:109D1800010101010101010101010101010101012B
:109D2800010101010101010101010101010101011B
:109D3800010101010101010101010101010101010B
:109D480001010101010101010101010101010101FB
:109D580001010101010101010101010101010101EB
:109D680001010101010101010101010101010101DB
:109D780001010101010101010101010101010101CB
:109D880001010101010101010101010101010101BB
:109D980001010101010101010101010101010101AB
:109DA80001010100000000000000000000000000A8
:109DB800000000000000000000000000000000009B
:109DC800000000000000000000000000000000008B
:109DD800000000000000000000000000FAA2FEA041
:109DE80032A1A1A1BEA04D616E75616C204D6F645A
:109DF8006520202020202020202043757272656E67
:109E08007420706F733A2020202020202001547580
:109E1800726E2043435720002053706565642020EC
:109E280020205374617274202020200020202020DC
:109E380020202020202052657475726E20746F20B7
:109E48005A65726F3F202020202043757272656E1C
:109E58007420706F733A202020202020202020209A
:109E680020202020202020202020202020202020EA
:109E78002020205965732020202020202020202009
:109E880020204E6F20204172633A2053697A653D45
:109E98002020202020202020202043757272656E0B
:109EA8007420706F733A20202020202020015475E0
:109EB800726E20434357200020537065656420204C
:109EC800202053746172742020202000202020203C
:109ED8002020202020204172633A2053657420619D
:109EE80072632073697A6520202041726320736948
:109EF8007A653A202020202020202020202053741A
:109F080065702073697A6520002020436F6E66694A
:109F1800726D202020202020202020200020204397
:109F2800616E63656C204469766964653A20202017
:109F380020202020202020202020506F733A20202D
:109F480020202020202020202020202020204A758A
:109F58006D702073697A653A202020202020202007
:109F680020205072657373546F4A756D70200020FD
:109F780043616E63656C4469766964653A2053652C
:109F880074206469766973696F6E20202020202010
:109F980020202020202020202020202020202020B9
:109FA800202F737465702020002020436F6E66692F
:109FB800726D3132333420202020202000202043AD
:109FC800616E63656C2053657475703A20536574CF
:109FD80020646972656374696F6E202020202020D8
:109FE8002020202020202020202020202020204346
:109FF8006F756E746572436C6F636B7769736520F8
:10A00800202020436C6F636B7769736520202020C4
:10A0180020202020202053657475703A20536574E1
:10A02800207A65726F20706F732E202020202020E8
:10A038002020202020202020202020202020537491
:10A0480065702073697A6520002020436F6E666909
:10A05800726D20782E78780120202020002020435F
:10A06800616E63656C204D61696E204D656E753A51
:10A078002020202020202020202020536574757067
:10A088002020202044697669646520202020204112
:10A0980072632020202020204D616E75616C202085
:10A0A800202020476F325A65726F20202020202000
:10A0B80020202020202009024000020100C032098F
:10A0C8000400000203000000092111010001221D03
:10A0D800000705810340000107050103400001094D
:10A0E800040100020806500007058202400001072B
:10A0F800050202400001340353006F006C00640045
:10A10800650072006E006500720064002E00630036
:10A118006F006D002000200020002000200020009B
:10A12800200020002000200020002E03530074008F
:10A13800650070007000650072004D006F007400CB
:10A148006F00720043006F006E00740072006F00B1
:10A158006C006C00650072000080040220000000A2
:10A168004D6963726F6368704D6173732053746FC8
:10A178007261676520202020303030310600FF09E9
:10A1880001A10119012940150026FF007508954015
:10A198008100190129409100C01A033100320033AF
:10A1A80000340035003600370038003900300039F7
:10A1B8000039004F56455253484F4F545F434F5351
:10A1C800545F494E5F535445505300504F534954C0
:10A1D800494F4E5F444953504C41595F3138300024
:10A1E8004D4158494D554D5F53504545445F4D418C
:10A1F8004E55414C00494E495449414C5F535045D6
:10A2080045445F4D414E55414C0046554C4C5F43CB
:10A218004952434C455F494E5F5354455053004F94
:10A2280056455253484F4F545F494E5F535445501B
:10A2380053004D4158494D554D5F53504545445F76
:10A2480041524300494E495449414C5F535045459A
:10A25800445F41524300494E56455253455F444975
:10A2680052454354494F4E001201000200000008B5
:10A27800D804CFED0001010200015553455F434367
:10A28800575F4C494D495400424545505F4455522B
:10A298004154494F4E004D4158494D554D5F53501B
:10A2A800454544004D494E494D554D5F5350454530
:10A2B80044005553455F43575F4C494D495400434B
:10A2C80043575F4C494D49540043575F4C494D49EA
:10A2D80054000A000E010F110F00181800000000AA
:10A2E800000004040404040404043D2A80A73D2A51
:10A2F80080A60403090468656C6C6F20776F726C24
:10A30800642100537465707065724374726C004602
:10A31800494C4520202020004D53444F53352E30C2
:10A328000020202020202020200043616E63656CDF
:10A338000053746F7020005458540000AAEF57F06F
:10A34800480E0001606F020E616F6E0E626FA00E04
:10A35800636F000E656F500E646FACECA5F00FD004
:10A368003E0E02015C6FD8EF57F03E0E0201656F9A
:10A37800D8EF57F03E0E0201796FD8EF57F0010180
:10A388007451010AD8B4ECD7030AD8B4EED7010A3D
:10A39800D8B467D0070AD8B4EDD7010A72D0480EEE
:10A3A8000001606F020E616F1E0E626FA00E636F78
:10A3B800000E656F500E646FACECA5F076C19FF08F
:10A3C80077C1A0F0020E0001A16FC80EA26F000EA7
:10A3D800A36F3CEC72F0E80E0101765D030E77592D
:10A3E800D8A002D0000E01D0010E0001D26F000EDD
:10A3F800D36F18D0D351010DC80EF324D96E000EB7
:10A40800F420DA6ED351D2C0C6F0C76BC627000E4F
:10A41800C723840EC625E16E020EC721E26EDFCF88
:10A42800E7FFD32BD351010DC80EF324D96E000ECC
:10A43800F420DA6EDF50D8A4DDD701017451110A77
:10A448008ED0480E0001606F020E616FCE0E626FF3
:10A458009F0E636F000E656F500E646FACECA5F035
:10A468000AD03E0E0201706FD8EF57F03E0E02017F
:10A47800846FD8EF57F001017451210AD8B4F1D78D
:10A48800030AD8B4F3D7D8EF57F0480E0001606F2D
:10A49800020E616F7E0E626F9F0E636F000E656F16
:10A4A800500E646FACECA5F07BC178F00001796BBD
:10A4B800030E7A6FC80E7B6F000E7C6FDFEC90F096
:10A4C800000E0001D36F020ED36501D014D0D35112
:10A4D800010DC80EF324D96E000EF420DA6ED351A4
:10A4E800010D700EF324E16E020EF420E26EDFCF50
:10A4F800E7FFD32BE8D779C178F07AC179F0040E59
:10A508007A6FC80E7B6F000E7C6FDFEC90F0000E48
:10A518000001D36F030ED36501D01ED0D351010DB6
:10A52800C80EF324D96E000EF420DA6ED351010D53
:10A53800840EF324E16E020EF420E26EDFCFE7FF13
:10A54800D32BE8D73E0E02017C6FD8EF57F03E0EB2
:10A558000201906FD8EF57F001017451310AD8B455
:10A56800F1D7030AD8B4F3D7D8EF57F0480E000153
:10A57800606F020E616F2E0E626F9F0E636F000E8A
:10A58800656F500E646FACECA5F079C178F07AC1B4
:10A5980079F0000E00017A6FC80E7B6F000E7C6F99
:10A5A800DFEC90F0000E0001D36F18D0D351010DED
:10A5B800C80EF324D96E000EF420DA6ED351C66F9C
:10A5C800C76B080EC627000EC723480EC625E16EC6
:10A5D800020EC721E26EDFCFE7FFD32BD351010D67
:10A5E800C80EF324D96E000EF420DA6EDF50D8A41A
:10A5F800DDD7D351C66FC76B080EC627000EC72319
:10A60800480EC625D96E020EC721DA6E2C0EDF6EF3
:10A6180001017829D8A424D00001D351C66FC76B93
:10A628000A0EC627000EC723480EC625D96E020E8D
:10A63800C721DA6E430EDF6ED351C66FC76B0B0EA0
:10A64800C627000EC723480EC625D96E020EC7219D
:10A65800DA6E430EDF6ED351C66FC76B0C0E14D083
:10A668000001D351C66FC76B0A0EC627000EC72359
:10A67800480EC625D96E020EC721DA6E430EDF6E6C
:10A68800D351C66FC76B0B0EC627000EC723480EE3
:10A69800C625D96E020EC721DA6E570EDF6E7CC151
:10A6A80078F07DC179F0000E7A6FC80E7B6F000ECE
:10A6B8007C6FDFEC90F0000E0001D36F18D0D351FF
:10A6C800010DC80EF324D96E000EF420DA6ED351B2
:10A6D800C66FC76B050EC627000EC7235C0EC625BE
:10A6E800E16E020EC721E26EDFCFE7FFD32BD35115
:10A6F800010DC80EF324D96E000EF420DA6EDF5077
:10A70800D8A4DDD7D351C66FC76B060EC627000E77
:10A71800C7235C0EC625D96E020EC721DA6E280E35
:10A72800DF6ED351070FD26F95ECA9F060C0B7F078
:10A7380061C0B8F062C0B9F063C0BAF0020E00019F
:10A74800BB6FC80EBC6F000EBD6F05EC88F0000E25
:10A758000001D36F18D0D351010DC80EF324D96E60
:10A76800000EF420DA6ED251D3C0C6F0C76BC627EC
:10A77800000EC7235C0EC625E16E020EC721E26EED
:10A78800DFCFE7FFD32BD351010DC80EF324D96EC9
:10A79800000EF420DA6EDF50D8A4DDD7D251D3C032
:10A7A800C6F0C76BC627000EC7235C0EC625D96E38
:10A7B800020EC721DA6E010EDF6ED251D3C0C6F089
:10A7C800C76BC627000EC723010EC627000EC72376
:10A7D8005C0EC625D96E020EC721DA6E290EDF6E11
:10A7E8007EC18FF07FC190F0C80E916F000E926FFE
:10A7F800ECECAAF0000E0001D36F18D0D351010D74
:10A80800C80EF324D96E000EF420DA6ED351C66F49
:10A81800C76B0B0EC627000EC723700EC625E16E48
:10A82800020EC721E26EDFCFE7FFD32BD351010D14
:10A83800C80EF324D96E000EF420DA6EDF50D8B4B7
:10A84800B3D3DCD7480E606F020E616FDE0E626F05
:10A858009E0E636F000E656F500E646FACECA5F032
:10A8680008D03E0E02017C6F0CD03E0E0201906FA4
:10A8780008D001017451510AD8B4F3D7030AD8B4E7
:10A88800F4D782C1B7F083C1B8F084C1B9F085C1EB
:10A89800BAF0020E0001BB6FC80EBC6F000EBD6F90
:10A8A80005EC88F0000E0001D36F18D0D351010DCC
:10A8B800C80EF324D96E000EF420DA6ED351C66F99
:10A8C800C76B0A0EC627000EC7235C0EC625E16EAD
:10A8D800020EC721E26EDFCFE7FFD32BD351010D64
:10A8E800C80EF324D96E000EF420DA6EDF50D8A417
:10A8F800DDD7D351C66FC76B0A0EC627000EC72314
:10A908005C0EC625D96E020EC721DA6E010EDF6E07
:10A9180080C19FF081C1A0F0020EA16FC80EA26F86
:10A92800000EA36F3CEC72F0E80E0101805D030E8F
:10A938008159D8A002D0000E01D0010E0001D26FBB
:10A94800000ED36F18D0D351010DC80EF324D96E61
:10A95800000EF420DA6ED351D2C0C6F0C76BC627FA
:10A96800000EC723840EC625E16E020EC721E26ED3
:10A97800DFCFE7FFD32BD351010DC80EF324D96ED7
:10A98800000EF420DA6EDF50D8A4DDD7D351D2C040
:10A99800C6F0C76BC627000EC723840EC625D96E1E
:10A9A800020EC721DA6E010E68D2480E606F020EE1
:10A9B800616F8E0E626F9E0E636F000E656F500E94
:10A9C800646FACECA5F025D0570E0201766F200E0F
:10A9D800776F27D0700E0001606F020E616F290E2D
:10A9E800626FA30E636F000E656F080E646FACECA8
:10A9F800A5F0840E0001606F020E616F320E626F67
:10AA0800A30E636F000E656F060E646FACECA5F0C5
:10AA180008D001017451620AD8B4DCD7010AD8B44D
:10AA2800D3D782C1B7F083C1B8F084C1B9F085C16A
:10AA3800BAF0020E0001BB6FC80EBC6F000EBD6FEE
:10AA480005EC88F0000E0001D36F18D0D351010D2A
:10AA5800C80EF324D96E000EF420DA6ED351C66FF7
:10AA6800C76B0A0EC627000EC723480EC625E16E1F
:10AA7800020EC721E26EDFCFE7FFD32BD351010DC2
:10AA8800C80EF324D96E000EF420DA6EDF50D8A475
:10AA9800DDD7D351C66FC76B0A0EC627000EC72372
:10AAA800480EC625D96E020EC721DA6E010EDF6E7A
:10AAB80095ECA9F060C0B7F061C0B8F062C0B9F019
:10AAC80063C0BAF0020E0001BB6FC80EBC6F000E67
:10AAD800BD6F05EC88F0C80E0001606F000E616F55
:10AAE800B4ECABF0000160510008060FD26F000E05
:10AAF800D36F1CD0D351010DC80EF324D96E000EAC
:10AB0800F420DA6ED351D2C0C6F0C76BC627000E48
:10AB1800C7230D0EC627000EC7235C0EC625E16E9F
:10AB2800020EC721E26EDFCFE7FFD32BD351010D11
:10AB3800C80EF324D96E000EF420DA6EDF50D8A4C4
:10AB4800D9D786C19DF087C19EF0BDECAFF09DC0FE
:10AB58009FF09EC0A0F0020E0001A16FC80EA26F68
:10AB6800000EA36F3CEC72F0000E0001D36F18D0FA
:10AB7800D351010DC80EF324D96E000EF420DA6EFD
:10AB8800D351C66FC76B0B0EC627000EC723840EA2
:10AB9800C625E16E020EC721E26EDFCFE7FFD32B99
:10ABA800D351010DC80EF324D96E000EF420DA6ECD
:10ABB800DF50D8A4DDD735D1480E606F020E616F23
:10ABC8003E0E626F9E0E636F000E656F500E646FCF
:10ABD800ACECA5F095ECA9F060C0B7F061C0B8F096
:10ABE80062C0B9F063C0BAF0020E0001BB6FC80EB4
:10ABF800BC6F000EBD6F05EC88F0000E0001D36F2E
:10AC080018D0D351010DC80EF324D96E000EF420CC
:10AC1800DA6ED351C66FC76B0D0EC627000EC72359
:10AC28005C0EC625E16E020EC721E26EDFCFE7FF9C
:10AC3800D32BD351010DC80EF324D96E000EF42086
:10AC4800DA6EDF50D8A4DDD7D351C66FC76B0D0EAF
:10AC5800C627000EC7235C0EC625D96E020EA1D6E4
:10AC6800480E606F020E616FEE0E626F9D0E636F8D
:10AC7800000E656F500E646FACECA5F044D0570E13
:10AC88000201766F200E776F49D0700E0001606F59
:10AC9800020E616F290E626FA30E636F000E656F5F
:10ACA800080E646FACECA5F0840E0001606F020E14
:10ACB800616F320E626FA30E636F000E656F060E32
:10ACC800646FACECA5F02AD0700E0001606F020E24
:10ACD800616F290E626FA30E636F000E656F080E19
:10ACE800646FACECA5F0840E0001606F020E616F1A
:10ACF800390E626FA30E636F000E656F050E646FE9
:10AD0800ACECA5F00BD001017451820AD8B4BDD7C0
:10AD1800010AD8B4B4D7070AD8B4D6D795ECA9F0A5
:10AD280060C0B7F061C0B8F062C0B9F063C0BAF0F3
:10AD3800020E0001BB6FC80EBC6F000EBD6F05ECA4
:10AD480088F0C80E0001606F000E616FB4ECABF0C4
:10AD5800000160510008070FD26F000ED36F1CD09E
:10AD6800D351010DC80EF324D96E000EF420DA6E0B
:10AD7800D351D2C0C6F0C76BC627000EC7230C0E2E
:10AD8800C627000EC7235C0EC625E16E020EC7213A
:10AD9800E26EDFCFE7FFD32BD351010DC80EF324AA
:10ADA800D96E000EF420DA6EDF50D8A4D9D789C145
:10ADB8009DF08AC19EF0BDECAFF09DC09FF09EC093
:10ADC800A0F0020E0001A16FC80EA26F000EA36FC3
:10ADD8003CEC72F0000E0001D36F18D0D351010D76
:10ADE800C80EF324D96E000EF420DA6ED351C66F64
:10ADF800C76B0B0EC627000EC723840EC625E16E4F
:10AE0800020EC721E26EDFCFE7FFD32BD351010D2E
:10AE1800C80EF324D96E000EF420DA6EDF50D8A4E1
:10AE2800DDD7D351C66FC76B0B0EC627000EC723DD
:10AE3800840EC625D96E020EC721DA6E010EDF6EAA
:10AE4800D351C66FC76B0C0EC627000EC723840EDE
:10AE5800C625D96E020EC721DA6E2F0EDF6ED351CA
:10AE6800C66FC76B0D0EC627000EC723840EC625F6
:10AE7800D96E020EC721DA6E730EDF6E95D07FECA5
:10AE8800AAF00101685100019F6FA06B9FBFA00746
:10AE9800000EA16F480EA26F020EA36F3CEC72F079
:10AEA80084A402D0480E01D04C0E0201506F84A039
:10AEB80002D0480E01D04C0E516F010169510001BA
:10AEC8009F6FA06B9FBFA007000EA16F5C0EA26FC3
:10AED800020EA36F3CEC72F084A202D0480E01D09F
:10AEE8004C0E0201646F01016A5100019F6FA06B53
:10AEF8009FBFA007000EA16F700EA26F020EA36F76
:10AF08003CEC72F080A002D0480E01D04C0E020139
:10AF1800786F80A402D0480E01D04C0E796F0101E1
:10AF28006B5100019F6FA06B9FBFA007000EA16F20
:10AF3800840EA26F020EA36F3CEC72F080A202D0C6
:10AF4800480E01D04C0E02018C6F2ED001017451B5
:10AF5800F00B0001C66FC76BC751000AD8A424D0F4
:10AF6800C651000AD8B4A4EF51F0100AD8B4D3EFF0
:10AF780051F0300AD8B425EF52F0100AD8B449EF8E
:10AF880052F0700AD8B4BAEF52F0100AD8B45AD4B2
:10AF9800300AD8B40AD5100AD8B40ED6F00AD8B4F4
:10AFA8005FD6700AD8B46BD783B41200450E02017D
:10AFB800486F520E496F520E4A6F4F0E4B6F520E2A
:10AFC8004C6F120001016851D8A4E2D36A51D8A489
:10AFD800DFD36951D8A4DCD36B51D8B41200D8D3CD
:10AFE8006905D8B403D06B05D8A402D0110E746FCC
:10AFF8006AC1A8F00001A96BA8BFA90768C1AAF097
:10B00800AB6BAABFAB07A851AA27A951AB23ABBF0B
:10B0180008D0AB5103E1AA05D8A003D0020E010164
:10B02800746F6AC1A8F00001A96BA8BFA90768C11D
:10B03800AAF0AB6BAABFAB07A851AA27A951AB23AB
:10B04800ABAFCBD3050E92D36905D8B403D06B054B
:10B05800D8A402D0310E746F6AC1A8F00001A96BA0
:10B06800A8BFA90768C1AAF0AB6BAABFAB07A851D4
:10B07800AA27A951AB23ABBF08D0AB5103E1AA055E
:10B08800D8A003D0030E0101746F6AC1A8F00001B3
:10B09800A96BA8BFA90768C1AAF0AB6BAABFAB0789
:10B0A800A851AA27A951AB23ABAF97D3010E5ED302
:10B0B8006905D8B403D06B05D8A402D0510E746FBB
:10B0C8006AC1A8F00001A96BA8BFA90768C1AAF0C6
:10B0D800AB6BAABFAB07A851AA27A951AB23ABBF3B
:10B0E80008D0AB5103E1AA05D8A003D0040E010192
:10B0F800746F6AC1A8F00001A96BA8BFA90768C14D
:10B10800AAF0AB6BAABFAB07A851AA27A951AB23DA
:10B11800ABAF63D3020E2AD36905D8B403D06B054D
:10B12800D8A402D0820E746F6AC1A8F00001A96B7E
:10B13800A8BFA90768C1AAF0AB6BAABFAB07A85103
:10B14800AA27A951AB23ABBF08D0AB5103E1AA058D
:10B15800D8A003D0050E0101746F6AC1A8F00001E0
:10B16800A96BA8BFA90768C1AAF0AB6BAABFAB07B8
:10B17800A851AA27A951AB23ABAF2FD3030EF6D200
:10B188006905D8B403D06B05D8A402D0710E746FCA
:10B198006AC1A8F00001A96BA8BFA90768C1AAF0F5
:10B1A800AB6BAABFAB07A851AA27A951AB23ABBF6A
:10B1B80008D0AB5103E1AA05D8A003D0010E0101C4
:10B1C800746F6AC1A8F00001A96BA8BFA90768C17C
:10B1D800AAF0AB6BAABFAB07A851AA27A951AB230A
:10B1E800ABAFFBD2040EC2D201017451010AD8B42C
:10B1F800F7D6030AD8B428D7010AD8B459D7070A0A
:10B20800D8B48AD7010AD8B4BBD7F50AE6D26905FB
:10B21800D8A40ED0000E6C6F000E6D6F000E6E6F0E
:10B22800000E6F6F000E7D6F000E7C6F210E746F25
:10B238006851800A7F0FD8A002D0120E746F68AFD1
:10B248001BD0120E0FD06905D8A402D0010E746F5E
:10B258006851800A7F0FD8A002D0110E746F68AFB2
:10B268000BD0110E746F08D001017451110AD8B4B3
:10B27800CED7030AD8B4E7D76B05D8A40AD076C1CD
:10B2880060F077C161F003ECA3F060C076F161C0B3
:10B2980077F101016A51800A7F0FD8A010D075514B
:10B2A800D8A40DD076C199F077C19AF0FF0E0001AD
:10B2B8009C6F9B69010E9D6F010E5AECAAF001016B
:10B2C8006AAF8BD27551D8A488D276C199F077C16C
:10B2D8009AF0FF0E00019C6F9B69010E9D6FFF0E97
:10B2E8005AECAAF07AD201016905D8B403D06B05EB
:10B2F800D8A403D0FF0ED3ECABF06AC1A8F00001CC
:10B30800A96BA8BFA90768C1AAF0AB6BAABFAB0716
:10B31800A851AA27A951AB23ABBF08D0AB5103E171
:10B32800AA05D8A003D0220E0101746F6AC1A8F043
:10B338000001A96BA8BFA90768C1AAF0AB6BAABF97
:10B34800AB07A851AA27A951AB23ABAF46D2220E0F
:10B358000DD26905D8B403D06B05D8A403D0010E6B
:10B36800D3ECABF06AC1A8F00001A96BA8BFA9078C
:10B3780068C1AAF0AB6BAABFAB07A851AA27A9510D
:10B38800AB23ABBF08D0AB5103E1AA05D8A003D0CB
:10B39800210E0101746F6AC1A8F00001A96BA8BF52
:10B3A800A90768C1AAF0AB6BAABFAB07A851AA2727
:10B3B800A951AB23ABAF11D2210ED8D101017451E1
:10B3C800210AD8B490D7030AD8B4C3D706D26905DE
:10B3D800D8A405D0E6EC7CF0410E0101746F6851E9
:10B3E800800A7F0FD8A002D0320E746F68AF1BD0CE
:10B3F800320E0FD06905D8A402D0020E746F6851BE
:10B40800800A7F0FD8A002D0310E746F68AF0BD0BE
:10B41800310E746F08D001017451310AD8B4D7D7EE
:10B42800030AD8B4E7D76B05D8A405D07B5199ECAB
:10B43800ADF001017B6F6A51800A7F0FD8A004D05C
:10B448007B517927000E7A236AAFC7D17B5100015F
:10B45800A86FA96B010179510001A85DA951800A63
:10B46800AA6F01017A51800A0001AA59D8B006D002
:10B4780001017B51795F000E7A5BAFD1000E0101AB
:10B488007A6F010E796FA9D101016905D8A402D09C
:10B49800020E746F6B05D8B4F5EC97F001016A5190
:10B4A800800A7F0FD8B094ECABF001016AAF95D158
:10B4B800AAECA3F092D101016905D8A402D0620ECA
:10B4C800746F6851800A7F0FD8A002D0520E746F33
:10B4D80068AF1BD0520E0FD06905D8A402D0030E56
:10B4E800746F6851800A7F0FD8A002D0510E746F14
:10B4F80068AF0BD0510E746F08D001017451510A16
:10B50800D8B4D9D7030AD8B4E7D76B05D8A40AD0DA
:10B5180080C160F081C161F03BECA3F060C080F1B4
:10B5280061C081F101016A51800A7F0FD8A01CD047
:10B538008051822781518323000E8423000E8523A6
:10B5480085BF12D0855108E1A10E825D860E835910
:10B55800010E8459D8A008D0A00E826F860E836F82
:10B56800010E846F000E856F6AAF37D180510001DC
:10B57800A86F010181510001A96FAA6BAB6BA8519B
:10B588000101825F0001A9510101835B0001AA51F9
:10B598000101845B0001AB510101855B85BF07D0C8
:10B5A80085518411831102E18205D8B016D1010EAC
:10B5B800826F000E836F000E846F000E856F0DD1B1
:10B5C80001016851800A7F0FD8A011D0A551865D6E
:10B5D800A6518759D8B002D0864B872B7551D8B45D
:10B5E80006D086C160F087C161F031ECB0F001018E
:10B5F80068AF46D086519F5D8751A059D8B003D017
:10B608008607D8A087077551D8B43AD086C160F0AC
:10B6180087C161F031ECB0F033D001016B05D8A4DB
:10B6280006D0FF0E6DEC90F0620E0101746F6A5146
:10B63800800A7F0FD8A0D1D0620E99D06B05D8A40C
:10B6480007D07551D8A4E5ECA9F0030E0101746F79
:10B658006A51800A7F0FD8A002D0630E746F6AAF58
:10B66800BCD0610E84D06B05D8A406D0010E6DEC59
:10B6780090F0620E0101746F6AAFAFD0620E77D09E
:10B6880001017451610AD8B4C8D7030AD8B4D6D70F
:10B69800010AD8B4E8D7A1D001016B05D8A418D005
:10B6A800000E0001926F000E936F000E946F000E53
:10B6B800956FFF0E976F9669000E986F000E52EC0B
:10B6C8009CF0050E0101746F000E7D6F000E7C6FFB
:10B6D8006905D8A482D0050E4AD001016851800AB4
:10B6E8007F0FD8B097ECAFF0010168AF42D02EECD5
:10B6F800AFF03FD001016B05D8A40AD089C18CF006
:10B708008AC18DF0FF0EC7ECADF0840E0101746F95
:10B718006A51800A7F0FD8A060D0820E28D06B05AE
:10B72800D8A402D0040E746F6A51800A7F0FD8A083
:10B7380002D0830E746F6AAF50D0810E18D06B059B
:10B74800D8A409D0840E746F89C18CF08AC18DF099
:10B75800010EC7ECADF001016AAF3FD0820E07D0F1
:10B768006B05D8A43AD0E5ECA9F0820E0101746FFC
:10B7780034D001017451810AD8B4BCD7030AD8B4B3
:10B78800CED7010AD8B4DBD7070AD8B4E9D725D071
:10B798007451F00B0001A86FA96BA951000AD8A435
:10B7A8001CD0A851000AD8B41FD5100AD8B45CD54B
:10B7B800300AD8B403D6100AD8B42DD6700AD8B433
:10B7C80063D6100AD8B499D6300AD8B4F9D6100A74
:10B7D800D8B462D7F00AD8B480D7000E0101686FD8
:10B7E800000E6A6F000E696F000E6B6F12009E925A
:10B7F80001014B05D8A404D01B691C691D691E6989
:10B808004951D8A41AD08AA217D08A921B511F195D
:10B8180009E11C51201906E11D51211903E11E51AE
:10B828002219D8A41200CA949E929D9286EC9FF089
:10B83800000E0101756F12008A82010E1F27000E8B
:10B848002023212322234A51316E000E31BEFF0EE0
:10B85800326E336E346E31506C2732506D23335054
:10B868006E2334506F2396516C1914E197516D195A
:10B8780011E198516E190EE199516F19D8A40AD0A7
:10B88800000E6C6F000E6D6F000E6E6F000E6F6F06
:10B89800704B712B6C2916E16D2914E16E2912E1A8
:10B8A8006F29D8A40FD0FF0E96256C6FFF0E972135
:10B8B8006D6FFF0E98216E6FFF0E99216F6F7007E5
:10B8C800D8A071070201385101011F190FE10201C7
:10B8D8003951010120190AE102013A5101012119E6
:10B8E80005E102013B5101012219D8A412001FC130
:10B8F80031F020C132F021C133F022C134F0311EC1
:10B90800321E331E341E312A000E322233223422D4
:10B918001B513124456E1C513220466E1D51332077
:10B92800476E1E513420486ED8905734F66E5834FE
:10B93800F76E610EF626940EF722F86A000EF822CA
:10B948000900F5CF41F00A00F5CF42F057C031F0B9
:10B9580058C032F0D89031363236040E3126000EF7
:10B968003222610E3124F66E940E3220F76EF86A98
:10B97800000EF8220900F5CF43F00A00F5CF44F095
:10B988005750375D58503859D8A010D04150316EB3
:10B998004250326E336A346A4550315C46503258F0
:10B9A8004750335848503458D8A0EDD05750581005
:10B9B800D8B403D05706D8A058064905D8A424D02F
:10B9C8002F0E5724F66E980E5820F76EF86A000E60
:10B9D800F8220800F5500009D8B416D0000E496FB7
:10B9E8008A82550EA76EAA0EA76E0E01BF91000E91
:10B9F800C46F550EA76EAA0EA76EBF81000ECC6E3F
:10BA0800BA90BA92BA94BA96FD0E5724F66E9B0E67
:10BA18005820F76EF86A000EF8220800F5CF31F0CA
:10BA2800CA503118FC0B3118CA6E160E5724F66E20
:10BA38009A0E5820F76EF86A000EF8220800F5CF23
:10BA4800CBFF2F0E5724F66E980E5820F76EF86A23
:10BA5800000EF8220800F5CF31F031463146314664
:10BA6800CA503118870B3118CA6ED890CB30BB6ECC
:10BA780057505810D8B460D0FE0E316EFF0E326E9B
:10BA880057C033F058C034F0D8903336343631507C
:10BA9800332632503422610E3324F66E940E34204D
:10BAA800F76EF86A000EF8220900F5CF35F00900A4
:10BAB800F5CF36F03550376E3650386E396A3A6AF7
:10BAC800371E381E391E3A1E372A000E38223922F0
:10BAD8003A22D8905734F66E5834F76E610EF6262F
:10BAE800940EF722F86A000EF8220900F5CF3BF011
:10BAF8000900F5CF3CF03B5037243D6E3C503820D0
:10BB08003E6E000E39203F6E000E3A20406E010155
:10BB18001F513D240201386F010120513E200201CE
:10BB2800396F010121513F2002013A6F0101225171
:10BB3800402002013B6F1200D8905734F66E5834FB
:10BB4800F76E610EF626940EF722F86A000EF822B8
:10BB58000900F5CF31F00900F5CF32F0315001017D
:10BB68001F250201386F3250010120210201396F6F
:10BB7800000E0101212102013A6F000E010122216C
:10BB880002013B6F120001013751571804E1385187
:10BB98005818D8B410D04350316E4450326E336ABE
:10BBA800346A4550315C46503258475033584850F3
:10BBB8003458D8A05BD0D8905734F66E5834F76E06
:10BBC800610EF626940EF722F86A000EF822090094
:10BBD800F5CF31F00900F5CF32F03150336E3250E5
:10BBE800346E356A366A331E341E351E361E332AC5
:10BBF800000E34223522362257C037F058C038F0AC
:10BC0800D89037363836020E3726000E3822610EA5
:10BC18003724F66E940E3820F76EF86A000EF82274
:10BC28000900F5CF39F00900F5CF3AF0395033243F
:10BC38003B6E3A5034203C6E000E35203D6E000EAF
:10BC480036203E6E1F513B240201386F01012051FE
:10BC58003C200201396F010121513D2002013A6F58
:10BC6800010122513E2002013B6F1200574A582A17
:10BC7800FD0E5724F66E9B0E5820F76EF86A000EDC
:10BC8800F8220800F5CF31F0CA503118FC0B3118F2
:10BC9800CA6E160E5724F66E9A0E5820F76EF86A7A
:10BCA800000EF8220800F5CFCBFF2F0E5724F66EB2
:10BCB800980E5820F76EF86A000EF8220800F5CFA3
:10BCC80031F0314631463146CA503118870B3118A8
:10BCD800CA6ED890CB30BB6E01014951D8A421D08F
:10BCE8002F0E5724F66E980E5820F76EF86A000E3D
:10BCF800F8220800F5500009D8A413D0010E496FA6
:10BD0800BA50F00B0C09BA6E550EA76EAA0EA76EA4
:10BD18000E01BF910E0EC46F550EA76EAA0EA76E28
:10BD2800BF81D8905734F66E5834F76E610EF626F8
:10BD3800940EF722F86A000EF8220900F5CF31F0C8
:10BD48000900F5CF32F03150336E3250346E356A17
:10BD5800366A331E341E351E361E332A000E342230
:10BD68003522362257C037F058C038F0D8903736C9
:10BD78003836020E3726000E3822610E3724F66E4A
:10BD8800940E3820F76EF86A000EF8220900F5CFF5
:10BD980039F00900F5CF3AF0395033243B6E3A5068
:10BDA80034203C6E000E35203D6E000E36203E6E6F
:10BDB80001011F513B240201386F010120513C2031
:10BDC8000201396F010121513D2002013A6F010141
:10BDD80022513E2002013B6F120099C061F09AC0C7
:10BDE80062F0120E0001636FA20E646F66ECA6F09B
:10BDF800000161516211D8A40FD09BC06CF09CC0A7
:10BE08006DF025EC8DF06CC096F16DC097F16EC0A9
:10BE180098F16FC099F1120099C061F09AC062F070
:10BE2800270E0001636FA20E646F66ECA6F0000196
:10BE380061516211D8A40BD09BC066F09CC067F01A
:10BE48005FEC94F066C09BF167C09CF1120099C04A
:10BE580061F09AC062F05E0E0001636FA20E646F1B
:10BE680066ECA6F0000161516211D8A40BD09BC00A
:10BE78006CF09CC06DF025EC8DF000016C51010157
:10BE88009A6F120099C061F09AC062F0270E000103
:10BE9800636FA20E646F66ECA6F000016151621137
:10BEA800D8A40BD09BC066F09CC067F05FEC94F000
:10BEB80066C09BF167C09CF1120099C061F09AC0FE
:10BEC80062F0BB0E0001636FA10E646F66ECA6F012
:10BED800000161516211D8A40BD09BC066F09CC0D0
:10BEE80067F05FEC94F066C09DF167C09EF11200A8
:10BEF80099C061F09AC062F0AC0E0001636FA20EA7
:10BF0800646F66ECA6F0000161516211D8A40BD0F1
:10BF18009BC066F09CC067F05FEC94F066C09FF130
:10BF280067C0A0F1120099C061F09AC062F09E0E3D
:10BF38000001636FA20E646F66ECA6F00001615108
:10BF48006211D8A40BD09BC066F09CC067F05FEC70
:10BF580094F066C0A1F167C0A2F1120099C061F027
:10BF68009AC062F04C0E0001636FA20E646F66EC1B
:10BF7800A6F0000161516211D8A40BD09BC066F0F5
:10BF88009CC067F05FEC94F066C0A3F167C0A4F1B1
:10BF9800120099C061F09AC062F03A0E0001636F16
:10BFA800A20E646F66ECA6F0000161516211D8A47C
:10BFB8000BD09BC066F09CC067F05FEC94F066C045
:10BFC800A5F167C0A6F1120099C061F09AC062F0AD
:10BFD800FD0E0001636FA10E646F66ECA6F0000110
:10BFE80061516211D8A40BD09BC066F09CC067F069
:10BFF8005FEC94F066C0A7F167C0A8F1120099C081
:10C0080061F09AC062F0E80E0001636FA10E646FE0
:10C0180066ECA6F0000161516211D8A40BD09BC058
:10C0280066F09CC067F05FEC94F066C0A9F167C049
:10C03800AAF1120099C061F09AC062F0900E000156
:10C04800636FA20E646F66ECA6F000016151621185
:10C05800D8A40BD09BC066F09CC067F05FEC94F04E
:10C06800000166510101AB6F120099C061F09AC0DE
:10C0780062F0BA0E0001636FA20E646F66ECA6F060
:10C08800000161516211D8A40BD09BC06CF09CC018
:10C098006DF025EC8DF000016C510101AC6F1200C0
:10C0A80099C061F09AC062F0D10E0001636FA20ED0
:10C0B800646F66ECA6F0000161516211D8A421D02A
:10C0C8009BC06CF09CC06DF025EC8DF06CC0ADF1A0
:10C0D8006DC0AEF16EC0AFF16FC0B0F1ADC191F0FF
:10C0E800AEC192F0AFC193F0B0C194F016EC78F005
:10C0F80091C0B1F192C0B2F193C0B3F194C0B4F160
:10C10800120099C061F09AC062F0820E0001636F5C
:10C11800A20E646F66ECA6F0000161516211D8A40A
:10C128000BD09BC06CF09CC06DF025EC8DF000012D
:10C138006C510101B56F120099C061F09AC062F0AC
:10C14800C70E0001636FA20E646F66ECA6F00001D3
:10C1580061516211D8A421D09BC06CF09CC06DF0D5
:10C1680025EC8DF06CC0B6F16DC0B7F16EC0B8F1BA
:10C178006FC0B9F1B6C191F0B7C192F0B8C193F0F0
:10C18800B9C194F016EC78F091C0BAF192C0BBF145
:10C1980093C0BCF194C0BDF1120099C061F09AC07F
:10C1A80062F0D30E0001636FA10E646F66ECA6F017
:10C1B800000161516211D8A412009BC066F09CC0B6
:10C1C80067F05FEC94F0000166510101BE6F120048
:10C1D800000E0001E56F000EE66F000EE76F000E1F
:10C1E800E86F120E846FA20E856F96C186F097C114
:10C1F80087F098C188F099C189F0000EE5258A6F0B
:10C20800080EE6218B6FA3EC8DF00001E36FE3517C
:10C21800E527000EE623E723E8235E0E846FA20ECF
:10C22800856F01019A510001866F876B886B896B56
:10C23800000EE5258A6F080EE6218B6FA3EC8DF0C2
:10C248000001E36FE351E527000EE623E723E82327
:10C25800270E846FA20E856F9BC186F09CC187F064
:10C26800886B896B000EE5258A6F080EE6218B6FB7
:10C27800A3EC8DF00001E36FE351E527000EE62300
:10C28800E723E823BB0E846FA10E856F9DC186F05E
:10C298009EC187F0886B896B000EE5258A6F080EB2
:10C2A800E6218B6FA3EC8DF00001E36FE351E527E6
:10C2B800000EE623E723E823AC0E846FA20E856FF9
:10C2C8009FC186F0A0C187F0886B896B000EE525B9
:10C2D8008A6F080EE6218B6FA3EC8DF00001E36FE7
:10C2E800E351E527000EE623E723E8239E0E846F3B
:10C2F800A20E856FA1C186F0A2C187F0886B896BF9
:10C30800000EE5258A6F080EE6218B6FA3EC8DF0F1
:10C318000001E36FE351E527000EE623E723E82356
:10C328004C0E846FA20E856FA3C186F0A4C187F05E
:10C33800886B896B000EE5258A6F080EE6218B6FE6
:10C34800A3EC8DF00001E36FE351E527000EE6232F
:10C35800E723E8233A0E846FA20E856FA5C186F005
:10C36800A6C187F0886B896B000EE5258A6F080ED9
:10C37800E6218B6FA3EC8DF00001E36FE351E52715
:10C38800000EE623E723E823FD0E846FA10E856FD8
:10C39800A7C186F0A8C187F0886B896B000EE525D8
:10C3A8008A6F080EE6218B6FA3EC8DF00001E36F16
:10C3B800E351E527000EE623E723E823E80E846F20
:10C3C800A10E856FA9C186F0AAC187F0886B896B19
:10C3D800000EE5258A6F080EE6218B6FA3EC8DF021
:10C3E8000001E36FE351E527000EE623E723E82386
:10C3F800820E846FA20E856F0101B5510001866F10
:10C40800876B886B896B000EE5258A6F080EE6211D
:10C418008B6FA3EC8DF00001E36FE351E527000E6D
:10C42800E623E723E823C70E846FA20E856FB6C103
:10C4380086F0B7C187F0B8C188F0B9C189F0000E9D
:10C44800E5258A6F080EE6218B6FA3EC8DF00001BD
:10C45800E36FE351E527000EE623E723E823BA0E4E
:10C46800846FA20E856F0101AC510001866F876B46
:10C47800886B896B000EE5258A6F080EE6218B6FA5
:10C48800A3EC8DF00001E36FE351E527000EE623EE
:10C49800E723E823D10E846FA20E856FADC186F025
:10C4A800AEC187F0AFC188F0B0C189F0000EE525B4
:10C4B8008A6F080EE6218B6FA3EC8DF00001E36F05
:10C4C800E351E527000EE623E723E823900E846F67
:10C4D800A20E856F0101AB510001866F876B886BD7
:10C4E800896B000EE5258A6F080EE6218B6FA3EC99
:10C4F8008DF00001E36FE351E527000EE623E72303
:10C50800E823D30E846FA10E856F0101BE5100018F
:10C51800866F876B886B896B000EE5258A6F080E1E
:10C52800E6218B6FA3EC8DF00001E36FE351E52763
:10C53800000EE623E723E823D40E8B6F020E8C6FE0
:10C54800E40E8D6F020E8E6F86EC8FF00001E46FA3
:10C55800E429D8A415D0D40EAC6F020EAD6FE40E4A
:10C56800AE6F020EAF6FE5C0B0F0E6C0B1F0E7C045
:10C57800B2F0E8C0B3F066EC83F00001E46F0BD0D2
:10C58800E5C0ACF0E6C0ADF0E7C0AEF0E8C0AFF093
:10C59800E45127EC8CF0000E0001A16F000EA26F91
:10C5A800000EA36F000EA46FE5C0A5F0E6C0A6F0CC
:10C5B800000EA76F080EA86FE4510FEC70F0120080
:10C5C800D1D160EC74F00009D8A4120001015769B8
:10C5D800120022EC68F00009D8A412000101576982
:10C5E80012005105D8A402D05769120012C23EF1B8
:10C5F80013C23DF13DC16AF03EC16BF000016C6BA6
:10C608006D6B7AEC87F00009D8A41200000E0001C7
:10C61800616F240E606F95EC97F0000E0001606F5B
:10C62800060E616F600E626FA10E636F000E656F7C
:10C63800240E646FACECA5F0FD0E0101576F1200DB
:10C64800B2C260F0B3C261F022EEA0F001D80AD005
:10C658000500FA6EDE50FD6EDE50FE6EDE50FF6E97
:10C66800FA50120060C0A2F061C0A3F062C0A4F04A
:10C6780063C0A5F0B2C260F0B3C261F022EEA3F0CD
:10C6880001D80AD00500FA6EDE50FD6EDE50FE6E4F
:10C69800DE50FF6EFA501200000160C09EF061C0CB
:10C6A8009FF0A06BA16B26EE00F0A5C0DFFF26EE81
:10C6B80001F0A4C0DFFF26EE02F0A3C0DFFF26EEE4
:10C6C80003F0A2C0DFFF26EE04F0A1C0DFFF26EED4
:10C6D80005F0A0C0DFFF26EE06F09FC0DFFF26EEC4
:10C6E80007F09EC0DFFF000E01013E6F080E3D6F90
:10C6F800000E0001616F080E606F95EC97F0FD0E5B
:10C708000101576F12005105D8A402D057691200D1
:10C71800000E3E6F120E3D6F000E0001616F120E8B
:10C72800606F95EC97F0000E0001A66F110EA665DC
:10C7380001D014D0A651010D1F0EF324D96E020E9C
:10C74800F420DA6EA651010D000EF324E16E060EF8
:10C75800F420E26EDFCFE7FFA62BE8D7FD0E01013C
:10C76800576F1200030EE8CF00F6000EE8CF01F66F
:10C77800B2C260F0B3C261F022EEACF001D80AD0C8
:10C788000500FA6EDE50FD6EDE50FE6EDE50FF6E66
:10C79800FA5012000009D8A405D0000E00019C6FC1
:10C7A800000E04D0000E00019C6F800E9B6F26EED9
:10C7B80002F09BC0DFFF000EE8CF03F6000E010178
:10C7C8003E6F040E3D6F000E0001616F040E606F36
:10C7D80095EC97F0FD0E0101576F120002012151EF
:10C7E800F00B0509216F200E2B6F000E2C6F010E28
:10C7F8000D018C6F000E886F000E896F000E8A6F16
:10C80800000E8B6F010157691200000E00016A6F5C
:10C81800000E6B6F000E6C6F000E6D6F7AEC87F078
:10C828000009D8A41200020121510F0B060AD8A44E
:10C8380007D00D018C05D8A403D001015769120057
:10C8480019ECA5F0000E0D01886F000E896F000E1F
:10C858008A6F000E8B6F010157691200000E0D01DF
:10C86800886F000E896F000E8A6F000E8B6F0101B2
:10C87800576912003F514011D8B406D03FC1D9FFC3
:10C8880040C1DAFFDFBE120002010B510A11091183
:10C8980004E1400E085DD8A00BD0400E00019D6F4A
:10C8A800400E0201085F000E095B0A5B0B5B0AD0B1
:10C8B80008C29DF0000E086F000E096F000E0A6F87
:10C8C800000E0B6F00019D51996F9A6B99510101F0
:10C8D8003D5D00019A5101013E59D8A007D00001E1
:10C8E8009D5101013D5F000E3E5B1ED0000E000110
:10C8F800A66F16D001013D513E11D8B404D03D07B2
:10C90800D8A03E070BD00001A651010D000EF3245C
:10C91800D96E060EF420DA6E000EDF6E0001A62B2B
:10C928009D51A65DD8A0E6D7010E0001606F000EEC
:10C93800616F060E626F9DC063F0020E1FEC8AF0F5
:10C9480060C03FF161C040F10201085109110A11AC
:10C958000B11D8A412000101576912007F0EEDECEB
:10C9680086F0120001015751000AD8B44ED7030AC5
:10C97800D8B4C9D6110AD8B434D6080AD8B4F2D66D
:10C98800010AD8B46BD7050AD8B428D73B0AD8B45B
:10C9980057D60D0AD8B415D6020AD8B41AD6050A3D
:10C9A800D8B45CD7D20AD8B465D7030AD7D7000160
:10C9B8007B51800B846F7B517B258A6F7ABF8A817C
:10C9C8008A51D8B40DD08A29D8A408D0000E786F1F
:10C9D800000E796F000E7A6F000E7B6F7A8F08D089
:10C9E800000E786F000E796F000E7A6F000E7B6F65
:10C9F8007F51800B841B7F517F25896F7EBF898182
:10CA08008951D8B40DD08929D8A408D0000E7C6FDC
:10CA1800000E7D6F000E7E6F000E7F6F7E8F08D038
:10CA2800000E7C6F000E7D6F000E7E6F000E7F6F14
:10CA38008951D8B403D08A51D8A409D0000E786F90
:10CA4800000E796F000E7A6F000E7B6F12007E5118
:10CA58007803F3CF8FF0F4CF90F08F51856F866B0A
:10CA6800876B886B90518B6F8C6B8D6B8E6B7D5148
:10CA78007903F3CF8FF0F4CF90F08F518527000E14
:10CA880086238723882390518B27000E8C238D23A0
:10CA98008E237C517A03F3CF8FF0F4CF90F08F512F
:10CAA8008527000E86238723882390518B27000E25
:10CAB8008C238D238E2387C088F086C087F085C09D
:10CAC80086F0856B7C517903F3CF8FF0F4CF90F02B
:10CAD8008F51852790518623000E8723000E8823C7
:10CAE8007D517803F3CF8FF0F4CF90F08F518527E5
:10CAF80090518623000E8723000E882387C088F074
:10CB080086C087F085C086F0856B7C517803F3CFAB
:10CB18008FF0F4CF90F08F51852790518623000E27
:10CB28008723000E88237E517903F3CF8FF0F4CF4B
:10CB380090F08F518B2790518C23000E8D23000E7F
:10CB48008E237D517A03F3CF8FF0F4CF90F08F517D
:10CB58008B2790518C23000E8D23000E8E237E513F
:10CB68007A03F3CF8FF0F4CF90F08F51806F90510C
:10CB7800816F826B836B82C083F081C082F080C03A
:10CB880081F0806B80518B2781518C2382518D23BA
:10CB980083518E2385C080F086C081F087C082F0E3
:10CBA80088C083F0190E05D0D8908333823381333F
:10CBB8008033E82EF9D780518B2781518C238251FD
:10CBC8008D2383518E2387C088F086C087F085C067
:10CBD80086F0856B89518AC080F0816B8027000EB2
:10CBE8008123820E80258F6FFF0E8121906F0FD0D9
:10CBF800D8908B378C378D378E3788BF8B81D890FC
:10CC080085378637873788378F07D8A090078DAF45
:10CC1800EFD7000E896F88AF16D0FF0E8515806F8D
:10CC2800FF0E8615816FFF0E8715826F7F0E8815A0
:10CC3800836F8051811182118311D8A402D08BA1F6
:10CC480002D0010E896F8951D8B41FD0010E8B27ED
:10CC5800000E8C238D238E238EA117D08BC080F0DD
:10CC68008CC081F08DC082F08EC083F08335833311
:10CC780082338133803380C08BF081C08CF082C0D6
:10CC88008DF083C08EF08F4B902B90BF0DD09051BC
:10CC980003E18F29D8A008D0000E8B6F000E8C6F8F
:10CCA800800E8D6F7F0E20D090BF05D090510EE181
:10CCB8008F05D8B00BD0000E8B6F000E8C6F000E56
:10CCC8008D6F000E8E6F000E846F0FD08FC08AF0AC
:10CCD800FF0E8B17FF0E8C177F0E8D17000E8E1709
:10CCE8008AB18D8FD8908A318E6F84518E138BC004
:10CCF80078F08CC079F08DC07AF08EC07BF012008D
:10CD080000017F51800B8C6F7F517F258E6F7EBF16
:10CD18008E818E51D8B40DD08E29D8A408D0000E9B
:10CD28007C6F000E7D6F000E7E6F000E7F6F7E8F12
:10CD380006D0000E7C6F000E7D6F000E7E6F000E19
:10CD48007F6F8351800B8D6F8C518D19D8A48C8D7A
:10CD5800835183258D6F82BF8D818D51D8B40DD0BD
:10CD68008D29D8A408D0000E806F000E816F000EA8
:10CD7800826F000E836F828F06D0000E806F000EC8
:10CD8800816F000E826F000E836F8E518D5DD8B05B
:10CD980022D08CAD02D0800E8C1B8EC08FF08DC03F
:10CDA8008EF08FC08DF07CC08FF080C07CF08FC07B
:10CDB80080F07DC08FF081C07DF08FC081F07EC093
:10CDC8008FF082C07EF08FC082F07FC08FF083C06A
:10CDD8007FF08FC083F0000E8F6F8E51846F856B4C
:10CDE800841F851F844B852B8D51866F876B8451DB
:10CDF80086278551872387BF2CD0875104E11A0ED7
:10CE0800865DD8A026D07C517D117E117F11D8B4C3
:10CE180002D0010E01D0000E8F6F000E7C6F000E45
:10CE28007D6F000E7E6F000E7F6F8DC08EF015D067
:10CE38008FA105D0D8908F3101098F6F02D0D8907B
:10CE48008F337CB18F8F7F357F337E337D337C3357
:10CE58008E2B8D518E5DD8A0EBD78CBD28D08E51EE
:10CE6800D8A409D0000E7C6F000E7D6F000E7E6F77
:10CE7800000E7F6F120080517C2781517D238251E3
:10CE88007E2383517F237FA182D08FA105D0D890A4
:10CE98008F3101098F6F02D0D8908F337CB18F8F7B
:10CEA8007F357F337E337D337C338E2B70D080513A
:10CEB8007C5D81517D5982517E597F51800A846FF2
:10CEC8008351800A8459D8B036D07CC084F07DC0A4
:10CED80085F07EC086F07FC087F0841F851F861F7F
:10CEE800871F842B000E8523862387238051842562
:10CEF800886F81518521896F825186218A6F83517C
:10CF080087218B6FFF0E88257C6FFF0E89217D6F2F
:10CF1800FF0E8A217E6FFF0E8B217F6F800E8C1B88
:10CF28008F6D8F51D8A40FD0010E7C27000E7D2362
:10CF38007E237F2308D080517C5F81517D5B8251A5
:10CF48007E5B83517F5B7C517D117E117F11D8A45C
:10CF58001CD08F51D8A419D0000E7C6F000E7D6FA5
:10CF6800000E7E6F000E7F6F1200D8907C377D37E1
:10CF78007E377F378FBF7C818FA102D0D88001D0C8
:10CF8800D8908F378E51D8A48E077EAFEED7000E7B
:10CF98008D6F8FAF0AD08FC084F07F0E8417D8A40E
:10CFA80002D07CA102D0010E8D6F8D51D8B420D053
:10CFB800010E7C27000E7D237E237F237FA118D0BE
:10CFC8007CC084F07DC085F07EC086F07FC087F08D
:10CFD8008735873386338533843384C07CF085C0B6
:10CFE8007DF086C07EF087C07FF08E29D8A48E2B76
:10CFF8008E29D8B403D08E51D8A40DD0000E7C6FE2
:10D00800000E7D6F000E7E6F000E7F6F8E51D8A4CC
:10D0180002D0000E8C6F8EA102D07E8F01D07E9F31
:10D02800D8908E317F6F8CBF7F8F7CC07CF07DC0A5
:10D038007DF07EC07EF07FC07FF0120060D111C20B
:10D0480026F112C225F113C224F114C223F116C22B
:10D058003EF117C23DF13D5100018F6F01013E5174
:10D068000001906F916B926B090ED8908F379037B3
:10D0780091379237E82EF9D78FC06AF090C06BF0DD
:10D0880091C06CF092C06DF07AEC87F00009D8A4DA
:10D0980048D1B2C260F0B3C261F022EEACF001D860
:10D0A8000AD00500FA6EDE50FD6EDE50FE6EDE50D0
:10D0B800FF6EFA5012000009D8B417D0010E0D0106
:10D0C8008C6F02012151F00B0709216F270E2B6F7E
:10D0D800000E2C6F000E0001606F020E9AEC89F0B2
:10D0E800000E0101556F55511200010E0101586FD4
:10D0F8003D513E11D8A402D0000EFFD0030E556F4B
:10D10800000E436F060E446F000E0D01886F020E6D
:10D11800896F000E8A6F000E8B6F0D01885189117F
:10D128008A118B11D8B41FD0010141514211D8B4D2
:10D1380006D041C1D9FF42C1DAFFDFBEF2D0000EEE
:10D148000001606F43C161F044C162F0400E636F3B
:10D15800020E1FEC8AF060C041F161C042F1040E7A
:10D168000101556F23D0B2C260F0B3C261F022EE64
:10D17800ACF001D80AD00500FA6EDE50FD6EDE5024
:10D18800FE6EDE50FF6EFA5012000009D8B40CD0C3
:10D19800010E0D018C6F02012151F00B0209216F64
:10D1A800270E2B6F000E2C6F020EA6D04151421194
:10D1B800D8B406D041C1D9FF42C1DAFFDFBEB1D031
:10D1C80020EE01F04151D9264251DA22DF50000108
:10D1D8008F6F8FC090F0916B926B936B905102019F
:10D1E800085F000191510201095B0001925102019F
:10D1F8000A5B0001935102010B5B010120EE01F073
:10D208004151D9264251DA22DF5000018F6F8FC079
:10D2180090F0916B926B936B90510D01885F0001B8
:10D2280091510D01895B000192510D018A5B00014A
:10D2380093510D018B5B400E01014327000E4423DF
:10D24800030E5BD00D018C51D8A440D0B2C284F03B
:10D25800B3C285F023C186F024C187F025C188F0C8
:10D2680026C189F0000E00018A6F060E8B6F01013E
:10D278002351241125112611D8A402D0010E01D062
:10D28800000E00018C6F22EEAFF001D80AD0050025
:10D29800FA6EDE50FD6EDE50FE6EDE50FF6EFA5006
:10D2A8001200E806D8B412D0640E0101546102D00D
:10D2B800542B37D0010E0D018C6F02012151F00B58
:10D2C8000309216F000E2B6F000E2C6F010E010158
:10D2D8002327000E2423252326233D07D8A03E0715
:10D2E800010E0BD0020E0D018C6F000E0001606F55
:10D2F800020E9AEC89F0000E0101556F12D001015F
:10D308005551000AD8B49BD6010AD8B4F1D6030AFD
:10D31800D8B498D7010AD8B400D7070AD8B446D7E2
:10D32800E1D7010155511200000E0001A76F000E50
:10D33800A66F97C0A2F098C0A3F0000E9E6F020ED1
:10D348009D6F000EA16F95519611D8A424D09751C6
:10D358009811D8B420D09DC08BF09EC08CF0000EE0
:10D368008E6F000E8D6F9BEC95F08BC095F08CC086
:10D3780096F095C060F096C061F07DECAFF060C0AB
:10D388009DF061C09EF0000195519611D8A403D07C
:10D3980095699669120095C0AAF096C0ABF003D1C2
:10D3A800AAC060F0ABC061F07DECAFF060C0A4F043
:10D3B80061C0A5F0AAC060F0ABC061F08AECAFF024
:10D3C80060C0A8F061C0A9F00001A651A41904E149
:10D3D800A751A519D8B437D0A151D8B40AD0A6C03E
:10D3E8007FF0A7C080F0000E816F0A0E826FBDEC3F
:10D3F800A9F09DC08BF09EC08CF0A4C08DF0A5C094
:10D408008EF09BEC95F08BC09FF08CC0A0F09FC075
:10D4180060F0A0C061F07DECAFF060C09DF061C02D
:10D428009EF0A4C087F0A5C088F0000E0001896FA7
:10D438000A0E8A6F9CECAEF0A4C0A6F0A5C0A7F0B7
:10D44800000E0001A16FA35104E1020EA25DD8A055
:10D458005ED0A8C060F0A9C061F0000E626F0A0E2D
:10D46800636FA4ECAAF060C0AAF061C0ABF0000141
:10D47800AB5104E1020EAA5DD8A006D0DA0EAA5D6F
:10D488001F0EAB59D8A06BD0020EA825606F000EF6
:10D49800A921616F000E626F0A0E636FDCECA5F0C4
:10D4A80060C09BF061C09CF000019B2903E19C29AE
:10D4B800D8B413D0FE0EA625AA6FFF0EA721AB6F16
:10D4C800AA51AB6FAA6BD8909C319A6F9B31996F18
:10D4D8009951AA139A51AB130BD09F51A011D8A4FC
:10D4E80003D09569966912009FC0AAF0A0C0ABF05E
:10D4F800A8C060F0A9C061F0000E626F0A0E636FE9
:10D50800AAC064F0ABC065F09DECACF025D0A205D4
:10D51800A311D8A428D0A8C060F0A9C061F0000E5B
:10D52800626F0A0E636FA4ECAAF060C0AAF061C033
:10D53800ABF00001AA2903E1AB29D8B410D0A8C0E8
:10D5480060F0A9C061F0000E626F0A0E636FFF0EF3
:10D55800656F64699DECACF0010E0001A16FA20734
:10D56800D8A0A30720D0A8C060F0A9C061F0000E21
:10D57800626F0A0E636FA4ECAAF060C0AAF061C0E3
:10D58800ABF0A8C060F0A9C061F0000E0001626FA6
:10D598000A0E636F000E656F000E646F9DECACF0B1
:10D5A800010E0001A16FA251A311D8A4F9D6AB5165
:10D5B80004E1020EAA5DD8A006D0DA0EAA5D1F0EFD
:10D5C800AB59D8A0EDD6A151D8B40AD0A6C07FF0E7
:10D5D800A7C080F0000E816F0A0E826FBDECA9F023
:10D5E800000197519811D8B405D095C095F096C010
:10D5F80096F01200000E966F000E956F1200000153
:10D608007B51800B886F7B517B258F6F7ABF8F8111
:10D618008F51D8B40DD08F29D8A408D0000E786FB8
:10D62800000E796F000E7A6F000E7B6F7A8F06D02E
:10D63800000E786F000E796F000E7A6F000E7B6F08
:10D648007F51800B881B7F517F25906F7EBF908113
:10D658009051D8B40DD09029D8A408D0000E7C6F72
:10D66800000E7D6F000E7E6F000E7F6F7E8F06D0DE
:10D67800000E7C6F000E7D6F000E7E6F000E7F6FB8
:10D688007C517D117E117F11D8A417D0000E786FC0
:10D69800000E796F000E7A6F000E7B6F800E7A1382
:10D6A8007F0E7B1388517B1378C078F079C079F0AE
:10D6B8007AC07AF07BC07BF012008F51D8A411D0C9
:10D6C800000E786F000E796F000E7A6F000E7B6F78
:10D6D80078C078F079C079F07AC07AF07BC07BF0B6
:10D6E80012009051806F816B801F811F804B812BAE
:10D6F8008F51826F836B80518227815183237F0EE4
:10D708008225896F000E83218A6F78C084F079C0E2
:10D7180085F07AC086F07BC087F0000E786F000E27
:10D72800796F000E7A6F000E7B6F000E8B6F000E04
:10D738008C6F000E8D6F000E8E6F000E906F28D0CC
:10D748009051D8B411D0D890843785378637873729
:10D75800D890783779377A377B378EBF7881D890E9
:10D768008B378C378D378E377C51845D7D51855949
:10D778007E5186597F518759D8A009D08E8D7C510A
:10D78800845F7D51855B7E51865B7F51875B902BE3
:10D79800190E9065D5D78451851186118711D8B493
:10D7A80011D08B810FD0D890783779377A377B377B
:10D7B8008EBF7881D8908B378C378D378E37890715
:10D7C800D8A08A077AAFEFD7000E906F8EAF16D029
:10D7D800FF0E8B15806FFF0E8C15816FFF0E8D1558
:10D7E800826F7F0E8E15836F805181118211831194
:10D7F800D8A402D078A102D0010E906F9051D8B46D
:10D808001FD0010E7827000E79237A237B237BA172
:10D8180017D078C080F079C081F07AC082F07BC0E0
:10D8280083F08335833382338133803380C078F04B
:10D8380081C079F082C07AF083C07BF0894B8A2B53
:10D848008ABF10D08A5103E18929D8A00BD0000ED5
:10D858008A6F8969000E786F000E796F000E7A6FF3
:10D86800000E7B6F8ABF05D08A5111E18905D8B0B7
:10D878000ED0000E8A6F000E896F000E786F000EB2
:10D88800796F000E7A6F000E7B6F000E886F89C06B
:10D898008FF08FA102D07A8F01D07A9FD8908F31E4
:10D8A8007B6F88517B1378C078F079C079F07AC0A3
:10D8B8007AF07BC07BF012000D013205D8A411D09C
:10D8C80030511F0B0009D8A40CD001010C8F030E96
:10D8D8000D013119D8A402D0010E01D0000E0101AA
:10D8E800636F0D013251D8A4120030511F0B020A88
:10D8F800D8A4120034510F0B0009D8B412003451C7
:10D908000F0B186E030E18601200200E5D18D8A4B5
:10D91800120001010C8F0D0134BF19D034510F0BC7
:10D92800186E1850020D150EF324D96E010EF4204E
:10D93800DA6EDECF1CF0DDCF1DF034510F0B186E00
:10D948001850010D310EF324D96E010E18D0345140
:10D958000F0B186E1850020D0F0EF324D96E010E1E
:10D96800F420DA6EDECF1CF0DDCF1DF034510F0B42
:10D97800186E1850010D340EF324D96E010EF420E0
:10D98800DA6EDF501B6E1BB006D0FB0E1C141C6E2B
:10D99800FF0E1D1404D0040E1C101C6E1D501D6EAD
:10D9A80034BF0AD034510F0B186E1850020D150EE3
:10D9B800F324D96E010E09D034510F0B186E18508C
:10D9C800020D0F0EF324D96E010EF420DA6E1CC07E
:10D9D800DEFF1DC0DDFF030E3119D8A42DD01CC0F9
:10D9E800D9FF1DC0DAFFDFAE1AD034BF0AD03451D8
:10D9F8000F0B186E1850010D310EF324D96E010E5D
:10DA08000AD00D0134510F0B186E1850010D340E49
:10DA1800F324D96E010EF420DA6E0101DF821CC0F6
:10DA2800D9FF1DC0DAFF000EDB841CC0D9FF1DC062
:10DA3800DAFF000EDB8E1200040E1C181C6E1D503F
:10DA48001D6E1CC0D9FF1DC0DAFFDFAE1BD01CC085
:10DA5800D9FF1DC0DAFF7F0EDF161CC0D9FF1DC01D
:10DA6800DAFF000EDB8C000E116E050E106E1CC066
:10DA780012F01DC013F0000E156E020E146E10EC9D
:10DA8800A0F006D01CC0D9FF1DC0DAFF000EDB8C49
:10DA9800040E1C181C6E1D501D6E1BB206D01CC037
:10DAA800D9FF1DC0DAFFDFAE30D00D0134BF0AD078
:10DAB80034510F0B186E1850010D310EF324D96E26
:10DAC800010E0AD00D0134510F0B186E1850010DBC
:10DAD800340EF324D96E010EF420DA6E0101DF92C0
:10DAE8001CC0D9FF1DC0DAFF3B0EDF16000E116EF9
:10DAF800050E106E1CC012F01DC013F0000E156E3E
:10DB0800020E146E10ECA0F006D01CC0D9FF1DC088
:10DB1800DAFF3B0EDF160D0134510F0B186E18504B
:10DB2800010D260EF324196E0F0EF4201A6E19C07B
:10DB3800D9FF1AC0DAFFFE0EDF16120098D0EB0EDE
:10DB480012003C0E1200900E1200200EF66EA30E6C
:10DB5800F76E000EF86E0800F5501200210EF66EF2
:10DB6800A30EF76E000EF86E0800F5501200220E94
:10DB7800F66EA30EF76E000EF86E0800F550120050
:10DB8800230EF66EA30EF76E000EF86E0800F55021
:10DB98001200240EF66EA30EF76E000EF86E080043
:10DBA800F5501200250EF66EA30EF76E000EF86EF5
:10DBB8000800F5501200260EF66EA30EF76E000E42
:10DBC800F86E0800F5501200270EF66EA30EF76ED9
:10DBD800000EF86E0800F5501200000E1200020E3A
:10DBE8001200010E1200010E1200000E1200010EAA
:10DBF8001200400E1200000E1200FF0E12001F0E3F
:10DC08001200F80E1200200E1200000E12003F0E35
:10DC18001200000E1200100E1200000E1200000E6C
:10DC28001200000E1200000E1200000E1200010E6B
:10DC38001200000E1200220E1200000E1200000E3A
:10DC48001200460E1200410E1200540E1200310E40
:10DC58001200360E1200200E1200200E1200200EA6
:10DC68001200550E1200AA0E1200000E120060C01B
:10DC780062F061C063F000016351000AD8B404D0B7
:10DC8800010AD8B48DD0F1D76251000AD8B457D759
:10DC9800010AD8B456D7030AD8B455D7010AD8B45C
:10DCA80054D7070AD8B45AD7010AD8B460D7030A98
:10DCB800D8B466D7010AD8B46CD70F0AD8B472D7CB
:10DCC800010AD8B478D7030AD8B47ED7010AD8B4E1
:10DCD80084D7070AD8B483D7010AD8B482D7030AED
:10DCE800D8B481D7010AD8B480D71F0AD8B47FD74F
:10DCF800010AD8B47ED7030AD8B47DD7010AD8B4AC
:10DD08007CD7070AD8B47BD7010AD8B47AD7030AD4
:10DD1800D8B479D7010AD8B478D70F0AD8B477D746
:10DD2800010AD8B476D7030AD8B475D7010AD8B48B
:10DD380074D7070AD8B473D7010AD8B472D7030ABC
:10DD4800D8B471D7010AD8B470D7370AD8B46FD706
:10DD5800010AD8B46ED7050AD8B46DD7010AD8B469
:10DD68006CD7030AD8B46BD7010AD8B468D7190A94
:10DD7800D8B467D7010AD8B466D70F0AD8B465D71C
:10DD8800010AD8B464D7030AD8B463D7010AD8B44F
:10DD980062D7070AD8B461D7010AD8B460D765D763
:10DDA8006251FE0AD8B45DD7010AD8B45CD75DD7F2
:10DDB800200E5D18D8A41200A0981CD10101415171
:10DDC8004211D8B406D041C1D9FF42C1DAFFDFBE43
:10DDD80020D1000E0001B16F1E0EB16501D014D024
:10DDE800B151010D400EF324D96E0D0EF420DA6EF8
:10DDF800B151010D000EF324E16E020EF420E26E23
:10DE0800DFCFE7FFB12BE8D7010120EE01F0415148
:10DE1800D9264251DA221F0EDE18D8A475D0550E25
:10DE28000201001971E1530E01196EE1420E021947
:10DE38006BE1430E0319D8A467D0010E0101506F9E
:10DE480002010D51D8A453D0110E0E6150D00E51BD
:10DE5800D8B44DD00CC2ACF03F0E0001AC17D8A41A
:10DE680046D0550E0D01806F530E816F420E826FA2
:10DE7800530E836F04C284FD05C285FD06C286FD6C
:10DE880007C287FD000E886F000E896F000E8A6F2B
:10DE9800000E8B6F000E8C6F01015769000E566FD4
:10DEA800000E556F000E546F030E02010F19D8B4FF
:10DEB80008D02191219321952197000E2B6F000EF8
:10DEC8002C6F0CAF02D0010E01D0020E0101586F69
:10DED8000201085109110A110B11D8B402D0000E21
:10DEE80001D0010E0101516F0FC257F192D0010EFE
:10DEF8000001606F020E9AEC89F0000E0001606F5D
:10DF0800020E9AEC89F085D0010E0001606F020EB6
:10DF18009AEC89F0000E0001606F020E9AEC89F00D
:10DF2800000E0101506F75D0A1EC84F0FF0AD8A44F
:10DF380070D011D0A1EC84F0FF0AD8A46AD00D01EA
:10DF48008C51D8A408D0885189118A118B11D8B462
:10DF580002D0020E8C6F030E3ED013C1ADF014C177
:10DF6800AEF00001AD51AE11D8B40AD013C1AFF074
:10DF780014C1B0F0AFC0D9FFB0C0DAFFDFBE49D0DE
:10DF8800010E606F800E616F0D0E626F0D0E636F74
:10DF9800020E1FEC8AF060C03FF161C040F1010140
:10DFA80041514211D8B406D041C1D9FF42C1DAFF6C
:10DFB800DFBE10D0000E0001606F400E616F0D0EC5
:10DFC800626F400E636F020E1FEC8AF060C041F171
:10DFD80061C042F1000E0101586F1BD0000E586F4E
:10DFE800020E0D018C6F000E0001606F020E9AEC9C
:10DFF80089F00FD001015851000AD8B4DFD6010AC0
:10E00800D8B492D7030AD8B495D7010AD8B4A5D7FB
:10E01800E5D7A08812000001B76FC30E00018F6F0B
:10E02800000E906FB751D4ECA1F00001B86FB85151
:10E03800D8A41200A151DF5DA251E059A351E159C2
:10E04800A451E259D8A01200A551A125A96FA65143
:10E05800A221AA6F000EA321AB6F000EA421AC6F02
:10E06800A951DF5DAA51E059AB51E159AC51E259D0
:10E07800D8B00ED0A1C0A9F0A2C0AAF0A91FAA1FAB
:10E08800A94BAA2BDF51A925A56FE051AA21A66F9C
:10E09800DDC097F0DEC098F0A1C0A9F0A2C0AAF038
:10E0A800A3C0ABF0A4C0ACF00A0E05D0D890AC3336
:10E0B800AB33AA33A933E82EF9D7A9C099F0AAC07F
:10E0C8009AF061EC9BF097C0B9F098C0BAF0000ED6
:10E0D8000001A115BF6FFE0EA215C06FFF0EA3159C
:10E0E800C16FFF0EA415C26FBFC0A9F0C0C0AAF0CF
:10E0F800A91FAA1FA94BAA2BA151A925BB6FA251E1
:10E10800AA21BC6F000EBF6F000EC06F000EC16F5A
:10E11800000EC26F89D0020EBC19BB11D8A40FD053
:10E12800B9C08FF0BAC090F01AECA7F08FC0B9F060
:10E1380090C0BAF0000E0001BC6F000EBB6FB9C0F2
:10E1480060F0BAC061F0E3ECAFF060C0B5F061C058
:10E15800B6F0BBC0A9F0BCC0AAF00001A91FAA1F55
:10E16800A94BAA2B000EA925BD6F020EAA21BE6FCE
:10E17800BD51A96FBE51AA6FAB6BAC6BBFC0ADF000
:10E18800C0C0AEF0C1C0AFF0C2C0B0F0AD1FAE1F8E
:10E19800AF1FB01FAD2B000EAE23AF23B023A55188
:10E1A800AD25B16FA651AE21B26F000EAF21B36F8E
:10E1B800000EB021B46FA951B15DAA51B259AB514B
:10E1C800B359AC51B459D8B00ED0BFC0A9F0C0C033
:10E1D800AAF0A91FAA1FA94BAA2BA551A925BD6F53
:10E1E800A651AA21BE6FB5C07FF0B6C080F0BBC0F3
:10E1F80081F0BCC082F0BDC083F0BEC084F0BF51C6
:10E20800A725856FC051A821866FE1ECA3F0000116
:10E21800BD51BF27BE51C023000EC123000EC2232B
:10E22800BD51BB27BE51BC23A551A96FA651AA6FEA
:10E23800AB6BAC6BA951BF5DAA51C059AB51C15969
:10E24800AC51C259D8B0120066D7A1C0AFF0A2C075
:10E25800B0F0A3C0B1F0A4C0B2F00A0E06D000011D
:10E26800D890B233B133B033AF33E82EF8D7AFC05C
:10E27800C1F0B0C0C2F0ADC0D9FFAEC0DAFFDE5009
:10E28800C15DDE50C259D8B002D0FF0E1200ABC03B
:10E29800D9FFACC0DAFFDECF97F0DDCF98F0ADC084
:10E2A800D9FFAEC0DAFFDECFAFF0DDCFB0F0AF1FE1
:10E2B800B01FAF4BB02BC151AF25996FC251B021E0
:10E2C8009A6F61EC9BF0ABC0D9FFACC0DAFF0001DC
:10E2D80097C0DEFF98C0DDFFADC0D9FFAEC0DAFF42
:10E2E800C1C0DEFFC2C0DDFFABC0D9FFACC0DAFFE2
:10E2F800DECFBDF0DDCFBEF0C1C0AFF0C2C0B0F020
:10E30800090ED890AF37B037E82EFBD7AFC0C5F0AD
:10E31800B0C0C6F0C76BC86BC5C0AFF0C6C0B0F020
:10E32800AF1FB01FAF4BB02BA151AF25BF6FA2518C
:10E33800B021C06F000EC56F000EC66F000EC76F0C
:10E34800000EC86F89D0020EC019BF11D8A40FD013
:10E35800BDC08FF0BEC090F01AECA7F08FC0BDF022
:10E3680090C0BEF0000E0001C06F000EBF6FBDC0B0
:10E3780060F0BEC061F0E3ECAFF060C0BBF061C01C
:10E38800BCF0BFC0AFF0C0C0B0F00001AF1FB01FFD
:10E39800AF4BB02B000EAF25C36F020EB021C46F78
:10E3A800C351AF6FC451B06FB16BB26BC5C0B3F09E
:10E3B800C6C0B4F0C7C0B5F0C8C0B6F0B31FB41F2C
:10E3C800B51FB61FB32B000EB423B523B623A55132
:10E3D800B325B76FA651B421B86FA751B521B96F4E
:10E3E800A851B621BA6FAF51B75DB051B859B15104
:10E3F800B959B251BA59D8B00ED0C5C0AFF0C6C0DD
:10E40800B0F0AF1FB01FAF4BB02BA551AF25C36FF6
:10E41800A651B021C46FBBC087F0BCC088F0BFC094
:10E4280089F0C0C08AF0C3C08BF0C4C08CF0C5515D
:10E43800A9258D6FC651AA218E6FB0ECAEF00001F0
:10E44800C351C527C451C623000EC723000EC823D5
:10E45800C351BF27C451C023A551C55DA651C65994
:10E46800A751C759A851C859D8A06DD7000E120096
:10E47800AA0E0001706F000E716F9FC072F0A0C0ED
:10E4880073F0000E756F0A0E746F0EECABF0AA0EE7
:10E498000001606F000E616FB4ECABF000016051D9
:10E4A800B46FA0AF54D0B4510008A125020FB56FC6
:10E4B800B551800A7F0FD8A090D0A1C0B6F0B62978
:10E4C800D8B442D0B651B5BF04D0FF0AB525D8B0EC
:10E4D8002AD0B5C0A4F0A56BA4BFA507A41FA51F8B
:10E4E800A44BA52BB651A66FA76BA451A627A5517F
:10E4F800A723010EA627000EA723AA0EA625D96ECC
:10E50800000EA721DA6EB651A86FA96B010EA827D5
:10E51800000EA923AA0EA825E16E000EA921E26E1D
:10E52800DFCFE7FF0FD0B651A46FA56B010EA4276C
:10E53800000EA523AA0EA425D96E000EA521DA6E19
:10E54800300EDF6EB607BBD7A151020F45D0B451CC
:10E558000008A125A46FA429B56FB551800A7F0FC3
:10E56800D8A03BD0A1C0B6F0B629D8B434D0B651A3
:10E57800B5BF04D0FF0AB525D8B021D0B5C0A4F0E6
:10E58800A56BA4BFA507A41FA51FA44BA52BB65117
:10E59800A66FA76BA451A627A551A723AA0EA62547
:10E5A800D96E000EA721DA6EB651010DAA0EF3241A
:10E5B800E16E000EF420E26EDFCFE7FF0AD0B6511D
:10E5C800010DAA0EF324D96E000EF420DA6E300E77
:10E5D800DF6EB607C9D7A129B46FA1510008B425C9
:10E5E800A46FA405A16F000EB66F23D0B651010D1C
:10E5F800AA0EF324D96E000EF420DA6EB651010D7E
:10E60800F350A225E16EF450A321E26EDFCFE7FFBD
:10E61800A151B619D8A40CD0B62BB651010DF350A0
:10E62800A225D96EF450A321DA6E2E0EDF6E1ED00D
:10E63800B62BB451B65DD8B019D0D8D7B651010DA4
:10E64800AA0EF324D96E000EF420DA6EB651A46F28
:10E65800A56B010EA427000EA523A451A225E16EE7
:10E66800A551A321E26EDFCFE7FFB62BB451B65D0B
:10E67800D8A0E4D7B651A46FA56B010EA427000E4D
:10E68800A523A451A225D96EA551A321DA6E000EA7
:10E69800DF6E12006BC0D9FF6CC0DAFF100EDF6EA0
:10E6A800000120EE01F06B51D9266C51DA22BC0E24
:10E6B800DF6E20EE02F06B51D9266C51DA22260E5D
:10E6C800DF6E20EE03F06B51D9266C51DA22000E72
:10E6D800DF6E20EE04F06B51D9266C51DA22060E5B
:10E6E800DF6E20EE05F06B51D9266C51DA22040E4C
:10E6F800DF6E20EE06F06B51D9266C51DA2265C127
:10E70800DFFF20EE07F06B51D9266C51DA2266C183
:10E71800DFFF20EE08F06B51D9266C51DA2267C171
:10E72800DFFF20EE09F06B51D9266C51DA2268C15F
:10E73800DFFF20EE0AF06B51D9266C51DA2269C14D
:10E74800DFFF20EE0BF06B51D9266C51DA226AC13B
:10E75800DFFF20EE0CF06B51D9266C51DA226BC129
:10E76800DFFF0D0E6B25606F000E6C21616F6C0E64
:10E77800626F010E636F000E656F040E646FACEC80
:10E78800A5F0110E00016B25606F000E6C21616F02
:10E79800720E626F010E636F000E656F040E646F78
:10E7A800ACECA5F0000120EE15F06B51D9266C51A8
:10E7B800DA2274C1DFFF20EE16F06B51D9266C51B6
:10E7C800DA228CC1DFFF20EE17F06B51D9266C518D
:10E7D800DA228DC1DFFF20EE18F06B51D9266C517B
:10E7E800DA2201018E51DF6E000120EE19F06B5123
:10E7F800D9266C51DA228FC1DFFF20EE1AF06B5157
:10E80800D9266C51DA2201019051DF6E000120EE09
:10E818001BF06B51D9266C51DA2294C1DFFF20EE30
:10E828001CF06B51D9266C51DA2295C1DFFF20EE1E
:10E838001DF06B51D9266C51DA2275C1DFFF20EE2D
:10E848001EF06B51D9266C51DA2289C1DFFF20EE08
:10E858001FF06B51D9266C51DA2201018A51DF6E03
:10E86800000120EE20F06B51D9266C51DA2270C1DC
:10E87800DFFF20EE21F06B51D9266C51DA2201011D
:10E888007151DF6E000120EE22F06B51D9266C51D8
:10E89800DA22BEC1DFFF2A0E6B25606F000E6C21E5
:10E8A800616F960E626F010E636F000E656F160E34
:10E8B800646FACECA5F01200DFD011C226F112C2D1
:10E8C80025F113C224F114C223F116C23EF117C276
:10E8D8003DF13D510001956F01013E510001966FD8
:10E8E800976B986B090ED890953796379737983766
:10E8F800E82EF9D795C06AF096C06BF097C06CF017
:10E9080098C06DF07AEC87F00009D8A4C7D0010E42
:10E918000101566F3D513E11D8A402D0000E4AD0D5
:10E928003D07D8A03E07020E566F3F514011D8B49C
:10E9380006D03FC1D9FF40C1DAFFDFBEAFD0B2C2B7
:10E948008BF0B3C28CF023C18DF024C18EF025C1A9
:10E958008FF026C190F0000E0001916F060E926FA5
:10E9680022EEA9F001D80AD00500FA6EDE50FD6E3D
:10E97800DE50FE6EDE50FF6EFA501200E806D8B484
:10E988001BD0640E0101546102D0542B87D0020EB3
:10E998000D018C6F02012151F00B0309216F000E4C
:10E9A8002B6F000E2C6F010E0001606F020E9AECA7
:10E9B80089F05FD0566F72D0010E01012327000E37
:10E9C800242325232623000E0D01886F020E896F4C
:10E9D800000E8A6F000E8B6F000E0101436F060E4A
:10E9E800446F030E566F0D01885189118A118B11DE
:10E9F800D8A402D0010E3ED0040E0101566F3F513B
:10EA08004011D8B406D03FC1D9FF40C1DAFFDFBEFC
:10EA180045D0010E0001606F43C161F044C162F04E
:10EA2800400E636F020E1FEC8AF060C03FF161C0B8
:10EA380040F1030E0101566F400E0201085F000EFF
:10EA4800095B0A5B0B5B400E0D01885F000E895B5A
:10EA58008A5B8B5B400E01014327000E44231ED0C6
:10EA6800020E0D018C6F010E0001606F020E9AEC10
:10EA780089F0000E01019ED701015651000AD8B451
:10EA88001CD7010AD8B446D7030AD8B44ED7010A0E
:10EA9800D8B4A9D7070AD8B4B2D7E2D701015651DA
:10EAA8001200C4CF93F00001946B9351946F936B51
:10EAB800C350931302013151020D320EF324D96E63
:10EAC800020EF420DA6E00019351DE269451DD2205
