:020000040000FA
:0490000047EF48F0FE
:109008005B82FACF4DF0FBCF4EF0E9CF4FF0EACFBD
:1090180050F0E1CF51F0E2CF52F0D9CF53F0DACF90
:1090280054F0F3CF55F0F4CF56F0F6CF57F0F7CF12
:1090380058F0F8CF59F0F5CF5AF00CEC76F09EB214
:10904800ABEC5BF0F2B491EC92F05AC0F5FF59C06A
:10905800F8FF58C0F7FF57C0F6FF56C0F4FF55C0D9
:10906800F3FF54C0DAFF53C0D9FF52C0E2FF51C02A
:10907800E1FF50C0EAFF4FC0E9FF4EC0FBFF4DC003
:10908800FAFF5B921100BEEF88F00008000C001098
:10909800001300160019001C001E002100230026E2
:1090A8000028002A002C002E003000320034003640
:1090B8000038003A003C003D003F004100430045B5
:1090C800004600480049004B004D004E005000513A
:1090D80000530054005600570059005A005C005DC8
:1090E800005F00600062006300640066006700695A
:1090F800006A006C006D006E0070007100720073F1
:109108000074007600780079007A007B007D007E8C
:10911800007F008200850087008A008C008F009104
:10912800009200940098009A009C009E00A100A361
:1091380000A500A700AA00AC00AF00B200B400B7B9
:1091480000B800BA00BC00BE00C000C300C400C61E
:1091580000C800CA00CC00CE00D000D200D400D68F
:1091680000D800D900DB00DD00DF00E100E200E507
:1091780000E700E800EA00EC00EE00EF00F200F380
:1091880000F500F700F800FB00FD000001030104F2
:109198000107010A010C010F01120114011701193D
:1091A800011C011E0121012301250129012B012C8C
:1091B800012E0132013401360138013B013D013FE6
:1091C800014301460148014A014C014F0151015434
:1091D80001560159015B015E016001630166016985
:1091E800016B016E017101740177017A017D0180C3
:1091F80001830187018A018D019101940198019BE6
:10920800019F01A301A601AA01AE01B201B601BAEC
:1092180001BE01C301C701CC01D001D501D901DECE
:1092280001E301E801ED01F301F801FE0103020980
:10923800020F0215021B02210227022E0235023CF0
:109248000243024A0251025902610269027102791B
:109258000282028B0294029E02A702B102BC02C6DD
:1092680002D102DC02DC02DF02E202E502E802EBE4
:1092780002EE02F102F402F702FA02FD0200030410
:109288000307030A030D031103140317031A031E2C
:10929800032103250328032C032F03330336033A42
:1092A800033E034103450349034D03500354035848
:1092B800035C036003640368036C0370037403793D
:1092C800037D03810385038A038E03930397039C1D
:1092D80003A003A503AA03AE03B303B803BD03C2E7
:1092E80003C603CC03D103D603DB03E003E503EB9A
:1092F80003F003F603FB03010406040C041204172D
:10930800041D04230429042F0436043C04420448A1
:10931800044F0455045C0463046A04700477047EF3
:109328000485048D0494049B04A304AA04B204BA1B
:1093380004C204C904D204DA04E204EA04F304FC13
:109348000404050D0516051F05280532053B0545CE
:10935800054F05590563056D05770582058C059749
:1093680005A205AD05B905C405D005DC05E805F479
:109378000501060E061A0628063506430650065E3F
:10938800066D067B068A069906A906B806C806D899
:1093980006E906FA060B071C072E0740075307665F
:1093A8000779078D07A107B607CB07E007F6070C73
:1093B8000823083B0853086B0884089E08B808D39C
:1093C80008EF080B092809450964098309A309C49A
:1093D80009E609080A2C0A510A770A9D0AC50AEF04
:1093E8000A190B450B720B720B7D0B890B940BA0A2
:1093F8000BAC0BB80BC40BD00BDC0BE90BF50B0259
:109408000C0E0C1B0C280C350C420C4F0C5D0C6A16
:109418000C770C850C930CA10CAF0CBD0CCB0CD9A4
:109428000CE80CF70C050D140D230D320D420D51EF
:109438000D610D700D800D900DA00DB10DC10DD2F7
:109448000DE30DF30D050E160E270E390E4B0E5CAF
:109458000E6F0E810E930EA60E010002000300048B
:1094680000050006000700080009000A000B000CB0
:10947800000D000E000F0010001100120013001460
:1094880000150016001700180019001A001B001C10
:10949800001D001E001F00200021002200230024C0
:1094A80000250026002700280029002A002B002C70
:1094B800002D002E002F0030003100320033003420
:1094C80000350036003700380039003A003B003CD0
:1094D800003D003E003F004000410042004300457F
:1094E80000470049004B004D004F00510053005504
:1094F80000570059005B005D005F00610063006574
:1095080000670069006B006E0070007300750077DB
:109518000079007B007D007F008100830085008743
:109528000089008B008D008F0091009300950097B3
:109538000099009B009D009F00A100A300A500A723
:1095480000A900AB00AD00AF00B100B300B500B793
:1095580000B900BB00BD00C000C300C600C900CCF4
:1095680000CF00D200D500D800DB00DE00E100E427
:1095780000E700EA00ED00F000F300F600F900FC57
:1095880000FF000201050108010B010E0111011481
:109598000117011A011D012001230126012A012DAD
:1095A800013001330137013A013E014201450149C9
:1095B800014D015101550159015D01610166016AC1
:1095C800016E01730178017D01820187018C01918F
:1095D8000196019C01A101A701AD01B301B901BF29
:1095E80001C601CC01D301DA01E101E801F001F77C
:1095F80001FF0107020F02180221022A0233023D6D
:1096080002470251025C02670272027E028A0297D6
:1096180002A402B202C002CF02DF02EF02FF02116F
:10962800032303360349035E0373038903A103B9C4
:1096380003D303DD03E403EA03F103F803FF03069E
:10964800040D0415041C0424042B0433043B0442B5
:10965800044A0452045A0463046B0474047C0485A9
:10966800048E0496049F04A904B204BB04C504CE66
:1096780004D804E204EC04F60400050B05150520E3
:10968800052B05360541054C05580564056F057B16
:109698000587059405A005AD05BA05C705D405E2FB
:1096A80005EF05FD050B061906280637064606557B
:1096B800066406740684069406A406B506C606D78C
:1096C80006E906FA060C071F073107440758076B17
:1096D800077F079307A807BD07D207E807FE071506
:1096E800082C0843085B0873088B08A508BE08D82F
:1096F80008F2080D092909450961097E099C09BA7A
:1097080009D909F909190A390A5B0A7D0A9F0AC3A6
:109718000AE70A0C0B310B580B7F0BA70BD00BFA7F
:109728000B250C510C7E0CAB0CDA0C0A0D3B0D6DA5
:109738000DA00DD40D0A0E410E790EB30EEE0E2AB1
:109748000F680FA80FE90F2C107010B610FE104804
:10975800119411E21132128512D91230138913E5CE
:10976800134414A51409157015DA154716B8162BE5
:1097780017A3171E189D182119A819341AC41A5AA4
:109788001BF41B941C391DE41D951E4C1F0A20CE8A
:10979800209A216E224A232E241B25122612271DC9
:1097A800283229532A812BBB2C032E5A2FC030363E
:1097B80032BD335735F5356136CD363B37AA371BC1
:1097C800388C3800397439EA39623ADB3A553BD17A
:1097D8003B4E3CCD3C4E3DD03D543EDA3E613FEAE7
:1097E8003F744001418F411F42B1424543DB4373FF
:1097F800440D45A9454746E74689472E48D5487E42
:1098080049294AD74A874B3A4CEF4CA64D614E1E20
:109818004FDD4FA05065512D52F852C65397546BE7
:109828005542561C57FA570C070504040303030254
:10983800020202020201010101010101010101010B
:109848000101010101010101010101010101010100
:1098580001010101010101010101010101010101F0
:1098680001010101010101010101010101010101E0
:1098780001010101010101010101010101010101D0
:1098880001010000000000000000000000000000CE
:1098980000000000000000000000000000000000C0
:1098A80000000000000000000000000000000000B0
:1098B80000000000000000000000000000000000A0
:1098C8000000000000000000000000000000000090
:1098D8000000000000000000000000000000000080
:1098E8000000000000000000000000000000000070
:1098F8000000000000000000000000000000000060
:10990800000000000000000000000000000000004F
:10991800000000000000000000000000000000003F
:10992800000000000000000000000000000000002F
:10993800000000000000000000000000000000001F
:10994800000000000000000000000000000000000F
:1099580000000000000000000000000000000000FF
:1099680000000000000000000000000000000000EF
:1099780000000000000000000000000000000000DF
:1099880000000000000000000000000000000000CF
:1099980000000000000000000000000000000000BF
:1099A80000000000000000000000000000000000AF
:1099B800000000000000000000000000000000009F
:1099C800000000000000000000000000000000008F
:1099D800000000000000000000000000000000007F
:1099E800000000000000000000000000000000006F
:1099F800000000000000000000000000000000005F
:109A08000000000000000000000000000000ECF270
:109A1800F6F4D2E8D2C0ECDCCFC3B9B0FCF2E8DF90
:109A2800D7D0CAC3BEB8B3AFAAA6A29F9B98959237
:109A38008F8C8A878583817F7D7B79777574727136
:109A48006F6E6C6B6A68676665646261605F5E5DB5
:109A58005C5B595756545351504F4E4C4B4A4948EA
:109A680047464544434241403FFEFBF8F6F3F0EEDB
:109A7800ECE9E7E5E3E0DEDCDAD8D7D5D3D1CFCE21
:109A8800CCCAC9C7C6C4C3C1C0BEBDBCBAB8B6B4C7
:109A9800B3B1AFAEACAAA9A7A6A4A3A1A09F9D9C51
:109AA8009B9A98979695949392908F8E8D8C8B8A8B
:109AB800898887868584838281807F7E7D7C7B7A86
:109AC800797877767574737271706F6E6D6C6B6A76
:109AD800696867666564636261605F5E5D5C5B5A66
:109AE800595857565554535251504F4E4D4C4B4A56
:109AF800494847464544434241403FFFFEFDFCFB81
:109B0800FAF9F8F7F6F5F4F3F2F1F0EFEEEDECEB25
:109B1800EAE9E8E7E6E5E4E3E2E1E0DFDEDDDCDB15
:109B2800DAD9D8D7D6D5D4D3D2D1D0CFCECDCCCB05
:109B3800CAC9C8C7C6C5C4C3C2C1C0BFBEBDBCBBF5
:109B4800BAB9B8B7B6B5B4B3B2B1B0AFAEADACABE5
:109B5800AAA9A8A7A6A5A4A3A2A1A09F9E9D9C9BD5
:109B68009A999897969594939291908F8E8D8C8BC5
:109B78008A898887868584838281807F7E7D7C7BB5
:109B88007A797877767574737271706F6E6D6C6BA5
:109B98006A696867666564636261605F5E5D5C5B95
:109BA8005A595857565554535251504F4E4D4C4B85
:109BB8004A494847464544434241403FFFFEFDFC71
:109BC800FBFAF9F8F7F6F5F4F3F2F1F0EFEEEDEC55
:109BD800EBEAE9E8E7E6E5E4E3E2E1E0DFDEDDDC45
:109BE800DBDAD9D8D7D6D5D4D3D2D1D0CFCECDCC35
:109BF800CBCAC9C8C702020202020202020202025A
:109C0800020202020202020202020202020202022C
:109C1800020202020202020202020202020202021C
:109C2800020202020202020202020202020202020C
:109C380002020202020202020202020202020202FC
:109C480002020202020202020202020202020202EC
:109C580002020202020202020202020202020202DC
:109C680002020202020202020202020202020202CC
:109C780002020202020202020202020202020202BC
:109C880002020202020202020202020202020202AC
:109C9800020202020202020202020202020202029C
:109CA800020202020202020202020202020202028C
:109CB800020202020202020202020202020202027C
:109CC800020202020202020202020202020202026C
:109CD800020202020202020202020202020202025C
:109CE800020201010101010101010101010101015A
:109CF800010101010101010101010101010101014C
:109D0800010101010101010101010101010101013B
:109D1800010101010101010101010101010101012B
:109D2800010101010101010101010101010101011B
:109D3800010101010101010101010101010101010B
:109D480001010101010101010101010101010101FB
:109D580001010101010101010101010101010101EB
:109D680001010101010101010101010101010101DB
:109D780001010101010101010101010101010101CB
:109D880001010101010101010101010101010101BB
:109D980001010101010101010101010101010101AB
:109DA80001010100000000000000000000000000A8
:109DB800000000000000000000000000000000009B
:109DC800000000000000000000000000000000008B
:109DD800000000000000000000000000EDA1FEA04F
:109DE80032A1A1A1BEA04D616E75616C204D6F645A
:109DF8006520202020202020202043757272656E67
:109E08007420706F733A2020202020202001547580
:109E1800726E2043435720002053706565642020EC
:109E280020205374617274202020200020202020DC
:109E380020202020202052657475726E20746F20B7
:109E48005A65726F3F202020202043757272656E1C
:109E58007420706F733A202020202020202020209A
:109E680020202020202020202020202020202020EA
:109E78002020205965732020202020202020202009
:109E880020204E6F20204172633A2053697A653D45
:109E98002020202020202020202043757272656E0B
:109EA8007420706F733A20202020202020015475E0
:109EB800726E20434357200020537065656420204C
:109EC800202053746172742020202000202020203C
:109ED8002020202020204172633A2053657420619D
:109EE80072632073697A6520202041726320736948
:109EF8007A653A202020202020202020202053741A
:109F080065702073697A6520002020436F6E66694A
:109F1800726D202020202020202020200020204397
:109F2800616E63656C204469766964653A20202017
:109F380020202020202020202020506F733A20202D
:109F480020202020202020202020202020204A758A
:109F58006D702073697A653A202020202020202007
:109F680020205072657373546F4A756D70200020FD
:109F780043616E63656C4469766964653A2053652C
:109F880074206469766973696F6E20202020202010
:109F980020202020202020202020202020202020B9
:109FA800202F737465702020002020436F6E66692F
:109FB800726D3132333420202020202000202043AD
:109FC800616E63656C2053657475703A20536574CF
:109FD80020646972656374696F6E202020202020D8
:109FE8002020202020202020202020202020204346
:109FF8006F756E746572436C6F636B7769736520F8
:10A00800202020436C6F636B7769736520202020C4
:10A0180020202020202053657475703A20536574E1
:10A02800207A65726F20706F732E202020202020E8
:10A038002020202020202020202020202020537491
:10A0480065702073697A6520002020436F6E666909
:10A05800726D20782E78780120202020002020435F
:10A06800616E63656C204D61696E204D656E753A51
:10A078002020202020202020202020536574757067
:10A088002020202044697669646520202020204112
:10A0980072632020202020204D616E75616C202085
:10A0A800202020476F325A65726F20202020202000
:10A0B80020202020202009024000020100C032098F
:10A0C8000400000203000000092111010001221D03
:10A0D800000705810340000107050103400001094D
:10A0E800040100020806500007058202400001072B
:10A0F800050202400001340353006F006C00640045
:10A10800650072006E006500720064002E00630036
:10A118006F006D002000200020002000200020009B
:10A12800200020002000200020002E03530074008F
:10A13800650070007000650072004D006F007400CB
:10A148006F00720043006F006E00740072006F00B1
:10A158006C006C00650072000080040220000000A2
:10A168004D6963726F6368704D6173732053746FC8
:10A178007261676520202020303030310600FF09E9
:10A1880001A10119012940150026FF007508954015
:10A198008100190129409100C01A033100320033AF
:10A1A80000340035003600370038003900300039F7
:10A1B8000039001201000200000008D804CFED00A9
:10A1C80001010200010A000E010F110F001818000A
:10A1D800000000000004040404040404043D2A8070
:10A1E800A73D2A80A60403090468656C6C6F207774
:10A1F8006F726C642100536F6C617243686172679F
:10A20800720046494C4520202020004D53444F53AE
:10A21800352E300020202020202020200043616E91
:0FA2280063656C0053746F70200054585400002D
:10A2380005EF57F0780E0001606F020E616F6E0E29
:10A24800626FA00E636F000E656F500E646FE9ECCD
:10A258008DF00FD03E0E02018C6F32EF57F03E0E9C
:10A268000201956F32EF57F03E0E0201A96F32EFEF
:10A2780057F00001E051010AD8B4ECD7030AD8B46A
:10A28800EED7010AD8B464D0070AD8B4EDD7010ACA
:10A298006FD0780E606F020E616F1E0E626FA00E97
:10A2A800636F000E656F500E646FE9EC8DF0E3C0CC
:10A2B80095F0E4C096F0020E0001976FBE0E986FFD
:10A2C800000E996F9FEC6BF0E80E0001E35D030E42
:10A2D800E459D8A002D0000E01D0010EC86F000EBC
:10A2E800C96F18D0C951010DBE0EF324D96E000EE6
:10A2F800F420DA6EC951C8C0BCF0BD6BBC27000E93
:10A30800BD23B40EBC25E16E020EBD21E26EDFCF87
:10A31800E7FFC92BC951010DBE0EF324D96E000EFB
:10A32800F420DA6EDF50D8A4DDD70001E051110A1D
:10A338008CD0780E606F020E616FCE0E626F9F0E2A
:10A34800636F000E656F500E646FE9EC8DF00AD0F4
:10A358003E0E0201A06F32EF57F03E0E0201B46FBD
:10A3680032EF57F00001E051210AD8B4F1D7030ABF
:10A37800D8B4F3D732EF57F0780E606F020E616FE2
:10A388007E0E626F9F0E636F000E656F500E646FD6
:10A39800E9EC8DF0E8C078F00001796B030E7A6F74
:10A3A800BE0E7B6F000E7C6F51EC80F0000E00013A
:10A3B800C96F020EC96501D014D0C951010DBE0E76
:10A3C800F324D96E000EF420DA6EC951010DA00EE7
:10A3D800F324E16E020EF420E26EDFCFE7FFC92B13
:10A3E800E8D7E6C078F0E7C079F0040E7A6FBE0EC1
:10A3F8007B6F000E7C6F51EC80F0000E0001C96F7E
:10A40800030EC96501D01ED0C951010DBE0EF3243B
:10A41800D96E000EF420DA6EC951010DB40EF32482
:10A42800E16E020EF420E26EDFCFE7FFC92BE8D71A
:10A438003E0E0201AC6F32EF57F03E0E0201C06FC4
:10A4480032EF57F00001E051310AD8B4F1D7030ACE
:10A45800D8B4F3D732EF57F0780E606F020E616F01
:10A468002E0E626F9F0E636F000E656F500E646F45
:10A47800E9EC8DF0E6C078F0E7C079F0000E000155
:10A488007A6FBE0E7B6F000E7C6F51EC80F0000E71
:10A498000001C96F18D0C951010DBE0EF324D96E41
:10A4A800000EF420DA6EC951BC6FBD6B080EBC27D4
:10A4B800000EBD23780EBC25E16E020EBD21E26EB2
:10A4C800DFCFE7FFC92BC951010DBE0EF324D96EAA
:10A4D800000EF420DA6EDF50D8A4DDD7C951BC6F66
:10A4E800BD6B080EBC27000EBD23780EBC25D96EA7
:10A4F800020EBD21DA6E2C0EDF6EE529D8A423D01A
:10A50800C951BC6FBD6B0A0EBC27000EBD23780E67
:10A51800BC25D96E020EBD21DA6E430EDF6EC9511D
:10A52800BC6FBD6B0B0EBC27000EBD23780EBC257F
:10A53800D96E020EBD21DA6E430EDF6EC951BC6FB3
:10A54800BD6B0C0E13D0C951BC6FBD6B0A0EBC2776
:10A55800000EBD23780EBC25D96E020EBD21DA6E21
:10A56800430EDF6EC951BC6FBD6B0B0EBC27000ECE
:10A57800BD23780EBC25D96E020EBD21DA6E570EAA
:10A58800DF6EE9C078F0EAC079F0000E7A6FBE0E8F
:10A598007B6F000E7C6F51EC80F0000E0001C96FDC
:10A5A80018D0C951010DBE0EF324D96E000EF42047
:10A5B800DA6EC951BC6FBD6B050EBC27000EBD23FA
:10A5C8008C0EBC25E16E020EBD21E26EDFCFE7FFE7
:10A5D800C92BC951010DBE0EF324D96E000EF4200B
:10A5E800DA6EDF50D8A4DDD7C951BC6FBD6B060E3B
:10A5F800BC27000EBD238C0EBC25D96E020EBD21D2
:10A60800DA6E280EDF6EC951070FC86FDEC0ADF0D5
:10A61800DFC0AEF0AF6BB06B020EB16FBE0EB26FA3
:10A62800000EB36FC7EC7AF0000E0001C96F18D0A6
:10A63800C951010DBE0EF324D96E000EF420DA6E56
:10A64800C851C9C0BCF0BD6BBC27000EBD238C0E21
:10A65800BC25E16E020EBD21E26EDFCFE7FFC92BFC
:10A66800C951010DBE0EF324D96E000EF420DA6E26
:10A67800DF50D8A4DDD7C851C9C0BCF0BD6BBC271A
:10A68800000EBD238C0EBC25D96E020EBD21DA6EDC
:10A69800010EDF6EC851C9C0BCF0BD6BBC27000EEF
:10A6A800BD23010EBC27000EBD238C0EBC25D96E20
:10A6B800020EBD21DA6E290EDF6EEBC08FF0ECC002
:10A6C80090F0BE0E916F000E926F8DEC91F0000E1F
:10A6D8000001C96F18D0C951010DBE0EF324D96EFF
:10A6E800000EF420DA6EC951BC6FBD6B0B0EBC278F
:10A6F800000EBD23A00EBC25E16E020EBD21E26E48
:10A70800DFCFE7FFC92BC951010DBE0EF324D96E67
:10A71800000EF420DA6EDF50D8B4A0D3DCD7780E60
:10A72800606F020E616FDE0E626F9E0E636F000E29
:10A73800656F500E646FE9EC8DF008D03E0E020193
:10A74800AC6F0CD03E0E0201C06F08D00001E05182
:10A75800510AD8B4F3D7030AD8B4F4D7EFC0ADF090
:10A76800F0C0AEF0F1C0AFF0F2C0B0F0020E0001E0
:10A77800B16FBE0EB26F000EB36FC7EC7AF0000E69
:10A788000001C96F18D0C951010DBE0EF324D96E4E
:10A79800000EF420DA6EC951BC6FBD6B0A0EBC27DF
:10A7A800000EBD238C0EBC25E16E020EBD21E26EAB
:10A7B800DFCFE7FFC92BC951010DBE0EF324D96EB7
:10A7C800000EF420DA6EDF50D8A4DDD7C951BC6F73
:10A7D800BD6B0A0EBC27000EBD238C0EBC25D96E9E
:10A7E800020EBD21DA6E010EDF6EEDC095F0EEC0EF
:10A7F80096F0020E976FBE0E986F000E996F9FEC41
:10A808006BF0E80E0001ED5D030EEE59D8A002D002
:10A81800000E01D0010EC86F000EC96F18D0C951C3
:10A82800010DBE0EF324D96E000EF420DA6EC95164
:10A83800C8C0BCF0BD6BBC27000EBD23B40EBC2540
:10A84800E16E020EBD21E26EDFCFE7FFC92BC951D1
:10A85800010DBE0EF324D96E000EF420DA6EDF501F
:10A86800D8A4DDD7C951C8C0BCF0BD6BBC27000E49
:10A87800BD23B40EBC25D96E020EBD21DA6E010EC1
:10A888005BD2780E606F020E616F8E0E626F9E0E45
:10A89800636F000E656F500E646FE9EC8DF025D084
:10A8A800570E0201A66F200EA76F27D0A00E000139
:10A8B800606F020E616F1C0E626FA20E636F000E56
:10A8C800656F080E646FE9EC8DF0B40E0001606FDF
:10A8D800020E616F250E626FA20E636F000E656F28
:10A8E800060E646FE9EC8DF008D00001E051620AB1
:10A8F800D8B4DCD7010AD8B4D3D7EFC0ADF0F0C0D4
:10A90800AEF0F1C0AFF0F2C0B0F0020E0001B16FCE
:10A91800BE0EB26F000EB36FC7EC7AF0000E0001E6
:10A92800C96F18D0C951010DBE0EF324D96E000E9F
:10A93800F420DA6EC951BC6FBD6B0A0EBC27000E3D
:10A94800BD23780EBC25E16E020EBD21E26EDFCF7D
:10A95800E7FFC92BC951010DBE0EF324D96E000EB5
:10A96800F420DA6EDF50D8A4DDD7C951BC6FBD6BB7
:10A978000A0EBC27000EBD23780EBC25D96E020E28
:10A98800BD21DA6E010EDF6EDEC0ADF0DFC0AEF0C5
:10A99800AF6BB06B020EB16FBE0EB26F000EB36F2D
:10A9A800C7EC7AF0BE0E0001606F000E616F35ECE7
:10A9B80092F0000160510008060FC86F000EC96FC1
:10A9C8001CD0C951010DBE0EF324D96E000EF4201F
:10A9D800DA6EC951C8C0BCF0BD6BBC27000EBD23E0
:10A9E8000D0EBC27000EBD238C0EBC25E16E020E99
:10A9F800BD21E26EDFCFE7FFC92BC951010DBE0EA5
:10AA0800F324D96E000EF420DA6EDF50D8A4D9D71B
:10AA1800F3C093F0F4C094F014EC95F093C095F063
:10AA280094C096F0020E0001976FBE0E986F000E4C
:10AA3800996F9FEC6BF0000E0001C96F18D0C951D7
:10AA4800010DBE0EF324D96E000EF420DA6EC95142
:10AA5800BC6FBD6B0B0EBC27000EBD23B40EBC250E
:10AA6800E16E020EBD21E26EDFCFE7FFC92BC951AF
:10AA7800010DBE0EF324D96E000EF420DA6EDF50FD
:10AA8800D8A4DDD72DD1780E606F020E616F3E0E0F
:10AA9800626F9E0E636F000E656F500E646FE9EC77
:10AAA8008DF0DEC0ADF0DFC0AEF00001AF6BB06B73
:10AAB800020EB16FBE0EB26F000EB36FC7EC7AF024
:10AAC800000E0001C96F18D0C951010DBE0EF32444
:10AAD800D96E000EF420DA6EC951BC6FBD6B0D0E35
:10AAE800BC27000EBD238C0EBC25E16E020EBD21D5
:10AAF800E26EDFCFE7FFC92BC951010DBE0EF3246B
:10AB0800D96E000EF420DA6EDF50D8A4DDD7C95113
:10AB1800BC6FBD6B0D0EBC27000EBD238C0EBC2573
:10AB2800D96E020EAAD6780E606F020E616FEE0E15
:10AB3800626F9D0E636F000E656F500E646FE9ECD7
:10AB48008DF044D0570E0201A66F200EA76F49D092
:10AB5800A00E0001606F020E616F1C0E626FA20EE4
:10AB6800636F000E656F080E646FE9EC8DF0B40E2C
:10AB78000001606F020E616F250E626FA20E636F97
:10AB8800000E656F060E646FE9EC8DF02AD0A00EFA
:10AB98000001606F020E616F1C0E626FA20E636F80
:10ABA800000E656F080E646FE9EC8DF0B40E0001BD
:10ABB800606F020E616F2C0E626FA20E636F000E43
:10ABC800656F050E646FE9EC8DF00BD00001E05164
:10ABD800820AD8B4BDD7010AD8B4B4D7070AD8B402
:10ABE800D6D7DEC0ADF0DFC0AEF00001AF6BB06B02
:10ABF800020EB16FBE0EB26F000EB36FC7EC7AF0E3
:10AC0800BE0E0001606F000E616F35EC92F000011E
:10AC180060510008070FC86F000EC96F1CD0C951DA
:10AC2800010DBE0EF324D96E000EF420DA6EC95160
:10AC3800C8C0BCF0BD6BBC27000EBD230C0EBC27E2
:10AC4800000EBD238C0EBC25E16E020EBD21E26E06
:10AC5800DFCFE7FFC92BC951010DBE0EF324D96E12
:10AC6800000EF420DA6EDF50D8A4D9D7F6C093F0DE
:10AC7800F7C094F014EC95F093C095F094C096F05A
:10AC8800020E0001976FBE0E986F000E996F9FEC31
:10AC98006BF0000E0001C96F18D0C951010DBE0E2E
:10ACA800F324D96E000EF420DA6EC951BC6FBD6B67
:10ACB8000B0EBC27000EBD23B40EBC25E16E020EA0
:10ACC800BD21E26EDFCFE7FFC92BC951010DBE0ED2
:10ACD800F324D96E000EF420DA6EDF50D8A4DDD745
:10ACE800C951BC6FBD6B0B0EBC27000EBD23B40E43
:10ACF800BC25D96E020EBD21DA6E010EDF6EC95178
:10AD0800BC6FBD6B0C0EBC27000EBD23B40EBC255A
:10AD1800D96E020EBD21DA6E2F0EDF6EC951BC6FDF
:10AD2800BD6B0D0EBC27000EBD23B40EBC25D96E1D
:10AD3800020EBD21DA6E730EDF6E90D045EC91F0F5
:10AD48000001D651956F966B95BF9607000E976FC9
:10AD5800780E986F020E996F9FEC6BF084A402D066
:10AD6800480E01D04C0E0201806F84A002D0480E1C
:10AD780001D04C0E816F0001D751956F966B95BF2E
:10AD88009607000E976F8C0E986F020E996F9FECC6
:10AD98006BF084A202D0480E01D04C0E0201946FD1
:10ADA8000001D851956F966B95BF9607000E976F67
:10ADB800A00E986F020E996F9FEC6BF080A002D0E6
:10ADC800480E01D04C0E0201A86F80A402D0480E94
:10ADD80001D04C0EA96F0001D951956F966B95BFA4
:10ADE8009607000E976FB40E986F020E996F9FEC3E
:10ADF8006BF080A202D0480E01D04C0E0201BC6F4D
:10AE08002DD00001E051F00BBC6FBD6BBD51000AA5
:10AE1800D8A424D0BC51000AD8B41EEF51F0100AAF
:10AE2800D8B44DEF51F0300AD8B49DEF51F0100A64
:10AE3800D8B4C0EF51F0700AD8B430EF52F0100A0D
:10AE4800D8B46DD4300AD8B41CD5100AD8B41BD6DF
:10AE5800F00AD8B468D6700AD8B470D783B4120090
:10AE6800450E0201786F520E796F520E7A6F4F0EAF
:10AE78007B6F520E7C6F12000001D651D8A47DEF73
:10AE88005BF0D851D8A47DEF5BF0D751D8A47DEF03
:10AE98005BF0D951D8B412007DEF5BF0D705D8B478
:10AEA80003D0D905D8A402D0110EE06FD8C0C4F0E1
:10AEB800C56BC4BFC507D6C0C6F0C76BC6BFC7073A
:10AEC800C451C627C551C723C7BF07D0C75103E11F
:10AED800C605D8A002D0020EE06FD8C0C4F0C56B7A
:10AEE800C4BFC507D6C0C6F0C76BC6BFC707C45125
:10AEF800C627C551C723C7AFA1EF5BF0050EE8D33E
:10AF0800D705D8B403D0D905D8A402D0310EE06F44
:10AF1800D8C0C4F0C56BC4BFC507D6C0C6F0C76BE0
:10AF2800C6BFC707C451C627C551C723C7BF07D067
:10AF3800C75103E1C605D8A002D0030EE06FD8C000
:10AF4800C4F0C56BC4BFC507D6C0C6F0C76BC6BFC3
:10AF5800C707C451C627C551C723C7AFEED3010ED3
:10AF6800B7D3D705D8B403D0D905D8A402D0510E89
:10AF7800E06FD8C0C4F0C56BC4BFC507D6C0C6F063
:10AF8800C76BC6BFC707C451C627C551C723C7BFAC
:10AF980007D0C75103E1C605D8A002D0040EE06F60
:10AFA800D8C0C4F0C56BC4BFC507D6C0C6F0C76B50
:10AFB800C6BFC707C451C627C551C723C7AFBDD32E
:10AFC800020E86D3D705D8B403D0D905D8A402D0A9
:10AFD800820EE06FD8C0C4F0C56BC4BFC507D6C029
:10AFE800C6F0C76BC6BFC707C451C627C551C7231C
:10AFF800C7BF07D0C75103E1C605D8A002D0050EC8
:10B00800E06FD8C0C4F0C56BC4BFC507D6C0C6F0D2
:10B01800C76BC6BFC707C451C627C551C723C7AF2B
:10B028008CD3030E55D3D705D8B403D0D905D8A4EB
:10B0380002D0710EE06FD8C0C4F0C56BC4BFC5079D
:10B04800D6C0C6F0C76BC6BFC707C451C627C5510F
:10B05800C723C7BF07D0C75103E1C605D8A002D090
:10B06800010EE06FD8C0C4F0C56BC4BFC507D6C019
:10B07800C6F0C76BC6BFC707C451C627C551C7238B
:10B08800C7AF5BD3040E24D3E051010AD8B406D766
:10B09800030AD8B435D7010AD8B463D7070AD8B495
:10B0A80091D7010AD8B4BFD7F50A47D3D705D8A492
:10B0B8000ED0000EDA6F000EDB6F000EDC6F000E94
:10B0C800DD6F000EEA6F000EE96F210EE06FD651BA
:10B0D800800A7F0FD8A002D0120EE06FD6AF1AD028
:10B0E800120E0FD0D705D8A402D0010EE06FD651AA
:10B0F800800A7F0FD8A002D0110EE06FD6AF0AD019
:10B10800110EE06F07D0E051110AD8B4CFD7030A67
:10B11800D8B4E8D7D905D8A40AD0E3C060F0E4C011
:10B1280061F048EC8CF060C0E3F061C0E4F000012D
:10B13800D851800A7F0FD8A019D0E151D8A416D0D1
:10B14800E3C08FF0E4C090F01FEC91F08FC097F04F
:10B1580090C098F091C099F092C09AF0000E00014A
:10B168009C6F000E9B6F010E1AEC88F00001D8AF9F
:10B17800E4D2E151D8A4E1D2E3C08FF0E4C090F06A
:10B188001FEC91F08FC097F090C098F091C099F0A3
:10B1980092C09AF0000E00019C6F000E9B6FFF0E8C
:10B1A8001AEC88F0CAD20001D705D8B403D0D90563
:10B1B800D8A41FD07EC197F07FC198F0996B9A6B85
:10B1C800000E9C6F000E9B6F010E1AEC88F07EC17A
:10B1D80097F07FC198F00001996B9A6B000E9C6FF5
:10B1E800000E9B6FFF0E1AEC88F00001E569010E56
:10B1F800E06FD8C0C4F0C56BC4BFC507D6C0C6F0E1
:10B20800C76BC6BFC707C451C627C551C723C7BF29
:10B2180007D0C75103E1C605D8A002D0220EE06FBF
:10B22800D8C0C4F0C56BC4BFC507D6C0C6F0C76BCD
:10B23800C6BFC707C451C627C551C723C7AF7DD2EC
:10B24800220E46D2D705D8B403D0D905D8A420D029
:10B258007EC197F07FC198F0996B9A6B000E9C6F36
:10B26800000E9B6FFF0E1AEC88F07EC197F07FC12D
:10B2780098F00001996B9A6B000E9C6F000E9B6F03
:10B28800010E1AEC88F0010E0001E56F010EE06F67
:10B29800D8C0C4F0C56BC4BFC507D6C0C6F0C76B5D
:10B2A800C6BFC707C451C627C551C723C7BF07D0E4
:10B2B800C75103E1C605D8A002D0210EE06FD8C05F
:10B2C800C4F0C56BC4BFC507D6C0C6F0C76BC6BF40
:10B2D800C707C451C627C551C723C7AF2ED2210EF1
:10B2E800F7D10001E051210AD8B45DD7030AD8B4D8
:10B2F800A9D723D2D705D8A405D0D5EC72F0410E32
:10B308000001E06FD651800A7F0FD8A002D0320E1C
:10B31800E06FD6AF1AD0320E0FD0D705D8A402D01E
:10B32800020EE06FD651800A7F0FD8A002D0310EEE
:10B33800E06FD6AF0AD0310EE06F07D0E051310A86
:10B34800D8B4D8D7030AD8B4E8D7D905D8A405D033
:10B35800E851ECEC93F00001E86FD851800A7F0FB8
:10B36800D8A004D0E851E627000EE723D8AFE5D1EE
:10B37800E851C46FC56BE651C45DC551800AC66FFC
:10B38800E751800AC659D8B005D0E851E65F000EEB
:10B39800E75BD3D1000EE76F010EE66FCED1D7057C
:10B3A800D8A402D0020EE06FD905D8B4EEEC89F02B
:10B3B8000001D851800A7F0FD8B0E6EC92F0000166
:10B3C800D8AFBBD119EC8EF0B8D10001D705D8A4FD
:10B3D80002D0620EE06FD651800A7F0FD8A002D04B
:10B3E800520EE06FD6AF1BD0520E0FD0D705D8A49F
:10B3F80002D0030EE06FD651800A7F0FD8A002D08A
:10B40800510EE06FD6AF0BD0510EE06F08D000019F
:10B41800E051510AD8B4D9D7030AD8B4E7D7D90527
:10B42800D8A40AD0EDC060F0EEC061F080EC8CF0DA
:10B4380060C0EDF061C0EEF00001D851800A7F0FC6
:10B44800D8A01CD0ED51EF27EE51F023000EF123C8
:10B45800000EF223F2BF12D0F25108E1A10EEF5D07
:10B46800860EF059010EF159D8A008D0A00EEF6F42
:10B47800860EF06F010EF16F000EF26FD8AF5DD13E
:10B48800ED51C46FEE51C56FC66BC76BC451EF5F0A
:10B49800C551F05BC651F15BC751F25BF2BF07D0F3
:10B4A800F251F111F01102E1EF05D8B046D1010EC9
:10B4B800EF6F000EF06F000EF16F000EF26F3DD1CE
:10B4C800D651800A7F0FD8A015D0010188510001FC
:10B4D800F35D010189510001F459D8B002D0F34B52
:10B4E800F42BE151D8B406D0F3C060F0F4C061F099
:10B4F80054EC95F00001D6AF4BD0F3510101825DB9
:10B508000001F45101018359D8B004D00001F307B8
:10B51800D8A0F4070001E151D8B43AD0F3C060F0E4
:10B52800F4C061F054EC95F033D00001D905D8A4EB
:10B5380006D0FF0EC2EC80F0620E0001E06FD85119
:10B54800800A7F0FD8A0F9D0620EC2D0D905D8A43E
:10B5580007D0E151D8A46AEC91F0030E0001E06F26
:10B56800D851800A7F0FD8A002D0630EE06FD8AF01
:10B57800E4D0610EADD0D905D8A406D0010EC2EC36
:10B5880080F0620E0001E06FD8AFD7D0620EA0D075
:10B598000001E051610AD8B4C8D7030AD8B4D6D795
:10B5A800010AD8B4E8D7C9D0D905D8A411D0000E5B
:10B5B8009E6F000E9F6F000EA06F000EA16FBFEC74
:10B5C80063F0050E0001E06F000EEA6F000EE96FF0
:10B5D800D705D8A4B2D0050E7BD0D651800A7F0FEC
:10B5E800D8A012D001018C510001F65D01018D51E6
:10B5F8000001F759D8B008D0F64BF72BF6C060F029
:10B60800F7C061F054EC95F00001D6AF63D0F65165
:10B618000101825D0001F75101018359D8B05AD068
:10B628000001F607D8A0F707F6C060F0F7C061F090
:10B6380054EC95F04FD00001D905D8A412D0000ED3
:10B64800976F000E986F000E996F000E9A6FF6C0F4
:10B658009BF0F7C09CF0FF0E1AEC88F0840E0001F6
:10B66800E06FD851800A7F0FD8A067D0820E30D003
:10B67800D905D8A402D0040EE06FD851800A7F0FF4
:10B68800D8A002D0830EE06FD8AF57D0810E20D05B
:10B69800D905D8A411D0840EE06F000E976F000E64
:10B6A800986F000E996F000E9A6FF6C09BF0F7C066
:10B6B8009CF0010E1AEC88F00001D8AF3ED0820E43
:10B6C80007D0D905D8A439D06AEC91F0820E0001D0
:10B6D800E06F33D00001E051810AD8B4ACD7030A37
:10B6E800D8B4C6D7010AD8B4D3D7070AD8B4E9D78B
:10B6F80024D0E051F00BC46FC56BC551000AD8A423
:10B708001CD0C451000AD8B4BFD4100AD8B4FBD492
:10B71800300AD8B4E6D5100AD8B410D6700AD8B40E
:10B728003ED6100AD8B473D6300AD8B4C9D6100A8F
:10B73800D8B43AD7F00AD8B450D7000E0001D66F63
:10B74800000ED86F000ED76F000ED96F12009E92B0
:10B7580001016A51D8A418D08AA215D08A923B5107
:10B76800161809E13C51171806E13D51181803E174
:10B778003E511918D8A41200CA949E929D92000EA8
:10B788000001E16F12008A82010E1626000E1722B0
:10B7980018221922010169512E6E000E2EBEFF0ECD
:10B7A8002F6E306E316E2E500001DA272F50DB23BA
:10B7B8003050DC233150DD23010179510001DA19C1
:10B7C80018E101017A510001DB1913E101017B51F4
:10B7D8000001DC190EE101017C510001DD19D8A43A
:10B7E80008D0000EDA6F000EDB6F000EDC6F000E63
:10B7F800DD6FDA291BE1DB2919E1DC2917E1DD29F5
:10B80800D8A414D0FF0E010179250001DA6FFF0ECC
:10B8180001017A210001DB6FFF0E01017B2100018C
:10B82800DC6FFF0E01017C210001DD6F0101375142
:10B83800161809E13851171806E13951181803E1AB
:10B848003A511918D8A415D216C02EF017C02FF0E7
:10B8580018C030F019C031F02E1E2F1E301E311EB8
:10B868002E2A000E2F22302231223B512E24426EE6
:10B878003C512F20436E3D513020446E3E513120C3
:10B88800456ED8900001CA35F66ECB35F76E610E5D
:10B89800F626940EF722F86A000EF8220900F5CF72
:10B8A8003EF00A00F5CF3FF0CAC02EF0CBC02FF013
:10B8B800D8902E362F36040E2E26000E2F22610E1B
:10B8C8002E24F66E940E2F20F76EF86A000EF822DA
:10B8D8000900F5CF40F00A00F5CF41F0CA51010147
:10B8E8005B5D0001CB5101015C59D8A010D03E50DE
:10B8F8002E6E3F502F6E306A316A42502E5C435094
:10B908002F584450305845503158D8A0E3D0000142
:10B91800CA51CB11D8B403D0CA07D8A0CB070101AC
:10B928006A05D8A426D02F0E0001CA25F66E980EF7
:10B93800CB21F76EF86A000EF8220800F5500009CE
:10B94800D8B417D0000E01016A6F8A82550EA76E0F
:10B95800AA0EA76E0E01BF91000EC46F550EA76EFA
:10B96800AA0EA76EBF81000ECC6EBA90BA92BA9496
:10B97800BA96FD0E0001CA25F66E9B0ECB21F76E16
:10B98800F86A000EF8220800F5CF2EF0CA502E18DB
:10B99800FC0B2E18CA6E160ECA25F66E9A0ECB210F
:10B9A800F76EF86A000EF8220800F5CFCBFF2F0ECD
:10B9B800CA25F66E980ECB21F76EF86A000EF822AB
:10B9C8000800F5CF2EF02E462E462E46CA502E18C9
:10B9D800870B2E18CA6ED890CB30BB6ECA51CB11CC
:10B9E800D8B458D0FE0E2E6EFF0E2F6ECAC030F09F
:10B9F800CBC031F0D890303631362E5030262F500B
:10BA08003122610E3024F66E940E3120F76EF86AFA
:10BA1800000EF8220900F5CF32F00900F5CF33F017
:10BA28003250346E3350356E366A376A341E351EDE
:10BA3800361E371E342A000E352236223722D89079
:10BA4800CA35F66ECB35F76E610EF626940EF722E0
:10BA5800F86A000EF8220900F5CF38F00900F5CF92
:10BA680039F0385034243A6E395035203B6E000E88
:10BA780036203C6E000E37203D6E16503A240101E8
:10BA8800376F17503B20386F18503C20396F1950CA
:10BA98003D20EED0D8900001CA35F66ECB35F76E52
:10BAA800610EF626940EF722F86A000EF8220900B5
:10BAB800F5CF2EF00900F5CF2FF02E5016240101F6
:10BAC800376F2F501720386F000E1820396F000E6F
:10BAD8001920CED05B510001CA1906E101015C5161
:10BAE8000001CB19D8B410D040502E6E41502F6EA3
:10BAF800306A316A42502E5C43502F5844503058B7
:10BB080045503158D8A002D0D89060D00001CA4B17
:10BB1800CB2BFD0ECA25F66E9B0ECB21F76EF86A6D
:10BB2800000EF8220800F5CF2EF0CA502E18FC0B94
:10BB38002E18CA6E160ECA25F66E9A0ECB21F76E0F
:10BB4800F86A000EF8220800F5CFCBFF2F0ECA25A1
:10BB5800F66E980ECB21F76EF86A000EF8220800F0
:10BB6800F5CF2EF02E462E462E46CA502E18870B9D
:10BB78002E18CA6ED890CB30BB6E01016A51D8A47A
:10BB880023D02F0E0001CA25F66E980ECB21F76E32
:10BB9800F86A000EF8220800F5500009D8A414D05D
:10BBA800010E01016A6FBA50F00B0C09BA6E550EFE
:10BBB800A76EAA0EA76E0E01BF910E0EC46F550E8A
:10BBC800A76EAA0EA76EBF81D8900001CA35F66E7F
:10BBD800CB35F76E610EF626940EF722F86A000E42
:10BBE800F8220900F5CF2EF00900F5CF2FF02E50DE
:10BBF800306E2F50316E326A336A301E311E321E5B
:10BC0800331E302A000E312232223322CAC034F0C9
:10BC1800CBC035F0D89034363536020E3426000EB7
:10BC28003522610E3424F66E940E3520F76EF86ACC
:10BC3800000EF8220900F5CF36F00900F5CF37F0ED
:10BC480036503024386E37503120396E000E32208D
:10BC58003A6E000E33203B6E165038240101376FC0
:10BC680017503920386F18503A20396F19503B2037
:10BC78003A6F9EA212009E92010E1626000E1722FF
:10BC88001822192269512E6E000E2EBEFF0E2F6E3D
:10BC9800306E316E2E500001DA272F50DB233050E2
:10BCA800DC233150DD23010179510001DA1918E153
:10BCB80001017A510001DB1913E101017B510001F7
:10BCC800DC190EE101017C510001DD19D8A408D06E
:10BCD800000EDA6F000EDB6F000EDC6F000EDD6FFA
:10BCE800DA291CE1DB291AE1DC2918E1DD29D8A4CD
:10BCF8001200FF0E010179250001DA6FFF0E010124
:10BD08007A210001DB6FFF0E01017B210001DC6F4E
:10BD1800FF0E01017C210001DD6F12001200BFD16E
:10BD2800BAEC6EF00009D8A412000001D169120023
:10BD380031EC65F00009D8A412000001D1691200A5
:10BD4800D005D8A402D0D169120012C11BF013C1CA
:10BD58001AF01AC06AF01BC06BF06C6B6D6B67EC65
:10BD68007EF00009D8A41200000E0001616F240EB5
:10BD7800606F6AEC86F0000E0001606F060E616F5E
:10BD8800600E626FA10E636F000E656F240E646F04
:10BD9800E9EC8DF0FD0E0001D16F1200ADC160F02D
:10BDA800AEC161F021EE9BF001D80AD00500FA6E11
:10BDB800DE50FD6EDE50FE6EDE50FF6EFA50120051
:10BDC80060C0A2F061C0A3F062C0A4F063C0A5F097
:10BDD800ADC160F0AEC161F021EE9EF001D80AD08D
:10BDE8000500FA6EDE50FD6EDE50FE6EDE50FF6E10
:10BDF800FA501200000160C09EF061C09FF0A06B75
:10BE0800A16B26EE00F0A5C0DFFF26EE01F0A4C06E
:10BE1800DFFF26EE02F0A3C0DFFF26EE03F0A2C08C
:10BE2800DFFF26EE04F0A1C0DFFF26EE05F0A0C07C
:10BE3800DFFF26EE06F09FC0DFFF26EE07F09EC06C
:10BE4800DFFF000E1B6E080E1A6E000E616F080EE3
:10BE5800606F6AEC86F0FD0E0001D16F1200D0050C
:10BE6800D8A402D0D1691200000E1B6E120E1A6EF1
:10BE7800000E616F120E606F6AEC86F0000E000112
:10BE8800A66F110EA66501D014D0A651010D1F0E84
:10BE9800F324D96E010EF420DA6EA651010D000EBE
:10BEA800F324E16E060EF420E26EDFCFE7FFA62B47
:10BEB800E8D7FD0ED16F1200030EE8CF00F6000E92
:10BEC800E8CF01F6ADC160F0AEC161F021EEA7F098
:10BED80001D80AD00500FA6EDE50FD6EDE50FE6E07
:10BEE800DE50FF6EFA5012000009D8A405D0000EEB
:10BEF80000019C6F000E04D0000E00019C6F800EA4
:10BF08009B6F26EE02F09BC0DFFF000EE8CF03F622
:10BF1800000E1B6E040E1A6E000E616F040E606F29
:10BF28006AEC86F0FD0E0001D16F1200010121516B
:10BF3800F00B0509216F200E2B6F000E2C6F010EE0
:10BF48000D018C6F000E886F000E896F000E8A6FCE
:10BF5800000E8B6F0001D1691200000E6A6F000E8F
:10BF68006B6F000E6C6F000E6D6F67EC7EF0000952
:10BF7800D8A41200010121510F0B060AD8A407D03A
:10BF88000D018C05D8A403D00001D169120087ECFB
:10BF98008DF0000E0D01886F000E896F000E8A6FFC
:10BFA800000E8B6F0001D1691200000E0D01886F21
:10BFB800000E896F000E8A6F000E8B6F0001D16929
:10BFC8001200CC51CD11D8B406D0CCC0D9FFCDC009
:10BFD800DAFFDFBE120001010B510A11091104E159
:10BFE800400E085DD8A00BD0400E00019D6F400E9A
:10BFF8000101085F000E095B0A5B0B5B0AD008C1F0
:10C008009DF0000E086F000E096F000E0A6F000EFB
:10C018000B6F00019D51996F9A6B99511A5C9A5157
:10C028001B58D8A005D09D511A5E000E1B5A1AD075
:10C03800000EA66F13D01A501B10D8B404D01A06DD
:10C04800D8A01B060AD0A651010D000EF324D96E04
:10C05800060EF420DA6E000EDF6EA62B9D51A65D4B
:10C06800D8A0E9D7010E606F000E616F060E626FEF
:10C078009DC063F0020EE0EC7CF060C0CCF061C0C3
:10C08800CDF00101085109110A110B11D8A41200B1
:10C098000001D16912007F0EB1EC79F012000001A5
:10C0A800D151000AD8B459D7030AD8B4D8D6110A3E
:10C0B800D8B446D6080AD8B4FFD6010AD8B475D77A
:10C0C800050AD8B433D73B0AD8B468D60D0AD8B411
:10C0D80027D6020AD8B42CD6050AD8B466D7D20A0D
:10C0E800D8B46FD7030AD7D700017151800B7A6F84
:10C0F80071517125806F70BF80818051D8B40DD087
:10C108008029D8A408D0000E6E6F000E6F6F000E45
:10C11800706F000E716F708F08D0000E6E6F000E7A
:10C128006F6F000E706F000E716F7551800B7A1B68
:10C13800755175257B6F74BF7B817B51D8B40DD049
:10C148007B29D8A408D0000E726F000E736F000E02
:10C15800746F000E756F748F08D0000E726F000E2A
:10C16800736F000E746F000E756F7B51D8B403D0D7
:10C178008051D8A409D0000E6E6F000E6F6F000EAC
:10C18800706F000E716F120074516E03F3CF85F05B
:10C19800F4CF86F085517C6F7D6B7E6B7F6B86510B
:10C1A800816F826B836B846B73516F03F3CF85F060
:10C1B800F4CF86F085517C27000E7D237E237F23D4
:10C1C80086518127000E82238323842372517003B2
:10C1D800F3CF85F0F4CF86F085517C27000E7D23C0
:10C1E8007E237F2386518127000E82238323842385
:10C1F8007EC07FF07DC07EF07CC07DF07C6B72518C
:10C208006F03F3CF85F0F4CF86F085517C278651F4
:10C218007D23000E7E23000E7F2373516E03F3CF20
:10C2280085F0F4CF86F085517C2786517D23000E5A
:10C238007E23000E7F237EC07FF07DC07EF07CC011
:10C248007DF07C6B72516E03F3CF85F0F4CF86F0EE
:10C2580085517C2786517D23000E7E23000E7F2387
:10C2680074516F03F3CF85F0F4CF86F085518127A1
:10C2780086518223000E8323000E8423735170039A
:10C28800F3CF85F0F4CF86F085518127865182233C
:10C29800000E8323000E842374517003F3CF85F0BE
:10C2A800F4CF86F08551766F8651776F786B796B0E
:10C2B80078C079F077C078F076C077F0766B7651F1
:10C2C80081277751822378518323795184237CC035
:10C2D80076F07DC077F07EC078F07FC079F0190ED7
:10C2E80005D0D8907933783377337633E82EF9D779
:10C2F800765181277751822378518323795184237A
:10C308007EC07FF07DC07EF07CC07DF07C6B7B5171
:10C3180080C076F0776B7627000E7723820E76251D
:10C32800856FFF0E7721866F0FD0D89081378237BF
:10C33800833784377FBF8181D8907C377D377E37BC
:10C348007F378507D8A0860783AFEFD7000E7B6FAE
:10C358007FAF16D0FF0E7C15766FFF0E7D15776FB9
:10C36800FF0E7E15786F7F0E7F15796F76517711E6
:10C3780078117911D8A402D081A102D0010E7B6F67
:10C388007B51D8B41FD0010E8127000E822383234E
:10C39800842384A117D081C076F082C077F083C04F
:10C3A80078F084C079F07935793378337733763318
:10C3B80076C081F077C082F078C083F079C084F0CD
:10C3C800854B862B86BF0DD0865103E18529D8A0E1
:10C3D80008D0000E816F000E826F800E836F7F0E73
:10C3E80020D086BF05D086510EE18505D8B00BD088
:10C3F800000E816F000E826F000E836F000E846F37
:10C40800000E7A6F0FD085C080F0FF0E8117FF0EE7
:10C4180082177F0E8317000E841780B1838FD89000
:10C428008031846F7A51841381C06EF082C06FF0BE
:10C4380083C070F084C071F0120000016351800B5A
:10C44800706F63516325726F62BF72817251D8B485
:10C458000DD07229D8A408D0000E606F000E616F4D
:10C46800000E626F000E636F628F06D0000E606F61
:10C47800000E616F000E626F000E636F6751800BD4
:10C48800716F70517119D8A4708D67516725716FDC
:10C4980066BF71817151D8B40DD07129D8A408D064
:10C4A800000E646F000E656F000E666F000E676FFA
:10C4B800668F06D0000E646F000E656F000E666F03
:10C4C800000E676F7251715DD8B022D070AD02D086
:10C4D800800E701B72C073F071C072F073C071F07F
:10C4E80060C073F064C060F073C064F061C073F042
:10C4F80065C061F073C065F062C073F066C062F039
:10C5080073C066F063C073F067C063F073C067F010
:10C51800000E736F7251686F696B681F691F684BF3
:10C52800692B71516A6F6B6B68516A2769516B236C
:10C538006BBF2CD06B5104E11A0E6A5DD8A026D0CF
:10C548006051611162116311D8B402D0010E01D09B
:10C55800000E736F000E606F000E616F000E626F49
:10C56800000E636F71C072F015D073A105D0D8901A
:10C5780073310109736F02D0D890733360B1738F30
:10C5880063356333623361336033722B7151725D8B
:10C59800D8A0EBD770BD28D07251D8A409D0000E0E
:10C5A800606F000E616F000E626F000E636F120005
:10C5B8006451602765516123665162236751632383
:10C5C80063A182D073A105D0D89073310109736F2C
:10C5D80002D0D890733360B1738F6335633362339D
:10C5E80061336033722B70D06451605D655161595D
:10C5F800665162596351800A686F6751800A6859A9
:10C60800D8B036D060C068F061C069F062C06AF026
:10C6180063C06BF0681F691F6A1F6B1F682B000ED1
:10C6280069236A236B23645168256C6F65516921FE
:10C638006D6F66516A216E6F67516B216F6FFF0EC8
:10C648006C25606FFF0E6D21616FFF0E6E21626FAA
:10C65800FF0E6F21636F800E701B736D7351D8A42A
:10C668000FD0010E6027000E61236223632308D0D8
:10C678006451605F6551615B6651625B6751635BE2
:10C688006051611162116311D8A41CD07351D8A4F0
:10C6980019D0000E606F000E616F000E626F000E01
:10C6A800636F1200D890603761376237633773BFA2
:10C6B800608173A102D0D88001D0D89073377251AD
:10C6C800D8A4720762AFEED7000E716F73AF0AD0AD
:10C6D80073C068F07F0E6817D8A402D060A102D09A
:10C6E800010E716F7151D8B420D0010E6027000E71
:10C6F80061236223632363A118D060C068F061C01E
:10C7080069F062C06AF063C06BF06B356B336A33F3
:10C718006933683368C060F069C061F06AC062F06C
:10C728006BC063F07229D8A4722B7229D8B403D0D5
:10C738007251D8A40DD0000E606F000E616F000E0C
:10C74800626F000E636F7251D8A402D0000E706F32
:10C7580072A102D0628F01D0629FD8907231636F4C
:10C7680070BF638F60C060F061C061F062C062F04A
:10C7780063C063F012000001E151D8A412009E5179
:10C78800DA190AE19F51DB1907E1A051DC1904E12C
:10C79800A151DD19D8B41200000EAA6F000EAB6FBC
:10C7A800000EAC6F000EAD6FDAC0A2F0DBC0A3F0D4
:10C7B800DCC0A4F0DDC0A5F0A21FA31FA41FA51F05
:10C7C800A22B000EA323A423A5239E51A225B26F5A
:10C7D8009F51A321B36FA051A421B46FA151A521EA
:10C7E800B56FB2510101795D0001B35101017A5968
:10C7F8000001B45101017B590001B55101017C5977
:10C80800D8B00FD079510001B22701017A51000147
:10C81800B32301017B510001B42301017C510001C4
:10C82800B5230001E529D8A424D001017E510001D7
:10C83800B22701017F510001B323000EB423000E7B
:10C84800B52301017E510001AA2701017F51000192
:10C85800AB23000EAC23000EAD2301018051000173
:10C86800AA27010181510001AB23000EAC23000E61
:10C87800AD23000EAE6F000EAF6F000EB06F000E4E
:10C88800B16F9EC0A2F09FC0A3F0A0C0A4F0A1C049
:10C89800A5F0A21FA31FA41FA51FA22B000EA32350
:10C8A800A423A523DA51A225B66FDB51A321B76FC4
:10C8B800DC51A421B86FDD51A521B96FB651010132
:10C8C800795D0001B75101017A590001B8510101A0
:10C8D8007B590001B95101017C59D8B00FD0795169
:10C8E8000001B62701017A510001B72301017B51EC
:10C8F8000001B82301017C510001B9230001E505BD
:10C90800D8A424D001017E510001B62701017F512E
:10C918000001B723000EB823000EB92301017E5190
:10C928000001AE2701017F510001AF23000EB023A3
:10C93800000EB123010180510001AE270101815190
:10C948000001AF23000EB023000EB123AE51B6256F
:10C95800A26FAF51B721A36FB051B821A46FB151E5
:10C96800B921A56FAA51B225A66FAB51B321A76F04
:10C97800AC51B421A86FAD51B521A96FA251A65DE4
:10C98800A351A759A451A859A551A959D8B032D033
:10C99800E505D8A410D0B2C097F0B3C098F0B4C0E1
:10C9A80099F0B5C09AF0000E9C6F000E9B6F010EB7
:10C9B8001AEC88F01200B2C097F0B3C098F0B4C077
:10C9C80099F0B5C09AF0000E00019C6F000E9B6FA5
:10C9D800010E1AEC88F07EC197F07FC198F0000133
:10C9E800996B9A6B000E9C6F000E9B6FFF0E1AECF2
:10C9F80088F012000001E529D8A410D0B6C097F03D
:10CA0800B7C098F0B8C099F0B9C09AF0000E9C6F02
:10CA1800000E9B6FFF0E1AEC88F01200B6C097F05C
:10CA2800B7C098F0B8C099F0B9C09AF0000E0001EC
:10CA38009C6F000E9B6FFF0E1AEC88F07EC197F07A
:10CA48007FC198F00001996B9A6B000E9C6F000EE5
:10CA58009B6F010E1AEC88F0120058D111C14AF1EF
:10CA680012C149F113C148F114C147F116C11BF0B5
:10CA780017C11AF01A500001716F1B50726F736B57
:10CA8800746B090ED8907137723773377437E82E84
:10CA9800F9D771C06AF072C06BF073C06CF074C0E3
:10CAA8006DF067EC7EF00009D8A441D1ADC160F00B
:10CAB800AEC161F021EEA7F001D80AD00500FA6EE8
:10CAC800DE50FD6EDE50FE6EDE50FF6EFA50120034
:10CAD8000009D8B416D0010E0D018C6F0101215147
:10CAE800F00B0709216F270E2B6F000E2C6F000E1D
:10CAF8000001606F020E5BEC7CF0000E256E255085
:10CB08001200010E0001D26F1A501B10D8B4FBD0CE
:10CB1800030E256E000E0101656F060E666F000E8E
:10CB28000D01886F020E896F000E8A6F000E8B6FE1
:10CB38000D01885189118A118B11D8B41DD00001BB
:10CB4800CE51CF11D8B406D0CEC0D9FFCFC0DAFFAE
:10CB5800DFBEEDD0000E606F65C161F066C162F0A6
:10CB6800400E636F020EE0EC7CF060C0CEF061C056
:10CB7800CFF0040E256E23D0ADC160F0AEC161F0D8
:10CB880021EEA7F001D80AD00500FA6EDE50FD6E3E
:10CB9800DE50FE6EDE50FF6EFA5012000009D8B467
:10CBA8000CD0010E0D018C6F01012151F00B02090F
:10CBB800216F270E2B6F000E2C6F020EA5D00001DF
:10CBC800CE51CF11D8B406D0CEC0D9FFCFC0DAFF2E
:10CBD800DFBEADD020EE01F0CE51D926CF51DA22FA
:10CBE800DF50716F71C072F0736B746B756B72513B
:10CBF8000101085F000173510101095B00017451D3
:10CC080001010A5B0001755101010B5B000120EE77
:10CC180001F0CE51D926CF51DA22DF50716F71C0A1
:10CC280072F0736B746B756B72510D01885F000144
:10CC380073510D01895B000174510D018A5B00017C
:10CC480075510D018B5B400E01016527000E6623AF
:10CC5800030E5AD00D018C51D8A440D0ADC160F05C
:10CC6800AEC161F047C162F048C163F049C164F0E8
:10CC78004AC165F0000E0001666F060E676F01017C
:10CC88004751481149114A11D8A402D0010E01D0C8
:10CC9800000E0001686F21EEAAF001D80AD0050045
:10CCA800FA6EDE50FD6EDE50FE6EDE50FF6EFA50FC
:10CCB8001200E806D8B412D0640E01016F6102D0E8
:10CCC8006F2B35D0010E0D018C6F01012151F00B36
:10CCD8000309216F000E2B6F000E2C6F010E01014E
:10CCE8004727000E482349234A231A06D8A01B06C3
:10CCF800010E0AD0020E0D018C6F000E0001606F4C
:10CD0800020E5BEC7CF0000E256E11D02550000A57
:10CD1800D8B4A4D6010AD8B4F7D6030AD8B49AD797
:10CD2800010AD8B405D7070AD8B449D7E3D725509C
:10CD3800120000017151800B7E6F71517125856F52
:10CD480070BF85818551D8B40DD08529D8A408D065
:10CD5800000E6E6F000E6F6F000E706F000E716F19
:10CD6800708F06D0000E6E6F000E6F6F000E706F22
:10CD7800000E716F7551800B7E1B75517525866F7E
:10CD880074BF86818651D8B40DD08629D8A408D01E
:10CD9800000E726F000E736F000E746F000E756FC9
:10CDA800748F06D0000E726F000E736F000E746FD2
:10CDB800000E756F7251731174117511D8A417D0C4
:10CDC800000E6E6F000E6F6F000E706F000E716FA9
:10CDD800800E70137F0E71137E5171136EC06EF04A
:10CDE8006FC06FF070C070F071C071F012008551A3
:10CDF800D8A411D0000E6E6F000E6F6F000E706F0A
:10CE0800000E716F6EC06EF06FC06FF070C070F082
:10CE180071C071F012008651766F776B761F771F9D
:10CE2800764B772B8551786F796B765178277751C8
:10CE380079237F0E78257F6F000E7921806F6EC071
:10CE48007AF06FC07BF070C07CF071C07DF0000E8E
:10CE58006E6F000E6F6F000E706F000E716F000E18
:10CE6800816F000E826F000E836F000E846F000EBC
:10CE7800866F28D08651D8B411D0D8907A377B37AE
:10CE88007C377D37D8906E376F377037713784BFEE
:10CE98006E81D890813782378337843772517A5DB3
:10CEA80073517B5974517C5975517D59D8A009D05B
:10CEB800848D72517A5F73517B5B74517C5B7551C1
:10CEC8007D5B862B190E8665D5D77A517B117C112F
:10CED8007D11D8B411D081810FD0D8906E376F37BB
:10CEE8007037713784BF6E81D89081378237833726
:10CEF80084377F07D8A0800770AFEFD7000E866F02
:10CF080084AF16D0FF0E8115766FFF0E8215776FEE
:10CF1800FF0E8315786F7F0E8415796F7651771120
:10CF280078117911D8A402D06EA102D0010E866FB3
:10CF38008651D8B41FD0010E6E27000E6F237023C0
:10CF4800712371A117D06EC076F06FC077F070C0F2
:10CF580078F071C079F0793579337833773376336F
:10CF680076C06EF077C06FF078C070F079C071F05D
:10CF78007F4B802B80BF10D0805103E17F29D8A040
:10CF88000BD0000E806F7F69000E6E6F000E6F6F02
:10CF9800000E706F000E716F80BF05D0805111E1D7
:10CFA8007F05D8B00ED0000E806F000E7F6F000E88
:10CFB8006E6F000E6F6F000E706F000E716F000EB7
:10CFC8007E6F7FC085F085A102D0708F01D0709FE1
:10CFD800D8908531716F7E5171136EC06EF06FC03D
:10CFE8006FF070C070F071C071F012000D01320561
:10CFF800D8A40FD030511F0B0009D8A40AD00D8E29
:10D00800030E3119D8A402D0010E01D0000E01017F
:10D01800786F0D013251D8A4120030511F0B020A4B
:10D02800D8A4120034510F0B0009D8B4120034519F
:10D038000F0B456E030E45601200200E2B18D8A466
:10D0480012000D8E34BF19D034510F0B456E455068
:10D05800020D310EF324D96E010EF420DA6EDECF04
:10D0680049F0DDCF4AF034510F0B456E4550010DA4
:10D07800550EF324D96E010E18D034510F0B456E9E
:10D088004550020D100EF324D96E000EF420DA6E0E
:10D09800DECF49F0DDCF4AF034510F0B456E4550D5
:10D0A800010D580EF324D96E010EF420DA6EDF500C
:10D0B800486E48B006D0FB0E4914496EFF0E4A145C
:10D0C80004D0040E4910496E4A504A6E34BF0AD043
:10D0D80034510F0B456E4550020D310EF324D96EB5
:10D0E800010E09D034510F0B456E4550020D100E3C
:10D0F800F324D96E000EF420DA6E49C0DEFF4AC070
:10D10800DDFF030E3119D8A42DD049C0D9FF4AC07C
:10D11800DAFFDFAE1AD034BF0AD034510F0B456E98
:10D128004550010D550EF324D96E010E0AD00D019C
:10D1380034510F0B456E4550010D580EF324D96E2E
:10D14800010EF420DA6E0101DF8249C0D9FF4AC01E
:10D15800DAFF000EDB8449C0D9FF4AC0DAFF000EAF
:10D16800DB8E1200040E4918496E4A504A6E49C0B7
:10D17800D9FF4AC0DAFFDFAE1BD049C0D9FF4AC089
:10D18800DAFF7F0EDF1649C0D9FF4AC0DAFF000E6A
:10D19800DB8C000E3E6E050E3D6E49C03FF04AC066
:10D1A80040F0000E426E020E416E12EC8BF006D07B
:10D1B80049C0D9FF4AC0DAFF000EDB8C040E4918BB
:10D1C800496E4A504A6E48B206D049C0D9FF4AC093
:10D1D800DAFFDFAE30D00D0134BF0AD034510F0B67
:10D1E800456E4550010D550EF324D96E010E0AD037
:10D1F8000D0134510F0B456E4550010D580EF324A7
:10D20800D96E010EF420DA6E0101DF9249C0D9FF10
:10D218004AC0DAFF3B0EDF16000E3E6E050E3D6E6D
:10D2280049C03FF04AC040F0000E426E020E416E07
:10D2380012EC8BF006D049C0D9FF4AC0DAFF3B0E8A
:10D24800DF160D0134510F0B456E4550010D260EAA
:10D25800F324466E0F0EF420476E46C0D9FF47C030
:10D26800DAFFFE0EDF16120098D0EB0E12003C0E0D
:10D278001200900E1200130EF66EA20EF76E000E3C
:10D28800F86E0800F5501200140EF66EA20EF76E36
:10D29800000EF86E0800F5501200150EF66EA20E7C
:10D2A800F76E000EF86E0800F5501200160EF66EB6
:10D2B800A20EF76E000EF86E0800F5501200170E59
:10D2C800F66EA20EF76E000EF86E0800F55012000A
:10D2D800180EF66EA20EF76E000EF86E0800F550E6
:10D2E8001200190EF66EA20EF76E000EF86E080008
:10D2F800F55012001A0EF66EA20EF76E000EF86EBA
:10D308000800F5501200000E1200020E1200010E65
:10D318001200010E1200000E1200010E1200400E43
:10D328001200000E1200FF0E12001F0E1200F80E5F
:10D338001200200E1200000E12003F0E1200000E06
:10D348001200100E1200000E1200000E1200000E45
:10D358001200000E1200000E1200010E1200000E44
:10D368001200220E1200000E1200000E1200460ECD
:10D378001200410E1200540E1200310E1200360E29
:10D388001200200E1200200E1200200E1200550E60
:10D398001200AA0E1200000E120060C062F061C0F6
:10D3A80063F000016351000AD8B404D0010AD8B46C
:10D3B8008DD0F1D76251000AD8B457D7010AD8B432
:10D3C80056D7030AD8B455D7010AD8B454D7070A90
:10D3D800D8B45AD7010AD8B460D7030AD8B466D7E4
:10D3E800010AD8B46CD70F0AD8B472D7010AD8B4D6
:10D3F80078D7030AD8B47ED7010AD8B484D7070AE5
:10D40800D8B483D7010AD8B482D7030AD8B481D74D
:10D41800010AD8B480D71F0AD8B47FD7010AD8B474
:10D428007ED7030AD8B47DD7010AD8B47CD7070AB7
:10D43800D8B47BD7010AD8B47AD7030AD8B479D735
:10D44800010AD8B478D70F0AD8B477D7010AD8B464
:10D4580076D7030AD8B475D7010AD8B474D7070A9F
:10D46800D8B473D7010AD8B472D7030AD8B471D71D
:10D47800010AD8B470D7370AD8B46FD7010AD8B41C
:10D488006ED7050AD8B46DD7010AD8B46CD7030A89
:10D49800D8B46BD7010AD8B468D7190AD8B467D7F3
:10D4A800010AD8B466D70F0AD8B465D7010AD8B428
:10D4B80064D7030AD8B463D7010AD8B462D7070A75
:10D4C800D8B461D7010AD8B460D765D76251FE0ACB
:10D4D800D8B45DD7010AD8B45CD75DD7200E2B1815
:10D4E800D8A41200A09816D10001CE51CF11D8B4FB
:10D4F80006D0CEC0D9FFCFC0DAFFDFBE1AD1000EEA
:10D50800B16F1E0EB16501D014D0B151010D400E9E
:10D51800F324D96E0D0EF420DA6EB151010D000E10
:10D52800F324E16E010EF420E26EDFCFE7FFB12BAA
:10D53800E8D720EE01F0CE51D926CF51DA221F0EBE
:10D54800DE18D8A473D0550E010100196FE1530EEF
:10D5580001196CE1420E021969E1430E0319D8A4BE
:10D5680065D0010E6C6F0D51D8A453D0110E0E6109
:10D5780050D00E51D8B44DD00CC1ACF03F0E0001C4
:10D58800AC17D8A446D0550E0D01806F530E816F8D
:10D59800420E826F530E836F04C184FD05C185FD61
:10D5A80006C186FD07C187FD000E886F000E896FD2
:10D5B800000E8A6F000E8B6F000E8C6F0001D16910
:10D5C800000E0101706F000E256E000E6F6F030EC6
:10D5D8000F19D8B408D02191219321952197000ED5
:10D5E8002B6F000E2C6F0CAF02D0010E01D0020E73
:10D5F8000001D26F0101085109110A110B11D8B4A9
:10D6080002D0000E01D0010E0001D06F0FC1D1F081
:10D6180090D0010E0001606F020E5BEC7CF0000EF2
:10D628000001606F020E5BEC7CF083D0010E0001FC
:10D63800606F020E5BEC7CF0000E0001606F020E62
:10D648005BEC7CF0000E01016C6F73D0EDEC77F0B1
:10D65800FF0AD8A46ED011D0EDEC77F0FF0AD8A459
:10D6680068D00D018C51D8A408D0885189118A112D
:10D678008B11D8B402D0020E8C6F030E3CD014C0AC
:10D68800ADF015C0AEF0AD51AE11D8B40AD014C08B
:10D69800AFF015C0B0F0AFC0D9FFB0C0DAFFDFBE41
:10D6A80048D0010E606F800E616F0D0E626F0D0E17
:10D6B800636F020EE0EC7CF060C0CCF061C0CDF08E
:10D6C8000001CE51CF11D8B406D0CEC0D9FFCFC0FB
:10D6D800DAFFDFBE0FD0000E606F400E616F0D0ED7
:10D6E800626F400E636F020EE0EC7CF060C0CEF01B
:10D6F80061C0CFF0000E0001D26F1BD0000ED26FB8
:10D70800020E0D018C6F000E0001606F020E5BECC3
:10D718007CF00FD00001D251000AD8B4E5D6010A36
:10D72800D8B494D7030AD8B497D7010AD8B4A7D7DE
:10D73800E5D7A0881200A00E0001706F000E716F6F
:10D7480095C072F096C073F0000E756F0A0E746F74
:10D75800AFEC91F0A00E0001606F000E616F35EC28
:10D7680092F000016051AA6F96AF54D0AA510008F8
:10D778009725020FAB6FAB51800A7F0FD8A090D0CE
:10D7880097C0ACF0AC29D8B442D0AC51ABBF04D0F0
:10D79800FF0AAB25D8B02AD0ABC09AF09B6B9ABFD2
:10D7A8009B079A1F9B1F9A4B9B2BAC519C6F9D6BA1
:10D7B8009A519C279B519D23010E9C27000E9D2367
:10D7C800A00E9C25D96E000E9D21DA6EAC519E6F7D
:10D7D8009F6B010E9E27000E9F23A00E9E25E16ED3
:10D7E800000E9F21E26EDFCFE7FF0FD0AC519A6F9A
:10D7F8009B6B010E9A27000E9B23A00E9A25D96ECB
:10D80800000E9B21DA6E300EDF6EAC07BBD7975146
:10D81800020F45D0AA51000897259A6F9A29AB6F35
:10D82800AB51800A7F0FD8A03BD097C0ACF0AC2991
:10D83800D8B434D0AC51ABBF04D0FF0AAB25D8B0B4
:10D8480021D0ABC09AF09B6B9ABF9B079A1F9B1F76
:10D858009A4B9B2BAC519C6F9D6B9A519C279B516B
:10D868009D23A00E9C25D96E000E9D21DA6EAC5129
:10D87800010DA00EF324E16E000EF420E26EDFCF5E
:10D88800E7FF0AD0AC51010DA00EF324D96E000EAB
:10D89800F420DA6E300EDF6EAC07C9D79729AA6F6D
:10D8A80097510008AA259A6F9A05976F000EAC6FDA
:10D8B80023D0AC51010DA00EF324D96E000EF42034
:10D8C800DA6EAC51010DF3509825E16EF4509921B0
:10D8D800E26EDFCFE7FF9751AC19D8A40CD0AC2B80
:10D8E800AC51010DF3509825D96EF4509921DA6E98
:10D8F8002E0EDF6E1ED0AC2BAA51AC5DD8B019D05D
:10D90800D8D7AC51010DA00EF324D96E000EF42027
:10D91800DA6EAC519A6F9B6B010E9A27000E9B230F
:10D928009A519825E16E9B519921E26EDFCFE7FF6E
:10D93800AC2BAA51AC5DD8A0E4D7AC519A6F9B6BC5
:10D94800010E9A27000E9B239A519825D96E9B5158
:10D958009921DA6E000EDF6E1200000E0001856F4D
:10D96800000E846F020E855DD8B011D0000E84259C
:10D97800D96E080E8521DA6E84C060F085C061F02A
:10D98800EAEC82F0DF6E0001844B852BEBD7000EAA
:10D99800806F000E7F6F000E816F080E826FA7ECFC
:10D9A80090F0000E0001856F000E846F020E855DF9
:10D9B800D8B011D0000E8425D96E080E8521DA6EF4
:10D9C80084C060F085C061F038EC69F0DF6E00015A
:10D9D800844B852BEBD7000E806F010E7F6F000EF6
:10D9E800816F080E826FA7EC90F0000E0001856F22
:10D9F800000E846F020E855DD8B011D0000E84250C
:10DA0800D96E080E8521DA6E84C060F085C061F099
:10DA18002CEC8FF0DF6E0001844B852BEBD7000ECA
:10DA2800806F020E7F6F000E816F080E826FA7EC69
:10DA380090F0000E0001856F000E846F020E855D68
:10DA4800D8B00BD0000E8425D96E080E8521DA6E69
:10DA5800000EDF6E844B852BF1D7000E856F030E09
:10DA6800846F855112E1220E845DD8B00ED084C037
:10DA78007FF085C080F0000E816F080E826FA7ECE2
:10DA880090F00001844B852BECD7000E856F000EBB
:10DA9800846F020E855DD8B011D0000E8425D96E32
:10DAA800080E8521DA6E84C060F085C061F08EECC6
:10DAB80070F0DF6E0001844B852BEBD7000E806F72
:10DAC800220E7F6F000E816F080E826FA7EC90F018
:10DAD800000E0001856F000E846F020E855DD8B0C0
:10DAE8000BD0000E8425D96E080E8521DA6E000E43
:10DAF800DF6E844B852BF1D7000E856F230E846F64
:10DB0800855112E1260E845DD8B00ED084C07FF016
:10DB180085C080F0000E816F080E826FA7EC90F030
:10DB28000001844B852BECD7000E856F000E846FA7
:10DB3800020E855DD8B011D0000E8425D96E080E6E
:10DB48008521DA6E84C060F085C061F046EC94F0FF
:10DB5800DF6E0001844B852BEBD7000E806F260EFD
:10DB68007F6F000E816F080E826FA7EC90F0120095
:10DB780000016A6F6AC069F10001605161116211A8
:10DB88006311D8A40AD0000E01013B6FFF0E3C6F51
:10DB9800FF0E3D6FFF0E3E6F08D060C03BF161C0C5
:10DBA8003CF162C03DF163C03EF100016451651172
:10DBB800D8A405D084C15BF185C15CF104D064C0F0
:10DBC8005BF165C05CF1000ECB6F000ECA6F000EF2
:10DBD800166E000E176E000E186E000E196E630E8C
:10DBE800F66E940EF76E000EF86E0900F5CF66F02B
:10DBF8000900F5CF67F066C037F167C038F1010159
:10DC0800396B3A6BBA90BA92BA94BA968A90000174
:10DC18006A29D8A405D001017D51D8B405D006D011
:10DC280001017D51D8B402D08A9401D08A848A82B5
:10DC3800010E1626000E172218221922695100011A
:10DC4800666F000E66BFFF0E676F686F696F66517B
:10DC5800DA276751DB236851DC236951DD23010191
:10DC680079510001DA1918E101017A510001DB1933
:10DC780013E101017B510001DC190EE101017C5126
:10DC88000001DD19D8A408D0000EDA6F000EDB6F92
:10DC9800000EDC6F000EDD6FDA291BE1DB2919E1CC
:10DCA800DC2917E1DD29D8A414D0FF0E010179255C
:10DCB8000001DA6FFF0E01017A210001DB6FFF0E10
:10DCC80001017B210001DC6FFF0E01017C210001B5
:10DCD800DD6F550EA76EAA0EA76E0E01BF91000E3E
:10DCE800C46F550EA76EAA0EA76EBF81000E010164
:10DCF8006A6FFD0E0001CA25F66E9B0ECB21F76EEA
:10DD0800F86A000EF8220800F5CF66F0CA506619C6
:10DD1800FC0B6619CA6E160ECA25F66E9A0ECB2132
:10DD2800F76EF86A000EF8220800F5CFCBFF2F0E29
:10DD3800CA25F66E980ECB21F76EF86A000EF82207
:10DD48000800F5CF66F0664766476647CA50661909
:10DD5800870B6619CA6ED890CB30BB6E9E929D8297
:10DD6800000ECC6ECA84010EE16F1200DCD011C126
:10DD78004AF112C149F113C148F114C147F116C162
:10DD88001BF017C11AF01A500001956F1B50966FBF
:10DD9800976B986B090ED8909537963797379837C1
:10DDA800E82EF9D795C06AF096C06BF097C06CF072
:10DDB80098C06DF067EC7EF00009D8A4C6D0010EBB
:10DDC8000101706F1A501B10D8A402D0000E4AD05F
:10DDD8001A06D8A01B06020E706F0001CC51CD1197
:10DDE800D8B406D0CCC0D9FFCDC0DAFFDFBEADD0E5
:10DDF800ADC18BF0AEC18CF047C18DF048C18EF03B
:10DE080049C18FF04AC190F0000E916F060E926FD3
:10DE180021EEA4F001D80AD00500FA6EDE50FD6E9E
:10DE2800DE50FE6EDE50FF6EFA501200E806D8B4DF
:10DE38001BD0640E01016F6102D06F2B86D0020ED9
:10DE48000D018C6F01012151F00B0309216F000EA8
:10DE58002B6F000E2C6F010E0001606F020E5BEC41
:10DE68007CF05ED0706F71D0010E01014727000E63
:10DE7800482349234A23000E0D01886F020E896F3B
:10DE8800000E8A6F000E8B6F000E0101656F060E83
:10DE9800666F030E706F0D01885189118A118B11FD
:10DEA800D8A402D0010E3DD0040E0101706F00010C
:10DEB800CC51CD11D8B406D0CCC0D9FFCDC0DAFF33
:10DEC800DFBE43D0010E606F65C161F066C162F0CC
:10DED800400E636F020EE0EC7CF060C0CCF061C0D5
:10DEE800CDF0030E0101706F400E085F000E095B54
:10DEF8000A5B0B5B400E0D01885F000E895B8A5B35
:10DF08008B5B400E01016527000E66231ED0020EB2
:10DF18000D018C6F010E0001606F020E5BEC7CF04E
:10DF2800000E01019FD701017051000AD8B41FD714
:10DF3800010AD8B447D7030AD8B44FD7010AD8B4CE
:10DF4800AAD7070AD8B4B3D7E2D701017051120093
:10DF58006BC0D9FF6CC0DAFF100EDF6E000120EE37
:10DF680001F06B51D9266C51DA22A10EDF6E20EE3A
:10DF780002F06B51D9266C51DA22620EDF6E20EE68
:10DF880003F06B51D9266C51DA22000EDF6E20EEB9
:10DF980004F06B51D9266C51DA22030EDF6E20EEA5
:10DFA80005F06B51D9266C51DA22000EDF6E20EE97
:10DFB80006F06B51D9266C51DA22D3C0DFFF20EE70
:10DFC80007F06B51D9266C51DA22D4C0DFFF20EE5E
:10DFD80008F06B51D9266C51DA22D5C0DFFF20EE4C
:10DFE80009F06B51D9266C51DA22D6C0DFFF20EE3A
:10DFF8000AF06B51D9266C51DA22D7C0DFFF20EE28
:10E008000BF06B51D9266C51DA22D8C0DFFF20EE15
:10E018000CF06B51D9266C51DA22D9C0DFFF0D0EF6
:10E028006B25606F000E6C21616FDA0E626F000E57
:10E03800636F000E656F040E646FE9EC8DF0110ECE
:10E0480000016B25606F000E6C21616FDE0E626F40
:10E05800000E636F000E656F040E646FE9EC8DF0BF
:10E06800000120EE15F06B51D9266C51DA22E0C080
:10E07800DFFF20EE16F06B51D9266C51DA22F9C079
:10E08800DFFF20EE17F06B51D9266C51DA22FAC067
:10E09800DFFF20EE18F06B51D9266C51DA22FB51C4
:10E0A800DF6E20EE19F06B51D9266C51DA22FCC0D4
:10E0B800DFFF20EE1AF06B51D9266C51DA22FD51A0
:10E0C800DF6E20EE1BF06B51D9266C51DA22FEC0B0
:10E0D800DFFF20EE1CF06B51D9266C51DA22FFC00D
:10E0E800DFFF20EE1DF06B51D9266C51DA22E1C01A
:10E0F800DFFF2A0E6B25606F000E6C21616F790EB1
:10E10800626F010E636F000E656F160E646FE9ECA7
:10E118008DF01200000161511DE1200E605DD8B044
:10E1280019D0615110E10B0E605DD8B00CD0FE0E15
:10E138006025F66EA10E6121F76EF86A000EF822CE
:10E148000800F55012000B0E60196111D8A402D016
:10E15800080E1200615103E1400E605DD8B0A4D0F2
:10E16800200E605F000E615B615110E1080E605D7A
:10E17800D8B00CD00A0E6025F66EA20E6121F76E9B
:10E18800F86A000EF8220800F5501200615146E1C5
:10E198000B0E605DD8B042D0F80E626FFF0E636F51
:10E1A80060C064F061C065F0625164276351652303
:10E1B800320E6425F66EA20E6521F76EF86A000E1F
:10E1C800F8220800F5501200200E1200060E120068
:10E1D800280E1200780E1200DE0E1200380E120001
:10E1E8005F0E12004B0E1200000E1200000E1200FD
:10E1F800040E1200770E1200DE0E1200380E120006
:10E20800020E1200000E12000C0E1200000E120078
:10E21800000E1200000E1200000E120060C062F024
:10E2280061C063F06351000AD8A4F6D762510B0AA3
:10E23800D8B4CAD7060AD8B4C9D7030AD8B4C8D735
:10E24800010AD8B4C7D71F0AD8B4C6D7010AD8B4A8
:10E25800C5D7030AD8B4C4D7010AD8B4C3D7070AA4
:10E26800D8B4C2D7010AD8B4C1D7030AD8B4C0D722
:10E27800010AD8B4BFD70F0AD8B4BED7010AD8B498
:10E28800BDD7030AD8B4BCD7010AD8B4BBD7070A8C
:10E29800D8B4BAD7010AD8B4B9D7030AD8B4B8D70A
:10E2A800010AD8B4B7D7B8D7000E120060C0D9FF9A
:10E2B80061C0DAFF130EDF6E000120EE01F060513D
:10E2C800D9266151DA22A10EDF6E20EE02F06051EC
:10E2D800D9266151DA22620EDF6E20EE03F060511A
:10E2E800D9266151DA22E0C0DFFF84D020EE04F0A5
:10E2F8006051D9266151DA22E3C0DFFF120020EE17
:10E3080004F06051D9266151DA22E8C0DFFF20EE1F
:10E3180005F06051D9266151DA22E751DF6E20EE0F
:10E3280006F06051D9266151DA22E6C0DFFF20EEFF
:10E3380007F06051D9266151DA22EC51DF6E20EEE8
:10E3480008F06051D9266151DA22EBC0DFFF20EED8
:10E3580009F06051D9266151DA22EA51DF6E20EEC8
:10E368000AF06051D9266151DA22E9C0DFFF1200B4
:10E3780020EE04F06051D9266151DA22EE51DF6EA9
:10E3880020EE05F06051D9266151DA22EDC0DFFF99
:10E3980020EE06F06051D9266151DA22F5C0DFFF80
:10E3A80020EE07F06051D9266151DA22F451DF6E70
:10E3B80020EE08F06051D9266151DA22F3C0DFFF60
:10E3C800120020EE04F06051D9266151DA22F8C01B
:10E3D800DFFF20EE05F06051D9266151DA22F751AE
:10E3E800DF6E20EE06F06051D9266151DA22F6C0C0
:10E3F800DFFF1200E0510F0B626F636B6351000A7D
:10E40800D8A412006251000AD8B41200100AD8B475
:10E418006DD7300AD8B46AD7100AD8B470D7700A42
:10E42800D8B46DD7100AD8B4A3D7300AD8B4A0D7B7
:10E43800100AD8B41200F00AD8A41200C2D70001FA
:10E44800BA6F7FD0010E0001E06F1200110EE06F6D
:10E458001200310EE06F1200510EE06F1200820EB2
:10E46800E06F1200710EE06F1200000EDA6F000EFE
:10E47800DB6F000EDC6F000EDD6F000EEA6F000E22
:10E48800E96F7EC197F07FC198F0996B9A6B000E87
:10E498009C6F000E9B6F010E1AEC88F07EC197F0FE
:10E4A8007FC198F00001996B9A6B000E9C6F000E6B
:10E4B8009B6FFF0E1AEC88F00001E5691200000E50
:10E4C800DA6F000EDB6F000EDC6F000EDD6F000EE2
:10E4D800EA6F000EE96F7EC197F07FC198F0996BE3
:10E4E8009A6B000E9C6F000E9B6FFF0E1AEC88F063
:10E4F8007EC197F07FC198F00001996B9A6B000E6E
:10E508009C6F000E9B6F010E1AEC88F0010E000143
:10E51800E56F1200000E9E6F000E9F6F000EA06F39
:10E52800000EA16FBFEC63F00001D8071200D82BD2
:10E538001200D92B1200D6071200D62B1200D72BA7
:10E5480012000001BA51200AD8B47CD7010AD8B405
:10E558007DD7030AD8B47DD7010AD8B47DD7070A76
:10E56800D8B47DD7010AD8B47DD7030AD8B47DD7EB
:10E57800010AD8B4A4D70F0AD8B4CCD7180AD8B48B
:10E58800D3D7010AD8B4D3D7030AD8B4D2D7010A4B
:10E59800D8B4D1D7070AD8B4D0D7010AD8A4120062
:10E5A800CED7DAC060F0DBC061F0DCC062F0DDC05D
:10E5B80063F0000E6AEC75F060C0C0F061C0C1F095
:10E5C80062C0C2F063C0C3F0C0C06EF0C1C06FF0DB
:10E5D800C2C070F0C3C071F020EEE6F0DECF60F08C
:10E5E800DDCF61F00001000E61BFFF0E626F636F47
:10E5F800010E6AEC75F060C072F061C073F062C021
:10E6080074F063C075F078EC60F06EC0C0F06FC055
:10E61800C1F070C0C2F071C0C3F0C0C06EF0C1C01C
:10E628006FF0C2C070F0C3C071F079C160F07AC1F8
:10E6380061F07BC162F07CC163F0000E6AEC75F09A
:10E6480060C072F061C073F062C074F063C075F0AE
:10E658009DEC66F06EC0C0F06FC0C1F070C0C2F033
:10E6680071C0C3F0C0C060F0C1C061F0C2C062F048
:10E67800C3C063F0000E0001646F000E656F000EEA
:10E68800666F3F0E676F21EC62F060C0C0F061C03A
:10E69800C1F062C0C2F063C0C3F0C0C060F0C1C0C6
:10E6A80061F0C2C062F0C3C063F032EC81F060C0B8
:10E6B800BEF061C0BFF0BEC087F0BFC088F0DBEC21
:10E6C8007FF087C0BAF088C0BBF089C0BCF08AC0B0
:10E6D800BDF0BEC0E9F0BFC0EAF0BAC09EF0BBC052
:10E6E8009FF0BCC0A0F0BDC0A1F0BFEC63F0120069
:10E6F800000120EE01F09E51D9269F51DA22DF5009
:10E70800A46FA451A66FA76BA86BA96BA8C0A9F0AA
:10E71800A7C0A8F0A6C0A7F0A66B20EE02F09E51F5
:10E72800D9269F51DA22DF50A46FA451A613A8C09E
:10E73800A9F0A7C0A8F0A6C0A7F0A66B20EE03F02A
:10E748009E51D9269F51DA22DF50A46FA451A613F7
:10E75800A8C0A9F0A7C0A8F0A6C0A7F0A66B20EE95
:10E7680004F09E51D9269F51DA22DF50A46FA4519C
:10E77800A613A9BF17D0A951A811A71103E1A6058F
:10E78800D8A010D0A6C097F0A7C098F0A8C099F05C
:10E79800A9C09AF0000E9C6F000E9B6F010E1AEC38
:10E7A80088F017D0A91FA81FA71FA66D000EA723C2
:10E7B800A823A923A6C097F0A7C098F0A8C099F0ED
:10E7C800A9C09AF0000E9C6F000E9B6FFF0E1AEC0A
:10E7D80088F00001A56FA2C0D9FFA3C0DAFFDF50FF
:10E7E800D8B42BD0A2C0D9FFA3C0DAFF3F0EDF6098
:10E7F80024D0A2C0D9FFA3C0DAFFDFCFA4F0010E56
:10E80800DF26A451010DF350A025D96EF450A121A3
:10E81800DA6E900EDF6EA2C0D9FFA3C0DAFFDFCF99
:10E82800A4F0010EDF26A451010DF350A025D96EE6
:10E83800F450A121DA6EA5C0DFFF050E1200A098E2
:10E84800000E636E000E626E000E0F01266F270E1B
:10E858000001606F0F0E616F000E636F000E626F34
:10E86800000E656F020E646FBCEC93F0160E0F017C
:10E87800396F9F0E376F7B0E366F000E0001686F81
:10E888000B0E686501D00ED06851040D000EF324FC
:10E89800D96E0D0EF420DA6EDE6ADE6ADE6ADD6A93
:10E8A800682BEED7658C000E0F01386F6598659C54
:10E8B8006296000E0D6E000E046E000E066E000EBF
:10E8C800056E62B6F5D7010E0101756F010E746F02
:10E8D800000E736F000E726F000E776F000E00014E
:10E8E800686F020E686501D02ED06851020D100EB7
:10E8F800F324D96E000EF420DA6E000EDE6E000EE0
:10E90800DD6E6851020D310EF324D96E010EF4202C
:10E91800DA6E000EDE6E000EDD6E6851010D580EC7
:10E92800F324D96E010EF420DA6E000EDF6E685102
:10E93800010D550EF324D96E010EF420DA6E000E87
:10E94800DF6E682BCED7080E106E0D0E116E160EE8
:10E958000F01266F0D0E0D01036F300E026F080EAA
:10E96800016F040E006F008F000E2D6E000E010166
:10E978004B6F000E4C6F000E4D6F000E4E6F000E69
:10E98800716F000E2B6E120062EC7FF0000ED2EC5D
:10E998008EF023EC74F0A3EC93F029EC95F00001D1
:10E9A800D551D8A4FAD70400C6EC87F040EC57F04C
:10E9B8000EEC8CF076D074EC95F084D0DAC060F070
:10E9C800DBC061F0DCC062F0DDC063F0000E6AEC11
:10E9D80075F060C0CFF161C0D0F162C0D1F163C001
:10E9E800D2F1CFC16EF0D0C16FF0D1C170F0D2C1F9
:10E9F80071F0000E0001726FA00E736F0C0E746F31
:10EA0800470E756F78EC60F06EC0CFF16FC0D0F133
:10EA180070C0D1F171C0D2F1CFC16EF0D0C16FF02A
:10EA2800D1C170F0D2C171F079C160F07AC161F0E2
:10EA38007BC162F07CC163F0000E6AEC75F060C0C7
:10EA480072F061C073F062C074F063C075F09DEC41
:10EA580066F06EC0CFF16FC0D0F170C0D1F171C057
:10EA6800D2F1CFC160F0D0C161F0D1C162F0D2C1A2
:10EA780063F032EC81F060C0DEF061C0DFF0A00E20
:10EA88000001DE1908E18C0EDF19D8A404D0000EAD
:10EA9800DF6F000EDE6F1CEC51F014D0CAEC92F060
:10EAA80011D00001D451000AD8B485D7010AD8B4CE
:10EAB80009D0040AD8B482D7030AD8B4ECD7010A1B
:10EAC800D8B4ECD7010E0001D56F67D70001686F85
