:020000040000FA
:0490000047EF48F0FE
:109008005F82FACF44F0FBCF45F0E9CF46F0EACFD4
:1090180047F0E1CF48F0E2CF49F0D9CF4AF0DACFB4
:109028004BF0F3CF4CF0F4CF4DF0F6CF4EF0F7CF36
:109038004FF0F8CF50F0F5CF51F05DEC7EF09EB2D6
:1090480008EC5CF0F2B468ECA8F051C0F5FF50C031
:10905800F8FF4FC0F7FF4EC0F6FF4DC0F4FF4CC0FD
:10906800F3FF4BC0DAFF4AC0D9FF49C0E2FF48C04E
:10907800E1FF47C0EAFF46C0E9FF45C0FBFF44C027
:10908800FAFF5F921100BBEF9AF00008000C001085
:10909800001300160019001C001E002100230026E2
:1090A8000028002A002C002E003000320034003640
:1090B8000038003A003C003D003F004100430045B5
:1090C800004600480049004B004D004E005000513A
:1090D80000530054005600570059005A005C005DC8
:1090E800005F00600062006300640066006700695A
:1090F800006A006C006D006E0070007100720073F1
:109108000074007600780079007A007B007D007E8C
:10911800007F008200850087008A008C008F009104
:10912800009200940098009A009C009E00A100A361
:1091380000A500A700AA00AC00AF00B200B400B7B9
:1091480000B800BA00BC00BE00C000C300C400C61E
:1091580000C800CA00CC00CE00D000D200D400D68F
:1091680000D800D900DB00DD00DF00E100E200E507
:1091780000E700E800EA00EC00EE00EF00F200F380
:1091880000F500F700F800FB00FD000001030104F2
:109198000107010A010C010F01120114011701193D
:1091A800011C011E0121012301250129012B012C8C
:1091B800012E0132013401360138013B013D013FE6
:1091C800014301460148014A014C014F0151015434
:1091D80001560159015B015E016001630166016985
:1091E800016B016E017101740177017A017D0180C3
:1091F80001830187018A018D019101940198019BE6
:10920800019F01A301A601AA01AE01B201B601BAEC
:1092180001BE01C301C701CC01D001D501D901DECE
:1092280001E301E801ED01F301F801FE0103020980
:10923800020F0215021B02210227022E0235023CF0
:109248000243024A0251025902610269027102791B
:109258000282028B0294029E02A702B102BC02C6DD
:1092680002D102DC02DC02DF02E202E502E802EBE4
:1092780002EE02F102F402F702FA02FD0200030410
:109288000307030A030D031103140317031A031E2C
:10929800032103250328032C032F03330336033A42
:1092A800033E034103450349034D03500354035848
:1092B800035C036003640368036C0370037403793D
:1092C800037D03810385038A038E03930397039C1D
:1092D80003A003A503AA03AE03B303B803BD03C2E7
:1092E80003C603CC03D103D603DB03E003E503EB9A
:1092F80003F003F603FB03010406040C041204172D
:10930800041D04230429042F0436043C04420448A1
:10931800044F0455045C0463046A04700477047EF3
:109328000485048D0494049B04A304AA04B204BA1B
:1093380004C204C904D204DA04E204EA04F304FC13
:109348000404050D0516051F05280532053B0545CE
:10935800054F05590563056D05770582058C059749
:1093680005A205AD05B905C405D005DC05E805F479
:109378000501060E061A0628063506430650065E3F
:10938800066D067B068A069906A906B806C806D899
:1093980006E906FA060B071C072E0740075307665F
:1093A8000779078D07A107B607CB07E007F6070C73
:1093B8000823083B0853086B0884089E08B808D39C
:1093C80008EF080B092809450964098309A309C49A
:1093D80009E609080A2C0A510A770A9D0AC50AEF04
:1093E8000A190B450B720B720B7D0B890B940BA0A2
:1093F8000BAC0BB80BC40BD00BDC0BE90BF50B0259
:109408000C0E0C1B0C280C350C420C4F0C5D0C6A16
:109418000C770C850C930CA10CAF0CBD0CCB0CD9A4
:109428000CE80CF70C050D140D230D320D420D51EF
:109438000D610D700D800D900DA00DB10DC10DD2F7
:109448000DE30DF30D050E160E270E390E4B0E5CAF
:109458000E6F0E810E930EA60E010002000300048B
:1094680000050006000700080009000A000B000CB0
:10947800000D000E000F0010001100120013001460
:1094880000150016001700180019001A001B001C10
:10949800001D001E001F00200021002200230024C0
:1094A80000250026002700280029002A002B002C70
:1094B800002D002E002F0030003100320033003420
:1094C80000350036003700380039003A003B003CD0
:1094D800003D003E003F004000410042004300457F
:1094E80000470049004B004D004F00510053005504
:1094F80000570059005B005D005F00610063006574
:1095080000670069006B006E0070007300750077DB
:109518000079007B007D007F008100830085008743
:109528000089008B008D008F0091009300950097B3
:109538000099009B009D009F00A100A300A500A723
:1095480000A900AB00AD00AF00B100B300B500B793
:1095580000B900BB00BD00C000C300C600C900CCF4
:1095680000CF00D200D500D800DB00DE00E100E427
:1095780000E700EA00ED00F000F300F600F900FC57
:1095880000FF000201050108010B010E0111011481
:109598000117011A011D012001230126012A012DAD
:1095A800013001330137013A013E014201450149C9
:1095B800014D015101550159015D01610166016AC1
:1095C800016E01730178017D01820187018C01918F
:1095D8000196019C01A101A701AD01B301B901BF29
:1095E80001C601CC01D301DA01E101E801F001F77C
:1095F80001FF0107020F02180221022A0233023D6D
:1096080002470251025C02670272027E028A0297D6
:1096180002A402B202C002CF02DF02EF02FF02116F
:10962800032303360349035E0373038903A103B9C4
:1096380003D303DD03E403EA03F103F803FF03069E
:10964800040D0415041C0424042B0433043B0442B5
:10965800044A0452045A0463046B0474047C0485A9
:10966800048E0496049F04A904B204BB04C504CE66
:1096780004D804E204EC04F60400050B05150520E3
:10968800052B05360541054C05580564056F057B16
:109698000587059405A005AD05BA05C705D405E2FB
:1096A80005EF05FD050B061906280637064606557B
:1096B800066406740684069406A406B506C606D78C
:1096C80006E906FA060C071F073107440758076B17
:1096D800077F079307A807BD07D207E807FE071506
:1096E800082C0843085B0873088B08A508BE08D82F
:1096F80008F2080D092909450961097E099C09BA7A
:1097080009D909F909190A390A5B0A7D0A9F0AC3A6
:109718000AE70A0C0B310B580B7F0BA70BD00BFA7F
:109728000B250C510C7E0CAB0CDA0C0A0D3B0D6DA5
:109738000DA00DD40D0A0E410E790EB30EEE0E2AB1
:109748000F680FA80FE90F2C107010B610FE104804
:10975800119411E21132128512D91230138913E5CE
:10976800134414A51409157015DA154716B8162BE5
:1097780017A3171E189D182119A819341AC41A5AA4
:109788001BF41B941C391DE41D951E4C1F0A20CE8A
:10979800209A216E224A232E241B25122612271DC9
:1097A800283229532A812BBB2C032E5A2FC030363E
:1097B80032BD335735F5356136CD363B37AA371BC1
:1097C800388C3800397439EA39623ADB3A553BD17A
:1097D8003B4E3CCD3C4E3DD03D543EDA3E613FEAE7
:1097E8003F744001418F411F42B1424543DB4373FF
:1097F800440D45A9454746E74689472E48D5487E42
:1098080049294AD74A874B3A4CEF4CA64D614E1E20
:109818004FDD4FA05065512D52F852C65397546BE7
:109828005542561C57FA570C070504040303030254
:10983800020202020201010101010101010101010B
:109848000101010101010101010101010101010100
:1098580001010101010101010101010101010101F0
:1098680001010101010101010101010101010101E0
:1098780001010101010101010101010101010101D0
:1098880001010000000000000000000000000000CE
:1098980000000000000000000000000000000000C0
:1098A80000000000000000000000000000000000B0
:1098B80000000000000000000000000000000000A0
:1098C8000000000000000000000000000000000090
:1098D8000000000000000000000000000000000080
:1098E8000000000000000000000000000000000070
:1098F8000000000000000000000000000000000060
:10990800000000000000000000000000000000004F
:10991800000000000000000000000000000000003F
:10992800000000000000000000000000000000002F
:10993800000000000000000000000000000000001F
:10994800000000000000000000000000000000000F
:1099580000000000000000000000000000000000FF
:1099680000000000000000000000000000000000EF
:1099780000000000000000000000000000000000DF
:1099880000000000000000000000000000000000CF
:1099980000000000000000000000000000000000BF
:1099A80000000000000000000000000000000000AF
:1099B800000000000000000000000000000000009F
:1099C800000000000000000000000000000000008F
:1099D800000000000000000000000000000000007F
:1099E800000000000000000000000000000000006F
:1099F800000000000000000000000000000000005F
:109A08000000000000000000000000000000ECF270
:109A1800F6F4D2E8D2C0ECDCCFC3B9B0FCF2E8DF90
:109A2800D7D0CAC3BEB8B3AFAAA6A29F9B98959237
:109A38008F8C8A878583817F7D7B79777574727136
:109A48006F6E6C6B6A68676665646261605F5E5DB5
:109A58005C5B595756545351504F4E4C4B4A4948EA
:109A680047464544434241403FFEFBF8F6F3F0EEDB
:109A7800ECE9E7E5E3E0DEDCDAD8D7D5D3D1CFCE21
:109A8800CCCAC9C7C6C4C3C1C0BEBDBCBAB8B6B4C7
:109A9800B3B1AFAEACAAA9A7A6A4A3A1A09F9D9C51
:109AA8009B9A98979695949392908F8E8D8C8B8A8B
:109AB800898887868584838281807F7E7D7C7B7A86
:109AC800797877767574737271706F6E6D6C6B6A76
:109AD800696867666564636261605F5E5D5C5B5A66
:109AE800595857565554535251504F4E4D4C4B4A56
:109AF800494847464544434241403FFFFEFDFCFB81
:109B0800FAF9F8F7F6F5F4F3F2F1F0EFEEEDECEB25
:109B1800EAE9E8E7E6E5E4E3E2E1E0DFDEDDDCDB15
:109B2800DAD9D8D7D6D5D4D3D2D1D0CFCECDCCCB05
:109B3800CAC9C8C7C6C5C4C3C2C1C0BFBEBDBCBBF5
:109B4800BAB9B8B7B6B5B4B3B2B1B0AFAEADACABE5
:109B5800AAA9A8A7A6A5A4A3A2A1A09F9E9D9C9BD5
:109B68009A999897969594939291908F8E8D8C8BC5
:109B78008A898887868584838281807F7E7D7C7BB5
:109B88007A797877767574737271706F6E6D6C6BA5
:109B98006A696867666564636261605F5E5D5C5B95
:109BA8005A595857565554535251504F4E4D4C4B85
:109BB8004A494847464544434241403FFFFEFDFC71
:109BC800FBFAF9F8F7F6F5F4F3F2F1F0EFEEEDEC55
:109BD800EBEAE9E8E7E6E5E4E3E2E1E0DFDEDDDC45
:109BE800DBDAD9D8D7D6D5D4D3D2D1D0CFCECDCC35
:109BF800CBCAC9C8C702020202020202020202025A
:109C0800020202020202020202020202020202022C
:109C1800020202020202020202020202020202021C
:109C2800020202020202020202020202020202020C
:109C380002020202020202020202020202020202FC
:109C480002020202020202020202020202020202EC
:109C580002020202020202020202020202020202DC
:109C680002020202020202020202020202020202CC
:109C780002020202020202020202020202020202BC
:109C880002020202020202020202020202020202AC
:109C9800020202020202020202020202020202029C
:109CA800020202020202020202020202020202028C
:109CB800020202020202020202020202020202027C
:109CC800020202020202020202020202020202026C
:109CD800020202020202020202020202020202025C
:109CE800020201010101010101010101010101015A
:109CF800010101010101010101010101010101014C
:109D0800010101010101010101010101010101013B
:109D1800010101010101010101010101010101012B
:109D2800010101010101010101010101010101011B
:109D3800010101010101010101010101010101010B
:109D480001010101010101010101010101010101FB
:109D580001010101010101010101010101010101EB
:109D680001010101010101010101010101010101DB
:109D780001010101010101010101010101010101CB
:109D880001010101010101010101010101010101BB
:109D980001010101010101010101010101010101AB
:109DA80001010100000000000000000000000000A8
:109DB800000000000000000000000000000000009B
:109DC800000000000000000000000000000000008B
:109DD800000000000000000000000000E5A2FEA056
:109DE80032A1A1A1BEA04D616E75616C204D6F645A
:109DF8006520202020202020202043757272656E67
:109E08007420706F733A2020202020202001547580
:109E1800726E2043435720002053706565642020EC
:109E280020205374617274202020200020202020DC
:109E380020202020202052657475726E20746F20B7
:109E48005A65726F3F202020202043757272656E1C
:109E58007420706F733A202020202020202020209A
:109E680020202020202020202020202020202020EA
:109E78002020205965732020202020202020202009
:109E880020204E6F20204172633A2053697A653D45
:109E98002020202020202020202043757272656E0B
:109EA8007420706F733A20202020202020015475E0
:109EB800726E20434357200020537065656420204C
:109EC800202053746172742020202000202020203C
:109ED8002020202020204172633A2053657420619D
:109EE80072632073697A6520202041726320736948
:109EF8007A653A202020202020202020202053741A
:109F080065702073697A6520002020436F6E66694A
:109F1800726D202020202020202020200020204397
:109F2800616E63656C204469766964653A20202017
:109F380020202020202020202020506F733A20202D
:109F480020202020202020202020202020204A758A
:109F58006D702073697A653A202020202020202007
:109F680020205072657373546F4A756D70200020FD
:109F780043616E63656C4469766964653A2053652C
:109F880074206469766973696F6E20202020202010
:109F980020202020202020202020202020202020B9
:109FA800202F737465702020002020436F6E66692F
:109FB800726D3132333420202020202000202043AD
:109FC800616E63656C2053657475703A20536574CF
:109FD80020646972656374696F6E202020202020D8
:109FE8002020202020202020202020202020204346
:109FF8006F756E746572436C6F636B7769736520F8
:10A00800202020436C6F636B7769736520202020C4
:10A0180020202020202053657475703A20536574E1
:10A02800207A65726F20706F732E202020202020E8
:10A038002020202020202020202020202020537491
:10A0480065702073697A6520002020436F6E666909
:10A05800726D20782E78780120202020002020435F
:10A06800616E63656C204D61696E204D656E753A51
:10A078002020202020202020202020536574757067
:10A088002020202044697669646520202020204112
:10A0980072632020202020204D616E75616C202085
:10A0A800202020476F325A65726F20202020202000
:10A0B80020202020202009024000020100C032098F
:10A0C8000400000203000000092111010001221D03
:10A0D800000705810340000107050103400001094D
:10A0E800040100020806500007058202400001072B
:10A0F800050202400001340353006F006C00640045
:10A10800650072006E006500720064002E00630036
:10A118006F006D002000200020002000200020009B
:10A12800200020002000200020002E03530074008F
:10A13800650070007000650072004D006F007400CB
:10A148006F00720043006F006E00740072006F00B1
:10A158006C006C00650072000080040220000000A2
:10A168004D6963726F6368704D6173732053746FC8
:10A178007261676520202020303030310600FF09E9
:10A1880001A10119012940150026FF007508954015
:10A198008100190129409100C01A033100320033AF
:10A1A80000340035003600370038003900300039F7
:10A1B8000039004F56455253484F4F545F434F5351
:10A1C800545F494E5F5354455053004D4158494DD3
:10A1D800554D5F53504545445F4D414E55414C00E8
:10A1E800494E495449414C5F53504545445F4D41A0
:10A1F8004E55414C0046554C4C5F434952434C45E3
:10A208005F494E5F5354455053004F56455253488B
:10A218004F4F545F494E5F5354455053004D41587A
:10A22800494D554D5F53504545445F4152430049A0
:10A238004E495449414C5F53504545445F41524350
:10A2480000494E56455253455F4449524543544987
:10A258004F4E001201000200000008D804CFED00A4
:10A2680001010200015553455F4343575F4C494D77
:10A27800495400424545505F4455524154494F4E58
:10A28800004D4158494D554D5F5350454544004D8B
:10A29800494E494D554D5F5350454544005553452A
:10A2A8005F43575F4C494D4954004343575F4C49FE
:10A2B8004D49540043575F4C494D4954000A000E1C
:10A2C800010F110F0018180000000000000404041A
:10A2D80004040404043D2A80A73D2A80A604030937
:10A2E8000468656C6C6F20776F726C64210053741E
:10A2F80065707065724374726C0046494C45202045
:10A308002020004D53444F53352E3000202020206C
:10A31800202020200043616E63656C0053746F70C9
:07A32800200054585400000E
:10A330008EEF57F0340E0001606F020E616F6E0EEB
:10A34000626FA00E636F000E656F500E646FDAECE3
:10A35000A1F00FD03E0E0201486FBCEF57F03E0E49
:10A360000201516FBCEF57F03E0E0201656FBCEF6A
:10A3700057F001017E51010AD8B4ECD7030AD8B4D2
:10A38000EED7010AD8B467D0070AD8B4EDD7010ACE
:10A3900072D0340E0001606F020E616F1E0E626F8C
:10A3A000A00E636F000E656F500E646FDAECA1F0C3
:10A3B00081C195F082C196F0020E0001976FBE0E2A
:10A3C000986F000E996F4BEC75F0E80E0101815DFE
:10A3D000030E8259D8A002D0000E01D0010E000158
:10A3E000C86F000EC96F18D0C951010DBE0EF324FD
:10A3F000D96E000EF420DA6EC951C8C0BCF0BD6B36
:10A40000BC27000EBD23700EBC25E16E020EBD21DF
:10A41000E26EDFCFE7FFC92BC951010DBE0EF32459
:10A42000D96E000EF420DA6EDF50D8A4DDD701011A
:10A430007E51110A8ED0340E0001606F020E616FE2
:10A44000CE0E626F9F0E636F000E656F500E646FCD
:10A45000DAECA1F00AD03E0E02015C6FBCEF57F0BF
:10A460003E0E0201706FBCEF57F001017E51210AD0
:10A47000D8B4F1D7030AD8B4F3D7BCEF57F0340EF1
:10A480000001606F020E616F7E0E626F9F0E636F40
:10A49000000E656F500E646FDAECA1F086C178F0A3
:10A4A0000001796B030E7A6FBE0E7B6F000E7C6F1E
:10A4B00039EC8EF0000E0001C96F020EC96501D0A3
:10A4C00014D0C951010DBE0EF324D96E000EF42034
:10A4D000DA6EC951010D5C0EF324E16E020EF42018
:10A4E000E26EDFCFE7FFC92BE8D784C178F085C1E2
:10A4F00079F0040E7A6FBE0E7B6F000E7C6F39EC24
:10A500008EF0000E0001C96F030EC96501D01ED088
:10A51000C951010DBE0EF324D96E000EF420DA6E7F
:10A52000C951010D700EF324E16E020EF420E26EAB
:10A53000DFCFE7FFC92BE8D73E0E0201686FBCEF03
:10A5400057F03E0E02017C6FBCEF57F001017E51C7
:10A55000310AD8B4F1D7030AD8B4F3D7BCEF57F017
:10A56000340E0001606F020E616F2E0E626F9F0E3F
:10A57000636F000E656F500E646FDAECA1F084C15A
:10A5800078F085C179F0000E00017A6FBE0E7B6F06
:10A59000000E7C6F39EC8EF0000E0001C96F18D0F0
:10A5A000C951010DBE0EF324D96E000EF420DA6EEF
:10A5B000C951BC6FBD6B080EBC27000EBD23340E05
:10A5C000BC25E16E020EBD21E26EDFCFE7FFC92B95
:10A5D000C951010DBE0EF324D96E000EF420DA6EBF
:10A5E000DF50D8A4DDD7C951BC6FBD6B080EBC27A6
:10A5F000000EBD23340EBC25D96E020EBD21DA6ECD
:10A600002C0EDF6E01018329D8A424D00001C9518A
:10A61000BC6FBD6B0A0EBC27000EBD23340EBC25DB
:10A62000D96E020EBD21DA6E430EDF6EC951BC6FCA
:10A63000BD6B0B0EBC27000EBD23340EBC25D96E9E
:10A64000020EBD21DA6E430EDF6EC951BC6FBD6BC9
:10A650000C0E14D00001C951BC6FBD6B0A0EBC2793
:10A66000000EBD23340EBC25D96E020EBD21DA6E5C
:10A67000430EDF6EC951BC6FBD6B0B0EBC27000EC5
:10A68000BD23340EBC25D96E020EBD21DA6E570EE5
:10A69000DF6E87C178F088C179F0000E7A6FBE0E48
:10A6A0007B6F000E7C6F39EC8EF0000E0001C96FDD
:10A6B00018D0C951010DBE0EF324D96E000EF4203E
:10A6C000DA6EC951BC6FBD6B050EBC27000EBD23F1
:10A6D000480EBC25E16E020EBD21E26EDFCFE7FF22
:10A6E000C92BC951010DBE0EF324D96E000EF42002
:10A6F000DA6EDF50D8A4DDD7C951BC6FBD6B060E32
:10A70000BC27000EBD23480EBC25D96E020EBD210C
:10A71000DA6E280EDF6EC951070FC86F7CC1ADF02D
:10A720007DC1AEF0AF6BB06B020EB16FBE0EB26FFB
:10A73000000EB36FE9EC84F0000E0001C96F18D071
:10A74000C951010DBE0EF324D96E000EF420DA6E4D
:10A75000C851C9C0BCF0BD6BBC27000EBD23480E5C
:10A76000BC25E16E020EBD21E26EDFCFE7FFC92BF3
:10A77000C951010DBE0EF324D96E000EF420DA6E1D
:10A78000DF50D8A4DDD7C851C9C0BCF0BD6BBC2711
:10A79000000EBD23480EBC25D96E020EBD21DA6E17
:10A7A000010EDF6EC851C9C0BCF0BD6BBC27000EE6
:10A7B000BD23010EBC27000EBD23480EBC25D96E5B
:10A7C000020EBD21DA6E290EDF6E89C18FF08AC1BB
:10A7D00090F0BE0E916F000E926F46ECA7F0000E47
:10A7E0000001C96F18D0C951010DBE0EF324D96EF6
:10A7F000000EF420DA6EC951BC6FBD6B0B0EBC2786
:10A80000000EBD235C0EBC25E16E020EBD21E26E82
:10A81000DFCFE7FFC92BC951010DBE0EF324D96E5E
:10A82000000EF420DA6EDF50D8B4A6D3DCD7340E95
:10A83000606F020E616FDE0E626F9E0E636F000E20
:10A84000656F500E646FDAECA1F008D03E0E020185
:10A85000686F0CD03E0E02017C6F08D001017E5162
:10A86000510AD8B4F3D7030AD8B4F4D78DC1ADF0E8
:10A870008EC1AEF08FC1AFF090C1B0F0020E0001FA
:10A88000B16FBE0EB26F000EB36FE9EC84F0000E34
:10A890000001C96F18D0C951010DBE0EF324D96E45
:10A8A000000EF420DA6EC951BC6FBD6B0A0EBC27D6
:10A8B000000EBD23480EBC25E16E020EBD21E26EE6
:10A8C000DFCFE7FFC92BC951010DBE0EF324D96EAE
:10A8D000000EF420DA6EDF50D8A4DDD7C951BC6F6A
:10A8E000BD6B0A0EBC27000EBD23480EBC25D96ED9
:10A8F000020EBD21DA6E010EDF6E8BC195F08CC1A8
:10A9000096F0020E976FBE0E986F000E996F4BEC8B
:10A9100075F0E80E01018B5D030E8C59D8A002D0B2
:10A92000000E01D0010E0001C86F000EC96F18D0D3
:10A93000C951010DBE0EF324D96E000EF420DA6E5B
:10A94000C951C8C0BCF0BD6BBC27000EBD23700E42
:10A95000BC25E16E020EBD21E26EDFCFE7FFC92B01
:10A96000C951010DBE0EF324D96E000EF420DA6E2B
:10A97000DF50D8A4DDD7C951C8C0BCF0BD6BBC271F
:10A98000000EBD23700EBC25D96E020EBD21DA6EFD
:10A99000010E5BD2340E606F020E616F8E0E626F1D
:10A9A0009E0E636F000E656F500E646FDAECA1F0BF
:10A9B00025D0570E0201626F200E636F27D05C0E08
:10A9C0000001606F020E616F140E626FA30E636F61
:10A9D000000E656F080E646FDAECA1F0700E0001D6
:10A9E000606F020E616F1D0E626FA30E636F000E2B
:10A9F000656F060E646FDAECA1F008D001017E519C
:10AA0000620AD8B4DCD7010AD8B4D3D78DC1ADF06F
:10AA10008EC1AEF08FC1AFF090C1B0F0020E000158
:10AA2000B16FBE0EB26F000EB36FE9EC84F0000E92
:10AA30000001C96F18D0C951010DBE0EF324D96EA3
:10AA4000000EF420DA6EC951BC6FBD6B0A0EBC2734
:10AA5000000EBD23340EBC25E16E020EBD21E26E58
:10AA6000DFCFE7FFC92BC951010DBE0EF324D96E0C
:10AA7000000EF420DA6EDF50D8A4DDD7C951BC6FC8
:10AA8000BD6B0A0EBC27000EBD23340EBC25D96E4B
:10AA9000020EBD21DA6E010EDF6E7CC1ADF07DC10C
:10AAA000AEF0AF6BB06B020EB16FBE0EB26F000EA8
:10AAB000B36FE9EC84F0BE0E0001606F000E616FB1
:10AAC0000EECA8F0000160510008060FC86F000EE0
:10AAD000C96F1CD0C951010DBE0EF324D96E000EF2
:10AAE000F420DA6EC951C8C0BCF0BD6BBC27000EA3
:10AAF000BD230D0EBC27000EBD23480EBC25E16E04
:10AB0000020EBD21E26EDFCFE7FFC92BC951010D57
:10AB1000BE0EF324D96E000EF420DA6EDF50D8A4F6
:10AB2000D9D791C193F092C194F0EEECABF093C001
:10AB300095F094C096F0020E0001976FBE0E986FCC
:10AB4000000E996F4BEC75F0000E0001C96F18D024
:10AB5000C951010DBE0EF324D96E000EF420DA6E39
:10AB6000C951BC6FBD6B0B0EBC27000EBD23700E10
:10AB7000BC25E16E020EBD21E26EDFCFE7FFC92BDF
:10AB8000C951010DBE0EF324D96E000EF420DA6E09
:10AB9000DF50D8A4DDD72DD1340E606F020E616F67
:10ABA0003E0E626F9E0E636F000E656F500E646FF7
:10ABB000DAECA1F07CC1ADF07DC1AEF00001AF6B6D
:10ABC000B06B020EB16FBE0EB26F000EB36FE9EC48
:10ABD00084F0000E0001C96F18D0C951010DBE0EDE
:10ABE000F324D96E000EF420DA6EC951BC6FBD6B30
:10ABF0000D0EBC27000EBD23480EBC25E16E020ED3
:10AC0000BD21E26EDFCFE7FFC92BC951010DBE0E9A
:10AC1000F324D96E000EF420DA6EDF50D8A4DDD70D
:10AC2000C951BC6FBD6B0D0EBC27000EBD23480E75
:10AC3000BC25D96E020EAAD6340E606F020E616F6B
:10AC4000EE0E626F9D0E636F000E656F500E646FA7
:10AC5000DAECA1F044D0570E0201626F200E636F50
:10AC600049D05C0E0001606F020E616F140E626FBE
:10AC7000A30E636F000E656F080E646FDAECA1F02F
:10AC8000700E0001606F020E616F1D0E626FA30EE9
:10AC9000636F000E656F060E646FDAECA1F02AD0C8
:10ACA0005C0E0001606F020E616F140E626FA30EE6
:10ACB000636F000E656F080E646FDAECA1F0700E22
:10ACC0000001606F020E616F240E626FA30E636F4E
:10ACD000000E656F050E646FDAECA1F00BD0010178
:10ACE0007E51820AD8B4BDD7010AD8B4B4D7070AB6
:10ACF000D8B4D6D77CC1ADF07DC1AEF00001AF6B4A
:10AD0000B06B020EB16FBE0EB26F000EB36FE9EC06
:10AD100084F0BE0E0001606F000E616F0EECA8F0B3
:10AD2000000160510008070FC86F000EC96F1CD0EA
:10AD3000C951010DBE0EF324D96E000EF420DA6E57
:10AD4000C951C8C0BCF0BD6BBC27000EBD230C0EA2
:10AD5000BC27000EBD23480EBC25E16E020EBD21AE
:10AD6000E26EDFCFE7FFC92BC951010DBE0EF32400
:10AD7000D96E000EF420DA6EDF50D8A4D9D794C172
:10AD800093F095C194F0EEECABF093C095F094C0C5
:10AD900096F0020E0001976FBE0E986F000E996F2D
:10ADA0004BEC75F0000E0001C96F18D0C951010DB0
:10ADB000BE0EF324D96E000EF420DA6EC951BC6FBA
:10ADC000BD6B0B0EBC27000EBD23700EBC25E16EC3
:10ADD000020EBD21E26EDFCFE7FFC92BC951010D85
:10ADE000BE0EF324D96E000EF420DA6EDF50D8A424
:10ADF000DDD7C951BC6FBD6B0B0EBC27000EBD2348
:10AE0000700EBC25D96E020EBD21DA6E010EDF6E0A
:10AE1000C951BC6FBD6B0C0EBC27000EBD23700E5C
:10AE2000BC25D96E020EBD21DA6E2F0EDF6EC95120
:10AE3000BC6FBD6B0D0EBC27000EBD23700EBC2574
:10AE4000D96E020EBD21DA6E730EDF6E95D0B6ECB0
:10AE5000A6F0010174510001956F966B95BF96079E
:10AE6000000E976F340E986F020E996F4BEC75F0D1
:10AE700084A402D0480E01D04C0E02013C6F84A085
:10AE800002D0480E01D04C0E3D6F010175510001FA
:10AE9000956F966B95BF9607000E976F480E986F4B
:10AEA000020E996F4BEC75F084A202D0480E01D0CF
:10AEB0004C0E0201506F010176510001956F966BA7
:10AEC00095BF9607000E976F5C0E986F020E996FF4
:10AED0004BEC75F080A002D0480E01D04C0E020160
:10AEE000646F80A402D0480E01D04C0E656F010142
:10AEF00077510001956F966B95BF9607000E976F7F
:10AF0000700E986F020E996F4BEC75F080A202D014
:10AF1000480E01D04C0E0201786F2ED001017E51F7
:10AF2000F00B0001BC6FBD6BBD51000AD8A424D04A
:10AF3000BC51000AD8B49AEF51F0100AD8B4C9EF46
:10AF400051F0300AD8B41BEF52F0100AD8B43FEFDA
:10AF500052F0700AD8B4B0EF52F0100AD8B467D4E7
:10AF6000300AD8B417D5100AD8B416D6F00AD8B417
:10AF700063D6700AD8B46BD783B41200450E0201B1
:10AF8000346F520E356F520E366F4F0E376F520EB2
:10AF9000386F120001017451D8A4D9EF5BF07651DB
:10AFA000D8A4D9EF5BF07551D8A4D9EF5BF07751F5
:10AFB000D8B41200FED37505D8B403D07705D8A451
:10AFC00002D0110E7E6F76C1CFF00001D06BCFBFE3
:10AFD000D00774C1D1F0D26BD1BFD207CF51D127E6
:10AFE000D051D223D2BF08D0D25103E1D105D8A08D
:10AFF00003D0020E01017E6F76C1CFF00001D06B4D
:10B00000CFBFD00774C1D1F0D26BD1BFD207CF511F
:10B01000D127D051D223D2AFF1D3050EB8D37505C5
:10B02000D8B403D07705D8A402D0310E7E6F76C194
:10B03000CFF00001D06BCFBFD00774C1D1F0D26B7D
:10B04000D1BFD207CF51D127D051D223D2BF08D000
:10B05000D25103E1D105D8A003D0030E01017E6FC8
:10B0600076C1CFF00001D06BCFBFD00774C1D1F053
:10B07000D26BD1BFD207CF51D127D051D223D2AF7B
:10B08000BDD3010E84D37505D8B403D07705D8A4F9
:10B0900002D0510E7E6F76C1CFF00001D06BCFBFD2
:10B0A000D00774C1D1F0D26BD1BFD207CF51D12715
:10B0B000D051D223D2BF08D0D25103E1D105D8A0BC
:10B0C00003D0040E01017E6F76C1CFF00001D06B7A
:10B0D000CFBFD00774C1D1F0D26BD1BFD207CF514F
:10B0E000D127D051D223D2AF89D3020E50D37505C8
:10B0F000D8B403D07705D8A402D0820E7E6F76C173
:10B10000CFF00001D06BCFBFD00774C1D1F0D26BAC
:10B11000D1BFD207CF51D127D051D223D2BF08D02F
:10B12000D25103E1D105D8A003D0050E01017E6FF5
:10B1300076C1CFF00001D06BCFBFD00774C1D1F082
:10B14000D26BD1BFD207CF51D127D051D223D2AFAA
:10B1500055D3030E1CD37505D8B403D07705D8A4F6
:10B1600002D0710E7E6F76C1CFF00001D06BCFBFE1
:10B17000D00774C1D1F0D26BD1BFD207CF51D12744
:10B18000D051D223D2BF08D0D25103E1D105D8A0EB
:10B1900003D0010E01017E6F76C1CFF00001D06BAC
:10B1A000CFBFD00774C1D1F0D26BD1BFD207CF517E
:10B1B000D127D051D223D2AF21D3040EE8D201013E
:10B1C0007E51010AD8B4F7D6030AD8B428D7010AA9
:10B1D000D8B459D7070AD8B48AD7010AD8B4BBD78C
:10B1E000F50A0CD37505D8A40ED0000E786F000EAA
:10B1F000796F000E7A6F000E7B6F000E886F000E65
:10B20000876F210E7E6F7451800A7F0FD8A002D005
:10B21000120E7E6F74AF1BD0120E0FD07505D8A41E
:10B2200002D0010E7E6F7451800A7F0FD8A002D029
:10B23000110E7E6F74AF0BD0110E7E6F08D001011E
:10B240007E51110AD8B4CED7030AD8B4E7D7770510
:10B25000D8A40AD081C160F082C161F030EC9FF0C7
:10B2600060C081F161C082F101017651800A7F0FD7
:10B27000D8A01BD07F51D8A418D081C18FF082C133
:10B2800090F090ECA6F08FC0A1F090C0A2F091C019
:10B29000A3F092C0A4F0000E0001A66F000EA56FEF
:10B2A000000EA76F010E48EC93F0010176AFA6D215
:10B2B0007F51D8A4A3D281C18FF082C190F090ECCD
:10B2C000A6F08FC0A1F090C0A2F091C0A3F092C0F0
:10B2D000A4F0000E0001A66F000EA56F000EA76F70
:10B2E000FF0E48EC93F08AD201017505D8B403D063
:10B2F0007705D8A403D0FF0E8CEC95F076C1CFF083
:10B300000001D06BCFBFD00774C1D1F0D26BD1BFD9
:10B31000D207CF51D127D051D223D2BF08D0D2519A
:10B3200003E1D105D8A003D0220E01017E6F76C1C2
:10B33000CFF00001D06BCFBFD00774C1D1F0D26B7A
:10B34000D1BFD207CF51D127D051D223D2AF56D2BD
:10B35000220E1DD27505D8B403D07705D8A403D02A
:10B36000010E8CEC95F076C1CFF00001D06BCFBF11
:10B37000D00774C1D1F0D26BD1BFD207CF51D12742
:10B38000D051D223D2BF08D0D25103E1D105D8A0E9
:10B3900003D0210E01017E6F76C1CFF00001D06B8A
:10B3A000CFBFD00774C1D1F0D26BD1BFD207CF517C
:10B3B000D127D051D223D2AF21D2210EE8D1010121
:10B3C0007E51210AD8B490D7030AD8B4C3D716D275
:10B3D0007505D8A405D010EC7DF0410E01017E6FFB
:10B3E0007451800A7F0FD8A002D0320E7E6F74AFE6
:10B3F0001BD0320E0FD07505D8A402D0020E7E6F7E
:10B400007451800A7F0FD8A002D0310E7E6F74AFC6
:10B410000BD0310E7E6F08D001017E51310AD8B4B5
:10B42000D7D7030AD8B4E7D77705D8A405D0865173
:10B43000D5ECA9F00101866F7651800A7F0FD8A064
:10B4400004D086518427000E852376AFD7D186514C
:10B450000001CF6FD06B010184510001CF5DD0514D
:10B46000800AD16F01018551800A0001D159D8B0FD
:10B4700006D001018651845F000E855BBFD1000EAE
:10B480000101856F010E846FB9D101017505D8A442
:10B4900002D0020E7E6F7705D8B449EC97F0010117
:10B4A0007651800A7F0FD8B0EEECA7F0010176AF9D
:10B4B000A5D1D7EC9FF0A2D101017505D8A402D087
:10B4C000620E7E6F7451800A7F0FD8A002D0520E98
:10B4D0007E6F74AF1BD0520E0FD07505D8A402D06A
:10B4E000030E7E6F7451800A7F0FD8A002D0510ED8
:10B4F0007E6F74AF0BD0510E7E6F08D001017E516C
:10B50000510AD8B4D9D7030AD8B4E7D77705D8A455
:10B510000AD08BC160F08CC161F068EC9FF060C014
:10B520008BF161C08CF101017651800A7F0FD8A0A8
:10B530001CD08B518D278C518E23000E8F23000E33
:10B54000902390BF12D0905108E1A10E8D5D860E20
:10B550008E59010E8F59D8A008D0A00E8D6F860E7F
:10B560008E6F010E8F6F000E906F76AF47D18B51AB
:10B570000001CF6F01018C510001D06FD16BD26BF4
:10B58000CF5101018D5F0001D05101018E5B00019F
:10B59000D15101018F5B0001D2510101905B90BF3D
:10B5A00007D090518F118E1102E18D05D8B026D1B0
:10B5B000010E8D6F000E8E6F000E8F6F000E906F5C
:10B5C0001DD101017451800A7F0FD8A011D0B05154
:10B5D000915DB1519259D8B002D0914B922B7F51CD
:10B5E000D8B406D091C160F092C161F05CECACF0CF
:10B5F000010174AF46D09151AA5D9251AB59D8B0B8
:10B6000003D09107D8A092077F51D8B43AD091C106
:10B6100060F092C161F05CECACF033D001017705D1
:10B62000D8A406D0FF0E00EC8BF0620E01017E6FF5
:10B630007651800A7F0FD8A0E1D0620EA9D077059D
:10B64000D8A407D07F51D8A423ECA7F0030E0101A2
:10B650007E6F7651800A7F0FD8A002D0630E7E6F76
:10B6600076AFCCD0610E94D07705D8A406D0010E69
:10B6700000EC8BF0620E01017E6F76AFBFD0620EE0
:10B6800087D001017E51610AD8B4C8D7030AD8B463
:10B69000D6D7010AD8B4E8D7B1D001017705D8A42C
:10B6A00012D0000E0001A96F000EAA6F000EAB6F42
:10B6B000000EAC6F38EC66F0050E01017E6F000ED7
:10B6C000886F000E876F7505D8A498D0050E60D0DE
:10B6D00001017451800A7F0FD8B0BBECABF00101BF
:10B6E00074AF58D052ECABF055D001017705D8A417
:10B6F00015D0000E0001A16F000EA26F000EA36F07
:10B70000000EA46F94C1A5F095C1A6F0000EA76F1E
:10B71000FF0E48EC93F0840E01017E6F7651800A93
:10B720007F0FD8A06BD0820E33D07705D8A402D07B
:10B73000040E7E6F7651800A7F0FD8A002D0830E50
:10B740007E6F76AF5BD0810E23D07705D8A414D05E
:10B75000840E7E6F000E0001A16F000EA26F000E1E
:10B76000A36F000EA46F94C1A5F095C1A6F0000EC2
:10B77000A76F010E48EC93F0010176AF3FD0820E27
:10B7800007D07705D8A43AD023ECA7F0820E0101A8
:10B790007E6F34D001017E51810AD8B4A6D7030A46
:10B7A000D8B4C3D7010AD8B4D0D7070AD8B4E9D7D8
:10B7B00025D07E51F00B0001CF6FD06BD051000A25
:10B7C000D8A41CD0CF51000AD8B4F9D4100AD8B4E8
:10B7D00036D5300AD8B4F3D5100AD8B41DD6700ABD
:10B7E000D8B453D6100AD8B489D6300AD8B4E9D61A
:10B7F000100AD8B452D7F00AD8B46AD7000E0101A3
:10B80000746F000E766F000E756F000E776F12006A
:10B810009E9201015651D8A426D08AA223D08A92A2
:10B820002751581809E12851591806E129515A1889
:10B8300003E12A515B18D8A41200CA949E929D92EB
:10B84000020E276E000E266E78C128F079C129F00D
:10B850007AC12AF07BC12BF0C8ECABF0000E0101DD
:10B860007F6F12008A82010E5826000E59225A223A
:10B870005B2255512C6E000E2CBEFF0E2D6E2E6ECF
:10B880002F6E2C5078272D5079232E507A232F504D
:10B890007B23A151781912E1A25179190FE1A3512B
:10B8A0007A190CE1A4517B19D8A408D0000E786F46
:10B8B000000E796F000E7A6F000E7B6F782913E10E
:10B8C000792911E17A290FE17B29D8A40CD0FF0E48
:10B8D000A125786FFF0EA221796FFF0EA3217A6F49
:10B8E000FF0EA4217B6F02012651581809E1275150
:10B8F000591806E128515A1803E129515B18D8A4B8
:10B9000017D258C02CF059C02DF05AC02EF05BC091
:10B910002FF02C1E2D1E2E1E2F1E2C2A000E2D2227
:10B920002E222F22010127512C24406E28512D2038
:10B93000416E29512E20426E2A512F20436ED890FD
:10B940000001FE35F66EFF35F76E610EF626940E99
:10B95000F722F86A000EF8220900F5CF3CF00A0041
:10B96000F5CF3DF0FEC02CF0FFC02DF0D8902C3666
:10B970002D36040E2C26000E2D22610E2C24F66E80
:10B98000940E2D20F76EF86A000EF8220900F5CF0C
:10B990003EF00A00F5CF3FF0FE5101013F5D00018E
:10B9A000FF5101014059D8A010D03C502C6E3D50A1
:10B9B0002D6E2E6A2F6A40502C5C41502D584250FB
:10B9C0002E5843502F58D8A0E3D00001FE51FF114C
:10B9D000D8B403D0FE07D8A0FF0701015605D8A4AC
:10B9E00026D02F0E0001FE25F66E980EFF21F76E71
:10B9F000F86A000EF8220800F5500009D8B417D0F4
:10BA0000000E0101566F8A82550EA76EAA0EA76E10
:10BA10000E01BF91000EC46F550EA76EAA0EA76E41
:10BA2000BF81000ECC6EBA90BA92BA94BA96FD0E4F
:10BA30000001FE25F66E9B0EFF21F76EF86A000EE0
:10BA4000F8220800F5CF2CF0CA502C18FC0B2C184B
:10BA5000CA6E160EFE25F66E9A0EFF21F76EF86A74
:10BA6000000EF8220800F5CFCBFF2F0EFE25F66E54
:10BA7000980EFF21F76EF86A000EF8220800F5CF45
:10BA80002CF02C462C462C46CA502C18870B2C1810
:10BA9000CA6ED890CB30BB6EFE51FF11D8B458D0CF
:10BAA000FE0E2C6EFF0E2D6EFEC02EF0FFC02FF08E
:10BAB000D8902E362F362C502E262D502F22610E48
:10BAC0002E24F66E940E2F20F76EF86A000EF822E0
:10BAD0000900F5CF30F00900F5CF31F03050326E6B
:10BAE0003150336E346A356A321E331E341E351EB1
:10BAF000322A000E332234223522D890FE35F66EDB
:10BB0000FF35F76E610EF626940EF722F86A000EE6
:10BB1000F8220900F5CF36F00900F5CF37F036509E
:10BB20003224386E37503320396E000E34203A6E8E
:10BB3000000E35203B6E585038240201266F5950B4
:10BB40003920276F5A503A20286F5B503B20EFD0A6
:10BB5000D8900001FE35F66EFF35F76E610EF626C1
:10BB6000940EF722F86A000EF8220900F5CF2CF0A7
:10BB70000900F5CF2DF02C5058240201266F2D50CE
:10BB80005920276F000E5A20286F000E5B20CFD05F
:10BB900001013F510001FE1906E101014051000180
:10BBA000FF19D8B410D03E502C6E3F502D6E2E6A27
:10BBB0002F6A40502C5C41502D5842502E58435013
:10BBC0002F58D8A002D0D89060D00001FE4BFF2B98
:10BBD000FD0EFE25F66E9B0EFF21F76EF86A000E35
:10BBE000F8220800F5CF2CF0CA502C18FC0B2C18AA
:10BBF000CA6E160EFE25F66E9A0EFF21F76EF86AD3
:10BC0000000EF8220800F5CFCBFF2F0EFE25F66EB2
:10BC1000980EFF21F76EF86A000EF8220800F5CFA3
:10BC20002CF02C462C462C46CA502C18870B2C186E
:10BC3000CA6ED890CB30BB6E01015651D8A423D028
:10BC40002F0E0001FE25F66E980EFF21F76EF86AA2
:10BC5000000EF8220800F5500009D8A414D0010EF7
:10BC60000101566FBA50F00B0C09BA6E550EA76E53
:10BC7000AA0EA76E0E01BF910E0EC46F550EA76ED1
:10BC8000AA0EA76EBF81D8900001FE35F66EFF3573
:10BC9000F76E610EF626940EF722F86A000EF8226F
:10BCA0000900F5CF2CF00900F5CF2DF02C502E6EA9
:10BCB0002D502F6E306A316A2E1E2F1E301E311EFF
:10BCC0002E2A000E2F2230223122FEC032F0FFC079
:10BCD00033F0D89032363336020E3226000E33223D
:10BCE000610E3224F66E940E3320F76EF86A000E61
:10BCF000F8220900F5CF34F00900F5CF35F03450C3
:10BD00002E24366E35502F20376E000E3020386EC0
:10BD1000000E3120396E585036240201266F5950DA
:10BD20003720276F5A503820286F5B503920296FF1
:10BD30009EA212009E92010E5826000E59225A22EF
:10BD40005B22010155512C6E000E2CBEFF0E2D6E94
:10BD50002E6E2F6E2C5078272D5079232E507A235B
:10BD60002F507B23A151781912E1A25179190FE1CB
:10BD7000A3517A190CE1A4517B19D8A408D0000E64
:10BD8000786F000E796F000E7A6F000E7B6F782946
:10BD900014E1792912E17A2910E17B29D8A4120053
:10BDA000FF0EA125786FFF0EA221796FFF0EA32150
:10BDB0007A6FFF0EA4217B6F12001200D0D155ECD8
:10BDC00077F00009D8A4120001016269120033EC77
:10BDD0006BF00009D8A412000101626912005C0531
:10BDE000D8A402D06269120012C246F113C245F112
:10BDF00045C16AF046C16BF000016C6B6D6B5EEC87
:10BE000084F00009D8A41200000E0001616F240E16
:10BE1000606F72EC94F0000E0001606F060E616FAF
:10BE2000600E626FA10E636F000E656F240E646F6B
:10BE3000DAECA1F0FD0E0101626F12009EC260F00B
:10BE40009FC261F022EE8CF001D80AD00500FA6E94
:10BE5000DE50FD6EDE50FE6EDE50FF6EFA501200B8
:10BE600060C0A2F061C0A3F062C0A4F063C0A5F0FE
:10BE70009EC260F09FC261F022EE8FF001D80AD01E
:10BE80000500FA6EDE50FD6EDE50FE6EDE50FF6E77
:10BE9000FA501200000160C09EF061C09FF0A06BDC
:10BEA000A16B26EE00F0A5C0DFFF26EE01F0A4C0D6
:10BEB000DFFF26EE02F0A3C0DFFF26EE03F0A2C0F4
:10BEC000DFFF26EE04F0A1C0DFFF26EE05F0A0C0E4
:10BED000DFFF26EE06F09FC0DFFF26EE07F09EC0D4
:10BEE000DFFF000E0101466F080E456F000E0001D6
:10BEF000616F080E606F72EC94F0FD0E0101626FCD
:10BF000012005C05D8A402D062691200000E466FD0
:10BF1000120E456F000E0001616F120E606F72EC21
:10BF200094F0000E0001A66F110EA66501D014D08A
:10BF3000A651010D000EF324D96E010EF420DA6E25
:10BF4000A651010D000EF324E16E060EF420E26E00
:10BF5000DFCFE7FFA62BE8D7FD0E0101626F1200CD
:10BF6000030EE8CF00F6000EE8CF01F69EC260F0A7
:10BF70009FC261F022EE98F001D80AD00500FA6E57
:10BF8000DE50FD6EDE50FE6EDE50FF6EFA50120087
:10BF90000009D8A405D0000E00019C6F000E04D04B
:10BFA000000E00019C6F800E9B6F26EE02F09BC07E
:10BFB000DFFF000EE8CF03F6000E0101466F040E0E
:10BFC000456F000E0001616F040E606F72EC94F01B
:10BFD000FD0E0101626F12000251F00B0509026FA4
:10BFE000200E0C6F000E0D6F010E0D018C6F000EF8
:10BFF000886F000E896F000E8A6F000E8B6F010133
:10C0000062691200000E00016A6F000E6B6F000E75
:10C010006C6F000E6D6F5EEC84F00009D8A4120006
:10C02000010102510F0B060AD8A407D00D018C059F
:10C03000D8A403D001016269120078ECA1F0000ECF
:10C040000D01886F000E896F000E8A6F000E8B6FD6
:10C05000010162691200000E0D01886F000E896FE8
:10C06000000E8A6F000E8B6F010162691200495148
:10C070004A11D8B406D049C1D9FF4AC1DAFFDFBEA0
:10C08000120002010B510A11091104E1400E085D72
:10C09000D8A00BD0400E00019D6F400E0201085F3A
:10C0A000000E095B0A5B0B5B0AD008C29DF0000E14
:10C0B000086F000E096F000E0A6F000E0B6F000173
:10C0C0009D51996F9A6B99510101455D00019A51FB
:10C0D00001014659D8A007D000019D510101455FDB
:10C0E000000E465B1ED0000E0001A66F16D00101A7
:10C0F00045514611D8B404D04507D8A046070BD007
:10C100000001A651010D000EF324D96E060EF42095
:10C11000DA6E000EDF6E0001A62B9D51A65DD8A041
:10C12000E6D7010E0001606F000E616F060E626FB0
:10C130009DC063F0020E03EC87F060C049F161C05E
:10C140004AF10201085109110A110B11D8A4120079
:10C150000101626912007F0E44EC83F012000101BC
:10C160006251000AD8B44ED7030AD8B4CAD6110A0D
:10C17000D8B435D6080AD8B4F3D6010AD8B46BD7E8
:10C18000050AD8B429D73B0AD8B458D60D0AD8B472
:10C1900016D6020AD8B41BD6050AD8B45CD7D20A80
:10C1A000D8B465D7030AD7D7000E0001E56F000E9B
:10C1B000E66F000EE76F000EE86FFD0E846FA10EB4
:10C1C000856FA1C186F0A2C187F0A3C188F0A4C188
:10C1D00089F0000EE5258A6F080EE6218B6F06ECCC
:10C1E0008AF00001E36FE351E527000EE623E72321
:10C1F000E823490E846FA20E856F0101A55100014D
:10C20000866F876B886B896B000EE5258A6F080E39
:10C21000E6218B6F06EC8AF00001E36FE351E5271E
:10C22000000EE623E723E823120E846FA20E856F2B
:10C23000A6C186F0A7C187F0886B896B000EE52543
:10C240008A6F080EE6218B6F06EC8AF00001E36F1F
:10C25000E351E527000EE623E723E823BB0E846FB6
:10C26000A10E856FA8C186F0A9C187F0886B896B84
:10C27000000EE5258A6F080EE6218B6F06EC8AF02A
:10C280000001E36FE351E527000EE623E723E823EF
:10C29000970E846FA20E856FAAC186F0ABC187F09E
:10C2A000886B896B000EE5258A6F080EE6218B6F7F
:10C2B00006EC8AF00001E36FE351E527000EE62368
:10C2C000E723E823890E846FA20E856FACC186F048
:10C2D000ADC187F0886B896B000EE5258A6F080E6B
:10C2E000E6218B6F06EC8AF00001E36FE351E5274E
:10C2F000000EE623E723E823370E846FA20E856F36
:10C30000AEC186F0AFC187F0886B896B000EE52562
:10C310008A6F080EE6218B6F06EC8AF00001E36F4E
:10C32000E351E527000EE623E723E823250E846F7B
:10C33000A20E856FB0C186F0B1C187F0886B896BA2
:10C34000000EE5258A6F080EE6218B6F06EC8AF059
:10C350000001E36FE351E527000EE623E723E8231E
:10C36000E80E846FA10E856FB2C186F0B3C187F06D
:10C37000886B896B000EE5258A6F080EE6218B6FAE
:10C3800006EC8AF00001E36FE351E527000EE62397
:10C39000E723E823D30E846FA10E856FB4C186F026
:10C3A000B5C187F0886B896B000EE5258A6F080E92
:10C3B000E6218B6F06EC8AF00001E36FE351E5277D
:10C3C000000EE623E723E8236D0E846FA20E856F2F
:10C3D0000101BA510001866F876B886B896B000E73
:10C3E000E5258A6F080EE6218B6F06EC8AF00001C6
:10C3F000E36FE351E527000EE623E723E823B20EBF
:10C40000846FA20E856FBBC186F0BCC187F0886BBC
:10C41000896B000EE5258A6F080EE6218B6F06EC0E
:10C420008AF00001E36FE351E527000EE623E723DE
:10C43000E823A50E846FA20E856F0101B75100019C
:10C44000866F876B886B896B000EE5258A6F080EF7
:10C45000E6218B6F06EC8AF00001E36FE351E527DC
:10C46000000EE623E723E823BC0E846FA20E856F3F
:10C47000B8C186F0B9C187F0886B896B000EE525DD
:10C480008A6F080EE6218B6F06EC8AF00001E36FDD
:10C49000E351E527000EE623E723E8237B0E846FB4
:10C4A000A20E856F0101B6510001866F876B886B04
:10C4B000896B000EE5258A6F080EE6218B6F06EC6E
:10C4C0008AF00001E36FE351E527000EE623E7233E
:10C4D000E823C00E8B6F020E8C6FD00E8D6F020E94
:10C4E0008E6FE0EC8CF00001E46FE429D8A415D045
:10C4F000C00EAC6F020EAD6FD00EAE6F020EAF6FFE
:10C50000E5C0B0F0E6C0B1F0E7C0B2F0E8C0B3F00B
:10C5100045EC80F00001E46F0BD0E5C0ACF0E6C064
:10C52000ADF0E7C0AEF0E8C0AFF0E4518AEC88F0BF
:10C53000000E0001A16F000EA26F000EA36F000E8F
:10C54000A46FE5C0A5F0E6C0A6F0000EA76F080E28
:10C55000A86FE4511EEC73F0120000019A6F9AC0AC
:10C5600055F100018F51901191119211D8A40AD068
:10C57000000E0101276F000E286F000E296FFF0EBD
:10C580002A6F08D08FC027F190C028F191C029F1FF
:10C5900092C02AF101015529D8A471D0BA51D8B45A
:10C5A0006ED019EC8FF00101BB517C5DBC517D59FF
:10C5B000D8A014D021EEBBF0DECF96F0DDCF97F0FF
:10C5C0000001961F971F964B972B01017C5100018C
:10C5D00096259B6F01017D51000117D021EEBBF024
:10C5E000DECF96F0DDCF97F00001961F971F964B98
:10C5F000972B01017C510001962701017D5100011B
:10C600009723A00E96259B6F8C0E97219C6F9BC045
:10C6100087F09CC088F0C7EC8DF087C09DF088C083
:10C620009EF089C09FF08AC0A0F000019505D8A4B3
:10C630000CD00101A65100019D270101A751000165
:10C640009E23000E9F23000EA0230101275100010D
:10C650009D5D0101285100019E59010129510001F0
:10C660009F5901012A510001A059D8B008D09DC09E
:10C6700027F19EC028F19FC029F1A0C02AF1010135
:10C680005505D8A461D0B751D8B45ED019EC8FF05D
:10C6900001017C51B85D7D51B959D8A014D021EE6B
:10C6A0007CF0DECF96F0DDCF97F00001961F971F4C
:10C6B000964B972B0101B851000196259B6F010104
:10C6C000B951000117D021EE7CF0DECF96F0DDCF1E
:10C6D00097F00001961F971F964B972B0101B851B9
:10C6E000000196270101B95100019723A00E96255C
:10C6F0009B6F8C0E97219C6F9BC087F09CC088F02D
:10C70000C7EC8DF087C09DF088C09EF089C09FF077
:10C710008AC0A0F00101275100019D5D010128514F
:10C7200000019E590101295100019F5901012A511F
:10C730000001A059D8B008D09DC027F19EC028F1B3
:10C740009FC029F1A0C02AF1010127512811291108
:10C750002A11D8B41200000193519411D8A405D025
:10C76000ACC13FF1ADC140F104D093C03FF194C0E2
:10C7700040F1000EFF6F000EFE6F000E586E000EAF
:10C78000596E000E5A6E000E5B6E630EF66E940EBE
:10C79000F76E000EF86E0900F5CF96F00900F5CFA0
:10C7A00097F096C026F297C027F20201286B296BFA
:10C7B000BA90BA92BA94BA968A9000019A29D8A4EB
:10C7C00005D00101A551D8B405D006D00101A5516D
:10C7D000D8B402D08A9401D08A848A82010E582665
:10C7E000000E59225A225B2255510001966F000E0D
:10C7F00096BFFF0E976F986F996F9651010178273A
:10C8000000019751010179230001985101017A2318
:10C810000001995101017B23A151781912E1A25124
:10C8200079190FE1A3517A190CE1A4517B19D8A40D
:10C8300008D0000E786F000E796F000E7A6F000E30
:10C840007B6F782913E1792911E17A290FE17B299E
:10C85000D8A40CD0FF0EA125786FFF0EA221796F0E
:10C86000FF0EA3217A6FFF0EA4217B6F550EA76EDA
:10C87000AA0EA76E0E01BF91000EC46F550EA76ED3
:10C88000AA0EA76EBF81000E0101566FFD0E0001BA
:10C89000FE25F66E9B0EFF21F76EF86A000EF82259
:10C8A0000800F5CF96F0CA509619FC0B9619CA6E7F
:10C8B000160EFE25F66E9A0EFF21F76EF86A000E30
:10C8C000F8220800F5CFCBFF2F0EFE25F66E980E4E
:10C8D000FF21F76EF86A000EF8220800F5CF96F0F7
:10C8E000964796479647CA509619870B9619CA6E6F
:10C8F000D890CB30BB6E9E929D82000ECC6ECA84C7
:10C90000010E01017F6F12007AC061F07BC062F0FE
:10C91000FD0E0001636FA10E646FC4ECA2F0000174
:10C9200061516211D8A40FD07CC06CF07DC06DF055
:10C9300088EC89F06CC0A1F16DC0A2F16EC0A3F1CA
:10C940006FC0A4F112007AC061F07BC062F0120ED9
:10C950000001636FA20E646FC4ECA2F0000161518C
:10C960006211D8A40BD07CC066F07DC067F066EC85
:10C9700090F066C0A6F167C0A7F112007AC061F01E
:10C980007BC062F0490E0001636FA20E646FC4ECBD
:10C99000A2F0000161516211D8A40BD07CC06CF0F0
:10C9A0007DC06DF088EC89F000016C510101A56F2C
:10C9B00012007AC061F07BC062F0120E0001636F5A
:10C9C000A20E646FC4ECA2F0000161516211D8A400
:10C9D0000BD07CC066F07DC067F066EC90F066C05E
:10C9E000A6F167C0A7F112007AC061F07BC062F0C7
:10C9F000BB0E0001636FA10E646FC4ECA2F00001D6
:10CA000061516211D8A40BD07CC066F07DC067F084
:10CA100066EC90F066C0A8F167C0A9F112007AC078
:10CA200061F07BC062F0970E0001636FA20E646F2D
:10CA3000C4ECA2F0000161516211D8A40BD07CC0FB
:10CA400066F07DC067F066EC90F066C0AAF167C042
:10CA5000ABF112007AC061F07BC062F0890E000178
:10CA6000636FA20E646FC4ECA2F000016151621109
:10CA7000D8A40BD07CC066F07DC067F066EC90F067
:10CA800066C0ACF167C0ADF112007AC061F07BC046
:10CA900062F0370E0001636FA20E646FC4ECA2F067
:10CAA000000161516211D8A40BD07CC066F07DC03A
:10CAB00067F066EC90F066C0AEF167C0AFF11200AF
:10CAC0007AC061F07BC062F0250E0001636FA20E98
:10CAD000646FC4ECA2F0000161516211D8A40BD0C4
:10CAE0007CC066F07DC067F066EC90F066C0B0F187
:10CAF00067C0B1F112007AC061F07BC062F0E80E4D
:10CB00000001636FA10E646FC4ECA2F000016151DB
:10CB10006211D8A40BD07CC066F07DC067F066ECD3
:10CB200090F066C0B2F167C0B3F112007AC061F054
:10CB30007BC062F0D30E0001636FA10E646FC4EC82
:10CB4000A2F0000161516211D8A40BD07CC066F044
:10CB50007DC067F066EC90F066C0B4F167C0B5F1D7
:10CB600012007AC061F07BC062F07B0E0001636F3F
:10CB7000A20E646FC4ECA2F0000161516211D8A44E
:10CB80000BD07CC066F07DC067F066EC90F00001D1
:10CB900066510101B66F12007AC061F07BC062F08D
:10CBA000A50E0001636FA20E646FC4ECA2F0000139
:10CBB00061516211D8A40BD07CC06CF07DC06DF0C7
:10CBC00088EC89F000016C510101B76F12007AC046
:10CBD00061F07BC062F0BC0E0001636FA20E646F57
:10CBE000C4ECA2F0000161516211D8A40BD07CC04A
:10CBF0006CF07DC06DF088EC89F06CC0B8F16DC050
:10CC0000B9F112007AC061F07BC062F06D0E0001D4
:10CC1000636FA20E646FC4ECA2F000016151621157
:10CC2000D8A40BD07CC06CF07DC06DF088EC89F08E
:10CC300000016C510101BA6F12007AC061F07BC033
:10CC400062F0B20E0001636FA20E646FC4ECA2F03A
:10CC5000000161516211D8A412007CC06CF07DC04B
:10CC60006DF088EC89F06CC0BBF16DC0BCF11200B6
:10CC700001017F51D8A412000001A95101017819C6
:10CC800010E10001AA51010179190BE10001AB513A
:10CC900001017A1906E10001AC5101017B19D8B4F8
:10CCA0001200000E0001B56F000EB66F000EB76FD8
:10CCB000000EB86F78C1ADF079C1AEF07AC1AFF0B7
:10CCC0007BC1B0F0AD1FAE1FAF1FB01FAD2B000E6C
:10CCD000AE23AF23B023A951AD25BD6FAA51AE211C
:10CCE000BE6FAB51AF21BF6FAC51B021C06FBD5112
:10CCF0000101A15D0001BE510101A2590001BF5116
:10CD00000101A3590001C0510101A459D8B00FD0AD
:10CD1000A1510001BD270101A2510001BE23010163
:10CD2000A3510001BF230101A4510001C02301014F
:10CD30008329D8A423D0A6510001BD270101A75102
:10CD40000001BE23000EBF23000EC0230101A65127
:10CD50000001B5270101A7510001B623000EB7233A
:10CD6000000EB8230101A8510001B5270101A95106
:10CD70000001B623000EB723000EB823000E0001F9
:10CD8000B96F000EBA6F000EBB6F000EBC6FA9C06A
:10CD9000ADF0AAC0AEF0ABC0AFF0ACC0B0F0AD1F0C
:10CDA000AE1FAF1FB01FAD2B000EAE23AF23B023BD
:10CDB000010178510001AD25C16F010179510001D8
:10CDC000AE21C26F01017A510001AF21C36F010191
:10CDD0007B510001B021C46FC1510101A15D00016F
:10CDE000C2510101A2590001C3510101A35900011F
:10CDF000C4510101A459D8B00FD0A1510001C127DD
:10CE00000101A2510001C2230101A3510001C3236A
:10CE10000101A4510001C42301018305D8A423D03A
:10CE2000A6510001C1270101A7510001C223000E34
:10CE3000C323000EC4230101A6510001B92701013B
:10CE4000A7510001BA23000EBB23000EBC23010131
:10CE5000A8510001B9270101A9510001BA23000E10
:10CE6000BB23000EBC230001B951C125AD6FBA51DF
:10CE7000C221AE6FBB51C321AF6FBC51C421B06F93
:10CE8000B551BD25B16FB651BE21B26FB751BF21AB
:10CE9000B36FB851C021B46FAD51B15DAE51B2594D
:10CEA000AF51B359B051B459D8B04BD0010183053B
:10CEB000D8A419D00001BD51BE11BF11C011D8B402
:10CEC0001200BDC0A1F0BEC0A2F0BFC0A3F0C0C0A0
:10CED000A4F0000EA66F000EA56F000EA76F010E46
:10CEE00048EC93F012000001BD51BE11BF11C011FA
:10CEF000D8B411D0BDC0A1F0BEC0A2F0BFC0A3F095
:10CF0000C0C0A4F0000EA66F000EA56F010EA76FA3
:10CF1000010E48EC93F00101A651A711D8B41200FC
:10CF2000A6C1A1F0A7C1A2F00001A36BA46B000EE3
:10CF3000A66F000EA56F000EA76FFF0E48EC93F0D2
:10CF4000120001018329D8A419D00001C151C211D6
:10CF5000C311C411D8B41200C1C0A1F0C2C0A2F064
:10CF6000C3C0A3F0C4C0A4F0000EA66F000EA56F4E
:10CF7000000EA76FFF0E48EC93F012000001C151A4
:10CF8000C211C311C411D8B411D0C1C0A1F0C2C024
:10CF9000A2F0C3C0A3F0C4C0A4F0000EA66F000EA0
:10CFA000A56F010EA76FFF0E48EC93F00101A6518B
:10CFB000A711D8B41200A6C1A1F0A7C1A2F0000128
:10CFC000A36BA46B000EA66F000EA56F000EA76FDB
:10CFD000010E48EC93F0120000017151800B7A6F42
:10CFE00071517125806F70BF80818051D8B40DD090
:10CFF0008029D8A408D0000E6E6F000E6F6F000E4F
:10D00000706F000E716F708F08D0000E6E6F000E83
:10D010006F6F000E706F000E716F7551800B7A1B71
:10D02000755175257F6F74BF7F817F51D8B40DD046
:10D030007F29D8A408D0000E726F000E736F000E07
:10D04000746F000E756F748F08D0000E726F000E33
:10D05000736F000E746F000E756F7F51D8B403D0DC
:10D060008051D8A409D0000E6E6F000E6F6F000EB5
:10D07000706F000E716F120074516E03F3CF85F064
:10D08000F4CF86F085517B6F7C6B7D6B7E6B865118
:10D09000816F826B836B846B73516F03F3CF85F069
:10D0A000F4CF86F085517B27000E7C237D237E23E1
:10D0B00086518127000E82238323842372517003BB
:10D0C000F3CF85F0F4CF86F085517B27000E7C23CB
:10D0D0007D237E2386518127000E82238323842390
:10D0E0007DC07EF07CC07DF07BC07CF07B6B72519C
:10D0F0006F03F3CF85F0F4CF86F085517B278651FF
:10D100007C23000E7D23000E7E2373516E03F3CF2C
:10D1100085F0F4CF86F085517B2786517C23000E65
:10D120007D23000E7E237DC07EF07CC07DF07BC021
:10D130007CF07B6B72516E03F3CF85F0F4CF86F0F9
:10D1400085517B2786517C23000E7D23000E7E2394
:10D1500074516F03F3CF85F0F4CF86F085518127AA
:10D1600086518223000E8323000E842373517003A3
:10D17000F3CF85F0F4CF86F0855181278651822345
:10D18000000E8323000E842374517003F3CF85F0C7
:10D19000F4CF86F08551766F8651776F786B796B17
:10D1A00078C079F077C078F076C077F0766B7651FA
:10D1B00081277751822378518323795184237BC03F
:10D1C00076F07CC077F07DC078F07EC079F0190EE3
:10D1D00005D0D8907933783377337633E82EF9D782
:10D1E0007651812777518223785183237951842383
:10D1F0007DC07EF07CC07DF07BC07CF07B6B7F517E
:10D2000080C076F0776B7627000E7723820E762526
:10D21000856FFF0E7721866F0FD0D89081378237C8
:10D22000833784377EBF8181D8907B377C377D37C9
:10D230007E378507D8A0860783AFEFD7000E7F6FB4
:10D240007EAF16D0FF0E7B15766FFF0E7C15776FC5
:10D25000FF0E7D15786F7F0E7E15796F76517711F1
:10D2600078117911D8A402D081A102D0010E7F6F6C
:10D270007F51D8B41FD0010E8127000E8223832353
:10D28000842384A117D081C076F082C077F083C058
:10D2900078F084C079F07935793378337733763321
:10D2A00076C081F077C082F078C083F079C084F0D6
:10D2B000854B862B86BF0DD0865103E18529D8A0EA
:10D2C00008D0000E816F000E826F800E836F7F0E7C
:10D2D00020D086BF05D086510EE18505D8B00BD091
:10D2E000000E816F000E826F000E836F000E846F40
:10D2F000000E7A6F0FD085C080F0FF0E8117FF0EF1
:10D3000082177F0E8317000E841780B1838FD89009
:10D310008031846F7A51841381C06EF082C06FF0C7
:10D3200083C070F084C071F0120000017551800B51
:10D33000826F75517525846F74BF84818451D8B410
:10D340000DD08429D8A408D0000E726F000E736F20
:10D35000000E746F000E756F748F06D0000E726F22
:10D36000000E736F000E746F000E756F7951800B95
:10D37000836F82518319D8A4828D79517925836F67
:10D3800078BF83818351D8B40DD08329D8A408D025
:10D39000000E766F000E776F000E786F000E796FBB
:10D3A000788F06D0000E766F000E776F000E786FC4
:10D3B000000E796F8451835DD8B022D082AD02D047
:10D3C000800E821B84C085F083C084F085C083F00A
:10D3D00072C085F076C072F085C076F073C085F0BB
:10D3E00077C073F085C077F074C085F078C074F0B2
:10D3F00085C078F075C085F079C075F085C079F08A
:10D40000000E856F84517A6F7B6B7A1F7B1F7A4B7E
:10D410007B2B83517C6F7D6B7A517C277B517D23E5
:10D420007DBF2CD07D5104E11A0E7C5DD8A026D0A2
:10D430007251731174117511D8B402D0010E01D05C
:10D44000000E856F000E726F000E736F000E746F0A
:10D45000000E756F83C084F015D085A105D0D890DB
:10D4600085310109856F02D0D890853372B1858FDF
:10D4700075357533743373337233842B8351845D04
:10D48000D8A0EBD782BD28D08451D8A409D0000EF3
:10D49000726F000E736F000E746F000E756F1200C6
:10D4A00076517227775173237851742379517523FC
:10D4B00075A182D085A105D0D89085310109856FED
:10D4C00002D0D890853372B1858F7535753374333A
:10D4D00073337233842B70D07651725D77517359E8
:10D4E000785174597551800A7A6F7951800A7A5946
:10D4F000D8B036D072C07AF073C07BF074C07CF0C4
:10D5000075C07DF07A1F7B1F7C1F7D1F7A2B000E5C
:10D510007B237C237D2376517A257E6F77517B2177
:10D520007F6F78517C21806F79517D21816FFF0E53
:10D530007E25726FFF0E7F21736FFF0E8021746F47
:10D54000FF0E8121756F800E821B856D8551D8A4D9
:10D550000FD0010E7227000E73237423752308D099
:10D560007651725F7751735B7851745B7951755B5B
:10D570007251731174117511D8A41CD08551D8A49F
:10D5800019D0000E726F000E736F000E746F000ED4
:10D59000756F1200D890723773377437753785BF3F
:10D5A000728185A102D0D88001D0D890853784516E
:10D5B000D8A4840774AFEED7000E836F85AF0AD06E
:10D5C00085C07AF07F0E7A17D8A402D072A102D05B
:10D5D000010E836F8351D8B420D0010E7227000E44
:10D5E00073237423752375A118D072C07AF073C0A9
:10D5F0007BF074C07CF075C07DF07D357D337C336D
:10D600007B337A337AC072F07BC073F07CC074F0E5
:10D610007DC075F08429D8A4842B8429D8B403D084
:10D620008451D8A40DD0000E726F000E736F000EDF
:10D63000746F000E756F8451D8A402D0000E826FF3
:10D6400084A102D0748F01D0749FD8908431756FFB
:10D6500082BF758F72C072F073C073F074C074F0C3
:10D6600075C075F0120060D111C22EF112C22DF1F9
:10D6700013C22CF114C22BF116C246F117C245F1A8
:10D68000455100018F6F010146510001906F916B70
:10D69000926B090ED8908F37903791379237E82EDA
:10D6A000F9D78FC06AF090C06BF091C06CF092C057
:10D6B0006DF05EEC84F00009D8A448D19EC260F001
:10D6C0009FC261F022EE98F001D80AD00500FA6EF0
:10D6D000DE50FD6EDE50FE6EDE50FF6EFA50120020
:10D6E0000009D8B417D0010E0D018C6F0101025151
:10D6F000F00B0709026F270E0C6F000E0D6F000E66
:10D700000001606F020E7EEC86F0000E0101606F7A
:10D7100060511200010E0101636F45514611D8A4FA
:10D7200002D0000EFFD0030E606F000E4D6F060E8C
:10D730004E6F000E0D01886F020E896F000E8A6F0A
:10D74000000E8B6F0D01885189118A118B11D8B48D
:10D750001FD001014B514C11D8B406D04BC1D9FF99
:10D760004CC1DAFFDFBEF2D0000E0001606F4DC188
:10D7700061F04EC162F0400E636F020E03EC87F061
:10D7800060C04BF161C04CF1040E0101606F23D009
:10D790009EC260F09FC261F022EE98F001D80AD0DC
:10D7A0000500FA6EDE50FD6EDE50FE6EDE50FF6E3E
:10D7B000FA5012000009D8B40CD0010E0D018C6F84
:10D7C00001010251F00B0209026F270E0C6F000ECF
:10D7D0000D6F020EA6D04B514C11D8B406D04BC1E0
:10D7E000D9FF4CC1DAFFDFBEB1D020EE01F04B51C2
:10D7F000D9264C51DA22DF5000018F6F8FC090F094
:10D80000916B926B936B90510201085F00019151F3
:10D810000201095B0001925102010A5B0001935170
:10D8200002010B5B010120EE01F04B51D9264C5156
:10D83000DA22DF5000018F6F8FC090F0916B926BF6
:10D84000936B90510D01885F000191510D01895B2F
:10D85000000192510D018A5B000193510D018B5B18
:10D86000400E01014D27000E4E23030E5BD00D012B
:10D870008C51D8A440D09EC284F09FC285F02BC1A9
:10D8800086F02CC187F02DC188F02EC189F0000EE2
:10D8900000018A6F060E8B6F01012B512C112D1187
:10D8A0002E11D8A402D0010E01D0000E00018C6F01
:10D8B00022EE9BF001D80AD00500FA6EDE50FD6E14
:10D8C000DE50FE6EDE50FF6EFA501200E806D8B44D
:10D8D00012D0640E01015F6102D05F2B37D0010EC0
:10D8E0000D018C6F01010251F00B0309026F000E54
:10D8F0000C6F000E0D6F010E01012B27000E2C2363
:10D900002D232E234507D8A04607010E0BD0020E6B
:10D910000D018C6F000E0001606F020E7EEC86F030
:10D92000000E0101606F12D001016051000AD8B4ED
:10D930009BD6010AD8B4F1D6030AD8B498D7010A05
:10D94000D8B400D7070AD8B446D7E1D7010160514F
:10D950001200000E0001A76F000EA66F97C0A2F084
:10D9600098C0A3F0000E9E6F020E9D6F000EA16F77
:10D9700095519611D8A424D097519811D8B420D09D
:10D980009DC08BF09EC08CF0000E8E6F000E8D6FD0
:10D990007AEC92F08BC095F08CC096F095C060F058
:10D9A00096C061F0A1ECABF060C09DF061C09EF04C
:10D9B000000195519611D8A403D09569966912007B
:10D9C00095C0AAF096C0ABF003D1AAC060F0ABC07E
:10D9D00061F0A1ECABF060C0A4F061C0A5F0AAC0FA
:10D9E00060F0ABC061F0AEECABF060C0A8F061C01D
:10D9F000A9F00001A651A41904E1A751A519D8B4B2
:10DA000037D0A151D8B40AD0A6C07FF0A7C080F00B
:10DA1000000E816F0A0E826FF3ECA5F09DC08BF0B3
:10DA20009EC08CF0A4C08DF0A5C08EF07AEC92F070
:10DA30008BC09FF08CC0A0F09FC060F0A0C061F0D0
:10DA4000A1ECABF060C09DF061C09EF0A4C087F077
:10DA5000A5C088F0000E0001896F0A0E8A6FC0EC25
:10DA6000AAF0A4C0A6F0A5C0A7F0000E0001A16F07
:10DA7000A35104E1020EA25DD8A05ED0A8C060F060
:10DA8000A9C061F0000E626F0A0E636FDBECA6F0B6
:10DA900060C0AAF061C0ABF00001AB5104E1020E1E
:10DAA000AA5DD8A006D0DA0EAA5D1F0EAB59D8A089
:10DAB0006BD0020EA825606F000EA921616F000EC9
:10DAC000626F0A0E636F3AECA2F060C09BF061C017
:10DAD0009CF000019B2903E19C29D8B413D0FE0ED1
:10DAE000A625AA6FFF0EA721AB6FAA51AB6FAA6B39
:10DAF000D8909C319A6F9B31996F9951AA139A5182
:10DB0000AB130BD09F51A011D8A403D0956996698F
:10DB100012009FC0AAF0A0C0ABF0A8C060F0A9C0DE
:10DB200061F0000E626F0A0E636FAAC064F0ABC0B2
:10DB300065F0D9ECA8F025D0A205A311D8A428D06F
:10DB4000A8C060F0A9C061F0000E626F0A0E636F9A
:10DB5000DBECA6F060C0AAF061C0ABF00001AA291E
:10DB600003E1AB29D8B410D0A8C060F0A9C061F01F
:10DB7000000E626F0A0E636FFF0E656F6469D9EC69
:10DB8000A8F0010E0001A16FA207D8A0A30720D022
:10DB9000A8C060F0A9C061F0000E626F0A0E636F4A
:10DBA000DBECA6F060C0AAF061C0ABF0A8C060F0EA
:10DBB000A9C061F0000E0001626F0A0E636F000ED3
:10DBC000656F000E646FD9ECA8F0010E0001A16F23
:10DBD000A251A311D8A4F9D6AB5104E1020EAA5D5B
:10DBE000D8A006D0DA0EAA5D1F0EAB59D8A0EDD68C
:10DBF000A151D8B40AD0A6C07FF0A7C080F0000E13
:10DC0000816F0A0E826FF3ECA5F000019751981115
:10DC1000D8B405D095C095F096C096F01200000ECD
:10DC2000966F000E956F120000017151800B7E6F90
:10DC300071517125856F70BF85818551D8B40DD024
:10DC40008529D8A408D0000E6E6F000E6F6F000EED
:10DC5000706F000E716F708F06D0000E6E6F000E29
:10DC60006F6F000E706F000E716F7551800B7E1B11
:10DC700075517525866F74BF86818651D8B40DD0D5
:10DC80008629D8A408D0000E726F000E736F000EA4
:10DC9000746F000E756F748F06D0000E726F000ED9
:10DCA000736F000E746F000E756F725173117411E3
:10DCB0007511D8A417D0000E6E6F000E6F6F000E96
:10DCC000706F000E716F800E70137F0E71137E5196
:10DCD00071136EC06EF06FC06FF070C070F071C0E5
:10DCE00071F012008551D8A411D0000E6E6F000E95
:10DCF0006F6F000E706F000E716F6EC06EF06FC0B0
:10DD00006FF070C070F071C071F012008651766FC4
:10DD1000776B761F771F764B772B8551786F796BF2
:10DD200076517827775179237F0E78257F6F000E03
:10DD30007921806F6EC07AF06FC07BF070C07CF08C
:10DD400071C07DF0000E6E6F000E6F6F000E706F71
:10DD5000000E716F000E816F000E826F000E836FD8
:10DD6000000E846F000E866F28D08651D8B411D073
:10DD7000D8907A377B377C377D37D8906E376F37BE
:10DD80007037713784BF6E81D8908137823783377F
:10DD9000843772517A5D73517B5974517C59755136
:10DDA0007D59D8A009D0848D72517A5F73517B5B05
:10DDB00074517C5B75517D5B862B190E8665D5D7BA
:10DDC0007A517B117C117D11D8B411D081810FD093
:10DDD000D8906E376F377037713784BF6E81D890A7
:10DDE00081378237833784377F07D8A0800770AFA9
:10DDF000EFD7000E866F84AF16D0FF0E8115766FB9
:10DE0000FF0E8215776FFF0E8315786F7F0E8415D6
:10DE1000796F7651771178117911D8A402D06EA15B
:10DE200002D0010E866F8651D8B41FD0010E6E2726
:10DE3000000E6F237023712371A117D06EC076F08E
:10DE40006FC077F070C078F071C079F079357933B0
:10DE500078337733763376C06EF077C06FF078C062
:10DE600070F079C071F07F4B802B80BF10D0805153
:10DE700003E17F29D8A00BD0000E806F7F69000ED0
:10DE80006E6F000E6F6F000E706F000E716F80BFAF
:10DE900005D0805111E17F05D8B00ED0000E806F03
:10DEA000000E7F6F000E6E6F000E6F6F000E706FB2
:10DEB000000E716F000E7E6F7FC085F085A102D0CD
:10DEC000708F01D0709FD8908531716F7E51711322
:10DED0006EC06EF06FC06FF070C070F071C071F006
:10DEE00012000D013205D8A40FD030511F0B0009CC
:10DEF000D8A40AD0558E030E3119D8A402D0010E31
:10DF000001D0000E01016E6F0D013251D8A4120034
:10DF100030511F0B020AD8A4120034510F0B000914
:10DF2000D8B4120034510F0B186E030E1860120093
:10DF3000200E5E18D8A41200558E34BF19D034516B
:10DF40000F0B186E1850020D210EF324D96E010E1E
:10DF5000F420DA6EDECF1CF0DDCF1DF034510F0B54
:10DF6000186E1850010D390EF324D96E010E18D019
:10DF700034510F0B186E1850020D1B0EF324D96E7E
:10DF8000010EF420DA6EDECF1CF0DDCF1DF034512F
:10DF90000F0B186E1850010D3C0EF324D96E010EB4
:10DFA000F420DA6EDF501B6E1BB006D0FB0E1C1483
:10DFB0001C6EFF0E1D1404D0040E1C101C6E1D5090
:10DFC0001D6E34BF0AD034510F0B186E1850020D5D
:10DFD000210EF324D96E010E09D034510F0B186EA7
:10DFE0001850020D1B0EF324D96E010EF420DA6EC8
:10DFF0001CC0DEFF1DC0DDFF030E3119D8A42DD0DB
:10E000001CC0D9FF1DC0DAFFDFAE1AD034BF0AD062
:10E0100034510F0B186E1850010D390EF324D96EC0
:10E02000010E0AD00D0134510F0B186E1850010D5E
:10E030003C0EF324D96E010EF420DA6E0101DF826A
:10E040001CC0D9FF1DC0DAFF000EDB841CC0D9FF45
:10E050001DC0DAFF000EDB8E1200040E1C181C6EB1
:10E060001D501D6E1CC0D9FF1DC0DAFFDFAE1BD0D6
:10E070001CC0D9FF1DC0DAFF7F0EDF161CC0D9FF00
:10E080001DC0DAFF000EDB8C000E116E050E106E47
:10E090001CC012F01DC013F0000E156E020E146E9F
:10E0A000B5EC9CF006D01CC0D9FF1DC0DAFF000EF5
:10E0B000DB8C040E1C181C6E1D501D6E1BB206D08E
:10E0C0001CC0D9FF1DC0DAFFDFAE30D00D0134BF58
:10E0D0000AD034510F0B186E1850010D390EF3246D
:10E0E000D96E010E0AD00D0134510F0B186E185065
:10E0F000010D3C0EF324D96E010EF420DA6E0101FD
:10E10000DF921CC0D9FF1DC0DAFF3B0EDF16000EE8
:10E11000116E050E106E1CC012F01DC013F0000E23
:10E12000156E020E146EB5EC9CF006D01CC0D9FF23
:10E130001DC0DAFF3B0EDF160D0134510F0B186EB8
:10E140001850010D260EF324196E0F0EF4201A6ECE
:10E1500019C0D9FF1AC0DAFFFE0EDF16120098D0E0
:10E16000EB0E12003C0E1200900E12000B0EF66E1B
:10E17000A30EF76E000EF86E0800F55012000C0E9C
:10E18000F66EA30EF76E000EF86E0800F550120042
:10E190000D0EF66EA30EF76E000EF86E0800F55029
:10E1A00012000E0EF66EA30EF76E000EF86E08004B
:10E1B000F55012000F0EF66EA30EF76E000EF86EFD
:10E1C0000800F5501200100EF66EA30EF76E000E4A
:10E1D000F86E0800F5501200110EF66EA30EF76EE1
:10E1E000000EF86E0800F5501200120EF66EA30E27
:10E1F000F76E000EF86E0800F5501200000E1200C7
:10E20000020E1200010E1200010E1200000E12008A
:10E21000010E1200400E1200000E1200FF0E12003E
:10E220001F0E1200F80E1200200E1200000E120037
:10E230003F0E1200000E1200100E1200000E12000F
:10E24000000E1200000E1200000E1200000E12004E
:10E25000010E1200000E1200220E1200000E12001B
:10E26000000E1200460E1200410E1200540E120053
:10E27000310E1200360E1200200E1200200E120077
:10E28000200E1200550E1200AA0E1200000E1200EF
:10E2900060C062F061C063F000016351000AD8B44D
:10E2A00004D0010AD8B48DD0F1D76251000AD8B495
:10E2B00057D7010AD8B456D7030AD8B455D7010A9C
:10E2C000D8B454D7070AD8B45AD7010AD8B460D7FB
:10E2D000030AD8B466D7010AD8B46CD70F0AD8B4E9
:10E2E00072D7010AD8B478D7030AD8B47ED7010A06
:10E2F000D8B484D7070AD8B483D7010AD8B482D750
:10E30000030AD8B481D7010AD8B480D71F0AD8B479
:10E310007FD7010AD8B47ED7030AD8B47DD7010AC3
:10E32000D8B47CD7070AD8B47BD7010AD8B47AD737
:10E33000030AD8B479D7010AD8B478D70F0AD8B469
:10E3400077D7010AD8B476D7030AD8B475D7010AAB
:10E35000D8B474D7070AD8B473D7010AD8B472D71F
:10E36000030AD8B471D7010AD8B470D7370AD8B421
:10E370006FD7010AD8B46ED7050AD8B46DD7010A91
:10E38000D8B46CD7030AD8B46BD7010AD8B468D70D
:10E39000190AD8B467D7010AD8B466D70F0AD8B417
:10E3A00065D7010AD8B464D7030AD8B463D7010A81
:10E3B000D8B462D7070AD8B461D7010AD8B460D7F5
:10E3C00065D76251FE0AD8B45DD7010AD8B45CD7CC
:10E3D0005DD7200E5E18D8A41200A0981ED10101AE
:10E3E0004B514C11D8B406D04BC1D9FF4CC1DAFF08
:10E3F000DFBE22D1000E0001B16F1E0EB16501D04B
:10E4000014D0B151010D400EF324D96E0D0EF4203D
:10E41000DA6EB151010D000EF324E16E020EF4200C
:10E42000E26EDFCFE7FFB12BE8D7010120EE01F06C
:10E430004B51D9264C51DA221F0EDE18D8A477D0C2
:10E44000550E0201001973E1530E011970E1420EDD
:10E4500002196DE1430E0319D8A469D0010E010120
:10E460005B6F02010D51D8A455D0110E0E6152D030
:10E470000E51D8B44FD00CC2ACF03F0E0001AC1717
:10E48000D8A448D0550E0D01806F530E816F420EF7
:10E49000826F530E836F04C284FD05C285FD06C2E0
:10E4A00086FD07C287FD000E886F000E896F000E83
:10E4B0008A6F000E8B6F000E8C6F01016269000E77
:10E4C000616F000E606F000E5F6F030E02010F1987
:10E4D000D8B409D001010291029302950297000E6F
:10E4E0000C6F000E0D6F02010CAF02D0010E01D0B7
:10E4F000020E0101636F0201085109110A110B118B
:10E50000D8B402D0000E01D0010E01015C6F0FC221
:10E5100062F192D0010E0001606F020E7EEC86F077
:10E52000000E0001606F020E7EEC86F085D0010EB9
:10E530000001606F020E7EEC86F0000E0001606F3D
:10E54000020E7EEC86F0000E01015B6F75D080EC50
:10E5500081F0FF0AD8A470D011D080EC81F0FF0ABE
:10E56000D8A46AD00D018C51D8A408D08851891143
:10E570008A118B11D8B402D0020E8C6F030E3ED0DC
:10E580001FC1ADF020C1AEF00001AD51AE11D8B445
:10E590000AD01FC1AFF020C1B0F0AFC0D9FFB0C0EA
:10E5A000DAFFDFBE49D0010E606F800E616F0D0E85
:10E5B000626F0D0E636F020E03EC87F060C049F1CD
:10E5C00061C04AF101014B514C11D8B406D04BC186
:10E5D000D9FF4CC1DAFFDFBE10D0000E0001606F22
:10E5E000400E616F0D0E626F400E636F020E03EC02
:10E5F00087F060C04BF161C04CF1000E0101636F08
:10E600001BD0000E636F020E0D018C6F000E000117
:10E61000606F020E7EEC86F00FD001016351000A9C
:10E62000D8B4DDD6010AD8B492D7030AD8B495D7A6
:10E63000010AD8B4A5D7E5D7A08812000001B76FAA
:10E64000C30E00018F6F000E906FB75179EC9EF0F2
:10E650000001B86FB851D8A41200A151DF5DA251DA
:10E66000E059A351E159A451E259D8A01200A55193
:10E67000A125A96FA651A221AA6F000EA321AB6FFD
:10E68000000EA421AC6FA951DF5DAA51E059AB5136
:10E69000E159AC51E259D8B00ED0A1C0A9F0A2C046
:10E6A000AAF0A91FAA1FA94BAA2BDF51A925A56F64
:10E6B000E051AA21A66FDDC097F0DEC098F0A1C09E
:10E6C000A9F0A2C0AAF0A3C0ABF0A4C0ACF00A0E9F
:10E6D00005D0D890AC33AB33AA33A933E82EF9D7A1
:10E6E000A9C099F0AAC09AF09CEC98F097C0B9F034
:10E6F00098C0BAF0000E0001A115BF6FFE0EA21562
:10E70000C06FFF0EA315C16FFF0EA415C26FBFC06F
:10E71000A9F0C0C0AAF0A91FAA1FA94BAA2BA151FA
:10E72000A925BB6FA251AA21BC6F000EBF6F000EBE
:10E73000C06F000EC16F000EC26F89D0020EBC19EF
:10E74000BB11D8A40FD0B9C08FF0BAC090F078EC4C
:10E75000A3F08FC0B9F090C0BAF0000E0001BC6FFA
:10E76000000EBB6FB9C060F0BAC061F014ECACF041
:10E7700060C0B5F061C0B6F0BBC0A9F0BCC0AAF0E3
:10E780000001A91FAA1FA94BAA2B000EA925BD6F26
:10E79000020EAA21BE6FBD51A96FBE51AA6FAB6B0D
:10E7A000AC6BBFC0ADF0C0C0AEF0C1C0AFF0C2C076
:10E7B000B0F0AD1FAE1FAF1FB01FAD2B000EAE23CC
:10E7C000AF23B023A551AD25B16FA651AE21B26FD5
:10E7D000000EAF21B36F000EB021B46FA951B15D2F
:10E7E000AA51B259AB51B359AC51B459D8B00ED0AB
:10E7F000BFC0A9F0C0C0AAF0A91FAA1FA94BAA2B8D
:10E80000A551A925BD6FA651AA21BE6FB5C07FF045
:10E81000B6C080F0BBC081F0BCC082F0BDC083F048
:10E82000BEC084F0BF51A725856FC051A821866F57
:10E830000EECA0F00001BD51BF27BE51C023000E59
:10E84000C123000EC223BD51BB27BE51BC23A5511D
:10E85000A96FA651AA6FAB6BAC6BA951BF5DAA5152
:10E86000C059AB51C159AC51C259D8B0120066D78A
:10E87000A1C0AFF0A2C0B0F0A3C0B1F0A4C0B2F08C
:10E880000A0E06D00001D890B233B133B033AF33A3
:10E89000E82EF8D7AFC0C1F0B0C0C2F0ADC0D9FF0C
:10E8A000AEC0DAFFDE50C15DDE50C259D8B002D032
:10E8B000FF0E1200ABC0D9FFACC0DAFFDECF97F07D
:10E8C000DDCF98F0ADC0D9FFAEC0DAFFDECFAFF03C
:10E8D000DDCFB0F0AF1FB01FAF4BB02BC151AF2594
:10E8E000996FC251B0219A6F9CEC98F0ABC0D9FFE0
:10E8F000ACC0DAFF000197C0DEFF98C0DDFFADC0FD
:10E90000D9FFAEC0DAFFC1C0DEFFC2C0DDFFABC0C1
:10E91000D9FFACC0DAFFDECFBDF0DDCFBEF0C1C0A5
:10E92000AFF0C2C0B0F0090ED890AF37B037E82EC4
:10E93000FBD7AFC0C5F0B0C0C6F0C76BC86BC5C0D1
:10E94000AFF0C6C0B0F0AF1FB01FAF4BB02BA1519E
:10E95000AF25BF6FA251B021C06F000EC56F000E72
:10E96000C66F000EC76F000EC86F89D0020EC019A7
:10E97000BF11D8A40FD0BDC08FF0BEC090F078EC0E
:10E98000A3F08FC0BDF090C0BEF0000E0001C06FBC
:10E99000000EBF6FBDC060F0BEC061F014ECACF003
:10E9A00060C0BBF061C0BCF0BFC0AFF0C0C0B0F091
:10E9B0000001AF1FB01FAF4BB02B000EAF25C36FD0
:10E9C000020EB021C46FC351AF6FC451B06FB16BB1
:10E9D000B26BC5C0B3F0C6C0B4F0C7C0B5F0C8C014
:10E9E000B6F0B31FB41FB51FB61FB32B000EB42370
:10E9F000B523B623A551B325B76FA651B421B86F7F
:10EA0000A751B521B96FA851B621BA6FAF51B75D03
:10EA1000B051B859B151B959B251BA59D8B00ED054
:10EA2000C5C0AFF0C6C0B0F0AF1FB01FAF4BB02B2A
:10EA3000A551AF25C36FA651B021C46FBBC087F0ED
:10EA4000BCC088F0BFC089F0C0C08AF0C3C08BF0E2
:10EA5000C4C08CF0C551A9258D6FC651AA218E6FF7
:10EA6000D4ECAAF00001C351C527C451C623000E3F
:10EA7000C723000EC823C351BF27C451C023A551CB
:10EA8000C55DA651C659A751C759A851C859D8A0A4
:10EA90006DD7000E1200A00E0001706F000E716F96
:10EAA00095C072F096C073F0000E756F0A0E746F09
:10EAB00068ECA7F0A00E0001606F000E616F0EEC15
:10EAC000A8F000016051AA6F96AF54D0AA51000877
:10EAD0009725020FAB6FAB51800A7F0FD8A090D063
