:020000040000FA
:0490000043EF48F002
:109008005B82FACF4DF0FBCF4EF0E9CF4FF0EACFBD
:1090180050F0E1CF51F0E2CF52F0D9CF53F0DACF90
:1090280054F0F3CF55F0F4CF56F0F6CF57F0F7CF12
:1090380058F0F8CF59F0F5CF5AF0E8EC66F039EC73
:1090480079F05AC0F5FF59C0F8FF58C0F7FF57C06C
:10905800F6FF56C0F4FF55C0F3FF54C0DAFF53C003
:10906800D9FF52C0E2FF51C0E1FF50C0EAFF4FC034
:10907800E9FF4EC0FBFF4DC0FAFF5B9211004BEFBA
:1090880074F00008000C0010001300160019001CF2
:10909800001E0021002300260028002A002C002E94
:1090A80000300032003400360038003A003C003D01
:1090B800003F004100430045004600480049004B7E
:1090C800004D004E00500051005300540056005708
:1090D8000059005A005C005D005F00600062006398
:1090E8000064006600670069006A006C006D006E2D
:1090F80000700071007200730074007600780079C7
:10910800007A007B007D007E007F0082008500875A
:10911800008A008C008F0091009200940098009AB9
:10912800009C009E00A100A300A500A700AA00AC17
:1091380000AF00B200B400B700B800BA00BC00BE6F
:1091480000C000C300C400C600C800CA00CC00CEDE
:1091580000D000D200D400D600D800D900DB00DD52
:1091680000DF00E100E200E500E700E800EA00ECCB
:1091780000EE00EF00F200F300F500F700F800FB46
:1091880000FD0000010301040107010A010C010FA1
:109198000112011401170119011C011E01210123EB
:1091A80001250129012B012C012E01320134013640
:1091B8000138013B013D013F014301460148014A95
:1091C800014C014F0151015401560159015B015EE7
:1091D8000160016301660169016B016E017101742F
:1091E8000177017A017D018001830187018A018D60
:1091F800019101940198019B019F01A301A601AA75
:1092080001AE01B201B601BA01BE01C301C701CC6A
:1092180001D001D501D901DE01E301E801ED01F337
:1092280001F801FE01030209020F0215021B0221C7
:109238000227022E0235023C0243024A0251025919
:1092480002610269027102790282028B0294029E13
:1092580002A702B102BC02C602D102DC02DC02DFB4
:1092680002E202E502E802EB02EE02F102F402F782
:1092780002FA02FD020003040307030A030D0311A7
:1092880003140317031A031E032103250328032CC1
:10929800032F03330336033A033E034103450349CF
:1092A800034D035003540358035C036003640368CD
:1092B800036C037003740379037D03810385038AB8
:1092C800038E03930397039C03A003A503AA03AE8D
:1092D80003B303B803BD03C203C603CC03D103D64B
:1092E80003DB03E003E503EB03F003F603FB0301F1
:1092F8000406040C04120417041D04230429042F73
:109308000436043C04420448044F0455045C0463D6
:10931800046A04700477047E0485048D0494049B15
:1093280004A304AA04B204BA04C204C904D204DA25
:1093380004E204EA04F304FC0404050D0516051F01
:1093480005280532053B0545054F05590563056D9B
:1093580005770582058C059705A205AD05B905C4F5
:1093680005D005DC05E805F40501060E061A0628F1
:10937800063506430650065E066D067B068A069984
:1093880006A906B806C806D806E906FA060B071C99
:10939800072E0740075307660779078D07A107B609
:1093A80007CB07E007F6070C0823083B0853086BB0
:1093B8000884089E08B808D308EF080B092809454F
:1093C8000964098309A309C409E609080A2C0A5192
:1093D8000A770A9D0AC50AEF0A190B450B720B7228
:1093E8000B7D0B890B940BA00BAC0BB80BC40BD0EB
:1093F8000BDC0BE90BF50B020C0E0C1B0C280C35C7
:109408000C420C4F0C5D0C6A0C770C850C930CA16C
:109418000CAF0CBD0CCB0CD90CE80CF70C050D14DB
:109428000D230D320D420D510D610D700D800D9003
:109438000DA00DB10DC10DD20DE30DF30D050E16E6
:109448000E270E390E4B0E5C0E6F0E810E930EA674
:109458000E010002000300040005000600070008D2
:109468000009000A000B000C000D000E000F001090
:109478000011001200130014001500160017001840
:109488000019001A001B001C001D001E001F0020F0
:1094980000210022002300240025002600270028A0
:1094A8000029002A002B002C002D002E002F003050
:1094B8000031003200330034003500360037003800
:1094C8000039003A003B003C003D003E003F0040B0
:1094D800004100420043004500470049004B004D51
:1094E800004F00510053005500570059005B005DC4
:1094F800005F00610063006500670069006B006E33
:1095080000700073007500770079007B007D007F94
:1095180000810083008500870089008B008D008F03
:1095280000910093009500970099009B009D009F73
:1095380000A100A300A500A700A900AB00AD00AFE3
:1095480000B100B300B500B700B900BB00BD00C052
:1095580000C300C600C900CC00CF00D200D500D897
:1095680000DB00DE00E100E400E700EA00ED00F0C7
:1095780000F300F600F900FC00FF000201050108F5
:10958800010B010E011101140117011A011D01201F
:1095980001230126012A012D013001330137013A47
:1095A800013E014201450149014D01510155015951
:1095B800015D01610166016A016E01730178017D37
:1095C80001820187018C01910196019C01A101A7EB
:1095D80001AD01B301B901BF01C601CC01D301DA64
:1095E80001E101E801F001F701FF0107020F02188C
:1095F8000221022A0233023D02470251025C02673D
:109608000272027E028A029702A402B202C002CF4C
:1096180002DF02EF02FF0211032303360349035E50
:109628000373038903A103B903D303DD03E403EA46
:1096380003F103F803FF0306040D0415041C0424B6
:10964800042B0433043B0442044A0452045A0463BE
:10965800046B0474047C0485048E0496049F04A996
:1096680004B204BB04C504CE04D804E204EC04F636
:109678000400050B05150520052B05360541054C8D
:1096880005580564056F057B0587059405A005AD9C
:1096980005BA05C705D405E205EF05FD050B061952
:1096A8000628063706460655066406740684069498
:1096B80006A406B506C606D706E906FA060C071F6D
:1096C800073107440758076B077F079307A807BDAB
:1096D80007D207E807FE0715082C0843085B08733C
:1096E800088B08A508BE08D808F2080D09290945FD
:1096F8000961097E099C09BA09D909F909190A39C0
:109708000A5B0A7D0A9F0AC30AE70A0C0B310B5849
:109718000B7F0BA70BD00BFA0B250C510C7E0CAB57
:109728000CDA0C0A0D3B0D6D0DA00DD40D0A0E417F
:109738000E790EB30EEE0E2A0F680FA80FE90F2C44
:10974800107010B610FE1048119411E211321285F3
:1097580012D91230138913E5134414A5140915708E
:1097680015DA154716B8162B17A3171E189D1821BA
:1097780019A819341AC41A5A1BF41B941C391DE46D
:109788001D951E4C1F0A20CE209A216E224A232E98
:10979800241B25122612271D283229532A812BBB68
:1097A8002C032E5A2FC0303632BD335735F535616C
:1097B80036CD363B37AA371B388C3800397439EA2E
:1097C80039623ADB3A553BD13B4E3CCD3C4E3DD01D
:1097D8003D543EDA3E613FEA3F744001418F411FEC
:1097E80042B1424543DB4373440D45A9454746E72B
:1097F8004689472E48D5487E49294AD74A874B3A51
:109808004CEF4CA64D614E1E4FDD4FA05065512DBB
:1098180052F852C65397546B5542561C57FA570C78
:109828000705040403030302020202020201010104
:109838000101010101010101010101010101010110
:109848000101010101010101010101010101010100
:1098580001010101010101010101010101010101F0
:1098680001010101010101010101010101010101E0
:1098780001010101010101010101000000000000D6
:1098880000000000000000000000000000000000D0
:1098980000000000000000000000000000000000C0
:1098A80000000000000000000000000000000000B0
:1098B80000000000000000000000000000000000A0
:1098C8000000000000000000000000000000000090
:1098D8000000000000000000000000000000000080
:1098E8000000000000000000000000000000000070
:1098F8000000000000000000000000000000000060
:10990800000000000000000000000000000000004F
:10991800000000000000000000000000000000003F
:10992800000000000000000000000000000000002F
:10993800000000000000000000000000000000001F
:10994800000000000000000000000000000000000F
:1099580000000000000000000000000000000000FF
:1099680000000000000000000000000000000000EF
:1099780000000000000000000000000000000000DF
:1099880000000000000000000000000000000000CF
:1099980000000000000000000000000000000000BF
:1099A80000000000000000000000000000000000AF
:1099B800000000000000000000000000000000009F
:1099C800000000000000000000000000000000008F
:1099D800000000000000000000000000000000007F
:1099E800000000000000000000000000000000006F
:1099F800000000000000000000000000000000005F
:109A0800000000000000ECF2F6F4D2E8D2C0ECDC72
:109A1800CFC3B9B0FCF2E8DFD7D0CAC3BEB8B3AF82
:109A2800AAA6A29F9B9895928F8C8A878583817F0F
:109A38007D7B7977757472716F6E6C6B6A68676617
:109A480065646261605F5E5D5C5B59575654535153
:109A5800504F4E4C4B4A4948474645444342414083
:109A68003FFEFBF8F6F3F0EEECE9E7E5E3E0DEDCD9
:109A7800DAD8D7D5D3D1CFCECCCAC9C7C6C4C3C10B
:109A8800C0BEBDBCBAB8B6B4B3B1AFAEACAAA9A794
:109A9800A6A4A3A1A09F9D9C9B9A98979695949302
:109AA80092908F8E8D8C8B8A898887868584838215
:109AB80081807F7E7D7C7B7A797877767574737206
:109AC80071706F6E6D6C6B6A6968676665646362F6
:109AD80061605F5E5D5C5B5A5958575655545352E6
:109AE80051504F4E4D4C4B4A4948474645444342D6
:109AF80041403FFFFEFDFCFBFAF9F8F7F6F5F4F3F9
:109B0800F2F1F0EFEEEDECEBEAE9E8E7E6E5E4E3A5
:109B1800E2E1E0DFDEDDDCDBDAD9D8D7D6D5D4D395
:109B2800D2D1D0CFCECDCCCBCAC9C8C7C6C5C4C385
:109B3800C2C1C0BFBEBDBCBBBAB9B8B7B6B5B4B375
:109B4800B2B1B0AFAEADACABAAA9A8A7A6A5A4A365
:109B5800A2A1A09F9E9D9C9B9A9998979695949355
:109B68009291908F8E8D8C8B8A8988878685848345
:109B78008281807F7E7D7C7B7A7978777675747335
:109B88007271706F6E6D6C6B6A6968676665646325
:109B98006261605F5E5D5C5B5A5958575655545315
:109BA8005251504F4E4D4C4B4A4948474645444305
:109BB8004241403FFFFEFDFCFBFAF9F8F7F6F5F4E9
:109BC800F3F2F1F0EFEEEDECEBEAE9E8E7E6E5E4D5
:109BD800E3E2E1E0DFDEDDDCDBDAD9D8D7D6D5D4C5
:109BE800D3D2D1D0CFCECDCCCBCAC9C8C7020202FE
:109BF800020202020202020202020202020202023D
:109C0800020202020202020202020202020202022C
:109C1800020202020202020202020202020202021C
:109C2800020202020202020202020202020202020C
:109C380002020202020202020202020202020202FC
:109C480002020202020202020202020202020202EC
:109C580002020202020202020202020202020202DC
:109C680002020202020202020202020202020202CC
:109C780002020202020202020202020202020202BC
:109C880002020202020202020202020202020202AC
:109C9800020202020202020202020202020202029C
:109CA800020202020202020202020202020202028C
:109CB800020202020202020202020202020202027C
:109CC800020202020202020202020202020202026C
:109CD8000202020202020202020201010101010162
:109CE800010101010101010101010101010101015C
:109CF800010101010101010101010101010101014C
:109D0800010101010101010101010101010101013B
:109D1800010101010101010101010101010101012B
:109D2800010101010101010101010101010101011B
:109D3800010101010101010101010101010101010B
:109D480001010101010101010101010101010101FB
:109D580001010101010101010101010101010101EB
:109D680001010101010101010101010101010101DB
:109D780001010101010101010101010101010101CB
:109D880001010101010101010101010101010101BB
:109D980001010101010101010101010000000000B0
:109DA80000000000000000000000000000000000AB
:109DB800000000000000000000000000000000009B
:109DC800000000000000000000000000000000008B
:109DD80000000000E5A1F6A02AA199A1B6A04D6156
:109DE8006E75616C204D6F64652020202020202036
:109DF800202043757272656E7420706F733A20204C
:109E08002020202020015475726E204343572000E3
:109E1800205370656564202020205374617274207B
:109E280020202000202020202020202020205265D3
:109E38007475726E20746F205A65726F3F202020EF
:109E4800202043757272656E7420706F733A2020FB
:109E580020202020202020202020202020202020FA
:109E68002020202020202020202020596573202019
:109E7800202020202020202020204E6F20204172EA
:109E8800633A2053697A653D202020202020202035
:109E9800202043757272656E7420706F733A2020AB
:109EA8002020202020015475726E20434357200043
:109EB80020537065656420202020537461727420DB
:109EC8002020200020202020202020202020417237
:109ED800633A20536574206172632073697A652040
:109EE80020204172632073697A653A20202020205F
:109EF800202020202020537465702073697A652003
:109F0800002020436F6E6669726D2020202020207B
:109F18002020202000202043616E63656C20446966
:109F2800766964653A2020202020202020202020E7
:109F38002020506F733A202020202020202020202D
:109F48002020202020204A756D702073697A653A98
:109F58002020202020202020202050726573735458
:109F68006F4A756D7020002043616E63656C4469AB
:109F7800766964653A205365742064697669736903
:109F88006F6E20202020202020202020202020202C
:109F98002020202020202020202F7374657020206E
:109FA800002020436F6E6669726D31323334202091
:109FB8002020202000202043616E63656C205365BB
:109FC8007475703A205365742064697265637469A6
:109FD8006F6E2020202020202020202020202020DC
:109FE80020202020202020436F756E746572436CFA
:109FF8006F636B7769736520202020436C6F636BF8
:10A008007769736520202020202020202020536598
:10A018007475703A20536574207A65726F20706F7A
:10A02800732E2020202020202020202020202020C7
:10A03800202020202020537465702073697A6520C1
:10A04800002020436F6E6669726D20782E78780143
:10A058002020202000202043616E63656C204D6124
:10A06800696E204D656E753A202020202020202022
:10A07800202020536574757020202020446976695B
:10A088006465202020202041726320202020202089
:10A098004D616E75616C2020202020476F325A6513
:10A0A800726F20202020202020202020202009023C
:10A0B8004000020100C03209040000020300000051
:10A0C800092111010001221D00070581034000013B
:10A0D80007050103400001090401000208065000B9
:10A0E800070582024000010705020240000134030F
:10A0F80053006F006C006400650072006E0065001C
:10A10800720064002E0063006F006D0020002000C4
:10A118002000200020002000200020002000200037
:10A1280020002E0353007400650070007000650065
:10A1380072004D006F0074006F00720043006F00E2
:10A148006E00740072006F006C006C006500720095
:10A1580000800402200000004D6963726F6368701C
:10A168004D6173732053746F7261676520202020DE
:10A17800303030310600FF0901A1011901294015CD
:10A188000026FF00750895408100190129409100BB
:10A19800C01A03310032003300340035003600376E
:10A1A800003800390030003900390012010002007F
:10A1B800000008D804CFED0001010200010A000EDA
:10A1C800010F110F0018180000000000000404041B
:10A1D80004040404043D2A80A73D2A80A604030938
:10A1E8000468656C6C6F20776F726C642100536F24
:10A1F8006C61724368617267720046494C45202061
:10A208002020004D53444F53352E3000202020206D
:10A21800202020200043616E63656C0053746F70CA
:07A22800200054585400000F
:10A230000001CF51D8A4D4EF58F0D151D8A4D4EF15
:10A2400058F0D051D8A4D4EF58F0D251D8B412005D
:10A25000D4EF58F0D005D8B403D0D205D8A402D09A
:10A26000110ED96FD1C09EF09F6B9EBF9F07CFC0CC
:10A27000A0F0A16BA0BFA1079E51A0279F51A123D1
:10A28000A1BF07D0A15103E1A005D8A002D0020EC2
:10A29000D96FD1C09EF09F6B9EBF9F07CFC0A0F02B
:10A2A000A16BA0BFA1079E51A0279F51A123A1AFE1
:10A2B000FDEF58F0050EC3EF58F0D005D8B403D029
:10A2C000D205D8A402D0310ED96FD1C09EF09F6BB9
:10A2D0009EBF9F07CFC0A0F0A16BA0BFA1079E515A
:10A2E000A0279F51A123A1BF07D0A15103E1A00541
:10A2F000D8A002D0030ED96FD1C09EF09F6B9EBF35
:10A300009F07CFC0A0F0A16BA0BFA1079E51A027BF
:10A310009F51A123A1AFFDEF58F0010EC3EF58F0FC
:10A32000D005D8B403D0D205D8A402D0510ED96F2D
:10A33000D1C09EF09F6B9EBF9F07CFC0A0F0A16BC6
:10A34000A0BFA1079E51A0279F51A123A1BF07D065
:10A35000A15103E1A005D8A002D0040ED96FD1C04D
:10A360009EF09F6B9EBF9F07CFC0A0F0A16BA0BFC8
:10A37000A1079E51A0279F51A123A1AFFDEF58F047
:10A38000020EC3EF58F0D005D8B403D0D205D8A43C
:10A3900002D0820ED96FD1C09EF09F6B9EBF9F07E7
:10A3A000CFC0A0F0A16BA0BFA1079E51A0279F51D5
:10A3B000A123A1BF07D0A15103E1A005D8A002D0DD
:10A3C000050ED96FD1C09EF09F6B9EBF9F07CFC077
:10A3D000A0F0A16BA0BFA1079E51A0279F51A12370
:10A3E000A1AFFDEF58F0030EC3EF58F0D005D8B47D
:10A3F00003D0D205D8A402D0710ED96FD1C09EF07F
:10A400009F6B9EBF9F07CFC0A0F0A16BA0BFA1070D
:10A410009E51A0279F51A123A1BF07D0A15103E1C5
:10A42000A005D8A002D0010ED96FD1C09EF09F6BBD
:10A430009EBF9F07CFC0A0F0A16BA0BFA1079E51F8
:10A44000A0279F51A123A1AFFDEF58F0040EC3EF49
:10A4500058F0D951010AD8B4FDD6030AD8B42DD783
:10A46000010AD8B45DD7070AD8B48DD7010AD8B489
:10A47000BDD7F50AFDEF58F0D005D8A40ED0000ED8
:10A48000D36F000ED46F000ED56F000ED66F000E86
:10A49000E36F000EE26F210ED96FCF51800A7F0F5C
:10A4A000D8A002D0120ED96FCFAF1AD0120E0FD093
:10A4B000D005D8A402D0010ED96FCF51800A7F0FEA
:10A4C000D8A002D0110ED96FCFAF0AD0110ED96F1C
:10A4D00007D0D951110AD8B4CFD7030AD8B4E8D7D6
:10A4E000D205D8A40AD0DCC060F0DDC061F04EEC2B
:10A4F00075F060C0DCF061C0DDF00001D151800A70
:10A500007F0FD8A019D0DA51D8A416D0DCC08FF0B4
:10A51000DDC090F065EC78F08FC097F090C098F0B7
:10A5200091C099F092C09AF0000E00019C6F000E4D
:10A530009B6F010E82EC72F00001D1AFFDEF58F07D
:10A54000DA51D8A4FDEF58F0DCC08FF0DDC090F0F8
:10A5500065EC78F08FC097F090C098F091C099F0BA
:10A5600092C09AF0000E00019C6F000E9B6FFF0ED0
:10A5700082EC72F0FDEF58F00001D005D8B403D0A2
:10A58000D205D8A41FD024C197F025C198F0996BAB
:10A590009A6B000E9C6F000E9B6F010E82EC72F0A6
:10A5A00024C197F025C198F00001996B9A6B000EB9
:10A5B0009C6F000E9B6FFF0E82EC72F00001DE6953
:10A5C000010ED96FD1C09EF09F6B9EBF9F07CFC079
:10A5D000A0F0A16BA0BFA1079E51A0279F51A1236E
:10A5E000A1BF07D0A15103E1A005D8A002D0220E3F
:10A5F000D96FD1C09EF09F6B9EBF9F07CFC0A0F0C8
:10A60000A16BA0BFA1079E51A0279F51A123A1AF7D
:10A61000FDEF58F0220EC3EF58F0D005D8B403D0A8
:10A62000D205D8A420D024C197F025C198F0996B09
:10A630009A6B000E9C6F000E9B6FFF0E82EC72F007
:10A6400024C197F025C198F00001996B9A6B000E18
:10A650009C6F000E9B6F010E82EC72F0010E0001E8
:10A66000DE6F010ED96FD1C09EF09F6B9EBF9F071A
:10A67000CFC0A0F0A16BA0BFA1079E51A0279F5102
:10A68000A123A1BF07D0A15103E1A005D8A002D00A
:10A69000210ED96FD1C09EF09F6B9EBF9F07CFC088
:10A6A000A0F0A16BA0BFA1079E51A0279F51A1239D
:10A6B000A1AFFDEF58F0210EC3EF58F00001D951C2
:10A6C000210AD8B459D7030AD8B4A7D7FDEF58F058
:10A6D000D005D8A402D0410ED96FCF51800A7F0F88
:10A6E000D8A002D0320ED96FCFAF1AD0320E0FD011
:10A6F000D005D8A402D0020ED96FCF51800A7F0FA7
:10A70000D8A002D0310ED96FCFAF0AD0310ED96F99
:10A7100007D0D951310AD8B4DBD7030AD8B4E8D767
:10A72000D205D8A405D0E1513EEC7AF00001E16FEA
:10A73000D151800A7F0FD8A004D0E151DF27000E4D
:10A74000E023D1AFFDEF58F0E1519E6F9F6BDF51D9
:10A750009E5D9F51800AA06FE051800AA059D8B039
:10A7600006D0E151DF5F000EE05BFDEF58F0000E18
:10A77000E06F010EDF6FFDEF58F0D005D8A402D0D6
:10A78000020ED96FD205D8A493D1E5BF18D0E551F8
:10A7900003E1E405D8A013D0E451E225AA6FE55106
:10A7A000E321AB6FDF51AA5DE051AB59D8A019D0BE
:10A7B00020EEDFF0DE50AA5FDD50AB5B12D0E4513B
:10A7C000E225AA6FE551E321AB6FDF51AA5DE051AD
:10A7D000AB59D8A006D020EEDFF0DE50AA27DD501E
:10A7E000AB231FC160F020C161F021C162F022C122
:10A7F00063F0000E46EC66F060C0B0F061C0B1F0EE
:10A8000062C0B2F063C0B3F0B0C06EF0B1C06FF020
:10A81000B2C070F0B3C071F0AAC060F0ABC061F01C
:10A820000001626B636B000E46EC66F060C072F074
:10A8300061C073F062C074F063C075F051EC5FF0FA
:10A840006EC0B0F06FC0B1F070C0B2F071C0B3F0C4
:10A85000B0C06EF0B1C06FF0B2C070F0B3C071F0B4
:10A8600020EEDFF0DECF60F0DDCF61F00001000E02
:10A8700061BFFF0E626F636F010E46EC66F060C051
:10A8800072F061C073F062C074F063C075F0FAECEE
:10A8900060F06EC0B0F06FC0B1F070C0B2F071C0C7
:10A8A000B3F0B0C060F0B1C061F0B2C062F0B3C04C
:10A8B00063F0D1EC6DF060C0A6F061C0A7F062C09B
:10A8C000A8F063C0A9F0D3C09EF0D4C09FF0D5C05B
:10A8D000A0F0D6C0A1F000019E1F9F1FA01FA11FC6
:10A8E0009E2B000E9F23A023A123A6519E25AC6F73
:10A8F000A7519F21AD6FA851A021AE6FA951A121F1
:10A90000AF6F01011F510001AC270101205100016F
:10A91000AD23010121510001AE23010122510001AB
:10A92000AF2310D001011F510001AC5F0101205184
:10A930000001AD5B010121510001AE5B010122511B
:10A940000001AF5B1FC19EF020C19FF021C1A0F0AC
:10A9500022C1A1F0D890A133A0339F339E33AC51D4
:10A960009E5DAD519F59AE51A059A151800AA26F71
:10A97000AF51800AA259D8A0D5D7AFAF5CD0DE299D
:10A98000D8A421D0ACC09EF0ADC09FF0AEC0A0F066
:10A99000AFC0A1F09E1F9F1FA01FA11F9E2B000EE6
:10A9A0009F23A023A1239EC097F09FC098F0A0C032
:10A9B00099F0A1C09AF0000E9C6F000E9B6FFF0EE5
:10A9C00082EC72F071D0ACC09EF0ADC09FF0AEC012
:10A9D000A0F0AFC0A1F000019E1F9F1FA01FA11FEC
:10A9E0009E2B000E9F23A023A123010124510001CF
:10A9F0009E25976F0101255100019F21986F000E40
:10AA0000A021996F000EA1219A6F000E9C6F000E7D
:10AA10009B6FFF0E82EC72F024C197F025C198F075
:10AA20000001996B9A6B000E9C6F000E9B6F010EDC
:10AA300082EC72F039D00001DE05D8A410D0ACC091
:10AA400097F0ADC098F0AEC099F0AFC09AF0000E8C
:10AA50009C6F000E9B6F010E82EC72F025D00101FD
:10AA600024510001AC25976F010125510001AD2152
:10AA7000986F000EAE21996F000EAF219A6F000EF5
:10AA80009C6F000E9B6F010E82EC72F024C197F058
:10AA900025C198F00001996B9A6B000E9C6F000E17
:10AAA0009B6FFF0E82EC72F0AAC0E2F0ABC0E3F045
:10AAB0000001D151800A7F0FD8A01AD0E44BE52BBA
:10AAC000E451E511D8A404D0000EE56F010EE46F47
:10AAD000DF51E45DE551800A9E6FE051800A9E5986
:10AAE000D8A006D0FF0EDF25E46FFF0EE021E56F52
:10AAF000D1AF83D3E407D8A0E507E451E511D8A48A
:10AB000002D0E469E56920EEDFF0DECF9EF0DDCF14
:10AB10009FF09E1F9F1F9E4B9F2BE4519E5D9F5158
:10AB2000800AA06FE551800AA059D8A066D320EE14
:10AB3000DFF0DECF9EF0DDCF9FF09E1F9F1F9E4B6C
:10AB40009F2B010E9E25E46F000E9F21E56F55D3CC
:10AB5000D005D8A402D0620ED96FCF51800A7F0FE2
:10AB6000D8A002D0520ED96FCFAF1AD0520E0FD04C
:10AB7000D005D8A402D0030ED96FCF51800A7F0F21
:10AB8000D8A002D0510ED96FCFAF0AD0510ED96FD5
:10AB900007D0D951510AD8B4DBD7030AD8B4E8D7C3
:10ABA000D205D8A40AD0E6C060F0E7C061F086EC18
:10ABB00075F060C0E6F061C0E7F00001D151800A95
:10ABC0007F0FD8A01CD0E651E827E751E923000EFB
:10ABD000EA23000EEB23EBBF12D0EB5108E1A10EEC
:10ABE000E85D860EE959010EEA59D8A008D0A00EFA
:10ABF000E86F860EE96F010EEA6F000EEB6FD1AFC2
:10AC0000FCD2E6519E6FE7519F6FA06BA16B9E51E6
:10AC1000E85F9F51E95BA051EA5BA151EB5BEBBFA1
:10AC200007D0EB51EA11E91102E1E805D8B0E5D20D
:10AC3000010EE86F000EE96F000EEA6F000EEB6F79
:10AC4000DCD2CF51800A7F0FD8A015D001012C5142
:10AC50000001EC5D01012D510001ED59D8B002D089
:10AC6000EC4BED2BDA51D8B406D0ECC060F0EDC05F
:10AC700061F02EEC7BF00001CFAF1DD1EC51010152
:10AC8000265D0001ED5101012759D8B004D0000123
:10AC9000EC07D8A0ED070001DA51D8B40CD1ECC014
:10ACA00060F0EDC061F02EEC7BF005D10001D20523
:10ACB000D8A46FD0E8C060F0E9C061F0EAC062F0EB
:10ACC000EBC063F0010E46EC66F060C0B0F061C00E
:10ACD000B1F062C0B2F063C0B3F0B0C06EF0B1C00A
:10ACE0006FF0B2C070F0B3C071F01FC160F020C14E
:10ACF00061F021C162F022C163F0000E46EC66F003
:10AD000060C072F061C073F062C074F063C075F02F
:10AD100051EC5FF06EC0B0F06FC0B1F070C0B2F037
:10AD200071C0B3F0B0C06EF0B1C06FF0B2C070F0DF
:10AD3000B3C071F0000E0001726FA00E736F0C0EA5
:10AD4000746F470E756FFAEC60F06EC0B0F06FC0B4
:10AD5000B1F070C0B2F071C0B3F0B0C060F0B1C07B
:10AD600061F0B2C062F0B3C063F0D1EC6DF060C0CE
:10AD700097F061C098F062C099F063C09AF0ECC09F
:10AD80009BF0EDC09CF0FF0E82EC72F0620E0001B1
:10AD9000D96FD151800A7F0FD8A02FD2620EF3D184
:10ADA000D205D8A407D0DA51D8A4B0EC78F0030EBD
:10ADB0000001D96FD151800A7F0FD8A002D0630E55
:10ADC000D96FD1AF1AD2610EDED1D205D8A46FD01F
:10ADD000E8C060F0E9C061F0EAC062F0EBC063F087
:10ADE000010E46EC66F060C0B0F061C0B1F062C028
:10ADF000B2F063C0B3F0B0C06EF0B1C06FF0B2C0DB
:10AE000070F0B3C071F01FC160F020C161F021C1CA
:10AE100062F022C163F0000E46EC66F060C072F092
:10AE200061C073F062C074F063C075F051EC5FF004
:10AE30006EC0B0F06FC0B1F070C0B2F071C0B3F0CE
:10AE4000B0C06EF0B1C06FF0B2C070F0B3C071F0BE
:10AE5000000E0001726FA00E736F0C0E746F470E20
:10AE6000756FFAEC60F06EC0B0F06FC0B1F070C0FA
:10AE7000B2F071C0B3F0B0C060F0B1C061F0B2C068
:10AE800062F0B3C063F0D1EC6DF060C097F061C0C8
:10AE900098F062C099F063C09AF0ECC09BF0EDC0EE
:10AEA0009CF0010E82EC72F0620E0001D96FD1AFFE
:10AEB000A4D1620E68D10001D951610AD8B4F6D686
:10AEC000030AD8B46DD7010AD8B47FD796D1D2057A
:10AED000D8A4D9D0D351D411D511D611D8B4CCD04F
:10AEE0001FC19EF020C19FF021C1A0F022C1A1F09E
:10AEF000D890A133A0339F339E33D3519E5DD4515C
:10AF00009F59D551A059D651A159D8A039D0DE2981
:10AF1000D8A410D0D3C097F0D4C098F0D5C099F081
:10AF2000D6C09AF0000E9C6F000E9B6FFF0E82EC55
:10AF300072F0A2D0010124510001D325976F0101C5
:10AF400025510001D421986F000ED521996F000E74
:10AF5000D6219A6F000E9C6F000E9B6FFF0E82EC45
:10AF600072F024C197F025C198F00001996B9A6B9B
:10AF7000000E9C6F000E9B6F010E82EC72F07CD075
:10AF80000001DE05D8A42DD0D3C09EF0D4C09FF020
:10AF9000D5C0A0F0D6C0A1F09E1F9F1FA01FA11F6B
:10AFA0009E2B000E9F23A023A12301011F5100010E
:10AFB0009E25976F0101205100019F21986F01018B
:10AFC00021510001A021996F010122510001A1210D
:10AFD0009A6F000E9C6F000E9B6F010E82EC72F058
:10AFE0004BD0D3C09EF0D4C09FF0D5C0A0F0D6C047
:10AFF000A1F000019E1F9F1FA01FA11F9E2B000EEE
:10B000009F23A023A1230101245100019E25A26FAB
:10B010000101255100019F21A36F000EA021A46F03
:10B02000000EA121A56F01011F510001A225976FFC
:10B03000010120510001A321986F0101215100015C
:10B04000A421996F010122510001A5219A6F000EE0
:10B050009C6F000E9B6F010E82EC72F024C197F082
:10B0600025C198F00001996B9A6B000E9C6F000E41
:10B070009B6FFF0E82EC72F0050E0001D96F000E7F
:10B08000E36F000EE26FD005D8A4B7D0050E7BD0D9
:10B09000CF51800A7F0FD8A012D00101305100019A
:10B0A000EF5D010131510001F059D8B008D0EF4BEC
:10B0B000F02BEFC060F0F0C061F02EEC7BF00001EF
:10B0C000CFAF63D0EF510101265D0001F0510101C6
:10B0D0002759D8B05AD00001EF07D8A0F007EFC029
:10B0E00060F0F0C061F02EEC7BF04FD00001D20593
:10B0F000D8A412D0000E976F000E986F000E996FB3
:10B10000000E9A6FEFC09BF0F0C09CF0FF0E82EC37
:10B1100072F0840E0001D96FD151800A7F0FD8A040
:10B120006CD0820E30D0D205D8A402D0040ED96FD4
:10B13000D151800A7F0FD8A002D0830ED96FD1AF32
:10B140005CD0810E20D0D205D8A411D0840ED96F46
:10B15000000E976F000E986F000E996F000E9A6F99
:10B16000EFC09BF0F0C09CF0010E82EC72F0000189
:10B17000D1AF43D0820E07D0D205D8A43ED0B0ECD8
:10B1800078F0820E0001D96F38D00001D951810AC0
:10B19000D8B4ACD7030AD8B4C6D7010AD8B4D3D729
:10B1A000070AD8B4E9D729D0D951F00B9E6F9F6B0D
:10B1B0009F51000AD8A421D09E51000AD8B429EF8B
:10B1C00052F0100AD8B469EF52F0300AD8B45EEFEA
:10B1D00053F0100AD8B489EF53F0700AD8B4BDEF19
:10B1E00053F0100AD8B4D5D4300AD8B42AD5100AEE
:10B1F000D8B46DD6F00AD8B44BD7000E0001CF6F8B
:10B20000000ED16F000ED06F000ED26F1200F0EF63
:10B210005EF0AD0E0001606F010E616F660E626F31
:10B22000A00E636F000E656F500E646F58EC76F0E1
:10B230000FD03E0E0101C16F1DEF5FF03E0E010108
:10B24000CA6F1DEF5FF03E0E0101DE6F1DEF5FF074
:10B250000001D951010AD8B4ECD7030AD8B4EED70B
:10B26000010AD8B464D0070AD8B4EDD7010A6FD068
:10B27000AD0E606F010E616F160E626FA00E636FF0
:10B28000000E656F500E646F58EC76F0DCC095F0E0
:10B29000DDC096F0020E0001976FBE0E986F000E93
:10B2A000996F93EC63F0E80E0001DC5D030EDD594D
:10B2B000D8A002D0000E01D0010EC86F000EC96FD9
:10B2C00018D0C951010DBE0EF324D96E000EF42022
:10B2D000DA6EC951C8C0BCF0BD6BBC27000EBD23DF
:10B2E000E90EBC25E16E010EBD21E26EDFCFE7FF66
:10B2F000C92BC951010DBE0EF324D96E000EF420E6
:10B30000DA6EDF50D8A4DDD70001D951110A8CD0F4
:10B31000AD0E606F010E616FC60E626F9F0E636FA0
:10B32000000E656F500E646F58EC76F00AD03E0E3A
:10B330000101D56F1DEF5FF03E0E0101E96F1DEFBA
:10B340005FF00001D951210AD8B4F1D7030AD8B46B
:10B35000F3D71DEF5FF0AD0E606F010E616F760EDB
:10B36000626F9F0E636F000E656F500E646F58EC36
:10B3700076F0E1C078F00001796B030E7A6FBE0EB3
:10B380007B6F000E7C6FF1EC6CF0000E0001C96F5A
:10B39000020EC96501D014D0C951010DBE0EF324AF
:10B3A000D96E000EF420DA6EC951010DD50EF324CA
:10B3B000E16E010EF420E26EDFCFE7FFC92BE8D784
:10B3C000DFC078F0E0C079F0040E7A6FBE0E7B6FBC
:10B3D000000E7C6FF1EC6CF0000E0001C96F030EE3
:10B3E000C96501D01ED0C951010DBE0EF324D96E1E
:10B3F000000EF420DA6EC951010DE90EF324E16E5E
:10B40000010EF420E26EDFCFE7FFC92BE8D73E0E36
:10B410000101E16F1DEF5FF03E0E0101F56F1DEFC1
:10B420005FF00001D951310AD8B4F1D7030AD8B47A
:10B43000F3D71DEF5FF0AD0E606F010E616F260E4A
:10B44000626F9F0E636F000E656F500E646F58EC55
:10B4500076F0DFC078F0E0C079F0000E00017A6F7E
:10B46000BE0E7B6F000E7C6FF1EC6CF0000E0001E5
:10B47000C96F18D0C951010DBE0EF324D96E000E4C
:10B48000F420DA6EC951BC6FBD6B080EBC27000EEC
:10B49000BD23AD0EBC25E16E010EBD21E26EDFCFF6
:10B4A000E7FFC92BC951010DBE0EF324D96E000E62
:10B4B000F420DA6EDF50D8A4DDD7C951BC6FBD6B64
:10B4C000080EBC27000EBD23AD0EBC25D96E010EA3
:10B4D000BD21DA6E2C0EDF6EDE29D8A423D0C9512F
:10B4E000BC6FBD6B0A0EBC27000EBD23AD0EBC2584
:10B4F000D96E010EBD21DA6E430EDF6EC951BC6FED
:10B50000BD6B0B0EBC27000EBD23AD0EBC25D96E46
:10B51000010EBD21DA6E430EDF6EC951BC6FBD6BEB
:10B520000C0E13D0C951BC6FBD6B0A0EBC27000EA8
:10B53000BD23AD0EBC25D96E010EBD21DA6E430EC2
:10B54000DF6EC951BC6FBD6B0B0EBC27000EBD2357
:10B55000AD0EBC25D96E010EBD21DA6E570EDF6E21
:10B56000E2C078F0E3C079F0000E7A6FBE0E7B6F18
:10B57000000E7C6FF1EC6CF0000E0001C96F18D06A
:10B58000C951010DBE0EF324D96E000EF420DA6EFF
:10B59000C951BC6FBD6B050EBC27000EBD23C10E8B
:10B5A000BC25E16E010EBD21E26EDFCFE7FFC92BA6
:10B5B000C951010DBE0EF324D96E000EF420DA6ECF
:10B5C000DF50D8A4DDD7C951BC6FBD6B060EBC27B8
:10B5D000000EBD23C10EBC25D96E010EBD21DA6E51
:10B5E000280EDF6EC951070FC86FD7C0ADF0D8C0A5
:10B5F000AEF0AF6BB06B020EB16FBE0EB26F000E4D
:10B60000B36FDFEC69F0000E0001C96F18D0C951AB
:10B61000010DBE0EF324D96E000EF420DA6EC8516F
:10B62000C9C0BCF0BD6BBC27000EBD23C10EBC253C
:10B63000E16E010EBD21E26EDFCFE7FFC92BC951DC
:10B64000010DBE0EF324D96E000EF420DA6EDF5029
:10B65000D8A4DDD7C851C9C0BCF0BD6BBC27000E53
:10B66000BD23C10EBC25D96E010EBD21DA6E010EBF
:10B67000DF6EC851C9C0BCF0BD6BBC27000EBD2336
:10B68000010EBC27000EBD23C10EBC25D96E010ED4
:10B69000BD21DA6E290EDF6EE4C08FF0E5C090F0B8
:10B6A000BE0E916F000E926FD3EC78F0000E000189
:10B6B000C96F18D0C951010DBE0EF324D96E000E0A
:10B6C000F420DA6EC951BC6FBD6B0B0EBC27000EA7
:10B6D000BD23D50EBC25E16E010EBD21E26EDFCF8C
:10B6E000E7FFC92BC951010DBE0EF324D96E000E20
:10B6F000F420DA6EDF50D8B4A0D3DCD7AD0E606F83
:10B70000010E616FD60E626F9E0E636F000E656F45
:10B71000500E646F58EC76F008D03E0E0101E16FD8
:10B720000CD03E0E0101F56F08D00001D951510A2D
:10B73000D8B4F3D7030AD8B4F4D7E8C0ADF0E9C061
:10B74000AEF0EAC0AFF0EBC0B0F0020E0001B16F96
:10B75000BE0EB26F000EB36FDFEC69F0000E000199
:10B76000C96F18D0C951010DBE0EF324D96E000E59
:10B77000F420DA6EC951BC6FBD6B0A0EBC27000EF7
:10B78000BD23C10EBC25E16E010EBD21E26EDFCFEF
:10B79000E7FFC92BC951010DBE0EF324D96E000E6F
:10B7A000F420DA6EDF50D8A4DDD7C951BC6FBD6B71
:10B7B0000A0EBC27000EBD23C10EBC25D96E010E9A
:10B7C000BD21DA6E010EDF6EE6C095F0E7C096F09F
:10B7D000020E976FBE0E986F000E996F93EC63F098
:10B7E000E80E0001E65D030EE759D8A002D0000E76
:10B7F00001D0010EC86F000EC96F18D0C951010DDC
:10B80000BE0EF324D96E000EF420DA6EC951C8C002
:10B81000BCF0BD6BBC27000EBD23E90EBC25E16E5C
:10B82000010EBD21E26EDFCFE7FFC92BC951010D2B
:10B83000BE0EF324D96E000EF420DA6EDF50D8A4C9
:10B84000DDD7C951C8C0BCF0BD6BBC27000EBD23FD
:10B85000E90EBC25D96E010EBD21DA6E010E5BD258
:10B86000AD0E606F010E616F860E626F9E0E636F8C
:10B87000000E656F500E646F58EC76F025D0570EB1
:10B880000101DB6F200EDC6F27D0D50E0001606F49
:10B89000010E616F140E626FA20E636F000E656F72
:10B8A000080E646F58EC76F0E90E0001606F010E2F
:10B8B000616F1D0E626FA20E636F000E656F060E44
:10B8C000646F58EC76F008D00001D951620AD8B400
:10B8D000DCD7010AD8B4D3D7E8C0ADF0E9C0AEF0E8
:10B8E000EAC0AFF0EBC0B0F0020E0001B16FBE0EC7
:10B8F000B26F000EB36FDFEC69F0000E0001C96F8C
:10B9000018D0C951010DBE0EF324D96E000EF420DB
:10B91000DA6EC951BC6FBD6B0A0EBC27000EBD2389
:10B92000AD0EBC25E16E010EBD21E26EDFCFE7FF5B
:10B93000C92BC951010DBE0EF324D96E000EF4209F
:10B94000DA6EDF50D8A4DDD7C951BC6FBD6B0A0ECB
:10B95000BC27000EBD23AD0EBC25D96E010EBD2146
:10B96000DA6E010EDF6ED7C0ADF0D8C0AEF0AF6BAF
:10B97000B06B020EB16FBE0EB26F000EB36FDFEC94
:10B9800069F0BE0E0001606F000E616F7DEC79F012
:10B99000000160510008060FC86F000EC96F1CD06F
:10B9A000C951010DBE0EF324D96E000EF420DA6EDB
:10B9B000C951C8C0BCF0BD6BBC27000EBD230D0E25
:10B9C000BC27000EBD23C10EBC25E16E010EBD21BA
:10B9D000E26EDFCFE7FFC92BC951010DBE0EF32484
:10B9E000D96E000EF420DA6EDF50D8A4D9D7ECC09F
:10B9F00093F0EDC094F010EC7BF093C095F094C000
:10BA000096F0020E0001976FBE0E986F000E996FB0
:10BA100093EC63F0000E0001C96F18D0C951010DFD
:10BA2000BE0EF324D96E000EF420DA6EC951BC6F3D
:10BA3000BD6B0B0EBC27000EBD23E90EBC25E16ECD
:10BA4000010EBD21E26EDFCFE7FFC92BC951010D09
:10BA5000BE0EF324D96E000EF420DA6EDF50D8A4A7
:10BA6000DDD72DD1AD0E606F010E616F360E626FA6
:10BA70009E0E636F000E656F500E646F58EC76F08B
:10BA8000D7C0ADF0D8C0AEF00001AF6BB06B020E06
:10BA9000B16FBE0EB26F000EB36FDFEC69F0000E37
:10BAA0000001C96F18D0C951010DBE0EF324D96E23
:10BAB000000EF420DA6EC951BC6FBD6B0D0EBC27B1
:10BAC000000EBD23C10EBC25E16E010EBD21E26E4C
:10BAD000DFCFE7FFC92BC951010DBE0EF324D96E8C
:10BAE000000EF420DA6EDF50D8A4DDD7C951BC6F48
:10BAF000BD6B0D0EBC27000EBD23C10EBC25D96E3B
:10BB0000010EAAD6AD0E606F010E616FE60E626F78
:10BB10009D0E636F000E656F500E646F58EC76F0EB
:10BB200044D0570E0101DB6F200EDC6F49D0D50EDB
:10BB30000001606F010E616F140E626FA20E636FE1
:10BB4000000E656F080E646F58EC76F0E90E000188
:10BB5000606F010E616F1D0E626FA20E636F000EAB
:10BB6000656F060E646F58EC76F02AD0D50E000192
:10BB7000606F010E616F140E626FA20E636F000E94
:10BB8000656F080E646F58EC76F0E90E0001606F87
:10BB9000010E616F240E626FA20E636F000E656F5F
:10BBA000050E646F58EC76F00BD00001D951820A73
:10BBB000D8B4BDD7010AD8B4B4D7070AD8B4D6D7F9
:10BBC000D7C0ADF0D8C0AEF00001AF6BB06B020EC5
:10BBD000B16FBE0EB26F000EB36FDFEC69F0BE0E38
:10BBE0000001606F000E616F7DEC79F00001605123
:10BBF0000008070FC86F000EC96F1CD0C951010D96
:10BC0000BE0EF324D96E000EF420DA6EC951C8C0FE
:10BC1000BCF0BD6BBC27000EBD230C0EBC27000E74
:10BC2000BD23C10EBC25E16E010EBD21E26EDFCF4A
:10BC3000E7FFC92BC951010DBE0EF324D96E000ECA
:10BC4000F420DA6EDF50D8A4D9D7EFC093F0F0C05B
:10BC500094F010EC7BF093C095F094C096F0020E37
:10BC60000001976FBE0E986F000E996F93EC63F012
:10BC7000000E0001C96F18D0C951010DBE0EF3248A
:10BC8000D96E000EF420DA6EC951BC6FBD6B0B0E7D
:10BC9000BC27000EBD23E90EBC25E16E010EBD21BF
:10BCA000E26EDFCFE7FFC92BC951010DBE0EF324B1
:10BCB000D96E000EF420DA6EDF50D8A4DDD7C9515A
:10BCC000BC6FBD6B0B0EBC27000EBD23E90EBC255F
:10BCD000D96E010EBD21DA6E010EDF6EC951BC6F47
:10BCE000BD6B0C0EBC27000EBD23E90EBC25D96E22
:10BCF000010EBD21DA6E2F0EDF6EC951BC6FBD6B18
:10BD00000D0EBC27000EBD23E90EBC25D96E010E19
:10BD1000BD21DA6E730EDF6E90D08BEC78F00001EF
:10BD2000CF51956F966B95BF9607000E976FAD0E2E
:10BD3000986F010E996F93EC63F084A402D0480EC3
:10BD400001D04C0E0101B56F84A002D0480E01D085
:10BD50004C0EB66F0001D051956F966B95BF96074C
:10BD6000000E976FC10E986F010E996F93EC63F000
:10BD700084A202D0480E01D04C0E0101C96F00010F
:10BD8000D151956F966B95BF9607000E976FD50EA4
:10BD9000986F010E996F93EC63F080A002D0480E6B
:10BDA00001D04C0E0101DD6F80A402D0480E01D0FD
:10BDB0004C0EDE6F0001D251956F966B95BF9607C2
:10BDC000000E976FE90E986F010E996F93EC63F078
:10BDD00080A202D0480E01D04C0E0101F16F2DD08F
:10BDE0000001D951F00BBC6FBD6BBD51000AD8A446
:10BDF00024D0BC51000AD8B409EF59F0100AD8B4C5
:10BE000038EF59F0300AD8B488EF59F0100AD8B496
:10BE1000ABEF59F0700AD8B41BEF5AF0100AD8B43F
:10BE20006DD4300AD8B41CD5100AD8B41BD6F00A89
:10BE3000D8B468D6700AD8B470D783B40BD0450E86
:10BE40000101AD6F520EAE6F520EAF6F4F0EB06F5D
:10BE5000520EB16F84A202D02B0E01D02D0E010123
:10BE6000BE6F84A402D02B0E01D02D0EBF6F84A014
:10BE700002D02B0E01D02D0EC06F80A202D02B0E4F
:10BE800001D02D0ED26F80A002D02B0E01D02D0E2E
:10BE9000D36F80A403D02B0ED46F12002D0ED46F5D
:10BEA000120000017151800B7A6F71517125806F02
:10BEB00070BF80818051D8B40DD08029D8A408D01B
:10BEC000000E6E6F000E6F6F000E706F000E716FC0
:10BED000708F08D0000E6E6F000E6F6F000E706FC7
:10BEE000000E716F7551800B7A1B755175257B6F34
:10BEF00074BF7B817B51D8B40DD07B29D8A408D0E6
:10BF0000000E726F000E736F000E746F000E756F6F
:10BF1000748F08D0000E726F000E736F000E746F76
:10BF2000000E756F7B51D8B403D08051D8A409D0CE
:10BF3000000E6E6F000E6F6F000E706F000E716F4F
:10BF4000120074516E03F3CF85F0F4CF86F0855163
:10BF50007C6F7D6B7E6B7F6B8651816F826B836B99
:10BF6000846B73516F03F3CF85F0F4CF86F0855166
:10BF70007C27000E7D237E237F2386518127000EA0
:10BF800082238323842372517003F3CF85F0F4CF8F
:10BF900086F085517C27000E7D237E237F238651EA
:10BFA0008127000E8223832384237EC07FF07DC0FF
:10BFB0007EF07CC07DF07C6B72516F03F3CF85F017
:10BFC000F4CF86F085517C2786517D23000E7E2399
:10BFD000000E7F2373516E03F3CF85F0F4CF86F00C
:10BFE00085517C2786517D23000E7E23000E7F2302
:10BFF0007EC07FF07DC07EF07CC07DF07C6B725196
:10C000006E03F3CF85F0F4CF86F085517C278651FF
:10C010007D23000E7E23000E7F2374516F03F3CF28
:10C0200085F0F4CF86F08551812786518223000E5A
:10C030008323000E842373517003F3CF85F0F4CF74
:10C0400086F08551812786518223000E8323000EBE
:10C05000842374517003F3CF85F0F4CF86F08551BB
:10C06000766F8651776F786B796B78C079F077C08F
:10C0700078F076C077F0766B7651812777518223FE
:10C0800078518323795184237CC076F07DC077F08A
:10C090007EC078F07FC079F0190E05D0D890793342
:10C0A000783377337633E82EF9D776518127775175
:10C0B000822378518323795184237EC07FF07DC011
:10C0C0007EF07CC07DF07C6B7B5180C076F0776B1E
:10C0D0007627000E7723820E7625856FFF0E772157
:10C0E000866F0FD0D89081378237833784377FBFF0
:10C0F0008181D8907C377D377E377F378507D8A000
:10C10000860783AFEFD7000E7B6F7FAF16D0FF0E91
:10C110007C15766FFF0E7D15776FFF0E7E15786F9D
:10C120007F0E7F15796F7651771178117911D8A428
:10C1300002D081A102D0010E7B6F7B51D8B41FD0F9
:10C14000010E8127000E82238323842384A117D02C
:10C1500081C076F082C077F083C078F084C079F037
:10C160007935793378337733763376C081F077C099
:10C1700082F078C083F079C084F0854B862B86BF2F
:10C180000DD0865103E18529D8A008D0000E816F1B
:10C19000000E826F800E836F7F0E20D086BF05D089
:10C1A00086510EE18505D8B00BD0000E816F000ED0
:10C1B000826F000E836F000E846F000E7A6F0FD0B7
:10C1C00085C080F0FF0E8117FF0E82177F0E831748
:10C1D000000E841780B1838FD8908031846F7A519C
:10C1E000841381C06EF082C06FF083C070F084C091
:10C1F00071F0120000017151800B7E6F7151712539
:10C20000856F70BF85818551D8B40DD08529D8A49C
:10C2100008D0000E6E6F000E6F6F000E706F000E74
:10C22000716F708F06D0000E6E6F000E6F6F000E74
:10C23000706F000E716F7551800B7E1B75517525E7
:10C24000866F74BF86818651D8B40DD08629D8A454
:10C2500008D0000E726F000E736F000E746F000E28
:10C26000756F748F06D0000E726F000E736F000E24
:10C27000746F000E756F7251731174117511D8A41B
:10C2800017D0000E6E6F000E6F6F000E706F000EF5
:10C29000716F800E70137F0E71137E5171136EC01B
:10C2A0006EF06FC06FF070C070F071C071F012006E
:10C2B0008551D8A411D0000E6E6F000E6F6F000E66
:10C2C000706F000E716F6EC06EF06FC06FF070C057
:10C2D00070F071C071F012008651766F776B761F27
:10C2E000771F764B772B8551786F796B765178274E
:10C2F000775179237F0E78257F6F000E7921806F2B
:10C300006EC07AF06FC07BF070C07CF071C07DF0C1
:10C31000000E6E6F000E6F6F000E706F000E716F6B
:10C32000000E816F000E826F000E836F000E846F0F
:10C33000000E866F28D08651D8B411D0D8907A37A5
:10C340007B377C377D37D8906E376F3770377137D2
:10C3500084BF6E81D890813782378337843772519A
:10C360007A5D73517B5974517C5975517D59D8A0B0
:10C3700009D0848D72517A5F73517B5B74517C5B01
:10C3800075517D5B862B190E8665D5D77A517B1149
:10C390007C117D11D8B411D081810FD0D8906E3727
:10C3A0006F377037713784BF6E81D890813782378D
:10C3B000833784377F07D8A0800770AFEFD7000E90
:10C3C000866F84AF16D0FF0E8115766FFF0E821533
:10C3D000776FFF0E8315786F7F0E8415796F765116
:10C3E000771178117911D8A402D06EA102D0010E74
:10C3F000866F8651D8B41FD0010E6E27000E6F23B2
:10C400007023712371A117D06EC076F06FC077F0E2
:10C4100070C078F071C079F079357933783377333B
:10C42000763376C06EF077C06FF078C070F079C068
:10C4300071F07F4B802B80BF10D0805103E17F29AA
:10C44000D8A00BD0000E806F7F69000E6E6F000EBB
:10C450006F6F000E706F000E716F80BF05D080513E
:10C4600011E17F05D8B00ED0000E806F000E7F6FF7
:10C47000000E6E6F000E6F6F000E706F000E716F0A
:10C48000000E7E6F7FC085F085A102D0708F01D035
:10C49000709FD8908531716F7E5171136EC06EF0B0
:10C4A0006FC06FF070C070F071C071F012000D01BC
:10C4B0003205D8A40ED030511F0B0009D8A409D0E2
:10C4C000048E030E3119D8A402D0010E01D0000E43
:10C4D000286E3251D8A4120030511F0B020AD8A482
:10C4E000120034510F0B0009D8B4120034510F0B55
:10C4F000456E030E45601200200E2B18D8A41200C2
:10C50000048E34BF19D034510F0B456E4550020DC7
:10C510004E0EF324D96E010EF420DA6EDECF49F010
:10C52000DDCF4AF034510F0B456E4550010D720EB0
:10C53000F324D96E010E18D034510F0B456E4550BF
:10C54000020D070EF324D96E000EF420DA6EDECF52
:10C5500049F0DDCF4AF034510F0B456E4550010DC7
:10C56000750EF324D96E010EF420DA6EDF50486E9A
:10C5700048B006D0FB0E4914496EFF0E4A1404D091
:10C58000040E4910496E4A504A6E34BF0AD03451E5
:10C590000F0B456E4550020D4E0EF324D96E010E61
:10C5A00009D034510F0B456E4550020D070EF32490
:10C5B000D96E000EF420DA6E49C0DEFF4AC0DDFFFE
:10C5C000030E3119D8A42DD049C0D9FF4AC0DAFFD3
:10C5D000DFAE1AD034BF0AD034510F0B456E455030
:10C5E000010D720EF324D96E010E0AD00D013451E3
:10C5F0000F0B456E4550010D750EF324D96E010EDB
:10C60000F420DA6E0101DF8249C0D9FF4AC0DAFFA7
:10C61000000EDB8449C0D9FF4AC0DAFF000EDB8E72
:10C620001200040E4918496E4A504A6E49C0D9FF9B
:10C630004AC0DAFFDFAE1BD049C0D9FF4AC0DAFFDB
:10C640007F0EDF1649C0D9FF4AC0DAFF000EDB8C2F
:10C65000000E3E6E050E3D6E49C03FF04AC040F0F0
:10C66000000E426E020E416E92EC74F006D049C08C
:10C67000D9FF4AC0DAFF000EDB8C040E4918496E60
:10C680004A504A6E48B206D049C0D9FF4AC0DAFFC4
:10C69000DFAE30D00D0134BF0AD034510F0B456EE0
:10C6A0004550010D720EF324D96E010E0AD00D0112
:10C6B00034510F0B456E4550010D750EF324D96EA4
:10C6C000010EF420DA6E0101DF9249C0D9FF4AC0A1
:10C6D000DAFF3B0EDF16000E3E6E050E3D6E49C0C2
:10C6E0003FF04AC040F0000E426E020E416E92ECE6
:10C6F00074F006D049C0D9FF4AC0DAFF3B0EDF16FE
:10C700000D0134510F0B456E4550010D260EF324DB
:10C71000466E0F0EF420476E46C0D9FF47C0DAFFC1
:10C72000FE0EDF161200A00E0001706F000E716F7A
:10C7300095C072F096C073F0000E756F0A0E746F9C
:10C74000F5EC78F0A00E0001606F000E616F7DECDB
:10C7500079F000016051AA6F96AF54D0AA51000839
:10C760009725020FAB6FAB51800A7F0FD8A090D0F6
:10C7700097C0ACF0AC29D8B442D0AC51ABBF04D018
:10C78000FF0AAB25D8B02AD0ABC09AF09B6B9ABFFA
:10C790009B079A1F9B1F9A4B9B2BAC519C6F9D6BC9
:10C7A0009A519C279B519D23010E9C27000E9D238F
:10C7B000A00E9C25D96E000E9D21DA6EAC519E6FA5
:10C7C0009F6B010E9E27000E9F23A00E9E25E16EFB
:10C7D000000E9F21E26EDFCFE7FF0FD0AC519A6FC2
:10C7E0009B6B010E9A27000E9B23A00E9A25D96EF3
:10C7F000000E9B21DA6E300EDF6EAC07BBD797516F
:10C80000020F45D0AA51000897259A6F9A29AB6F5D
:10C81000AB51800A7F0FD8A03BD097C0ACF0AC29B9
:10C82000D8B434D0AC51ABBF04D0FF0AAB25D8B0DC
:10C8300021D0ABC09AF09B6B9ABF9B079A1F9B1F9E
:10C840009A4B9B2BAC519C6F9D6B9A519C279B5193
:10C850009D23A00E9C25D96E000E9D21DA6EAC5151
:10C86000010DA00EF324E16E000EF420E26EDFCF86
:10C87000E7FF0AD0AC51010DA00EF324D96E000ED3
:10C88000F420DA6E300EDF6EAC07C9D79729AA6F95
:10C8900097510008AA259A6F9A05976F000EAC6F02
:10C8A00023D0AC51010DA00EF324D96E000EF4205C
:10C8B000DA6EAC51010DF3509825E16EF4509921D8
:10C8C000E26EDFCFE7FF9751AC19D8A40CD0AC2BA8
:10C8D000AC51010DF3509825D96EF4509921DA6EC0
:10C8E0002E0EDF6E1ED0AC2BAA51AC5DD8B019D085
:10C8F000D8D7AC51010DA00EF324D96E000EF42050
:10C90000DA6EAC519A6F9B6B010E9A27000E9B2337
:10C910009A519825E16E9B519921E26EDFCFE7FF96
:10C92000AC2BAA51AC5DD8A0E4D7AC519A6F9B6BED
:10C93000010E9A27000E9B239A519825D96E9B5180
:10C940009921DA6E000EDF6E120000016A6F6AC074
:10C95000F5F000016051611162116311D8A40AD091
:10C96000000E0101586FFF0E596FFF0E5A6FFF0E38
:10C970005B6F08D060C058F161C059F162C05AF1D4
:10C9800063C05BF1000164516511D8A405D028C1D2
:10C9900078F129C179F104D064C078F165C079F1EA
:10C9A000000EF46F000EF36F000E0D6E000E0E6E93
:10C9B000000E0F6E000E106E5B0EF66E940EF76E8C
:10C9C000000EF86E0900F5CF66F00900F5CF67F0AC
:10C9D00066C054F167C055F10101566B576BBA90B0
:10C9E000BA92BA94BA968A9000016A29D8A405D05E
:10C9F00001012351D8B405D006D001012351D8B488
:10CA000002D08A9401D08A848A82010E0D26000EFB
:10CA10000E220F2210220001F551666F000E66BF34
:10CA2000FF0E676F686F696F6651D3276751D42314
:10CA30006851D5236951D62301011F510001D31933
:10CA400018E1010120510001D41913E10101215124
:10CA50000001D5190EE1010122510001D619D8A417
:10CA600008D0000ED36F000ED46F000ED56F000EED
:10CA7000D66FD3291BE1D42919E1D52917E1D6298D
:10CA8000D8A414D0FF0E01011F250001D36FFF0EA3
:10CA9000010120210001D46FFF0E010121210001BD
:10CAA000D56FFF0E010122210001D66F550EA76E32
:10CAB000AA0EA76E0E01BF91000EC46F550EA76E91
:10CAC000AA0EA76EBF81000E1B6EF50E0001F325A6
:10CAD000F66E9B0EF421F76EF86A000EF82208003D
:10CAE000F5CF66F0CA506619FC0B6619CA6E0E0EB9
:10CAF000F325F66E9A0EF421F76EF86A000EF8220E
:10CB00000800F5CFCBFF270EF325F66E980EF42123
:10CB1000F76EF86A000EF8220800F5CF66F0664757
:10CB200066476647CA506619870B6619CA6ED89061
:10CB3000CB30BB6E9E929D82000ECC6ECA84010EDD
:10CB4000DA6F1200A098000E636E000E626E000E87
:10CB50000F01266F270E2E6E0F0E2F6E000E316EF8
:10CB6000000E306E000E336E020E326E6BEC7AF0F9
:10CB7000160E0F01396F9F0E376F7B0E366F000E4A
:10CB8000366E0B0E366401D00ED03650040D000EFA
:10CB9000F324D96E0D0EF420DA6EDE6ADE6ADE6AE8
:10CBA000DD6A362AEED7658C000E0F01386F659866
:10CBB000659C6296000E046E000E0101486F000E27
:10CBC0004A6F000E496F62B6F4D7010E226E010E55
:10CBD000216E000E0001FD6F000EFC6F000E276E2F
:10CBE000000E366E020E366401D02ED03650020D85
:10CBF000070EF324D96E000EF420DA6E000EDE6EFE
:10CC0000000EDD6E3650020D4E0EF324D96E010E6D
:10CC1000F420DA6E000EDE6E000EDD6E3650010D71
:10CC2000750EF324D96E010EF420DA6E000EDF6E5D
:10CC30003650010D720EF324D96E010EF420DA6E17
:10CC4000000EDF6E362ACED7080E076E0D0E086E68
:10CC5000160E0F01266F0D0E0D01036F300E026FC1
:10CC6000080E016F040E006F008F000E2D6E000E77
:10CC70000101686F000E696F000E6A6F000E6B6F26
:10CC8000000E0001FB6F000E2B6E12000001686F9A
:10CC900000016851D8A463AF1AD060C064F061C0CD
:10CCA00065F062C066F063C067F0641F651F661FB1
:10CCB000671F642B000E65236623672364C06AF038
:10CCC00065C06BF066C06CF067C06DF008D060C0E6
:10CCD0006AF061C06BF062C06CF063C06DF06051CF
:10CCE000611162116311D8A409D0000E606F000EAB
:10CCF000616F000E626F000E636F1200960E696F17
:10CD000006D0692BD8906D336C336B336A33000EC9
:10CD10006A15646F000E6B15656F000E6C15666FFB
:10CD2000FE0E6D15676F6451651166116711D8B4F9
:10CD30000DD0E7D7692B010E6A27000E6B236C23F9
:10CD40006D23D8906D336C336B336A33000E6A15E4
:10CD5000646F000E6B15656F000E6C15666FFF0E2D
:10CD60006D15676F6451651166116711D8B407D0EE
:10CD7000E1D76907D8906A376B376C376D376CBF6E
:10CD800003D0020E6961F5D769A16C9FD890693311
:10CD900069C064F0656B666B676B64C067F0666B57
:10CDA000656B646B64516A1365516B1366516C1348
:10CDB00067516D136851D8A463AF01D06D8F6AC0FD
:10CDC00060F06BC061F06CC062F06DC063F0120087
:10CDD0002B04D8B465BA07D0000E626E0F013681FD
:10CDE0003689020E2B6E62A406D00F0136A503D041
:10CDF0006294F1EC79F065A202D0A198120062A0D1
:10CE000009D00F0136A106D0A2EC65F0A088040E6F
:10CE10002B6E629062A804D00F0136B926EC7AF02E
:10CE200062AC1BD00F0136AD0ED0000E3E6E730EFD
:10CE30003D6E000E3F6E000E406E000E426E010E03
:10CE4000416E92EC74F0629CCCEC7AF02450D8A441
:10CE500024062450D8B4B6EC70F062AA04D00F01B6
:10CE600036BB5BEC79F062A212D00F0136A30FD073
:10CE70007F0E3E6E3D68000E3F6E000E406E000E4F
:10CE8000426E010E416E92EC74F0000E636E040E61
:10CE90002B6002D0A19812000F0136A739D0000EE6
:10CEA0004C6E030E4C6401D033D062A631D064CFF7
:10CEB0002CF02C30E832E8320F0B266E62962CB440
:10CEC00007D02650010D720EF324D96E010E06D044
:10CED0002650010D750EF324D96E010EF420DA6E82
:10CEE0000101DF702650D8A403D06DEC73F00ED092
:10CEF000000E3E6E720E3D6E2C0E3F6E000E406EAA
:10CF0000000E426E000E416E92EC74F04C2AC9D7AE
:10CF1000A1981200D89000018735F66E8835F76E1B
:10CF20008B0EF626900EF722F86A000EF822090002
:10CF3000F5CF89F00900F5CF8AF089C08FF08AC05B
:10CF400090F0916B926B040ED8908F379037913799
:10CF50009237E82EF9D78FC060F090C061F091C091
:10CF600062F092C063F0680E646F010E656F000E90
:10CF7000666F000E676F40EC77F060C08FF061C0A5
:10CF800090F062C091F063C092F08FC060F090C0EA
:10CF900061F091C062F092C063F0640E0001646FB2
:10CFA000000E656F000E666F000E676F40EC77F045
:10CFB00060C08FF061C090F062C091F063C092F0E9
:10CFC0008FC060F090C061F091C062F092C063F0D9
:10CFD000000E46EC66F060C08BF061C08CF062C061
:10CFE0008DF063C08EF08BC06EF08CC06FF08DC082
:10CFF00070F08EC071F01FC160F020C161F021C1DE
:10D0000062F022C163F0000E46EC66F060C072F080
:10D0100061C073F062C074F063C075F0FAEC60F048
:10D020006EC08BF06FC08CF070C08DF071C08EF050
:10D030008BC060F08CC061F08DC062F08EC063F078
:10D04000D1EC6DF060C087F061C088F0120062EC36
:10D050006DF0000E13EC77F00001CE51D8A4FCD790
:10D06000040018EC51F0D3C060F0D4C061F0D5C01A
:10D0700062F0D6C063F0000E46EC66F060C0D2F2FB
:10D0800061C0D3F262C0D4F263C0D5F2D2C26EF0F6
:10D09000D3C26FF0D4C270F0D5C271F0000E00019F
:10D0A000726FA00E736F0C0E746F470E756F51EC9C
:10D0B0005FF06EC0D2F26FC0D3F270C0D4F271C014
:10D0C000D5F2D2C26EF0D3C26FF0D4C270F0D5C226
:10D0D00071F01FC160F020C161F021C162F022C176
:10D0E00063F0000E46EC66F060C072F061C073F051
:10D0F00062C074F063C075F0FAEC60F06EC0D2F2FA
:10D100006FC0D3F270C0D4F271C0D5F2D2C260F059
:10D11000D3C261F0D4C262F0D5C263F0D1EC6DF03D
:10D1200060C0D7F061C0D8F0A00E0001D71908E1A7
:10D130008C0ED819D8A404D0000ED86F000ED76F6B
:10D1400007EC59F0BAEC79F013EC75F00001F251EC
:10D15000D8B404D0F207F251D8B48B9CCD510F0B48
:10D16000CA6FCB6BCB51000AD8A404D0CA51000AB5
:10D17000D8A4080A010ECE6F6FD7800E0D013019AA
:10D18000D8A41200C00E046E82D0B30E016EA10EA0
:10D19000026E000E066E120E056E12003251D8A4F9
:10D1A00042D03251020DE40EF324F66E9D0EF420AF
:10D1B000F76EF86A000EF8220900F5CF01F00A00B8
:10D1C000F5CF02F0020E01242E6E000E02202F6E0B
:10D1D0002EC0F6FF2FC0F7FF000EF86E0E0EF7649C
:10D1E00003D00800F55005D0F6CFE9FFF7CFEAFFEE
:10D1F000EF50056E030E01242E6E000E02202F6EDE
:10D200002EC0F6FF2FC0F7FF000EF86E0E0EF7646B
:10D2100003D00800F55005D0F6CFE9FFF7CFEAFFBD
:10D22000EF50066E1200000E046E1200040E0D0187
:10D23000326127D03251020DDC0EF324F66E9D0EC2
:10D24000F420F76EF86A000EF8220900F5CF01F01D
:10D250000A00F5CF02F001C0F6FF02C0F7FF000E92
:10D26000F86E0E0EF76403D00800F55005D0F6CF27
:10D27000E9FFF7CFEAFFEF502E6E2E50056E066ADB
:10D280001200000E046E1200000E046E12000D015A
:10D290003351010AD8B479D7030AD8B47FD7010A29
:10D2A000D8B4C4D7F1D78450070B0101FE19D8B404
:10D2B00040D084B084A40FD0FEB10DD07F0E000109
:10D2C000CF19D8B408D0CF2B01013251D8B403D034
:10D2D0008B8C32C1F2F084B484A011D00101FEB570
:10D2E0000ED00001CF51800AFF0FD8A008D0CF0781
:10D2F00001013251D8B403D08B8C32C1F2F084A238
:10D300000DD00101FEB30AD0010E0001D06F010162
:10D310003251D8B403D08B8C32C1F2F084B205D034
:10D320000101FEA302D00001D0698450070B010166
:10D33000FE6F8050070BFD19D8B4120080B480A096
:10D340000FD0FDB50DD07F0E0001D119D8B408D093
:10D35000D12B01013251D8B403D08B8C32C1F2F001
:10D3600080B080A411D00101FDB10ED00001D151D7
:10D37000800AFF0FD8A008D0D10701013251D8B4DC
:10D3800003D08B8C32C1F2F080A20DD00101FDB32D
:10D390000AD0010E0001D26F01013251D8B403D07E
:10D3A0008B8C32C1F2F080B205D00101FDA302D016
:10D3B0000001D2698050070B0101FD6F1200ADC062
:10D3C000B9F0AEC0BAF0B9C0B4F0BAC0B5F0000E52
:10D3D0000001B5BFFF0EB66FB76FAD51B41917E1BD
:10D3E000AE51B51914E1AF51B61911E1B051B719E9
:10D3F000D8A40DD0B9C095F0BAC096F0B1C097F0DE
:10D40000B2C098F0B3C099F093EC63F01200ADC0D5
:10D4100060F0AEC061F0AFC062F0B0C063F00A0E61
:10D420000001646F000E656F000E666F000E676F7F
:10D43000EAEC6FF060C0B9F061C0BAF0B9C095F025
:10D44000BAC096F00001B105976FB2C098F0B3C0B2
:10D4500099F093EC63F0B2C060F0B3C061F07DEC82
:10D4600079F000016051B86FADC060F0AEC061F0FE
:10D47000AFC062F0B0C063F00A0E646F000E656F5B
:10D48000000E666F000E676FD6EC71F00001605100
:10D49000BB6FBBBFBB6DB851010DF350B225D96E48
:10D4A000F450B321DA6EBB51300FDF6EB851B46F58
:10D4B000B56B010EB427000EB523B451B225D96E59
:10D4C000B551B321DA6E000EDF6E120020EE01F0CE
:10D4D0001950D9261A50DA22DF502F6E2F50010131
:10D4E000495D000E4A59D8A049C12FF02F50495F1D
:10D4F000000E4A5B000E2E6E11D02E50010D380E1C
:10D50000F324D96E0D0EF420DA6E45C1E1FF46C159
:10D51000E2FFDFCFE7FF454B462B2E2A2F502E5C34
:10D52000D8A0EBD749514A11D8B432D020EE01F03F
:10D530001750D9261850DA22080EDF6E20EE02F0BE
:10D540001750D9261850DA22380EDE6E0D0EDD6E19
:10D5500019C0D9FF1AC0DAFFDFBC0DD017C0D9FF40
:10D5600018C0DAFF480EDF6E17C0D9FF18C0DAFF07
:10D57000000EDB8E120017C0D9FF18C0DAFF080EAC
:10D58000DF6E17C0D9FF18C0DAFF000EDB8E120065
:10D5900020EE01F01750D9261850DA22080EDF6E5F
:10D5A00020EE02F01750D9261850DA22300EDE6E27
:10D5B0000D0EDD6E17C0D9FF18C0DAFF040EDF6E46
:10D5C00017C0D9FF18C0DAFF000EDB8E489F23502A
:10D5D000D8A41200B6EC70F01200000E2E6E400EB1
:10D5E0002F6E0D0E306E400E316E020EF5EC6BF0AC
:10D5F0002EC015F02FC016F00BC013F00CC014F0A5
:10D60000000E206E1F68000E0001FA6F000E1E6EE5
:10D61000000E1D6E000E0101606F000E616F000EA6
:10D62000626F000E636F000E5C6F000E5D6F000E88
:10D630005E6F000E5F6F010E876F000E7F6F000E32
:10D640007E6F000E0D6F4AD00D51010DF80EF324C0
:10D65000D96E000EF420DA6E000EDF6EA5C12EF03A
:10D66000A6C12FF021EE99F001D80AD00500FA6E7C
:10D67000DE50FD6EDE50FE6EDE50FF6EFA50120080
:10D680000009D8B427D0A5C12EF0A6C12FF001D82B
:10D690000BD00500FA6E01019051FD6E9151FE6EA6
:10D6A0009251FF6EFA5012002E502F10D8B412D0A3
:10D6B0000DC139F0010E3A6E000E3B6E392A03D0CF
:10D6C000D8903A363B36392EFBD73A5001017E13BB
:10D6D0003B507F1327EC76F001010D2B0D51D8A4A0
:10D6E0001200B2D7336E3350D8A42BD020EE01F005
:10D6F0001750D9261850DA22080EDF6E20EE02F0FD
:10D700001750D9261850DA22300EDE6E0D0EDD6E5F
:10D7100017C0D9FF18C0DAFF0C0EDF6E17C0D9FF93
:10D7200018C0DAFF000EDB8E07C0D9FF08C0DAFF91
:10D73000040EDF6E07C0D9FF08C0DAFF000EDB8ED3
:10D7400012002E502F6E306AD8902F36303633505C
:10D75000316E326AD89031363236D8903136323620
:10D760002F50312630503222D89031363236D89070
:10D7700031363236000E3124346E0D0E3220356EC5
:10D7800034C0D9FF35C0DAFF000EDB8434C0D9FFC6
:10D7900035C0DAFF000EDB8E3350040DF3CF2FF0CF
:10D7A000F4CF30F02E50020DF3502F26F4503022DB
:10D7B000D8902F363036D8902F363036040E2F269C
:10D7C000000E3022000E2F24346E0D0E3020356EE8
:10D7D00034C0D9FF35C0DAFF000EDB8434C0D9FF76
:10D7E00035C0DAFF000EDB8E1200366E2E50D8B434
:10D7F00007D03650020D070EF324D96E000E06D066
:10D800003650020D4E0EF324D96E010EF420DA6E5E
:10D81000DECF37F0DDCF38F037503810D8A405D040
:10D82000000E2E6E000E2F6E120020EE02F037500A
:10D83000D9263850DA222FC0DEFF30C0DDFF20EEBF
:10D8400001F03750D9263850DA2231C0DFFF37C017
:10D85000D9FF38C0DAFF400EDF1637C0D9FF38C015
:10D86000DAFF000EDB8637C0D9FF38C0DAFF000EC2
:10D87000DB8E2E50D8B418D03650020D070EF3248C
:10D88000D96E000EF420DA6EDECF32F0DDCF33F049
:10D89000040E3218346E3350356E3650020D070EBA
:10D8A000F324D96E000E17D03650020D4E0EF3241D
:10D8B000D96E010EF420DA6EDECF32F0DDCF33F018
:10D8C000040E3218346E3350356E3650020D4E0E43
:10D8D000F324D96E010EF420DA6E34C0DEFF35C0B9
:10D8E000DDFF37C02EF038C02FF01200659804BE5F
:10D8F0003AD0010148AF0CD0020E296E0001FC5154
:10D90000D8B421EC73F0000E216E000E226E1200CE
:10D9100020EE01F01750D9261850DA22080EDF6EDB
:10D9200020EE02F01750D9261850DA22300EDE6EA3
:10D930000D0EDD6E17C0D9FF18C0DAFF0C0EDF6EBA
:10D9400017C0D9FF18C0DAFF000EDB8E07C0D9FF61
:10D9500008C0DAFF040EDF6E07C0D9FF08C0DAFF87
:10D96000000EDB8E12000D0130AF11D0010E296EBA
:10D970000001FD51D8B421EC73F0000E216E000EB1
:10D98000226E2350D8A41200B6EC70F01200020EE2
:10D99000296E20EE01F01750D9261850DA22080E11
:10D9A000DF6E20EE02F01750D9261850DA22300E22
:10D9B000DE6E0D0EDD6E17C0D9FF18C0DAFF040E43
:10D9C000DF6E17C0D9FF18C0DAFF000EDB8E000E25
:10D9D000216E000E226E2350D8A41200B6EC70F017
:10D9E0001200820E0001706F000E716F78C072F02D
:10D9F00079C073F0000E756F0A0E746FF5EC78F055
:10DA0000820E0001606F000E616F7DEC79F0000105
:10DA100060518C6F000E8E6F0BD08E51010DF35044
:10DA20007B25D96EF4507C21DA6E200EDF6E8E2BB2
:10DA30007A517D6F7E6B8C518EC07FF0806B7F271B
:10DA4000000E80237D517F5D8051800A816F7E5161
:10DA5000800A8159D8A0E1D7000E8D6F18D08D5162
:10DA6000010D820EF324D96E000EF420DA6E8E5171
:10DA70008DC07DF07E6B7D27000E7E237D517B2542
:10DA8000E16E7E517C21E26EDFCFE7FF8D2B8D5161
:10DA9000010D820EF324D96E000EF420DA6EDF50F1
:10DAA000D8A4DDD78E518DC07DF07E6B7D27000E12
:10DAB0007E237D517B25D96E7E517C21DA6E000E4E
:10DAC000DF6E120088EC76F096EC7AF0DDEC7AF0FE
:10DAD000D6EC79F0BAEC79F03BEC7BF005EC7BF01E
:10DAE000010E0001D96F000EDA6F000ED36F000E29
:10DAF000D46F000ED56F000ED66F010EDB6F030ED4
:10DB0000DD6FE80EDC6F010EDE6F000EE06F240E9D
:10DB1000DF6F0A0EE16F000EE36F000EE26F000E82
:10DB2000E56F010EE46F030EE76FE80EE66FE80E97
:10DB3000E86F030EE96F000EEA6F000EEB6F000E48
:10DB4000ED6F1E0EEC6F010EEE6F000EF06F1E0EED
:10DB5000EF6F010EF16F000EF26F000E01011F6FEB
:10DB6000CA0E206F080E216F000E226F010E236F68
:10DB7000190E256F000E246F000E276F010E266F01
:10DB8000010E296F7C0E286F010E2D6F310E2C6F48
:10DB9000010E316F310E306F030E326F55EC7AF09B
:10DBA0001200000162356335696F6951D8A409D04C
:10DBB000000E606F000E616F000E626F000E636FEB
:10DBC000120060C064F061C065F062C066F063C0BE
:10DBD00067F0200E05D0D890673366336533643321
:10DBE000E82EF9D76451686F628FFF0E6017FF0E41
:10DBF0006117FF0E6217000E6317960E695F69AF1B
:10DC000016D06951800A970FD8B009D0000E606F06
:10DC1000000E616F000E626F000E636F1200D890ED
:10DC20006333623361336033693FF9D715D01F0E18
:10DC300069650FD0000E606F000E616F000E626F9D
:10DC4000000E636F1200D890603761376237633718
:10DC500069076951D8A4F7D76851D8B408D0631FB1
:10DC6000621F611F606D000E61236223632360C029
:10DC700060F061C061F062C062F063C063F01200E6
:10DC8000048E270E2E6E0F0E2F6E000E316E000EBC
:10DC9000306E000E336E020E326E6BEC7AF0000EB8
:10DCA0002E6E0D0E2F6E000E316E000E306E000EB9
:10DCB000336E300E326E6BEC7AF0658C000E456E72
:10DCC000020E456401D016D04550010D750EF324A7
:10DCD000D96E010EF420DA6E000EDF6E4550010D94
:10DCE000720EF324D96E010EF420DA6E000EDF6E90
:10DCF000452AE6D78E0E2E6E010E2F6E000E316E67
:10DD0000000E306E000E336E020E326E6BEC7AF047
:10DD1000659C080E076E0D0E086E000E196E0D0E36
:10DD20001A6E19C017F01AC018F032CD2DF02D5010
:10DD3000D8A403D0100E2B6E1200000E3E6E010E02
:10DD40003D6E2D0E3F6E000E406E000E426E010EB7
:10DD5000416E92EC74F0200E2B6E12000D013039E2
:10DD6000E832030B0009D8A4120042D0048E080E3A
:10DD70002B6E1200BDEC68F0120040EC6EF0120049
:10DD80002D0E016E000E026E0480010E056E048ED3
:10DD90001200D3EC72F0120057EC62F012000D0189
:10DDA0003451010D8E0EF324016E010EF420026E2B
:10DDB0000480010E056E048E1200048E3451010D94
:10DDC0008E0EF324D96E010EF420DA6E32CDDFFF11
:10DDD0001200000E3E6E020E3D6E000E3F6E000EF3
:10DDE000406E000E426E000E416E92EC74F0120016
:10DDF0000D013151000AD8B4CCD7010AD8B4CCD720
:10DE0000020AD8B4C9D7060AD8B4B0D7030AD8B41E
:10DE1000B1D7010AD8B4DDD70F0AD8B4B1D7010AF7
:10DE2000D8B4ABD7030AD8B4BAD7010AD8B4C5D787
:10DE3000070A12000D0130511F0BE806D8A412008A
:10DE40003451D8A41200060E3119D8B418D01FD0FE
:10DE50002D04D8A41CD0C80E016EA00E026E000EB8
:10DE6000066E090E0AD0C00E046E11D07C0E016E33
:10DE7000A10E026E000E066E1D0E056EF4D7335114
:10DE8000210AD8B4E5D7030AD8B4F0D7010A30394B
:10DE9000E832030BE806D8A4120020D0FF0E016E72
:10DEA000000E026E000E066E010E056EC10E046EAF
:10DEB0001200800E046E33CDFFF01200FE0E016ED4
:10DEC000000E026E000E066E010E056E810E046ECF
:10DED0001200800E046E32CDFEF012003151010AA4
:10DEE000D8B41200030AD8B4D9D7010AD8B4E6D7F7
:10DEF0000A0AD8B41200030AD8B4DBD7010AD8A49E
:10DF00001200E7D7080E2E6E065010E1080E055CD1
:10DF1000D8B00CD005C02EF02A50D8A402D0010EE3
:10DF200004D02A04D8A402D0020E2A6E2E50055E18
:10DF3000000E065A20EE01F00750D9260850DA22CA
:10DF40002EC0DFFF380E0101846F0D0E856F04A017
:10DF50001DD03CD001C0F6FF02C0F7FF000EF86EE6
:10DF600084C1D9FF85C1DAFF0E0EF76403D0080023
:10DF7000F55005D0F6CFE9FFF7CFEAFFEF50DF6E9F
:10DF8000014A022A0101844B852B2E062E50D8B45B
:10DF90001200E0D701C0F6FF02C0F7FF000EF86ED6
:10DFA00084C1D9FF85C1DAFF0E0EF76403D00800E3
:10DFB000F55005D0F6CFE9FFF7CFEAFFEF50DF6E5F
:10DFC000014A022A0101844B852B2E062E50D8B41B
:10DFD0001200E0D7000E0001696F67AF0AD0671F1B
:10DFE000661F651F646D000E652366236723010E9F
:10DFF000696F63AF0AD0631F621F611F606D000EFF
:10E00000612362236323010E691B000E6A6F000EF9
:10E010006B6F000E6C6F000E6D6F645165116611B1
:10E020006711D8B42AD0010E686F06D0D890643733
:10E03000653766376737682B67AFF8D7D8906A3788
:10E040006B376C376D376451605D6551615966514E
:10E05000625967516359D8A009D06451605F655116
:10E06000615B6651625B6751635B6A81D89067331D
:10E07000663365336433682FE1D76951D8B408D06B
:10E080006D1F6C1F6B1F6A6D000E6B236C236D235D
:10E090006AC060F06BC061F06CC062F06DC063F08C
:10E0A000120087C060F088C061F00001626B636B92
:10E0B000000E46EC66F060C08BF061C08CF062C070
:10E0C0008DF063C08EF08BC06EF08CC06FF08DC091
:10E0D00070F08EC071F01FC160F020C161F021C1ED
:10E0E00062F022C163F0000E46EC66F060C072F090
:10E0F00061C073F062C074F063C075F051EC5FF002
:10E100006EC08BF06FC08CF070C08DF071C08EF05F
:10E110008BC06EF08CC06FF08DC070F08EC071F04F
:10E12000000E0001726FA00E736F0C0E746F470E1D
:10E13000756FFAEC60F06EC08BF06FC08CF070C041
:10E140008DF071C08EF08BC060F08CC061F08DC01E
:10E1500062F08EC063F0D1EC6DF060C087F061C0FA
:10E1600088F062C089F063C08AF012002250D8A4FF
:10E170001200010E226E2150D8A41200010E216E51
:10E18000020E2918D8A415D020EE01F00750D92688
:10E190000850DA22000EDF6E07C0D9FF08C0DAFF90
:10E1A000480EDF6E07C0D9FF08C0DAFF000EDB8E15
:10E1B00012002904D8A41200000E256E20EE01F0F2
:10E1C0001950D9261A50DA22080EDF6E20EE02F01E
:10E1D0001950D9261A50DA22300EDE6E0D0EDD6E81
:10E1E00019C0D9FF1AC0DAFF040EDF6E19C0D9FFBB
:10E1F0001AC0DAFF000EDB8E010E256E20EE01F054
:10E200001750D9261850DA22080EDF6E20EE02F0E1
:10E210001750D9261850DA22300EDE6E0D0EDD6E44
:10E2200017C0D9FF18C0DAFF800EDF6E120007C0DA
:10E23000D9FF08C0DAFF000EDFBC010E2F6E040EFE
:10E240000718076E0850086E080E2B18D8A40CD0BB
:10E250000D0132517F0B0F01386F3851D8B402D005
:10E26000100E01D0040E2B6E2904D8A43AD020EE53
:10E2700002F00750D9260850DA22380EDE6E0D0E55
:10E28000DD6E82EC6FF0020E2A18D8A40DD007C004
:10E29000D9FF08C0DAFF040EDF6E07C0D9FF08C03F
:10E2A000DAFF000EDB8E12002F50D8A40DD007C06D
:10E2B000D9FF08C0DAFF480EDF6E07C0D9FF08C0DB
:10E2C000DAFF000EDB8E120007C0D9FF08C0DAFFAC
:10E2D000080EDF6E07C0D9FF08C0DAFF000EDB8E24
:10E2E0001200010148BF489F000E296E12000D0167
:10E2F00030511F0BE806D8A412003451D8A41200E4
:10E300004DD032513311D8A4120036513711D8A450
:10E310001200000E206E1F68000E0001FA6F000E42
:10E320001E6E010E0101876F52C139F053C13AF0E0
:10E3300039503A10D8B40AD052C13BF053C13CF026
:10E340003BC0D9FF3CC0DAFFDFBE0FD0000E2E6EFF
:10E35000400E2F6E0D0E306E400E316E020EF5EC3B
:10E360006BF02EC015F02FC016F0800E046E120058
:10E370000D0132513311D8A4120036053711D8A43B
:10E380001200000E386F380E016E0D0E026E000E78
:10E39000066E010E056EC10E046E12003151FE0AAA
:10E3A000D8B4E6D7010AD8A41200ABD7000E0001FA
:10E3B000696F63AF0AD0631F621F611F606D000E3B
:10E3C000612362236323010E696F67AF08D0671F63
:10E3D000661F651F646D000E652366236723645105
:10E3E000651166116711D8B424D0010E686F06D08C
:10E3F000D8906437653766376737682B67AFF8D7CB
:10E400006451605D65516159665162596751635944
:10E41000D8A008D06451605F6551615B6651625B52
:10E420006751635BD8906733663365336433682F15
:10E43000E7D76951D8B408D0631F621F611F606DB0
:10E44000000E61236223632360C060F061C061F04D
:10E4500062C062F063C063F0120069C06DF06AC010
:10E460006EF06DC060F06EC061F06BC062F06CC0A9
:10E4700063F0C1EC77F060C06DF061C06EF0000138
:10E48000674B682B6D516E11D8A4EBD767C0D9FFCD
:10E4900068C0DAFF000EDF6E6707D8A0680769C0A2
:10E4A00060F06AC061F06BC062F06CC063F017ECA2
:10E4B00079F0000160516F6F69C060F06AC061F06F
:10E4C0006BC062F06CC063F0C1EC77F060C069F0C3
:10E4D00061C06AF0090E00016F6502D0070E6F2758
:10E4E000300E6F2767C0D9FF68C0DAFF6FC0DFFF4B
:10E4F0006707D8A0680769516A11D8A4D0D7674BBD
:10E50000682B120000019D6F23EC7BF00009D8A45A
:10E5100014D00001DA51D8A410D097C060F098C090
:10E5200061F099C062F09AC063F09BC064F09CC037
:10E5300065F09D51A5EC64F0120023EC7BF0070A16
:10E54000D8B412000001F651070D000EF324D96E65
:10E55000020EF420DA6E9DC0DFFFF651070D010EAA
:10E56000F326000EF422000EF324D96E020EF420DE
:10E57000DA6E97C0DEFF98C0DEFF99C0DEFF9AC05A
:10E58000DEFFF651070D050EF326000EF422000EF5
:10E59000F324D96E020EF420DA6E9BC0DEFF9CC01D
:10E5A000DDFFF62B1200000E0D01386F000E396FE3
:10E5B00033D0048E2804D8A43AD0388338D0048EBF
:10E5C00036D0048E34BF0AD034510F0B2E6E2E502D
:10E5D000020D4E0EF324D96E010E09D034510F0BEB
:10E5E0002E6E2E50020D070EF324D96E000EF4206D
:10E5F000DA6EDECF2FF0DDCF30F02FC0D9FF30C084
:10E60000DAFFDFAE14D02FC0D9FF30C0DAFFDFA4AD
:10E610000ED0010E386F0BD030511F0B000AD8B44A
:10E62000C8D7010AD8B4CBD7030AD8B4CAD704AE26
:10E630001200380E016E0D0E026E0480020E056E81
:10E640001200000E0001FD6F000EFC6F020E291873
:10E65000D8A41FD020EE01F01750D9261850DA2286
:10E66000080EDF6E20EE02F01750D9261850DA227D
:10E67000380EDE6E0D0EDD6E17C0D9FF18C0DAFF42
:10E68000480EDF6E17C0D9FF18C0DAFF000EDB8E10
:10E69000120005500D01365D06503759D8B004D030
:10E6A00036CD05F037CD06F082EC6FF020EE02F0AB
:10E6B0000750D9260850DA22380EDE6E0D0EDD6EB8
:10E6C00007C0D9FF08C0DAFF480EDF6E07C0D9FFC8
:10E6D00008C0DAFF000EDB8E12002D0E246E2CC057
:10E6E0004BF0FD0E4B16D8A43BD02CC04BF0D8906D
:10E6F0004B323F0E4B164B50040D000EF324196E97
:10E700000D0EF4201A6E19C017F01AC018F0040E7E
:10E710001718176E1850186E19C0D9FF1AC0DAFFF3
:10E72000DF30E8320F0B0D0AD8A417D0300E2E6E52
:10E730000D0E2F6E20EE02F01950D9261A50DA2253
:10E74000DECF30F0DDCF31F0000E336E080E326ECA
:10E75000B7EC76F002EC74F01200E5EC76F0120003
:10E760002C50FD0B040AD8A4120017EC71F0120013
:10E77000336E000E346E0D0E356E2E502F6E306AD5
:10E78000D8902F3630363350316E326AD8903136C9
:10E790003236D890313632362F5031263050322230
:10E7A000D89031363236D890313632363150342620
:10E7B0003250352234C0D9FF35C0DAFFDF9E2E50EB
:10E7C000D8A407D03350020D4E0EF324D96E010E9B
:10E7D00006D03350020D070EF324D96E000EF4203C
:10E7E000DA6E34C0DEFF35C0DDFF34C0D9FF35C07E
:10E7F000DAFFDF9C20EE04F03450D9263550DA22BF
:10E80000DF8C1200000E2A6E000E236E000E000137
:10E81000FD6F000EFC6F000E256E000E296E07C006
:10E82000D9FF08C0DAFF7F0EDF16040E0718076E47
:10E830000850086E07C0D9FF08C0DAFF7F0EDF1648
:10E84000040E0718076E0850086E17C0D9FF18C0CD
:10E85000DAFF7F0EDF16000E046E000E066E000E4D
:10E86000056E000E0101486F000E4A6F000E496FE1
:10E87000AEEC6EF0000E3E6E030E3D6E000E3F6E6F
:10E88000000E406E000E426E000E416E92EC74F06F
:10E8900076EC6CF01200D60EF66EF50EF76E000EEA
:10E8A000F86E02EEB8F010EE1AF00900F5CFEEFFA8
:10E8B000E550E150FAE17C0EF66EEB0EF76E000EBD
:10E8C000F86E01EE90F010EE6DF00900F5CFEEFF5E
:10E8D000E550E150FAE108EE00F012EE00F0EE6AC9
:10E8E000E550E150FCE1E250FAE102EE00F0B80E32
:10E8F000EE6AE806FDE101EE00F0900EEE6AE80631
:10E90000FDE100EECCF0340EEE6AE806FDE100EE2B
:10E9100001F02D0EEE6AE806FDE15B905B920001CE
:10E9200027EF68F019D0010EEBEC77F01200020E21
:10E93000EBEC77F012000CEC7AF01BEC7BF01200A1
:10E940001AEC6FF077EC71F012003FC039F040C064
:10E950003AF06CEC77F012003DC043F03EC044F05A
:10E960004450000AD8B404D07F0AD8A412001AD0A8
:10E970004350010AD8B4DFD7030AD8B41200010A01
:10E98000D8B4DED7060AD8B4E0D7770AD8B41200D4
:10E99000010AD8B41200070AD8B4C9D7010AD8A40A
:10E9A0001200C1D74350FF0A120000017F6F00011F
:10E9B0007F39E842F80B81EC7AF0400E0001746F69
:10E9C000000E806F070E806501D023D08051706FDC
:10E9D000716B010E7027000E7123740E7025D96EB5
:10E9E000000E7121DA6E8051010D6EC072F06FC0A1
:10E9F00073F0F3507227F450732372C0F6FF73C0A4
:10EA0000F7FF000EF86E0800F5501F0BDF6E802B2D
:10EA1000D9D7740E656F000E666F090E676F780E9A
:10EA20003DEC78F0120023EC7BF00009D8B4120022
:10EA30000001DA51D8A41200F751070D010EF32698
:10EA4000000EF422000EF324D96E020EF420DA6ECA
:10EA5000DECF60F0DECF61F0DECF62F0DECF63F0BC
:10EA6000F751070D050EF326000EF422000EF324D5
:10EA7000D96E020EF420DA6EDECF64F0DDCF65F0E1
:10EA8000F751070D000EF324D96E020EF420DA6E52
:10EA9000DF50A5EC64F00001F72B12001AD0000E35
:10EAA0000001616F640E606F1200000E616F0A0E4C
:10EAB000606F1200000E616F010E606F1200030E96
:10EAC000616FE80E606F1200000E616F640E606F80
:10EAD000120060C062F061C063F000016351000A7F
