:020000040000FA
:0490000047EF48F0FE
:109008005F82FACF3EF0FBCF3FF0E9CF40F0EACFE6
:1090180041F0E1CF42F0E2CF43F0D9CF44F0DACFCC
:1090280045F0F3CF46F0F4CF47F0F6CF48F0F7CF4E
:1090380049F0F8CF4AF0F5CF4BF0B7EC7FF09EB28D
:10904800DFEC5BF0F2B4A2ECAAF04BC0F5FF4AC02B
:10905800F8FF49C0F7FF48C0F6FF47C0F4FF46C015
:10906800F3FF45C0DAFF44C0D9FF43C0E2FF42C066
:10907800E1FF41C0EAFF40C0E9FF3FC0FBFF3EC03F
:10908800FAFF5F921100CBEF9CF00008000C001073
:10909800001300160019001C001E002100230026E2
:1090A8000028002A002C002E003000320034003640
:1090B8000038003A003C003D003F004100430045B5
:1090C800004600480049004B004D004E005000513A
:1090D80000530054005600570059005A005C005DC8
:1090E800005F00600062006300640066006700695A
:1090F800006A006C006D006E0070007100720073F1
:109108000074007600780079007A007B007D007E8C
:10911800007F008200850087008A008C008F009104
:10912800009200940098009A009C009E00A100A361
:1091380000A500A700AA00AC00AF00B200B400B7B9
:1091480000B800BA00BC00BE00C000C300C400C61E
:1091580000C800CA00CC00CE00D000D200D400D68F
:1091680000D800D900DB00DD00DF00E100E200E507
:1091780000E700E800EA00EC00EE00EF00F200F380
:1091880000F500F700F800FB00FD000001030104F2
:109198000107010A010C010F01120114011701193D
:1091A800011C011E0121012301250129012B012C8C
:1091B800012E0132013401360138013B013D013FE6
:1091C800014301460148014A014C014F0151015434
:1091D80001560159015B015E016001630166016985
:1091E800016B016E017101740177017A017D0180C3
:1091F80001830187018A018D019101940198019BE6
:10920800019F01A301A601AA01AE01B201B601BAEC
:1092180001BE01C301C701CC01D001D501D901DECE
:1092280001E301E801ED01F301F801FE0103020980
:10923800020F0215021B02210227022E0235023CF0
:109248000243024A0251025902610269027102791B
:109258000282028B0294029E02A702B102BC02C6DD
:1092680002D102DC02DC02DF02E202E502E802EBE4
:1092780002EE02F102F402F702FA02FD0200030410
:109288000307030A030D031103140317031A031E2C
:10929800032103250328032C032F03330336033A42
:1092A800033E034103450349034D03500354035848
:1092B800035C036003640368036C0370037403793D
:1092C800037D03810385038A038E03930397039C1D
:1092D80003A003A503AA03AE03B303B803BD03C2E7
:1092E80003C603CC03D103D603DB03E003E503EB9A
:1092F80003F003F603FB03010406040C041204172D
:10930800041D04230429042F0436043C04420448A1
:10931800044F0455045C0463046A04700477047EF3
:109328000485048D0494049B04A304AA04B204BA1B
:1093380004C204C904D204DA04E204EA04F304FC13
:109348000404050D0516051F05280532053B0545CE
:10935800054F05590563056D05770582058C059749
:1093680005A205AD05B905C405D005DC05E805F479
:109378000501060E061A0628063506430650065E3F
:10938800066D067B068A069906A906B806C806D899
:1093980006E906FA060B071C072E0740075307665F
:1093A8000779078D07A107B607CB07E007F6070C73
:1093B8000823083B0853086B0884089E08B808D39C
:1093C80008EF080B092809450964098309A309C49A
:1093D80009E609080A2C0A510A770A9D0AC50AEF04
:1093E8000A190B450B720B720B7D0B890B940BA0A2
:1093F8000BAC0BB80BC40BD00BDC0BE90BF50B0259
:109408000C0E0C1B0C280C350C420C4F0C5D0C6A16
:109418000C770C850C930CA10CAF0CBD0CCB0CD9A4
:109428000CE80CF70C050D140D230D320D420D51EF
:109438000D610D700D800D900DA00DB10DC10DD2F7
:109448000DE30DF30D050E160E270E390E4B0E5CAF
:109458000E6F0E810E930EA60E010002000300048B
:1094680000050006000700080009000A000B000CB0
:10947800000D000E000F0010001100120013001460
:1094880000150016001700180019001A001B001C10
:10949800001D001E001F00200021002200230024C0
:1094A80000250026002700280029002A002B002C70
:1094B800002D002E002F0030003100320033003420
:1094C80000350036003700380039003A003B003CD0
:1094D800003D003E003F004000410042004300457F
:1094E80000470049004B004D004F00510053005504
:1094F80000570059005B005D005F00610063006574
:1095080000670069006B006E0070007300750077DB
:109518000079007B007D007F008100830085008743
:109528000089008B008D008F0091009300950097B3
:109538000099009B009D009F00A100A300A500A723
:1095480000A900AB00AD00AF00B100B300B500B793
:1095580000B900BB00BD00C000C300C600C900CCF4
:1095680000CF00D200D500D800DB00DE00E100E427
:1095780000E700EA00ED00F000F300F600F900FC57
:1095880000FF000201050108010B010E0111011481
:109598000117011A011D012001230126012A012DAD
:1095A800013001330137013A013E014201450149C9
:1095B800014D015101550159015D01610166016AC1
:1095C800016E01730178017D01820187018C01918F
:1095D8000196019C01A101A701AD01B301B901BF29
:1095E80001C601CC01D301DA01E101E801F001F77C
:1095F80001FF0107020F02180221022A0233023D6D
:1096080002470251025C02670272027E028A0297D6
:1096180002A402B202C002CF02DF02EF02FF02116F
:10962800032303360349035E0373038903A103B9C4
:1096380003D303DD03E403EA03F103F803FF03069E
:10964800040D0415041C0424042B0433043B0442B5
:10965800044A0452045A0463046B0474047C0485A9
:10966800048E0496049F04A904B204BB04C504CE66
:1096780004D804E204EC04F60400050B05150520E3
:10968800052B05360541054C05580564056F057B16
:109698000587059405A005AD05BA05C705D405E2FB
:1096A80005EF05FD050B061906280637064606557B
:1096B800066406740684069406A406B506C606D78C
:1096C80006E906FA060C071F073107440758076B17
:1096D800077F079307A807BD07D207E807FE071506
:1096E800082C0843085B0873088B08A508BE08D82F
:1096F80008F2080D092909450961097E099C09BA7A
:1097080009D909F909190A390A5B0A7D0A9F0AC3A6
:109718000AE70A0C0B310B580B7F0BA70BD00BFA7F
:109728000B250C510C7E0CAB0CDA0C0A0D3B0D6DA5
:109738000DA00DD40D0A0E410E790EB30EEE0E2AB1
:109748000F680FA80FE90F2C107010B610FE104804
:10975800119411E21132128512D91230138913E5CE
:10976800134414A51409157015DA154716B8162BE5
:1097780017A3171E189D182119A819341AC41A5AA4
:109788001BF41B941C391DE41D951E4C1F0A20CE8A
:10979800209A216E224A232E241B25122612271DC9
:1097A800283229532A812BBB2C032E5A2FC030363E
:1097B80032BD335735F5356136CD363B37AA371BC1
:1097C800388C3800397439EA39623ADB3A553BD17A
:1097D8003B4E3CCD3C4E3DD03D543EDA3E613FEAE7
:1097E8003F744001418F411F42B1424543DB4373FF
:1097F800440D45A9454746E74689472E48D5487E42
:1098080049294AD74A874B3A4CEF4CA64D614E1E20
:109818004FDD4FA05065512D52F852C65397546BE7
:109828005542561C57FA570C070504040303030254
:10983800020202020201010101010101010101010B
:109848000101010101010101010101010101010100
:1098580001010101010101010101010101010101F0
:1098680001010101010101010101010101010101E0
:1098780001010101010101010101010101010101D0
:1098880001010000000000000000000000000000CE
:1098980000000000000000000000000000000000C0
:1098A80000000000000000000000000000000000B0
:1098B80000000000000000000000000000000000A0
:1098C8000000000000000000000000000000000090
:1098D8000000000000000000000000000000000080
:1098E8000000000000000000000000000000000070
:1098F8000000000000000000000000000000000060
:10990800000000000000000000000000000000004F
:10991800000000000000000000000000000000003F
:10992800000000000000000000000000000000002F
:10993800000000000000000000000000000000001F
:10994800000000000000000000000000000000000F
:1099580000000000000000000000000000000000FF
:1099680000000000000000000000000000000000EF
:1099780000000000000000000000000000000000DF
:1099880000000000000000000000000000000000CF
:1099980000000000000000000000000000000000BF
:1099A80000000000000000000000000000000000AF
:1099B800000000000000000000000000000000009F
:1099C800000000000000000000000000000000008F
:1099D800000000000000000000000000000000007F
:1099E800000000000000000000000000000000006F
:1099F800000000000000000000000000000000005F
:109A08000000000000000000000000000000ECF270
:109A1800F6F4D2E8D2C0ECDCCFC3B9B0FCF2E8DF90
:109A2800D7D0CAC3BEB8B3AFAAA6A29F9B98959237
:109A38008F8C8A878583817F7D7B79777574727136
:109A48006F6E6C6B6A68676665646261605F5E5DB5
:109A58005C5B595756545351504F4E4C4B4A4948EA
:109A680047464544434241403FFEFBF8F6F3F0EEDB
:109A7800ECE9E7E5E3E0DEDCDAD8D7D5D3D1CFCE21
:109A8800CCCAC9C7C6C4C3C1C0BEBDBCBAB8B6B4C7
:109A9800B3B1AFAEACAAA9A7A6A4A3A1A09F9D9C51
:109AA8009B9A98979695949392908F8E8D8C8B8A8B
:109AB800898887868584838281807F7E7D7C7B7A86
:109AC800797877767574737271706F6E6D6C6B6A76
:109AD800696867666564636261605F5E5D5C5B5A66
:109AE800595857565554535251504F4E4D4C4B4A56
:109AF800494847464544434241403FFFFEFDFCFB81
:109B0800FAF9F8F7F6F5F4F3F2F1F0EFEEEDECEB25
:109B1800EAE9E8E7E6E5E4E3E2E1E0DFDEDDDCDB15
:109B2800DAD9D8D7D6D5D4D3D2D1D0CFCECDCCCB05
:109B3800CAC9C8C7C6C5C4C3C2C1C0BFBEBDBCBBF5
:109B4800BAB9B8B7B6B5B4B3B2B1B0AFAEADACABE5
:109B5800AAA9A8A7A6A5A4A3A2A1A09F9E9D9C9BD5
:109B68009A999897969594939291908F8E8D8C8BC5
:109B78008A898887868584838281807F7E7D7C7BB5
:109B88007A797877767574737271706F6E6D6C6BA5
:109B98006A696867666564636261605F5E5D5C5B95
:109BA8005A595857565554535251504F4E4D4C4B85
:109BB8004A494847464544434241403FFFFEFDFC71
:109BC800FBFAF9F8F7F6F5F4F3F2F1F0EFEEEDEC55
:109BD800EBEAE9E8E7E6E5E4E3E2E1E0DFDEDDDC45
:109BE800DBDAD9D8D7D6D5D4D3D2D1D0CFCECDCC35
:109BF800CBCAC9C8C702020202020202020202025A
:109C0800020202020202020202020202020202022C
:109C1800020202020202020202020202020202021C
:109C2800020202020202020202020202020202020C
:109C380002020202020202020202020202020202FC
:109C480002020202020202020202020202020202EC
:109C580002020202020202020202020202020202DC
:109C680002020202020202020202020202020202CC
:109C780002020202020202020202020202020202BC
:109C880002020202020202020202020202020202AC
:109C9800020202020202020202020202020202029C
:109CA800020202020202020202020202020202028C
:109CB800020202020202020202020202020202027C
:109CC800020202020202020202020202020202026C
:109CD800020202020202020202020202020202025C
:109CE800020201010101010101010101010101015A
:109CF800010101010101010101010101010101014C
:109D0800010101010101010101010101010101013B
:109D1800010101010101010101010101010101012B
:109D2800010101010101010101010101010101011B
:109D3800010101010101010101010101010101010B
:109D480001010101010101010101010101010101FB
:109D580001010101010101010101010101010101EB
:109D680001010101010101010101010101010101DB
:109D780001010101010101010101010101010101CB
:109D880001010101010101010101010101010101BB
:109D980001010101010101010101010101010101AB
:109DA80001010100000000000000000000000000A8
:109DB800000000000000000000000000000000009B
:109DC800000000000000000000000000000000008B
:109DD800000000000000000000000000E5A2FEA056
:109DE80032A1A1A1BEA04D616E75616C204D6F645A
:109DF8006520202020202020202043757272656E67
:109E08007420706F733A2020202020202001547580
:109E1800726E2043435720002053706565642020EC
:109E280020205374617274202020200020202020DC
:109E380020202020202052657475726E20746F20B7
:109E48005A65726F3F202020202043757272656E1C
:109E58007420706F733A202020202020202020209A
:109E680020202020202020202020202020202020EA
:109E78002020205965732020202020202020202009
:109E880020204E6F20204172633A2053697A653D45
:109E98002020202020202020202043757272656E0B
:109EA8007420706F733A20202020202020015475E0
:109EB800726E20434357200020537065656420204C
:109EC800202053746172742020202000202020203C
:109ED8002020202020204172633A2053657420619D
:109EE80072632073697A6520202041726320736948
:109EF8007A653A202020202020202020202053741A
:109F080065702073697A6520002020436F6E66694A
:109F1800726D202020202020202020200020204397
:109F2800616E63656C204469766964653A20202017
:109F380020202020202020202020506F733A20202D
:109F480020202020202020202020202020204A758A
:109F58006D702073697A653A202020202020202007
:109F680020205072657373546F4A756D70200020FD
:109F780043616E63656C4469766964653A2053652C
:109F880074206469766973696F6E20202020202010
:109F980020202020202020202020202020202020B9
:109FA800202F737465702020002020436F6E66692F
:109FB800726D3132333420202020202000202043AD
:109FC800616E63656C2053657475703A20536574CF
:109FD80020646972656374696F6E202020202020D8
:109FE8002020202020202020202020202020204346
:109FF8006F756E746572436C6F636B7769736520F8
:10A00800202020436C6F636B7769736520202020C4
:10A0180020202020202053657475703A20536574E1
:10A02800207A65726F20706F732E202020202020E8
:10A038002020202020202020202020202020537491
:10A0480065702073697A6520002020436F6E666909
:10A05800726D20782E78780120202020002020435F
:10A06800616E63656C204D61696E204D656E753A51
:10A078002020202020202020202020536574757067
:10A088002020202044697669646520202020204112
:10A0980072632020202020204D616E75616C202085
:10A0A800202020476F325A65726F20202020202000
:10A0B80020202020202009024000020100C032098F
:10A0C8000400000203000000092111010001221D03
:10A0D800000705810340000107050103400001094D
:10A0E800040100020806500007058202400001072B
:10A0F800050202400001340353006F006C00640045
:10A10800650072006E006500720064002E00630036
:10A118006F006D002000200020002000200020009B
:10A12800200020002000200020002E03530074008F
:10A13800650070007000650072004D006F007400CB
:10A148006F00720043006F006E00740072006F00B1
:10A158006C006C00650072000080040220000000A2
:10A168004D6963726F6368704D6173732053746FC8
:10A178007261676520202020303030310600FF09E9
:10A1880001A10119012940150026FF007508954015
:10A198008100190129409100C01A033100320033AF
:10A1A80000340035003600370038003900300039F7
:10A1B8000039004F56455253484F4F545F434F5351
:10A1C800545F494E5F5354455053004D4158494DD3
:10A1D800554D5F53504545445F4D414E55414C00E8
:10A1E800494E495449414C5F53504545445F4D41A0
:10A1F8004E55414C0046554C4C5F434952434C45E3
:10A208005F494E5F5354455053004F56455253488B
:10A218004F4F545F494E5F5354455053004D41587A
:10A22800494D554D5F53504545445F4152430049A0
:10A238004E495449414C5F53504545445F41524350
:10A2480000494E56455253455F4449524543544987
:10A258004F4E001201000200000008D804CFED00A4
:10A2680001010200015553455F4343575F4C494D77
:10A27800495400424545505F4455524154494F4E58
:10A28800004D4158494D554D5F5350454544004D8B
:10A29800494E494D554D5F5350454544005553452A
:10A2A8005F43575F4C494D4954004343575F4C49FE
:10A2B8004D49540043575F4C494D4954000A000E1C
:10A2C800010F110F0018180000000000000404041A
:10A2D80004040404043D2A80A73D2A80A604030937
:10A2E8000468656C6C6F20776F726C64210053741E
:10A2F80065707065724374726C0046494C45202045
:10A308002020004D53444F53352E3000202020206C
:10A31800202020200043616E63656C0053746F70C9
:07A32800200054585400000E
:10A330008EEF57F0420E0001606F020E616F6E0EDD
:10A34000626FA00E636F000E656F500E646FF2ECCB
:10A35000A3F00FD03E0E0201566FBCEF57F03E0E39
:10A3600002015F6FBCEF57F03E0E0201736FBCEF4E
:10A3700057F001017351010AD8B4ECD7030AD8B4DD
:10A38000EED7010AD8B467D0070AD8B4EDD7010ACE
:10A3900072D0420E0001606F020E616F1E0E626F7E
:10A3A000A00E636F000E656F500E646FF2ECA3F0A9
:10A3B00076C19FF077C1A0F0020E0001A16FC80E18
:10A3C000A26F000EA36FD7EC71F0E80E0101765D6D
:10A3D000030E7759D8A002D0000E01D0010E000163
:10A3E000D26F000ED36F18D0D351010DC80EF324D5
:10A3F000D96E000EF420DA6ED351D2C0C6F0C76B0E
:10A40000C627000EC7237E0EC625E16E020EC721A9
:10A41000E26EDFCFE7FFD32BD351010DC80EF3243B
:10A42000D96E000EF420DA6EDF50D8A4DDD701011A
:10A430007351110A8ED0420E0001606F020E616FDF
:10A44000CE0E626F9F0E636F000E656F500E646FCD
:10A45000F2ECA3F00AD03E0E02016A6FBCEF57F097
:10A460003E0E02017E6FBCEF57F001017351210ACD
:10A47000D8B4F1D7030AD8B4F3D7BCEF57F0420EE3
:10A480000001606F020E616F7E0E626F9F0E636F40
:10A49000000E656F500E646FF2ECA3F07BC178F094
:10A4A0000001796B030E7A6FC80E7B6F000E7C6F14
:10A4B00047EC90F0000E0001D36F020ED36501D07F
:10A4C00014D0D351010DC80EF324D96E000EF42020
:10A4D000DA6ED351010D6A0EF324E16E020EF42000
:10A4E000E26EDFCFE7FFD32BE8D779C178F07AC1EE
:10A4F00079F0040E7A6FC80E7B6F000E7C6F47EC0C
:10A5000090F0000E0001D36F030ED36501D01ED072
:10A51000D351010DC80EF324D96E000EF420DA6E6B
:10A52000D351010D7E0EF324E16E020EF420E26E93
:10A53000DFCFE7FFD32BE8D73E0E0201766FBCEFEB
:10A5400057F03E0E02018A6FBCEF57F001017351C4
:10A55000310AD8B4F1D7030AD8B4F3D7BCEF57F017
:10A56000420E0001606F020E616F2E0E626F9F0E31
:10A57000636F000E656F500E646FF2ECA3F079C14B
:10A5800078F07AC179F0000E00017A6FC80E7B6F07
:10A59000000E7C6F47EC90F0000E0001D36F18D0D6
:10A5A000D351010DC80EF324D96E000EF420DA6EDB
:10A5B000D351C66FC76B080EC627000EC723420EC5
:10A5C000C625E16E020EC721E26EDFCFE7FFD32B77
:10A5D000D351010DC80EF324D96E000EF420DA6EAB
:10A5E000DF50D8A4DDD7D351C66FC76B080EC6277E
:10A5F000000EC723420EC625D96E020EC721DA6EA1
:10A600002C0EDF6E01017829D8A424D00001D3518B
:10A61000C66FC76B0A0EC627000EC723420EC6259B
:10A62000D96E020EC721DA6E430EDF6ED351C66FAC
:10A63000C76B0B0EC627000EC723420EC625D96E68
:10A64000020EC721DA6E430EDF6ED351C66FC76BA1
:10A650000C0E14D00001D351C66FC76B0A0EC6276B
:10A66000000EC723420EC625D96E020EC721DA6E30
:10A67000430EDF6ED351C66FC76B0B0EC627000E9D
:10A68000C723420EC625D96E020EC721DA6E570EB9
:10A69000DF6E7CC178F07DC179F0000E7A6FC80E54
:10A6A0007B6F000E7C6F47EC90F0000E0001D36FC3
:10A6B00018D0D351010DC80EF324D96E000EF4202A
:10A6C000DA6ED351C66FC76B050EC627000EC723BF
:10A6D000560EC625E16E020EC721E26EDFCFE7FF00
:10A6E000D32BD351010DC80EF324D96E000EF420E4
:10A6F000DA6EDF50D8A4DDD7D351C66FC76B060E14
:10A70000C627000EC723560EC625D96E020EC721D6
:10A71000DA6E280EDF6ED351070FD26F71C1B7F01A
:10A7200072C1B8F0B96BBA6B020EBB6FC80EBC6FCA
:10A73000000EBD6F71EC87F0000E0001D36F18D0D2
:10A74000D351010DC80EF324D96E000EF420DA6E39
:10A75000D251D3C0C6F0C76BC627000EC723560E12
:10A76000C625E16E020EC721E26EDFCFE7FFD32BD5
:10A77000D351010DC80EF324D96E000EF420DA6E09
:10A78000DF50D8A4DDD7D251D3C0C6F0C76BC627DF
:10A79000000EC723560EC625D96E020EC721DA6EEB
:10A7A000010EDF6ED251D3C0C6F0C76BC627000EB4
:10A7B000C723010EC627000EC723560EC625D96E25
:10A7C000020EC721DA6E290EDF6E7EC18FF07FC1C7
:10A7D00090F0C80E916F000E926F62ECA9F0000E1F
:10A7E0000001D36F18D0D351010DC80EF324D96ED8
:10A7F000000EF420DA6ED351C66FC76B0B0EC6275E
:10A80000000EC7236A0EC625E16E020EC721E26E56
:10A81000DFCFE7FFD32BD351010DC80EF324D96E40
:10A82000000EF420DA6EDF50D8B4A6D3DCD7420E87
:10A83000606F020E616FDE0E626F9E0E636F000E20
:10A84000656F500E646FF2ECA3F008D03E0E02016B
:10A85000766F0CD03E0E02018A6F08D00101735151
:10A86000510AD8B4F3D7030AD8B4F4D782C1B7F0E9
:10A8700083C1B8F084C1B9F085C1BAF0020E0001FD
:10A88000BB6FC80EBC6F000EBD6F71EC87F0000E81
:10A890000001D36F18D0D351010DC80EF324D96E27
:10A8A000000EF420DA6ED351C66FC76B0A0EC627AE
:10A8B000000EC723560EC625E16E020EC721E26EBA
:10A8C000DFCFE7FFD32BD351010DC80EF324D96E90
:10A8D000000EF420DA6EDF50D8A4DDD7D351C66F56
:10A8E000C76B0A0EC627000EC723560EC625D96EA3
:10A8F000020EC721DA6E010EDF6E80C19FF081C1AA
:10A90000A0F0020EA16FC80EA26F000EA36FD7ECCD
:10A9100071F0E80E0101805D030E8159D8A002D0CC
:10A92000000E01D0010E0001D26F000ED36F18D0BF
:10A93000D351010DC80EF324D96E000EF420DA6E47
:10A94000D351D2C0C6F0C76BC627000EC7237E0EF8
:10A95000C625E16E020EC721E26EDFCFE7FFD32BE3
:10A96000D351010DC80EF324D96E000EF420DA6E17
:10A97000DF50D8A4DDD7D351D2C0C6F0C76BC627ED
:10A98000000EC7237E0EC625D96E020EC721DA6ED1
:10A99000010E5BD2420E606F020E616F8E0E626F0F
:10A9A0009E0E636F000E656F500E646FF2ECA3F0A5
:10A9B00025D0570E0201706F200E716F27D06A0EDE
:10A9C0000001606F020E616F140E626FA30E636F61
:10A9D000000E656F080E646FF2ECA3F07E0E0001AE
:10A9E000606F020E616F1D0E626FA30E636F000E2B
:10A9F000656F060E646FF2ECA3F008D0010173518D
:10AA0000620AD8B4DCD7010AD8B4D3D782C1B7F070
:10AA100083C1B8F084C1B9F085C1BAF0020E00015B
:10AA2000BB6FC80EBC6F000EBD6F71EC87F0000EDF
:10AA30000001D36F18D0D351010DC80EF324D96E85
:10AA4000000EF420DA6ED351C66FC76B0A0EC6270C
:10AA5000000EC723420EC625E16E020EC721E26E2C
:10AA6000DFCFE7FFD32BD351010DC80EF324D96EEE
:10AA7000000EF420DA6EDF50D8A4DDD7D351C66FB4
:10AA8000C76B0A0EC627000EC723420EC625D96E15
:10AA9000020EC721DA6E010EDF6E71C1B7F072C10E
:10AAA000B8F0B96BBA6B020EBB6FC80EBC6F000E6C
:10AAB000BD6F71EC87F0C80E0001606F000E616F12
:10AAC0002AECAAF0000160510008060FD26F000EB8
:10AAD000D36F1CD0D351010DC80EF324D96E000ED4
:10AAE000F420DA6ED351D2C0C6F0C76BC627000E71
:10AAF000C7230D0EC627000EC723560EC625E16ECE
:10AB0000020EC721E26EDFCFE7FFD32BD351010D39
:10AB1000C80EF324D96E000EF420DA6EDF50D8A4EC
:10AB2000D9D786C19DF087C19EF04EECAEF09DC096
:10AB30009FF09EC0A0F0020E0001A16FC80EA26F90
:10AB4000000EA36FD7EC71F0000E0001D36F18D088
:10AB5000D351010DC80EF324D96E000EF420DA6E25
:10AB6000D351C66FC76B0B0EC627000EC7237E0ED0
:10AB7000C625E16E020EC721E26EDFCFE7FFD32BC1
:10AB8000D351010DC80EF324D96E000EF420DA6EF5
:10AB9000DF50D8A4DDD72DD1420E606F020E616F59
:10ABA0003E0E626F9E0E636F000E656F500E646FF7
:10ABB000F2ECA3F071C1B7F072C1B8F00001B96B4B
:10ABC000BA6B020EBB6FC80EBC6F000EBD6F71EC8E
:10ABD00087F0000E0001D36F18D0D351010DC80EBD
:10ABE000F324D96E000EF420DA6ED351C66FC76B12
:10ABF0000D0EC627000EC723560EC625E16E020EA7
:10AC0000C721E26EDFCFE7FFD32BD351010DC80E72
:10AC1000F324D96E000EF420DA6EDF50D8A4DDD70D
:10AC2000D351C66FC76B0D0EC627000EC723560E35
:10AC3000C625D96E020EAAD6420E606F020E616F53
:10AC4000EE0E626F9D0E636F000E656F500E646FA7
:10AC5000F2ECA3F044D0570E0201706F200E716F1A
:10AC600049D06A0E0001606F020E616F140E626FB0
:10AC7000A30E636F000E656F080E646FF2ECA3F015
:10AC80007E0E0001606F020E616F1D0E626FA30EDB
:10AC9000636F000E656F060E646FF2ECA3F02AD0AE
:10ACA0006A0E0001606F020E616F140E626FA30ED8
:10ACB000636F000E656F080E646FF2ECA3F07E0EFA
:10ACC0000001606F020E616F240E626FA30E636F4E
:10ACD000000E656F050E646FF2ECA3F00BD001015E
:10ACE0007351820AD8B4BDD7010AD8B4B4D7070AC1
:10ACF000D8B4D6D771C1B7F072C1B8F00001B96B42
:10AD0000BA6B020EBB6FC80EBC6F000EBD6F71EC4C
:10AD100087F0C80E0001606F000E616F2AECAAF088
:10AD2000000160510008070FD26F000ED36F1CD0D6
:10AD3000D351010DC80EF324D96E000EF420DA6E43
:10AD4000D351D2C0C6F0C76BC627000EC7230C0E66
:10AD5000C627000EC723560EC625E16E020EC72178
:10AD6000E26EDFCFE7FFD32BD351010DC80EF324E2
:10AD7000D96E000EF420DA6EDF50D8A4D9D789C17D
:10AD80009DF08AC19EF04EECAEF09DC09FF09EC03B
:10AD9000A0F0020E0001A16FC80EA26F000EA36FFB
:10ADA000D7EC71F0000E0001D36F18D0D351010D14
:10ADB000C80EF324D96E000EF420DA6ED351C66F9C
:10ADC000C76B0B0EC627000EC7237E0EC625E16E8D
:10ADD000020EC721E26EDFCFE7FFD32BD351010D67
:10ADE000C80EF324D96E000EF420DA6EDF50D8A41A
:10ADF000DDD7D351C66FC76B0B0EC627000EC72316
:10AE00007E0EC625D96E020EC721DA6E010EDF6EE8
:10AE1000D351C66FC76B0C0EC627000EC7237E0E1C
:10AE2000C625D96E020EC721DA6E2F0EDF6ED35102
:10AE3000C66FC76B0D0EC627000EC7237E0EC62534
:10AE4000D96E020EC721DA6E730EDF6E95D0F5EC67
:10AE5000A8F00101675100019F6FA06B9FBFA00781
:10AE6000000EA16F420EA26F020EA36FD7EC71F01D
:10AE700084A402D0480E01D04C0E02014A6F84A077
:10AE800002D0480E01D04C0E4B6F010168510001F9
:10AE90009F6FA06B9FBFA007000EA16F560EA26F01
:10AEA000020EA36FD7EC71F084A202D0480E01D03D
:10AEB0004C0E02015E6F0101695100019F6FA06B92
:10AEC0009FBFA007000EA16F6A0EA26F020EA36FB4
:10AED000D7EC71F080A002D0480E01D04C0E0201D8
:10AEE000726F80A402D0480E01D04C0E736F010126
:10AEF0006A5100019F6FA06B9FBFA007000EA16F5A
:10AF00007E0EA26F020EA36FD7EC71F080A202D06A
:10AF1000480E01D04C0E0201866F2ED001017351F4
:10AF2000F00B0001C66FC76BC751000AD8A424D02C
:10AF3000C651000AD8B49AEF51F0100AD8B4C9EF3C
:10AF400051F0300AD8B41BEF52F0100AD8B43FEFDA
:10AF500052F0700AD8B4B0EF52F0100AD8B467D4E7
:10AF6000300AD8B417D5100AD8B416D6F00AD8B417
:10AF700063D6700AD8B46BD783B41200450E0201B1
:10AF8000426F520E436F520E446F4F0E456F520E7A
:10AF9000466F120001016751D8A4E2D36951D8A4C9
:10AFA000DFD36851D8A4DCD36A51D8B41200D8D307
:10AFB0006805D8B403D06A05D8A402D0110E736F07
:10AFC00069C1A8F00001A96BA8BFA90767C1AAF0D1
:10AFD000AB6BAABFAB07A851AA27A951AB23ABBF44
:10AFE00008D0AB5103E1AA05D8A003D0020E01019D
:10AFF000736F69C1A8F00001A96BA8BFA90767C159
:10B00000AAF0AB6BAABFAB07A851AA27A951AB23E3
:10B01000ABAFCBD3050E92D36805D8B403D06A0585
:10B02000D8A402D0310E736F69C1A8F00001A96BDA
:10B03000A8BFA90767C1AAF0AB6BAABFAB07A8510D
:10B04000AA27A951AB23ABBF08D0AB5103E1AA0596
:10B05000D8A003D0030E0101736F69C1A8F00001ED
:10B06000A96BA8BFA90767C1AAF0AB6BAABFAB07C2
:10B07000A851AA27A951AB23ABAF97D3010E5ED33A
:10B080006805D8B403D06A05D8A402D0510E736FF6
:10B0900069C1A8F00001A96BA8BFA90767C1AAF000
:10B0A000AB6BAABFAB07A851AA27A951AB23ABBF73
:10B0B00008D0AB5103E1AA05D8A003D0040E0101CA
:10B0C000736F69C1A8F00001A96BA8BFA90767C188
:10B0D000AAF0AB6BAABFAB07A851AA27A951AB2313
:10B0E000ABAF63D3020E2AD36805D8B403D06A0588
:10B0F000D8A402D0820E736F69C1A8F00001A96BB9
:10B10000A8BFA90767C1AAF0AB6BAABFAB07A8513C
:10B11000AA27A951AB23ABBF08D0AB5103E1AA05C5
:10B12000D8A003D0050E0101736F69C1A8F000011A
:10B13000A96BA8BFA90767C1AAF0AB6BAABFAB07F1
:10B14000A851AA27A951AB23ABAF2FD3030EF6D238
:10B150006805D8B403D06A05D8A402D0710E736F05
:10B1600069C1A8F00001A96BA8BFA90767C1AAF02F
:10B17000AB6BAABFAB07A851AA27A951AB23ABBFA2
:10B1800008D0AB5103E1AA05D8A003D0010E0101FC
:10B19000736F69C1A8F00001A96BA8BFA90767C1B7
:10B1A000AAF0AB6BAABFAB07A851AA27A951AB2342
:10B1B000ABAFFBD2040EC2D201017351010AD8B465
:10B1C000F7D6030AD8B428D7010AD8B459D7070A42
:10B1D000D8B48AD7010AD8B4BBD7F50AE6D2680535
:10B1E000D8A40ED0000E6B6F000E6C6F000E6D6F4A
:10B1F000000E6E6F000E7D6F000E7C6F210E736F60
:10B200006751800A7F0FD8A002D0120E736F67AF0C
:10B210001BD0120E0FD06805D8A402D0010E736F98
:10B220006751800A7F0FD8A002D0110E736F67AFED
:10B230000BD0110E736F08D001017351110AD8B4ED
:10B24000CED7030AD8B4E7D76A05D8A40AD076C106
:10B2500060F077C161F07AECA1F060C076F161C076
:10B2600077F101016951800A7F0FD8A010D0745185
:10B27000D8A40DD076C199F077C19AF0FF0E0001E5
:10B280009C6F9B69010E9D6F010ED0ECA8F001012F
:10B2900069AF8BD27451D8A488D276C199F077C1A6
:10B2A0009AF0FF0E00019C6F9B69010E9D6FFF0ECF
:10B2B000D0ECA8F07AD201016805D8B403D06A05B1
:10B2C000D8A403D0FF0E49ECAAF069C1A8F0000190
:10B2D000A96BA8BFA90767C1AAF0AB6BAABFAB0750
:10B2E000A851AA27A951AB23ABBF08D0AB5103E1AA
:10B2F000AA05D8A003D0220E0101736F69C1A8F07E
:10B300000001A96BA8BFA90767C1AAF0AB6BAABFD0
:10B31000AB07A851AA27A951AB23ABAF46D2220E47
:10B320000DD26805D8B403D06A05D8A403D0010EA5
:10B3300049ECAAF069C1A8F00001A96BA8BFA90750
:10B3400067C1AAF0AB6BAABFAB07A851AA27A95146
:10B35000AB23ABBF08D0AB5103E1AA05D8A003D003
:10B36000210E0101736F69C1A8F00001A96BA8BF8C
:10B37000A90767C1AAF0AB6BAABFAB07A851AA2760
:10B38000A951AB23ABAF11D2210ED8D1010173511A
:10B39000210AD8B490D7030AD8B4C3D706D2680517
:10B3A000D8A405D0C0EC7BF0410E0101736F67514A
:10B3B000800A7F0FD8A002D0320E736F67AF1BD008
:10B3C000320E0FD06805D8A402D0020E736F6751F9
:10B3D000800A7F0FD8A002D0310E736F67AF0BD0F9
:10B3E000310E736F08D001017351310AD8B4D7D729
:10B3F000030AD8B4E7D76A05D8A405D07B510FEC6F
:10B40000ACF001017B6F6951800A7F0FD8A004D096
:10B410007B517927000E7A2369AFC7D17B51000198
:10B42000A86FA96B010179510001A85DA951800A9B
:10B43000AA6F01017A51800A0001AA59D8B006D03A
:10B4400001017B51795F000E7A5BAFD1000E0101E3
:10B450007A6F010E796FA9D101016805D8A402D0D5
:10B46000020E736F6A05D8B447EC97F00101695179
:10B47000800A7F0FD8B00AECAAF0010169AF95D11C
:10B4800021ECA2F092D101016805D8A402D0620E8D
:10B49000736F6751800A7F0FD8A002D0520E736F6E
:10B4A00067AF1BD0520E0FD06805D8A402D0030E90
:10B4B000736F6751800A7F0FD8A002D0510E736F4F
:10B4C00067AF0BD0510E736F08D001017351510A51
:10B4D000D8B4D9D7030AD8B4E7D76A05D8A40AD014
:10B4E00080C160F081C161F0B2ECA1F060C080F178
:10B4F00061C081F101016951800A7F0FD8A01CD081
:10B500008051822781518323000E8423000E8523DE
:10B5100085BF12D0855108E1A10E825D860E835948
:10B52000010E8459D8A008D0A00E826F860E836FBA
:10B53000010E846F000E856F69AF37D18051000115
:10B54000A86F010181510001A96FAA6BAB6BA851D3
:10B550000101825F0001A9510101835B0001AA5131
:10B560000101845B0001AB510101855B85BF07D000
:10B5700085518411831102E18205D8B016D1010EE4
:10B58000826F000E836F000E846F000E856F0DD1E9
:10B5900001016751800A7F0FD8A011D0A551865DA7
:10B5A000A6518759D8B002D0864B872B7451D8B496
:10B5B00006D086C160F087C161F0C2ECAEF0010137
:10B5C00067AF46D086519F5D8751A059D8B003D050
:10B5D0008607D8A087077451D8B43AD086C160F0E6
:10B5E00087C161F0C2ECAEF033D001016A05D8A486
:10B5F00006D0FF0ED5EC8FF0620E0101736F69511A
:10B60000800A7F0FD8A0D1D0620E99D06A05D8A445
:10B6100007D07451D8A433ECA8F0030E0101736F66
:10B620006951800A7F0FD8A002D0630E736F69AF93
:10B63000BCD0610E84D06A05D8A406D0010ED5EC2A
:10B640008FF0620E0101736F69AFAFD0620E77D0D9
:10B6500001017351610AD8B4C8D7030AD8B4D6D748
:10B66000010AD8B4E8D7A1D001016A05D8A418D03E
:10B67000000E0001926F000E936F000E946F000E8B
:10B68000956FFF0E976F9669000E986F000E4EEC47
:10B690009BF0050E0101736F000E7D6F000E7C6F35
:10B6A0006805D8A482D0050E4AD001016751800AEE
:10B6B0007F0FD8B01BECAEF0010167AF42D0A4EC15
:10B6C000ADF03FD001016A05D8A40AD089C18CF041
:10B6D0008AC18DF0FF0E3DECACF0840E0101736F5A
:10B6E0006951800A7F0FD8A060D0820E28D06A05E9
:10B6F000D8A402D0040E736F6951800A7F0FD8A0BE
:10B7000002D0830E736F69AF50D0810E18D06A05D6
:10B71000D8A409D0840E736F89C18CF08AC18DF0D2
:10B72000010E3DECACF0010169AF3FD0820E07D0B5
:10B730006A05D8A43AD033ECA8F0820E0101736FE9
:10B7400034D001017351810AD8B4BCD7030AD8B4EC
:10B75000CED7010AD8B4DBD7070AD8B4E9D725D0A9
:10B760007351F00B0001A86FA96BA951000AD8A46E
:10B770001CD0A851000AD8B41FD5100AD8B45CD583
:10B78000300AD8B403D6100AD8B42DD6700AD8B46B
:10B7900063D6100AD8B499D6300AD8B4F9D6100AAC
:10B7A000D8B462D7F00AD8B480D7000E0101676F11
:10B7B000000E696F000E686F000E6A6F12009E9295
:10B7C00001014905D8A404D02169226923692469AB
:10B7D0004751D8A41AD08AA217D08A92215158185A
:10B7E00009E12251591806E123515A1803E1245165
:10B7F0005B18D8A41200CA949E929D9228ECAEF0D9
:10B80000000E0101746F12008A82010E5826000E8C
:10B8100059225A225B224851266E000E26BEFF0E88
:10B82000276E286E296E26506B2727506C232850D0
:10B830006D2329506E2396516B1914E197516C19A1
:10B8400011E198516D190EE199516E19D8A40AD0E1
:10B85000000E6B6F000E6C6F000E6D6F000E6E6F42
:10B860006F4B702B6B2916E16C2914E16D2912E1E5
:10B870006E29D8A40FD0FF0E96256B6FFF0E97216F
:10B880006C6FFF0E98216D6FFF0E99216E6F6F0721
:10B89000D8A0700702012C51581809E12D515918F0
:10B8A00006E12E515A1803E12F515B18D8A412005B
:10B8B00058C026F059C027F05AC028F05BC029F0C4
:10B8C000261E271E281E291E262A000E2722282271
:10B8D00029220101215126243A6E225127203B6E54
:10B8E000235128203C6E245129203D6ED890000120
:10B8F000FE35F66EFF35F76E610EF626940EF722D2
:10B90000F86A000EF8220900F5CF36F00A00F5CFEC
:10B9100037F0FEC026F0FFC027F0D8902636273635
:10B92000040E2626000E2722610E2624F66E940EA3
:10B930002720F76EF86A000EF8220900F5CF38F0DC
:10B940000A00F5CF39F0FE510101335D0001FF51CE
:10B9500001013459D8A010D03650266E3750276ECA
:10B96000286A296A3A50265C3B5027583C50285890
:10B970003D502958D8A0E5D00001FE51FF11D8B4A0
:10B9800003D0FE07D8A0FF0701014705D8A426D0A1
:10B990002F0E0001FE25F66E980EFF21F76EF86A55
:10B9A000000EF8220800F5500009D8B417D0000E98
:10B9B0000101476F8A82550EA76EAA0EA76E0E016F
:10B9C000BF91000EC46F550EA76EAA0EA76EBF8161
:10B9D000000ECC6EBA90BA92BA94BA96FD0E0001DF
:10B9E000FE25F66E9B0EFF21F76EF86A000EF82218
:10B9F0000800F5CF26F0CA502618FC0B2618CA6E90
:10BA0000160EFE25F66E9A0EFF21F76EF86A000EEE
:10BA1000F8220800F5CFCBFF2F0EFE25F66E980E0C
:10BA2000FF21F76EF86A000EF8220800F5CF26F025
:10BA3000264626462646CA502618870B2618CA6E62
:10BA4000D890CB30BB6EFE51FF11D8B459D0FE0E4A
:10BA5000266EFF0E276EFEC028F0FFC029F0D8909A
:10BA6000283629362650282627502922610E2824D8
:10BA7000F66E940E2920F76EF86A000EF82209007F
:10BA8000F5CF2AF00900F5CF2BF02A502C6E2B5061
:10BA90002D6E2E6A2F6A2C1E2D1E2E1E2F1E2C2A56
:10BAA000000E2D222E222F22D890FE35F66EFF3565
:10BAB000F76E610EF626940EF722F86A000EF82251
:10BAC0000900F5CF30F00900F5CF31F030502C24CB
:10BAD000326E31502D20336E000E2E20346E000E4B
:10BAE0002F20356E5850322402012C6F59503320CC
:10BAF0002D6F5A5034202E6F5B5035202F6F12005F
:10BB0000D8900001FE35F66EFF35F76E610EF62611
:10BB1000940EF722F86A000EF8220900F5CF26F0FD
:10BB20000900F5CF27F02650582402012C6F27502A
:10BB300059202D6F000E5A202E6F000E5B202F6FA4
:10BB40001200010133510001FE1906E101013451D7
:10BB50000001FF19D8B410D03850266E3950276E26
:10BB6000286A296A3A50265C3B5027583C5028588E
:10BB70003D502958D8A055D0D890FE35F66EFF35E7
:10BB8000F76E610EF626940EF722F86A000EF82280
:10BB90000900F5CF26F00900F5CF27F02650286ED2
:10BBA0002750296E2A6A2B6A281E291E2A1E2B1E40
:10BBB000282A000E29222A222B22FEC02CF0FFC0A8
:10BBC0002DF0D8902C362D36020E2C26000E2D226C
:10BBD000610E2C24F66E940E2D20F76EF86A000E7E
:10BBE000F8220900F5CF2EF00900F5CF2FF02E50E6
:10BBF0002824306E2F502920316E000E2A20326EFC
:10BC0000000E2B20336E5850302402012C6F5950F7
:10BC100031202D6F5A5032202E6F5B5033202F6F02
:10BC200012000001FE4BFF2BFD0EFE25F66E9B0E53
:10BC3000FF21F76EF86A000EF8220800F5CF26F013
:10BC4000CA502618FC0B2618CA6E160EFE25F66E74
:10BC50009A0EFF21F76EF86A000EF8220800F5CF61
:10BC6000CBFF2F0EFE25F66E980EFF21F76EF86AB9
:10BC7000000EF8220800F5CF26F026462646264676
:10BC8000CA502618870B2618CA6ED890CB30BB6EC8
:10BC900001014751D8A423D02F0E0001FE25F66ED6
:10BCA000980EFF21F76EF86A000EF8220800F55092
:10BCB0000009D8A414D0010E0101476FBA50F00B4F
:10BCC0000C09BA6E550EA76EAA0EA76E0E01BF9193
:10BCD0000E0EC46F550EA76EAA0EA76EBF81D89028
:10BCE0000001FE35F66EFF35F76E610EF626940EF6
:10BCF000F722F86A000EF8220900F5CF26F00900B5
:10BD0000F5CF27F02650286E2750296E2A6A2B6A15
:10BD1000281E291E2A1E2B1E282A000E29222A220E
:10BD20002B22FEC02CF0FFC02DF0D8902C362D36E3
:10BD3000020E2C26000E2D22610E2C24F66E940E7F
:10BD40002D20F76EF86A000EF8220900F5CF2EF0CC
:10BD50000900F5CF2FF02E502824306E2F502920C7
:10BD6000316E000E2A20326E000E2B20336E58509A
:10BD7000302402012C6F595031202D6F5A5032203F
:10BD80002E6F5B5033202F6F1200D0D1F3EC73F085
:10BD90000009D8A41200010155691200BFEC67F038
:10BDA0000009D8A412000101556912004F05D8A45A
:10BDB00002D05569120012C23AF113C239F139C1E9
:10BDC0006AF03AC16BF000016C6B6D6BE6EC86F0CB
:10BDD0000009D8A41200000E0001616F240E606FEC
:10BDE00089EC96F0000E0001606F060E616F600E28
:10BDF000626FA10E636F000E656F240E646FF2EC2C
:10BE0000A3F0FD0E0101556F1200ACC260F0ADC28F
:10BE100061F022EE9AF001D80AD00500FA6EDE50E9
:10BE2000FD6EDE50FE6EDE50FF6EFA50120060C0F6
:10BE3000A2F061C0A3F062C0A4F063C0A5F0ACC2E0
:10BE400060F0ADC261F022EE9DF001D80AD005008D
:10BE5000FA6EDE50FD6EDE50FE6EDE50FF6EFA5062
:10BE60001200000160C09EF061C09FF0A06BA16B4A
:10BE700026EE00F0A5C0DFFF26EE01F0A4C0DFFF34
:10BE800026EE02F0A3C0DFFF26EE03F0A2C0DFFF24
:10BE900026EE04F0A1C0DFFF26EE05F0A0C0DFFF14
:10BEA00026EE06F09FC0DFFF26EE07F09EC0DFFF04
:10BEB000000E01013A6F080E396F000E0001616F2C
:10BEC000080E606F89EC96F0FD0E0101556F1200AF
:10BED0004F05D8A402D055691200000E3A6F120E19
:10BEE000396F000E0001616F120E606F89EC96F0E1
:10BEF000000E0001A66F110EA66501D014D0A65148
:10BF0000010D000EF324D96E010EF420DA6EA65155
:10BF1000010D000EF324E16E060EF420E26EDFCF79
:10BF2000E7FFA62BE8D7FD0E0101556F1200030EA7
:10BF3000E8CF00F6000EE8CF01F6ACC260F0ADC26B
:10BF400061F022EEA6F001D80AD00500FA6EDE50AC
:10BF5000FD6EDE50FE6EDE50FF6EFA5012000009DC
:10BF6000D8A405D0000E00019C6F000E04D0000E76
:10BF700000019C6F800E9B6F26EE02F09BC0DFFFDE
:10BF8000000EE8CF03F6000E01013A6F040E396F80
:10BF9000000E0001616F040E606F89EC96F0FD0EDB
:10BFA0000101556F12000251F00B0509026F200EBE
:10BFB0000C6F000E0D6F010E0D018C6F000E886F5F
:10BFC000000E896F000E8A6F000E8B6F010155699C
:10BFD0001200000E00016A6F000E6B6F000E6C6F96
:10BFE000000E6D6FE6EC86F00009D8A41200010186
:10BFF00002510F0B060AD8A407D00D018C05D8A456
:10C0000003D001015569120090ECA3F0000E0D0160
:10C01000886F000E896F000E8A6F000E8B6F010112
:10C0200055691200000E0D01886F000E896F000E19
:10C030008A6F000E8B6F0101556912003B513C1154
:10C04000D8B406D03BC1D9FF3CC1DAFFDFBE120035
:10C0500002010B510A11091104E1400E085DD8A03C
:10C060000BD0400E00019D6F400E0201085F000ED4
:10C07000095B0A5B0B5B0AD008C29DF0000E086FDB
:10C08000000E096F000E0A6F000E0B6F00019D512C
:10C09000996F9A6B99510101395D00019A51010123
:10C0A0003A59D8A007D000019D510101395F000E17
:10C0B0003A5B1ED0000E0001A66F16D00101395167
:10C0C0003A11D8B404D03907D8A03A070BD00001F0
:10C0D000A651010D000EF324D96E060EF420DA6E7F
:10C0E000000EDF6E0001A62B9D51A65DD8A0E6D7FD
:10C0F000010E0001606F000E616F060E626F9DC041
:10C1000063F0020E8BEC89F060C03BF161C03CF142
:10C110000201085109110A110B11D8A412000101E2
:10C12000556912007F0E59EC86F01200010155513D
:10C13000000AD8B44ED7030AD8B4CAD6110AD8B464
:10C1400035D6080AD8B4F3D6010AD8B46BD7050A95
:10C15000D8B429D73B0AD8B458D60D0AD8B416D6C5
:10C16000020AD8B41BD6050AD8B45CD7D20AD8B410
:10C1700065D7030AD7D799C061F09AC062F0FD0E67
:10C180000001636FA10E646FDCECA4F0000161514B
:10C190006211D8A40FD09BC06CF09CC06DF010EC65
:10C1A0008CF06CC096F16DC097F16EC098F16FC0C5
:10C1B00099F1120099C061F09AC062F0120E00016C
:10C1C000636FA20E646FDCECA4F000016151621198
:10C1D000D8A40BD09BC066F09CC067F0E4EC92F052
:10C1E00066C09BF167C09CF1120099C061F09AC0D3
:10C1F00062F0490E0001636FA20E646FDCECA4F0E4
:10C20000000161516211D8A40BD09BC06CF09CC09E
:10C210006DF010EC8CF000016C5101019A6F12006E
:10C2200099C061F09AC062F0120E0001636FA20E15
:10C23000646FDCECA4F0000161516211D8A40BD052
:10C240009BC066F09CC067F0E4EC92F066C09BF186
:10C2500067C09CF1120099C061F09AC062F0BB0EF9
:10C260000001636FA10E646FDCECA4F0000161516A
:10C270006211D8A40BD09BC066F09CC067F0E4ECC0
:10C2800092F066C09DF167C09EF1120099C061F006
:10C290009AC062F0970E0001636FA20E646FDCEC2F
:10C2A000A4F0000161516211D8A40BD09BC066F0CC
:10C2B0009CC067F0E4EC92F066C09FF167C0A0F10B
:10C2C000120099C061F09AC062F0890E0001636F9C
:10C2D000A20E646FDCECA4F0000161516211D8A4DD
:10C2E0000BD09BC066F09CC067F0E4EC92F066C097
:10C2F000A1F167C0A2F1120099C061F09AC062F08A
:10C30000370E0001636FA20E646FDCECA4F0000135
:10C3100061516211D8A40BD09BC066F09CC067F03D
:10C32000E4EC92F066C0A3F167C0A4F1120099C0DA
:10C3300061F09AC062F0250E0001636FA20E646F77
:10C34000DCECA4F0000161516211D8A40BD09BC0B9
:10C3500066F09CC067F0E4EC92F066C0A5F167C09F
:10C36000A6F1120099C061F09AC062F0E80E0001D7
:10C37000636FA10E646FDCECA4F0000161516211E7
:10C38000D8A40BD09BC066F09CC067F0E4EC92F0A0
:10C3900066C0A7F167C0A8F1120099C061F09AC009
:10C3A00062F0D30E0001636FA10E646FDCECA4F0A9
:10C3B000000161516211D8A40BD09BC066F09CC0F3
:10C3C00067F0E4EC92F066C0A9F167C0AAF1120030
:10C3D00099C061F09AC062F07B0E0001636FA20EFB
:10C3E000646FDCECA4F0000161516211D8A40BD0A1
:10C3F0009BC066F09CC067F0E4EC92F000016651CF
:10C400000101AB6F120099C061F09AC062F0A50EF5
:10C410000001636FA20E646FDCECA4F000016151B7
:10C420006211D8A40BD09BC06CF09CC06DF010ECD6
:10C430008CF000016C510101AC6F120099C061F0E9
:10C440009AC062F0BC0E0001636FA20E646FDCEC58
:10C45000A4F0000161516211D8A421D09BC06CF0FE
:10C460009CC06DF010EC8CF06CC0ADF16DC0AEF105
:10C470006EC0AFF16FC0B0F1ADC191F0AEC192F03E
:10C48000AFC193F0B0C194F0AAEC77F091C0B1F1D4
:10C4900092C0B2F193C0B3F194C0B4F1120099C04C
:10C4A00061F09AC062F06D0E0001636FA20E646FBE
:10C4B000DCECA4F0000161516211D8A40BD09BC048
:10C4C0006CF09CC06DF010EC8CF000016C5101011F
:10C4D000B56F120099C061F09AC062F0B20E00010F
:10C4E000636FA20E646FDCECA4F000016151621175
:10C4F000D8A412009BC06CF09CC06DF010EC8CF0C6
:10C500006CC0B6F16DC0B7F16EC0B8F16FC0B9F1D3
:10C51000B6C191F0B7C192F0B8C193F0B9C194F02F
:10C52000AAEC77F091C0BAF192C0BBF193C0BCF114
:10C5300094C0BDF11200000E0001E56F000EE66F21
:10C54000000EE76F000EE86FFD0E846FA10E856F81
:10C5500096C186F097C187F098C188F099C189F09B
:10C56000000EE5258A6F080EE6218B6F8EEC8CF0AD
:10C570000001E36FE351E527000EE623E723E823FC
:10C58000490E846FA20E856F01019A510001866FDA
:10C59000876B886B896B000EE5258A6F080EE62194
:10C5A0008B6F8EEC8CF00001E36FE351E527000EFA
:10C5B000E623E723E823120E846FA20E856F9BC14A
:10C5C00086F09CC187F0886B896B000EE5258A6F29
:10C5D000080EE6218B6F8EEC8CF00001E36FE351C7
:10C5E000E527000EE623E723E823BB0E846FA10EA8
:10C5F000856F9DC186F09EC187F0886B896B000EA8
:10C60000E5258A6F080EE6218B6F8EEC8CF0000119
:10C61000E36FE351E527000EE623E723E823970EB7
:10C62000846FA20E856F9FC186F0A0C187F0886BD2
:10C63000896B000EE5258A6F080EE6218B6F8EEC64
:10C640008CF00001E36FE351E527000EE623E723BA
:10C65000E823890E846FA20E856FA1C186F0A2C166
:10C6600087F0886B896B000EE5258A6F080EE6213E
:10C670008B6F8EEC8CF00001E36FE351E527000E29
:10C68000E623E723E823370E846FA20E856FA3C14C
:10C6900086F0A4C187F0886B896B000EE5258A6F50
:10C6A000080EE6218B6F8EEC8CF00001E36FE351F6
:10C6B000E527000EE623E723E823250E846FA20E6C
:10C6C000856FA5C186F0A6C187F0886B896B000EC7
:10C6D000E5258A6F080EE6218B6F8EEC8CF0000149
:10C6E000E36FE351E527000EE623E723E823E80E96
:10C6F000846FA10E856FA7C186F0A8C187F0886BF3
:10C70000896B000EE5258A6F080EE6218B6F8EEC93
:10C710008CF00001E36FE351E527000EE623E723E9
:10C72000E823D30E846FA10E856FA9C186F0AAC13C
:10C7300087F0886B896B000EE5258A6F080EE6216D
:10C740008B6F8EEC8CF00001E36FE351E527000E58
:10C75000E623E723E8236D0E846FA20E856F0101A7
:10C76000B5510001866F876B886B896B000EE525DC
:10C770008A6F080EE6218B6F8EEC8CF00001E36F60
:10C78000E351E527000EE623E723E823B20E846F8A
:10C79000A20E856FB6C186F0B7C187F0B8C188F028
:10C7A000B9C189F0000EE5258A6F080EE6218B6F6E
:10C7B0008EEC8CF00001E36FE351E527000EE623D9
:10C7C000E723E823A50E846FA20E856F0101AC510B
:10C7D0000001866F876B886B896B000EE5258A6F79
:10C7E000080EE6218B6F8EEC8CF00001E36FE351B5
:10C7F000E527000EE623E723E823BC0E846FA20E94
:10C80000856FADC186F0AEC187F0AFC188F0B0C111
:10C8100089F0000EE5258A6F080EE6218B6F8EECFD
:10C820008CF00001E36FE351E527000EE623E723D8
:10C83000E8237B0E846FA20E856F0101AB510001CE
:10C84000866F876B886B896B000EE5258A6F080EF3
:10C85000E6218B6F8EEC8CF00001E36FE351E5274E
:10C86000000EE623E723E823CE0E8B6F020E8C6FBB
:10C87000DE0E8D6F020E8E6FEEEC8EF00001E46F17
:10C88000E429D8A415D0CE0EAC6F020EAD6FDE0E2B
:10C89000AE6F020EAF6FE5C0B0F0E6C0B1F0E7C01A
:10C8A000B2F0E8C0B3F09EEC81F00001E46F0BD071
:10C8B000E5C0ACF0E6C0ADF0E7C0AEF0E8C0AFF068
:10C8C000E45112EC8BF0000E0001A16F000EA26F7C
:10C8D000000EA36F000EA46FE5C0A5F0E6C0A6F0A1
:10C8E000000EA76F080EA86FE451AAEC6FF01200BB
:10C8F00000017B51800B846F7B517B258A6F7ABF4F
:10C900008A818A51D8B40DD08A29D8A408D0000EC3
:10C91000786F000E796F000E7A6F000E7B6F7A8F42
:10C9200008D0000E786F000E796F000E7A6F000E3F
:10C930007B6F7F51800B841B7F517F25896F7EBF6A
:10C9400089818951D8B40DD08929D8A408D0000E86
:10C950007C6F000E7D6F000E7E6F000E7F6F7E8FEE
:10C9600008D0000E7C6F000E7D6F000E7E6F000EF3
:10C970007F6F8951D8B403D08A51D8A409D0000E52
:10C98000786F000E796F000E7A6F000E7B6F1200C9
:10C990007E517803F3CF8FF0F4CF90F08F51856FF5
:10C9A000866B876B886B90518B6F8C6B8D6B8E6BEE
:10C9B0007D517903F3CF8FF0F4CF90F08F5185271D
:10C9C000000E86238723882390518B27000E8C230B
:10C9D0008D238E237C517A03F3CF8FF0F4CF90F028
:10C9E0008F518527000E86238723882390518B271C
:10C9F000000E8C238D238E2387C088F086C087F09D
:10CA000085C086F0856B7C517903F3CF8FF0F4CF2E
:10CA100090F08F51852790518623000E8723000EBA
:10CA200088237D517803F3CF8FF0F4CF90F08F51AE
:10CA3000852790518623000E8723000E882387C008
:10CA400088F086C087F085C086F0856B7C517803BE
:10CA5000F3CF8FF0F4CF90F08F518527905186233C
:10CA6000000E8723000E88237E517903F3CF8FF0C9
:10CA7000F4CF90F08F518B2790518C23000E8D2393
:10CA8000000E8E237D517A03F3CF8FF0F4CF90F018
:10CA90008F518B2790518C23000E8D23000E8E23F7
:10CAA0007E517A03F3CF8FF0F4CF90F08F51806FE7
:10CAB0009051816F826B836B82C083F081C082F062
:10CAC00080C081F0806B80518B2781518C238251F3
:10CAD0008D2383518E2385C080F086C081F087C06E
:10CAE00082F088C083F0190E05D0D890833382334A
:10CAF00081338033E82EF9D780518B2781518C23E5
:10CB000082518D2383518E2387C088F086C087F0A1
:10CB100085C086F0856B89518AC080F0816B802743
:10CB2000000E8123820E80258F6FFF0E8121906F72
:10CB30000FD0D8908B378C378D378E3788BF8B814D
:10CB4000D89085378637873788378F07D8A09007E2
:10CB50008DAFEFD7000E896F88AF16D0FF0E851509
:10CB6000806FFF0E8615816FFF0E8715826F7F0E17
:10CB70008815836F8051811182118311D8A402D04E
:10CB80008BA102D0010E896F8951D8B41FD0010E3C
:10CB90008B27000E8C238D238E238EA117D08BC064
:10CBA00080F08CC081F08DC082F08EC083F0833520
:10CBB000833382338133803380C08BF081C08CF02B
:10CBC00082C08DF083C08EF08F4B902B90BF0DD024
:10CBD000905103E18F29D8A008D0000E8B6F000E72
:10CBE0008C6F800E8D6F7F0E20D090BF05D090513E
:10CBF0000EE18F05D8B00BD0000E8B6F000E8C6F3E
:10CC0000000E8D6F000E8E6F000E846F0FD08FC0E0
:10CC10008AF0FF0E8B17FF0E8C177F0E8D17000EFC
:10CC20008E178AB18D8FD8908A318E6F84518E1372
:10CC30008BC078F08CC079F08DC07AF08EC07BF01C
:10CC4000120000017F51800B8C6F7F517F258E6F0A
:10CC50007EBF8E818E51D8B40DD08E29D8A408D035
:10CC6000000E7C6F000E7D6F000E7E6F000E7F6FDA
:10CC70007E8F06D0000E7C6F000E7D6F000E7E6FE3
:10CC8000000E7F6F8351800B8D6F8C518D19D8A44E
:10CC90008C8D835183258D6F82BF8D818D51D8B44A
:10CCA0000DD08D29D8A408D0000E806F000E816FA2
:10CCB000000E826F000E836F828F06D0000E806F91
:10CCC000000E816F000E826F000E836F8E518D5D9E
:10CCD000D8B022D08CAD02D0800E8C1B8EC08FF0CD
:10CCE0008DC08EF08FC08DF07CC08FF080C07CF046
:10CCF0008FC080F07DC08FF081C07DF08FC081F04B
:10CD00007EC08FF082C07EF08FC082F07FC08FF037
:10CD100083C07FF08FC083F0000E8F6F8E51846FC1
:10CD2000856B841F851F844B852B8D51866F876B88
:10CD3000845186278551872387BF2CD0875104E1F2
:10CD40001A0E865DD8A026D07C517D117E117F11F0
:10CD5000D8B402D0010E01D0000E8F6F000E7C6F90
:10CD6000000E7D6F000E7E6F000E7F6F8DC08EF007
:10CD700015D08FA105D0D8908F3101098F6F02D0C7
:10CD8000D8908F337CB18F8F7F357F337E337D3367
:10CD90007C338E2B8D518E5DD8A0EBD78CBD28D0E7
:10CDA0008E51D8A409D0000E7C6F000E7D6F000E4E
:10CDB0007E6F000E7F6F120080517C2781517D2392
:10CDC00082517E2383517F237FA182D08FA105D002
:10CDD000D8908F3101098F6F02D0D8908F337CB1FA
:10CDE0008F8F7F357F337E337D337C338E2B70D0B6
:10CDF00080517C5D81517D5982517E597F51800ADD
:10CE0000846F8351800A8459D8B036D07CC084F0B6
:10CE10007DC085F07EC086F07FC087F0841F851FAF
:10CE2000861F871F842B000E85238623872380512E
:10CE30008425886F81518521896F825186218A6F6F
:10CE4000835187218B6FFF0E88257C6FFF0E892110
:10CE50007D6FFF0E8A217E6FFF0E8B217F6F800E0C
:10CE60008C1B8F6D8F51D8A40FD0010E7C27000E24
:10CE70007D237E237F2308D080517C5F81517D5BA1
:10CE800082517E5B83517F5B7C517D117E117F11CE
:10CE9000D8A41CD08F51D8A419D0000E7C6F000EDE
:10CEA0007D6F000E7E6F000E7F6F1200D8907C3772
:10CEB0007D377E377F378FBF7C818FA102D0D880AE
:10CEC00001D0D8908F378E51D8A48E077EAFEED781
:10CED000000E8D6F8FAF0AD08FC084F07F0E841745
:10CEE000D8A402D07CA102D0010E8D6F8D51D8B490
:10CEF00020D0010E7C27000E7D237E237F237FA17F
:10CF000018D07CC084F07DC085F07EC086F07FC0E4
:10CF100087F08735873386338533843384C07CF04C
:10CF200085C07DF086C07EF087C07FF08E29D8A4B2
:10CF30008E2B8E29D8B403D08E51D8A40DD0000EDC
:10CF40007C6F000E7D6F000E7E6F000E7F6F8E5126
:10CF5000D8A402D0000E8C6F8EA102D07E8F01D09B
:10CF60007E9FD8908E317F6F8CBF7F8F7CC07CF08E
:10CF70007DC07DF07EC07EF07FC07FF0120060D16A
:10CF800011C228F112C227F113C226F114C225F1F1
:10CF900016C23AF117C239F1395100018F6F010100
:10CFA0003A510001906F916B926B090ED8908F37B8
:10CFB000903791379237E82EF9D78FC06AF090C03A
:10CFC0006BF091C06CF092C06DF0E6EC86F0000959
:10CFD000D8A448D1ACC260F0ADC261F022EEA6F098
:10CFE00001D80AD00500FA6EDE50FD6EDE50FE6EEE
:10CFF000DE50FF6EFA5012000009D8B417D0010EAF
:10D000000D018C6F01010251F00B0709026F270E11
:10D010000C6F000E0D6F000E0001606F020E06EC2B
:10D0200089F0000E0101536F53511200010E0101EE
:10D03000566F39513A11D8A402D0000EFFD0030E1A
:10D04000536F000E3F6F060E406F000E0D01886F8C
:10D05000020E896F000E8A6F000E8B6F0D018851D2
:10D0600089118A118B11D8B41FD001013D513E1195
:10D07000D8B406D03DC1D9FF3EC1DAFFDFBEF2D041
:10D08000000E0001606F3FC161F040C162F0400ED0
:10D09000636F020E8BEC89F060C03DF161C03EF120
:10D0A000040E0101536F23D0ACC260F0ADC261F039
:10D0B00022EEA6F001D80AD00500FA6EDE50FD6E11
:10D0C000DE50FE6EDE50FF6EFA5012000009D8B43A
:10D0D0000CD0010E0D018C6F01010251F00B020901
:10D0E000026F270E0C6F000E0D6F020EA6D03D5181
:10D0F0003E11D8B406D03DC1D9FF3EC1DAFFDFBE34
:10D10000B1D020EE01F03D51D9263E51DA22DF5058
:10D1100000018F6F8FC090F0916B926B936B905169
:10D120000201085F000191510201095B0001925167
:10D1300002010A5B0001935102010B5B010120EE29
:10D1400001F03D51D9263E51DA22DF5000018F6FA8
:10D150008FC090F0916B926B936B90510D01885F33
:10D16000000191510D01895B000192510D018A5B13
:10D17000000193510D018B5B400E01013F27000E12
:10D180004023030E5BD00D018C51D8A440D0ACC21B
:10D1900084F0ADC285F025C186F026C187F027C195
:10D1A00088F028C189F0000E00018A6F060E8B6F8F
:10D1B00001012551261127112811D8A402D0010EF2
:10D1C00001D0000E00018C6F22EEA9F001D80AD028
:10D1D0000500FA6EDE50FD6EDE50FE6EDE50FF6E14
:10D1E000FA501200E806D8B412D0640E0101526160
:10D1F00002D0522B37D0010E0D018C6F010102516C
:10D20000F00B0309026F000E0C6F000E0D6F010E84
:10D2100001012527000E2623272328233907D8A01C
:10D220003A07010E0BD0020E0D018C6F000E0001AB
:10D23000606F020E06EC89F0000E0101536F12D0F0
:10D2400001015351000AD8B49BD6010AD8B4F1D6D3
:10D25000030AD8B498D7010AD8B400D7070AD8B4BB
:10D2600046D7E1D7010153511200000E0001A76F0C
:10D27000000EA66F97C0A2F098C0A3F0000E9E6F9C
:10D28000020E9D6F000EA16F95519611D8A424D067
:10D2900097519811D8B420D09DC08BF09EC08CF0CF
:10D2A000000E8E6F000E8D6FF8EC94F08BC095F031
:10D2B0008CC096F095C060F096C061F001ECAEF0C5
:10D2C00060C09DF061C09EF0000195519611D8A4F8
:10D2D00003D095699669120095C0AAF096C0ABF08C
:10D2E00003D1AAC060F0ABC061F001ECAEF060C049
:10D2F000A4F061C0A5F0AAC060F0ABC061F00EEC74
:10D30000AEF060C0A8F061C0A9F00001A651A41958
:10D3100004E1A751A519D8B437D0A151D8B40AD087
:10D32000A6C07FF0A7C080F0000E816F0A0E826F4A
:10D330000BECA8F09DC08BF09EC08CF0A4C08DF0CB
:10D34000A5C08EF0F8EC94F08BC09FF08CC0A0F0DC
:10D350009FC060F0A0C061F001ECAEF060C09DF035
:10D3600061C09EF0A4C087F0A5C088F0000E000147
:10D37000896F0A0E8A6F12ECADF0A4C0A6F0A5C0AA
:10D38000A7F0000E0001A16FA35104E1020EA25DFF
:10D39000D8A05ED0A8C060F0A9C061F0000E626F96
:10D3A0000A0E636F1AECA9F060C0AAF061C0ABF07E
:10D3B0000001AB5104E1020EAA5DD8A006D0DA0E3E
:10D3C000AA5D1F0EAB59D8A06BD0020EA825606FC6
:10D3D000000EA921616F000E626F0A0E636F52EC9E
:10D3E000A4F060C09BF061C09CF000019B2903E1A8
:10D3F0009C29D8B413D0FE0EA625AA6FFF0EA72134
:10D40000AB6FAA51AB6FAA6BD8909C319A6F9B31CE
:10D41000996F9951AA139A51AB130BD09F51A01138
:10D42000D8A403D09569966912009FC0AAF0A0C045
:10D43000ABF0A8C060F0A9C061F0000E626F0A0EE8
:10D44000636FAAC064F0ABC065F013ECABF025D0FD
:10D45000A205A311D8A428D0A8C060F0A9C061F08B
:10D46000000E626F0A0E636F1AECA9F060C0AAF09A
:10D4700061C0ABF00001AA2903E1AB29D8B410D0F8
:10D48000A8C060F0A9C061F0000E626F0A0E636F61
:10D49000FF0E656F646913ECABF0010E0001A16F24
:10D4A000A207D8A0A30720D0A8C060F0A9C061F04F
:10D4B000000E626F0A0E636F1AECA9F060C0AAF04A
:10D4C00061C0ABF0A8C060F0A9C061F0000E00011F
:10D4D000626F0A0E636F000E656F000E646F13ECCF
:10D4E000ABF0010E0001A16FA251A311D8A4F9D68F
:10D4F000AB5104E1020EAA5DD8A006D0DA0EAA5DF7
:10D500001F0EAB59D8A0EDD6A151D8B40AD0A6C0F1
:10D510007FF0A7C080F0000E816F0A0E826F0BECC7
:10D52000A8F0000197519811D8B405D095C095F096
:10D5300096C096F01200000E966F000E956F1200C6
:10D5400000017B51800B886F7B517B258F6F7ABFE9
:10D550008F818F51D8B40DD08F29D8A408D0000E58
:10D56000786F000E796F000E7A6F000E7B6F7A8FE6
:10D5700006D0000E786F000E796F000E7A6F000EE5
:10D580007B6F7F51800B881B7F517F25906F7EBF03
:10D5900090819051D8B40DD09029D8A408D0000E15
:10D5A0007C6F000E7D6F000E7E6F000E7F6F7E8F92
:10D5B00006D0000E7C6F000E7D6F000E7E6F000E99
:10D5C0007F6F7C517D117E117F11D8A417D0000E82
:10D5D000786F000E796F000E7A6F000E7B6F800EF1
:10D5E0007A137F0E7B1388517B1378C078F079C053
:10D5F00079F07AC07AF07BC07BF012008F51D8A40A
:10D6000011D0000E786F000E796F000E7A6F000E49
:10D610007B6F78C078F079C079F07AC07AF07BC0FF
:10D620007BF012009051806F816B801F811F804BB7
:10D63000812B8F51826F836B80518227815183238D
:10D640007F0E8225896F000E83218A6F78C084F057
:10D6500079C085F07AC086F07BC087F0000E786FC5
:10D66000000E796F000E7A6F000E7B6F000E8B6FCD
:10D67000000E8C6F000E8D6F000E8E6F000E906F7F
:10D6800028D09051D8B411D0D890843785378637B8
:10D690008737D890783779377A377B378EBF78815C
:10D6A000D8908B378C378D378E377C51845D7D5188
:10D6B00085597E5186597F518759D8A009D08E8DC2
:10D6C0007C51845F7D51855B7E51865B7F51875B9A
:10D6D000902B190E9065D5D784518511861187112D
:10D6E000D8B411D08B810FD0D890783779377A376A
:10D6F0007B378EBF7881D8908B378C378D378E37BC
:10D700008907D8A08A077AAFEFD7000E906F8EAF47
:10D7100016D0FF0E8B15806FFF0E8C15816FFF0EDC
:10D720008D15826F7F0E8E15836F8051811182114E
:10D730008311D8A402D078A102D0010E906F90512D
:10D74000D8B41FD0010E7827000E79237A237B23CB
:10D750007BA117D078C080F079C081F07AC082F0C8
:10D760007BC083F08335833382338133803380C041
:10D7700078F081C079F082C07AF083C07BF0894B69
:10D780008A2B8ABF10D08A5103E18929D8A00BD0F7
:10D79000000E8A6F8969000E786F000E796F000E97
:10D7A0007A6F000E7B6F8ABF05D08A5111E189051F
:10D7B000D8B00ED0000E8A6F000E896F000E786F01
:10D7C000000E796F000E7A6F000E7B6F000E886F6F
:10D7D00089C08FF08FA102D07A8F01D07A9FD89024
:10D7E0008F317B6F88517B1378C078F079C079F0E6
:10D7F0007AC07AF07BC07BF012000D013205D8A40C
:10D800000FD030511F0B0009D8A40AD04F8E030E41
:10D810003119D8A402D0010E01D0000E0101616FB0
:10D820000D013251D8A4120030511F0B020AD8A4A6
:10D83000120034510F0B0009D8B4120034510F0BF1
:10D84000186E030E18601200200E5E18D8A4120085
:10D850004F8E34BF19D034510F0B186E1850020D73
:10D860001B0EF324D96E010EF420DA6EDECF1CF00D
:10D87000DDCF1DF034510F0B186E1850010D2D0E19
:10D88000F324D96E010E18D034510F0B186E1850B6
:10D89000020D520EF324D96E000EF420DA6EDECFA4
:10D8A0001CF0DDCF1DF034510F0B186E1850010D18
:10D8B000300EF324D96E010EF420DA6EDF501B6EA9
:10D8C0001BB006D0FB0E1C141C6EFF0E1D1404D0E2
:10D8D000040E1C101C6E1D501D6E34BF0AD0345136
:10D8E0000F0B186E1850020D1B0EF324D96E010E8B
:10D8F00009D034510F0B186E1850020D520EF3243C
:10D90000D96E000EF420DA6E1CC0DEFF1DC0DDFFF4
:10D91000030E3119D8A42DD01CC0D9FF1DC0DAFFC9
:10D92000DFAE1AD034BF0AD034510F0B186E185026
:10D93000010D2D0EF324D96E010E0AD00D013451C4
:10D940000F0B186E1850010D300EF324D96E010E16
:10D95000F420DA6E0101DF821CC0D9FF1DC0DAFF9E
:10D96000000EDB841CC0D9FF1DC0DAFF000EDB8E69
:10D970001200040E1C181C6E1D501D6E1CC0D9FF19
:10D980001DC0DAFFDFAE1BD01CC0D9FF1DC0DAFFFF
:10D990007F0EDF161CC0D9FF1DC0DAFF000EDB8C26
:10D9A000000E116E050E106E1CC012F01DC013F09B
:10D9B000000E156E020E146EC5EC9EF006D01CC053
:10D9C000D9FF1DC0DAFF000EDB8C040E1C181C6E84
:10D9D0001D501D6E1BB206D01CC0D9FF1DC0DAFF42
:10D9E000DFAE30D00D0134BF0AD034510F0B186EAA
:10D9F0001850010D2D0EF324D96E010E0AD00D0121
:10DA000034510F0B186E1850010D300EF324D96EDF
:10DA1000010EF420DA6E0101DF921CC0D9FF1DC097
:10DA2000DAFF3B0EDF16000E116E050E106E1CC0E5
:10DA300012F01DC013F0000E156E020E146EC5EC30
:10DA40009EF006D01CC0D9FF1DC0DAFF3B0EDF16CA
:10DA50000D0134510F0B186E1850010D260EF324D2
:10DA6000196E0F0EF4201A6E19C0D9FF1AC0DAFF12
:10DA7000FE0EDF16120098D0EB0E12003C0E1200C4
:10DA8000900E12000B0EF66EA30EF76E000EF86EDF
:10DA90000800F55012000C0EF66EA30EF76E000E85
:10DAA000F86E0800F55012000D0EF66EA30EF76E1C
:10DAB000000EF86E0800F55012000E0EF66EA30E62
:10DAC000F76E000EF86E0800F55012000F0EF66E9D
:10DAD000A30EF76E000EF86E0800F5501200100E3F
:10DAE000F66EA30EF76E000EF86E0800F5501200E9
:10DAF000110EF66EA30EF76E000EF86E0800F550CC
:10DB00001200120EF66EA30EF76E000EF86E0800ED
:10DB1000F5501200000E1200020E1200010E12004B
:10DB2000010E1200000E1200010E1200400E120033
:10DB3000000E1200FF0E12001F0E1200F80E12004F
:10DB4000200E1200000E12003F0E1200000E1200F6
:10DB5000100E1200000E1200000E1200000E120035
:10DB6000000E1200000E1200010E1200000E120034
:10DB7000220E1200000E1200000E1200460E1200BD
:10DB8000410E1200540E1200310E1200360E120019
:10DB9000200E1200200E1200200E1200550E120050
:10DBA000AA0E1200000E120060C062F061C063F0A5
:10DBB00000016351000AD8B404D0010AD8B48DD052
:10DBC000F1D76251000AD8B457D7010AD8B456D752
:10DBD000030AD8B455D7010AD8B454D7070AD8B421
:10DBE0005AD7010AD8B460D7030AD8B466D7010A55
:10DBF000D8B46CD70F0AD8B472D7010AD8B478D782
:10DC0000030AD8B47ED7010AD8B484D7070AD8B497
:10DC100083D7010AD8B482D7030AD8B481D7010ABE
:10DC2000D8B480D71F0AD8B47FD7010AD8B47ED71A
:10DC3000030AD8B47DD7010AD8B47CD7070AD8B470
:10DC40007BD7010AD8B47AD7030AD8B479D7010AA6
:10DC5000D8B478D70F0AD8B477D7010AD8B476D712
:10DC6000030AD8B475D7010AD8B474D7070AD8B450
:10DC700073D7010AD8B472D7030AD8B471D7010A8E
:10DC8000D8B470D7370AD8B46FD7010AD8B46ED7D2
:10DC9000050AD8B46DD7010AD8B46CD7030AD8B432
:10DCA0006BD7010AD8B468D7190AD8B467D7010A64
:10DCB000D8B466D70F0AD8B465D7010AD8B464D7E8
:10DCC000030AD8B463D7010AD8B462D7070AD8B414
:10DCD00061D7010AD8B460D765D76251FE0AD8B4BB
:10DCE0005DD7010AD8B45CD75DD7200E5E18D8A4E2
:10DCF0001200A0981ED101013D513E11D8B406D0AA
:10DD00003DC1D9FF3EC1DAFFDFBE22D1000E0001C6
:10DD1000B16F1E0EB16501D014D0B151010D400E8E
:10DD2000F324D96E0D0EF420DA6EB151010D000E00
:10DD3000F324E16E020EF420E26EDFCFE7FFB12B99
:10DD4000E8D7010120EE01F03D51D9263E51DA22FB
:10DD50001F0EDE18D8A477D0550E0201001973E10A
:10DD6000530E011970E1420E02196DE1430E0319C1
:10DD7000D8A469D0010E01014E6F02010D51D8A443
:10DD800055D0110E0E6152D00E51D8B44FD00CC2E6
:10DD9000ACF03F0E0001AC17D8A448D0550E0D01D1
:10DDA000806F530E816F420E826F530E836F04C2D9
:10DDB00084FD05C285FD06C286FD07C287FD000EF3
:10DDC000886F000E896F000E8A6F000E8B6F000E39
:10DDD0008C6F01015569000E546F000E536F000ED9
:10DDE000526F030E02010F19D8B409D0010102913C
:10DDF000029302950297000E0C6F000E0D6F020148
:10DE00000CAF02D0010E01D0020E0101566F0201CB
:10DE1000085109110A110B11D8B402D0000E01D01B
:10DE2000010E01014F6F0FC255F192D0010E00019A
:10DE3000606F020E06EC89F0000E0001606F020EAA
:10DE400006EC89F085D0010E0001606F020E06EC31
:10DE500089F0000E0001606F020E06EC89F0000EE2
:10DE600001014E6F75D076EC83F0FF0AD8A470D014
:10DE700011D076EC83F0FF0AD8A46AD00D018C5142
:10DE8000D8A408D0885189118A118B11D8B402D036
:10DE9000020E8C6F030E3ED056C0ADF057C0AEF0F0
:10DEA0000001AD51AE11D8B40AD056C0AFF057C082
:10DEB000B0F0AFC0D9FFB0C0DAFFDFBE49D0010E6D
:10DEC000606F800E616F0D0E626F0D0E636F020E3C
:10DED0008BEC89F060C03BF161C03CF101013D5128
:10DEE0003E11D8B406D03DC1D9FF3EC1DAFFDFBE36
:10DEF00010D0000E0001606F400E616F0D0E626F5A
:10DF0000400E636F020E8BEC89F060C03DF161C082
:10DF10003EF1000E0101566F1BD0000E566F020E2F
:10DF20000D018C6F000E0001606F020E06EC89F08F
:10DF30000FD001015651000AD8B4DDD6010AD8B479
:10DF400092D7030AD8B495D7010AD8B4A5D7E5D794
:10DF5000A08812000001B76FC30E00018F6F000E82
:10DF6000906FB75189ECA0F00001B86FB851D8A4F8
:10DF70001200A151DF5DA251E059A351E159A45112
:10DF8000E259D8A01200A551A125A96FA651A2213E
:10DF9000AA6F000EA321AB6F000EA421AC6FA95194
:10DFA000DF5DAA51E059AB51E159AC51E259D8B00B
:10DFB0000ED0A1C0A9F0A2C0AAF0A91FAA1FA94B08
:10DFC000AA2BDF51A925A56FE051AA21A66FDDC0BC
:10DFD00097F0DEC098F0A1C0A9F0A2C0AAF0A3C03B
:10DFE000ABF0A4C0ACF00A0E05D0D890AC33AB3384
:10DFF000AA33A933E82EF9D7A9C099F0AAC09AF09C
:10E000005EEC9AF097C0B9F098C0BAF0000E00012B
:10E01000A115BF6FFE0EA215C06FFF0EA315C16F35
:10E02000FF0EA415C26FBFC0A9F0C0C0AAF0A91FFF
:10E03000AA1FA94BAA2BA151A925BB6FA251AA21A6
:10E04000BC6F000EBF6F000EC06F000EC16F000EE0
:10E05000C26F89D0020EBC19BB11D8A40FD0B9C0B1
:10E060008FF0BAC090F090ECA5F08FC0B9F090C0DE
:10E07000BAF0000E0001BC6F000EBB6FB9C060F0BB
:10E08000BAC061F074ECAEF060C0B5F061C0B6F03B
:10E09000BBC0A9F0BCC0AAF00001A91FAA1FA94BD0
:10E0A000AA2B000EA925BD6F020EAA21BE6FBD517D
:10E0B000A96FBE51AA6FAB6BAC6BBFC0ADF0C0C057
:10E0C000AEF0C1C0AFF0C2C0B0F0AD1FAE1FAF1F09
:10E0D000B01FAD2B000EAE23AF23B023A551AD254D
:10E0E000B16FA651AE21B26F000EAF21B36F000E1B
:10E0F000B021B46FA951B15DAA51B259AB51B35916
:10E10000AC51B459D8B00ED0BFC0A9F0C0C0AAF06D
:10E11000A91FAA1FA94BAA2BA551A925BD6FA651BE
:10E12000AA21BE6FB5C07FF0B6C080F0BBC081F041
:10E13000BCC082F0BDC083F0BEC084F0BF51A72533
:10E14000856FC051A821866F58ECA2F00001BD5127
:10E15000BF27BE51C023000EC123000EC223BD51F4
:10E16000BB27BE51BC23A551A96FA651AA6FAB6BAB
:10E17000AC6BA951BF5DAA51C059AB51C159AC514B
:10E18000C259D8B0120066D7A1C0AFF0A2C0B0F09B
:10E19000A3C0B1F0A4C0B2F00A0E06D00001D8901E
:10E1A000B233B133B033AF33E82EF8D7AFC0C1F0DC
:10E1B000B0C0C2F0ADC0D9FFAEC0DAFFDE50C15D65
:10E1C000DE50C259D8B002D0FF0E1200ABC0D9FF4A
:10E1D000ACC0DAFFDECF97F0DDCF98F0ADC0D9FF4D
:10E1E000AEC0DAFFDECFAFF0DDCFB0F0AF1FB01FB3
:10E1F000AF4BB02BC151AF25996FC251B0219A6F6F
:10E200005EEC9AF0ABC0D9FFACC0DAFF000197C05A
:10E21000DEFF98C0DDFFADC0D9FFAEC0DAFFC1C0E0
:10E22000DEFFC2C0DDFFABC0D9FFACC0DAFFDECF7E
:10E23000BDF0DDCFBEF0C1C0AFF0C2C0B0F0090E7E
:10E24000D890AF37B037E82EFBD7AFC0C5F0B0C01D
:10E25000C6F0C76BC86BC5C0AFF0C6C0B0F0AF1F8B
:10E26000B01FAF4BB02BA151AF25BF6FA251B02152
:10E27000C06F000EC56F000EC66F000EC76F000E98
:10E28000C86F89D0020EC019BF11D8A40FD0BDC06D
:10E290008FF0BEC090F090ECA5F08FC0BDF090C0A4
:10E2A000BEF0000E0001C06F000EBF6FBDC060F079
:10E2B000BEC061F074ECAEF060C0BBF061C0BCF0F9
:10E2C000BFC0AFF0C0C0B0F00001AF1FB01FAF4B78
:10E2D000B02B000EAF25C36F020EB021C46FC35127
:10E2E000AF6FC451B06FB16BB26BC5C0B3F0C6C0F5
:10E2F000B4F0C7C0B5F0C8C0B6F0B31FB41FB51FA7
:10E30000B61FB32B000EB423B523B623A551B325F6
:10E31000B76FA651B421B86FA751B521B96FA851F5
:10E32000B621BA6FAF51B75DB051B859B151B959B3
:10E33000B251BA59D8B00ED0C5C0AFF0C6C0B0F017
:10E34000AF1FB01FAF4BB02BA551AF25C36FA65168
:10E35000B021C46FBBC087F0BCC088F0BFC089F0DB
:10E36000C0C08AF0C3C08BF0C4C08CF0C551A925D1
:10E370008D6FC651AA218E6F26ECADF00001C351FE
:10E38000C527C451C623000EC723000EC823C3519E
:10E39000BF27C451C023A551C55DA651C659A75179
:10E3A000C759A851C859D8A06DD7000E1200AA0E9F
:10E3B0000001706F000E716F9FC072F0A0C073F00B
:10E3C000000E756F0A0E746F84ECA9F0AA0E00019E
:10E3D000606F000E616F2AECAAF000016051B46F0B
:10E3E000A0AF54D0B4510008A125020FB56FB551AC
:10E3F000800A7F0FD8A090D0A1C0B6F0B629D8B4BB
:10E4000042D0B651B5BF04D0FF0AB525D8B02AD046
:10E41000B5C0A4F0A56BA4BFA507A41FA51FA44B5E
:10E42000A52BB651A66FA76BA451A627A551A7236C
:10E43000010EA627000EA723AA0EA625D96E000E50
:10E44000A721DA6EB651A86FA96B010EA827000E9E
:10E45000A923AA0EA825E16E000EA921E26EDFCF46
:10E46000E7FF0FD0B651A46FA56B010EA427000ED5
:10E47000A523AA0EA425D96E000EA521DA6E300EB2
:10E48000DF6EB607BBD7A151020F45D0B4510008CB
:10E49000A125A46FA429B56FB551800A7F0FD8A01C
:10E4A0003BD0A1C0B6F0B629D8B434D0B651B5BF70
:10E4B00004D0FF0AB525D8B021D0B5C0A4F0A56B13
:10E4C000A4BFA507A41FA51FA44BA52BB651A66FDB
:10E4D000A76BA451A627A551A723AA0EA625D96EDE
:10E4E000000EA721DA6EB651010DAA0EF324E16EDB
:10E4F000000EF420E26EDFCFE7FF0AD0B651010D27
:10E50000AA0EF324D96E000EF420DA6E300EDF6E00
:10E51000B607C9D7A129B46FA1510008B425A46FCB
:10E52000A405A16F000EB66F23D0B651010DAA0E3F
:10E53000F324D96E000EF420DA6EB651010DF350BB
:10E54000A225E16EF450A321E26EDFCFE7FFA151D7
:10E55000B619D8A40CD0B62BB651010DF350A22594
:10E56000D96EF450A321DA6E2E0EDF6E1ED0B62BBC
:10E57000B451B65DD8B019D0D8D7B651010DAA0E96
:10E58000F324D96E000EF420DA6EB651A46FA56B99
:10E59000010EA427000EA523A451A225E16EA551CA
:10E5A000A321E26EDFCFE7FFB62BB451B65DD8A052
:10E5B000E4D7B651A46FA56B010EA427000EA523C6
:10E5C000A451A225D96EA551A321DA6E000EDF6EEB
:10E5D00012006BC0D9FF6CC0DAFF100EDF6E0001B5
:10E5E00020EE01F06B51D9266C51DA22BC0EDF6EA1
:10E5F00020EE02F06B51D9266C51DA22260EDF6E26
:10E6000020EE03F06B51D9266C51DA22000EDF6E3A
:10E6100020EE04F06B51D9266C51DA22060EDF6E23
:10E6200020EE05F06B51D9266C51DA22000EDF6E18
:10E6300020EE06F06B51D9266C51DA2264C1DFFF5F
:10E6400020EE07F06B51D9266C51DA2265C1DFFF4D
:10E6500020EE08F06B51D9266C51DA2266C1DFFF3B
:10E6600020EE09F06B51D9266C51DA2267C1DFFF29
:10E6700020EE0AF06B51D9266C51DA2268C1DFFF17
:10E6800020EE0BF06B51D9266C51DA2269C1DFFF05
:10E6900020EE0CF06B51D9266C51DA226AC1DFFFF3
:10E6A0000D0E6B25606F000E6C21616F6B0E626F3B
:10E6B000010E636F000E656F040E646FF2ECA3F041
:10E6C000110E00016B25606F000E6C21616F710EE1
:10E6D000626F010E636F000E656F040E646FF2ECE3
:10E6E000A3F0000120EE15F06B51D9266C51DA220F
:10E6F00073C1DFFF20EE16F06B51D9266C51DA2280
:10E700008CC1DFFF20EE17F06B51D9266C51DA2255
:10E710008DC1DFFF20EE18F06B51D9266C51DA2243
:10E7200001018E51DF6E000120EE19F06B51D926E8
:10E730006C51DA228FC1DFFF20EE1AF06B51D9261F
:10E740006C51DA2201019051DF6E000120EE1BF0C6
:10E750006B51D9266C51DA2294C1DFFF20EE1CF0F8
:10E760006B51D9266C51DA2295C1DFFF20EE1DF0E6
:10E770006B51D9266C51DA2274C1DFFF20EE1EF0F6
:10E780006B51D9266C51DA2289C1DFFF20EE1FF0D0
:10E790006B51D9266C51DA2201018A51DF6E0001DA
:10E7A00020EE20F06B51D9266C51DA226FC1DFFFC9
:10E7B00020EE21F06B51D9266C51DA220101705103
:10E7C000DF6E2A0E00016B25606F000E6C21616FF9
:10E7D000960E626F010E636F000E656F160E646F0A
:10E7E000F2ECA3F01200DFD011C228F112C227F11F
:10E7F00013C226F114C225F116C23AF117C239F13B
:10E8000039510001956F01013A510001966F976BE4
:10E81000986B090ED8909537963797379837E82E2A
:10E82000F9D795C06AF096C06BF097C06CF098C0AD
:10E830006DF0E6EC86F00009D8A4C7D0010E010106
:10E84000546F39513A11D8A402D0000E4AD039077A
:10E85000D8A03A07020E546F3B513C11D8B406D0F1
:10E860003BC1D9FF3CC1DAFFDFBEAFD0ACC28BF0F9
:10E87000ADC28CF025C18DF026C18EF027C18FF07E
:10E8800028C190F0000E0001916F060E926F22EEEB
:10E89000A3F001D80AD00500FA6EDE50FD6EDE50FE
:10E8A000FE6EDE50FF6EFA501200E806D8B41BD0A0
:10E8B000640E0101526102D0522B87D0020E0D016D
:10E8C0008C6F01010251F00B0309026F000E0C6FF7
:10E8D000000E0D6F010E0001606F020E06EC89F054
:10E8E0005FD0546F72D0010E01012527000E262340
:10E8F00027232823000E0D01886F020E896F000E5A
:10E900008A6F000E8B6F000E01013F6F060E406F85
:10E91000030E546F0D01885189118A118B11D8A4EF
:10E9200002D0010E3ED0040E0101546F3B513C1148
:10E93000D8B406D03BC1D9FF3CC1DAFFDFBE45D019
:10E94000010E0001606F3FC161F040C162F0400EF6
:10E95000636F020E8BEC89F060C03BF161C03CF14B
:10E96000030E0101546F400E0201085F000E095BA7
:10E970000A5B0B5B400E0D01885F000E895B8A5BB2
:10E980008B5B400E01013F27000E40231ED0020E7C
:10E990000D018C6F010E0001606F020E06EC89F014
:10E9A000000E01019ED701015451000AD8B41CD7B2
:10E9B000010AD8B446D7030AD8B44ED7010AD8B44E
:10E9C000A9D7070AD8B4B2D7E2D70101545112002F
:10E9D000C4CF93F00001946B9351946F936BC35029
:10E9E000931302011F51020D200EF324D96E020E63
:10E9F000F420DA6E00019351DE269451DD220201EB
:10EA00001F51010D240EF324D96E020EF420DA6E8C
:10EA1000DF2AC2821F51010D240EF324D96E020E8B
:10EA2000F420DA6E080EDE18D8A4AFD01F51020D04
:10EA3000200EF324D96E020EF420DA6EDECF91F0B0
:10EA4000DDCF92F091C06AF092C06BF000016C6B68
:10EA50006D6B000E5AEC80F06AC078F06BC079F0F4
:10EA60006CC07AF06DC07BF0C7ECABF078C07CF086
:10EA700079C07DF07AC07EF07BC07FF0000E00018F
:10EA8000806F900E816FA40E826F460E836F21EC13
:10EA900066F07CC095F07DC096F07EC097F07FC098
:10EAA00098F095C078F096C079F097C07AF098C049
:10EAB0007BF0680E00017C6F910E7D6F3D0E7E6FC6
:10EAC0003F0E7F6F78EC64F078C095F079C096F0D7
:10EAD0007AC097F07BC098F095C060F096C061F066
