:020000040000FA
:0490000047EF48F0FE
:109008005F82FACF49F0FBCF4AF0E9CF4BF0EACFC5
:109018004CF0E1CF4DF0E2CF4EF0D9CF4FF0DACFA0
:1090280050F0F3CF51F0F4CF52F0F6CF53F0F7CF22
:1090380054F0F8CF55F0F5CF56F04BEC81F09EB2D6
:1090480039EC58F0F2B43DECAEF056C0F5FF55C01F
:10905800F8FF54C0F7FF53C0F6FF52C0F4FF51C0E9
:10906800F3FF50C0DAFF4FC0D9FF4EC0E2FF4DC03A
:10907800E1FF4CC0EAFF4BC0E9FF4AC0FBFF49C013
:10908800FAFF5F92110066EFA0F00008000C0010D4
:10909800001300160019001C001E002100230026E2
:1090A8000028002A002C002E003000320034003640
:1090B8000038003A003C003D003F004100430045B5
:1090C800004600480049004B004D004E005000513A
:1090D80000530054005600570059005A005C005DC8
:1090E800005F00600062006300640066006700695A
:1090F800006A006C006D006E0070007100720073F1
:109108000074007600780079007A007B007D007E8C
:10911800007F008200850087008A008C008F009104
:10912800009200940098009A009C009E00A100A361
:1091380000A500A700AA00AC00AF00B200B400B7B9
:1091480000B800BA00BC00BE00C000C300C400C61E
:1091580000C800CA00CC00CE00D000D200D400D68F
:1091680000D800D900DB00DD00DF00E100E200E507
:1091780000E700E800EA00EC00EE00EF00F200F380
:1091880000F500F700F800FB00FD000001030104F2
:109198000107010A010C010F01120114011701193D
:1091A800011C011E0121012301250129012B012C8C
:1091B800012E0132013401360138013B013D013FE6
:1091C800014301460148014A014C014F0151015434
:1091D80001560159015B015E016001630166016985
:1091E800016B016E017101740177017A017D0180C3
:1091F80001830187018A018D019101940198019BE6
:10920800019F01A301A601AA01AE01B201B601BAEC
:1092180001BE01C301C701CC01D001D501D901DECE
:1092280001E301E801ED01F301F801FE0103020980
:10923800020F0215021B02210227022E0235023CF0
:109248000243024A0251025902610269027102791B
:109258000282028B0294029E02A702B102BC02C6DD
:1092680002D102DC02DC02DF02E202E502E802EBE4
:1092780002EE02F102F402F702FA02FD0200030410
:109288000307030A030D031103140317031A031E2C
:10929800032103250328032C032F03330336033A42
:1092A800033E034103450349034D03500354035848
:1092B800035C036003640368036C0370037403793D
:1092C800037D03810385038A038E03930397039C1D
:1092D80003A003A503AA03AE03B303B803BD03C2E7
:1092E80003C603CC03D103D603DB03E003E503EB9A
:1092F80003F003F603FB03010406040C041204172D
:10930800041D04230429042F0436043C04420448A1
:10931800044F0455045C0463046A04700477047EF3
:109328000485048D0494049B04A304AA04B204BA1B
:1093380004C204C904D204DA04E204EA04F304FC13
:109348000404050D0516051F05280532053B0545CE
:10935800054F05590563056D05770582058C059749
:1093680005A205AD05B905C405D005DC05E805F479
:109378000501060E061A0628063506430650065E3F
:10938800066D067B068A069906A906B806C806D899
:1093980006E906FA060B071C072E0740075307665F
:1093A8000779078D07A107B607CB07E007F6070C73
:1093B8000823083B0853086B0884089E08B808D39C
:1093C80008EF080B092809450964098309A309C49A
:1093D80009E609080A2C0A510A770A9D0AC50AEF04
:1093E8000A190B450B720B720B7D0B890B940BA0A2
:1093F8000BAC0BB80BC40BD00BDC0BE90BF50B0259
:109408000C0E0C1B0C280C350C420C4F0C5D0C6A16
:109418000C770C850C930CA10CAF0CBD0CCB0CD9A4
:109428000CE80CF70C050D140D230D320D420D51EF
:109438000D610D700D800D900DA00DB10DC10DD2F7
:109448000DE30DF30D050E160E270E390E4B0E5CAF
:109458000E6F0E810E930EA60E010002000300048B
:1094680000050006000700080009000A000B000CB0
:10947800000D000E000F0010001100120013001460
:1094880000150016001700180019001A001B001C10
:10949800001D001E001F00200021002200230024C0
:1094A80000250026002700280029002A002B002C70
:1094B800002D002E002F0030003100320033003420
:1094C80000350036003700380039003A003B003CD0
:1094D800003D003E003F004000410042004300457F
:1094E80000470049004B004D004F00510053005504
:1094F80000570059005B005D005F00610063006574
:1095080000670069006B006E0070007300750077DB
:109518000079007B007D007F008100830085008743
:109528000089008B008D008F0091009300950097B3
:109538000099009B009D009F00A100A300A500A723
:1095480000A900AB00AD00AF00B100B300B500B793
:1095580000B900BB00BD00C000C300C600C900CCF4
:1095680000CF00D200D500D800DB00DE00E100E427
:1095780000E700EA00ED00F000F300F600F900FC57
:1095880000FF000201050108010B010E0111011481
:109598000117011A011D012001230126012A012DAD
:1095A800013001330137013A013E014201450149C9
:1095B800014D015101550159015D01610166016AC1
:1095C800016E01730178017D01820187018C01918F
:1095D8000196019C01A101A701AD01B301B901BF29
:1095E80001C601CC01D301DA01E101E801F001F77C
:1095F80001FF0107020F02180221022A0233023D6D
:1096080002470251025C02670272027E028A0297D6
:1096180002A402B202C002CF02DF02EF02FF02116F
:10962800032303360349035E0373038903A103B9C4
:1096380003D303DD03E403EA03F103F803FF03069E
:10964800040D0415041C0424042B0433043B0442B5
:10965800044A0452045A0463046B0474047C0485A9
:10966800048E0496049F04A904B204BB04C504CE66
:1096780004D804E204EC04F60400050B05150520E3
:10968800052B05360541054C05580564056F057B16
:109698000587059405A005AD05BA05C705D405E2FB
:1096A80005EF05FD050B061906280637064606557B
:1096B800066406740684069406A406B506C606D78C
:1096C80006E906FA060C071F073107440758076B17
:1096D800077F079307A807BD07D207E807FE071506
:1096E800082C0843085B0873088B08A508BE08D82F
:1096F80008F2080D092909450961097E099C09BA7A
:1097080009D909F909190A390A5B0A7D0A9F0AC3A6
:109718000AE70A0C0B310B580B7F0BA70BD00BFA7F
:109728000B250C510C7E0CAB0CDA0C0A0D3B0D6DA5
:109738000DA00DD40D0A0E410E790EB30EEE0E2AB1
:109748000F680FA80FE90F2C107010B610FE104804
:10975800119411E21132128512D91230138913E5CE
:10976800134414A51409157015DA154716B8162BE5
:1097780017A3171E189D182119A819341AC41A5AA4
:109788001BF41B941C391DE41D951E4C1F0A20CE8A
:10979800209A216E224A232E241B25122612271DC9
:1097A800283229532A812BBB2C032E5A2FC030363E
:1097B80032BD335735F5356136CD363B37AA371BC1
:1097C800388C3800397439EA39623ADB3A553BD17A
:1097D8003B4E3CCD3C4E3DD03D543EDA3E613FEAE7
:1097E8003F744001418F411F42B1424543DB4373FF
:1097F800440D45A9454746E74689472E48D5487E42
:1098080049294AD74A874B3A4CEF4CA64D614E1E20
:109818004FDD4FA05065512D52F852C65397546BE7
:109828005542561C57FA570C070504040303030254
:10983800020202020201010101010101010101010B
:109848000101010101010101010101010101010100
:1098580001010101010101010101010101010101F0
:1098680001010101010101010101010101010101E0
:1098780001010101010101010101010101010101D0
:1098880001010000000000000000000000000000CE
:1098980000000000000000000000000000000000C0
:1098A80000000000000000000000000000000000B0
:1098B80000000000000000000000000000000000A0
:1098C8000000000000000000000000000000000090
:1098D8000000000000000000000000000000000080
:1098E8000000000000000000000000000000000070
:1098F8000000000000000000000000000000000060
:10990800000000000000000000000000000000004F
:10991800000000000000000000000000000000003F
:10992800000000000000000000000000000000002F
:10993800000000000000000000000000000000001F
:10994800000000000000000000000000000000000F
:1099580000000000000000000000000000000000FF
:1099680000000000000000000000000000000000EF
:1099780000000000000000000000000000000000DF
:1099880000000000000000000000000000000000CF
:1099980000000000000000000000000000000000BF
:1099A80000000000000000000000000000000000AF
:1099B800000000000000000000000000000000009F
:1099C800000000000000000000000000000000008F
:1099D800000000000000000000000000000000007F
:1099E800000000000000000000000000000000006F
:1099F800000000000000000000000000000000005F
:109A08000000000000000000000000000000ECF270
:109A1800F6F4D2E8D2C0ECDCCFC3B9B0FCF2E8DF90
:109A2800D7D0CAC3BEB8B3AFAAA6A29F9B98959237
:109A38008F8C8A878583817F7D7B79777574727136
:109A48006F6E6C6B6A68676665646261605F5E5DB5
:109A58005C5B595756545351504F4E4C4B4A4948EA
:109A680047464544434241403FFEFBF8F6F3F0EEDB
:109A7800ECE9E7E5E3E0DEDCDAD8D7D5D3D1CFCE21
:109A8800CCCAC9C7C6C4C3C1C0BEBDBCBAB8B6B4C7
:109A9800B3B1AFAEACAAA9A7A6A4A3A1A09F9D9C51
:109AA8009B9A98979695949392908F8E8D8C8B8A8B
:109AB800898887868584838281807F7E7D7C7B7A86
:109AC800797877767574737271706F6E6D6C6B6A76
:109AD800696867666564636261605F5E5D5C5B5A66
:109AE800595857565554535251504F4E4D4C4B4A56
:109AF800494847464544434241403FFFFEFDFCFB81
:109B0800FAF9F8F7F6F5F4F3F2F1F0EFEEEDECEB25
:109B1800EAE9E8E7E6E5E4E3E2E1E0DFDEDDDCDB15
:109B2800DAD9D8D7D6D5D4D3D2D1D0CFCECDCCCB05
:109B3800CAC9C8C7C6C5C4C3C2C1C0BFBEBDBCBBF5
:109B4800BAB9B8B7B6B5B4B3B2B1B0AFAEADACABE5
:109B5800AAA9A8A7A6A5A4A3A2A1A09F9E9D9C9BD5
:109B68009A999897969594939291908F8E8D8C8BC5
:109B78008A898887868584838281807F7E7D7C7BB5
:109B88007A797877767574737271706F6E6D6C6BA5
:109B98006A696867666564636261605F5E5D5C5B95
:109BA8005A595857565554535251504F4E4D4C4B85
:109BB8004A494847464544434241403FFFFEFDFC71
:109BC800FBFAF9F8F7F6F5F4F3F2F1F0EFEEEDEC55
:109BD800EBEAE9E8E7E6E5E4E3E2E1E0DFDEDDDC45
:109BE800DBDAD9D8D7D6D5D4D3D2D1D0CFCECDCC35
:109BF800CBCAC9C8C702020202020202020202025A
:109C0800020202020202020202020202020202022C
:109C1800020202020202020202020202020202021C
:109C2800020202020202020202020202020202020C
:109C380002020202020202020202020202020202FC
:109C480002020202020202020202020202020202EC
:109C580002020202020202020202020202020202DC
:109C680002020202020202020202020202020202CC
:109C780002020202020202020202020202020202BC
:109C880002020202020202020202020202020202AC
:109C9800020202020202020202020202020202029C
:109CA800020202020202020202020202020202028C
:109CB800020202020202020202020202020202027C
:109CC800020202020202020202020202020202026C
:109CD800020202020202020202020202020202025C
:109CE800020201010101010101010101010101015A
:109CF800010101010101010101010101010101014C
:109D0800010101010101010101010101010101013B
:109D1800010101010101010101010101010101012B
:109D2800010101010101010101010101010101011B
:109D3800010101010101010101010101010101010B
:109D480001010101010101010101010101010101FB
:109D580001010101010101010101010101010101EB
:109D680001010101010101010101010101010101DB
:109D780001010101010101010101010101010101CB
:109D880001010101010101010101010101010101BB
:109D980001010101010101010101010101010101AB
:109DA80001010100000000000000000000000000A8
:109DB800000000000000000000000000000000009B
:109DC800000000000000000000000000000000008B
:109DD80000000000000000000000000059A34EA190
:109DE80082A1F1A10EA14D616E75616C204D6F6469
:109DF8006520202020202020202043757272656E67
:109E08007420706F733A2020202020202001547580
:109E1800726E2043435720002053706565642020EC
:109E280020205374617274202020200020202020DC
:109E380020202020202052657475726E20746F20B7
:109E48005A65726F3F202020202043757272656E1C
:109E58007420706F733A202020202020202020209A
:109E680020202020202020202020202020202020EA
:109E78002020205965732020202020202020202009
:109E880020204E6F20204172633A2053697A653D45
:109E98002020202020202020202043757272656E0B
:109EA8007420706F733A20202020202020015475E0
:109EB800726E20434357200020537065656420204C
:109EC800202053746172742020202000202020203C
:109ED8002020202020204172633A2053657420619D
:109EE80072632073697A6520202041726320736948
:109EF8007A653A202020202020202020202053741A
:109F080065702073697A6520002020436F6E66694A
:109F1800726D202020202020202020200020204397
:109F2800616E63656C204469766964653A20202017
:109F380020202020202020202020506F733A20202D
:109F480020202020202020202020202020204A758A
:109F58006D702073697A653A202020202020202007
:109F680020205072657373546F4A756D70200020FD
:109F780043616E63656C4469766964653A2053652C
:109F880074206469766973696F6E20202020202010
:109F980020202020202020202020202020202020B9
:109FA800202F737465702020002020436F6E66692F
:109FB800726D3132333420202020202000202043AD
:109FC800616E63656C2053657475703A20536574CF
:109FD80020646972656374696F6E202020202020D8
:109FE8002020202020202020202020202020204346
:109FF8006F756E746572436C6F636B7769736520F8
:10A00800202020436C6F636B7769736520202020C4
:10A0180020202020202053657475703A20536574E1
:10A02800207A65726F20706F732E202020202020E8
:10A038002020202020202020202020202020537491
:10A0480065702073697A6520002020436F6E666909
:10A05800726D20782E78780120202020002020435F
:10A06800616E63656C204D61696E204D656E753A51
:10A078002020202020202020202020536574757067
:10A088002020202020202020202020202020204D9B
:10A098006F766520202020202020202020202020CE
:10A0A800202020476F20746F205A65726F2020206F
:10A0B8002020202020204D61696E204D656E753A64
:10A0C8002020202020202020202020536574757017
:10A0D80020202020446976696465202020202041C2
:10A0E80072632020202020204D616E75616C202035
:10A0F800202020476F325A65726F202020202020B0
:10A1080020202020202009024000020100C032093E
:10A118000400000203000000092111010001221DB2
:10A1280000070581034000010705010340000109FC
:10A1380004010002080650000705820240000107DA
:10A14800050202400001340353006F006C006400F4
:10A15800650072006E006500720064002E006300E6
:10A168006F006D002000200020002000200020004B
:10A17800200020002000200020002E03530074003F
:10A18800650070007000650072004D006F0074007B
:10A198006F00720043006F006E00740072006F0061
:10A1A8006C006C0065007200008004022000000052
:10A1B8004D6963726F6368704D6173732053746F78
:10A1C8007261676520202020303030310600FF0999
:10A1D80001A10119012940150026FF0075089540C5
:10A1E8008100190129409100C01A0331003200335F
:10A1F80000340035003600370038003900300039A7
:10A208000039004F56455253484F4F545F434F5300
:10A21800545F494E5F535445505300504F5349546F
:10A22800494F4E5F444953504C41595F31383000D3
:10A238004D4158494D554D5F53504545445F4D413B
:10A248004E55414C00494E495449414C5F53504585
:10A2580045445F4D414E55414C0046554C4C5F437B
:10A268004952434C455F494E5F5354455053004F44
:10A2780056455253484F4F545F494E5F53544550CB
:10A2880053004D4158494D554D5F53504545445F26
:10A2980041524300494E495449414C5F535045454A
:10A2A800445F41524300494E56455253455F444925
:10A2B80052454354494F4E00120100020000000865
:10A2C800D804CFED0001010200014D454E555F5302
:10A2D8005452554354555245005553455F434357CF
:10A2E8005F4C494D495400424545505F44555241E1
:10A2F80054494F4E004D4158494D554D5F535045B7
:10A308004544004D494E494D554D5F5350454544D0
:10A31800005553455F43575F4C494D4954004343EB
:10A32800575F4C494D49540043575F4C494D495478
:10A33800000A000E010F110F00181800000000009D
:10A348000004040404040404043D2A80A73D2A8070
:10A35800A60403090468656C6C6F20776F726C64DF
:10A368002100537465707065724374726C004649BD
:10A378004C4520202020004D53444F53352E3000AB
:10A3880020202020202020200043616E63656C007F
:0BA3980053746F7020005458540000F4
:10A3A400FDEF57F0490E0001606F020E616FBE0EA3
:10A3B400626FA00E636F000E656F500E646F9AECAF
:10A3C400A7F00AD03E0E0201666F2BEF58F03E0E46
:10A3D40002017A6F2BEF58F001017351010AD8B4CE
:10A3E4001BD0030AD8B4EED7010AD8B48FD0070A19
:10A3F400D8B4EDD7010A9AD0490E0001606F020E5D
:10A40400616F6E0E626FA00E636F000E656F500E6B
:10A41400646F9AECA7F005D03E0E02015D6F2BEF3E
:10A4240058F001017351010AD8B4F6D7050AD8B41B
:10A434006DD0E0D70101BE51000AD8B4B3D7010AE8
:10A44400D8B4DAD72BEF58F0490E0001606F020E32
:10A45400616F1E0E626FA00E636F000E656F500E6B
:10A46400646F9AECA7F075C19FF076C1A0F0020E5C
:10A474000001A16FC80EA26F000EA36F8CEC70F0E8
:10A48400E80E0101755D030E7659D8A002D0000EC6
:10A4940001D0010E0001D26F000ED36F18D0D3513A
:10A4A400010DC80EF324D96E000EF420DA6ED351D8
:10A4B400D2C0C6F0C76BC627000EC723850EC625BB
:10A4C400E16E020EC721E26EDFCFE7FFD32BD3513B
:10A4D400010DC80EF324D96E000EF420DA6EDF509D
:10A4E400D8A4DDD701017351110A8ED0490E0001A1
:10A4F400606F020E616FCE0E626F9F0E636F000E6F
:10A50400656F500E646F9AECA7F00AD03E0E0201FC
:10A51400716F2BEF58F03E0E0201856F2BEF58F050
:10A5240001017351210AD8B4F1D7030AD8B4F3D77F
:10A534002BEF58F0490E0001606F020E616F7E0E22
:10A54400626F9F0E636F000E656F500E646F9AEC1E
:10A55400A7F07AC178F00001796B030E7A6FC80E08
:10A564007B6F000E7C6FD5EC91F0000E0001D36F71
:10A57400020ED36501D014D0D351010DC80EF324BB
:10A58400D96E000EF420DA6ED351010D710EF3244E
:10A59400E16E020EF420E26EDFCFE7FFD32BE8D7A3
:10A5A40078C178F079C179F0040E7A6FC80E7B6FA8
:10A5B400000E7C6FD5EC91F0000E0001D36F030EFA
:10A5C400D36501D01ED0D351010DC80EF324D96E2A
:10A5D400000EF420DA6ED351010D850EF324E16EE2
:10A5E400020EF420E26EDFCFE7FFD32BE8D73E0E56
:10A5F40002017D6F2BEF58F03E0E0201916F2BEF9D
:10A6040058F001017351310AD8B4F1D7030AD8B410
:10A61400F3D72BEF58F0490E0001606F020E616F03
:10A624002E0E626F9F0E636F000E656F500E646F87
:10A634009AECA7F078C178F079C179F0000E0001A6
:10A644007A6FC80E7B6F000E7C6FD5EC91F0000E14
:10A654000001D36F18D0D351010DC80EF324D96E65
:10A66400000EF420DA6ED351C66FC76B080EC627EE
:10A67400000EC723490EC625E16E020EC721E26E05
:10A68400DFCFE7FFD32BD351010DC80EF324D96ECE
:10A69400000EF420DA6EDF50D8A4DDD7D351C66F94
:10A6A400C76B080EC627000EC723490EC625D96EF0
:10A6B400020EC721DA6E2C0EDF6E01017729D8A4B1
:10A6C40024D00001D351C66FC76B0A0EC627000EF3
:10A6D400C723490EC625D96E020EC721DA6E430E72
:10A6E400DF6ED351C66FC76B0B0EC627000EC72390
:10A6F400490EC625D96E020EC721DA6E430EDF6EEF
:10A70400D351C66FC76B0C0E14D00001D351C66F62
:10A71400C76B0A0EC627000EC723490EC625D96E7D
:10A72400020EC721DA6E430EDF6ED351C66FC76BBC
:10A734000B0EC627000EC723490EC625D96E020E7E
:10A74400C721DA6E570EDF6E7BC178F07CC179F0D9
:10A75400000E7A6FC80E7B6F000E7C6FD5EC91F003
:10A76400000E0001D36F18D0D351010DC80EF3248D
:10A77400D96E000EF420DA6ED351C66FC76B050E86
:10A78400C627000EC7235D0EC625E16E020EC72143
:10A79400E26EDFCFE7FFD32BD351010DC80EF324B4
:10A7A400D96E000EF420DA6EDF50D8A4DDD7D35171
:10A7B400C66FC76B060EC627000EC7235D0EC625DF
:10A7C400D96E020EC721DA6E280EDF6ED351070F41
:10A7D400D26F5BECABF060C0B7F061C0B8F062C0A0
:10A7E400B9F063C0BAF0020E0001BB6FC80EBC6FB3
:10A7F400000EBD6FFBEC88F0000E0001D36F18D083
:10A80400D351010DC80EF324D96E000EF420DA6E74
:10A81400D251D3C0C6F0C76BC627000EC7235D0E46
:10A82400C625E16E020EC721E26EDFCFE7FFD32B10
:10A83400D351010DC80EF324D96E000EF420DA6E44
:10A84400DF50D8A4DDD7D251D3C0C6F0C76BC6271A
:10A85400000EC7235D0EC625D96E020EC721DA6E1F
:10A86400010EDF6ED251D3C0C6F0C76BC627000EEF
:10A87400C723010EC627000EC7235D0EC625D96E59
:10A88400020EC721DA6E290EDF6E7DC18FF07EC104
:10A8940090F0C80E916F000E926FFDECACF0000EBC
:10A8A4000001D36F18D0D351010DC80EF324D96E13
:10A8B400000EF420DA6ED351C66FC76B0B0EC62799
:10A8C400000EC723710EC625E16E020EC721E26E8B
:10A8D400DFCFE7FFD32BD351010DC80EF324D96E7C
:10A8E400000EF420DA6EDF50D8B4B3D3DCD7490EAF
:10A8F400606F020E616FDE0E626F9E0E636F000E5C
:10A90400656F500E646F9AECA7F008D03E0E0201FA
:10A914007D6F0CD03E0E0201916F08D0010173517E
:10A92400510AD8B4F3D7030AD8B4F4D781C1B7F025
:10A9340082C1B8F083C1B9F084C1BAF0020E00013B
:10A94400BB6FC80EBC6F000EBD6FFBEC88F0000E31
:10A954000001D36F18D0D351010DC80EF324D96E62
:10A96400000EF420DA6ED351C66FC76B0A0EC627E9
:10A97400000EC7235D0EC625E16E020EC721E26EEE
:10A98400DFCFE7FFD32BD351010DC80EF324D96ECB
:10A99400000EF420DA6EDF50D8A4DDD7D351C66F91
:10A9A400C76B0A0EC627000EC7235D0EC625D96ED7
:10A9B400020EC721DA6E010EDF6E7FC19FF080C1E7
:10A9C400A0F0020EA16FC80EA26F000EA36F8CEC54
:10A9D40070F0E80E01017F5D030E8059D8A002D00B
:10A9E400000E01D0010E0001D26F000ED36F18D0FB
:10A9F400D351010DC80EF324D96E000EF420DA6E83
:10AA0400D351D2C0C6F0C76BC627000EC723850E2C
:10AA1400C625E16E020EC721E26EDFCFE7FFD32B1E
:10AA2400D351010DC80EF324D96E000EF420DA6E52
:10AA3400DF50D8A4DDD7D351D2C0C6F0C76BC62728
:10AA4400000EC723850EC625D96E020EC721DA6E05
:10AA5400010E68D2490E606F020E616F8E0E626F36
:10AA64009E0E636F000E656F500E646F9AECA7F034
:10AA740025D0570E0201776F200E786F27D0710E04
:10AA84000001606F020E616F880E626FA30E636F28
:10AA9400000E656F080E646F9AECA7F0850E000136
:10AAA400606F020E616F910E626FA30E636F000EF2
:10AAB400656F060E646F9AECA7F008D0010173511C
:10AAC400620AD8B4DCD7010AD8B4D3D781C1B7F0AD
:10AAD40082C1B8F083C1B9F084C1BAF0020E00019A
:10AAE400BB6FC80EBC6F000EBD6FFBEC88F0000E90
:10AAF4000001D36F18D0D351010DC80EF324D96EC1
:10AB0400000EF420DA6ED351C66FC76B0A0EC62747
:10AB1400000EC723490EC625E16E020EC721E26E60
:10AB2400DFCFE7FFD32BD351010DC80EF324D96E29
:10AB3400000EF420DA6EDF50D8A4DDD7D351C66FEF
:10AB4400C76B0A0EC627000EC723490EC625D96E49
:10AB5400020EC721DA6E010EDF6E5BECABF060C053
:10AB6400B7F061C0B8F062C0B9F063C0BAF0020EC9
:10AB74000001BB6FC80EBC6F000EBD6FFBEC88F00C
:10AB8400C80E0001606F000E616FC5ECADF00001EE
:10AB940060510008060FD26F000ED36F1CD0D35142
:10ABA400010DC80EF324D96E000EF420DA6ED351D1
:10ABB400D2C0C6F0C76BC627000EC7230D0EC6272A
:10ABC400000EC7235D0EC625E16E020EC721E26E9C
:10ABD400DFCFE7FFD32BD351010DC80EF324D96E79
:10ABE400000EF420DA6EDF50D8A4D9D785C19DF0C9
:10ABF40086C19EF0D3ECB1F09DC09FF09EC0A0F042
:10AC0400020E0001A16FC80EA26F000EA36F8CECA0
:10AC140070F0000E0001D36F18D0D351010DC80E8F
:10AC2400F324D96E000EF420DA6ED351C66FC76BCD
:10AC34000B0EC627000EC723850EC625E16E020E35
:10AC4400C721E26EDFCFE7FFD32BD351010DC80E2E
:10AC5400F324D96E000EF420DA6EDF50D8A4DDD7C9
:10AC640035D1490E606F020E616F3E0E626F9E0E0B
:10AC7400636F000E656F500E646F9AECA7F05BEC87
:10AC8400ABF060C0B7F061C0B8F062C0B9F063C0A7
:10AC9400BAF0020E0001BB6FC80EBC6F000EBD6F90
:10ACA400FBEC88F0000E0001D36F18D0D351010DD6
:10ACB400C80EF324D96E000EF420DA6ED351C66F99
:10ACC400C76B0D0EC627000EC7235D0EC625E16EA9
:10ACD400020EC721E26EDFCFE7FFD32BD351010D64
:10ACE400C80EF324D96E000EF420DA6EDF50D8A417
:10ACF400DDD7D351C66FC76B0D0EC627000EC72311
:10AD04005D0EC625D96E020EA1D6490E606F020EE5
:10AD1400616FEE0E626F9D0E636F000E656F500ED5
:10AD2400646F9AECA7F044D0570E0201776F200E9F
:10AD3400786F49D0710E0001606F020E616F880E4A
:10AD4400626FA30E636F000E656F080E646F9AEC5A
:10AD5400A7F0850E0001606F020E616F910E626FA5
:10AD6400A30E636F000E656F060E646F9AECA7F076
:10AD74002AD0710E0001606F020E616F880E626F3F
:10AD8400A30E636F000E656F080E646F9AECA7F054
:10AD9400850E0001606F020E616F980E626FA30E44
:10ADA400636F000E656F050E646F9AECA7F00BD00D
:10ADB40001017351820AD8B4BDD7010AD8B4B4D7FB
:10ADC400070AD8B4D6D75BECABF060C0B7F061C06B
:10ADD400B8F062C0B9F063C0BAF0020E0001BB6FF4
:10ADE400C80EBC6F000EBD6FFBEC88F0C80E0001EE
:10ADF400606F000E616FC5ECADF00001605100089A
:10AE0400070FD26F000ED36F1CD0D351010DC80EA3
:10AE1400F324D96E000EF420DA6ED351D2C0C6F0FA
:10AE2400C76BC627000EC7230C0EC627000EC72308
:10AE34005D0EC625E16E020EC721E26EDFCFE7FF8D
:10AE4400D32BD351010DC80EF324D96E000EF42078
:10AE5400DA6EDF50D8A4D9D788C19DF089C19EF09D
:10AE6400D3ECB1F09DC09FF09EC0A0F0020E000193
:10AE7400A16FC80EA26F000EA36F8CEC70F0000ED1
:10AE84000001D36F18D0D351010DC80EF324D96E2D
:10AE9400000EF420DA6ED351C66FC76B0B0EC627B3
:10AEA400000EC723850EC625E16E020EC721E26E91
:10AEB400DFCFE7FFD32BD351010DC80EF324D96E96
:10AEC400000EF420DA6EDF50D8A4DDD7D351C66F5C
:10AED400C76B0B0EC627000EC723850EC625D96E79
:10AEE400020EC721DA6E010EDF6ED351C66FC76B37
:10AEF4000C0EC627000EC723850EC625D96E020E7A
:10AF0400C721DA6E2F0EDF6ED351C66FC76B0D0EDD
:10AF1400C627000EC723850EC625D96E020EC7218B
:10AF2400DA6E730EDF6E95D06DECACF001016751F3
:10AF340000019F6FA06B9FBFA007000EA16F490E79
:10AF4400A26F020EA36F8CEC70F084A402D0480EA2
:10AF540001D04C0E0201516F84A002D0480E01D0E2
:10AF64004C0E526F0101685100019F6FA06B9FBF8F
:10AF7400A007000EA16F5D0EA26F020EA36F8CECF2
:10AF840070F084A202D0480E01D04C0E0201656F0D
:10AF94000101695100019F6FA06B9FBFA007000EC4
:10AFA400A16F710EA26F020EA36F8CEC70F080A0E3
:10AFB40002D0480E01D04C0E0201796F80A402D059
:10AFC400480E01D04C0E7A6F01016A5100019F6F47
:10AFD400A06B9FBFA007000EA16F850EA26F020E8B
:10AFE400A36F8CEC70F080A202D0480E01D04C0EFE
:10AFF40002018D6F2ED001017351F00B0001C66F59
:10B00400C76BC751000AD8A424D0C651000AD8B4CB
:10B014001CEF52F0100AD8B426EF52F0300AD8B41C
:10B0240078EF52F0100AD8B49CEF52F0700AD8B4FA
:10B034000DEF53F0100AD8B45AD4300AD8B40AD554
:10B04400100AD8B40ED6F00AD8B45FD6700AD8B4B1
:10B054006BD783B41200450E0201496F520E4A6F3A
:10B06400520E4B6F4F0E4C6F520E4D6F12009E924C
:10B0740001014A05D8A404D01B691C691D691E6915
:10B084004851D8A41AD08AA217D08A921B511F19EA
:10B0940009E11C51201906E11D51211903E11E513A
:10B0A4002219D8A41200CA949E929D9240ECA1F059
:10B0B400000E0101746F12008A82010E1F27000E18
:10B0C4002023212322234951316E000E31BEFF0E6D
:10B0D400326E336E346E31506B2732506C233350E2
:10B0E4006D2334506E2395516B1914E196516C19EC
:10B0F40011E197516D190EE198516E19D8A40AD037
:10B10400000E6B6F000E6C6F000E6D6F000E6E6F95
:10B114006F4B702B6B2916E16C2914E16D2912E138
:10B124006E29D8A40FD0FF0E95256B6FFF0E9621C4
:10B134006C6FFF0E97216D6FFF0E98216E6F6F0776
:10B14400D8A070070201385101011F190FE1020153
:10B154003951010120190AE102013A510101211971
:10B1640005E102013B5101012219D8A412001FC1BB
:10B1740031F020C132F021C133F022C134F0311E4C
:10B18400321E331E341E312A000E32223322342260
:10B194001B513124456E1C513220466E1D51332003
:10B1A400476E1E513420486ED8905734F66E58348A
:10B1B400F76E610EF626940EF722F86A000EF82256
:10B1C4000900F5CF41F00A00F5CF42F057C031F045
:10B1D40058C032F0D89031363236040E3126000E83
:10B1E4003222610E3124F66E940E3220F76EF86A24
:10B1F400000EF8220900F5CF43F00A00F5CF44F021
:10B204005750345D58503559D8A010D04150316E44
:10B214004250326E336A346A4550315C465032587B
:10B224004750335848503458D8A0EDD05750581090
:10B23400D8B403D05706D8A058064805D8A424D0BB
:10B244002F0E5724F66E980E5820F76EF86A000EEB
:10B25400F8220800F5500009D8B416D0000E486F43
:10B264008A82550EA76EAA0EA76E0E01BF91000E1C
:10B27400C46F550EA76EAA0EA76EBF81000ECC6ECA
:10B28400BA90BA92BA94BA96FD0E5724F66E9B0EF3
:10B294005820F76EF86A000EF8220800F5CF31F056
:10B2A400CA503118FC0B3118CA6E160E5724F66EAC
:10B2B4009A0E5820F76EF86A000EF8220800F5CFAF
:10B2C400CBFF2F0E5724F66E980E5820F76EF86AAF
:10B2D400000EF8220800F5CF31F0314631463146F0
:10B2E400CA503118870B3118CA6ED890CB30BB6E58
:10B2F40057505810D8B460D0FE0E316EFF0E326E27
:10B3040057C033F058C034F0D89033363436315007
:10B31400332632503422610E3324F66E940E3420D8
:10B32400F76EF86A000EF8220900F5CF35F009002F
:10B33400F5CF36F03550376E3650386E396A3A6A82
:10B34400371E381E391E3A1E372A000E382239227B
:10B354003A22D8905734F66E5834F76E610EF626BA
:10B36400940EF722F86A000EF8220900F5CF3BF09C
:10B374000900F5CF3CF03B5037243D6E3C5038205B
:10B384003E6E000E39203F6E000E3A20406E0101E1
:10B394001F513D240201386F010120513E2002015A
:10B3A400396F010121513F2002013A6F01012251FD
:10B3B400402002013B6F1200D8905734F66E583487
:10B3C400F76E610EF626940EF722F86A000EF82244
:10B3D4000900F5CF31F00900F5CF32F03150010109
:10B3E4001F250201386F3250010120210201396FFB
:10B3F400000E0101212102013A6F000E01012221F8
:10B4040002013B6F120001013451571804E1355118
:10B414005818D8B410D04350316E4450326E336A49
:10B42400346A4550315C465032584750335848507E
:10B434003458D8A05BD0D8905734F66E5834F76E91
:10B44400610EF626940EF722F86A000EF82209001F
:10B45400F5CF31F00900F5CF32F03150336E325070
:10B46400346E356A366A331E341E351E361E332A50
:10B47400000E34223522362257C037F058C038F037
:10B48400D89037363836020E3726000E3822610E31
:10B494003724F66E940E3820F76EF86A000EF82200
:10B4A4000900F5CF39F00900F5CF3AF039503324CB
:10B4B4003B6E3A5034203C6E000E35203D6E000E3B
:10B4C40036203E6E1F513B240201386F010120518A
:10B4D4003C200201396F010121513D2002013A6FE4
:10B4E400010122513E2002013B6F1200574A582AA3
:10B4F400FD0E5724F66E9B0E5820F76EF86A000E68
:10B50400F8220800F5CF31F0CA503118FC0B31187D
:10B51400CA6E160E5724F66E9A0E5820F76EF86A05
:10B52400000EF8220800F5CFCBFF2F0E5724F66E3D
:10B53400980E5820F76EF86A000EF8220800F5CF2E
:10B5440031F0314631463146CA503118870B311833
:10B55400CA6ED890CB30BB6E01014851D8A421D01B
:10B564002F0E5724F66E980E5820F76EF86A000EC8
:10B57400F8220800F5500009D8A413D0010E486F32
:10B58400BA50F00B0C09BA6E550EA76EAA0EA76E30
:10B594000E01BF910E0EC46F550EA76EAA0EA76EB4
:10B5A400BF81D8905734F66E5834F76E610EF62684
:10B5B400940EF722F86A000EF8220900F5CF31F054
:10B5C4000900F5CF32F03150336E3250346E356AA3
:10B5D400366A331E341E351E361E332A000E3422BC
:10B5E4003522362257C037F058C038F0D890373655
:10B5F4003836020E3726000E3822610E3724F66ED6
:10B60400940E3820F76EF86A000EF8220900F5CF80
:10B6140039F00900F5CF3AF0395033243B6E3A50F3
:10B6240034203C6E000E35203D6E000E36203E6EFA
:10B6340001011F513B240201386F010120513C20BC
:10B644000201396F010121513D2002013A6F0101CC
:10B6540022513E2002013B6F120099C061F09AC052
:10B6640062F0620E0001636FA20E646F54ECA8F0E6
:10B67400000161516211D8A40FD09BC06CF09CC032
:10B684006DF01BEC8EF06CC095F16DC096F16EC040
:10B6940097F16FC098F1120099C061F09AC062F0FE
:10B6A400770E0001636FA20E646F54ECA8F00001E2
:10B6B40061516211D8A40BD09BC066F09CC067F0A6
:10B6C400C3EC95F066C09AF167C09BF1120099C073
:10B6D40061F09AC062F0AE0E0001636FA20E646F57
:10B6E40054ECA8F0000161516211D8A40BD09BC0A6
:10B6F4006CF09CC06DF01BEC8EF000016C510101EC
:10B70400996F120099C061F09AC062F0770E00013F
:10B71400636FA20E646F54ECA8F0000161516211D2
:10B72400D8A40BD09BC066F09CC067F0C3EC95F026
:10B7340066C09AF167C09BF1120099C061F09AC08B
:10B7440062F00B0E0001636FA20E646F54ECA8F05C
:10B75400000161516211D8A40BD09BC066F09CC05B
:10B7640067F0C3EC95F066C09CF167C09DF11200D0
:10B7740099C061F09AC062F00B0E0001636FA30ED2
:10B78400646F54ECA8F0000161516211D8A40BD08D
:10B794009BC066F09CC067F0C3EC95F066C09EF158
:10B7A40067C09FF1120099C061F09AC062F0FD0E6B
:10B7B4000001636FA20E646F54ECA8F000016151A4
:10B7C4006211D8A40BD09BC066F09CC067F0C3EC98
:10B7D40095F066C0A0F167C0A1F1120099C061F0B4
:10B7E4009AC062F09C0E0001636FA20E646F54EC69
:10B7F400A8F0000161516211D8A40BD09BC066F07F
:10B804009CC067F0C3EC95F066C0A2F167C0A3F1D9
:10B81400120099C061F09AC062F08A0E0001636F51
:10B82400A20E646F54ECA8F0000161516211D8A417
:10B834000BD09BC066F09CC067F0C3EC95F066C06B
:10B84400A4F167C0A5F1120099C061F09AC062F03A
:10B854004D0E0001636FA20E646F54ECA8F000015A
:10B8640061516211D8A40BD09BC066F09CC067F0F4
:10B87400C3EC95F066C0A6F167C0A7F1120099C0A9
:10B8840061F09AC062F0380E0001636FA20E646F1B
:10B8940054ECA8F0000161516211D8A40BD09BC0F4
:10B8A40066F09CC067F0C3EC95F066C0A8F167C071
:10B8B400A9F1120099C061F09AC062F0EF0E000184
:10B8C400636FA20E646F54ECA8F000016151621121
:10B8D400D8A40BD09BC066F09CC067F0C3EC95F075
:10B8E400000166510101AA6F120099C061F09AC06B
:10B8F40062F0190E0001636FA30E646F54ECA8F09C
:10B90400000161516211D8A40BD09BC06CF09CC0A3
:10B914006DF01BEC8EF000016C510101AB6F120055
:10B9240099C061F09AC062F0300E0001636FA30EFB
:10B93400646F54ECA8F0000161516211D8A421D0C5
:10B944009BC06CF09CC06DF01BEC8EF06CC0ACF135
:10B954006DC0ADF16EC0AEF16FC0AFF1ACC191F08E
:10B96400ADC192F0AEC193F0AFC194F065EC78F044
:10B9740091C0B0F192C0B1F193C0B2F194C0B3F1EF
:10B98400120099C061F09AC062F0E10E0001636F89
:10B99400A20E646F54ECA8F0000161516211D8A4A6
:10B9A4000BD09BC06CF09CC06DF01BEC8EF00001C2
:10B9B4006C510101B46F120099C061F09AC062F039
:10B9C400260E0001636FA30E646F54ECA8F000010F
:10B9D40061516211D8A421D09BC06CF09CC06DF061
:10B9E4001BEC8EF06CC0B5F16DC0B6F16EC0B7F152
:10B9F4006FC0B8F1B5C191F0B6C192F0B7C193F080
:10BA0400B8C194F065EC78F091C0B9F192C0BAF184
:10BA140093C0BBF194C0BCF1120099C061F09AC00C
:10BA240062F0230E0001636FA20E646F54ECA8F061
:10BA3400000161516211D8A40BD09BC066F09CC078
:10BA440067F0C3EC95F0000166510101BD6F12006F
:10BA540099C061F09AC062F0D20E0001636FA20E29
:10BA6400646F54ECA8F0000161516211D8A4120073
:10BA74009BC066F09CC067F0C3EC95F00001665172
:10BA84000101BE6F1200000E0001E56F000EE66FAB
:10BA9400000EE76F000EE86F620E846FA20E856FD2
:10BAA40095C186F096C187F097C188F098C189F056
:10BAB400000EE5258A6F080EE6218B6F99EC8EF057
:10BAC4000001E36FE351E527000EE623E723E823B3
:10BAD400AE0E846FA20E856F010199510001866F2D
:10BAE400876B886B896B000EE5258A6F080EE6214B
:10BAF4008B6F99EC8EF00001E36FE351E527000EA4
:10BB0400E623E723E823770E846FA20E856F9AC19C
:10BB140086F09BC187F0886B896B000EE5258A6FE0
:10BB2400080EE6218B6F99EC8EF00001E36FE35170
:10BB3400E527000EE623E723E8230B0E846FA20E0D
:10BB4400856F9CC186F09DC187F0886B896B000E60
:10BB5400E5258A6F080EE6218B6F99EC8EF00001C3
:10BB6400E36FE351E527000EE623E723E8230B0EFA
:10BB7400846FA30E856F9EC186F09FC187F0886B8A
:10BB8400896B000EE5258A6F080EE6218B6F99EC10
:10BB94008EF00001E36FE351E527000EE623E7236F
:10BBA400E823FD0E846FA20E856FA0C186F0A1C1AB
:10BBB40087F0886B896B000EE5258A6F080EE621F5
:10BBC4008B6F99EC8EF00001E36FE351E527000ED3
:10BBD400E623E723E8239C0E846FA20E856FA2C19F
:10BBE40086F0A3C187F0886B896B000EE5258A6F08
:10BBF400080EE6218B6F99EC8EF00001E36FE351A0
:10BC0400E527000EE623E723E8238A0E846FA20EBD
:10BC1400856FA4C186F0A5C187F0886B896B000E7F
:10BC2400E5258A6F080EE6218B6F99EC8EF00001F2
:10BC3400E36FE351E527000EE623E723E8234D0EE7
:10BC4400846FA20E856FA6C186F0A7C187F0886BAA
:10BC5400896B000EE5258A6F080EE6218B6F99EC3F
:10BC64008EF00001E36FE351E527000EE623E7239E
:10BC7400E823380E846FA20E856FA8C186F0A9C18F
:10BC840087F0886B896B000EE5258A6F080EE62124
:10BC94008B6F99EC8EF00001E36FE351E527000E02
:10BCA400E623E723E823E10E846FA20E856F0101EA
:10BCB400B4510001866F876B886B896B000EE52594
:10BCC4008A6F080EE6218B6F99EC8EF00001E36F0A
:10BCD400E351E527000EE623E723E823260E846FCD
:10BCE400A30E856FB5C186F0B6C187F0B7C188F0E1
:10BCF400B8C189F0000EE5258A6F080EE6218B6F26
:10BD040099EC8EF00001E36FE351E527000EE62382
:10BD1400E723E823190E846FA30E856F0101AB514D
:10BD24000001866F876B886B896B000EE5258A6F2F
:10BD3400080EE6218B6F99EC8EF00001E36FE3515E
:10BD4400E527000EE623E723E823300E846FA30ED5
:10BD5400856FACC186F0ADC187F0AEC188F0AFC1CC
:10BD640089F0000EE5258A6F080EE6218B6F99ECA9
:10BD74008EF00001E36FE351E527000EE623E7238D
:10BD8400E823EF0E846FA20E856F0101AA51000112
:10BD9400866F876B886B896B000EE5258A6F080EAA
:10BDA400E6218B6F99EC8EF00001E36FE351E527F8
:10BDB400000EE623E723E823230E846FA20E856F8B
:10BDC4000101BD510001866F876B886B896B000E82
:10BDD400E5258A6F080EE6218B6F99EC8EF0000141
:10BDE400E36FE351E527000EE623E723E823D20EB1
:10BDF400846FA20E856F0101BE510001866F876BAF
:10BE0400886B896B000EE5258A6F080EE6218B6F1F
:10BE140099EC8EF00001E36FE351E527000EE62371
:10BE2400E723E823D50E8B6F020E8C6FE50E8D6F22
:10BE3400020E8E6F7CEC90F00001E46FE429D8A42C
:10BE440015D0D50EAC6F020EAD6FE50EAE6F020EBF
:10BE5400AF6FE5C0B0F0E6C0B1F0E7C0B2F0E8C043
:10BE6400B3F0D3EC83F00001E46F0BD0E5C0ACF089
:10BE7400E6C0ADF0E7C0AEF0E8C0AFF0E4511DECB1
:10BE84008DF0000E0001A16F000EA26F000EA36FD3
:10BE9400000EA46FE5C0A5F0E6C0A6F0000EA76FE3
:10BEA400080EA86FE4515FEC6EF01200D1D1AFEC34
:10BEB40074F00009D8A4120001015669120072EC52
:10BEC40066F00009D8A41200010156691200500559
:10BED400D8A402D05669120012C23BF113C23AF13F
:10BEE4003AC16AF03BC16BF000016C6B6D6BE8EC1E
:10BEF40087F00009D8A41200000E0001616F240E1F
:10BF0400606FF9EC98F0000E0001606F060E616F2F
:10BF1400B00E626FA10E636F000E656F240E646F26
:10BF24009AECA7F0FD0E0101566F1200B3C260F047
:10BF3400B4C261F022EEA1F001D80AD00500FA6E75
:10BF4400DE50FD6EDE50FE6EDE50FF6EFA501200C3
:10BF540060C0A2F061C0A3F062C0A4F063C0A5F009
:10BF6400B3C260F0B4C261F022EEA4F001D80AD0EA
:10BF74000500FA6EDE50FD6EDE50FE6EDE50FF6E82
:10BF8400FA501200000160C09EF061C09FF0A06BE7
:10BF9400A16B26EE00F0A5C0DFFF26EE01F0A4C0E1
:10BFA400DFFF26EE02F0A3C0DFFF26EE03F0A2C0FF
:10BFB400DFFF26EE04F0A1C0DFFF26EE05F0A0C0EF
:10BFC400DFFF26EE06F09FC0DFFF26EE07F09EC0DF
:10BFD400DFFF000E01013B6F080E3A6F000E0001F7
:10BFE400616F080E606FF9EC98F0FD0E0101566F59
:10BFF40012005005D8A402D056691200000E3B6FFF
:10C00400120E3A6F000E0001616F120E606FF9ECB0
:10C0140098F0000E0001A66F110EA66501D014D091
:10C02400A651010D1F0EF324D96E020EF420DA6E10
:10C03400A651010D000EF324E16E060EF420E26E0B
:10C04400DFCFE7FFA62BE8D7FD0E0101566F1200E4
:10C05400030EE8CF00F6000EE8CF01F6B3C260F09D
:10C06400B4C261F022EEADF001D80AD00500FA6E38
:10C07400DE50FD6EDE50FE6EDE50FF6EFA50120092
:10C084000009D8A405D0000E00019C6F000E04D056
:10C09400000E00019C6F800E9B6F26EE02F09BC089
:10C0A400DFFF000EE8CF03F6000E01013B6F040E24
:10C0B4003A6F000E0001616F040E606FF9EC98F0A6
:10C0C400FD0E0101566F120002012151F00B05090A
:10C0D400216F200E2B6F000E2C6F010E0D018C6F43
:10C0E400000E886F000E896F000E8A6F000E8B6F32
:10C0F400010156691200000E00016A6F000E6B6F99
:10C10400000E6C6F000E6D6FE8EC87F00009D8A488
:10C114001200020121510F0B060AD8A407D00D0109
:10C124008C05D8A403D001015669120007ECA7F0CE
:10C13400000E0D01886F000E896F000E8A6F000ECD
:10C144008B6F010156691200000E0D01886F000EFD
:10C15400896F000E8A6F000E8B6F01015669120001
:10C164003E513F11D8B406D03EC1D9FF3FC1DAFFDA
:10C17400DFBE120002010B510A11091104E1400E45
:10C18400085DD8A00BD0400E00019D6F400E020147
:10C19400085F000E095B0A5B0B5B0AD008C29DF0C6
:10C1A400000E086F000E096F000E0A6F000E0B6F71
:10C1B40000019D51996F9A6B995101013A5D0001FB
:10C1C4009A5101013B59D8A007D000019D510101AA
:10C1D4003A5F000E3B5B1ED0000E0001A66F16D026
:10C1E40001013A513B11D8B404D03A07D8A03B0717
:10C1F4000BD00001A651010D000EF324D96E060EDA
:10C20400F420DA6E000EDF6E0001A62B9D51A65DB0
:10C21400D8A0E6D7010E0001606F000E616F060E14
:10C22400626F9DC063F0020E15EC8BF060C03EF1AE
:10C2340061C03FF10201085109110A110B11D8A480
:10C2440012000101566912007F0E5BEC87F01200A8
:10C2540001015651000AD8B44ED7030AD8B4C9D63E
:10C26400110AD8B434D6080AD8B4F2D6010AD8B41C
:10C274006BD7050AD8B428D73B0AD8B457D60D0AC9
:10C28400D8B415D6020AD8B41AD6050AD8B45CD7DD
:10C29400D20AD8B465D7030AD7D70001646FD0D1C6
:10C2A40001016805D8B403D06A05D8A402D0110EE0
:10C2B400736F69C160F00001616B60BF610767C1A2
:10C2C40062F0636B62BF630760516227615163234D
:10C2D40063BF08D0635103E16205D8A003D0020E06
:10C2E4000101736F69C160F00001616B60BF610798
:10C2F40067C162F0636B62BF63076051622761517B
:10C30400632363AF1200050E0101736F1200680509
:10C31400D8B403D06A05D8A402D0310E736F69C1B2
:10C3240060F00001616B60BF610767C162F0636B1D
:10C3340062BF6307605162276151632363BF08D002
:10C34400635103E16205D8A003D0030E0101736FAA
:10C3540069C160F00001616B60BF610767C162F091
:10C36400636B62BF6307605162276151632363AFEC
:10C374001200010E0101736F12006805D8B403D0D6
:10C384006A05D8A402D0510E736F69C160F0000130
:10C39400616B60BF610767C162F0636B62BF630773
:10C3A400605162276151632363BF08D0635103E185
:10C3B4006205D8A003D0040E0101736F69C160F057
:10C3C4000001616B60BF610767C162F0636B62BFAC
:10C3D4006307605162276151632363AF1200020E49
:10C3E4000101736F12006805D8B403D06A05D8A49C
:10C3F40002D0820E736F69C160F00001616B60BF8F
:10C40400610767C162F0636B62BF630760516227B3
:10C414006151632363BF08D0635103E16205D8A06F
:10C4240003D0050E0101736F69C160F00001616BF7
:10C4340060BF610767C162F0636B62BF63076051ED
:10C4440062276151632363AF1200030E0101736F0E
:10C4540012006805D8B403D06A05D8A402D0710EBE
:10C46400736F69C160F00001616B60BF610767C1F0
:10C4740062F0636B62BF630760516227615163239B
:10C4840063BF08D0635103E16205D8A003D0010E55
:10C494000101736F69C160F00001616B60BF6107E6
:10C4A40067C162F0636B62BF6307605162276151C9
:10C4B400632363AF1200040E0101736F12000101C4
:10C4C4007351010AD8B4ECD6030AD8B420D7010AB0
:10C4D400D8B453D7070AD8B486D7010AD8B4B9D781
:10C4E400F50A12006805D8B403D06A05D8A402D0AE
:10C4F400110E736F69C160F00001616B60BF610769
:10C5040067C162F0636B62BF630760516227615168
:10C51400632363BF08D0635103E16205D8A003D04D
:10C52400040E0101736F69C160F00001616B60BFAB
:10C53400610767C162F0636B62BF63076051622782
:10C544006151632363AF1200050E0101736F120082
:10C554006805D8B403D06A05D8A402D0820E736FDC
:10C5640069C160F00001616B60BF610767C162F07F
:10C57400636B62BF6307605162276151632363BFCA
:10C5840008D0635103E16205D8A003D0050E010170
:10C59400736F69C160F00001616B60BF610767C1BF
:10C5A40062F0636B62BF630760516227615163236A
:10C5B40063AF1200010E0101736F12006805D8B455
:10C5C40003D06A05D8A402D0710E736F69C160F0FC
:10C5D4000001616B60BF610767C162F0636B62BF9A
:10C5E4006307605162276151632363BF08D06351BD
:10C5F40003E16205D8A003D0010E0101736F69C184
:10C6040060F00001616B60BF610767C162F0636B3A
:10C6140062BF6307605162276151632363AF1200F5
:10C62400040E0101736F120001017351010AD8B4A1
:10C6340059D7050AD8B48CD7010AD8A41200BED79A
:10C6440000016451000AD8B43AD7010AD8A41200F0
:10C65400EBD700017B51800B846F7B517B258A6F64
:10C664007ABF8A818A51D8B40DD08A29D8A408D037
:10C67400000E786F000E796F000E7A6F000E7B6FDC
:10C684007A8F08D0000E786F000E796F000E7A6FE3
:10C69400000E7B6F7F51800B841B7F517F25896F38
:10C6A4007EBF89818951D8B40DD08929D8A408D0F6
:10C6B400000E7C6F000E7D6F000E7E6F000E7F6F8C
:10C6C4007E8F08D0000E7C6F000E7D6F000E7E6F93
:10C6D400000E7F6F8951D8B403D08A51D8A409D0F1
:10C6E400000E786F000E796F000E7A6F000E7B6F6C
:10C6F40012007E517803F3CF8FF0F4CF90F08F5176
:10C70400856F866B876B886B90518B6F8C6B8D6B91
:10C714008E6B7D517903F3CF8FF0F4CF90F08F516E
:10C724008527000E86238723882390518B27000EAC
:10C734008C238D238E237C517A03F3CF8FF0F4CF97
:10C7440090F08F518527000E8623872388239051EC
:10C754008B27000E8C238D238E2387C088F086C000
:10C7640087F085C086F0856B7C517903F3CF8FF019
:10C77400F4CF90F08F51852790518623000E8723A4
:10C78400000E88237D517803F3CF8FF0F4CF90F01F
:10C794008F51852790518623000E8723000E88230E
:10C7A40087C088F086C087F085C086F0856B7C5191
:10C7B4007803F3CF8FF0F4CF90F08F518527905109
:10C7C4008623000E8723000E88237E517903F3CF3E
:10C7D4008FF0F4CF90F08F518B2790518C23000E63
:10C7E4008D23000E8E237D517A03F3CF8FF0F4CF87
:10C7F40090F08F518B2790518C23000E8D23000EC7
:10C804008E237E517A03F3CF8FF0F4CF90F08F51C3
:10C81400806F9051816F826B836B82C083F081C083
:10C8240082F080C081F0806B80518B2781518C23F2
:10C8340082518D2383518E2385C080F086C081F080
:10C8440087C082F088C083F0190E05D0D890833356
:10C85400823381338033E82EF9D780518B2781517D
:10C864008C2382518D2383518E2387C088F086C008
:10C8740087F085C086F0856B89518AC080F0816B12
:10C884008027000E8123820E80258F6FFF0E812169
:10C89400906F0FD0D8908B378C378D378E3788BFF9
:10C8A4008B81D89085378637873788378F07D8A00C
:10C8B40090078DAFEFD7000E896F88AF16D0FF0EAB
:10C8C4008515806FFF0E8615816FFF0E8715826FA9
:10C8D4007F0E8815836F8051811182118311D8A432
:10C8E40002D08BA102D0010E896F8951D8B41FD018
:10C8F400010E8B27000E8C238D238E238EA117D03F
:10C904008BC080F08CC081F08DC082F08EC083F02B
:10C914008335833382338133803380C08BF081C08D
:10C924008CF082C08DF083C08EF08F4B902B90BF23
:10C934000DD0905103E18F29D8A008D0000E8B6F41
:10C94400000E8C6F800E8D6F7F0E20D090BF05D0AF
:10C9540090510EE18F05D8B00BD0000E8B6F000EF6
:10C964008C6F000E8D6F000E8E6F000E846F0FD0D3
:10C974008FC08AF0FF0E8B17FF0E8C177F0E8D175A
:10C98400000E8E178AB18D8FD8908A318E6F8451A4
:10C994008E138BC078F08CC079F08DC07AF08EC085
:10C9A4007BF0120000017F51800B8C6F7F517F253B
:10C9B4008E6F7EBF8E818E51D8B40DD08E29D8A4AF
:10C9C40008D0000E7C6F000E7D6F000E7E6F000E8F
:10C9D4007F6F7E8F06D0000E7C6F000E7D6F000E81
:10C9E4007E6F000E7F6F8351800B8D6F8C518D197C
:10C9F400D8A48C8D835183258D6F82BF8D818D51F9
:10CA0400D8B40DD08D29D8A408D0000E806F000EA4
:10CA1400816F000E826F000E836F828F06D0000E2E
:10CA2400806F000E816F000E826F000E836F8E5137
:10CA34008D5DD8B022D08CAD02D0800E8C1B8EC000
:10CA44008FF08DC08EF08FC08DF07CC08FF080C0D1
:10CA54007CF08FC080F07DC08FF081C07DF08FC0EE
:10CA640081F07EC08FF082C07EF08FC082F07FC0E4
:10CA74008FF083C07FF08FC083F0000E8F6F8E51D4
:10CA8400846F856B841F851F844B852B8D51866F26
:10CA9400876B845186278551872387BF2CD0875184
:10CAA40004E11A0E865DD8A026D07C517D117E113A
:10CAB4007F11D8B402D0010E01D0000E8F6F000E8A
:10CAC4007C6F000E7D6F000E7E6F000E7F6F8DC039
:10CAD4008EF015D08FA105D0D8908F3101098F6FBA
:10CAE40002D0D8908F337CB18F8F7F357F337E33E4
:10CAF4007D337C338E2B8D518E5DD8A0EBD78CBDCE
:10CB040028D08E51D8A409D0000E7C6F000E7D6F02
:10CB1400000E7E6F000E7F6F120080517C278151C2
:10CB24007D2382517E2383517F237FA182D08FA1D5
:10CB340005D0D8908F3101098F6F02D0D8908F33F0
:10CB44007CB18F8F7F357F337E337D337C338E2B67
:10CB540070D080517C5D81517D5982517E597F51C5
:10CB6400800A846F8351800A8459D8B036D07CC03F
:10CB740084F07DC085F07EC086F07FC087F0841F7E
:10CB8400851F861F871F842B000E852386238723FA
:10CB940080518425886F81518521896F8251862136
:10CBA4008A6F835187218B6FFF0E88257C6FFF0E60
:10CBB40089217D6FFF0E8A217E6FFF0E8B217F6F8F
:10CBC400800E8C1B8F6D8F51D8A40FD0010E7C2743
:10CBD400000E7D237E237F2308D080517C5F81510A
:10CBE4007D5B82517E5B83517F5B7C517D117E1125
:10CBF4007F11D8A41CD08F51D8A419D0000E7C6FFB
:10CC0400000E7D6F000E7E6F000E7F6F1200D890B5
:10CC14007C377D377E377F378FBF7C818FA102D0F1
:10CC2400D88001D0D8908F378E51D8A48E077EAF8C
:10CC3400EED7000E8D6F8FAF0AD08FC084F07F0EB9
:10CC44008417D8A402D07CA102D0010E8D6F8D511F
:10CC5400D8B420D0010E7C27000E7D237E237F23B1
:10CC64007FA118D07CC084F07DC085F07EC086F0A2
:10CC74007FC087F08735873386338533843384C018
:10CC84007CF085C07DF086C07EF087C07FF08E2961
:10CC9400D8A48E2B8E29D8B403D08E51D8A40DD00D
:10CCA400000E7C6F000E7D6F000E7E6F000E7F6F96
:10CCB4008E51D8A402D0000E8C6F8EA102D07E8F2C
:10CCC40001D07E9FD8908E317F6F8CBF7F8F7CC0C8
:10CCD4007CF07DC07DF07EC07EF07FC07FF01200CE
:10CCE40060D111C226F112C225F113C224F114C27B
:10CCF40023F116C23BF117C23AF13A5100018F6F8A
:10CD040001013B510001906F916B926B090ED89019
:10CD14008F37903791379237E82EF9D78FC06AF062
:10CD240090C06BF091C06CF092C06DF0E8EC87F0AD
:10CD34000009D8A448D1B3C260F0B4C261F022EEB5
:10CD4400ADF001D80AD00500FA6EDE50FD6EDE505B
:10CD5400FE6EDE50FF6EFA5012000009D8B417D0F0
:10CD6400010E0D018C6F02012151F00B0709216F97
:10CD7400270E2B6F000E2C6F000E0001606F020E49
:10CD840090EC8AF0000E0101546F54511200010E10
:10CD94000101576F3A513B11D8A402D0000EFFD0C5
:10CDA400030E546F000E426F060E436F000E0D010A
:10CDB400886F020E896F000E8A6F000E8B6F0D0153
:10CDC400885189118A118B11D8B41FD001014051A7
:10CDD4004111D8B406D040C1D9FF41C1DAFFDFBE4A
:10CDE400F2D0000E0001606F42C161F043C162F0F5
:10CDF400400E636F020E15EC8BF060C040F161C011
:10CE040041F1040E0101546F23D0B3C260F0B4C2E7
:10CE140061F022EEADF001D80AD00500FA6EDE50C2
:10CE2400FD6EDE50FE6EDE50FF6EFA5012000009F9
:10CE3400D8B40CD0010E0D018C6F02012151F00BFE
:10CE44000209216F270E2B6F000E2C6F020EA6D045
:10CE540040514111D8B406D040C1D9FF41C1DAFFD5
:10CE6400DFBEB1D020EE01F04051D9264151DA2283
:10CE7400DF5000018F6F8FC090F0916B926B936BBA
:10CE840090510201085F000191510201095B000108
:10CE9400925102010A5B0001935102010B5B0101F3
:10CEA40020EE01F04051D9264151DA22DF50000131
:10CEB4008F6F8FC090F0916B926B936B90510D01BB
:10CEC400885F000191510D01895B000192510D01B0
:10CED4008A5B000193510D018B5B400E01014227D7
:10CEE400000E4323030E5BD00D018C51D8A440D017
:10CEF400B3C284F0B4C285F023C186F024C187F0A4
:10CF040025C188F026C189F0000E00018A6F060E43
:10CF14008B6F01012351241125112611D8A402D0AD
:10CF2400010E01D0000E00018C6F22EEB0F001D88A
:10CF34000AD00500FA6EDE50FD6EDE50FE6EDE5045
:10CF4400FF6EFA501200E806D8B412D0640E010144
:10CF5400536102D0532B37D0010E0D018C6F0201A7
:10CF64002151F00B0309216F000E2B6F000E2C6F63
:10CF7400010E01012327000E2423252326233A072B
:10CF8400D8A03B07010E0BD0020E0D018C6F000ED2
:10CF94000001606F020E90EC8AF0000E0101546FE4
:10CFA40012D001015451000AD8B49BD6010AD8B456
:10CFB400F1D6030AD8B498D7010AD8B400D7070A1F
:10CFC400D8B446D7E1D7010154511200000E000134
:10CFD400A76F000EA66F97C0A2F098C0A3F0000E32
:10CFE4009E6F020E9D6F000EA16F95519611D8A4ED
:10CFF40024D097519811D8B420D09DC08BF09EC0F6
:10D004008CF0000E8E6F000E8D6FFFEC96F08BC0CF
:10D0140095F08CC096F095C060F096C061F0A0ECDD
:10D02400B1F060C09DF061C09EF000019551961171
:10D03400D8A403D095699669120095C0AAF096C049
:10D04400ABF003D1AAC060F0ABC061F0A0ECB1F0CA
:10D0540060C0A4F061C0A5F0AAC060F0ABC061F0EC
:10D06400ADECB1F060C0A8F061C0A9F00001A65118
:10D07400A41904E1A751A519D8B437D0A151D8B443
:10D084000AD0A6C07FF0A7C080F0000E816F0A0E00
:10D09400826F83ECABF09DC08BF09EC08CF0A4C07B
:10D0A4008DF0A5C08EF0FFEC96F08BC09FF08CC085
:10D0B400A0F09FC060F0A0C061F0A0ECB1F060C02F
:10D0C4009DF061C09EF0A4C087F0A5C088F0000E5A
:10D0D4000001896F0A0E8A6F99ECB0F0A4C0A6F023
:10D0E400A5C0A7F0000E0001A16FA35104E1020E38
:10D0F400A25DD8A05ED0A8C060F0A9C061F0000E07
:10D10400626F0A0E636F92ECACF060C0AAF061C06B
:10D11400ABF00001AB5104E1020EAA5DD8A006D029
:10D12400DA0EAA5D1F0EAB59D8A06BD0020EA8254B
:10D13400606F000EA921616F000E626F0A0E636FAB
:10D14400CAECA7F060C09BF061C09CF000019B2971
:10D1540003E19C29D8B413D0FE0EA625AA6FFF0EB6
:10D16400A721AB6FAA51AB6FAA6BD8909C319A6F71
:10D174009B31996F9951AA139A51AB130BD09F51BC
:10D18400A011D8A403D09569966912009FC0AAF093
:10D19400A0C0ABF0A8C060F0A9C061F0000E626F3F
:10D1A4000A0E636FAAC064F0ABC065F0AEECAEF0DB
:10D1B40025D0A205A311D8A428D0A8C060F0A9C086
:10D1C40061F0000E626F0A0E636F92ECACF060C007
:10D1D400AAF061C0ABF00001AA2903E1AB29D8B4DD
:10D1E40010D0A8C060F0A9C061F0000E626F0A0EF2
:10D1F400636FFF0E656F6469AEECAEF0010E000163
:10D20400A16FA207D8A0A30720D0A8C060F0A9C02E
:10D2140061F0000E626F0A0E636F92ECACF060C0B6
:10D22400AAF061C0ABF0A8C060F0A9C061F0000E24
:10D234000001626F0A0E636F000E656F000E646F6B
:10D24400AEECAEF0010E0001A16FA251A311D8A45F
:10D25400F9D6AB5104E1020EAA5DD8A006D0DA0ECD
:10D26400AA5D1F0EAB59D8A0EDD6A151D8B40AD0EF
:10D27400A6C07FF0A7C080F0000E816F0A0E826FF7
:10D2840083ECABF0000197519811D8B405D095C048
:10D2940095F096C096F01200000E966F000E956FF2
:10D2A400120000017B51800B886F7B517B258F6FAF
:10D2B4007ABF8F818F51D8B40DD08F29D8A408D0CC
:10D2C400000E786F000E796F000E7A6F000E7B6F80
:10D2D4007A8F06D0000E786F000E796F000E7A6F89
:10D2E400000E7B6F7F51800B881B7F517F25906FD1
:10D2F4007EBF90819051D8B40DD09029D8A408D085
:10D30400000E7C6F000E7D6F000E7E6F000E7F6F2F
:10D314007E8F06D0000E7C6F000E7D6F000E7E6F38
:10D32400000E7F6F7C517D117E117F11D8A417D020
:10D33400000E786F000E796F000E7A6F000E7B6F0F
:10D34400800E7A137F0E7B1388517B1378C078F09C
:10D3540079C079F07AC07AF07BC07BF012008F51EB
:10D36400D8A411D0000E786F000E796F000E7A6F7A
:10D37400000E7B6F78C078F079C079F07AC07AF0CB
:10D384007BC07BF012009051806F816B801F811FE6
:10D39400804B812B8F51826F836B80518227815107
:10D3A40083237F0E8225896F000E83218A6F78C0C4
:10D3B40084F079C085F07AC086F07BC087F0000ED7
:10D3C400786F000E796F000E7A6F000E7B6F000E7F
:10D3D4008B6F000E8C6F000E8D6F000E8E6F000E23
:10D3E400906F28D09051D8B411D0D8908437853715
:10D3F40086378737D890783779377A377B378EBF37
:10D404007881D8908B378C378D378E377C51845DFB
:10D414007D5185597E5186597F518759D8A009D0AD
:10D424008E8D7C51845F7D51855B7E51865B7F51FF
:10D43400875B902B190E9065D5D784518511861181
:10D444008711D8B411D08B810FD0D8907837793721
:10D454007A377B378EBF7881D8908B378C378D376E
:10D464008E378907D8A08A077AAFEFD7000E906F5E
:10D474008EAF16D0FF0E8B15806FFF0E8C15816F4B
:10D48400FF0E8D15826F7F0E8E15836F8051811173
:10D4940082118311D8A402D078A102D0010E906F1A
:10D4A4009051D8B41FD0010E7827000E79237A2327
:10D4B4007B237BA117D078C080F079C081F07AC03B
:10D4C40082F07BC083F083358333823381338033AE
:10D4D40080C078F081C079F082C07AF083C07BF09C
:10D4E400894B8A2B8ABF10D08A5103E18929D8A09D
:10D4F4000BD0000E8A6F8969000E786F000E796F69
:10D50400000E7A6F000E7B6F8ABF05D08A5111E13D
:10D514008905D8B00ED0000E8A6F000E896F000EF8
:10D52400786F000E796F000E7A6F000E7B6F000E1D
:10D53400886F89C08FF08FA102D07A8F01D07A9F33
:10D54400D8908F317B6F88517B1378C078F079C085
:10D5540079F07AC07AF07BC07BF012000D013205BD
:10D56400D8A411D030511F0B0009D8A40CD001014C
:10D574000C8F030E0D013119D8A402D0010E01D075
:10D58400000E0101626F0D013251D8A41200305116
:10D594001F0B020AD8A4120034510F0B0009D8B48F
:10D5A400120034510F0B186E030E18601200200E77
:10D5B4005D18D8A4120001010C8F0D0134BF19D0DD
:10D5C40034510F0B186E1850020D150EF324D96E3A
:10D5D400010EF420DA6EDECF1CF0DDCF1DF03451E5
:10D5E4000F0B186E1850010D2E0EF324D96E010E78
:10D5F40018D034510F0B186E1850020D0F0EF3246F
:10D60400D96E010EF420DA6EDECF1CF0DDCF1DF0F2
:10D6140034510F0B186E1850010D310EF324D96ECE
:10D62400010EF420DA6EDF501B6E1BB006D0FB0E29
:10D634001C141C6EFF0E1D1404D0040E1C101C6E52
:10D644001D501D6E34BF0AD034510F0B186E185084
:10D65400020D150EF324D96E010E09D034510F0BAF
:10D66400186E1850020D0F0EF324D96E010EF4201B
:10D67400DA6E1CC0DEFF1DC0DDFF030E3119D8A415
:10D684002DD01CC0D9FF1DC0DAFFDFAE1AD034BFC5
:10D694000AD034510F0B186E1850010D2E0EF324BE
:10D6A400D96E010E0AD00D0134510F0B186E1850AB
:10D6B400010D310EF324D96E010EF420DA6E01014E
:10D6C400DF821CC0D9FF1DC0DAFF000EDB841CC042
:10D6D400D9FF1DC0DAFF000EDB8E1200040E1C18E9
:10D6E4001C6E1D501D6E1CC0D9FF1DC0DAFFDFAEBD
:10D6F4001BD01CC0D9FF1DC0DAFF7F0EDF161CC073
:10D70400D9FF1DC0DAFF000EDB8C000E116E050E72
:10D71400106E1CC012F01DC013F0000E156E020E28
:10D72400146ECAECA1F006D01CC0D9FF1DC0DAFFEC
:10D73400000EDB8C040E1C181C6E1D501D6E1BB2DB
:10D7440006D01CC0D9FF1DC0DAFFDFAE30D00D01FA
:10D7540034BF0AD034510F0B186E1850010D2E0E21
:10D76400F324D96E010E0AD00D0134510F0B186E3B
:10D774001850010D310EF324D96E010EF420DA6E27
:10D784000101DF921CC0D9FF1DC0DAFF3B0EDF167A
:10D79400000E116E050E106E1CC012F01DC013F0A9
:10D7A400000E156E020E146ECAECA1F006D01CC059
:10D7B400D9FF1DC0DAFF3B0EDF160D0134510F0BEC
:10D7C400186E1850010D260EF324196E0F0EF42056
:10D7D4001A6E19C0D9FF1AC0DAFFFE0EDF16120046
:10D7E40098D0EB0E12003C0E1200900E12007F0E29
:10D7F400F66EA30EF76E000EF86E0800F5501200D8
:10D80400800EF66EA30EF76E000EF86E0800F5504B
:10D814001200810EF66EA30EF76E000EF86E08006D
:10D82400F5501200820EF66EA30EF76E000EF86E1F
:10D834000800F5501200830EF66EA30EF76E000E6C
:10D84400F86E0800F5501200840EF66EA30EF76E03
:10D85400000EF86E0800F5501200850EF66EA30E49
:10D86400F76E000EF86E0800F5501200860EF66E84
:10D87400A30EF76E000EF86E0800F5501200000EAD
:10D884001200020E1200010E1200010E1200000E10
:10D894001200010E1200400E1200000E1200FF0EC4
:10D8A40012001F0E1200F80E1200200E1200000EBD
:10D8B40012003F0E1200000E1200100E1200000E95
:10D8C4001200000E1200000E1200000E1200000ED4
:10D8D4001200010E1200000E1200220E1200000EA1
:10D8E4001200000E1200460E1200410E1200540ED9
:10D8F4001200310E1200360E1200200E1200200EFD
:10D904001200200E1200550E1200AA0E1200000E74
:10D91400120060C062F061C063F000016351000A4C
:10D92400D8B404D0010AD8B48DD0F1D76251000A1A
:10D93400D8B457D7010AD8B456D7030AD8B455D7A0
:10D94400010AD8B454D7070AD8B45AD7010AD8B4AC
:10D9540060D7030AD8B466D7010AD8B46CD70F0AC3
:10D96400D8B472D7010AD8B478D7030AD8B47ED70A
:10D97400010AD8B484D7070AD8B483D7010AD8B423
:10D9840082D7030AD8B481D7010AD8B480D71F0A32
:10D99400D8B47FD7010AD8B47ED7030AD8B47DD7C8
:10D9A400010AD8B47CD7070AD8B47BD7010AD8B403
:10D9B4007AD7030AD8B479D7010AD8B478D70F0A2A
:10D9C400D8B477D7010AD8B476D7030AD8B475D7B0
:10D9D400010AD8B474D7070AD8B473D7010AD8B4E3
:10D9E40072D7030AD8B471D7010AD8B470D7370AEA
:10D9F400D8B46FD7010AD8B46ED7050AD8B46DD796
:10DA0400010AD8B46CD7030AD8B46BD7010AD8B4C6
:10DA140068D7190AD8B467D7010AD8B466D70F0AE9
:10DA2400D8B465D7010AD8B464D7030AD8B463D785
:10DA3400010AD8B462D7070AD8B461D7010AD8B4A6
:10DA440060D765D76251FE0AD8B45DD7010AD8B44D
:10DA54005CD75DD7200E5D18D8A41200A0981CD105
:10DA6400010140514111D8B406D040C1D9FF41C190
:10DA7400DAFFDFBE20D1000E0001B16F1E0EB165CA
:10DA840001D014D0B151010D400EF324D96E0D0E06
:10DA9400F420DA6EB151010D000EF324E16E020E92
:10DAA400F420E26EDFCFE7FFB12BE8D7010120EECF
:10DAB40001F04051D9264151DA221F0EDE18D8A4B4
:10DAC40075D0550E0201001971E1530E01196EE172
:10DAD400420E02196BE1430E0319D8A467D0010E5C
:10DAE40001014F6F02010D51D8A453D0110E0E61E4
:10DAF40050D00E51D8B44DD00CC2ACF03F0E000142
:10DB0400AC17D8A446D0550E0D01806F530E816F0B
:10DB1400420E826F530E836F04C284FD05C285FDDD
:10DB240006C286FD07C287FD000E886F000E896F4E
:10DB3400000E8A6F000E8B6F000E8C6F0101566908
:10DB4400000E556F000E546F000E536F030E02014A
:10DB54000F19D8B408D02191219321952197000E53
:10DB64002B6F000E2C6F0CAF02D0010E01D0020EF1
:10DB74000101576F0201085109110A110B11D8B4A0
:10DB840002D0000E01D0010E0101506F0FC256F1F8
:10DB940092D0010E0001606F020E90EC8AF0000E2C
:10DBA4000001606F020E90EC8AF085D0010E000136
:10DBB400606F020E90EC8AF0000E0001606F020E9E
:10DBC40090EC8AF0000E01014F6F75D00EEC85F0D9
:10DBD400FF0AD8A470D011D00EEC85F0FF0AD8A4A7
:10DBE4006AD00D018C51D8A408D0885189118A11AA
:10DBF4008B11D8B402D0020E8C6F030E3ED013C129
:10DC0400ADF014C1AEF00001AD51AE11D8B40AD0DC
:10DC140013C1AFF014C1B0F0AFC0D9FFB0C0DAFF88
:10DC2400DFBE49D0010E606F800E616F0D0E626F12
:10DC34000D0E636F020E15EC8BF060C03EF161C0F7
:10DC44003FF1010140514111D8B406D040C1D9FF80
:10DC540041C1DAFFDFBE10D0000E0001606F400E3C
:10DC6400616F0D0E626F400E636F020E15EC8BF048
:10DC740060C040F161C041F1000E0101576F1BD03B
:10DC8400000E576F020E0D018C6F000E0001606FC5
:10DC9400020E90EC8AF00FD001015751000AD8B45B
:10DCA400DFD6010AD8B492D7030AD8B495D7010AAB
:10DCB400D8B4A5D7E5D7A08812000001B76FC30E6A
:10DCC40000018F6F000E906FB751CCECA3F00001F0
:10DCD400B86FB851D8A41200A151DF5DA251E05928
:10DCE400A351E159A451E259D8A01200A551A1258C
:10DCF400A96FA651A221AA6F000EA321AB6F000E3B
:10DD0400A421AC6FA951DF5DAA51E059AB51E1598F
:10DD1400AC51E259D8B00ED0A1C0A9F0A2C0AAF06B
:10DD2400A91FAA1FA94BAA2BDF51A925A56FE05152
:10DD3400AA21A66FDDC097F0DEC098F0A1C0A9F0BB
:10DD4400A2C0AAF0A3C0ABF0A4C0ACF00A0E05D0E8
:10DD5400D890AC33AB33AA33A933E82EF9D7A9C092
:10DD640099F0AAC09AF01BEC9DF097C0B9F098C046
:10DD7400BAF0000E0001A115BF6FFE0EA215C06F10
:10DD8400FF0EA315C16FFF0EA415C26FBFC0A9F08B
:10DD9400C0C0AAF0A91FAA1FA94BAA2BA151A9254B
:10DDA400BB6FA251AA21BC6F000EBF6F000EC06FE3
:10DDB400000EC16F000EC26F89D0020EBC19BB11D8
:10DDC400D8A40FD0B9C08FF0BAC090F008ECA9F075
:10DDD4008FC0B9F090C0BAF0000E0001BC6F000E05
:10DDE400BB6FB9C060F0BAC061F0F9ECB1F060C0CB
:10DDF400B5F061C0B6F0BBC0A9F0BCC0AAF0000188
:10DE0400A91FAA1FA94BAA2B000EA925BD6F020E9C
:10DE1400AA21BE6FBD51A96FBE51AA6FAB6BAC6B8B
:10DE2400BFC0ADF0C0C0AEF0C1C0AFF0C2C0B0F072
:10DE3400AD1FAE1FAF1FB01FAD2B000EAE23AF231F
:10DE4400B023A551AD25B16FA651AE21B26F000E1E
:10DE5400AF21B36F000EB021B46FA951B15DAA51C7
:10DE6400B259AB51B359AC51B459D8B00ED0BFC0AC
:10DE7400A9F0C0C0AAF0A91FAA1FA94BAA2BA5519B
:10DE8400A925BD6FA651AA21BE6FB5C07FF0B6C04B
:10DE940080F0BBC081F0BCC082F0BDC083F0BEC0C6
:10DEA40084F0BF51A725856FC051A821866F9DECD2
:10DEB400A5F00001BD51BF27BE51C023000EC123F0
:10DEC400000EC223BD51BB27BE51BC23A551A96F6F
:10DED400A651AA6FAB6BAC6BA951BF5DAA51C059D7
:10DEE400AB51C159AC51C259D8B0120066D7A1C0C8
:10DEF400AFF0A2C0B0F0A3C0B1F0A4C0B2F00A0E5B
:10DF040006D00001D890B233B133B033AF33E82E2A
:10DF1400F8D7AFC0C1F0B0C0C2F0ADC0D9FFAEC039
:10DF2400DAFFDE50C15DDE50C259D8B002D0FF0E18
:10DF34001200ABC0D9FFACC0DAFFDECF97F0DDCF63
:10DF440098F0ADC0D9FFAEC0DAFFDECFAFF0DDCFC1
:10DF5400B0F0AF1FB01FAF4BB02BC151AF25996FBD
:10DF6400C251B0219A6F1BEC9DF0ABC0D9FFACC07D
:10DF7400DAFF000197C0DEFF98C0DDFFADC0D9FF16
:10DF8400AEC0DAFFC1C0DEFFC2C0DDFFABC0D9FF47
:10DF9400ACC0DAFFDECFBDF0DDCFBEF0C1C0AFF064
:10DFA400C2C0B0F0090ED890AF37B037E82EFBD717
:10DFB400AFC0C5F0B0C0C6F0C76BC86BC5C0AFF08A
:10DFC400C6C0B0F0AF1FB01FAF4BB02BA151AF25EF
:10DFD400BF6FA251B021C06F000EC56F000EC66F97
:10DFE400000EC76F000EC86F89D0020EC019BF1192
:10DFF400D8A40FD0BDC08FF0BEC090F008ECA9F03B
:10E004008FC0BDF090C0BEF0000E0001C06F000EC6
:10E01400BF6FBDC060F0BEC061F0F9ECB1F060C08C
:10E02400BBF061C0BCF0BFC0AFF0C0C0B0F0000135
:10E03400AF1FB01FAF4BB02B000EAF25C36F020E46
:10E04400B021C46FC351AF6FC451B06FB16BB26B29
:10E05400C5C0B3F0C6C0B4F0C7C0B5F0C8C0B6F010
:10E06400B31FB41FB51FB61FB32B000EB423B523C3
:10E07400B623A551B325B76FA651B421B86FA751E4
:10E08400B521B96FA851B621BA6FAF51B75DB05180
:10E09400B859B151B959B251BA59D8B00ED0C5C056
:10E0A400AFF0C6C0B0F0AF1FB01FAF4BB02BA5513F
:10E0B400AF25C36FA651B021C46FBBC087F0BCC0ED
:10E0C40088F0BFC089F0C0C08AF0C3C08BF0C4C060
:10E0D4008CF0C551A9258D6FC651AA218E6FC1EC54
:10E0E400B0F00001C351C527C451C623000EC72395
:10E0F400000EC823C351BF27C451C023A551C55D19
:10E10400A651C659A751C759A851C859D8A06DD707
:10E11400000E1200AA0E0001706F000E716F9FC0F6
:10E1240072F0A0C073F0000E756F0A0E746F1FECCE
:10E13400ADF0AA0E0001606F000E616FC5ECADF08A
:10E1440000016051B46FA0AF54D0B4510008A125B0
:10E15400020FB56FB551800A7F0FD8A090D0A1C02F
:10E16400B6F0B629D8B442D0B651B5BF04D0FF0A30
:10E17400B525D8B02AD0B5C0A4F0A56BA4BFA50717
:10E18400A41FA51FA44BA52BB651A66FA76BA45122
:10E19400A627A551A723010EA627000EA723AA0E82
:10E1A400A625D96E000EA721DA6EB651A86FA96B09
:10E1B400010EA827000EA923AA0EA825E16E000EC1
:10E1C400A921E26EDFCFE7FF0FD0B651A46FA56B94
:10E1D400010EA427000EA523AA0EA425D96E000EB5
:10E1E400A521DA6E300EDF6EB607BBD7A151020F40
:10E1F40045D0B4510008A125A46FA429B56FB55129
:10E20400800A7F0FD8A03BD0A1C0B6F0B629D8B4FD
:10E2140034D0B651B5BF04D0FF0AB525D8B021D04B
:10E22400B5C0A4F0A56BA4BFA507A41FA51FA44B4C
:10E23400A52BB651A66FA76BA451A627A551A7235A
:10E24400AA0EA625D96E000EA721DA6EB651010DCD
:10E25400AA0EF324E16E000EF420E26EDFCFE7FF96
:10E264000AD0B651010DAA0EF324D96E000EF42083
:10E27400DA6E300EDF6EB607C9D7A129B46FA1518B
:10E284000008B425A46FA405A16F000EB66F23D0B7
:10E29400B651010DAA0EF324D96E000EF420DA6EE5
:10E2A400B651010DF350A225E16EF450A321E26EA4
:10E2B400DFCFE7FFA151B619D8A40CD0B62BB651C5
:10E2C400010DF350A225D96EF450A321DA6E2E0E5F
:10E2D400DF6E1ED0B62BB451B65DD8B019D0D8D7E6
:10E2E400B651010DAA0EF324D96E000EF420DA6E95
:10E2F400B651A46FA56B010EA427000EA523A4514B
:10E30400A225E16EA551A321E26EDFCFE7FFB62B74
:10E31400B451B65DD8A0E4D7B651A46FA56B010E75
:10E32400A427000EA523A451A225D96EA551A3218B
:10E33400DA6E000EDF6E12006BC0D9FF6CC0DAFF1C
:10E34400100EDF6E000120EE01F06B51D9266C51E6
:10E35400DA22BC0EDF6E20EE02F06B51D9266C512E
:10E36400DA22260EDF6E20EE03F06B51D9266C51B3
:10E37400DA22000EDF6E20EE04F06B51D9266C51C8
:10E38400DA22060EDF6E20EE05F06B51D9266C51B1
:10E39400DA22060EDF6E20EE06F06B51D9266C51A0
:10E3A400DA2264C1DFFF20EE07F06B51D9266C51ED
:10E3B400DA2265C1DFFF20EE08F06B51D9266C51DB
:10E3C400DA2266C1DFFF20EE09F06B51D9266C51C9
:10E3D400DA2267C1DFFF20EE0AF06B51D9266C51B7
:10E3E400DA2268C1DFFF20EE0BF06B51D9266C51A5
:10E3F400DA2269C1DFFF20EE0CF06B51D9266C5193
:10E40400DA226AC1DFFF0D0E6B25606F000E6C21EE
:10E41400616F6B0E626F010E636F000E656F040E09
:10E42400646F9AECA7F0110E00016B25606F000E6B
:10E434006C21616F710E626F010E636F000E656F68
:10E44400040E646F9AECA7F0000120EE15F06B51F6
:10E45400D9266C51DA2273C1DFFF20EE16F06B511E
:10E46400D9266C51DA228BC1DFFF20EE17F06B51F5
:10E47400D9266C51DA228CC1DFFF20EE18F06B51E3
:10E48400D9266C51DA2201018D51DF6E000120EE94
:10E4940019F06B51D9266C51DA228EC1DFFF20EEC0
:10E4A4001AF06B51D9266C51DA2201018F51DF6EBB
:10E4B400000120EE1BF06B51D9266C51DA2293C176
:10E4C400DFFF20EE1CF06B51D9266C51DA2294C187
:10E4D400DFFF20EE1DF06B51D9266C51DA2274C196
:10E4E400DFFF20EE1EF06B51D9266C51DA2288C171
:10E4F400DFFF20EE1FF06B51D9266C51DA220101A7
:10E504008951DF6E000120EE20F06B51D9266C5149
:10E51400DA226FC1DFFF20EE21F06B51D9266C5156
:10E52400DA2201017051DF6E000120EE22F06B51FE
:10E53400D9266C51DA22BDC1DFFF2A0E6B25606F2C
:10E54400000E6C21616F950E626F010E636F000EF9
:10E55400656F160E646F9AECA7F01200F4D00101F7
:10E564006805D8A402D0620E736F6751800A7F0FCA
:10E57400D8A002D0520E736F67AF1BD0520E0FD0CB
:10E584006805D8A402D0030E736F6751800A7F0F09
:10E59400D8A002D0510E736F67AF0BD0510E736FBA
:10E5A40008D001017351510AD8B4D9D7030AD8B499
:10E5B400E7D76A05D8A40AD07FC160F080C161F0B2
:10E5C400F7ECA4F060C07FF161C080F101016951F2
:10E5D400800A7F0FD8A01CD07F51812780518223CD
:10E5E400000E8323000E842384BF12D0845108E1DB
:10E5F400A10E815D860E8259010E8359D8A008D0E0
:10E60400A00E816F860E826F010E836F000E846FE1
:10E6140069AF12007F510001996F0101805100011F
:10E624009A6F9B6B9C6B99510101815F00019A5118
:10E634000101825B00019B510101835B00019C513C
:10E644000101845B84BF07D084518311821102E1EC
:10E654008105D8B01200010E816F000E826F000E8A
:10E66400836F000E846F120001016751800A7F0FCF
:10E67400D8A011D0A451855DA5518659D8B002D037
:10E68400854B862B7451D8B406D085C160F086C101
:10E6940061F047ECB2F0010167AF49D085519E5D4E
:10E6A40086519F59D8B003D08507D8A086077451E6
:10E6B400D8B43DD085C160F086C161F047ECB2F0BA
:10E6C40036D001016A05D8A406D0FF0E63EC91F0A0
:10E6D400620E0101736F6951800A7F0FD8A0120086
:10E6E400620E736F12006A05D8A407D07451D8A4BF
:10E6F400ABECABF0030E0101736F6951800A7F0F1D
:10E70400D8A002D0630E736F69AF1200610E736FED
:10E7140012006A05D8A406D0010E63EC91F0620ED3
:10E724000101736F69AF1200620E736F1200010171
:10E734007351610AD8B4C5D7030AD8B4D4D7010A2F
:10E74400D8A41200E6D701017351F00B0001996FB0
:10E754009A6B9A51000AD8A412009951500AD8B45D
:10E7640020D7300AD8A412007FD7E5D0010168056C
:10E77400D8A40ED0000E6B6F000E6C6F000E6D6F80
:10E78400000E6E6F000E7C6F000E7B6F210E736F98
:10E794006751800A7F0FD8A002D0120E736F67AF43
:10E7A4001BD0120E0FD06805D8A402D0010E736FCF
:10E7B4006751800A7F0FD8A002D0110E736F67AF24
:10E7C4000BD0110E736F08D001017351110AD8B424
:10E7D400CDD7030AD8B4E7D76A05D8A40AD075C13F
:10E7E40060F076C161F0BFECA4F060C075F161C067
:10E7F40076F101016951800A7F0FD8A010D07451BD
:10E80400D8A40DD075C199F076C19AF0FF0E00011D
:10E814009C6F9B69010E9D6F010E48ECACF00101E9
:10E8240069AF12007451D8A4120075C199F076C171
:10E834009AF0FF0E00019C6F9B69010E9D6FFF0E05
:10E8440048ECACF0120001016805D8B403D06A05A5
:10E85400D8A403D0FF0EE4ECADF069C1A3F000012D
:10E86400A46BA3BFA40767C1A5F0A66BA5BFA607A9
:10E87400A351A527A451A623A6BF08D0A65103E1FE
:10E88400A505D8A003D0220E0101736F69C1A3F0BE
:10E894000001A46BA3BFA40767C1A5F0A66BA5BF25
:10E8A400A607A351A527A451A623A6AF1200220EA2
:10E8B4000101736F12006805D8B403D06A05D8A4A7
:10E8C40003D0010EE4ECADF069C1A3F00001A46B28
:10E8D400A3BFA40767C1A5F0A66BA5BFA607A35154
:10E8E400A527A451A623A6BF08D0A65103E1A505D8
:10E8F400D8A003D0210E0101736F69C1A3F00001F8
:10E90400A46BA3BFA40767C1A5F0A66BA5BFA60708
:10E91400A351A527A451A623A6AF1200210E0101DD
:10E92400736F120001017351210AD8B48CD7030A02
:10E93400D8A41200C0D701017351F00B0001A36FDA
:10E94400A46BA451000AD8A41200A351100AD8B48D
:10E954003BD7300AD8A41200E5D7DFD011C226F184
:10E9640012C225F113C224F114C223F116C23BF1E1
:10E9740017C23AF13A510001956F01013B51000170
:10E98400966F976B986B090ED89095379637973793
:10E994009837E82EF9D795C06AF096C06BF097C007
:10E9A4006CF098C06DF0E8EC87F00009D8A4C7D0EB
:10E9B400010E0101556F3A513B11D8A402D0000E4B
:10E9C4004AD03A07D8A03B07020E556F3E513F117B
:10E9D400D8B406D03EC1D9FF3FC1DAFFDFBEAFD005
:10E9E400B3C28BF0B4C28CF023C18DF024C18EF07D
:10E9F40025C18FF026C190F0000E0001916F060E24
:10EA0400926F22EEAAF001D80AD00500FA6EDE5009
:10EA1400FD6EDE50FE6EDE50FF6EFA501200E80608
:10EA2400D8B41BD0640E0101536102D0532B87D09C
:10EA3400020E0D018C6F02012151F00B0309216FAD
:10EA4400000E2B6F000E2C6F010E0001606F020E82
:10EA540090EC8AF05FD0556F72D0010E010123272C
:10EA6400000E242325232623000E0D01886F020E99
:10EA7400896F000E8A6F000E8B6F000E0101426FCA
:10EA8400060E436F030E556F0D01885189118A11CB
:10EA94008B11D8A402D0010E3ED0040E0101556F93
:10EAA4003E513F11D8B406D03EC1D9FF3FC1DAFF71
:10EAB400DFBE45D0010E0001606F42C161F043C169
:10EAC40062F0400E636F020E15EC8BF060C03EF1F5
