:020000040000FA
:0490000047EF48F0FE
:109008005F82FACF45F0FBCF46F0E9CF47F0EACFD1
:1090180048F0E1CF49F0E2CF4AF0D9CF4BF0DACFB0
:109028004CF0F3CF4DF0F4CF4EF0F6CF4FF0F7CF32
:1090380050F0F8CF51F0F5CF52F034EC80F09EB2FA
:10904800FBEC5BF0F2B4B6ECABF052C0F5FF51C0EC
:10905800F8FF50C0F7FF4FC0F6FF4EC0F4FF4DC0F9
:10906800F3FF4CC0DAFF4BC0D9FF4AC0E2FF49C04A
:10907800E1FF48C0EAFF47C0E9FF46C0FBFF45C023
:10908800FAFF5F92110048EF9DF00008000C0010F5
:10909800001300160019001C001E002100230026E2
:1090A8000028002A002C002E003000320034003640
:1090B8000038003A003C003D003F004100430045B5
:1090C800004600480049004B004D004E005000513A
:1090D80000530054005600570059005A005C005DC8
:1090E800005F00600062006300640066006700695A
:1090F800006A006C006D006E0070007100720073F1
:109108000074007600780079007A007B007D007E8C
:10911800007F008200850087008A008C008F009104
:10912800009200940098009A009C009E00A100A361
:1091380000A500A700AA00AC00AF00B200B400B7B9
:1091480000B800BA00BC00BE00C000C300C400C61E
:1091580000C800CA00CC00CE00D000D200D400D68F
:1091680000D800D900DB00DD00DF00E100E200E507
:1091780000E700E800EA00EC00EE00EF00F200F380
:1091880000F500F700F800FB00FD000001030104F2
:109198000107010A010C010F01120114011701193D
:1091A800011C011E0121012301250129012B012C8C
:1091B800012E0132013401360138013B013D013FE6
:1091C800014301460148014A014C014F0151015434
:1091D80001560159015B015E016001630166016985
:1091E800016B016E017101740177017A017D0180C3
:1091F80001830187018A018D019101940198019BE6
:10920800019F01A301A601AA01AE01B201B601BAEC
:1092180001BE01C301C701CC01D001D501D901DECE
:1092280001E301E801ED01F301F801FE0103020980
:10923800020F0215021B02210227022E0235023CF0
:109248000243024A0251025902610269027102791B
:109258000282028B0294029E02A702B102BC02C6DD
:1092680002D102DC02DC02DF02E202E502E802EBE4
:1092780002EE02F102F402F702FA02FD0200030410
:109288000307030A030D031103140317031A031E2C
:10929800032103250328032C032F03330336033A42
:1092A800033E034103450349034D03500354035848
:1092B800035C036003640368036C0370037403793D
:1092C800037D03810385038A038E03930397039C1D
:1092D80003A003A503AA03AE03B303B803BD03C2E7
:1092E80003C603CC03D103D603DB03E003E503EB9A
:1092F80003F003F603FB03010406040C041204172D
:10930800041D04230429042F0436043C04420448A1
:10931800044F0455045C0463046A04700477047EF3
:109328000485048D0494049B04A304AA04B204BA1B
:1093380004C204C904D204DA04E204EA04F304FC13
:109348000404050D0516051F05280532053B0545CE
:10935800054F05590563056D05770582058C059749
:1093680005A205AD05B905C405D005DC05E805F479
:109378000501060E061A0628063506430650065E3F
:10938800066D067B068A069906A906B806C806D899
:1093980006E906FA060B071C072E0740075307665F
:1093A8000779078D07A107B607CB07E007F6070C73
:1093B8000823083B0853086B0884089E08B808D39C
:1093C80008EF080B092809450964098309A309C49A
:1093D80009E609080A2C0A510A770A9D0AC50AEF04
:1093E8000A190B450B720B720B7D0B890B940BA0A2
:1093F8000BAC0BB80BC40BD00BDC0BE90BF50B0259
:109408000C0E0C1B0C280C350C420C4F0C5D0C6A16
:109418000C770C850C930CA10CAF0CBD0CCB0CD9A4
:109428000CE80CF70C050D140D230D320D420D51EF
:109438000D610D700D800D900DA00DB10DC10DD2F7
:109448000DE30DF30D050E160E270E390E4B0E5CAF
:109458000E6F0E810E930EA60E010002000300048B
:1094680000050006000700080009000A000B000CB0
:10947800000D000E000F0010001100120013001460
:1094880000150016001700180019001A001B001C10
:10949800001D001E001F00200021002200230024C0
:1094A80000250026002700280029002A002B002C70
:1094B800002D002E002F0030003100320033003420
:1094C80000350036003700380039003A003B003CD0
:1094D800003D003E003F004000410042004300457F
:1094E80000470049004B004D004F00510053005504
:1094F80000570059005B005D005F00610063006574
:1095080000670069006B006E0070007300750077DB
:109518000079007B007D007F008100830085008743
:109528000089008B008D008F0091009300950097B3
:109538000099009B009D009F00A100A300A500A723
:1095480000A900AB00AD00AF00B100B300B500B793
:1095580000B900BB00BD00C000C300C600C900CCF4
:1095680000CF00D200D500D800DB00DE00E100E427
:1095780000E700EA00ED00F000F300F600F900FC57
:1095880000FF000201050108010B010E0111011481
:109598000117011A011D012001230126012A012DAD
:1095A800013001330137013A013E014201450149C9
:1095B800014D015101550159015D01610166016AC1
:1095C800016E01730178017D01820187018C01918F
:1095D8000196019C01A101A701AD01B301B901BF29
:1095E80001C601CC01D301DA01E101E801F001F77C
:1095F80001FF0107020F02180221022A0233023D6D
:1096080002470251025C02670272027E028A0297D6
:1096180002A402B202C002CF02DF02EF02FF02116F
:10962800032303360349035E0373038903A103B9C4
:1096380003D303DD03E403EA03F103F803FF03069E
:10964800040D0415041C0424042B0433043B0442B5
:10965800044A0452045A0463046B0474047C0485A9
:10966800048E0496049F04A904B204BB04C504CE66
:1096780004D804E204EC04F60400050B05150520E3
:10968800052B05360541054C05580564056F057B16
:109698000587059405A005AD05BA05C705D405E2FB
:1096A80005EF05FD050B061906280637064606557B
:1096B800066406740684069406A406B506C606D78C
:1096C80006E906FA060C071F073107440758076B17
:1096D800077F079307A807BD07D207E807FE071506
:1096E800082C0843085B0873088B08A508BE08D82F
:1096F80008F2080D092909450961097E099C09BA7A
:1097080009D909F909190A390A5B0A7D0A9F0AC3A6
:109718000AE70A0C0B310B580B7F0BA70BD00BFA7F
:109728000B250C510C7E0CAB0CDA0C0A0D3B0D6DA5
:109738000DA00DD40D0A0E410E790EB30EEE0E2AB1
:109748000F680FA80FE90F2C107010B610FE104804
:10975800119411E21132128512D91230138913E5CE
:10976800134414A51409157015DA154716B8162BE5
:1097780017A3171E189D182119A819341AC41A5AA4
:109788001BF41B941C391DE41D951E4C1F0A20CE8A
:10979800209A216E224A232E241B25122612271DC9
:1097A800283229532A812BBB2C032E5A2FC030363E
:1097B80032BD335735F5356136CD363B37AA371BC1
:1097C800388C3800397439EA39623ADB3A553BD17A
:1097D8003B4E3CCD3C4E3DD03D543EDA3E613FEAE7
:1097E8003F744001418F411F42B1424543DB4373FF
:1097F800440D45A9454746E74689472E48D5487E42
:1098080049294AD74A874B3A4CEF4CA64D614E1E20
:109818004FDD4FA05065512D52F852C65397546BE7
:109828005542561C57FA570C070504040303030254
:10983800020202020201010101010101010101010B
:109848000101010101010101010101010101010100
:1098580001010101010101010101010101010101F0
:1098680001010101010101010101010101010101E0
:1098780001010101010101010101010101010101D0
:1098880001010000000000000000000000000000CE
:1098980000000000000000000000000000000000C0
:1098A80000000000000000000000000000000000B0
:1098B80000000000000000000000000000000000A0
:1098C8000000000000000000000000000000000090
:1098D8000000000000000000000000000000000080
:1098E8000000000000000000000000000000000070
:1098F8000000000000000000000000000000000060
:10990800000000000000000000000000000000004F
:10991800000000000000000000000000000000003F
:10992800000000000000000000000000000000002F
:10993800000000000000000000000000000000001F
:10994800000000000000000000000000000000000F
:1099580000000000000000000000000000000000FF
:1099680000000000000000000000000000000000EF
:1099780000000000000000000000000000000000DF
:1099880000000000000000000000000000000000CF
:1099980000000000000000000000000000000000BF
:1099A80000000000000000000000000000000000AF
:1099B800000000000000000000000000000000009F
:1099C800000000000000000000000000000000008F
:1099D800000000000000000000000000000000007F
:1099E800000000000000000000000000000000006F
:1099F800000000000000000000000000000000005F
:109A08000000000000000000000000000000ECF270
:109A1800F6F4D2E8D2C0ECDCCFC3B9B0FCF2E8DF90
:109A2800D7D0CAC3BEB8B3AFAAA6A29F9B98959237
:109A38008F8C8A878583817F7D7B79777574727136
:109A48006F6E6C6B6A68676665646261605F5E5DB5
:109A58005C5B595756545351504F4E4C4B4A4948EA
:109A680047464544434241403FFEFBF8F6F3F0EEDB
:109A7800ECE9E7E5E3E0DEDCDAD8D7D5D3D1CFCE21
:109A8800CCCAC9C7C6C4C3C1C0BEBDBCBAB8B6B4C7
:109A9800B3B1AFAEACAAA9A7A6A4A3A1A09F9D9C51
:109AA8009B9A98979695949392908F8E8D8C8B8A8B
:109AB800898887868584838281807F7E7D7C7B7A86
:109AC800797877767574737271706F6E6D6C6B6A76
:109AD800696867666564636261605F5E5D5C5B5A66
:109AE800595857565554535251504F4E4D4C4B4A56
:109AF800494847464544434241403FFFFEFDFCFB81
:109B0800FAF9F8F7F6F5F4F3F2F1F0EFEEEDECEB25
:109B1800EAE9E8E7E6E5E4E3E2E1E0DFDEDDDCDB15
:109B2800DAD9D8D7D6D5D4D3D2D1D0CFCECDCCCB05
:109B3800CAC9C8C7C6C5C4C3C2C1C0BFBEBDBCBBF5
:109B4800BAB9B8B7B6B5B4B3B2B1B0AFAEADACABE5
:109B5800AAA9A8A7A6A5A4A3A2A1A09F9E9D9C9BD5
:109B68009A999897969594939291908F8E8D8C8BC5
:109B78008A898887868584838281807F7E7D7C7BB5
:109B88007A797877767574737271706F6E6D6C6BA5
:109B98006A696867666564636261605F5E5D5C5B95
:109BA8005A595857565554535251504F4E4D4C4B85
:109BB8004A494847464544434241403FFFFEFDFC71
:109BC800FBFAF9F8F7F6F5F4F3F2F1F0EFEEEDEC55
:109BD800EBEAE9E8E7E6E5E4E3E2E1E0DFDEDDDC45
:109BE800DBDAD9D8D7D6D5D4D3D2D1D0CFCECDCC35
:109BF800CBCAC9C8C702020202020202020202025A
:109C0800020202020202020202020202020202022C
:109C1800020202020202020202020202020202021C
:109C2800020202020202020202020202020202020C
:109C380002020202020202020202020202020202FC
:109C480002020202020202020202020202020202EC
:109C580002020202020202020202020202020202DC
:109C680002020202020202020202020202020202CC
:109C780002020202020202020202020202020202BC
:109C880002020202020202020202020202020202AC
:109C9800020202020202020202020202020202029C
:109CA800020202020202020202020202020202028C
:109CB800020202020202020202020202020202027C
:109CC800020202020202020202020202020202026C
:109CD800020202020202020202020202020202025C
:109CE800020201010101010101010101010101015A
:109CF800010101010101010101010101010101014C
:109D0800010101010101010101010101010101013B
:109D1800010101010101010101010101010101012B
:109D2800010101010101010101010101010101011B
:109D3800010101010101010101010101010101010B
:109D480001010101010101010101010101010101FB
:109D580001010101010101010101010101010101EB
:109D680001010101010101010101010101010101DB
:109D780001010101010101010101010101010101CB
:109D880001010101010101010101010101010101BB
:109D980001010101010101010101010101010101AB
:109DA80001010100000000000000000000000000A8
:109DB800000000000000000000000000000000009B
:109DC800000000000000000000000000000000008B
:109DD800000000000000000000000000FAA2FEA041
:109DE80032A1A1A1BEA04D616E75616C204D6F645A
:109DF8006520202020202020202043757272656E67
:109E08007420706F733A2020202020202001547580
:109E1800726E2043435720002053706565642020EC
:109E280020205374617274202020200020202020DC
:109E380020202020202052657475726E20746F20B7
:109E48005A65726F3F202020202043757272656E1C
:109E58007420706F733A202020202020202020209A
:109E680020202020202020202020202020202020EA
:109E78002020205965732020202020202020202009
:109E880020204E6F20204172633A2053697A653D45
:109E98002020202020202020202043757272656E0B
:109EA8007420706F733A20202020202020015475E0
:109EB800726E20434357200020537065656420204C
:109EC800202053746172742020202000202020203C
:109ED8002020202020204172633A2053657420619D
:109EE80072632073697A6520202041726320736948
:109EF8007A653A202020202020202020202053741A
:109F080065702073697A6520002020436F6E66694A
:109F1800726D202020202020202020200020204397
:109F2800616E63656C204469766964653A20202017
:109F380020202020202020202020506F733A20202D
:109F480020202020202020202020202020204A758A
:109F58006D702073697A653A202020202020202007
:109F680020205072657373546F4A756D70200020FD
:109F780043616E63656C4469766964653A2053652C
:109F880074206469766973696F6E20202020202010
:109F980020202020202020202020202020202020B9
:109FA800202F737465702020002020436F6E66692F
:109FB800726D3132333420202020202000202043AD
:109FC800616E63656C2053657475703A20536574CF
:109FD80020646972656374696F6E202020202020D8
:109FE8002020202020202020202020202020204346
:109FF8006F756E746572436C6F636B7769736520F8
:10A00800202020436C6F636B7769736520202020C4
:10A0180020202020202053657475703A20536574E1
:10A02800207A65726F20706F732E202020202020E8
:10A038002020202020202020202020202020537491
:10A0480065702073697A6520002020436F6E666909
:10A05800726D20782E78780120202020002020435F
:10A06800616E63656C204D61696E204D656E753A51
:10A078002020202020202020202020536574757067
:10A088002020202044697669646520202020204112
:10A0980072632020202020204D616E75616C202085
:10A0A800202020476F325A65726F20202020202000
:10A0B80020202020202009024000020100C032098F
:10A0C8000400000203000000092111010001221D03
:10A0D800000705810340000107050103400001094D
:10A0E800040100020806500007058202400001072B
:10A0F800050202400001340353006F006C00640045
:10A10800650072006E006500720064002E00630036
:10A118006F006D002000200020002000200020009B
:10A12800200020002000200020002E03530074008F
:10A13800650070007000650072004D006F007400CB
:10A148006F00720043006F006E00740072006F00B1
:10A158006C006C00650072000080040220000000A2
:10A168004D6963726F6368704D6173732053746FC8
:10A178007261676520202020303030310600FF09E9
:10A1880001A10119012940150026FF007508954015
:10A198008100190129409100C01A033100320033AF
:10A1A80000340035003600370038003900300039F7
:10A1B8000039004F56455253484F4F545F434F5351
:10A1C800545F494E5F535445505300504F534954C0
:10A1D800494F4E5F444953504C41595F3138300024
:10A1E8004D4158494D554D5F53504545445F4D418C
:10A1F8004E55414C00494E495449414C5F535045D6
:10A2080045445F4D414E55414C0046554C4C5F43CB
:10A218004952434C455F494E5F5354455053004F94
:10A2280056455253484F4F545F494E5F535445501B
:10A2380053004D4158494D554D5F53504545445F76
:10A2480041524300494E495449414C5F535045459A
:10A25800445F41524300494E56455253455F444975
:10A2680052454354494F4E001201000200000008B5
:10A27800D804CFED0001010200015553455F434367
:10A28800575F4C494D495400424545505F4455522B
:10A298004154494F4E004D4158494D554D5F53501B
:10A2A800454544004D494E494D554D5F5350454530
:10A2B80044005553455F43575F4C494D495400434B
:10A2C80043575F4C494D49540043575F4C494D49EA
:10A2D80054000A000E010F110F00181800000000AA
:10A2E800000004040404040404043D2A80A73D2A51
:10A2F80080A60403090468656C6C6F20776F726C24
:10A30800642100537465707065724374726C004602
:10A31800494C4520202020004D53444F53352E30C2
:10A328000020202020202020200043616E63656CDF
:10A338000053746F7020005458540000AAEF57F06F
:10A34800440E0001606F020E616F6E0E626FA00E08
:10A35800636F000E656F500E646FADECA4F00FD004
:10A368003E0E0201586FD8EF57F03E0E0201616FA2
:10A37800D8EF57F03E0E0201756FD8EF57F0010184
:10A388007351010AD8B4ECD7030AD8B4EED7010A3E
:10A39800D8B467D0070AD8B4EDD7010A72D0440EF2
:10A3A8000001606F020E616F1E0E626FA00E636F78
:10A3B800000E656F500E646FADECA4F075C19FF090
:10A3C80076C1A0F0020E0001A16FC80EA26F000EA8
:10A3D800A36F4AEC72F0E80E0101755D030E765921
:10A3E800D8A002D0000E01D0010E0001D26F000EDD
:10A3F800D36F18D0D351010DC80EF324D96E000EB7
:10A40800F420DA6ED351D2C0C6F0C76BC627000E4F
:10A41800C723800EC625E16E020EC721E26EDFCF8C
:10A42800E7FFD32BD351010DC80EF324D96E000ECC
:10A43800F420DA6EDF50D8A4DDD701017351110A78
:10A448008ED0440E0001606F020E616FCE0E626FF7
:10A458009F0E636F000E656F500E646FADECA4F035
:10A468000AD03E0E02016C6FD8EF57F03E0E020183
:10A47800806FD8EF57F001017351210AD8B4F1D792
:10A48800030AD8B4F3D7D8EF57F0440E0001606F31
:10A49800020E616F7E0E626F9F0E636F000E656F16
:10A4A800500E646FADECA4F07AC178F00001796BBE
:10A4B800030E7A6FC80E7B6F000E7C6FC3EC90F0B2
:10A4C800000E0001D36F020ED36501D014D0D35112
:10A4D800010DC80EF324D96E000EF420DA6ED351A4
:10A4E800010D6C0EF324E16E020EF420E26EDFCF54
:10A4F800E7FFD32BE8D778C178F079C179F0040E5B
:10A508007A6FC80E7B6F000E7C6FC3EC90F0000E64
:10A518000001D36F030ED36501D01ED0D351010DB6
:10A52800C80EF324D96E000EF420DA6ED351010D53
:10A53800800EF324E16E020EF420E26EDFCFE7FF17
:10A54800D32BE8D73E0E0201786FD8EF57F03E0EB6
:10A5580002018C6FD8EF57F001017351310AD8B45A
:10A56800F1D7030AD8B4F3D7D8EF57F0440E000157
:10A57800606F020E616F2E0E626F9F0E636F000E8A
:10A58800656F500E646FADECA4F078C178F079C1B6
:10A5980079F0000E00017A6FC80E7B6F000E7C6F99
:10A5A800C3EC90F0000E0001D36F18D0D351010D09
:10A5B800C80EF324D96E000EF420DA6ED351C66F9C
:10A5C800C76B080EC627000EC723440EC625E16ECA
:10A5D800020EC721E26EDFCFE7FFD32BD351010D67
:10A5E800C80EF324D96E000EF420DA6EDF50D8A41A
:10A5F800DDD7D351C66FC76B080EC627000EC72319
:10A60800440EC625D96E020EC721DA6E2C0EDF6EF7
:10A6180001017729D8A424D00001D351C66FC76B94
:10A628000A0EC627000EC723440EC625D96E020E91
:10A63800C721DA6E430EDF6ED351C66FC76B0B0EA0
:10A64800C627000EC723440EC625D96E020EC721A1
:10A65800DA6E430EDF6ED351C66FC76B0C0E14D083
:10A668000001D351C66FC76B0A0EC627000EC72359
:10A67800440EC625D96E020EC721DA6E430EDF6E70
:10A68800D351C66FC76B0B0EC627000EC723440EE7
:10A69800C625D96E020EC721DA6E570EDF6E7BC152
:10A6A80078F07CC179F0000E7A6FC80E7B6F000ECF
:10A6B8007C6FC3EC90F0000E0001D36F18D0D3511B
:10A6C800010DC80EF324D96E000EF420DA6ED351B2
:10A6D800C66FC76B050EC627000EC723580EC625C2
:10A6E800E16E020EC721E26EDFCFE7FFD32BD35115
:10A6F800010DC80EF324D96E000EF420DA6EDF5077
:10A70800D8A4DDD7D351C66FC76B060EC627000E77
:10A71800C723580EC625D96E020EC721DA6E280E39
:10A72800DF6ED351070FD26F1FECA9F060C0B7F0EE
:10A7380061C0B8F062C0B9F063C0BAF0020E00019F
:10A74800BB6FC80EBC6F000EBD6FEDEC87F0000E3E
:10A758000001D36F18D0D351010DC80EF324D96E60
:10A76800000EF420DA6ED251D3C0C6F0C76BC627EC
:10A77800000EC723580EC625E16E020EC721E26EF1
:10A78800DFCFE7FFD32BD351010DC80EF324D96EC9
:10A79800000EF420DA6EDF50D8A4DDD7D251D3C032
:10A7A800C6F0C76BC627000EC723580EC625D96E3C
:10A7B800020EC721DA6E010EDF6ED251D3C0C6F089
:10A7C800C76BC627000EC723010EC627000EC72376
:10A7D800580EC625D96E020EC721DA6E290EDF6E15
:10A7E8007DC18FF07EC190F0C80E916F000E926F00
:10A7F80076ECAAF0000E0001D36F18D0D351010DEA
:10A80800C80EF324D96E000EF420DA6ED351C66F49
:10A81800C76B0B0EC627000EC7236C0EC625E16E4C
:10A82800020EC721E26EDFCFE7FFD32BD351010D14
:10A83800C80EF324D96E000EF420DA6EDF50D8B4B7
:10A84800B3D3DCD7440E606F020E616FDE0E626F09
:10A858009E0E636F000E656F500E646FADECA4F032
:10A8680008D03E0E0201786F0CD03E0E02018C6FAC
:10A8780008D001017351510AD8B4F3D7030AD8B4E8
:10A88800F4D781C1B7F082C1B8F083C1B9F084C1EF
:10A89800BAF0020E0001BB6FC80EBC6F000EBD6F90
:10A8A800EDEC87F0000E0001D36F18D0D351010DE5
:10A8B800C80EF324D96E000EF420DA6ED351C66F99
:10A8C800C76B0A0EC627000EC723580EC625E16EB1
:10A8D800020EC721E26EDFCFE7FFD32BD351010D64
:10A8E800C80EF324D96E000EF420DA6EDF50D8A417
:10A8F800DDD7D351C66FC76B0A0EC627000EC72314
:10A90800580EC625D96E020EC721DA6E010EDF6E0B
:10A918007FC19FF080C1A0F0020EA16FC80EA26F88
:10A92800000EA36F4AEC72F0E80E01017F5D030E82
:10A938008059D8A002D0000E01D0010E0001D26FBC
:10A94800000ED36F18D0D351010DC80EF324D96E61
:10A95800000EF420DA6ED351D2C0C6F0C76BC627FA
:10A96800000EC723800EC625E16E020EC721E26ED7
:10A97800DFCFE7FFD32BD351010DC80EF324D96ED7
:10A98800000EF420DA6EDF50D8A4DDD7D351D2C040
:10A99800C6F0C76BC627000EC723800EC625D96E22
:10A9A800020EC721DA6E010E68D2440E606F020EE5
:10A9B800616F8E0E626F9E0E636F000E656F500E94
:10A9C800646FADECA4F025D0570E0201726F200E13
:10A9D800736F27D06C0E0001606F020E616F290E35
:10A9E800626FA30E636F000E656F080E646FADECA7
:10A9F800A4F0800E0001606F020E616F320E626F6C
:10AA0800A30E636F000E656F060E646FADECA4F0C5
:10AA180008D001017351620AD8B4DCD7010AD8B44E
:10AA2800D3D781C1B7F082C1B8F083C1B9F084C16E
:10AA3800BAF0020E0001BB6FC80EBC6F000EBD6FEE
:10AA4800EDEC87F0000E0001D36F18D0D351010D43
:10AA5800C80EF324D96E000EF420DA6ED351C66FF7
:10AA6800C76B0A0EC627000EC723440EC625E16E23
:10AA7800020EC721E26EDFCFE7FFD32BD351010DC2
:10AA8800C80EF324D96E000EF420DA6EDF50D8A475
:10AA9800DDD7D351C66FC76B0A0EC627000EC72372
:10AAA800440EC625D96E020EC721DA6E010EDF6E7E
:10AAB8001FECA9F060C0B7F061C0B8F062C0B9F08F
:10AAC80063C0BAF0020E0001BB6FC80EBC6F000E67
:10AAD800BD6FEDEC87F0C80E0001606F000E616F6E
:10AAE8003EECABF0000160510008060FD26F000E7B
:10AAF800D36F1CD0D351010DC80EF324D96E000EAC
:10AB0800F420DA6ED351D2C0C6F0C76BC627000E48
:10AB1800C7230D0EC627000EC723580EC625E16EA3
:10AB2800020EC721E26EDFCFE7FFD32BD351010D11
:10AB3800C80EF324D96E000EF420DA6EDF50D8A4C4
:10AB4800D9D785C19DF086C19EF047ECAFF09DC076
:10AB58009FF09EC0A0F0020E0001A16FC80EA26F68
:10AB6800000EA36F4AEC72F0000E0001D36F18D0EC
:10AB7800D351010DC80EF324D96E000EF420DA6EFD
:10AB8800D351C66FC76B0B0EC627000EC723800EA6
:10AB9800C625E16E020EC721E26EDFCFE7FFD32B99
:10ABA800D351010DC80EF324D96E000EF420DA6ECD
:10ABB800DF50D8A4DDD735D1440E606F020E616F27
:10ABC8003E0E626F9E0E636F000E656F500E646FCF
:10ABD800ADECA4F01FECA9F060C0B7F061C0B8F00C
:10ABE80062C0B9F063C0BAF0020E0001BB6FC80EB4
:10ABF800BC6F000EBD6FEDEC87F0000E0001D36F47
:10AC080018D0D351010DC80EF324D96E000EF420CC
:10AC1800DA6ED351C66FC76B0D0EC627000EC72359
:10AC2800580EC625E16E020EC721E26EDFCFE7FFA0
:10AC3800D32BD351010DC80EF324D96E000EF42086
:10AC4800DA6EDF50D8A4DDD7D351C66FC76B0D0EAF
:10AC5800C627000EC723580EC625D96E020EA1D6E8
:10AC6800440E606F020E616FEE0E626F9D0E636F91
:10AC7800000E656F500E646FADECA4F044D0570E13
:10AC88000201726F200E736F49D06C0E0001606F65
:10AC9800020E616F290E626FA30E636F000E656F5F
:10ACA800080E646FADECA4F0800E0001606F020E18
:10ACB800616F320E626FA30E636F000E656F060E32
:10ACC800646FADECA4F02AD06C0E0001606F020E28
:10ACD800616F290E626FA30E636F000E656F080E19
:10ACE800646FADECA4F0800E0001606F020E616F1E
:10ACF800390E626FA30E636F000E656F050E646FE9
:10AD0800ADECA4F00BD001017351820AD8B4BDD7C1
:10AD1800010AD8B4B4D7070AD8B4D6D71FECA9F01B
:10AD280060C0B7F061C0B8F062C0B9F063C0BAF0F3
:10AD3800020E0001BB6FC80EBC6F000EBD6FEDECBC
:10AD480087F0C80E0001606F000E616F3EECABF03B
:10AD5800000160510008070FD26F000ED36F1CD09E
:10AD6800D351010DC80EF324D96E000EF420DA6E0B
:10AD7800D351D2C0C6F0C76BC627000EC7230C0E2E
:10AD8800C627000EC723580EC625E16E020EC7213E
:10AD9800E26EDFCFE7FFD32BD351010DC80EF324AA
:10ADA800D96E000EF420DA6EDF50D8A4D9D788C146
:10ADB8009DF089C19EF047ECAFF09DC09FF09EC00A
:10ADC800A0F0020E0001A16FC80EA26F000EA36FC3
:10ADD8004AEC72F0000E0001D36F18D0D351010D68
:10ADE800C80EF324D96E000EF420DA6ED351C66F64
:10ADF800C76B0B0EC627000EC723800EC625E16E53
:10AE0800020EC721E26EDFCFE7FFD32BD351010D2E
:10AE1800C80EF324D96E000EF420DA6EDF50D8A4E1
:10AE2800DDD7D351C66FC76B0B0EC627000EC723DD
:10AE3800800EC625D96E020EC721DA6E010EDF6EAE
:10AE4800D351C66FC76B0C0EC627000EC723800EE2
:10AE5800C625D96E020EC721DA6E2F0EDF6ED351CA
:10AE6800C66FC76B0D0EC627000EC723800EC625FA
:10AE7800D96E020EC721DA6E730EDF6E95D009EC1B
:10AE8800AAF00101675100019F6FA06B9FBFA00747
:10AE9800000EA16F440EA26F020EA36F4AEC72F06F
:10AEA80084A402D0480E01D04C0E02014C6F84A03D
:10AEB80002D0480E01D04C0E4D6F010168510001BF
:10AEC8009F6FA06B9FBFA007000EA16F580EA26FC7
:10AED800020EA36F4AEC72F084A202D0480E01D091
:10AEE8004C0E0201606F0101695100019F6FA06B58
:10AEF8009FBFA007000EA16F6C0EA26F020EA36F7A
:10AF08004AEC72F080A002D0480E01D04C0E02012B
:10AF1800746F80A402D0480E01D04C0E756F0101E9
:10AF28006A5100019F6FA06B9FBFA007000EA16F21
:10AF3800800EA26F020EA36F4AEC72F080A202D0BC
:10AF4800480E01D04C0E0201886F2ED001017351BA
:10AF5800F00B0001C66FC76BC751000AD8A424D0F4
:10AF6800C651000AD8B4A4EF51F0100AD8B4D3EFF0
:10AF780051F0300AD8B425EF52F0100AD8B449EF8E
:10AF880052F0700AD8B4BAEF52F0100AD8B45AD4B2
:10AF9800300AD8B40AD5100AD8B40ED6F00AD8B4F4
:10AFA8005FD6700AD8B46BD783B41200450E02017D
:10AFB800446F520E456F520E466F4F0E476F520E3A
:10AFC800486F120001016751D8A4E2D36951D8A48F
:10AFD800DFD36851D8A4DCD36A51D8B41200D8D3CF
:10AFE8006805D8B403D06A05D8A402D0110E736FCF
:10AFF80069C1A8F00001A96BA8BFA90767C1AAF099
:10B00800AB6BAABFAB07A851AA27A951AB23ABBF0B
:10B0180008D0AB5103E1AA05D8A003D0020E010164
:10B02800736F69C1A8F00001A96BA8BFA90767C120
:10B03800AAF0AB6BAABFAB07A851AA27A951AB23AB
:10B04800ABAFCBD3050E92D36805D8B403D06A054D
:10B05800D8A402D0310E736F69C1A8F00001A96BA2
:10B06800A8BFA90767C1AAF0AB6BAABFAB07A851D5
:10B07800AA27A951AB23ABBF08D0AB5103E1AA055E
:10B08800D8A003D0030E0101736F69C1A8F00001B5
:10B09800A96BA8BFA90767C1AAF0AB6BAABFAB078A
:10B0A800A851AA27A951AB23ABAF97D3010E5ED302
:10B0B8006805D8B403D06A05D8A402D0510E736FBE
:10B0C80069C1A8F00001A96BA8BFA90767C1AAF0C8
:10B0D800AB6BAABFAB07A851AA27A951AB23ABBF3B
:10B0E80008D0AB5103E1AA05D8A003D0040E010192
:10B0F800736F69C1A8F00001A96BA8BFA90767C150
:10B10800AAF0AB6BAABFAB07A851AA27A951AB23DA
:10B11800ABAF63D3020E2AD36805D8B403D06A054F
:10B12800D8A402D0820E736F69C1A8F00001A96B80
:10B13800A8BFA90767C1AAF0AB6BAABFAB07A85104
:10B14800AA27A951AB23ABBF08D0AB5103E1AA058D
:10B15800D8A003D0050E0101736F69C1A8F00001E2
:10B16800A96BA8BFA90767C1AAF0AB6BAABFAB07B9
:10B17800A851AA27A951AB23ABAF2FD3030EF6D200
:10B188006805D8B403D06A05D8A402D0710E736FCD
:10B1980069C1A8F00001A96BA8BFA90767C1AAF0F7
:10B1A800AB6BAABFAB07A851AA27A951AB23ABBF6A
:10B1B80008D0AB5103E1AA05D8A003D0010E0101C4
:10B1C800736F69C1A8F00001A96BA8BFA90767C17F
:10B1D800AAF0AB6BAABFAB07A851AA27A951AB230A
:10B1E800ABAFFBD2040EC2D201017351010AD8B42D
:10B1F800F7D6030AD8B428D7010AD8B459D7070A0A
:10B20800D8B48AD7010AD8B4BBD7F50AE6D26805FC
:10B21800D8A40ED0000E6B6F000E6C6F000E6D6F11
:10B22800000E6E6F000E7C6F000E7B6F210E736F29
:10B238006751800A7F0FD8A002D0120E736F67AFD4
:10B248001BD0120E0FD06805D8A402D0010E736F60
:10B258006751800A7F0FD8A002D0110E736F67AFB5
:10B268000BD0110E736F08D001017351110AD8B4B5
:10B27800CED7030AD8B4E7D76A05D8A40AD075C1CF
:10B2880060F076C161F035ECA2F060C075F161C084
:10B2980076F101016951800A7F0FD8A010D074514E
:10B2A800D8A40DD075C199F076C19AF0FF0E0001AF
:10B2B8009C6F9B69010E9D6F010EE4ECA9F00101E2
:10B2C80069AF8BD27451D8A488D275C199F076C170
:10B2D8009AF0FF0E00019C6F9B69010E9D6FFF0E97
:10B2E800E4ECA9F07AD201016805D8B403D06A0564
:10B2F800D8A403D0FF0E5DECABF069C1A8F0000143
:10B30800A96BA8BFA90767C1AAF0AB6BAABFAB0717
:10B31800A851AA27A951AB23ABBF08D0AB5103E171
:10B32800AA05D8A003D0220E0101736F69C1A8F045
:10B338000001A96BA8BFA90767C1AAF0AB6BAABF98
:10B34800AB07A851AA27A951AB23ABAF46D2220E0F
:10B358000DD26805D8B403D06A05D8A403D0010E6D
:10B368005DECABF069C1A8F00001A96BA8BFA90703
:10B3780067C1AAF0AB6BAABFAB07A851AA27A9510E
:10B38800AB23ABBF08D0AB5103E1AA05D8A003D0CB
:10B39800210E0101736F69C1A8F00001A96BA8BF54
:10B3A800A90767C1AAF0AB6BAABFAB07A851AA2728
:10B3B800A951AB23ABAF11D2210ED8D101017351E2
:10B3C800210AD8B490D7030AD8B4C3D706D26805DF
:10B3D800D8A405D03CEC7CF0410E0101736F675195
:10B3E800800A7F0FD8A002D0320E736F67AF1BD0D0
:10B3F800320E0FD06805D8A402D0020E736F6751C1
:10B40800800A7F0FD8A002D0310E736F67AF0BD0C0
:10B41800310E736F08D001017351310AD8B4D7D7F0
:10B42800030AD8B4E7D76A05D8A405D07A5123EC23
:10B43800ADF001017A6F6951800A7F0FD8A004D05E
:10B448007A517827000E792369AFC7D17A51000164
:10B45800A86FA96B010178510001A85DA951800A64
:10B46800AA6F01017951800A0001AA59D8B006D003
:10B4780001017A51785F000E795BAFD1000E0101AE
:10B48800796F010E786FA9D101016805D8A402D09F
:10B49800020E736F6A05D8B4C4EC97F001016951C4
:10B4A800800A7F0FD8B01EECABF0010169AF95D1CF
:10B4B800DCECA2F092D101016805D8A402D0620E9A
:10B4C800736F6751800A7F0FD8A002D0520E736F36
:10B4D80067AF1BD0520E0FD06805D8A402D0030E58
:10B4E800736F6751800A7F0FD8A002D0510E736F17
:10B4F80067AF0BD0510E736F08D001017351510A19
:10B50800D8B4D9D7030AD8B4E7D76A05D8A40AD0DB
:10B518007FC160F080C161F06DECA2F060C07FF186
:10B5280061C080F101016951800A7F0FD8A01CD049
:10B538007F51812780518223000E8323000E8423AC
:10B5480084BF12D0845108E1A10E815D860E825914
:10B55800010E8359D8A008D0A00E816F860E826F85
:10B56800010E836F000E846F69AF37D17F510001E0
:10B57800A86F010180510001A96FAA6BAB6BA8519C
:10B588000101815F0001A9510101825B0001AA51FB
:10B598000101835B0001AB510101845B84BF07D0CB
:10B5A80084518311821102E18105D8B016D1010EB0
:10B5B800816F000E826F000E836F000E846F0DD1B5
:10B5C80001016751800A7F0FD8A011D0A451855D71
:10B5D800A5518659D8B002D0854B862B7451D8B462
:10B5E80006D085C160F086C161F0BBECAFF0010107
:10B5F80067AF46D085519E5D86519F59D8B003D01C
:10B608008507D8A086077451D8B43AD085C160F0B0
:10B6180086C161F0BBECAFF033D001016A05D8A454
:10B6280006D0FF0E51EC90F0620E0101736F695164
:10B63800800A7F0FD8A0D1D0620E99D06A05D8A40D
:10B6480007D07451D8A46FECA9F0030E0101736FF1
:10B658006951800A7F0FD8A002D0630E736F69AF5B
:10B66800BCD0610E84D06A05D8A406D0010E51EC76
:10B6780090F0620E0101736F69AFAFD0620E77D0A0
:10B6880001017351610AD8B4C8D7030AD8B4D6D710
:10B69800010AD8B4E8D7A1D001016A05D8A418D006
:10B6A800000E0001926F000E936F000E946F000E53
:10B6B800956FFF0E976F9669000E986F000ECBEC92
:10B6C8009BF0050E0101736F000E7C6F000E7B6FFF
:10B6D8006805D8A482D0050E4AD001016751800AB6
:10B6E8007F0FD8B021ECAFF0010167AF42D0B8ECC2
:10B6F800AEF03FD001016A05D8A40AD088C18CF009
:10B7080089C18DF0FF0E51ECADF0840E0101736F0D
:10B718006951800A7F0FD8A060D0820E28D06A05B0
:10B72800D8A402D0040E736F6951800A7F0FD8A085
:10B7380002D0830E736F69AF50D0810E18D06A059E
:10B74800D8A409D0840E736F88C18CF089C18DF09C
:10B75800010E51ECADF0010169AF3FD0820E07D068
:10B768006A05D8A43AD06FECA9F0820E0101736F74
:10B7780034D001017351810AD8B4BCD7030AD8B4B4
:10B78800CED7010AD8B4DBD7070AD8B4E9D725D071
:10B798007351F00B0001A86FA96BA951000AD8A436
:10B7A8001CD0A851000AD8B41FD5100AD8B45CD54B
:10B7B800300AD8B403D6100AD8B42DD6700AD8B433
:10B7C80063D6100AD8B499D6300AD8B4F9D6100A74
:10B7D800D8B462D7F00AD8B480D7000E0101676FD9
:10B7E800000E696F000E686F000E6A6F12009E925D
:10B7F80001014905D8A404D01569166917691869A3
:10B808004751D8A41AD08AA217D08A92155119196B
:10B8180009E116511A1906E117511B1903E11851CC
:10B828001C19D8A41200CA949E929D9280ECA7F08D
:10B83800000E0101746F12008A82010E1927000E92
:10B848001A231B231C2348512D6E000E2DBEFF0EFC
:10B858002E6E2F6E306E2D506B272E506C232F506E
:10B868006D2330506E2395516B1914E196516C1964
:10B8780011E197516D190EE198516E19D8A40AD0AB
:10B88800000E6B6F000E6C6F000E6D6F000E6E6F0A
:10B898006F4B702B6B2916E16C2914E16D2912E1AD
:10B8A8006E29D8A40FD0FF0E95256B6FFF0E962139
:10B8B8006C6FFF0E97216D6FFF0E98216E6F6F07EB
:10B8C800D8A0700702013851010119190FE10201CE
:10B8D800395101011A190AE102013A5101011B19F2
:10B8E80005E102013B5101011C19D8A4120019C13C
:10B8F8002DF01AC12EF01BC12FF01CC130F02D1EE7
:10B908002E1E2F1E301E2D2A000E2E222F223022F0
:10B9180015512D24416E16512E20426E17512F209D
:10B92800436E18513020446ED8900001FE35F66EF3
:10B93800FF35F76E610EF626940EF722F86A000EB0
:10B94800F8220900F5CF3DF00A00F5CF3EF0FEC021
:10B958002DF0FFC02EF0D8902D362E36040E2D2651
:10B96800000E2E22610E2D24F66E940E2E20F76EF8
:10B97800F86A000EF8220900F5CF3FF00A00F5CF6B
:10B9880040F0FE510101315D0001FF5101013259C2
:10B99800D8A010D03D502D6E3E502E6E2F6A306AC2
:10B9A80041502D5C42502E5843502F584450305827
:10B9B800D8A0F3D00001FE51FF11D8B403D0FE0780
:10B9C800D8A0FF0701014705D8A426D02F0E0001F3
:10B9D800FE25F66E980EFF21F76EF86A000EF82223
:10B9E8000800F5500009D8B417D0000E0101476FC0
:10B9F8008A82550EA76EAA0EA76E0E01BF91000E81
:10BA0800C46F550EA76EAA0EA76EBF81000ECC6E2E
:10BA1800BA90BA92BA94BA96FD0E0001FE25F66E57
:10BA28009B0EFF21F76EF86A000EF8220800F5CF8A
:10BA38002DF0CA502D18FC0B2D18CA6E160EFE25B7
:10BA4800F66E9A0EFF21F76EF86A000EF8220800CB
:10BA5800F5CFCBFF2F0EFE25F66E980EFF21F76E61
:10BA6800F86A000EF8220800F5CF2DF02D462D4675
:10BA78002D46CA502D18870B2D18CA6ED890CB307A
:10BA8800BB6EFE51FF11D8B460D0FE0E2D6EFF0EB6
:10BA98002E6EFEC02FF0FFC030F0D8902F36303613
:10BAA8002D502F262E503022610E2F24F66E940E24
:10BAB8003020F76EF86A000EF8220900F5CF31F051
:10BAC8000900F5CF32F03150336E3250346E356A9A
:10BAD800366A331E341E351E361E332A000E3422B3
:10BAE80035223622D890FE35F66EFF35F76E610E98
:10BAF800F626940EF722F86A000EF8220900F5CF10
:10BB080037F00900F5CF38F037503324396E385004
:10BB180034203A6E000E35203B6E000E36203C6E07
:10BB28000101195139240201386F01011A513A20D3
:10BB38000201396F01011B513B2002013A6F0101DB
:10BB48001C513C2002013B6F1200D8900001FE35C9
:10BB5800F66EFF35F76E610EF626940EF722F86A38
:10BB6800000EF8220900F5CF2DF00900F5CF2EF0D0
:10BB78002D50010119250201386F2E5001011A219B
:10BB88000201396F000E01011B2102013A6F000EFC
:10BB980001011C2102013B6F12000101315100011A
:10BBA800FE1906E1010132510001FF19D8B410D085
:10BBB8003F502D6E40502E6E2F6A306A41502D5CDA
:10BBC80042502E5843502F5844503058D8A05CD07B
:10BBD800D890FE35F66EFF35F76E610EF626940E98
:10BBE800F722F86A000EF8220900F5CF2DF00900B7
:10BBF800F5CF2EF02D502F6E2E50306E316A326AEE
:10BC08002F1E301E311E321E2F2A000E30223122E6
:10BC18003222FEC033F0FFC034F0D89033363436C9
:10BC2800020E3326000E3422610E3324F66E940E73
:10BC38003420F76EF86A000EF8220900F5CF35F0C7
:10BC48000900F5CF36F035502F24376E36503020A6
:10BC5800386E000E3120396E000E32203A6E010126
:10BC6800195137240201386F01011A513820020195
:10BC7800396F01011B51392002013A6F01011C5132
:10BC88003A2002013B6F12000001FE4BFF2BFD0E14
:10BC9800FE25F66E9B0EFF21F76EF86A000EF8225D
:10BCA8000800F5CF2DF0CA502D18FC0B2D18CA6EC0
:10BCB800160EFE25F66E9A0EFF21F76EF86A000E34
:10BCC800F8220800F5CFCBFF2F0EFE25F66E980E52
:10BCD800FF21F76EF86A000EF8220800F5CF2DF064
:10BCE8002D462D462D46CA502D18870B2D18CA6E85
:10BCF800D890CB30BB6E01014751D8A423D02F0E6A
:10BD08000001FE25F66E980EFF21F76EF86A000E08
:10BD1800F8220800F5500009D8A414D0010E01013A
:10BD2800476FBA50F00B0C09BA6E550EA76EAA0EE3
:10BD3800A76E0E01BF910E0EC46F550EA76EAA0E08
:10BD4800A76EBF81D8900001FE35F66EFF35F76EFD
:10BD5800610EF626940EF722F86A000EF822090002
:10BD6800F5CF2DF00900F5CF2EF02D502F6E2E5067
:10BD7800306E316A326A2F1E301E311E321E2F2A53
:10BD8800000E302231223222FEC033F0FFC034F0E0
:10BD9800D89033363436020E3326000E3422610E24
:10BDA8003324F66E940E3420F76EF86A000EF822EB
:10BDB8000900F5CF35F00900F5CF36F035502F24BE
:10BDC800376E36503020386E000E3120396E000E36
:10BDD80032203A6E0101195137240201386F0101EE
:10BDE8001A5138200201396F01011B513920020113
:10BDF8003A6F01011C513A2002013B6F120099C0B1
:10BE080061F09AC062F0120E0001636FA20E646FB7
:10BE1800C5ECA5F0000161516211D8A40FD09BC0F8
:10BE28006CF09CC06DF08CEC8CF06CC095F16DC022
:10BE380096F16EC097F16FC098F1120099C061F049
:10BE48009AC062F0270E0001636FA20E646FC5EC02
:10BE5800A5F0000161516211D8A40BD09BC066F017
:10BE68009CC067F060EC93F066C09AF167C09BF1E4
:10BE7800120099C061F09AC062F05E0E0001636F13
:10BE8800A20E646FC5ECA5F0000161516211D8A43F
:10BE98000BD09BC06CF09CC06DF08CEC8CF000015A
:10BEA8006C510101996F120099C061F09AC062F05B
:10BEB800270E0001636FA20E646FC5ECA5F00001A8
:10BEC80061516211D8A40BD09BC066F09CC067F08A
:10BED80060EC93F066C09AF167C09BF1120099C0BC
:10BEE80061F09AC062F0BB0E0001636FA10E646F2F
:10BEF800C5ECA5F0000161516211D8A40BD09BC01C
:10BF080066F09CC067F060EC93F066C09CF167C077
:10BF18009DF1120099C061F09AC062F0AC0E000168
:10BF2800636FA20E646FC5ECA5F000016151621148
:10BF3800D8A40BD09BC066F09CC067F060EC93F06F
:10BF480066C09EF167C09FF1120099C061F09AC067
:10BF580062F09E0E0001636FA20E646FC5ECA5F03F
:10BF6800000161516211D8A40BD09BC066F09CC03F
:10BF780067F060EC93F066C0A0F167C0A1F1120011
:10BF880099C061F09AC062F04C0E0001636FA20E76
:10BF9800646FC5ECA5F0000161516211D8A40BD003
:10BFA8009BC066F09CC067F060EC93F066C0A2F19D
:10BFB80067C0A3F1120099C061F09AC062F03A0E0E
:10BFC8000001636FA20E646FC5ECA5F0000161511A
:10BFD8006211D8A40BD09BC066F09CC067F060ECDF
:10BFE80093F066C0A4F167C0A5F1120099C061F092
:10BFF8009AC062F0FD0E0001636FA10E646FC5EC7C
:10C00800A5F0000161516211D8A40BD09BC066F065
:10C018009CC067F060EC93F066C0A6F167C0A7F11A
:10C02800120099C061F09AC062F0E80E0001636FD7
:10C03800A10E646FC5ECA5F0000161516211D8A48E
:10C048000BD09BC066F09CC067F060EC93F066C0B4
:10C05800A8F167C0A9F1120099C061F09AC062F016
:10C06800900E0001636FA20E646FC5ECA5F000018D
:10C0780061516211D8A40BD09BC066F09CC067F0D8
:10C0880060EC93F0000166510101AA6F120099C09B
:10C0980061F09AC062F0BA0E0001636FA20E646F7D
:10C0A800C5ECA5F0000161516211D8A40BD09BC06A
:10C0B8006CF09CC06DF08CEC8CF000016C510101AF
:10C0C800AB6F120099C061F09AC062F0D10E000106
:10C0D800636FA20E646FC5ECA5F000016151621197
:10C0E800D8A421D09BC06CF09CC06DF08CEC8CF077
:10C0F8006CC0ACF16DC0ADF16EC0AEF16FC0AFF108
:10C10800ACC191F0ADC192F0AEC193F0AFC194F063
:10C1180026EC78F091C0B0F192C0B1F193C0B2F1C1
:10C1280094C0B3F1120099C061F09AC062F0820E17
:10C138000001636FA20E646FC5ECA5F000016151A8
:10C148006211D8A40BD09BC06CF09CC06DF08CEC35
:10C158008CF000016C510101B46F120099C061F0BC
:10C168009AC062F0C70E0001636FA20E646FC5EC3F
:10C17800A5F0000161516211D8A421D09BC06CF0D8
:10C188009CC06DF08CEC8CF06CC0B5F16DC0B6F154
:10C198006EC0B7F16FC0B8F1B5C191F0B6C192F0F9
:10C1A800B7C193F0B8C194F026EC78F091C0B9F11A
:10C1B80092C0BAF193C0BBF194C0BCF1120099C00F
:10C1C80061F09AC062F0D30E0001636FA10E646F34
:10C1D800C5ECA5F0000161516211D8A412009BC002
:10C1E80066F09CC067F060EC93F0000166510101B5
:10C1F800BD6F1200000E0001E56F000EE66F000E25
:10C20800E76F000EE86F120E846FA20E856F95C15E
:10C2180086F096C187F097C188F098C189F0000E22
:10C22800E5258A6F080EE6218B6F0AEC8DF0000178
:10C23800E36FE351E527000EE623E723E8235E0ECC
:10C24800846FA20E856F010199510001866F876B7B
:10C25800886B896B000EE5258A6F080EE6218B6FC7
:10C268000AEC8DF00001E36FE351E527000EE623A9
:10C27800E723E823270E846FA20E856F9AC186F004
:10C288009BC187F0886B896B000EE5258A6F080EC5
:10C29800E6218B6F0AEC8DF00001E36FE351E5278F
:10C2A800000EE623E723E823BB0E846FA10E856FFB
:10C2B8009CC186F09DC187F0886B896B000EE525CF
:10C2C8008A6F080EE6218B6F0AEC8DF00001E36F90
:10C2D800E351E527000EE623E723E823AC0E846F3D
:10C2E800A20E856F9EC186F09FC187F0886B896B0F
:10C2F800000EE5258A6F080EE6218B6F0AEC8DF09B
:10C308000001E36FE351E527000EE623E723E82366
:10C318009E0E846FA20E856FA0C186F0A1C187F022
:10C32800886B896B000EE5258A6F080EE6218B6FF6
:10C338000AEC8DF00001E36FE351E527000EE623D8
:10C34800E723E8234C0E846FA20E856FA2C186F006
:10C35800A3C187F0886B896B000EE5258A6F080EEC
:10C36800E6218B6F0AEC8DF00001E36FE351E527BE
:10C37800000EE623E723E8233A0E846FA20E856FAA
:10C38800A4C186F0A5C187F0886B896B000EE525EE
:10C398008A6F080EE6218B6F0AEC8DF00001E36FBF
:10C3A800E351E527000EE623E723E823FD0E846F1B
:10C3B800A10E856FA6C186F0A7C187F0886B896B2F
:10C3C800000EE5258A6F080EE6218B6F0AEC8DF0CA
:10C3D8000001E36FE351E527000EE623E723E82396
:10C3E800E80E846FA10E856FA8C186F0A9C187F0F9
:10C3F800886B896B000EE5258A6F080EE6218B6F26
:10C408000AEC8DF00001E36FE351E527000EE62307
:10C41800E723E823820E846FA20E856F0101B451D1
:10C428000001866F876B886B896B000EE5258A6F24
:10C43800080EE6218B6F0AEC8DF00001E36FE351E3
:10C44800E527000EE623E723E823C70E846FA20E34
:10C45800856FB5C186F0B6C187F0B7C188F0B8C19D
:10C4680089F0000EE5258A6F080EE6218B6F0AEC2D
:10C478008DF00001E36FE351E527000EE623E72383
:10C48800E823BA0E846FA20E856F0101AB5100013B
:10C49800866F876B886B896B000EE5258A6F080E9F
:10C4A800E6218B6F0AEC8DF00001E36FE351E5277D
:10C4B800000EE623E723E823D10E846FA20E856FD2
:10C4C800ACC186F0ADC187F0AEC188F0AFC189F0CC
:10C4D800000EE5258A6F080EE6218B6F0AEC8DF0B9
:10C4E8000001E36FE351E527000EE623E723E82385
:10C4F800900E846FA20E856F0101AA510001866F0C
:10C50800876B886B896B000EE5258A6F080EE6211C
:10C518008B6F0AEC8DF00001E36FE351E527000E05
:10C52800E623E723E823D30E846FA10E856F01016C
:10C53800BD510001866F876B886B896B000EE525FE
:10C548008A6F080EE6218B6F0AEC8DF00001E36F0D
:10C55800E351E527000EE623E723E823D00E8B6F8F
:10C56800020E8C6FE00E8D6F020E8E6F6AEC8FF0EC
:10C578000001E46FE429D8A415D0D00EAC6F020EE8
:10C58800AD6FE00EAE6F020EAF6FE5C0B0F0E6C063
:10C59800B1F0E7C0B2F0E8C0B3F01CEC82F00001E3
:10C5A800E46F0BD0E5C0ACF0E6C0ADF0E7C0AEF08C
:10C5B800E8C0AFF0E4518EEC8BF0000E0001A16FE3
:10C5C800000EA26F000EA36F000EA46FE5C0A5F0C9
:10C5D800E6C0A6F0000EA76F080EA86FE4511DEC88
:10C5E80070F01200D1D16EEC74F00009D8A41200DA
:10C5F80001015569120034EC68F00009D8A4120052
:10C608000101556912004F05D8A402D055691200DE
:10C6180012C238F113C237F137C16AF038C16BF072
:10C6280000016C6B6D6B62EC87F00009D8A41200F6
:10C63800000E0001616F240E606F06EC97F0000E8B
:10C648000001606F060E616F600E626FA10E636F6E
:10C65800000E656F240E646FADECA4F0FD0E0101B1
:10C66800556F1200AEC260F0AFC261F022EE9CF0CE
:10C6780001D80AD00500FA6EDE50FD6EDE50FE6E5F
:10C68800DE50FF6EFA50120060C0A2F061C0A3F045
:10C6980062C0A4F063C0A5F0AEC260F0AFC261F0A2
:10C6A80022EE9FF001D80AD00500FA6EDE50FD6E2A
:10C6B800DE50FE6EDE50FF6EFA501200000160C0C0
:10C6C8009EF061C09FF0A06BA16B26EE00F0A5C0A4
:10C6D800DFFF26EE01F0A4C0DFFF26EE02F0A3C0C4
:10C6E800DFFF26EE03F0A2C0DFFF26EE04F0A1C0B4
:10C6F800DFFF26EE05F0A0C0DFFF26EE06F09FC0A4
:10C70800DFFF26EE07F09EC0DFFF000E0101386F45
:10C71800080E376F000E0001616F080E606F06EC9F
:10C7280097F0FD0E0101556F12004F05D8A402D0F5
:10C7380055691200000E386F120E376F000E000197
:10C74800616F120E606F06EC97F0000E0001A66F85
:10C75800110EA66501D014D0A651010D1F0EF324A9
:10C76800D96E020EF420DA6EA651010D000EF324E4
:10C77800E16E060EF420E26EDFCFE7FFA62BE8D7C6
:10C78800FD0E0101556F1200030EE8CF00F6000EF2
:10C79800E8CF01F6AEC260F0AFC261F022EEA8F0B9
:10C7A80001D80AD00500FA6EDE50FD6EDE50FE6E2E
:10C7B800DE50FF6EFA5012000009D8A405D0000E12
:10C7C80000019C6F000E04D0000E00019C6F800ECB
:10C7D8009B6F26EE02F09BC0DFFF000EE8CF03F64A
:10C7E800000E0101386F040E376F000E0001616FF3
:10C7F800040E606F06EC97F0FD0E0101556F1200F4
:10C8080002012151F00B0509216F200E2B6F000E3C
:10C818002C6F010E0D018C6F000E886F000E896F52
:10C82800000E8A6F000E8B6F010155691200000E11
:10C8380000016A6F000E6B6F000E6C6F000E6D6F5B
:10C8480062EC87F00009D8A41200020121510F0BF5
:10C85800060AD8A407D00D018C05D8A403D001017D
:10C86800556912004BECA4F0000E0D01886F000E04
:10C87800896F000E8A6F000E8B6F010155691200D7
:10C88800000E0D01886F000E896F000E8A6F000E72
:10C898008B6F0101556912003D513E11D8B406D085
:10C8A8003DC1D9FF3EC1DAFFDFBE120002010B51C4
:10C8B8000A11091104E1400E085DD8A00BD0400E02
:10C8C80000019D6F400E0201085F000E095B0A5BC4
:10C8D8000B5B0AD008C29DF0000E086F000E096FAE
:10C8E800000E0A6F000E0B6F00019D51996F9A6B35
:10C8F80099510101375D00019A5101013859D8A0B9
:10C9080007D000019D510101375F000E385B1ED032
:10C91800000E0001A66F16D0010137513811D8B4A6
:10C9280004D03707D8A038070BD00001A651010D55
:10C93800000EF324D96E060EF420DA6E000EDF6EB8
:10C948000001A62B9D51A65DD8A0E6D7010E0001D7
:10C95800606F000E616F060E626F9DC063F0020E7D
:10C9680007EC8AF060C03DF161C03EF10201085158
:10C9780009110A110B11D8A41200010155691200FE
:10C988007F0ED5EC86F0120001015551000AD8B48B
:10C998004ED7030AD8B4C9D6110AD8B434D6080A6F
:10C9A800D8B4F2D6010AD8B46BD7050AD8B428D7B8
:10C9B8003B0AD8B457D60D0AD8B415D6020AD8B44B
:10C9C8001AD6050AD8B45CD7D20AD8B465D7030AF0
:10C9D800D7D700017B51800B846F7B517B258A6FF1
:10C9E8007ABF8A818A51D8B40DD08A29D8A408D0B0
:10C9F800000E786F000E796F000E7A6F000E7B6F55
:10CA08007A8F08D0000E786F000E796F000E7A6F5B
:10CA1800000E7B6F7F51800B841B7F517F25896FB0
:10CA28007EBF89818951D8B40DD08929D8A408D06E
:10CA3800000E7C6F000E7D6F000E7E6F000E7F6F04
:10CA48007E8F08D0000E7C6F000E7D6F000E7E6F0B
:10CA5800000E7F6F8951D8B403D08A51D8A409D069
:10CA6800000E786F000E796F000E7A6F000E7B6FE4
:10CA780012007E517803F3CF8FF0F4CF90F08F51EE
:10CA8800856F866B876B886B90518B6F8C6B8D6B0A
:10CA98008E6B7D517903F3CF8FF0F4CF90F08F51E7
:10CAA8008527000E86238723882390518B27000E25
:10CAB8008C238D238E237C517A03F3CF8FF0F4CF10
:10CAC80090F08F518527000E862387238823905165
:10CAD8008B27000E8C238D238E2387C088F086C079
:10CAE80087F085C086F0856B7C517903F3CF8FF092
:10CAF800F4CF90F08F51852790518623000E87231D
:10CB0800000E88237D517803F3CF8FF0F4CF90F097
:10CB18008F51852790518623000E8723000E882386
:10CB280087C088F086C087F085C086F0856B7C5109
:10CB38007803F3CF8FF0F4CF90F08F518527905181
:10CB48008623000E8723000E88237E517903F3CFB6
:10CB58008FF0F4CF90F08F518B2790518C23000EDB
:10CB68008D23000E8E237D517A03F3CF8FF0F4CFFF
:10CB780090F08F518B2790518C23000E8D23000E3F
:10CB88008E237E517A03F3CF8FF0F4CF90F08F513C
:10CB9800806F9051816F826B836B82C083F081C0FC
:10CBA80082F080C081F0806B80518B2781518C236B
:10CBB80082518D2383518E2385C080F086C081F0F9
:10CBC80087C082F088C083F0190E05D0D8908333CF
:10CBD800823381338033E82EF9D780518B278151F6
:10CBE8008C2382518D2383518E2387C088F086C081
:10CBF80087F085C086F0856B89518AC080F0816B8B
:10CC08008027000E8123820E80258F6FFF0E8121E1
:10CC1800906F0FD0D8908B378C378D378E3788BF71
:10CC28008B81D89085378637873788378F07D8A084
:10CC380090078DAFEFD7000E896F88AF16D0FF0E23
:10CC48008515806FFF0E8615816FFF0E8715826F21
:10CC58007F0E8815836F8051811182118311D8A4AA
:10CC680002D08BA102D0010E896F8951D8B41FD090
:10CC7800010E8B27000E8C238D238E238EA117D0B7
:10CC88008BC080F08CC081F08DC082F08EC083F0A4
:10CC98008335833382338133803380C08BF081C006
:10CCA8008CF082C08DF083C08EF08F4B902B90BF9C
:10CCB8000DD0905103E18F29D8A008D0000E8B6FBA
:10CCC800000E8C6F800E8D6F7F0E20D090BF05D028
:10CCD80090510EE18F05D8B00BD0000E8B6F000E6F
:10CCE8008C6F000E8D6F000E8E6F000E846F0FD04C
:10CCF8008FC08AF0FF0E8B17FF0E8C177F0E8D17D3
:10CD0800000E8E178AB18D8FD8908A318E6F84511C
:10CD18008E138BC078F08CC079F08DC07AF08EC0FD
:10CD28007BF0120000017F51800B8C6F7F517F25B3
:10CD38008E6F7EBF8E818E51D8B40DD08E29D8A427
:10CD480008D0000E7C6F000E7D6F000E7E6F000E07
:10CD58007F6F7E8F06D0000E7C6F000E7D6F000EF9
:10CD68007E6F000E7F6F8351800B8D6F8C518D19F4
:10CD7800D8A48C8D835183258D6F82BF8D818D5171
:10CD8800D8B40DD08D29D8A408D0000E806F000E1D
:10CD9800816F000E826F000E836F828F06D0000EA7
:10CDA800806F000E816F000E826F000E836F8E51B0
:10CDB8008D5DD8B022D08CAD02D0800E8C1B8EC079
:10CDC8008FF08DC08EF08FC08DF07CC08FF080C04A
:10CDD8007CF08FC080F07DC08FF081C07DF08FC067
:10CDE80081F07EC08FF082C07EF08FC082F07FC05D
:10CDF8008FF083C07FF08FC083F0000E8F6F8E514D
:10CE0800846F856B841F851F844B852B8D51866F9E
:10CE1800876B845186278551872387BF2CD08751FC
:10CE280004E11A0E865DD8A026D07C517D117E11B2
:10CE38007F11D8B402D0010E01D0000E8F6F000E02
:10CE48007C6F000E7D6F000E7E6F000E7F6F8DC0B1
:10CE58008EF015D08FA105D0D8908F3101098F6F32
:10CE680002D0D8908F337CB18F8F7F357F337E335C
:10CE78007D337C338E2B8D518E5DD8A0EBD78CBD46
:10CE880028D08E51D8A409D0000E7C6F000E7D6F7B
:10CE9800000E7E6F000E7F6F120080517C2781513B
:10CEA8007D2382517E2383517F237FA182D08FA14E
:10CEB80005D0D8908F3101098F6F02D0D8908F3369
:10CEC8007CB18F8F7F357F337E337D337C338E2BE0
:10CED80070D080517C5D81517D5982517E597F513E
:10CEE800800A846F8351800A8459D8B036D07CC0B8
:10CEF80084F07DC085F07EC086F07FC087F0841FF7
:10CF0800851F861F871F842B000E85238623872372
:10CF180080518425886F81518521896F82518621AE
:10CF28008A6F835187218B6FFF0E88257C6FFF0ED8
:10CF380089217D6FFF0E8A217E6FFF0E8B217F6F07
:10CF4800800E8C1B8F6D8F51D8A40FD0010E7C27BB
:10CF5800000E7D237E237F2308D080517C5F815182
:10CF68007D5B82517E5B83517F5B7C517D117E119D
:10CF78007F11D8A41CD08F51D8A419D0000E7C6F73
:10CF8800000E7D6F000E7E6F000E7F6F1200D8902E
:10CF98007C377D377E377F378FBF7C818FA102D06A
:10CFA800D88001D0D8908F378E51D8A48E077EAF05
:10CFB800EED7000E8D6F8FAF0AD08FC084F07F0E32
:10CFC8008417D8A402D07CA102D0010E8D6F8D5198
:10CFD800D8B420D0010E7C27000E7D237E237F232A
:10CFE8007FA118D07CC084F07DC085F07EC086F01B
:10CFF8007FC087F08735873386338533843384C091
:10D008007CF085C07DF086C07EF087C07FF08E29D9
:10D01800D8A48E2B8E29D8B403D08E51D8A40DD085
:10D02800000E7C6F000E7D6F000E7E6F000E7F6F0E
:10D038008E51D8A402D0000E8C6F8EA102D07E8FA4
:10D0480001D07E9FD8908E317F6F8CBF7F8F7CC040
:10D058007CF07DC07DF07EC07EF07FC07FF0120046
:10D0680060D111C220F112C21FF113C21EF114C205
:10D078001DF116C238F117C237F1375100018F6F11
:10D08800010138510001906F916B926B090ED89095
:10D098008F37903791379237E82EF9D78FC06AF0DB
:10D0A80090C06BF091C06CF092C06DF062EC87F0AC
:10D0B8000009D8A448D1AEC260F0AFC261F022EE38
:10D0C800A8F001D80AD00500FA6EDE50FD6EDE50D9
:10D0D800FE6EDE50FF6EFA5012000009D8B417D069
:10D0E800010E0D018C6F02012151F00B0709216F10
:10D0F800270E2B6F000E2C6F000E0001606F020EC2
:10D1080082EC89F0000E0101536F53511200010E99
:10D118000101566F37513811D8A402D0000EFFD044
:10D12800030E536F000E416F060E426F000E0D0185
:10D13800886F020E896F000E8A6F000E8B6F0D01CB
:10D14800885189118A118B11D8B41FD001013F5120
:10D158004011D8B406D03FC1D9FF40C1DAFFDFBEC5
:10D16800F2D0000E0001606F41C161F042C162F06F
:10D17800400E636F020E07EC8AF060C03FF161C099
:10D1880040F1040E0101536F23D0AEC260F0AFC26C
:10D1980061F022EEA8F001D80AD00500FA6EDE5040
:10D1A800FD6EDE50FE6EDE50FF6EFA501200000972
:10D1B800D8B40CD0010E0D018C6F02012151F00B77
:10D1C8000209216F270E2B6F000E2C6F020EA6D0BE
:10D1D8003F514011D8B406D03FC1D9FF40C1DAFF52
:10D1E800DFBEB1D020EE01F03F51D9264051DA22FE
:10D1F800DF5000018F6F8FC090F0916B926B936B33
:10D2080090510201085F000191510201095B000180
:10D21800925102010A5B0001935102010B5B01016B
:10D2280020EE01F03F51D9264051DA22DF500001AB
:10D238008F6F8FC090F0916B926B936B90510D0133
:10D24800885F000191510D01895B000192510D0128
:10D258008A5B000193510D018B5B400E0101412750
:10D26800000E4223030E5BD00D018C51D8A440D090
:10D27800AEC284F0AFC285F01DC186F01EC187F032
:10D288001FC188F020C189F0000E00018A6F060EC8
:10D298008B6F01011D511E111F112011D8A402D03E
:10D2A800010E01D0000E00018C6F22EEABF001D808
:10D2B8000AD00500FA6EDE50FD6EDE50FE6EDE50BE
:10D2C800FF6EFA501200E806D8B412D0640E0101BD
:10D2D800526102D0522B37D0010E0D018C6F020122
:10D2E8002151F00B0309216F000E2B6F000E2C6FDC
:10D2F800010E01011D27000E1E231F2320233707BF
:10D30800D8A03807010E0BD0020E0D018C6F000E4D
:10D318000001606F020E82EC89F0000E0101536F6C
:10D3280012D001015351000AD8B49BD6010AD8B4CF
:10D33800F1D6030AD8B498D7010AD8B400D7070A97
:10D34800D8B446D7E1D7010153511200000E0001AD
:10D35800A76F000EA66F97C0A2F098C0A3F0000EAA
:10D368009E6F020E9D6F000EA16F95519611D8A465
:10D3780024D097519811D8B420D09DC08BF09EC06E
:10D388008CF0000E8E6F000E8D6F74EC95F08BC0D4
:10D3980095F08CC096F095C060F096C061F007ECEF
:10D3A800AFF060C09DF061C09EF0000195519611EC
:10D3B800D8A403D095699669120095C0AAF096C0C2
:10D3C800ABF003D1AAC060F0ABC061F007ECAFF0DE
:10D3D80060C0A4F061C0A5F0AAC060F0ABC061F065
:10D3E80014ECAFF060C0A8F061C0A9F00001A6512C
:10D3F800A41904E1A751A519D8B437D0A151D8B4BC
:10D408000AD0A6C07FF0A7C080F0000E816F0A0E78
:10D41800826F47ECA9F09DC08BF09EC08CF0A4C031
:10D428008DF0A5C08EF074EC95F08BC09FF08CC089
:10D43800A0F09FC060F0A0C061F007ECAFF060C042
:10D448009DF061C09EF0A4C087F0A5C088F0000ED2
:10D458000001896F0A0E8A6F26ECAEF0A4C0A6F010
:10D46800A5C0A7F0000E0001A16FA35104E1020EB0
:10D47800A25DD8A05ED0A8C060F0A9C061F0000E7F
:10D48800626F0A0E636F2EECAAF060C0AAF061C04A
:10D49800ABF00001AB5104E1020EAA5DD8A006D0A2
:10D4A800DA0EAA5D1F0EAB59D8A06BD0020EA825C4
:10D4B800606F000EA921616F000E626F0A0E636F24
:10D4C8000DECA5F060C09BF061C09CF000019B29A9
:10D4D80003E19C29D8B413D0FE0EA625AA6FFF0E2F
:10D4E800A721AB6FAA51AB6FAA6BD8909C319A6FEA
:10D4F8009B31996F9951AA139A51AB130BD09F5135
:10D50800A011D8A403D09569966912009FC0AAF00B
:10D51800A0C0ABF0A8C060F0A9C061F0000E626FB7
:10D528000A0E636FAAC064F0ABC065F027ECACF0DC
:10D5380025D0A205A311D8A428D0A8C060F0A9C0FE
:10D5480061F0000E626F0A0E636F2EECAAF060C0E5
:10D55800AAF061C0ABF00001AA2903E1AB29D8B455
:10D5680010D0A8C060F0A9C061F0000E626F0A0E6A
:10D57800636FFF0E656F646927ECACF0010E000164
:10D58800A16FA207D8A0A30720D0A8C060F0A9C0A7
:10D5980061F0000E626F0A0E636F2EECAAF060C095
:10D5A800AAF061C0ABF0A8C060F0A9C061F0000E9D
:10D5B8000001626F0A0E636F000E656F000E646FE4
:10D5C80027ECACF0010E0001A16FA251A311D8A461
:10D5D800F9D6AB5104E1020EAA5DD8A006D0DA0E46
:10D5E800AA5D1F0EAB59D8A0EDD6A151D8B40AD068
:10D5F800A6C07FF0A7C080F0000E816F0A0E826F70
:10D6080047ECA9F0000197519811D8B405D095C0FE
:10D6180095F096C096F01200000E966F000E956F6A
:10D62800120000017B51800B886F7B517B258F6F27
:10D638007ABF8F818F51D8B40DD08F29D8A408D044
:10D64800000E786F000E796F000E7A6F000E7B6FF8
:10D658007A8F06D0000E786F000E796F000E7A6F01
:10D66800000E7B6F7F51800B881B7F517F25906F49
:10D678007EBF90819051D8B40DD09029D8A408D0FD
:10D68800000E7C6F000E7D6F000E7E6F000E7F6FA8
:10D698007E8F06D0000E7C6F000E7D6F000E7E6FB1
:10D6A800000E7F6F7C517D117E117F11D8A417D099
:10D6B800000E786F000E796F000E7A6F000E7B6F88
:10D6C800800E7A137F0E7B1388517B1378C078F015
:10D6D80079C079F07AC07AF07BC07BF012008F5164
:10D6E800D8A411D0000E786F000E796F000E7A6FF3
:10D6F800000E7B6F78C078F079C079F07AC07AF044
:10D708007BC07BF012009051806F816B801F811F5E
:10D71800804B812B8F51826F836B8051822781517F
:10D7280083237F0E8225896F000E83218A6F78C03C
:10D7380084F079C085F07AC086F07BC087F0000E4F
:10D74800786F000E796F000E7A6F000E7B6F000EF7
:10D758008B6F000E8C6F000E8D6F000E8E6F000E9B
:10D76800906F28D09051D8B411D0D890843785378D
:10D7780086378737D890783779377A377B378EBFAF
:10D788007881D8908B378C378D378E377C51845D74
:10D798007D5185597E5186597F518759D8A009D026
:10D7A8008E8D7C51845F7D51855B7E51865B7F5178
:10D7B800875B902B190E9065D5D7845185118611FA
:10D7C8008711D8B411D08B810FD0D890783779379A
:10D7D8007A377B378EBF7881D8908B378C378D37E7
:10D7E8008E378907D8A08A077AAFEFD7000E906FD7
:10D7F8008EAF16D0FF0E8B15806FFF0E8C15816FC4
:10D80800FF0E8D15826F7F0E8E15836F80518111EB
:10D8180082118311D8A402D078A102D0010E906F92
:10D828009051D8B41FD0010E7827000E79237A239F
:10D838007B237BA117D078C080F079C081F07AC0B3
:10D8480082F07BC083F08335833382338133803326
:10D8580080C078F081C079F082C07AF083C07BF014
:10D86800894B8A2B8ABF10D08A5103E18929D8A015
:10D878000BD0000E8A6F8969000E786F000E796FE1
:10D88800000E7A6F000E7B6F8ABF05D08A5111E1B6
:10D898008905D8B00ED0000E8A6F000E896F000E71
:10D8A800786F000E796F000E7A6F000E7B6F000E96
:10D8B800886F89C08FF08FA102D07A8F01D07A9FAC
:10D8C800D8908F317B6F88517B1378C078F079C0FE
:10D8D80079F07AC07AF07BC07BF012000D01320536
:10D8E800D8A40FD030511F0B0009D8A40AD0568EE7
:10D8F800030E3119D8A402D0010E01D0000E010187
:10D90800616F0D013251D8A4120030511F0B020A69
:10D91800D8A4120034510F0B0009D8B412003451A6
:10D928000F0B186E030E18601200200E5D18D8A495
:10D938001200568E34BF19D034510F0B186E185080
:10D94800020D0F0EF324D96E010EF420DA6EDECF2D
:10D958001CF0DDCF1DF034510F0B186E1850010D5F
:10D968002B0EF324D96E010E18D034510F0B186EFC
:10D978001850020D090EF324D96E010EF420DA6E48
:10D98800DECF1CF0DDCF1DF034510F0B186E185090
:10D99800010D2E0EF324D96E010EF420DA6EDF503D
:10D9A8001B6E1BB006D0FB0E1C141C6EFF0E1D1444
:10D9B80004D0040E1C101C6E1D501D6E34BF0AD0FE
:10D9C80034510F0B186E1850020D0F0EF324D96E38
:10D9D800010E09D034510F0B186E1850020D090EA4
:10D9E800F324D96E010EF420DA6E1CC0DEFF1DC0D0
:10D9F800DDFF030E3119D8A42DD01CC0D9FF1DC0DE
:10DA0800DAFFDFAE1AD034BF0AD034510F0B186ECC
:10DA18001850010D2B0EF324D96E010E0AD00D01FA
:10DA280034510F0B186E1850010D2E0EF324D96EB9
:10DA3800010EF420DA6E0101DF821CC0D9FF1DC07F
:10DA4800DAFF000EDB841CC0D9FF1DC0DAFF000E10
:10DA5800DB8E1200040E1C181C6E1D501D6E1CC09F
:10DA6800D9FF1DC0DAFFDFAE1BD01CC0D9FF1DC017
:10DA7800DAFF7F0EDF161CC0D9FF1DC0DAFF000ECB
:10DA8800DB8C000E116E050E106E1CC012F01DC04E
:10DA980013F0000E156E020E146E42EC9FF006D0C5
:10DAA8001CC0D9FF1DC0DAFF000EDB8C040E1C1849
:10DAB8001C6E1D501D6E1BB206D01CC0D9FF1DC0A8
:10DAC800DAFFDFAE30D00D0134BF0AD034510F0B6E
:10DAD800186E1850010D2B0EF324D96E010E0AD0C2
:10DAE8000D0134510F0B186E1850010D2E0EF32432
:10DAF800D96E010EF420DA6E0101DF921CC0D9FF45
:10DB08001DC0DAFF3B0EDF16000E116E050E106EFB
:10DB18001CC012F01DC013F0000E156E020E146E1C
:10DB280042EC9FF006D01CC0D9FF1DC0DAFF3B0EA7
:10DB3800DF160D0134510F0B186E1850010D260E0B
:10DB4800F324196E0F0EF4201A6E19C0D9FF1AC0EB
:10DB5800DAFFFE0EDF16120098D0EB0E12003C0E14
:10DB68001200900E1200200EF66EA30EF76E000E35
:10DB7800F86E0800F5501200210EF66EA30EF76E2F
:10DB8800000EF86E0800F5501200220EF66EA30E75
:10DB9800F76E000EF86E0800F5501200230EF66EB0
:10DBA800A30EF76E000EF86E0800F5501200240E52
:10DBB800F66EA30EF76E000EF86E0800F550120010
:10DBC800250EF66EA30EF76E000EF86E0800F550DF
:10DBD8001200260EF66EA30EF76E000EF86E080001
:10DBE800F5501200270EF66EA30EF76E000EF86EB3
:10DBF8000800F5501200000E1200020E1200010E6D
:10DC08001200010E1200000E1200010E1200400E4A
:10DC18001200000E1200FF0E12001F0E1200F80E66
:10DC28001200200E1200000E12003F0E1200000E0D
:10DC38001200100E1200000E1200000E1200000E4C
:10DC48001200000E1200000E1200010E1200000E4B
:10DC58001200220E1200000E1200000E1200460ED4
:10DC68001200410E1200540E1200310E1200360E30
:10DC78001200200E1200200E1200200E1200550E67
:10DC88001200AA0E1200000E120060C062F061C0FD
:10DC980063F000016351000AD8B404D0010AD8B473
:10DCA8008DD0F1D76251000AD8B457D7010AD8B439
:10DCB80056D7030AD8B455D7010AD8B454D7070A97
:10DCC800D8B45AD7010AD8B460D7030AD8B466D7EB
:10DCD800010AD8B46CD70F0AD8B472D7010AD8B4DD
:10DCE80078D7030AD8B47ED7010AD8B484D7070AEC
:10DCF800D8B483D7010AD8B482D7030AD8B481D755
:10DD0800010AD8B480D71F0AD8B47FD7010AD8B47B
:10DD18007ED7030AD8B47DD7010AD8B47CD7070ABE
:10DD2800D8B47BD7010AD8B47AD7030AD8B479D73C
:10DD3800010AD8B478D70F0AD8B477D7010AD8B46B
:10DD480076D7030AD8B475D7010AD8B474D7070AA6
:10DD5800D8B473D7010AD8B472D7030AD8B471D724
:10DD6800010AD8B470D7370AD8B46FD7010AD8B423
:10DD78006ED7050AD8B46DD7010AD8B46CD7030A90
:10DD8800D8B46BD7010AD8B468D7190AD8B467D7FA
:10DD9800010AD8B466D70F0AD8B465D7010AD8B42F
:10DDA80064D7030AD8B463D7010AD8B462D7070A7C
:10DDB800D8B461D7010AD8B460D765D76251FE0AD2
:10DDC800D8B45DD7010AD8B45CD75DD7200E5D18EA
:10DDD800D8A41200A0981CD101013F514011D8B419
:10DDE80006D03FC1D9FF40C1DAFFDFBE20D1000E07
:10DDF8000001B16F1E0EB16501D014D0B151010DF3
:10DE0800400EF324D96E0D0EF420DA6EB151010DD7
:10DE1800000EF324E16E020EF420E26EDFCFE7FF7E
:10DE2800B12BE8D7010120EE01F03F51D92640512E
:10DE3800DA221F0EDE18D8A475D0550E020100197B
:10DE480071E1530E01196EE1420E02196BE1430EA6
:10DE58000319D8A467D0010E01014E6F02010D51BC
:10DE6800D8A453D0110E0E6150D00E51D8B44DD055
:10DE78000CC2ACF03F0E0001AC17D8A446D0550E2A
:10DE88000D01806F530E816F420E826F530E836FA8
:10DE980004C284FD05C285FD06C286FD07C287FD52
:10DEA800000E886F000E896F000E8A6F000E8B6F50
:10DEB800000E8C6F01015569000E546F000E536FF0
:10DEC800000E526F030E02010F19D8B408D0219129
:10DED800219321952197000E2B6F000E2C6F0CAF0C
:10DEE80002D0010E01D0020E0101566F0201085145
:10DEF80009110A110B11D8B402D0000E01D0010E7D
:10DF080001014F6F0FC255F192D0010E0001606FF1
:10DF1800020E82EC89F0000E0001606F020E82ECA6
:10DF280089F085D0010E0001606F020E82EC89F045
:10DF3800000E0001606F020E82EC89F0000E0101F4
:10DF48004E6F75D0F2EC83F0FF0AD8A470D011D0D0
:10DF5800F2EC83F0FF0AD8A46AD00D018C51D8A442
:10DF680008D0885189118A118B11D8B402D0020EB9
:10DF78008C6F030E3ED00DC1ADF00EC1AEF00001A6
:10DF8800AD51AE11D8B40AD00DC1AFF00EC1B0F08A
:10DF9800AFC0D9FFB0C0DAFFDFBE49D0010E606F55
:10DFA800800E616F0D0E626F0D0E636F020E07EC2F
:10DFB8008AF060C03DF161C03EF101013F5140115E
:10DFC800D8B406D03FC1D9FF40C1DAFFDFBE10D0B8
:10DFD800000E0001606F400E616F0D0E626F400E03
:10DFE800636F020E07EC8AF060C03FF161C040F138
:10DFF800000E0101566F1BD0000E566F020E0D0168
:10E008008C6F000E0001606F020E82EC89F00FD059
:10E0180001015651000AD8B4DFD6010AD8B492D704
:10E02800030AD8B495D7010AD8B4A5D7E5D7A088EC
:10E0380012000001B76FC30E00018F6F000E906FC2
:10E04800B75106ECA1F00001B86FB851D8A412007E
:10E05800A151DF5DA251E059A351E159A451E25900
:10E06800D8A01200A551A125A96FA651A221AA6F77
:10E07800000EA321AB6F000EA421AC6FA951DF5D88
:10E08800AA51E059AB51E159AC51E259D8B00ED080
:10E09800A1C0A9F0A2C0AAF0A91FAA1FA94BAA2B28
:10E0A800DF51A925A56FE051AA21A66FDDC097F021
:10E0B800DEC098F0A1C0A9F0A2C0AAF0A3C0ABF03E
:10E0C800A4C0ACF00A0E05D0D890AC33AB33AA3359
:10E0D800A933E82EF9D7A9C099F0AAC09AF0DBECC9
:10E0E8009AF097C0B9F098C0BAF0000E0001A115D7
:10E0F800BF6FFE0EA215C06FFF0EA315C16FFF0EF6
:10E10800A415C26FBFC0A9F0C0C0AAF0A91FAA1F5A
:10E11800A94BAA2BA151A925BB6FA251AA21BC6F5B
:10E12800000EBF6F000EC06F000EC16F000EC26FF1
:10E1380089D0020EBC19BB11D8A40FD0B9C08FF07A
:10E14800BAC090F079ECA6F08FC0B9F090C0BAF0E0
:10E15800000E0001BC6F000EBB6FB9C060F0BAC002
:10E1680061F06DECAFF060C0B5F061C0B6F0BBC057
:10E17800A9F0BCC0AAF00001A91FAA1FA94BAA2B8D
:10E18800000EA925BD6F020EAA21BE6FBD51A96F51
:10E19800BE51AA6FAB6BAC6BBFC0ADF0C0C0AEF0E8
:10E1A800C1C0AFF0C2C0B0F0AD1FAE1FAF1FB01FEF
:10E1B800AD2B000EAE23AF23B023A551AD25B16F13
:10E1C800A651AE21B26F000EAF21B36F000EB02181
:10E1D800B46FA951B15DAA51B259AB51B359AC5101
:10E1E800B459D8B00ED0BFC0A9F0C0C0AAF0A91FBA
:10E1F800AA1FA94BAA2BA551A925BD6FA651AA21D3
:10E20800BE6FB5C07FF0B6C080F0BBC081F0BCC0A7
:10E2180082F0BDC083F0BEC084F0BF51A725856FD2
:10E22800C051A821866F13ECA3F00001BD51BF2790
:10E23800BE51C023000EC123000EC223BD51BB270F
:10E24800BE51BC23A551A96FA651AA6FAB6BAC6B8D
:10E25800A951BF5DAA51C059AB51C159AC51C2595E
:10E26800D8B0120066D7A1C0AFF0A2C0B0F0A3C06A
:10E27800B1F0A4C0B2F00A0E06D00001D890B233B3
:10E28800B133B033AF33E82EF8D7AFC0C1F0B0C068
:10E29800C2F0ADC0D9FFAEC0DAFFDE50C15DDE50BE
:10E2A800C259D8B002D0FF0E1200ABC0D9FFACC023
:10E2B800DAFFDECF97F0DDCF98F0ADC0D9FFAEC062
:10E2C800DAFFDECFAFF0DDCFB0F0AF1FB01FAF4B3E
:10E2D800B02BC151AF25996FC251B0219A6FDBECB9
:10E2E8009AF0ABC0D9FFACC0DAFF000197C0DEFFDF
:10E2F80098C0DDFFADC0D9FFAEC0DAFFC1C0DEFFF8
:10E30800C2C0DDFFABC0D9FFACC0DAFFDECFBDF0C5
:10E31800DDCFBEF0C1C0AFF0C2C0B0F0090ED890DA
:10E32800AF37B037E82EFBD7AFC0C5F0B0C0C6F0E6
:10E33800C76BC86BC5C0AFF0C6C0B0F0AF1FB01F89
:10E34800AF4BB02BA151AF25BF6FA251B021C06F09
:10E35800000EC56F000EC66F000EC76F000EC86FA7
:10E3680089D0020EC019BF11D8A40FD0BDC08FF03C
:10E37800BEC090F079ECA6F08FC0BDF090C0BEF0A2
:10E38800000E0001C06F000EBF6FBDC060F0BEC0C0
:10E3980061F06DECAFF060C0BBF061C0BCF0BFC015
:10E3A800AFF0C0C0B0F00001AF1FB01FAF4BB02B33
:10E3B800000EAF25C36F020EB021C46FC351AF6FFB
:10E3C800C451B06FB16BB26BC5C0B3F0C6C0B4F086
:10E3D800C7C0B5F0C8C0B6F0B31FB41FB51FB61F8D
:10E3E800B32B000EB423B523B623A551B325B76FBD
:10E3F800A651B421B86FA751B521B96FA851B6215C
:10E40800BA6FAF51B75DB051B859B151B959B2519E
:10E41800BA59D8B00ED0C5C0AFF0C6C0B0F0AF1F63
:10E42800B01FAF4BB02BA551AF25C36FA651B0217C
:10E43800C46FBBC087F0BCC088F0BFC089F0C0C043
:10E448008AF0C3C08BF0C4C08CF0C551A9258D6F6C
:10E45800C651AA218E6F3AECAEF00001C351C52710
:10E46800C451C623000EC723000EC823C351BF27BB
:10E47800C451C023A551C55DA651C659A751C75956
:10E48800A851C859D8A06DD7000E1200AA0E0001D5
:10E49800706F000E716F9FC072F0A0C073F0000E15
:10E4A800756F0A0E746F98ECAAF0AA0E0001606FDF
:10E4B800000E616F3EECABF000016051B46FA0AF8D
:10E4C80054D0B4510008A125020FB56FB551800A88
:10E4D8007F0FD8A090D0A1C0B6F0B629D8B442D04A
:10E4E800B651B5BF04D0FF0AB525D8B02AD0B5C0FB
:10E4F800A4F0A56BA4BFA507A41FA51FA44BA52B1B
:10E50800B651A66FA76BA451A627A551A723010E44
:10E51800A627000EA723AA0EA625D96E000EA721AE
:10E52800DA6EB651A86FA96B010EA827000EA923B1
:10E53800AA0EA825E16E000EA921E26EDFCFE7FF43
:10E548000FD0B651A46FA56B010EA427000EA5230A
:10E55800AA0EA425D96E000EA521DA6E300EDF6E44
:10E56800B607BBD7A151020F45D0B4510008A12569
:10E57800A46FA429B56FB551800A7F0FD8A03BD0EE
:10E58800A1C0B6F0B629D8B434D0B651B5BF04D0BE
:10E59800FF0AB525D8B021D0B5C0A4F0A56BA4BF9B
:10E5A800A507A41FA51FA44BA52BB651A66FA76B43
:10E5B800A451A627A551A723AA0EA625D96E000EF9
:10E5C800A721DA6EB651010DAA0EF324E16E000EF2
:10E5D800F420E26EDFCFE7FF0AD0B651010DAA0E94
:10E5E800F324D96E000EF420DA6E300EDF6EB60713
:10E5F800C9D7A129B46FA1510008B425A46FA405F7
:10E60800A16F000EB66F23D0B651010DAA0EF324E8
:10E61800D96E000EF420DA6EB651010DF350A22522
:10E62800E16EF450A321E26EDFCFE7FFA151B619E6
:10E63800D8A40CD0B62BB651010DF350A225D96E33
:10E64800F450A321DA6E2E0EDF6E1ED0B62BB45115
:10E65800B65DD8B019D0D8D7B651010DAA0EF3249B
:10E66800D96E000EF420DA6EB651A46FA56B010EB8
:10E67800A427000EA523A451A225E16EA551A3212C
:10E68800E26EDFCFE7FFB62BB451B65DD8A0E4D772
:10E69800B651A46FA56B010EA427000EA523A451A3
:10E6A800A225D96EA551A321DA6E000EDF6E1200E5
:10E6B8006BC0D9FF6CC0DAFF100EDF6E000120EED0
:10E6C80001F06B51D9266C51DA22BC0EDF6E20EEB8
:10E6D80002F06B51D9266C51DA22260EDF6E20EE3D
:10E6E80003F06B51D9266C51DA22000EDF6E20EE52
:10E6F80004F06B51D9266C51DA22060EDF6E20EE3B
:10E7080005F06B51D9266C51DA22030EDF6E20EE2C
:10E7180006F06B51D9266C51DA2264C1DFFF20EE76
:10E7280007F06B51D9266C51DA2265C1DFFF20EE64
:10E7380008F06B51D9266C51DA2266C1DFFF20EE52
:10E7480009F06B51D9266C51DA2267C1DFFF20EE40
:10E758000AF06B51D9266C51DA2268C1DFFF20EE2E
:10E768000BF06B51D9266C51DA2269C1DFFF20EE1C
:10E778000CF06B51D9266C51DA226AC1DFFF0D0EFD
:10E788006B25606F000E6C21616F6B0E626F010E5E
:10E79800636F000E656F040E646FADECA4F0110E8C
:10E7A80000016B25606F000E6C21616F710E626F46
:10E7B800010E636F000E656F040E646FADECA4F07C
:10E7C800000120EE15F06B51D9266C51DA2273C185
:10E7D800DFFF20EE16F06B51D9266C51DA228BC17F
:10E7E800DFFF20EE17F06B51D9266C51DA228CC16D
:10E7F800DFFF20EE18F06B51D9266C51DA220101A7
:10E808008D51DF6E000120EE19F06B51D9266C5145
:10E81800DA228EC1DFFF20EE1AF06B51D9266C5137
:10E82800DA2201018F51DF6E000120EE1BF06B51DF
:10E83800D9266C51DA2293C1DFFF20EE1CF06B5110
:10E84800D9266C51DA2294C1DFFF20EE1DF06B51FE
:10E85800D9266C51DA2274C1DFFF20EE1EF06B510D
:10E86800D9266C51DA2288C1DFFF20EE1FF06B51E8
:10E87800D9266C51DA2201018951DF6E000120EEA0
:10E8880020F06B51D9266C51DA226FC1DFFF20EEE0
:10E8980021F06B51D9266C51DA2201017051DF6EDB
:10E8A800000120EE22F06B51D9266C51DA22BDC14D
:10E8B800DFFF2A0E6B25606F000E6C21616F950ECD
:10E8C800626F010E636F000E656F160E646FADEC1C
:10E8D800A4F01200DFD011C220F112C21FF113C23E
:10E8E8001EF114C21DF116C238F117C237F13751A3
:10E8F8000001956F010138510001966F976B986B75
:10E90800090ED8909537963797379837E82EF9D764
:10E9180095C06AF096C06BF097C06CF098C06DF027
:10E9280062EC87F00009D8A4C7D0010E0101546F2A
:10E9380037513811D8A402D0000E4AD03707D8A0D2
:10E948003807020E546F3D513E11D8B406D03DC170
:10E95800D9FF3EC1DAFFDFBEAFD0AEC28BF0AFC287
:10E968008CF01DC18DF01EC18EF01FC18FF020C12B
:10E9780090F0000E0001916F060E926F22EEA5F046
:10E9880001D80AD00500FA6EDE50FD6EDE50FE6E2C
:10E99800DE50FF6EFA501200E806D8B41BD0640EA1
:10E9A8000101526102D0522B87D0020E0D018C6FEB
:10E9B80002012151F00B0309216F000E2B6F000E8D
:10E9C8002C6F010E0001606F020E82EC89F05FD09F
:10E9D800546F72D0010E01011D27000E1E231F2344
:10E9E8002023000E0D01886F020E896F000E8A6FBA
:10E9F800000E8B6F000E0101416F060E426F030E71
:10EA0800546F0D01885189118A118B11D8A402D035
:10EA1800010E3ED0040E0101546F3D513E11D8B491
:10EA280006D03DC1D9FF3EC1DAFFDFBE45D0010E99
:10EA38000001606F41C161F042C162F0400E636F36
:10EA4800020E07EC8AF060C03DF161C03EF1030E92
:10EA58000101546F400E0201085F000E095B0A5B5A
:10EA68000B5B400E0D01885F000E895B8A5B8B5B38
:10EA7800400E01014127000E42231ED0020E0D0157
:10EA88008C6F010E0001606F020E82EC89F0000E9F
:10EA980001019ED701015451000AD8B41CD7010ABC
:10EAA800D8B446D7030AD8B44ED7010AD8B4A9D7E0
:10EAB800070AD8B4B2D7E2D7010154511200C4CF23
:10EAC80093F00001946B9351946F936BC35093131D
