:020000040000FA
:0490000047EF48F0FE
:109008005B82FACF4DF0FBCF4EF0E9CF4FF0EACFBD
:1090180050F0E1CF51F0E2CF52F0D9CF53F0DACF90
:1090280054F0F3CF55F0F4CF56F0F6CF57F0F7CF12
:1090380058F0F8CF59F0F5CF5AF02CEC72F09EB2F8
:109048002FEC5FF0F2B4D9EC8EF05AC0F5FF59C09E
:10905800F8FF58C0F7FF57C0F6FF56C0F4FF55C0D9
:10906800F3FF54C0DAFF53C0D9FF52C0E2FF51C02A
:10907800E1FF50C0EAFF4FC0E9FF4EC0FBFF4DC003
:10908800FAFF5B921100A0EF86F00008000C0010B8
:10909800001300160019001C001E002100230026E2
:1090A8000028002A002C002E003000320034003640
:1090B8000038003A003C003D003F004100430045B5
:1090C800004600480049004B004D004E005000513A
:1090D80000530054005600570059005A005C005DC8
:1090E800005F00600062006300640066006700695A
:1090F800006A006C006D006E0070007100720073F1
:109108000074007600780079007A007B007D007E8C
:10911800007F008200850087008A008C008F009104
:10912800009200940098009A009C009E00A100A361
:1091380000A500A700AA00AC00AF00B200B400B7B9
:1091480000B800BA00BC00BE00C000C300C400C61E
:1091580000C800CA00CC00CE00D000D200D400D68F
:1091680000D800D900DB00DD00DF00E100E200E507
:1091780000E700E800EA00EC00EE00EF00F200F380
:1091880000F500F700F800FB00FD000001030104F2
:109198000107010A010C010F01120114011701193D
:1091A800011C011E0121012301250129012B012C8C
:1091B800012E0132013401360138013B013D013FE6
:1091C800014301460148014A014C014F0151015434
:1091D80001560159015B015E016001630166016985
:1091E800016B016E017101740177017A017D0180C3
:1091F80001830187018A018D019101940198019BE6
:10920800019F01A301A601AA01AE01B201B601BAEC
:1092180001BE01C301C701CC01D001D501D901DECE
:1092280001E301E801ED01F301F801FE0103020980
:10923800020F0215021B02210227022E0235023CF0
:109248000243024A0251025902610269027102791B
:109258000282028B0294029E02A702B102BC02C6DD
:1092680002D102DC02DC02DF02E202E502E802EBE4
:1092780002EE02F102F402F702FA02FD0200030410
:109288000307030A030D031103140317031A031E2C
:10929800032103250328032C032F03330336033A42
:1092A800033E034103450349034D03500354035848
:1092B800035C036003640368036C0370037403793D
:1092C800037D03810385038A038E03930397039C1D
:1092D80003A003A503AA03AE03B303B803BD03C2E7
:1092E80003C603CC03D103D603DB03E003E503EB9A
:1092F80003F003F603FB03010406040C041204172D
:10930800041D04230429042F0436043C04420448A1
:10931800044F0455045C0463046A04700477047EF3
:109328000485048D0494049B04A304AA04B204BA1B
:1093380004C204C904D204DA04E204EA04F304FC13
:109348000404050D0516051F05280532053B0545CE
:10935800054F05590563056D05770582058C059749
:1093680005A205AD05B905C405D005DC05E805F479
:109378000501060E061A0628063506430650065E3F
:10938800066D067B068A069906A906B806C806D899
:1093980006E906FA060B071C072E0740075307665F
:1093A8000779078D07A107B607CB07E007F6070C73
:1093B8000823083B0853086B0884089E08B808D39C
:1093C80008EF080B092809450964098309A309C49A
:1093D80009E609080A2C0A510A770A9D0AC50AEF04
:1093E8000A190B450B720B720B7D0B890B940BA0A2
:1093F8000BAC0BB80BC40BD00BDC0BE90BF50B0259
:109408000C0E0C1B0C280C350C420C4F0C5D0C6A16
:109418000C770C850C930CA10CAF0CBD0CCB0CD9A4
:109428000CE80CF70C050D140D230D320D420D51EF
:109438000D610D700D800D900DA00DB10DC10DD2F7
:109448000DE30DF30D050E160E270E390E4B0E5CAF
:109458000E6F0E810E930EA60E010002000300048B
:1094680000050006000700080009000A000B000CB0
:10947800000D000E000F0010001100120013001460
:1094880000150016001700180019001A001B001C10
:10949800001D001E001F00200021002200230024C0
:1094A80000250026002700280029002A002B002C70
:1094B800002D002E002F0030003100320033003420
:1094C80000350036003700380039003A003B003CD0
:1094D800003D003E003F004000410042004300457F
:1094E80000470049004B004D004F00510053005504
:1094F80000570059005B005D005F00610063006574
:1095080000670069006B006E0070007300750077DB
:109518000079007B007D007F008100830085008743
:109528000089008B008D008F0091009300950097B3
:109538000099009B009D009F00A100A300A500A723
:1095480000A900AB00AD00AF00B100B300B500B793
:1095580000B900BB00BD00C000C300C600C900CCF4
:1095680000CF00D200D500D800DB00DE00E100E427
:1095780000E700EA00ED00F000F300F600F900FC57
:1095880000FF000201050108010B010E0111011481
:109598000117011A011D012001230126012A012DAD
:1095A800013001330137013A013E014201450149C9
:1095B800014D015101550159015D01610166016AC1
:1095C800016E01730178017D01820187018C01918F
:1095D8000196019C01A101A701AD01B301B901BF29
:1095E80001C601CC01D301DA01E101E801F001F77C
:1095F80001FF0107020F02180221022A0233023D6D
:1096080002470251025C02670272027E028A0297D6
:1096180002A402B202C002CF02DF02EF02FF02116F
:10962800032303360349035E0373038903A103B9C4
:1096380003D303DD03E403EA03F103F803FF03069E
:10964800040D0415041C0424042B0433043B0442B5
:10965800044A0452045A0463046B0474047C0485A9
:10966800048E0496049F04A904B204BB04C504CE66
:1096780004D804E204EC04F60400050B05150520E3
:10968800052B05360541054C05580564056F057B16
:109698000587059405A005AD05BA05C705D405E2FB
:1096A80005EF05FD050B061906280637064606557B
:1096B800066406740684069406A406B506C606D78C
:1096C80006E906FA060C071F073107440758076B17
:1096D800077F079307A807BD07D207E807FE071506
:1096E800082C0843085B0873088B08A508BE08D82F
:1096F80008F2080D092909450961097E099C09BA7A
:1097080009D909F909190A390A5B0A7D0A9F0AC3A6
:109718000AE70A0C0B310B580B7F0BA70BD00BFA7F
:109728000B250C510C7E0CAB0CDA0C0A0D3B0D6DA5
:109738000DA00DD40D0A0E410E790EB30EEE0E2AB1
:109748000F680FA80FE90F2C107010B610FE104804
:10975800119411E21132128512D91230138913E5CE
:10976800134414A51409157015DA154716B8162BE5
:1097780017A3171E189D182119A819341AC41A5AA4
:109788001BF41B941C391DE41D951E4C1F0A20CE8A
:10979800209A216E224A232E241B25122612271DC9
:1097A800283229532A812BBB2C032E5A2FC030363E
:1097B80032BD335735F5356136CD363B37AA371BC1
:1097C800388C3800397439EA39623ADB3A553BD17A
:1097D8003B4E3CCD3C4E3DD03D543EDA3E613FEAE7
:1097E8003F744001418F411F42B1424543DB4373FF
:1097F800440D45A9454746E74689472E48D5487E42
:1098080049294AD74A874B3A4CEF4CA64D614E1E20
:109818004FDD4FA05065512D52F852C65397546BE7
:109828005542561C57FA570C070504040303030254
:10983800020202020201010101010101010101010B
:109848000101010101010101010101010101010100
:1098580001010101010101010101010101010101F0
:1098680001010101010101010101010101010101E0
:1098780001010101010101010101010101010101D0
:1098880001010000000000000000000000000000CE
:1098980000000000000000000000000000000000C0
:1098A80000000000000000000000000000000000B0
:1098B80000000000000000000000000000000000A0
:1098C8000000000000000000000000000000000090
:1098D8000000000000000000000000000000000080
:1098E8000000000000000000000000000000000070
:1098F8000000000000000000000000000000000060
:10990800000000000000000000000000000000004F
:10991800000000000000000000000000000000003F
:10992800000000000000000000000000000000002F
:10993800000000000000000000000000000000001F
:10994800000000000000000000000000000000000F
:1099580000000000000000000000000000000000FF
:1099680000000000000000000000000000000000EF
:1099780000000000000000000000000000000000DF
:1099880000000000000000000000000000000000CF
:1099980000000000000000000000000000000000BF
:1099A80000000000000000000000000000000000AF
:1099B800000000000000000000000000000000009F
:1099C800000000000000000000000000000000008F
:1099D800000000000000000000000000000000007F
:1099E800000000000000000000000000000000006F
:1099F800000000000000000000000000000000005F
:109A08000000000000000000000000000000ECF270
:109A1800F6F4D2E8D2C0ECDCCFC3B9B0FCF2E8DF90
:109A2800D7D0CAC3BEB8B3AFAAA6A29F9B98959237
:109A38008F8C8A878583817F7D7B79777574727136
:109A48006F6E6C6B6A68676665646261605F5E5DB5
:109A58005C5B595756545351504F4E4C4B4A4948EA
:109A680047464544434241403FFEFBF8F6F3F0EEDB
:109A7800ECE9E7E5E3E0DEDCDAD8D7D5D3D1CFCE21
:109A8800CCCAC9C7C6C4C3C1C0BEBDBCBAB8B6B4C7
:109A9800B3B1AFAEACAAA9A7A6A4A3A1A09F9D9C51
:109AA8009B9A98979695949392908F8E8D8C8B8A8B
:109AB800898887868584838281807F7E7D7C7B7A86
:109AC800797877767574737271706F6E6D6C6B6A76
:109AD800696867666564636261605F5E5D5C5B5A66
:109AE800595857565554535251504F4E4D4C4B4A56
:109AF800494847464544434241403FFFFEFDFCFB81
:109B0800FAF9F8F7F6F5F4F3F2F1F0EFEEEDECEB25
:109B1800EAE9E8E7E6E5E4E3E2E1E0DFDEDDDCDB15
:109B2800DAD9D8D7D6D5D4D3D2D1D0CFCECDCCCB05
:109B3800CAC9C8C7C6C5C4C3C2C1C0BFBEBDBCBBF5
:109B4800BAB9B8B7B6B5B4B3B2B1B0AFAEADACABE5
:109B5800AAA9A8A7A6A5A4A3A2A1A09F9E9D9C9BD5
:109B68009A999897969594939291908F8E8D8C8BC5
:109B78008A898887868584838281807F7E7D7C7BB5
:109B88007A797877767574737271706F6E6D6C6BA5
:109B98006A696867666564636261605F5E5D5C5B95
:109BA8005A595857565554535251504F4E4D4C4B85
:109BB8004A494847464544434241403FFFFEFDFC71
:109BC800FBFAF9F8F7F6F5F4F3F2F1F0EFEEEDEC55
:109BD800EBEAE9E8E7E6E5E4E3E2E1E0DFDEDDDC45
:109BE800DBDAD9D8D7D6D5D4D3D2D1D0CFCECDCC35
:109BF800CBCAC9C8C702020202020202020202025A
:109C0800020202020202020202020202020202022C
:109C1800020202020202020202020202020202021C
:109C2800020202020202020202020202020202020C
:109C380002020202020202020202020202020202FC
:109C480002020202020202020202020202020202EC
:109C580002020202020202020202020202020202DC
:109C680002020202020202020202020202020202CC
:109C780002020202020202020202020202020202BC
:109C880002020202020202020202020202020202AC
:109C9800020202020202020202020202020202029C
:109CA800020202020202020202020202020202028C
:109CB800020202020202020202020202020202027C
:109CC800020202020202020202020202020202026C
:109CD800020202020202020202020202020202025C
:109CE800020201010101010101010101010101015A
:109CF800010101010101010101010101010101014C
:109D0800010101010101010101010101010101013B
:109D1800010101010101010101010101010101012B
:109D2800010101010101010101010101010101011B
:109D3800010101010101010101010101010101010B
:109D480001010101010101010101010101010101FB
:109D580001010101010101010101010101010101EB
:109D680001010101010101010101010101010101DB
:109D780001010101010101010101010101010101CB
:109D880001010101010101010101010101010101BB
:109D980001010101010101010101010101010101AB
:109DA80001010100000000000000000000000000A8
:109DB800000000000000000000000000000000009B
:109DC800000000000000000000000000000000008B
:109DD800000000000000000000000000EDA1FEA04F
:109DE80032A1A1A1BEA04D616E75616C204D6F645A
:109DF8006520202020202020202043757272656E67
:109E08007420706F733A2020202020202001547580
:109E1800726E2043435720002053706565642020EC
:109E280020205374617274202020200020202020DC
:109E380020202020202052657475726E20746F20B7
:109E48005A65726F3F202020202043757272656E1C
:109E58007420706F733A202020202020202020209A
:109E680020202020202020202020202020202020EA
:109E78002020205965732020202020202020202009
:109E880020204E6F20204172633A2053697A653D45
:109E98002020202020202020202043757272656E0B
:109EA8007420706F733A20202020202020015475E0
:109EB800726E20434357200020537065656420204C
:109EC800202053746172742020202000202020203C
:109ED8002020202020204172633A2053657420619D
:109EE80072632073697A6520202041726320736948
:109EF8007A653A202020202020202020202053741A
:109F080065702073697A6520002020436F6E66694A
:109F1800726D202020202020202020200020204397
:109F2800616E63656C204469766964653A20202017
:109F380020202020202020202020506F733A20202D
:109F480020202020202020202020202020204A758A
:109F58006D702073697A653A202020202020202007
:109F680020205072657373546F4A756D70200020FD
:109F780043616E63656C4469766964653A2053652C
:109F880074206469766973696F6E20202020202010
:109F980020202020202020202020202020202020B9
:109FA800202F737465702020002020436F6E66692F
:109FB800726D3132333420202020202000202043AD
:109FC800616E63656C2053657475703A20536574CF
:109FD80020646972656374696F6E202020202020D8
:109FE8002020202020202020202020202020204346
:109FF8006F756E746572436C6F636B7769736520F8
:10A00800202020436C6F636B7769736520202020C4
:10A0180020202020202053657475703A20536574E1
:10A02800207A65726F20706F732E202020202020E8
:10A038002020202020202020202020202020537491
:10A0480065702073697A6520002020436F6E666909
:10A05800726D20782E78780120202020002020435F
:10A06800616E63656C204D61696E204D656E753A51
:10A078002020202020202020202020536574757067
:10A088002020202044697669646520202020204112
:10A0980072632020202020204D616E75616C202085
:10A0A800202020476F325A65726F20202020202000
:10A0B80020202020202009024000020100C032098F
:10A0C8000400000203000000092111010001221D03
:10A0D800000705810340000107050103400001094D
:10A0E800040100020806500007058202400001072B
:10A0F800050202400001340353006F006C00640045
:10A10800650072006E006500720064002E00630036
:10A118006F006D002000200020002000200020009B
:10A12800200020002000200020002E03530074008F
:10A13800650070007000650072004D006F007400CB
:10A148006F00720043006F006E00740072006F00B1
:10A158006C006C00650072000080040220000000A2
:10A168004D6963726F6368704D6173732053746FC8
:10A178007261676520202020303030310600FF09E9
:10A1880001A10119012940150026FF007508954015
:10A198008100190129409100C01A033100320033AF
:10A1A80000340035003600370038003900300039F7
:10A1B8000039001201000200000008D804CFED00A9
:10A1C80001010200010A000E010F110F001818000A
:10A1D800000000000004040404040404043D2A8070
:10A1E800A73D2A80A60403090468656C6C6F207774
:10A1F8006F726C642100536F6C617243686172679F
:10A20800720046494C4520202020004D53444F53AE
:10A21800352E300020202020202020200043616E91
:0FA2280063656C0053746F70200054585400002D
:10A238000001CD51D8A4D8EF58F0CF51D8A4D8EF09
:10A2480058F0CE51D8A4D8EF58F0D051D8B4120055
:10A25800D8EF58F0CE05D8B403D0D005D8A402D092
:10A26800110ED76FCFC09EF09F6B9EBF9F07CDC0CA
:10A27800A0F0A16BA0BFA1079E51A0279F51A123C9
:10A28800A1BF07D0A15103E1A005D8A002D0020EBA
:10A29800D76FCFC09EF09F6B9EBF9F07CDC0A0F029
:10A2A800A16BA0BFA1079E51A0279F51A123A1AFD9
:10A2B80001EF59F0050EC7EF58F0CE05D8B403D01A
:10A2C800D005D8A402D0310ED76FCFC09EF09F6BB7
:10A2D8009EBF9F07CDC0A0F0A16BA0BFA1079E5154
:10A2E800A0279F51A123A1BF07D0A15103E1A00539
:10A2F800D8A002D0030ED76FCFC09EF09F6B9EBF31
:10A308009F07CDC0A0F0A16BA0BFA1079E51A027B9
:10A318009F51A123A1AF01EF59F0010EC7EF58F0EB
:10A32800CE05D8B403D0D005D8A402D0510ED76F2B
:10A33800CFC09EF09F6B9EBF9F07CDC0A0F0A16BC2
:10A34800A0BFA1079E51A0279F51A123A1BF07D05D
:10A35800A15103E1A005D8A002D0040ED76FCFC049
:10A368009EF09F6B9EBF9F07CDC0A0F0A16BA0BFC2
:10A37800A1079E51A0279F51A123A1AF01EF59F03A
:10A38800020EC7EF58F0CE05D8B403D0D005D8A434
:10A3980002D0820ED76FCFC09EF09F6B9EBF9F07E3
:10A3A800CDC0A0F0A16BA0BFA1079E51A0279F51CF
:10A3B800A123A1BF07D0A15103E1A005D8A002D0D5
:10A3C800050ED76FCFC09EF09F6B9EBF9F07CDC075
:10A3D800A0F0A16BA0BFA1079E51A0279F51A12368
:10A3E800A1AF01EF59F0030EC7EF58F0CE05D8B46E
:10A3F80003D0D005D8A402D0710ED76FCFC09EF07D
:10A408009F6B9EBF9F07CDC0A0F0A16BA0BFA10707
:10A418009E51A0279F51A123A1BF07D0A15103E1BD
:10A42800A005D8A002D0010ED76FCFC09EF09F6BB9
:10A438009EBF9F07CDC0A0F0A16BA0BFA1079E51F2
:10A44800A0279F51A123A1AF01EF59F0040EC7EF38
:10A4580058F0D751010AD8B4FDD6030AD8B42DD77D
:10A46800010AD8B45DD7070AD8B48DD7010AD8B481
:10A47800BDD7F50A01EF59F0CE05D8A40ED0000ECD
:10A48800D16F000ED26F000ED36F000ED46F000E86
:10A49800E16F000EE06F210ED76FCD51800A7F0F5C
:10A4A800D8A002D0120ED76FCDAF1AD0120E0FD08F
:10A4B800CE05D8A402D0010ED76FCD51800A7F0FE8
:10A4C800D8A002D0110ED76FCDAF0AD0110ED76F1A
:10A4D80007D0D751110AD8B4CFD7030AD8B4E8D7D0
:10A4E800D005D8A40AD0DAC060F0DBC061F058EC1F
:10A4F80088F060C0DAF061C0DBF00001CF51800A5B
:10A508007F0FD8A019D0D851D8A416D0DAC08FF0B0
:10A51800DBC090F044EC8DF08FC097F090C098F0BD
:10A5280091C099F092C09AF0000E00019C6F000E45
:10A538009B6F010E44EC84F00001CFAF01EF59F09E
:10A54800D851D8A401EF59F0DAC08FF0DBC090F0F1
:10A5580044EC8DF08FC097F090C098F091C099F0BE
:10A5680092C09AF0000E00019C6F000E9B6FFF0EC8
:10A5780044EC84F001EF59F00001CE05D8B403D0C3
:10A58800D005D8A41FD024C197F025C198F0996BA5
:10A598009A6B000E9C6F000E9B6F010E44EC84F0CA
:10A5A80024C197F025C198F00001996B9A6B000EB1
:10A5B8009C6F000E9B6FFF0E44EC84F00001DC6979
:10A5C800010ED76FCFC09EF09F6B9EBF9F07CDC077
:10A5D800A0F0A16BA0BFA1079E51A0279F51A12366
:10A5E800A1BF07D0A15103E1A005D8A002D0220E37
:10A5F800D76FCFC09EF09F6B9EBF9F07CDC0A0F0C6
:10A60800A16BA0BFA1079E51A0279F51A123A1AF75
:10A6180001EF59F0220EC7EF58F0CE05D8B403D099
:10A62800D005D8A420D024C197F025C198F0996B03
:10A638009A6B000E9C6F000E9B6FFF0E44EC84F02B
:10A6480024C197F025C198F00001996B9A6B000E10
:10A658009C6F000E9B6F010E44EC84F0010E00010C
:10A66800DC6F010ED76FCFC09EF09F6B9EBF9F0718
:10A67800CDC0A0F0A16BA0BFA1079E51A0279F51FC
:10A68800A123A1BF07D0A15103E1A005D8A002D002
:10A69800210ED76FCFC09EF09F6B9EBF9F07CDC086
:10A6A800A0F0A16BA0BFA1079E51A0279F51A12395
:10A6B800A1AF01EF59F0210EC7EF58F00001D751B3
:10A6C800210AD8B459D7030AD8B4A7D701EF59F04B
:10A6D800CE05D8A402D0410ED76FCD51800A7F0F86
:10A6E800D8A002D0320ED76FCDAF1AD0320E0FD00D
:10A6F800CE05D8A402D0020ED76FCD51800A7F0FA5
:10A70800D8A002D0310ED76FCDAF0AD0310ED76F97
:10A7180007D0D751310AD8B4DBD7030AD8B4E8D761
:10A72800D005D8A405D0DF5113EC90F00001DF6FFD
:10A73800CF51800A7F0FD8A004D0DF51DD27000E4B
:10A74800DE23CFAF01EF59F0DF519E6F9F6BDD51D4
:10A758009E5D9F51800AA06FDE51800AA059D8B033
:10A7680006D0DF51DD5F000EDE5B01EF59F0000E11
:10A77800DE6F010EDD6F01EF59F0CE05D8A402D0CF
:10A78800020ED76FD005D8A493D1E3BF18D0E351F8
:10A7980003E1E205D8A013D0E251E025AA6FE35106
:10A7A800E121AB6FDD51AA5DDE51AB59D8A019D0BC
:10A7B80020EEDDF0DE50AA5FDD50AB5B12D0E25137
:10A7C800E025AA6FE351E121AB6FDD51AA5DDE51AF
:10A7D800AB59D8A006D020EEDDF0DE50AA27DD5018
:10A7E800AB231FC160F020C161F021C162F022C11A
:10A7F80063F0000E8AEC71F060C0B0F061C0B1F097
:10A8080062C0B2F063C0B3F0B0C06EF0B1C06FF018
:10A81800B2C070F0B3C071F0AAC060F0ABC061F014
:10A828000001626B636B000E8AEC71F060C072F01D
:10A8380061C073F062C074F063C075F0F5EC63F04A
:10A848006EC0B0F06FC0B1F070C0B2F071C0B3F0BC
:10A85800B0C06EF0B1C06FF0B2C070F0B3C071F0AC
:10A8680020EEDDF0DECF60F0DDCF61F00001000EFC
:10A8780061BFFF0E626F636F010E8AEC71F060C0FA
:10A8880072F061C073F062C074F063C075F00CECD4
:10A8980067F06EC0B0F06FC0B1F070C0B2F071C0B8
:10A8A800B3F0B0C060F0B1C061F0B2C062F0B3C044
:10A8B80063F005EC7DF060C0A6F061C0A7F062C04F
:10A8C800A8F063C0A9F0D1C09EF0D2C09FF0D3C059
:10A8D800A0F0D4C0A1F000019E1F9F1FA01FA11FC0
:10A8E8009E2B000E9F23A023A123A6519E25AC6F6B
:10A8F800A7519F21AD6FA851A021AE6FA951A121E9
:10A90800AF6F01011F510001AC2701012051000167
:10A91800AD23010121510001AE23010122510001A3
:10A92800AF2310D001011F510001AC5F010120517C
:10A938000001AD5B010121510001AE5B0101225113
:10A948000001AF5B1FC19EF020C19FF021C1A0F0A4
:10A9580022C1A1F0D890A133A0339F339E33AC51CC
:10A968009E5DAD519F59AE51A059A151800AA26F69
:10A97800AF51800AA259D8A0D5D7AFAF5CD0DC2997
:10A98800D8A421D0ACC09EF0ADC09FF0AEC0A0F05E
:10A99800AFC0A1F09E1F9F1FA01FA11F9E2B000EDE
:10A9A8009F23A023A1239EC097F09FC098F0A0C02A
:10A9B80099F0A1C09AF0000E9C6F000E9B6FFF0EDD
:10A9C80044EC84F071D0ACC09EF0ADC09FF0AEC036
:10A9D800A0F0AFC0A1F000019E1F9F1FA01FA11FE4
:10A9E8009E2B000E9F23A023A123010124510001C7
:10A9F8009E25976F0101255100019F21986F000E38
:10AA0800A021996F000EA1219A6F000E9C6F000E75
:10AA18009B6FFF0E44EC84F024C197F025C198F099
:10AA28000001996B9A6B000E9C6F000E9B6F010ED4
:10AA380044EC84F039D00001DC05D8A410D0ACC0B7
:10AA480097F0ADC098F0AEC099F0AFC09AF0000E84
:10AA58009C6F000E9B6F010E44EC84F025D0010121
:10AA680024510001AC25976F010125510001AD214A
:10AA7800986F000EAE21996F000EAF219A6F000EED
:10AA88009C6F000E9B6F010E44EC84F024C197F07C
:10AA980025C198F00001996B9A6B000E9C6F000E0F
:10AAA8009B6FFF0E44EC84F0AAC0E0F0ABC0E1F06D
:10AAB8000001CF51800A7F0FD8A01AD0E24BE32BB8
:10AAC800E251E311D8A404D0000EE36F010EE26F47
:10AAD800DD51E25DE351800A9E6FDE51800A9E5986
:10AAE800D8A006D0FF0EDD25E26FFF0EDE21E36F52
:10AAF800CFAF83D3E207D8A0E307E251E311D8A48C
:10AB080002D0E269E36920EEDDF0DECF9EF0DDCF12
:10AB18009FF09E1F9F1F9E4B9F2BE2519E5D9F5152
:10AB2800800AA06FE351800AA059D8A066D320EE0E
:10AB3800DDF0DECF9EF0DDCF9FF09E1F9F1F9E4B66
:10AB48009F2B010E9E25E26F000E9F21E36F55D3C8
:10AB5800CE05D8A402D0620ED76FCD51800A7F0FE0
:10AB6800D8A002D0520ED76FCDAF1AD0520E0FD048
:10AB7800CE05D8A402D0030ED76FCD51800A7F0F1F
:10AB8800D8A002D0510ED76FCDAF0AD0510ED76FD3
:10AB980007D0D751510AD8B4DBD7030AD8B4E8D7BD
:10ABA800D005D8A40AD0E4C060F0E5C061F090EC0C
:10ABB80088F060C0E4F061C0E5F00001CF51800A80
:10ABC8007F0FD8A01CD0E451E627E551E723000EFB
:10ABD800E823000EE923E9BF12D0E95108E1A10EEC
:10ABE800E65D860EE759010EE859D8A008D0A00EF8
:10ABF800E66F860EE76F010EE86F000EE96FCFAFC4
:10AC0800FCD2E4519E6FE5519F6FA06BA16B9E51E2
:10AC1800E65F9F51E75BA051E85BA151E95BE9BFA3
:10AC280007D0E951E811E71102E1E605D8B0E5D20D
:10AC3800010EE66F000EE76F000EE86F000EE96F79
:10AC4800DCD2CD51800A7F0FD8A015D001012C513C
:10AC58000001EA5D01012D510001EB59D8B002D085
:10AC6800EA4BEB2BD851D8B406D0EAC060F0EBC061
:10AC780061F0A5EC91F00001CDAF1DD1EA510101C1
:10AC8800265D0001EB5101012759D8B004D000011D
:10AC9800EA07D8A0EB070001D851D8B40CD1EAC014
:10ACA80060F0EBC061F0A5EC91F005D10001D00592
:10ACB800D8A46FD0E6C060F0E7C061F0E8C062F0E9
:10ACC800E9C063F0010E8AEC71F060C0B0F061C0B9
:10ACD800B1F062C0B2F063C0B3F0B0C06EF0B1C002
:10ACE8006FF0B2C070F0B3C071F01FC160F020C146
:10ACF80061F021C162F022C163F0000E8AEC71F0AC
:10AD080060C072F061C073F062C074F063C075F027
:10AD1800F5EC63F06EC0B0F06FC0B1F070C0B2F087
:10AD280071C0B3F0B0C06EF0B1C06FF0B2C070F0D7
:10AD3800B3C071F0000E0001726FA00E736F0C0E9D
:10AD4800746F470E756F0CEC67F06EC0B0F06FC093
:10AD5800B1F070C0B2F071C0B3F0B0C060F0B1C073
:10AD680061F0B2C062F0B3C063F005EC7DF060C082
:10AD780097F061C098F062C099F063C09AF0EAC099
:10AD88009BF0EBC09CF0FF0E44EC84F0620E0001D7
:10AD9800D76FCF51800A7F0FD8A02FD2620EF3D180
:10ADA800D005D8A407D0D851D8A48FEC8DF0030EC5
:10ADB8000001D76FCF51800A7F0FD8A002D0630E51
:10ADC800D76FCFAF1AD2610EDED1D005D8A46FD01D
:10ADD800E6C060F0E7C061F0E8C062F0E9C063F087
:10ADE800010E8AEC71F060C0B0F061C0B1F062C0D1
:10ADF800B2F063C0B3F0B0C06EF0B1C06FF0B2C0D3
:10AE080070F0B3C071F01FC160F020C161F021C1C2
:10AE180062F022C163F0000E8AEC71F060C072F03B
:10AE280061C073F062C074F063C075F0F5EC63F054
:10AE38006EC0B0F06FC0B1F070C0B2F071C0B3F0C6
:10AE4800B0C06EF0B1C06FF0B2C070F0B3C071F0B6
:10AE5800000E0001726FA00E736F0C0E746F470E18
:10AE6800756F0CEC67F06EC0B0F06FC0B1F070C0D9
:10AE7800B2F071C0B3F0B0C060F0B1C061F0B2C060
:10AE880062F0B3C063F005EC7DF060C097F061C07C
:10AE980098F062C099F063C09AF0EAC09BF0EBC0EA
:10AEA8009CF0010E44EC84F0620E0001D76FCFAF26
:10AEB800A4D1620E68D10001D751610AD8B4F6D680
:10AEC800030AD8B46DD7010AD8B47FD796D1D00574
:10AED800D8A4D9D0D151D211D311D411D8B4CCD04F
:10AEE8001FC19EF020C19FF021C1A0F022C1A1F096
:10AEF800D890A133A0339F339E33D1519E5DD25158
:10AF08009F59D351A059D451A159D8A039D0DC297F
:10AF1800D8A410D0D1C097F0D2C098F0D3C099F07F
:10AF2800D4C09AF0000E9C6F000E9B6FFF0E44EC8D
:10AF380084F0A2D0010124510001D125976F0101AD
:10AF480025510001D221986F000ED321996F000E70
:10AF5800D4219A6F000E9C6F000E9B6FFF0E44EC7D
:10AF680084F024C197F025C198F00001996B9A6B81
:10AF7800000E9C6F000E9B6F010E44EC84F07CD099
:10AF88000001DC05D8A42DD0D1C09EF0D2C09FF01E
:10AF9800D3C0A0F0D4C0A1F09E1F9F1FA01FA11F67
:10AFA8009E2B000E9F23A023A12301011F51000106
:10AFB8009E25976F0101205100019F21986F010183
:10AFC80021510001A021996F010122510001A12105
:10AFD8009A6F000E9C6F000E9B6F010E44EC84F07C
:10AFE8004BD0D1C09EF0D2C09FF0D3C0A0F0D4C047
:10AFF800A1F000019E1F9F1FA01FA11F9E2B000EE6
:10B008009F23A023A1230101245100019E25A26FA3
:10B018000101255100019F21A36F000EA021A46FFB
:10B02800000EA121A56F01011F510001A225976FF4
:10B03800010120510001A321986F01012151000154
:10B04800A421996F010122510001A5219A6F000ED8
:10B058009C6F000E9B6F010E44EC84F024C197F0A6
:10B0680025C198F00001996B9A6B000E9C6F000E39
:10B078009B6FFF0E44EC84F0050E0001D76F000EA5
:10B08800E16F000EE06FCE05D8A4B7D0050E7BD0D7
:10B09800CD51800A7F0FD8A012D001013051000194
:10B0A800ED5D010131510001EE59D8B008D0ED4BEA
:10B0B800EE2BEDC060F0EEC061F0A5EC91F0000160
:10B0C800CDAF63D0ED510101265D0001EE510101C4
:10B0D8002759D8B05AD00001ED07D8A0EE07EDC027
:10B0E80060F0EEC061F0A5EC91F04FD00001D00502
:10B0F800D8A412D0000E976F000E986F000E996FAB
:10B10800000E9A6FEDC09BF0EEC09CF0FF0E44EC71
:10B1180084F0840E0001D76FCF51800A7F0FD8A02A
:10B128006CD0820E30D0D005D8A402D0040ED76FD0
:10B13800CF51800A7F0FD8A002D0830ED76FCFAF30
:10B148005CD0810E20D0D005D8A411D0840ED76F42
:10B15800000E976F000E986F000E996F000E9A6F91
:10B16800EDC09BF0EEC09CF0010E44EC84F00001B1
:10B17800CFAF43D0820E07D0D005D8A43ED08FECF5
:10B188008DF0820E0001D76F38D00001D751810AA7
:10B19800D8B4ACD7030AD8B4C6D7010AD8B4D3D721
:10B1A800070AD8B4E9D729D0D751F00B9E6F9F6B07
:10B1B8009F51000AD8A421D09E51000AD8B42DEF7F
:10B1C80052F0100AD8B46DEF52F0300AD8B462EFDA
:10B1D80053F0100AD8B48DEF53F0700AD8B4C1EF09
:10B1E80053F0100AD8B4D5D4300AD8B42AD5100AE6
:10B1F800D8B46DD6F00AD8B44BD7000E0001CD6F85
:10B20800000ECF6F000ECE6F000ED06F1200F4EF5D
:10B218005EF0AD0E0001606F010E616F6E0E626F21
:10B22800A00E636F000E656F500E646F63EC8AF0BA
:10B238000FD03E0E0101C16F21EF5FF03E0E0101FC
:10B24800CA6F21EF5FF03E0E0101DE6F21EF5FF064
:10B258000001D751010AD8B4ECD7030AD8B4EED705
:10B26800010AD8B464D0070AD8B4EDD7010A6FD060
:10B27800AD0E606F010E616F1E0E626FA00E636FE0
:10B28800000E656F500E646F63EC8AF0DAC095F0BB
:10B29800DBC096F0020E0001976FBE0E986F000E8D
:10B2A800996F0CEC6CF0E80E0001DA5D030EDB59C7
:10B2B800D8A002D0000E01D0010EC86F000EC96FD1
:10B2C80018D0C951010DBE0EF324D96E000EF4201A
:10B2D800DA6EC951C8C0BCF0BD6BBC27000EBD23D7
:10B2E800E90EBC25E16E010EBD21E26EDFCFE7FF5E
:10B2F800C92BC951010DBE0EF324D96E000EF420DE
:10B30800DA6EDF50D8A4DDD70001D751110A8CD0EE
:10B31800AD0E606F010E616FCE0E626F9F0E636F90
:10B32800000E656F500E646F63EC8AF00AD03E0E13
:10B338000101D56F21EF5FF03E0E0101E96F21EFAA
:10B348005FF00001D751210AD8B4F1D7030AD8B465
:10B35800F3D721EF5FF0AD0E606F010E616F7E0EC7
:10B36800626F9F0E636F000E656F500E646F63EC23
:10B378008AF0DFC078F00001796B030E7A6FBE0E99
:10B388007B6F000E7C6F94EC7CF0000E0001C96F9F
:10B39800020EC96501D014D0C951010DBE0EF324A7
:10B3A800D96E000EF420DA6EC951010DD50EF324C2
:10B3B800E16E010EF420E26EDFCFE7FFC92BE8D77C
:10B3C800DDC078F0DEC079F0040E7A6FBE0E7B6FB8
:10B3D800000E7C6F94EC7CF0000E0001C96F030E28
:10B3E800C96501D01ED0C951010DBE0EF324D96E16
:10B3F800000EF420DA6EC951010DE90EF324E16E56
:10B40800010EF420E26EDFCFE7FFC92BE8D73E0E2E
:10B418000101E16F21EF5FF03E0E0101F56F21EFB1
:10B428005FF00001D751310AD8B4F1D7030AD8B474
:10B43800F3D721EF5FF0AD0E606F010E616F2E0E36
:10B44800626F9F0E636F000E656F500E646F63EC42
:10B458008AF0DDC078F0DEC079F0000E00017A6F66
:10B46800BE0E7B6F000E7C6F94EC7CF0000E00012A
:10B47800C96F18D0C951010DBE0EF324D96E000E44
:10B48800F420DA6EC951BC6FBD6B080EBC27000EE4
:10B49800BD23AD0EBC25E16E010EBD21E26EDFCFEE
:10B4A800E7FFC92BC951010DBE0EF324D96E000E5A
:10B4B800F420DA6EDF50D8A4DDD7C951BC6FBD6B5C
:10B4C800080EBC27000EBD23AD0EBC25D96E010E9B
:10B4D800BD21DA6E2C0EDF6EDC29D8A423D0C95129
:10B4E800BC6FBD6B0A0EBC27000EBD23AD0EBC257C
:10B4F800D96E010EBD21DA6E430EDF6EC951BC6FE5
:10B50800BD6B0B0EBC27000EBD23AD0EBC25D96E3E
:10B51800010EBD21DA6E430EDF6EC951BC6FBD6BE3
:10B528000C0E13D0C951BC6FBD6B0A0EBC27000EA0
:10B53800BD23AD0EBC25D96E010EBD21DA6E430EBA
:10B54800DF6EC951BC6FBD6B0B0EBC27000EBD234F
:10B55800AD0EBC25D96E010EBD21DA6E570EDF6E19
:10B56800E0C078F0E1C079F0000E7A6FBE0E7B6F14
:10B57800000E7C6F94EC7CF0000E0001C96F18D0AF
:10B58800C951010DBE0EF324D96E000EF420DA6EF7
:10B59800C951BC6FBD6B050EBC27000EBD23C10E83
:10B5A800BC25E16E010EBD21E26EDFCFE7FFC92B9E
:10B5B800C951010DBE0EF324D96E000EF420DA6EC7
:10B5C800DF50D8A4DDD7C951BC6FBD6B060EBC27B0
:10B5D800000EBD23C10EBC25D96E010EBD21DA6E49
:10B5E800280EDF6EC951070FC86FD5C0ADF0D6C0A1
:10B5F800AEF0AF6BB06B020EB16FBE0EB26F000E45
:10B60800B36F86EC77F0000E0001C96F18D0C951EE
:10B61800010DBE0EF324D96E000EF420DA6EC85167
:10B62800C9C0BCF0BD6BBC27000EBD23C10EBC2534
:10B63800E16E010EBD21E26EDFCFE7FFC92BC951D4
:10B64800010DBE0EF324D96E000EF420DA6EDF5021
:10B65800D8A4DDD7C851C9C0BCF0BD6BBC27000E4B
:10B66800BD23C10EBC25D96E010EBD21DA6E010EB7
:10B67800DF6EC851C9C0BCF0BD6BBC27000EBD232E
:10B68800010EBC27000EBD23C10EBC25D96E010ECC
:10B69800BD21DA6E290EDF6EE2C08FF0E3C090F0B4
:10B6A800BE0E916F000E926FD5EC8DF0000E00016A
:10B6B800C96F18D0C951010DBE0EF324D96E000E02
:10B6C800F420DA6EC951BC6FBD6B0B0EBC27000E9F
:10B6D800BD23D50EBC25E16E010EBD21E26EDFCF84
:10B6E800E7FFC92BC951010DBE0EF324D96E000E18
:10B6F800F420DA6EDF50D8B4A0D3DCD7AD0E606F7B
:10B70800010E616FDE0E626F9E0E636F000E656F35
:10B71800500E646F63EC8AF008D03E0E0101E16FB1
:10B728000CD03E0E0101F56F08D00001D751510A27
:10B73800D8B4F3D7030AD8B4F4D7E6C0ADF0E7C05D
:10B74800AEF0E8C0AFF0E9C0B0F0020E0001B16F92
:10B75800BE0EB26F000EB36F86EC77F0000E0001DC
:10B76800C96F18D0C951010DBE0EF324D96E000E51
:10B77800F420DA6EC951BC6FBD6B0A0EBC27000EEF
:10B78800BD23C10EBC25E16E010EBD21E26EDFCFE7
:10B79800E7FFC92BC951010DBE0EF324D96E000E67
:10B7A800F420DA6EDF50D8A4DDD7C951BC6FBD6B69
:10B7B8000A0EBC27000EBD23C10EBC25D96E010E92
:10B7C800BD21DA6E010EDF6EE4C095F0E5C096F09B
:10B7D800020E976FBE0E986F000E996F0CEC6CF00E
:10B7E800E80E0001E45D030EE559D8A002D0000E72
:10B7F80001D0010EC86F000EC96F18D0C951010DD4
:10B80800BE0EF324D96E000EF420DA6EC951C8C0FA
:10B81800BCF0BD6BBC27000EBD23E90EBC25E16E54
:10B82800010EBD21E26EDFCFE7FFC92BC951010D23
:10B83800BE0EF324D96E000EF420DA6EDF50D8A4C1
:10B84800DDD7C951C8C0BCF0BD6BBC27000EBD23F5
:10B85800E90EBC25D96E010EBD21DA6E010E5BD250
:10B86800AD0E606F010E616F8E0E626F9E0E636F7C
:10B87800000E656F500E646F63EC8AF025D0570E8A
:10B888000101DB6F200EDC6F27D0D50E0001606F41
:10B89800010E616F1C0E626FA20E636F000E656F62
:10B8A800080E646F63EC8AF0E90E0001606F010E08
:10B8B800616F250E626FA20E636F000E656F060E34
:10B8C800646F63EC8AF008D00001D751620AD8B4DB
:10B8D800DCD7010AD8B4D3D7E6C0ADF0E7C0AEF0E4
:10B8E800E8C0AFF0E9C0B0F0020E0001B16FBE0EC3
:10B8F800B26F000EB36F86EC77F0000E0001C96FCF
:10B9080018D0C951010DBE0EF324D96E000EF420D3
:10B91800DA6EC951BC6FBD6B0A0EBC27000EBD2381
:10B92800AD0EBC25E16E010EBD21E26EDFCFE7FF53
:10B93800C92BC951010DBE0EF324D96E000EF42097
:10B94800DA6EDF50D8A4DDD7C951BC6FBD6B0A0EC3
:10B95800BC27000EBD23AD0EBC25D96E010EBD213E
:10B96800DA6E010EDF6ED5C0ADF0D6C0AEF0AF6BAB
:10B97800B06B020EB16FBE0EB26F000EB36F86ECE5
:10B9880077F0BE0E0001606F000E616F7DEC8EF0E7
:10B99800000160510008060FC86F000EC96F1CD067
:10B9A800C951010DBE0EF324D96E000EF420DA6ED3
:10B9B800C951C8C0BCF0BD6BBC27000EBD230D0E1D
:10B9C800BC27000EBD23C10EBC25E16E010EBD21B2
:10B9D800E26EDFCFE7FFC92BC951010DBE0EF3247C
:10B9E800D96E000EF420DA6EDF50D8A4D9D7EAC099
:10B9F80093F0EBC094F05EEC91F093C095F094C096
:10BA080096F0020E0001976FBE0E986F000E996FA8
:10BA18000CEC6CF0000E0001C96F18D0C951010D73
:10BA2800BE0EF324D96E000EF420DA6EC951BC6F35
:10BA3800BD6B0B0EBC27000EBD23E90EBC25E16EC5
:10BA4800010EBD21E26EDFCFE7FFC92BC951010D01
:10BA5800BE0EF324D96E000EF420DA6EDF50D8A49F
:10BA6800DDD72DD1AD0E606F010E616F3E0E626F96
:10BA78009E0E636F000E656F500E646F63EC8AF064
:10BA8800D5C0ADF0D6C0AEF00001AF6BB06B020E02
:10BA9800B16FBE0EB26F000EB36F86EC77F0000E7A
:10BAA8000001C96F18D0C951010DBE0EF324D96E1B
:10BAB800000EF420DA6EC951BC6FBD6B0D0EBC27A9
:10BAC800000EBD23C10EBC25E16E010EBD21E26E44
:10BAD800DFCFE7FFC92BC951010DBE0EF324D96E84
:10BAE800000EF420DA6EDF50D8A4DDD7C951BC6F40
:10BAF800BD6B0D0EBC27000EBD23C10EBC25D96E33
:10BB0800010EAAD6AD0E606F010E616FEE0E626F68
:10BB18009D0E636F000E656F500E646F63EC8AF0C4
:10BB280044D0570E0101DB6F200EDC6F49D0D50ED3
:10BB38000001606F010E616F1C0E626FA20E636FD1
:10BB4800000E656F080E646F63EC8AF0E90E000161
:10BB5800606F010E616F250E626FA20E636F000E9B
:10BB6800656F060E646F63EC8AF02AD0D50E00016B
:10BB7800606F010E616F1C0E626FA20E636F000E84
:10BB8800656F080E646F63EC8AF0E90E0001606F60
:10BB9800010E616F2C0E626FA20E636F000E656F4F
:10BBA800050E646F63EC8AF00BD00001D751820A4E
:10BBB800D8B4BDD7010AD8B4B4D7070AD8B4D6D7F1
:10BBC800D5C0ADF0D6C0AEF00001AF6BB06B020EC1
:10BBD800B16FBE0EB26F000EB36F86EC77F0BE0E7B
:10BBE8000001606F000E616F7DEC8EF00001605106
:10BBF8000008070FC86F000EC96F1CD0C951010D8E
:10BC0800BE0EF324D96E000EF420DA6EC951C8C0F6
:10BC1800BCF0BD6BBC27000EBD230C0EBC27000E6C
:10BC2800BD23C10EBC25E16E010EBD21E26EDFCF42
:10BC3800E7FFC92BC951010DBE0EF324D96E000EC2
:10BC4800F420DA6EDF50D8A4D9D7EDC093F0EEC057
:10BC580094F05EEC91F093C095F094C096F0020ECB
:10BC68000001976FBE0E986F000E996F0CEC6CF088
:10BC7800000E0001C96F18D0C951010DBE0EF32482
:10BC8800D96E000EF420DA6EC951BC6FBD6B0B0E75
:10BC9800BC27000EBD23E90EBC25E16E010EBD21B7
:10BCA800E26EDFCFE7FFC92BC951010DBE0EF324A9
:10BCB800D96E000EF420DA6EDF50D8A4DDD7C95152
:10BCC800BC6FBD6B0B0EBC27000EBD23E90EBC2557
:10BCD800D96E010EBD21DA6E010EDF6EC951BC6F3F
:10BCE800BD6B0C0EBC27000EBD23E90EBC25D96E1A
:10BCF800010EBD21DA6E2F0EDF6EC951BC6FBD6B10
:10BD08000D0EBC27000EBD23E90EBC25D96E010E11
:10BD1800BD21DA6E730EDF6E90D06AEC8DF00001F3
:10BD2800CD51956F966B95BF9607000E976FAD0E28
:10BD3800986F010E996F0CEC6CF084A402D0480E39
:10BD480001D04C0E0101B56F84A002D0480E01D07D
:10BD58004C0EB66F0001CE51956F966B95BF960746
:10BD6800000E976FC10E986F010E996F0CEC6CF076
:10BD780084A202D0480E01D04C0E0101C96F000107
:10BD8800CF51956F966B95BF9607000E976FD50E9E
:10BD9800986F010E996F0CEC6CF080A002D0480EE1
:10BDA80001D04C0E0101DD6F80A402D0480E01D0F5
:10BDB8004C0EDE6F0001D051956F966B95BF9607BC
:10BDC800000E976FE90E986F010E996F0CEC6CF0EE
:10BDD80080A202D0480E01D04C0E0101F16F2DD087
:10BDE8000001D751F00BBC6FBD6BBD51000AD8A440
:10BDF80024D0BC51000AD8B40DEF59F0100AD8B4B9
:10BE08003CEF59F0300AD8B48CEF59F0100AD8B486
:10BE1800AFEF59F0700AD8B41FEF5AF0100AD8B42F
:10BE28006DD4300AD8B41CD5100AD8B41BD6F00A81
:10BE3800D8B468D6700AD8B470D783B41200450E47
:10BE48000101AD6F520EAE6F520EAF6F4F0EB06F55
:10BE5800520EB16F12009E922050D8A419D08AA217
:10BE680016D08A9201014F51161809E1505117183E
:10BE780006E15151181803E152511918D8A41200BB
:10BE8800CA949E929D92000E0001D86F12008A8279
:10BE9800010E1626000E1722182219220001F95148
:10BEA8002E6E000E2EBEFF0E2F6E306E316E2E508F
:10BEB800D1272F50D2233050D3233150D42301011E
:10BEC8001F510001D11918E1010120510001D219B7
:10BED80013E1010121510001D3190EE101012251A1
:10BEE8000001D419D8A408D0000ED16F000ED26F6B
:10BEF800000ED36F000ED46FD1291BE1D22919E1AE
:10BF0800D32917E1D429D8A414D0FF0E01011F2585
:10BF18000001D16FFF0E010120210001D26FFF0E39
:10BF2800010121210001D36FFF0E0101222100012F
:10BF3800D46F01014B51161809E14C51171806E14D
:10BF48004D51181803E14E511918D8A40FD216C034
:10BF58002EF017C02FF018C030F019C031F02E1E87
:10BF68002F1E301E311E2E2A000E2F223022312283
:10BF78004F512E24426E50512F20436E5151302084
:10BF8800446E52513120456ED8900001F135F66E5D
:10BF9800F235F76E610EF626940EF722F86A000E57
:10BFA800F8220900F5CF3EF00A00F5CF3FF0F1C0C6
:10BFB8002EF0F2C02FF0D8902E362F36040E2E26F3
:10BFC800000E2F22610E2E24F66E940E2F20F76E8F
:10BFD800F86A000EF8220900F5CF40F00A00F5CF04
:10BFE80041F0F15101016F5D0001F25101017059F9
:10BFF800D8A010D03E502E6E3F502F6E306A316A56
:10C0080042502E5C43502F584450305845503158B8
:10C01800D8A0E0D00001F151F211D8B403D0F10753
:10C02800D8A0F2072004D8A424D02F0EF125F66E4C
:10C03800980EF221F76EF86A000EF8220800F55003
:10C048000009D8B416D0000E206E8A82550EA76E4D
:10C05800AA0EA76E0E01BF91000EC46F550EA76EF3
:10C06800AA0EA76EBF81000ECC6EBA90BA92BA948F
:10C07800BA96FD0E0001F125F66E9B0EF221F76EC1
:10C08800F86A000EF8220800F5CF2EF0CA502E18D4
:10C09800FC0B2E18CA6E160EF125F66E9A0EF221BA
:10C0A800F76EF86A000EF8220800F5CFCBFF2F0EC6
:10C0B800F125F66E980EF221F76EF86A000EF82256
:10C0C8000800F5CF2EF02E462E462E46CA502E18C2
:10C0D800870B2E18CA6ED890CB30BB6EF151F21177
:10C0E800D8B458D0FE0E2E6EFF0E2F6EF1C030F071
:10C0F800F2C031F0D890303631362E5030262F50DD
:10C108003122610E3024F66E940E3120F76EF86AF3
:10C11800000EF8220900F5CF32F00900F5CF33F010
:10C128003250346E3350356E366A376A341E351ED7
:10C13800361E371E342A000E352236223722D89072
:10C14800F135F66EF235F76E610EF626940EF7228B
:10C15800F86A000EF8220900F5CF38F00900F5CF8B
:10C1680039F0385034243A6E395035203B6E000E81
:10C1780036203C6E000E37203D6E16503A240101E1
:10C188004B6F17503B204C6F18503C204D6F195087
:10C198003D20EBD0D8900001F135F66EF235F76E00
:10C1A800610EF626940EF722F86A000EF8220900AE
:10C1B800F5CF2EF00900F5CF2FF02E5016240101EF
:10C1C8004B6F2F5017204C6F000E18204D6F000E2C
:10C1D8001920CBD06F510001F11906E1010170510E
:10C1E8000001F219D8B410D040502E6E41502F6E75
:10C1F800306A316A42502E5C43502F5844503058B0
:10C2080045503158D8A002D0D8905DD00001F14BEC
:10C21800F22BFD0EF125F66E9B0EF221F76EF86AF1
:10C22800000EF8220800F5CF2EF0CA502E18FC0B8D
:10C238002E18CA6E160EF125F66E9A0EF221F76EBA
:10C24800F86A000EF8220800F5CFCBFF2F0EF12573
:10C25800F66E980EF221F76EF86A000EF8220800C2
:10C26800F5CF2EF02E462E462E46CA502E18870B96
:10C278002E18CA6ED890CB30BB6E2050D8A421D0CF
:10C288002F0EF125F66E980EF221F76EF86A000E61
:10C29800F8220800F5500009D8A413D0010E206E2A
:10C2A800BA50F00B0C09BA6E550EA76EAA0EA76EFF
:10C2B8000E01BF910E0EC46F550EA76EAA0EA76E83
:10C2C800BF81D8900001F135F66EF235F76E610E38
:10C2D800F626940EF722F86A000EF8220900F5CF28
:10C2E8002EF00900F5CF2FF02E50306E2F50316E02
:10C2F800326A336A301E311E321E331E302A000E57
:10C30800312232223322F1C034F0F2C035F0D89015
:10C3180034363536020E3426000E3522610E3424AA
:10C32800F66E940E3520F76EF86A000EF8220900B2
:10C33800F5CF36F00900F5CF37F036503024386E97
:10C3480037503120396E000E32203A6E000E3320FD
:10C358003B6E1650382401014B6F175039204C6F33
:10C3680018503A204D6F19503B204E6F9EA2120074
:10C378009E92010E1626000E17221822192200017D
:10C38800F9512E6E000E2EBEFF0E2F6E306E316EDE
:10C398002E50D1272F50D2233050D3233150D423BD
:10C3A80001011F510001D11918E1010120510001BB
:10C3B800D21913E1010121510001D3190EE1010144
:10C3C80022510001D419D8A408D0000ED16F000E54
:10C3D800D26F000ED36F000ED46FD1291CE1D22981
:10C3E8001AE1D32918E1D429D8A41200FF0E0101BB
:10C3F8001F250001D16FFF0E010120210001D26F1E
:10C40800FF0E010121210001D36FFF0E010122213E
:10C418000001D46F12001200BFD127EC6FF00009A1
:10C42800D8A412000001FE6912009EEC65F0000914
:10C43800D8A412000001FE691200FD05D8A402D09C
:10C44800FE69120012C1F4F013C1F3F0F3C06AF0F0
:10C45800F4C06BF06C6B6D6B26EC7BF00009D8A414
:10C468001200000E0001616F240E606F3DEC82F037
:10C47800000E0001606F060E616F600E626FA10E04
:10C48800636F000E656F240E646F63EC8AF0FD0E17
:10C498000001FE6F1200A5C160F0A6C161F021EE97
:10C4A80093F001D80AD00500FA6EDE50FD6EDE501A
:10C4B800FE6EDE50FF6EFA50120060C0A2F061C03E
:10C4C800A3F062C0A4F063C0A5F0A5C160F0A6C146
:10C4D80061F021EE96F001D80AD00500FA6EDE5020
:10C4E800FD6EDE50FE6EDE50FF6EFA501200000147
:10C4F80060C09EF061C09FF0A06BA16B26EE00F0BB
:10C50800A5C0DFFF26EE01F0A4C0DFFF26EE02F093
:10C51800A3C0DFFF26EE03F0A2C0DFFF26EE04F083
:10C52800A1C0DFFF26EE05F0A0C0DFFF26EE06F073
:10C538009FC0DFFF26EE07F09EC0DFFF000EF46FFE
:10C54800080EF36F000E616F080E606F3DEC82F00D
:10C55800FD0E0001FE6F1200FD05D8A402D0FE6991
:10C568001200000EF46F120EF36F000E616F120EC0
:10C57800606F3DEC82F0000E0001A66F110EA665FB
:10C5880001D014D0A651010D330EF324D96E010E3B
:10C59800F420DA6EA651010D000EF324E16E060EAA
:10C5A800F420E26EDFCFE7FFA62BE8D7FD0EFE6F83
:10C5B8001200030EE8CF00F6000EE8CF01F6A5C181
:10C5C80060F0A6C161F021EE9FF001D80AD0050005
:10C5D800FA6EDE50FD6EDE50FE6EDE50FF6EFA50D3
:10C5E80012000009D8A405D0000E00019C6F000EAF
:10C5F80004D0000E00019C6F800E9B6F26EE02F0A7
:10C608009BC0DFFF000EE8CF03F6000EF46F040EA8
:10C61800F36F000E616F040E606F3DEC82F0FD0E4B
:10C628000001FE6F120001013551F00B0509356F4D
:10C63800200E3F6F000E406F010E0D018C6F000E33
:10C64800886F000E896F000E8A6F000E8B6F0001D5
:10C65800FE691200000E6A6F000E6B6F000E6C6FA1
:10C66800000E6D6F26EC7BF00009D8A412000101C2
:10C6780035510F0B060AD8A407D00D018C05D8A494
:10C6880003D00001FE69120001EC8AF0000E0D01D2
:10C69800886F000E896F000E8A6F000E8B6F000185
:10C6A800FE691200000E0D01886F000E896F000EE2
:10C6B8008A6F000E8B6F0001FE691200F551F611AA
:10C6C800D8B406D0F5C0D9FFF6C0DAFFDFBE120035
:10C6D80001010B510A11091104E1400E085DD8A0AF
:10C6E8000BD0400E00019D6F400E0101085F000E47
:10C6F800095B0A5B0B5B0AD008C19DF0000E086F4E
:10C70800000E096F000E0A6F000E0B6F00019D519D
:10C71800996F9A6B9951F35D9A51F459D8A005D045
:10C728009D51F35F000EF45B1AD0000EA66F13D074
:10C73800F351F411D8B404D0F307D8A0F4070AD001
:10C74800A651010D000EF324D96E060EF420DA6E00
:10C75800000EDF6EA62B9D51A65DD8A0E9D7010E6D
:10C76800606F000E616F060E626F9DC063F0020E6F
:10C778009FEC79F060C0F5F061C0F6F00101085156
:10C7880009110A110B11D8A412000001FE69120048
:10C798007F0E70EC76F012000001FE51000AD8B44A
:10C7A80059D7030AD8B4D8D6110AD8B446D6080A35
:10C7B800D8B4FFD6010AD8B475D7050AD8B433D788
:10C7C8003B0AD8B468D60D0AD8B427D6020AD8B41A
:10C7D8002CD6050AD8B466D7D20AD8B46FD7030ABC
:10C7E800D7D700017151800B7A6F71517125806F15
:10C7F80070BF80818051D8B40DD08029D8A408D0CA
:10C80800000E6E6F000E6F6F000E706F000E716F6E
:10C81800708F08D0000E6E6F000E6F6F000E706F75
:10C82800000E716F7551800B7A1B755175257B6FE2
:10C8380074BF7B817B51D8B40DD07B29D8A408D094
:10C84800000E726F000E736F000E746F000E756F1E
:10C85800748F08D0000E726F000E736F000E746F25
:10C86800000E756F7B51D8B403D08051D8A409D07D
:10C87800000E6E6F000E6F6F000E706F000E716FFE
:10C88800120074516E03F3CF85F0F4CF86F0855112
:10C898007C6F7D6B7E6B7F6B8651816F826B836B48
:10C8A800846B73516F03F3CF85F0F4CF86F0855115
:10C8B8007C27000E7D237E237F2386518127000E4F
:10C8C80082238323842372517003F3CF85F0F4CF3E
:10C8D80086F085517C27000E7D237E237F23865199
:10C8E8008127000E8223832384237EC07FF07DC0AE
:10C8F8007EF07CC07DF07C6B72516F03F3CF85F0C6
:10C90800F4CF86F085517C2786517D23000E7E2347
:10C91800000E7F2373516E03F3CF85F0F4CF86F0BA
:10C9280085517C2786517D23000E7E23000E7F23B0
:10C938007EC07FF07DC07EF07CC07DF07C6B725144
:10C948006E03F3CF85F0F4CF86F085517C278651AE
:10C958007D23000E7E23000E7F2374516F03F3CFD7
:10C9680085F0F4CF86F08551812786518223000E09
:10C978008323000E842373517003F3CF85F0F4CF23
:10C9880086F08551812786518223000E8323000E6D
:10C99800842374517003F3CF85F0F4CF86F085516A
:10C9A800766F8651776F786B796B78C079F077C03E
:10C9B80078F076C077F0766B7651812777518223AD
:10C9C80078518323795184237CC076F07DC077F039
:10C9D8007EC078F07FC079F0190E05D0D8907933F1
:10C9E800783377337633E82EF9D776518127775124
:10C9F800822378518323795184237EC07FF07DC0C0
:10CA08007EF07CC07DF07C6B7B5180C076F0776BCC
:10CA18007627000E7723820E7625856FFF0E772105
:10CA2800866F0FD0D89081378237833784377FBF9E
:10CA38008181D8907C377D377E377F378507D8A0AE
:10CA4800860783AFEFD7000E7B6F7FAF16D0FF0E40
:10CA58007C15766FFF0E7D15776FFF0E7E15786F4C
:10CA68007F0E7F15796F7651771178117911D8A4D7
:10CA780002D081A102D0010E7B6F7B51D8B41FD0A8
:10CA8800010E8127000E82238323842384A117D0DB
:10CA980081C076F082C077F083C078F084C079F0E6
:10CAA8007935793378337733763376C081F077C048
:10CAB80082F078C083F079C084F0854B862B86BFDE
:10CAC8000DD0865103E18529D8A008D0000E816FCA
:10CAD800000E826F800E836F7F0E20D086BF05D038
:10CAE80086510EE18505D8B00BD0000E816F000E7F
:10CAF800826F000E836F000E846F000E7A6F0FD066
:10CB080085C080F0FF0E8117FF0E82177F0E8317F6
:10CB1800000E841780B1838FD8908031846F7A514A
:10CB2800841381C06EF082C06FF083C070F084C03F
:10CB380071F012005AD111C15EF112C15DF113C139
:10CB48005CF114C15BF116C1F4F017C1F3F00001F8
:10CB5800F351716FF451726F736B746B090ED89047
:10CB68007137723773377437E82EF9D771C06AF0A6
:10CB780072C06BF073C06CF074C06DF026EC7BF083
:10CB88000009D8A443D1A5C160F0A6C161F021EE87
:10CB98009FF001D80AD00500FA6EDE50FD6EDE5017
:10CBA800FE6EDE50FF6EFA5012000009D8B416D09F
:10CBB800010E0D018C6F01013551F00B0709356F1E
:10CBC800270E3F6F000E406F000E0001606F020ECF
:10CBD8001AEC79F0000E216E21501200010E0001AE
:10CBE800FF6F0001F351F411D8B4FCD0030E216E8D
:10CBF800000E0101796F060E7A6F000E0D01886F25
:10CC0800020E896F000E8A6F000E8B6F0D0188511E
:10CC180089118A118B11D8B41DD00001F751F81170
:10CC2800D8B406D0F7C0D9FFF8C0DAFFDFBEEED01F
:10CC3800000E606F79C161F07AC162F0400E636FD7
:10CC4800020E9FEC79F060C0F7F061C0F8F0040EB6
:10CC5800216E23D0A5C160F0A6C161F021EE9FF03E
:10CC680001D80AD00500FA6EDE50FD6EDE50FE6E69
:10CC7800DE50FF6EFA5012000009D8B40CD0010E35
:10CC88000D018C6F01013551F00B0209356F270E2C
:10CC98003F6F000E406F020EA6D00001F751F81149
:10CCA800D8B406D0F7C0D9FFF8C0DAFFDFBEAED0DF
:10CCB80020EE01F0F751D926F851DA22DF50716FD2
:10CCC80071C072F0736B746B756B72510101085F00
:10CCD800000173510101095B0001745101010A5BF4
:10CCE8000001755101010B5B000120EE01F0F751C5
:10CCF800D926F851DA22DF50716F71C072F0736B68
:10CD0800746B756B72510D01885F000173510D01D1
:10CD1800895B000174510D018A5B000175510D0199
:10CD28008B5B400E01017927000E7A23030E5BD03E
:10CD38000D018C51D8A440D0A5C160F0A6C161F006
:10CD48005BC162F05CC163F05DC164F05EC165F017
:10CD5800000E0001666F060E676F01015B515C11E2
:10CD68005D115E11D8A402D0010E01D0000E0001A1
:10CD7800686F21EEA2F001D80AD00500FA6EDE50E5
:10CD8800FD6EDE50FE6EDE50FF6EFA501200E806B1
:10CD9800D8B412D0640E0101816102D0812B36D043
:10CDA800010E0D018C6F01013551F00B0309356F30
:10CDB800000E3F6F000E406F010E01015B27000E51
:10CDC8005C235D235E230001F307D8A0F407010E5E
:10CDD8000AD0020E0D018C6F000E0001606F020E6A
:10CDE8001AEC79F0000E216E11D02150000AD8B447
:10CDF800A2D6010AD8B4F5D6030AD8B499D7010A3D
:10CE0800D8B404D7070AD8B448D7E3D721501200BA
:10CE180000017151800B7E6F71517125856F70BF54
:10CE280085818551D8B40DD08529D8A408D0000EA5
:10CE38006E6F000E6F6F000E706F000E716F708F47
:10CE480006D0000E6E6F000E6F6F000E706F000E32
:10CE5800716F7551800B7E1B75517525866F74BF78
:10CE680086818651D8B40DD08629D8A408D0000E62
:10CE7800726F000E736F000E746F000E756F748FF3
:10CE880006D0000E726F000E736F000E746F000EE6
:10CE9800756F7251731174117511D8A417D0000EE3
:10CEA8006E6F000E6F6F000E706F000E716F800E48
:10CEB80070137F0E71137E5171136EC06EF06FC0C8
:10CEC8006FF070C070F071C071F012008551D8A475
:10CED80011D0000E6E6F000E6F6F000E706F000E97
:10CEE800716F6EC06EF06FC06FF070C070F071C07F
:10CEF80071F012008651766F776B761F771F764B2D
:10CF0800772B8551786F796B76517827775179230C
:10CF18007F0E78257F6F000E7921806F6EC07AF0C2
:10CF28006FC07BF070C07CF071C07DF0000E6E6F3A
:10CF3800000E6F6F000E706F000E716F000E816F24
:10CF4800000E826F000E836F000E846F000E866FD6
:10CF580028D08651D8B411D0D8907A377B377C370F
:10CF68007D37D8906E376F377037713784BF6E81D1
:10CF7800D890813782378337843772517A5D7351FD
:10CF88007B5974517C5975517D59D8A009D0848D2D
:10CF980072517A5F73517B5B74517C5B75517D5B19
:10CFA800862B190E8665D5D77A517B117C117D1198
:10CFB800D8B411D081810FD0D8906E376F377037C1
:10CFC800713784BF6E81D890813782378337843731
:10CFD8007F07D8A0800770AFEFD7000E866F84AFA9
:10CFE80016D0FF0E8115766FFF0E8215776FFF0E34
:10CFF8008315786F7F0E8415796F765177117811C4
:10D008007911D8A402D06EA102D0010E866F865184
:10D01800D8B41FD0010E6E27000E6F237023712322
:10D0280071A117D06EC076F06FC077F070C078F03D
:10D0380071C079F07935793378337733763376C0C0
:10D048006EF077C06FF078C070F079C071F07F4BE8
:10D05800802B80BF10D0805103E17F29D8A00BD04E
:10D06800000E806F7F69000E6E6F000E6F6F000EEE
:10D07800706F000E716F80BF05D0805111E17F0580
:10D08800D8B00ED0000E806F000E7F6F000E6E6F4E
:10D09800000E6F6F000E706F000E716F000E7E6FC6
:10D0A8007FC085F085A102D0708F01D0709FD89085
:10D0B8008531716F7E5171136EC06EF06FC06FF065
:10D0C80070C070F071C071F012000D013205D8A463
:10D0D8000ED030511F0B0009D8A409D00D8E030EB5
:10D0E8003119D8A402D0010E01D0000E286E325199
:10D0F800D8A4120030511F0B020AD8A412003451D0
:10D108000F0B0009D8B4120034510F0B456E030EF3
:10D1180045601200200E2B18D8A412000D8E34BFC3
:10D1280019D034510F0B456E4550020D450EF324AE
:10D13800D96E010EF420DA6EDECF49F0DDCF4AF069
:10D1480034510F0B456E4550010D690EF324D96E0D
:10D15800010E18D034510F0B456E4550020D100EBC
:10D16800F324D96E000EF420DA6EDECF49F0DDCF5D
:10D178004AF034510F0B456E4550010D6C0EF324E7
:10D18800D96E010EF420DA6EDF50486E48B006D032
:10D19800FB0E4914496EFF0E4A1404D0040E4910C0
:10D1A800496E4A504A6E34BF0AD034510F0B456E4F
:10D1B8004550020D450EF324D96E010E09D03451A5
:10D1C8000F0B456E4550020D100EF324D96E000E5C
:10D1D800F420DA6E49C0DEFF4AC0DDFF030E3119C4
:10D1E800D8A42DD049C0D9FF4AC0DAFFDFAE1AD083
:10D1F80034BF0AD034510F0B456E4550010D690EEE
:10D20800F324D96E010E0AD00D0134510F0B456E6F
:10D218004550010D6C0EF324D96E010EF420DA6E20
:10D228000101DF8249C0D9FF4AC0DAFF000EDB8462
:10D2380049C0D9FF4AC0DAFF000EDB8E1200040E87
:10D248004918496E4A504A6E49C0D9FF4AC0DAFFA8
:10D25800DFAE1BD049C0D9FF4AC0DAFF7F0EDF1608
:10D2680049C0D9FF4AC0DAFF000EDB8C000E3E6EC3
:10D27800050E3D6E49C03FF04AC040F0000E426EB8
:10D28800020E416EE7EC86F006D049C0D9FF4AC0CD
:10D29800DAFF000EDB8C040E4918496E4A504A6EBC
:10D2A80048B206D049C0D9FF4AC0DAFFDFAE30D055
:10D2B8000D0134BF0AD034510F0B456E4550010D96
:10D2C800690EF324D96E010E0AD00D0134510F0BEB
:10D2D800456E4550010D6C0EF324D96E010EF420F5
:10D2E800DA6E0101DF9249C0D9FF4AC0DAFF3B0E6E
:10D2F800DF16000E3E6E050E3D6E49C03FF04AC077
:10D3080040F0000E426E020E416EE7EC86F006D049
:10D3180049C0D9FF4AC0DAFF3B0EDF160D01345170
:10D328000F0B456E4550010D260EF324466E0F0E69
:10D33800F420476E46C0D9FF47C0DAFFFE0EDF165D
:10D34800120098D0EB0E12003C0E1200900E120044
:10D35800130EF66EA20EF76E000EF86E0800F5506A
:10D368001200140EF66EA20EF76E000EF86E08008C
:10D37800F5501200150EF66EA20EF76E000EF86E3E
:10D388000800F5501200160EF66EA20EF76E000E8B
:10D39800F86E0800F5501200170EF66EA20EF76E22
:10D3A800000EF86E0800F5501200180EF66EA20E68
:10D3B800F76E000EF86E0800F5501200190EF66EA2
:10D3C800A20EF76E000EF86E0800F55012001A0E45
:10D3D800F66EA20EF76E000EF86E0800F5501200F9
:10D3E800000E1200020E1200010E1200010E1200B1
:10D3F800000E1200010E1200400E1200000E120064
:10D40800FF0E12001F0E1200F80E1200200E12005E
:10D41800000E12003F0E1200000E1200100E120035
:10D42800000E1200000E1200000E1200000E120074
:10D43800000E1200010E1200000E1200220E120041
:10D44800000E1200000E1200460E1200410E1200CD
:10D45800540E1200310E1200360E1200200E120069
:10D46800200E1200200E1200550E1200AA0E1200F5
:10D47800000E120060C062F061C063F000016351E9
:10D48800000AD8B404D0010AD8B48DD0F1D76251BB
:10D49800000AD8B457D7010AD8B456D7030AD8B463
:10D4A80055D7010AD8B454D7070AD8B45AD7010AAD
:10D4B800D8B460D7030AD8B466D7010AD8B46CD7F1
:10D4C8000F0AD8B472D7010AD8B478D7030AD8B4E7
:10D4D8007ED7010AD8B484D7070AD8B483D7010AFB
:10D4E800D8B482D7030AD8B481D7010AD8B480D770
:10D4F8001F0AD8B47FD7010AD8B47ED7030AD8B494
:10D508007DD7010AD8B47CD7070AD8B47BD7010ADB
:10D51800D8B47AD7030AD8B479D7010AD8B478D757
:10D528000F0AD8B477D7010AD8B476D7030AD8B483
:10D5380075D7010AD8B474D7070AD8B473D7010AC3
:10D54800D8B472D7030AD8B471D7010AD8B470D73F
:10D55800370AD8B46FD7010AD8B46ED7050AD8B439
:10D568006DD7010AD8B46CD7030AD8B46BD7010AAF
:10D57800D8B468D7190AD8B467D7010AD8B466D717
:10D588000F0AD8B465D7010AD8B464D7030AD8B447
:10D5980063D7010AD8B462D7070AD8B461D7010A99
:10D5A800D8B460D765D76251FE0AD8B45DD7010AEE
:10D5B800D8B45CD75DD7200E2B18D8A41200A09839
:10D5C80016D10001F751F811D8B406D0F7C0D9FF29
:10D5D800F8C0DAFFDFBE1AD1000EB16F1E0EB165BA
:10D5E80001D014D0B151010D400EF324D96E0D0EA7
:10D5F800F420DA6EB151010D000EF324E16E010E34
:10D60800F420E26EDFCFE7FFB12BE8D720EE01F080
:10D61800F751D926F851DA221F0EDE18D8A473D094
:10D62800550E010100196FE1530E01196CE1420E0C
:10D63800021969E1430E0319D8A465D0010E7E6F63
:10D648000D51D8A453D0110E0E6150D00E51D8B43C
:10D658004DD00CC1ACF03F0E0001AC17D8A446D099
:10D66800550E0D01806F530E816F420E826F530E5F
:10D67800836F04C184FD05C185FD06C186FD07C110
:10D6880087FD000E886F000E896F000E8A6F000EEE
:10D698008B6F000E8C6F0001FE69000E0101826F16
:10D6A800000E216E000E816F030E0F19D8B408D03A
:10D6B8003591359335953597000E3F6F000E406FC5
:10D6C8000CAF02D0010E01D0020E0001FF6F010164
:10D6D800085109110A110B11D8B402D0000E01D05B
:10D6E800010E0001FD6F0FC1FEF090D0010E000188
:10D6F800606F020E1AEC79F0000E0001606F020EE6
:10D708001AEC79F083D0010E0001606F020E1AEC5A
:10D7180079F0000E0001606F020E1AEC79F0000E2D
:10D7280001017E6F73D0ACEC74F0FF0AD8A46ED000
:10D7380011D0ACEC74F0FF0AD8A468D00D018C515C
:10D74800D8A408D0885189118A118B11D8B402D075
:10D75800020E8C6F030E3CD014C0ADF015C0AEF0B5
:10D76800AD51AE11D8B40AD014C0AFF015C0B0F0A6
:10D77800AFC0D9FFB0C0DAFFDFBE48D0010E606F7E
:10D78800800E616F0D0E626F0D0E636F020E9FECBF
:10D7980079F060C0F5F061C0F6F00001F751F811BA
:10D7A800D8B406D0F7C0D9FFF8C0DAFFDFBE0FD073
:10D7B800000E606F400E616F0D0E626F400E636F5A
:10D7C800020E9FEC79F060C0F7F061C0F8F0000E2F
:10D7D8000001FF6F1BD0000EFF6F020E0D018C6F52
:10D7E800000E0001606F020E1AEC79F00FD00001F4
:10D7F800FF51000AD8B4E5D6010AD8B494D7030A71
:10D80800D8B497D7010AD8B4A7D7E5D7A08812000B
:10D81800A00E0001706F000E716F95C072F096C077
:10D8280073F0000E756F0A0E746FF7EC8DF0A00E92
:10D838000001606F000E616F7DEC8EF00001605199
:10D84800AA6F96AF54D0AA5100089725020FAB6F64
:10D85800AB51800A7F0FD8A090D097C0ACF0AC290C
:10D86800D8B442D0AC51ABBF04D0FF0AAB25D8B076
:10D878002AD0ABC09AF09B6B9ABF9B079A1F9B1F3D
:10D888009A4B9B2BAC519C6F9D6B9A519C279B513B
:10D898009D23010E9C27000E9D23A00E9C25D96E6A
:10D8A800000E9D21DA6EAC519E6F9F6B010E9E2774
:10D8B800000E9F23A00E9E25E16E000E9F21E26EB2
:10D8C800DFCFE7FF0FD0AC519A6F9B6B010E9A2701
:10D8D800000E9B23A00E9A25D96E000E9B21DA6EAE
:10D8E800300EDF6EAC07BBD79751020F45D0AA5157
:10D8F800000897259A6F9A29AB6FAB51800A7F0F62
:10D90800D8A03BD097C0ACF0AC29D8B434D0AC5137
:10D91800ABBF04D0FF0AAB25D8B021D0ABC09AF07A
:10D928009B6B9ABF9B079A1F9B1F9A4B9B2BAC51D3
:10D938009C6F9D6B9A519C279B519D23A00E9C2503
:10D94800D96E000E9D21DA6EAC51010DA00EF324A4
:10D95800E16E000EF420E26EDFCFE7FF0AD0AC5193
:10D96800010DA00EF324D96E000EF420DA6E300EED
:10D97800DF6EAC07C9D79729AA6F97510008AA2567
:10D988009A6F9A05976F000EAC6F23D0AC51010DBA
:10D99800A00EF324D96E000EF420DA6EAC51010DFE
:10D9A800F3509825E16EF4509921E26EDFCFE7FF3E
:10D9B8009751AC19D8A40CD0AC2BAC51010DF35035
:10D9C8009825D96EF4509921DA6E2E0EDF6E1ED08E
:10D9D800AC2BAA51AC5DD8B019D0D8D7AC51010D39
:10D9E800A00EF324D96E000EF420DA6EAC519A6FB3
:10D9F8009B6B010E9A27000E9B239A519825E16E86
:10DA08009B519921E26EDFCFE7FFAC2BAA51AC5DA9
:10DA1800D8A0E4D7AC519A6F9B6B010E9A27000EE1
:10DA28009B239A519825D96E9B519921DA6E000E45
:10DA3800DF6E1200000E0001856F000E846F020E6B
:10DA4800855DD8B011D0000E8425D96E080E8521C9
:10DA5800DA6E84C060F085C061F0BDEC7EF0DF6EE8
:10DA68000001844B852BEBD7000E806F000E7F6F73
:10DA7800000E816F080E826F1CEC8DF0000E000105
:10DA8800856F000E846F020E855DD8B011D0000E30
:10DA98008425D96E080E8521DA6E84C060F085C0B1
:10DAA80061F0A5EC69F0DF6E0001844B852BEBD7A4
:10DAB800000E806F010E7F6F000E816F080E826F5F
:10DAC8001CEC8DF0000E0001856F000E846F020EB5
:10DAD800855DD8B011D0000E8425D96E080E852139
:10DAE800DA6E84C060F085C061F0CEEC8BF0DF6E3A
:10DAF8000001844B852BEBD7000E806F020E7F6FE1
:10DB0800000E816F080E826F1CEC8DF0000E000174
:10DB1800856F000E846F020E855DD8B00BD0000EA5
:10DB28008425D96E080E8521DA6E000EDF6E844BCF
:10DB3800852BF1D7000E856F030E846F855112E196
:10DB4800220E845DD8B00ED084C07FF085C080F0EE
:10DB5800000E816F080E826F1CEC8DF00001844B63
:10DB6800852BECD7000E856F000E846F020E855D45
:10DB7800D8B011D0000E8425D96E080E8521DA6E32
:10DB880084C060F085C061F019EC70F0DF6E0001B0
:10DB9800844B852BEBD7000E806F220E7F6F000E13
:10DBA800816F080E826F1CEC8DF0000E0001856FEE
:10DBB800000E846F020E855DD8B00BD0000E842550
:10DBC800D96E080E8521DA6E000EDF6E844B852B28
:10DBD800F1D7000E856F230E846F855112E1260E52
:10DBE800845DD8B00ED084C07FF085C080F0000E70
:10DBF800816F080E826F1CEC8DF00001844B852B21
:10DC0800ECD7000E856F000E846F020E855DD8B0CC
:10DC180011D0000E8425D96E080E8521DA6E84C0D5
:10DC280060F085C061F082EC90F0DF6E0001844BFB
:10DC3800852BEBD7000E806F260E7F6F000E816F4D
:10DC4800080E826F1CEC8DF0000E120000016A6F46
:10DC58006AC0F9F000016051611162116311D8A422
:10DC68000AD0000E01014F6FFF0E506FFF0E516F6B
:10DC7800FF0E526F08D060C04FF161C050F162C012
:10DC880051F163C052F1000164516511D8A405D067
:10DC980028C16FF129C170F104D064C06FF165C06B
:10DCA80070F1000EF26F000EF16F000E166E000E8E
:10DCB800176E000E186E000E196E630EF66E940E37
:10DCC800F76E000EF86E0900F5CF66F00900F5CF83
:10DCD80067F066C04BF167C04CF101014D6B4E6BAC
:10DCE800BA90BA92BA94BA968A9000016A29D8A4CE
:10DCF80005D001012351D8B405D006D00101235124
:10DD0800D8B402D08A9401D08A848A82010E162659
:10DD1800000E1722182219220001F951666F000E11
:10DD280066BFFF0E676F686F696F6651D1276751CD
:10DD3800D2236851D3236951D42301011F51000113
:10DD4800D11918E1010120510001D21913E1010193
:10DD580021510001D3190EE1010122510001D4190A
:10DD6800D8A408D0000ED16F000ED26F000ED36F6A
:10DD7800000ED46FD1291BE1D22919E1D32917E16B
:10DD8800D429D8A414D0FF0E01011F250001D16F9A
:10DD9800FF0E010120210001D26FFF0E0101212198
:10DDA8000001D36FFF0E010122210001D46F550E2F
:10DDB800A76EAA0EA76E0E01BF91000EC46F550E76
:10DDC800A76EAA0EA76EBF81000E206EFD0E000181
:10DDD800F125F66E9B0EF221F76EF86A000EF82216
:10DDE8000800F5CF66F0CA506619FC0B6619CA6EB2
:10DDF800160EF125F66E9A0EF221F76EF86A000EED
:10DE0800F8220800F5CFCBFF2F0EF125F66E980EFD
:10DE1800F221F76EF86A000EF8220800F5CF66F0D6
:10DE2800664766476647CA506619870B6619CA6E01
:10DE3800D890CB30BB6E9E929D82000ECC6ECA8469
:10DE4800010ED86F1200DCD011C15EF112C15DF174
:10DE580013C15CF114C15BF116C1F4F017C1F3F002
:10DE68000001F351956FF451966F976B986B090EFB
:10DE7800D8909537963797379837E82EF9D795C0C1
:10DE88006AF096C06BF097C06CF098C06DF026EC05
:10DE98007BF00009D8A4C6D0010E0101826F0001F1
:10DEA800F351F411D8B4A8D00001F307D8A0F407AF
:10DEB800020E0101826F0001F551F611D8B406D0A7
:10DEC800F5C0D9FFF6C0DAFFDFBEACD0A5C18BF034
:10DED800A6C18CF05BC18DF05CC18EF05DC18FF086
:10DEE8005EC190F0000E916F060E926F21EE9CF0CD
:10DEF80001D80AD00500FA6EDE50FD6EDE50FE6EC7
:10DF0800DE50FF6EFA501200E806D8B419D0640E3D
:10DF18000101816102D0812B85D0020E0D018C6F29
:10DF280001013551F00B0309356F000E3F6F000EEC
:10DF3800406F010E0001606F020E1AEC79F05CD0A0
:10DF4800010E01015B27000E5C235D235E23000E9A
:10DF58000D01886F020E896F000E8A6F000E8B6F9D
:10DF6800000E0101796F060E7A6F030E826F0D01A4
:10DF7800885189118A118B11D8A402D0010E3DD085
:10DF8800040E0101826F0001F551F611D8B406D0D4
:10DF9800F5C0D9FFF6C0DAFFDFBE44D0010E606FCE
:10DFA80079C161F07AC162F0400E636F020E9FEC96
:10DFB80079F060C0F5F061C0F6F0030E0101826FE0
:10DFC800400E085F000E095B0A5B0B5B400E0D01FB
:10DFD800885F000E895B8A5B8B5B400E01017927A5
:10DFE800000E7A231FD0020E0D018C6F010E000166
:10DFF800606F020E1AEC79F0000E0101826F12D0E8
:10E0080001018251000AD8B41FD7010AD8B447D7F2
:10E01800030AD8B450D7010AD8B4A9D7070AD8B484
:10E02800B2D7E1D7010182511200000161511DE10F
:10E03800200E605DD8B019D0615110E10B0E605D03
:10E04800D8B00CD0FE0E6025F66EA10E6121F76ED9
:10E05800F86A000EF8220800F55012000B0E60193D
:10E068006111D8A402D0080E1200615103E1400EDC
:10E07800605DD8B0A4D0200E605F000E615B615176
:10E0880010E1080E605DD8B00CD00A0E6025F66E5F
:10E09800A20E6121F76EF86A000EF8220800F5500A
:10E0A8001200615146E10B0E605DD8B042D0F80E07
:10E0B800626FFF0E636F60C064F061C065F062510B
:10E0C800642763516523320E6425F66EA20E65211E
:10E0D800F76EF86A000EF8220800F5501200200EBC
:10E0E8001200060E1200280E1200780E1200DE0E24
:10E0F8001200380E12005F0E12004B0E1200000EB6
:10E108001200000E1200040E1200770E1200DE0E2E
:10E118001200380E1200020E1200000E12000C0E31
:10E128001200000E1200000E1200000E1200000E67
:10E13800120060C062F061C063F06351000AD8A4A5
:10E14800F6D762510B0AD8B4CAD7060AD8B4C9D7C9
:10E15800030AD8B4C8D7010AD8B4C7D71F0AD8B495
:10E16800C6D7010AD8B4C5D7030AD8B4C4D7010A98
:10E17800D8B4C3D7070AD8B4C2D7010AD8B4C1D70C
:10E18800030AD8B4C0D7010AD8B4BFD70F0AD8B485
:10E19800BED7010AD8B4BDD7030AD8B4BCD7010A80
:10E1A800D8B4BBD7070AD8B4BAD7010AD8B4B9D7F4
:10E1B800030AD8B4B8D7010AD8B4B7D7B8D7000E6D
:10E1C8001200A098000E636E000E626E000E0F0122
:10E1D800266F270E0001606F0F0E616F000E636FD0
:10E1E800000E626F000E656F020E646FCBEC8FF04D
:10E1F800160E0F01396F9F0E376F7B0E366F000EAC
:10E208000001686F0B0E686501D00ED06851040DCF
:10E21800000EF324D96E0D0EF420DA6EDE6ADE6A83
:10E22800DE6ADD6A682BEED7658C000E0F01386F49
:10E238006598659C6296000E0D6E000E046E000EC9
:10E24800066E000E056E62B6F5D7010E226E010E3F
:10E258000101866F000E856F000E846F000E276E19
:10E26800000E0001686F020E686501D02ED068515B
:10E27800020D100EF324D96E000EF420DA6E000E93
:10E28800DE6E000EDD6E6851020D450EF324D96E68
:10E29800010EF420DA6E000EDE6E000EDD6E68519F
:10E2A800010D6C0EF324D96E010EF420DA6E000E07
:10E2B800DF6E6851010D690EF324D96E010EF4204A
:10E2C800DA6E000EDF6E682BCED7080E106E0D0EBC
:10E2D800116E160E0F01266F0D0E0D01036F300E15
:10E2E800026F080E016F040E006F008F000E2D6E76
:10E2F800000E01015F6F000E606F000E616F000E6F
:10E30800626F000E836F000E2B6E12000001686FA3
:10E3180000016851D8A463AF1AD060C064F061C02E
:10E3280065F062C066F063C067F0641F651F661F12
:10E33800671F642B000E65236623672364C06AF099
:10E3480065C06BF066C06CF067C06DF008D060C047
:10E358006AF061C06BF062C06CF063C06DF0605130
:10E36800611162116311D8A409D0000E606F000E0C
:10E37800616F000E626F000E636F1200960E696F78
:10E3880006D0692BD8906D336C336B336A33000E2B
:10E398006A15646F000E6B15656F000E6C15666F5D
:10E3A800FE0E6D15676F6451651166116711D8B45B
:10E3B8000DD0E7D7692B010E6A27000E6B236C235B
:10E3C8006D23D8906D336C336B336A33000E6A1546
:10E3D800646F000E6B15656F000E6C15666FFF0E8F
:10E3E8006D15676F6451651166116711D8B407D050
:10E3F800E1D76907D8906A376B376C376D376CBFD0
:10E4080003D0020E6961F5D769A16C9FD890693372
:10E4180069C064F0656B666B676B64C067F0666BB8
:10E42800656B646B64516A1365516B1366516C13A9
:10E4380067516D136851D8A463AF01D06D8F6AC05E
:10E4480060F06BC061F06CC062F06DC063F01200E8
:10E458002B04D8B465BA07D0000E626E0F0136815E
:10E468003689020E2B6E62A406D00F0136A503D0A2
:10E47800629449EC8FF065A202D0A198120062A0C4
:10E4880009D00F0136A106D0CEEC72F0A088040E98
:10E498002B6E629062A804D00F0136B9FBEC8FF0A6
:10E4A80062AC1BD00F0136AD0ED0000E3E6E730E5F
:10E4B8003D6E000E3F6E000E406E000E426E010E65
:10E4C800416EE7EC86F0629C17EC91F02450D8A4DA
:10E4D80024062450D8B4C1EC80F062AA04D00F01FD
:10E4E80036BB3BEC8EF062A212D00F0136A30FD0E0
:10E4F8007F0E3E6E3D68000E3F6E000E406E000EB1
:10E50800426E010E416EE7EC86F0000E636E040E5B
:10E518002B6002D0A19812000F0136A739D0000E47
:10E528004C6E030E4C6401D033D062A631D064CF58
:10E538002CF02C30E832E8320F0B266E62962CB4A1
:10E5480007D02650010D690EF324D96E010E06D0AE
:10E558002650010D6C0EF324D96E010EF420DA6EEC
:10E568000101DF702650D8A403D07BEC85F00ED0D3
:10E57800000E3E6E720E3D6E2C0E3F6E000E406E0B
:10E58800000E426E000E416EE7EC86F04C2AC9D7A9
:10E59800A1981200A098000E636E000E626E000E25
:10E5A8000F01266F270E2E6E0F0E2F6E000E316E86
:10E5B800000E306E000E336E020E326E57EC90F085
:10E5C800160E0F01396F9F0E376F7B0E366F000ED8
:10E5D800366E0B0E366401D00ED03650040D000E88
:10E5E800F324D96E0D0EF420DA6EDE6ADE6ADE6A76
:10E5F800DD6A362AEED7658C000E0F01386F6598F4
:10E60800659C6296000E0D6E000E046E000E066E7E
:10E61800000E056E62B6F5D7010E226E010E0101DD
:10E62800866F000E856F000E846F000E276E000E39
:10E63800366E020E366401D02ED03650020D100E02
:10E64800F324D96E000EF420DA6E000EDE6E000E92
:10E65800DD6E3650020D450EF324D96E010EF420FE
:10E66800DA6E000EDE6E000EDD6E3650010D6C0E99
:10E67800F324D96E010EF420DA6E000EDF6E3650E8
:10E68800010D690EF324D96E010EF420DA6E000E26
:10E69800DF6E362ACED7080E106E0D0E116E160ECE
:10E6A8000F01266F0D0E0D01036F300E026F080E5D
:10E6B800016F040E006F008F000E2D6E000E010119
:10E6C8005F6F000E606F000E616F000E626F000ECC
:10E6D800836F000E2B6E120021EC7CF0000EEFEC25
:10E6E8008AF0E5EC70F0B2EC8FF073EC91F0000179
:10E6F800CC51D8A4FAD70400F0EC83F01CEC51F00C
:10E70800E3EC87F073D0D1C060F0D2C061F0D3C021
:10E7180062F0D4C063F0000E8AEC71F060C0D2F2EF
:10E7280061C0D3F262C0D4F263C0D5F2D2C26EF037
:10E73800D3C26FF0D4C270F0D5C271F0000E0001E0
:10E74800726FA00E736F0C0E746F470E756FF5EC39
:10E7580063F06EC0D2F26FC0D3F270C0D4F271C051
:10E76800D5F2D2C26EF0D3C26FF0D4C270F0D5C267
:10E7780071F01FC160F020C161F021C162F022C1B7
:10E7880063F0000E8AEC71F060C072F061C073F043
:10E7980062C074F063C075F00CEC67F06EC0D2F222
:10E7A8006FC0D3F270C0D4F271C0D5F2D2C260F09B
:10E7B800D3C261F0D4C262F0D5C263F005EC7DF03B
:10E7C80060C0D5F061C0D6F0A00E0001D51908E1EF
:10E7D8008C0ED619D8A404D0000ED66F000ED56FB3
:10E7E8000BEC59F014D012EC8FF011D00001CB5182
:10E7F800000AD8B40CD0010AD8B409D0040AD8B495
:10E8080082D7030AD8B4ECD7010AD8B4ECD7010EE2
:10E818000001CC6F6AD7D89000018735F66E88352D
:10E82800F76E930EF626900EF722F86A000EF8227D
:10E838000900F5CF89F00900F5CF8AF089C08FF07B
:10E848008AC090F0916B926B040ED8908F379037F6
:10E8580091379237E82EF9D78FC060F090C061F0F9
:10E8680091C062F092C063F0680E646F010E656F2C
:10E87800000E666F000E676F76EC8BF060C08FF04D
:10E8880061C090F062C091F063C092F08FC060F0F8
:10E8980090C061F091C062F092C063F0640E000114
:10E8A800646F000E656F000E666F000E676F76EC82
:10E8B8008BF060C08FF061C090F062C091F063C0CF
:10E8C80092F08FC060F090C061F091C062F092C089
:10E8D80063F0000E8AEC71F060C08BF061C08CF0C0
:10E8E80062C08DF063C08EF08BC06EF08CC06FF08C
:10E8F8008DC070F08EC071F01FC160F020C161F052
:10E9080021C162F022C163F0000E8AEC71F060C090
:10E9180072F061C073F062C074F063C075F00CEC03
:10E9280067F06EC08BF06FC08CF070C08DF071C056
:10E938008EF08BC060F08CC061F08DC062F08EC02C
:10E9480063F005EC7DF060C087F061C088F01200CC
:10E95800A5C160F0A6C161F021EE99F001D80AD0F6
:10E968000500FA6EDE50FD6EDE50FE6EDE50FF6E64
:10E97800FA5012000009D8B40CD001010D51010D54
:10E988007F0EF324D96E010EF420DA6EDE04D8A4CB
:10E998001DD00DC1A7F0010E0001A86F000EA96FD0
:10E9A800A72B03D0D890A837A937A72FFBD70001EA
:10E9B800A81DAA6FA91DAB6FAA5101017517000107
:10E9C800AB5101017617D0EC89F058D00DC1A7F0F2
:10E9D800010E0001A86F000EA96FA72B03D0D890D5
:10E9E800A837A937A72FFBD7010175510001A81730
:10E9F800010176510001A917A851A911D8A43CD04A
:10EA0800A5C160F0A6C161F001D80BD00500FA6E6F
:10EA180001019051FD6E9151FE6E9251FF6EFA50B8
:10EA28001200000160516111D8B423D00DC1A7F0C4
:10EA3800010EA86F000EA96FA72B03D0D890A83796
:10EA4800A937A72FFBD70001A851010175130001B1
:10EA5800A951010176133551F00B0609356F280EBF
:10EA68003F6F000E406F010E0D018C6F10EC62F0CD
:10EA780005D0D0EC89F002D010EC62F00001FE5114
:10EA88001200800E0D013019D8A41200C00E0D6EB0
:10EA980082D0BB0E0A6EA10E0B6E000E0F6E120E08
:10EAA8000E6E12003251D8A442D03251020DEC0E33
:10EAB800F324F66E9D0EF420F76EF86A000EF82225
:10EAC8000900F5CF0AF00A00F5CF0BF0020E0A2470
