:020000040000FA
:0490000047EF48F0FE
:109008005B82FACF4DF0FBCF4EF0E9CF4FF0EACFBD
:1090180050F0E1CF51F0E2CF52F0D9CF53F0DACF90
:1090280054F0F3CF55F0F4CF56F0F6CF57F0F7CF12
:1090380058F0F8CF59F0F5CF5AF089EC7BF09EB292
:1090480042EC5CF0F2B41FEC9EF05AC0F5FF59C038
:10905800F8FF58C0F7FF57C0F6FF56C0F4FF55C0D9
:10906800F3FF54C0DAFF53C0D9FF52C0E2FF51C02A
:10907800E1FF50C0EAFF4FC0E9FF4EC0FBFF4DC003
:10908800FAFF5B921100C3EF91F00008000C00108A
:10909800001300160019001C001E002100230026E2
:1090A8000028002A002C002E003000320034003640
:1090B8000038003A003C003D003F004100430045B5
:1090C800004600480049004B004D004E005000513A
:1090D80000530054005600570059005A005C005DC8
:1090E800005F00600062006300640066006700695A
:1090F800006A006C006D006E0070007100720073F1
:109108000074007600780079007A007B007D007E8C
:10911800007F008200850087008A008C008F009104
:10912800009200940098009A009C009E00A100A361
:1091380000A500A700AA00AC00AF00B200B400B7B9
:1091480000B800BA00BC00BE00C000C300C400C61E
:1091580000C800CA00CC00CE00D000D200D400D68F
:1091680000D800D900DB00DD00DF00E100E200E507
:1091780000E700E800EA00EC00EE00EF00F200F380
:1091880000F500F700F800FB00FD000001030104F2
:109198000107010A010C010F01120114011701193D
:1091A800011C011E0121012301250129012B012C8C
:1091B800012E0132013401360138013B013D013FE6
:1091C800014301460148014A014C014F0151015434
:1091D80001560159015B015E016001630166016985
:1091E800016B016E017101740177017A017D0180C3
:1091F80001830187018A018D019101940198019BE6
:10920800019F01A301A601AA01AE01B201B601BAEC
:1092180001BE01C301C701CC01D001D501D901DECE
:1092280001E301E801ED01F301F801FE0103020980
:10923800020F0215021B02210227022E0235023CF0
:109248000243024A0251025902610269027102791B
:109258000282028B0294029E02A702B102BC02C6DD
:1092680002D102DC02DC02DF02E202E502E802EBE4
:1092780002EE02F102F402F702FA02FD0200030410
:109288000307030A030D031103140317031A031E2C
:10929800032103250328032C032F03330336033A42
:1092A800033E034103450349034D03500354035848
:1092B800035C036003640368036C0370037403793D
:1092C800037D03810385038A038E03930397039C1D
:1092D80003A003A503AA03AE03B303B803BD03C2E7
:1092E80003C603CC03D103D603DB03E003E503EB9A
:1092F80003F003F603FB03010406040C041204172D
:10930800041D04230429042F0436043C04420448A1
:10931800044F0455045C0463046A04700477047EF3
:109328000485048D0494049B04A304AA04B204BA1B
:1093380004C204C904D204DA04E204EA04F304FC13
:109348000404050D0516051F05280532053B0545CE
:10935800054F05590563056D05770582058C059749
:1093680005A205AD05B905C405D005DC05E805F479
:109378000501060E061A0628063506430650065E3F
:10938800066D067B068A069906A906B806C806D899
:1093980006E906FA060B071C072E0740075307665F
:1093A8000779078D07A107B607CB07E007F6070C73
:1093B8000823083B0853086B0884089E08B808D39C
:1093C80008EF080B092809450964098309A309C49A
:1093D80009E609080A2C0A510A770A9D0AC50AEF04
:1093E8000A190B450B720B720B7D0B890B940BA0A2
:1093F8000BAC0BB80BC40BD00BDC0BE90BF50B0259
:109408000C0E0C1B0C280C350C420C4F0C5D0C6A16
:109418000C770C850C930CA10CAF0CBD0CCB0CD9A4
:109428000CE80CF70C050D140D230D320D420D51EF
:109438000D610D700D800D900DA00DB10DC10DD2F7
:109448000DE30DF30D050E160E270E390E4B0E5CAF
:109458000E6F0E810E930EA60E010002000300048B
:1094680000050006000700080009000A000B000CB0
:10947800000D000E000F0010001100120013001460
:1094880000150016001700180019001A001B001C10
:10949800001D001E001F00200021002200230024C0
:1094A80000250026002700280029002A002B002C70
:1094B800002D002E002F0030003100320033003420
:1094C80000350036003700380039003A003B003CD0
:1094D800003D003E003F004000410042004300457F
:1094E80000470049004B004D004F00510053005504
:1094F80000570059005B005D005F00610063006574
:1095080000670069006B006E0070007300750077DB
:109518000079007B007D007F008100830085008743
:109528000089008B008D008F0091009300950097B3
:109538000099009B009D009F00A100A300A500A723
:1095480000A900AB00AD00AF00B100B300B500B793
:1095580000B900BB00BD00C000C300C600C900CCF4
:1095680000CF00D200D500D800DB00DE00E100E427
:1095780000E700EA00ED00F000F300F600F900FC57
:1095880000FF000201050108010B010E0111011481
:109598000117011A011D012001230126012A012DAD
:1095A800013001330137013A013E014201450149C9
:1095B800014D015101550159015D01610166016AC1
:1095C800016E01730178017D01820187018C01918F
:1095D8000196019C01A101A701AD01B301B901BF29
:1095E80001C601CC01D301DA01E101E801F001F77C
:1095F80001FF0107020F02180221022A0233023D6D
:1096080002470251025C02670272027E028A0297D6
:1096180002A402B202C002CF02DF02EF02FF02116F
:10962800032303360349035E0373038903A103B9C4
:1096380003D303DD03E403EA03F103F803FF03069E
:10964800040D0415041C0424042B0433043B0442B5
:10965800044A0452045A0463046B0474047C0485A9
:10966800048E0496049F04A904B204BB04C504CE66
:1096780004D804E204EC04F60400050B05150520E3
:10968800052B05360541054C05580564056F057B16
:109698000587059405A005AD05BA05C705D405E2FB
:1096A80005EF05FD050B061906280637064606557B
:1096B800066406740684069406A406B506C606D78C
:1096C80006E906FA060C071F073107440758076B17
:1096D800077F079307A807BD07D207E807FE071506
:1096E800082C0843085B0873088B08A508BE08D82F
:1096F80008F2080D092909450961097E099C09BA7A
:1097080009D909F909190A390A5B0A7D0A9F0AC3A6
:109718000AE70A0C0B310B580B7F0BA70BD00BFA7F
:109728000B250C510C7E0CAB0CDA0C0A0D3B0D6DA5
:109738000DA00DD40D0A0E410E790EB30EEE0E2AB1
:109748000F680FA80FE90F2C107010B610FE104804
:10975800119411E21132128512D91230138913E5CE
:10976800134414A51409157015DA154716B8162BE5
:1097780017A3171E189D182119A819341AC41A5AA4
:109788001BF41B941C391DE41D951E4C1F0A20CE8A
:10979800209A216E224A232E241B25122612271DC9
:1097A800283229532A812BBB2C032E5A2FC030363E
:1097B80032BD335735F5356136CD363B37AA371BC1
:1097C800388C3800397439EA39623ADB3A553BD17A
:1097D8003B4E3CCD3C4E3DD03D543EDA3E613FEAE7
:1097E8003F744001418F411F42B1424543DB4373FF
:1097F800440D45A9454746E74689472E48D5487E42
:1098080049294AD74A874B3A4CEF4CA64D614E1E20
:109818004FDD4FA05065512D52F852C65397546BE7
:109828005542561C57FA570C070504040303030254
:10983800020202020201010101010101010101010B
:109848000101010101010101010101010101010100
:1098580001010101010101010101010101010101F0
:1098680001010101010101010101010101010101E0
:1098780001010101010101010101010101010101D0
:1098880001010000000000000000000000000000CE
:1098980000000000000000000000000000000000C0
:1098A80000000000000000000000000000000000B0
:1098B80000000000000000000000000000000000A0
:1098C8000000000000000000000000000000000090
:1098D8000000000000000000000000000000000080
:1098E8000000000000000000000000000000000070
:1098F8000000000000000000000000000000000060
:10990800000000000000000000000000000000004F
:10991800000000000000000000000000000000003F
:10992800000000000000000000000000000000002F
:10993800000000000000000000000000000000001F
:10994800000000000000000000000000000000000F
:1099580000000000000000000000000000000000FF
:1099680000000000000000000000000000000000EF
:1099780000000000000000000000000000000000DF
:1099880000000000000000000000000000000000CF
:1099980000000000000000000000000000000000BF
:1099A80000000000000000000000000000000000AF
:1099B800000000000000000000000000000000009F
:1099C800000000000000000000000000000000008F
:1099D800000000000000000000000000000000007F
:1099E800000000000000000000000000000000006F
:1099F800000000000000000000000000000000005F
:109A08000000000000000000000000000000ECF270
:109A1800F6F4D2E8D2C0ECDCCFC3B9B0FCF2E8DF90
:109A2800D7D0CAC3BEB8B3AFAAA6A29F9B98959237
:109A38008F8C8A878583817F7D7B79777574727136
:109A48006F6E6C6B6A68676665646261605F5E5DB5
:109A58005C5B595756545351504F4E4C4B4A4948EA
:109A680047464544434241403FFEFBF8F6F3F0EEDB
:109A7800ECE9E7E5E3E0DEDCDAD8D7D5D3D1CFCE21
:109A8800CCCAC9C7C6C4C3C1C0BEBDBCBAB8B6B4C7
:109A9800B3B1AFAEACAAA9A7A6A4A3A1A09F9D9C51
:109AA8009B9A98979695949392908F8E8D8C8B8A8B
:109AB800898887868584838281807F7E7D7C7B7A86
:109AC800797877767574737271706F6E6D6C6B6A76
:109AD800696867666564636261605F5E5D5C5B5A66
:109AE800595857565554535251504F4E4D4C4B4A56
:109AF800494847464544434241403FFFFEFDFCFB81
:109B0800FAF9F8F7F6F5F4F3F2F1F0EFEEEDECEB25
:109B1800EAE9E8E7E6E5E4E3E2E1E0DFDEDDDCDB15
:109B2800DAD9D8D7D6D5D4D3D2D1D0CFCECDCCCB05
:109B3800CAC9C8C7C6C5C4C3C2C1C0BFBEBDBCBBF5
:109B4800BAB9B8B7B6B5B4B3B2B1B0AFAEADACABE5
:109B5800AAA9A8A7A6A5A4A3A2A1A09F9E9D9C9BD5
:109B68009A999897969594939291908F8E8D8C8BC5
:109B78008A898887868584838281807F7E7D7C7BB5
:109B88007A797877767574737271706F6E6D6C6BA5
:109B98006A696867666564636261605F5E5D5C5B95
:109BA8005A595857565554535251504F4E4D4C4B85
:109BB8004A494847464544434241403FFFFEFDFC71
:109BC800FBFAF9F8F7F6F5F4F3F2F1F0EFEEEDEC55
:109BD800EBEAE9E8E7E6E5E4E3E2E1E0DFDEDDDC45
:109BE800DBDAD9D8D7D6D5D4D3D2D1D0CFCECDCC35
:109BF800CBCAC9C8C702020202020202020202025A
:109C0800020202020202020202020202020202022C
:109C1800020202020202020202020202020202021C
:109C2800020202020202020202020202020202020C
:109C380002020202020202020202020202020202FC
:109C480002020202020202020202020202020202EC
:109C580002020202020202020202020202020202DC
:109C680002020202020202020202020202020202CC
:109C780002020202020202020202020202020202BC
:109C880002020202020202020202020202020202AC
:109C9800020202020202020202020202020202029C
:109CA800020202020202020202020202020202028C
:109CB800020202020202020202020202020202027C
:109CC800020202020202020202020202020202026C
:109CD800020202020202020202020202020202025C
:109CE800020201010101010101010101010101015A
:109CF800010101010101010101010101010101014C
:109D0800010101010101010101010101010101013B
:109D1800010101010101010101010101010101012B
:109D2800010101010101010101010101010101011B
:109D3800010101010101010101010101010101010B
:109D480001010101010101010101010101010101FB
:109D580001010101010101010101010101010101EB
:109D680001010101010101010101010101010101DB
:109D780001010101010101010101010101010101CB
:109D880001010101010101010101010101010101BB
:109D980001010101010101010101010101010101AB
:109DA80001010100000000000000000000000000A8
:109DB800000000000000000000000000000000009B
:109DC800000000000000000000000000000000008B
:109DD800000000000000000000000000B7A2FEA084
:109DE80032A1A1A1BEA04D616E75616C204D6F645A
:109DF8006520202020202020202043757272656E67
:109E08007420706F733A2020202020202001547580
:109E1800726E2043435720002053706565642020EC
:109E280020205374617274202020200020202020DC
:109E380020202020202052657475726E20746F20B7
:109E48005A65726F3F202020202043757272656E1C
:109E58007420706F733A202020202020202020209A
:109E680020202020202020202020202020202020EA
:109E78002020205965732020202020202020202009
:109E880020204E6F20204172633A2053697A653D45
:109E98002020202020202020202043757272656E0B
:109EA8007420706F733A20202020202020015475E0
:109EB800726E20434357200020537065656420204C
:109EC800202053746172742020202000202020203C
:109ED8002020202020204172633A2053657420619D
:109EE80072632073697A6520202041726320736948
:109EF8007A653A202020202020202020202053741A
:109F080065702073697A6520002020436F6E66694A
:109F1800726D202020202020202020200020204397
:109F2800616E63656C204469766964653A20202017
:109F380020202020202020202020506F733A20202D
:109F480020202020202020202020202020204A758A
:109F58006D702073697A653A202020202020202007
:109F680020205072657373546F4A756D70200020FD
:109F780043616E63656C4469766964653A2053652C
:109F880074206469766973696F6E20202020202010
:109F980020202020202020202020202020202020B9
:109FA800202F737465702020002020436F6E66692F
:109FB800726D3132333420202020202000202043AD
:109FC800616E63656C2053657475703A20536574CF
:109FD80020646972656374696F6E202020202020D8
:109FE8002020202020202020202020202020204346
:109FF8006F756E746572436C6F636B7769736520F8
:10A00800202020436C6F636B7769736520202020C4
:10A0180020202020202053657475703A20536574E1
:10A02800207A65726F20706F732E202020202020E8
:10A038002020202020202020202020202020537491
:10A0480065702073697A6520002020436F6E666909
:10A05800726D20782E78780120202020002020435F
:10A06800616E63656C204D61696E204D656E753A51
:10A078002020202020202020202020536574757067
:10A088002020202044697669646520202020204112
:10A0980072632020202020204D616E75616C202085
:10A0A800202020476F325A65726F20202020202000
:10A0B80020202020202009024000020100C032098F
:10A0C8000400000203000000092111010001221D03
:10A0D800000705810340000107050103400001094D
:10A0E800040100020806500007058202400001072B
:10A0F800050202400001340353006F006C00640045
:10A10800650072006E006500720064002E00630036
:10A118006F006D002000200020002000200020009B
:10A12800200020002000200020002E03530074008F
:10A13800650070007000650072004D006F007400CB
:10A148006F00720043006F006E00740072006F00B1
:10A158006C006C00650072000080040220000000A2
:10A168004D6963726F6368704D6173732053746FC8
:10A178007261676520202020303030310600FF09E9
:10A1880001A10119012940150026FF007508954015
:10A198008100190129409100C01A033100320033AF
:10A1A80000340035003600370038003900300039F7
:10A1B8000039004F56455253484F4F545F434F5351
:10A1C800545F494E5F5354455053004D4158494DD3
:10A1D800554D5F53504545445F4D414E55414C00E8
:10A1E800494E495449414C5F53504545445F4D41A0
:10A1F8004E55414C0046554C4C5F434952434C45E3
:10A208005F494E5F5354455053004F56455253488B
:10A218004F4F545F494E5F5354455053004D41587A
:10A22800494D554D5F53504545445F4152430049A0
:10A238004E495449414C5F53504545445F41524350
:10A2480000494E56455253455F4449524543544987
:10A258004F4E001201000200000008D804CFED00A4
:10A268000101020001424545505F4455524154499D
:10A278004F4E004D4158494D554D5F53504545444B
:10A28800004D494E494D554D5F5350454544000AD0
:10A29800000E010F110F0018180000000000000444
:10A2A800040404040404043D2A80A73D2A80A6046B
:10A2B80003090468656C6C6F20776F726C64210009
:10A2C800537465707065724374726C0046494C45EE
:10A2D80020202020004D53444F53352E300020209D
:10A2E8002020202020200043616E63656C00537499
:09A2F8006F70200054585400005E
:10A3020077EF57F0800E0001606F020E616F6E0EE4
:10A31200626FA00E636F000E656F500E646F3CECAF
:10A3220098F00FD03E0E0201946FA5EF57F03E0E4B
:10A3320002019D6FA5EF57F03E0E0201B16FA5EF2E
:10A3420057F001018051010AD8B4ECD7030AD8B4FE
:10A35200EED7010AD8B467D0070AD8B4EDD7010AFC
:10A3620072D0800E0001606F020E616F1E0E626F6E
:10A37200A00E636F000E656F500E646F3CEC98F098
:10A3820083C195F084C196F0020E0001976FBE0E54
:10A39200986F000E996F17EC70F0E80E0101835D63
:10A3A200030E8459D8A002D0000E01D0010E000184
:10A3B200C86F000EC96F18D0C951010DBE0EF3242B
:10A3C200D96E000EF420DA6EC951C8C0BCF0BD6B64
:10A3D200BC27000EBD23BC0EBC25E16E020EBD21C2
:10A3E200E26EDFCFE7FFC92BC951010DBE0EF32488
:10A3F200D96E000EF420DA6EDF50D8A4DDD7010149
:10A402008051110A8ED0800E0001606F020E616FC2
:10A41200CE0E626F9F0E636F000E656F500E646FFB
:10A422003CEC98F00AD03E0E0201A86FA5EF57F05F
:10A432003E0E0201BC6FA5EF57F001018051210AC7
:10A44200D8B4F1D7030AD8B4F3D7A5EF57F0800EEA
:10A452000001606F020E616F7E0E626F9F0E636F6E
:10A46200000E656F500E646F3CEC98F088C178F076
:10A472000001796B030E7A6FBE0E7B6F000E7C6F4C
:10A4820047EC88F0000E0001C96F020EC96501D0C9
:10A4920014D0C951010DBE0EF324D96E000EF42062
:10A4A200DA6EC951010DA80EF324E16E020EF420FA
:10A4B200E26EDFCFE7FFC92BE8D786C178F087C10C
:10A4C20079F0040E7A6FBE0E7B6F000E7C6F47EC44
:10A4D20088F0000E0001C96F030EC96501D01ED0BD
:10A4E200C951010DBE0EF324D96E000EF420DA6EAE
:10A4F200C951010DBC0EF324E16E020EF420E26E8E
:10A50200DFCFE7FFC92BE8D73E0E0201B46FA5EFFC
:10A5120057F03E0E0201C86FA5EF57F001018051BE
:10A52200310AD8B4F1D7030AD8B4F3D7A5EF57F05C
:10A53200800E0001606F020E616F2E0E626F9F0E21
:10A54200636F000E656F500E646F3CEC98F086C12D
:10A5520078F087C179F0000E00017A6FBE0E7B6F32
:10A56200000E7C6F47EC88F0000E0001C96F18D016
:10A57200C951010DBE0EF324D96E000EF420DA6E1D
:10A58200C951BC6FBD6B080EBC27000EBD23800EE7
:10A59200BC25E16E020EBD21E26EDFCFE7FFC92BC3
:10A5A200C951010DBE0EF324D96E000EF420DA6EED
:10A5B200DF50D8A4DDD7C951BC6FBD6B080EBC27D4
:10A5C200000EBD23800EBC25D96E020EBD21DA6EAF
:10A5D2002C0EDF6E01018529D8A424D00001C951B7
:10A5E200BC6FBD6B0A0EBC27000EBD23800EBC25BE
:10A5F200D96E020EBD21DA6E430EDF6EC951BC6FF9
:10A60200BD6B0B0EBC27000EBD23800EBC25D96E80
:10A61200020EBD21DA6E430EDF6EC951BC6FBD6BF7
:10A622000C0E14D00001C951BC6FBD6B0A0EBC27C1
:10A63200000EBD23800EBC25D96E020EBD21DA6E3E
:10A64200430EDF6EC951BC6FBD6B0B0EBC27000EF3
:10A65200BD23800EBC25D96E020EBD21DA6E570EC7
:10A66200DF6E89C178F08AC179F0000E7A6FBE0E72
:10A672007B6F000E7C6F47EC88F0000E0001C96F03
:10A6820018D0C951010DBE0EF324D96E000EF4206C
:10A69200DA6EC951BC6FBD6B050EBC27000EBD231F
:10A6A200940EBC25E16E020EBD21E26EDFCFE7FF04
:10A6B200C92BC951010DBE0EF324D96E000EF42030
:10A6C200DA6EDF50D8A4DDD7C951BC6FBD6B060E60
:10A6D200BC27000EBD23940EBC25D96E020EBD21EF
:10A6E200DA6E280EDF6EC951070FC86F7EC1ADF05A
:10A6F2007FC1AEF0AF6BB06B020EB16FBE0EB26F28
:10A70200000EB36F58EC80F0000E0001C96F18D034
:10A71200C951010DBE0EF324D96E000EF420DA6E7B
:10A72200C851C9C0BCF0BD6BBC27000EBD23940E3E
:10A73200BC25E16E020EBD21E26EDFCFE7FFC92B21
:10A74200C951010DBE0EF324D96E000EF420DA6E4B
:10A75200DF50D8A4DDD7C851C9C0BCF0BD6BBC273F
:10A76200000EBD23940EBC25D96E020EBD21DA6EF9
:10A77200010EDF6EC851C9C0BCF0BD6BBC27000E14
:10A78200BD23010EBC27000EBD23940EBC25D96E3D
:10A79200020EBD21DA6E290EDF6E8BC18FF08CC1E5
:10A7A20090F0BE0E916F000E926FDEEC9CF0000EE8
:10A7B2000001C96F18D0C951010DBE0EF324D96E24
:10A7C200000EF420DA6EC951BC6FBD6B0B0EBC27B4
:10A7D200000EBD23A80EBC25E16E020EBD21E26E65
:10A7E200DFCFE7FFC92BC951010DBE0EF324D96E8D
:10A7F200000EF420DA6EDF50D8B4A6D3DCD7800E78
:10A80200606F020E616FDE0E626F9E0E636F000E4E
:10A81200656F500E646F3CEC98F008D03E0E02015A
:10A82200B46F0CD03E0E0201C86F08D001018051F6
:10A83200510AD8B4F3D7030AD8B4F4D78FC1ADF014
:10A8420090C1AEF091C1AFF092C1B0F0020E000122
:10A85200B16FBE0EB26F000EB36F58EC80F0000EF7
:10A862000001C96F18D0C951010DBE0EF324D96E73
:10A87200000EF420DA6EC951BC6FBD6B0A0EBC2704
:10A88200000EBD23940EBC25E16E020EBD21E26EC8
:10A89200DFCFE7FFC92BC951010DBE0EF324D96EDC
:10A8A200000EF420DA6EDF50D8A4DDD7C951BC6F98
:10A8B200BD6B0A0EBC27000EBD23940EBC25D96EBB
:10A8C200020EBD21DA6E010EDF6E8DC195F08EC1D2
:10A8D20096F0020E976FBE0E986F000E996F17ECEE
:10A8E20070F0E80E01018D5D030E8E59D8A002D0E2
:10A8F200000E01D0010E0001C86F000EC96F18D002
:10A90200C951010DBE0EF324D96E000EF420DA6E89
:10A91200C951C8C0BCF0BD6BBC27000EBD23BC0E24
:10A92200BC25E16E020EBD21E26EDFCFE7FFC92B2F
:10A93200C951010DBE0EF324D96E000EF420DA6E59
:10A94200DF50D8A4DDD7C951C8C0BCF0BD6BBC274D
:10A95200000EBD23BC0EBC25D96E020EBD21DA6EDF
:10A96200010E5BD2800E606F020E616F8E0E626FFF
:10A972009E0E636F000E656F500E646F3CEC98F094
:10A9820025D0570E0201AE6F200EAF6F27D0A80E52
:10A992000001606F020E616FE60E626FA20E636FBE
:10A9A200000E656F080E646F3CEC98F0BC0E00015F
:10A9B200606F020E616FEF0E626FA20E636F000E88
:10A9C200656F060E646F3CEC98F008D0010180516F
:10A9D200620AD8B4DCD7010AD8B4D3D78FC1ADF09C
:10A9E20090C1AEF091C1AFF092C1B0F0020E000181
:10A9F200B16FBE0EB26F000EB36F58EC80F0000E56
:10AA02000001C96F18D0C951010DBE0EF324D96ED1
:10AA1200000EF420DA6EC951BC6FBD6B0A0EBC2762
:10AA2200000EBD23800EBC25E16E020EBD21E26E3A
:10AA3200DFCFE7FFC92BC951010DBE0EF324D96E3A
:10AA4200000EF420DA6EDF50D8A4DDD7C951BC6FF6
:10AA5200BD6B0A0EBC27000EBD23800EBC25D96E2D
:10AA6200020EBD21DA6E010EDF6E7EC1ADF07FC136
:10AA7200AEF0AF6BB06B020EB16FBE0EB26F000ED6
:10AA8200B36F58EC80F0BE0E0001606F000E616F74
:10AA9200A6EC9DF0000160510008060FC86F000E81
:10AAA200C96F1CD0C951010DBE0EF324D96E000E20
:10AAB200F420DA6EC951C8C0BCF0BD6BBC27000ED1
:10AAC200BD230D0EBC27000EBD23940EBC25E16EE6
:10AAD200020EBD21E26EDFCFE7FFC92BC951010D86
:10AAE200BE0EF324D96E000EF420DA6EDF50D8A425
:10AAF200D9D793C193F094C194F03CECA1F093C0E8
:10AB020095F094C096F0020E0001976FBE0E986FFA
:10AB1200000E996F17EC70F0000E0001C96F18D08B
:10AB2200C951010DBE0EF324D96E000EF420DA6E67
:10AB3200C951BC6FBD6B0B0EBC27000EBD23BC0EF2
:10AB4200BC25E16E020EBD21E26EDFCFE7FFC92B0D
:10AB5200C951010DBE0EF324D96E000EF420DA6E37
:10AB6200DF50D8A4DDD72DD1800E606F020E616F49
:10AB72003E0E626F9E0E636F000E656F500E646F25
:10AB82003CEC98F07EC1ADF07FC1AEF00001AF6B3E
:10AB9200B06B020EB16FBE0EB26F000EB36F58EC07
:10ABA20080F0000E0001C96F18D0C951010DBE0E10
:10ABB200F324D96E000EF420DA6EC951BC6FBD6B5E
:10ABC2000D0EBC27000EBD23940EBC25E16E020EB5
:10ABD200BD21E26EDFCFE7FFC92BC951010DBE0EC9
:10ABE200F324D96E000EF420DA6EDF50D8A4DDD73C
:10ABF200C951BC6FBD6B0D0EBC27000EBD23940E58
:10AC0200BC25D96E020EAAD6800E606F020E616F4D
:10AC1200EE0E626F9D0E636F000E656F500E646FD5
:10AC22003CEC98F044D0570E0201AE6F200EAF6F8D
:10AC320049D0A80E0001606F020E616FE60E626FCE
:10AC4200A20E636F000E656F080E646F3CEC98F005
:10AC5200BC0E0001606F020E616FEF0E626FA20EFA
:10AC6200636F000E656F060E646F3CEC98F02AD09D
:10AC7200A80E0001606F020E616FE60E626FA20EF7
:10AC8200636F000E656F080E646F3CEC98F0BC0EAB
:10AC92000001606F020E616FF60E626FA20E636FAB
:10ACA200000E656F050E646F3CEC98F00BD001014D
:10ACB2008051820AD8B4BDD7010AD8B4B4D7070AE2
:10ACC200D8B4D6D77EC1ADF07FC1AEF00001AF6B74
:10ACD200B06B020EB16FBE0EB26F000EB36F58ECC6
:10ACE20080F0BE0E0001606F000E616FA6EC9DF059
:10ACF200000160510008070FC86F000EC96F1CD019
:10AD0200C951010DBE0EF324D96E000EF420DA6E85
:10AD1200C951C8C0BCF0BD6BBC27000EBD230C0ED0
:10AD2200BC27000EBD23940EBC25E16E020EBD2190
:10AD3200E26EDFCFE7FFC92BC951010DBE0EF3242E
:10AD4200D96E000EF420DA6EDF50D8A4D9D796C19E
:10AD520093F097C194F03CECA1F093C095F094C0AD
:10AD620096F0020E0001976FBE0E986F000E996F5B
:10AD720017EC70F0000E0001C96F18D0C951010D17
:10AD8200BE0EF324D96E000EF420DA6EC951BC6FE8
:10AD9200BD6B0B0EBC27000EBD23BC0EBC25E16EA5
:10ADA200020EBD21E26EDFCFE7FFC92BC951010DB3
:10ADB200BE0EF324D96E000EF420DA6EDF50D8A452
:10ADC200DDD7C951BC6FBD6B0B0EBC27000EBD2376
:10ADD200BC0EBC25D96E020EBD21DA6E010EDF6EED
:10ADE200C951BC6FBD6B0C0EBC27000EBD23BC0E3F
:10ADF200BC25D96E020EBD21DA6E2F0EDF6EC9514F
:10AE0200BC6FBD6B0D0EBC27000EBD23BC0EBC2556
:10AE1200D96E020EBD21DA6E730EDF6E95D072EC22
:10AE22009CF0010176510001956F966B95BF9607D4
:10AE3200000E976F800E986F020E996F17EC70F0EC
:10AE420084A402D0480E01D04C0E0201886F84A067
:10AE520002D0480E01D04C0E896F010177510001DA
:10AE6200956F966B95BF9607000E976F940E986F2D
:10AE7200020E996F17EC70F084A202D0480E01D036
:10AE82004C0E02019C6F010178510001956F966B87
:10AE920095BF9607000E976FA80E986F020E996FD6
:10AEA20017EC70F080A002D0480E01D04C0E0201C7
:10AEB200B06F80A402D0480E01D04C0EB16F0101D8
:10AEC20079510001956F966B95BF9607000E976FAB
:10AED200BC0E986F020E996F17EC70F080A202D030
:10AEE200480E01D04C0E0201C46F2ED001018051D8
:10AEF200F00B0001BC6FBD6BBD51000AD8A424D079
:10AF0200BC51000AD8B483EF51F0100AD8B4B2EFA2
:10AF120051F0300AD8B404EF52F0100AD8B428EF36
:10AF220052F0700AD8B499EF52F0100AD8B467D42C
:10AF3200300AD8B417D5100AD8B416D6F00AD8B445
:10AF420063D6700AD8B46BD783B41200450E0201DF
:10AF5200806F520E816F520E826F4F0E836F520EB0
:10AF6200846F120001017651D8A413EF5CF078517E
:10AF7200D8A413EF5CF07751D8A413EF5CF07951A9
:10AF8200D8B4120013EF5CF07705D8B403D079057A
:10AF9200D8A402D0110E806F78C1C4F00001C56B35
:10AFA200C4BFC50776C1C6F0C76BC6BFC707C451C9
:10AFB200C627C551C723C7BF08D0C75103E1C6057D
:10AFC200D8A003D0020E0101806F78C1C4F0000145
:10AFD200C56BC4BFC50776C1C6F0C76BC6BFC7077E
:10AFE200C451C627C551C723C7AF38EF5CF0050E61
:10AFF20001EF5CF07705D8B403D07905D8A402D06C
:10B00200310E806F78C1C4F00001C56BC4BFC507A3
:10B0120076C1C6F0C76BC6BFC707C451C627C551A4
:10B02200C723C7BF08D0C75103E1C605D8A003D0C4
:10B03200030E0101806F78C1C4F00001C56BC4BF6B
:10B04200C50776C1C6F0C76BC6BFC707C451C627BE
:10B05200C551C723C7AF38EF5CF0010ED1D37705D6
:10B06200D8B403D07905D8A402D0510E806F78C12C
:10B07200C4F00001C56BC4BFC50776C1C6F0C76B7B
:10B08200C6BFC707C451C627C551C723C7BF08D00B
:10B09200C75103E1C605D8A003D0040E0101806F99
:10B0A20078C1C4F00001C56BC4BFC50776C1C6F044
:10B0B200C76BC6BFC707C451C627C551C723C7AF91
:10B0C200D6D3020E9DD37705D8B403D07905D8A480
:10B0D20002D0820E806F78C1C4F00001C56BC4BF7C
:10B0E200C50776C1C6F0C76BC6BFC707C451C6271E
:10B0F200C551C723C7BF08D0C75103E1C605D8A0B1
:10B1020003D0050E0101806F78C1C4F00001C56B48
:10B11200C4BFC50776C1C6F0C76BC6BFC707C45157
:10B12200C627C551C723C7AFA2D3030E69D377057C
:10B13200D8B403D07905D8A402D0710E806F78C13B
:10B14200C4F00001C56BC4BFC50776C1C6F0C76BAA
:10B15200C6BFC707C451C627C551C723C7BF08D03A
:10B16200C75103E1C605D8A003D0010E0101806FCB
:10B1720078C1C4F00001C56BC4BFC50776C1C6F073
:10B18200C76BC6BFC707C451C627C551C723C7AFC0
:10B192006ED3040E35D301018051010AD8B4F4D61E
:10B1A200030AD8B427D7010AD8B459D7070AD8B4A2
:10B1B2008AD7010AD8B4BBD7F50A59D37705D8A4E0
:10B1C2000ED0000E7A6F000E7B6F000E7C6F000EA9
:10B1D2007D6F000E8A6F000E896F210E806F76518F
:10B1E200800A7F0FD8A002D0120E806F76AF1BD0DC
:10B1F200120E0FD07705D8A402D0010E806F7651BF
:10B20200800A7F0FD8A002D0110E806F76AF0BD0CC
:10B21200110E806F08D001018051110AD8B4CED727
:10B22200030AD8B4E7D77905D8A40AD083C160F05D
:10B2320084C161F0C4EC95F060C083F161C084F117
:10B2420001017851800A7F0FD8A019D08151D8A46A
:10B2520016D083C18FF084C190F04CEC9CF08FC06B
:10B2620097F090C098F091C099F092C09AF0000EB9
:10B2720000019C6F000E9B6F010ECEEC8FF001015E
:10B2820078AFF5D28151D8A4F2D283C18FF084C1B4
:10B2920090F04CEC9CF08FC097F090C098F091C069
:10B2A20099F092C09AF0000E00019C6F000E9B6F05
:10B2B200FF0ECEEC8FF0DBD201017705D8B403D0BC
:10B2C2007905D8A420D0A8C197F0A9C198F00001AF
:10B2D200996B9A6B000E9C6F000E9B6F010ECEEC69
:10B2E2008FF0A8C197F0A9C198F00001996B9A6BF1
:10B2F200000E9C6F000E9B6FFF0ECEEC8FF00101D3
:10B302008569010E806F78C1C4F00001C56BC4BFAE
:10B31200C50776C1C6F0C76BC6BFC707C451C627EB
:10B32200C551C723C7BF08D0C75103E1C605D8A07E
:10B3320003D0220E0101806F78C1C4F00001C56BF9
:10B34200C4BFC50776C1C6F0C76BC6BFC707C45125
:10B35200C627C551C723C7AF8AD2220E51D277055D
:10B36200D8B403D07905D8A421D0A8C197F0A9C137
:10B3720098F00001996B9A6B000E9C6F000E9B6F08
:10B38200FF0ECEEC8FF0A8C197F0A9C198F0000192
:10B39200996B9A6B000E9C6F000E9B6F010ECEECA8
:10B3A2008FF0010E0101856F010E806F78C1C4F02C
:10B3B2000001C56BC4BFC50776C1C6F0C76BC6BF67
:10B3C200C707C451C627C551C723C7BF08D0C75135
:10B3D20003E1C605D8A003D0210E0101806F78C118
:10B3E200C4F00001C56BC4BFC50776C1C6F0C76B08
:10B3F200C6BFC707C451C627C551C723C7AF37D277
:10B40200210EFED101018051210AD8B455D7030A79
:10B41200D8B4A5D72CD27705D8A405D051EC78F0B2
:10B42200410E0101806F7651800A7F0FD8A002D0B1
:10B43200320E806F76AF1BD0320E0FD07705D8A4B4
:10B4420002D0020E806F7651800A7F0FD8A002D000
:10B45200310E806F76AF0BD0310E806F08D00101B4
:10B462008051310AD8B4D7D7030AD8B4E7D77905BF
:10B47200D8A405D08851A6EC9FF00101886F7851BD
:10B48200800A7F0FD8A004D088518627000E872318
:10B4920078AFEDD188510001C46FC56B01018651AF
:10B4A2000001C45DC551800AC66F01018751800A3F
:10B4B2000001C659D8B006D001018851865F000E3E
:10B4C200875BD5D1000E0101876F010E866FCFD148
:10B4D20001017705D8A402D0020E806F7905D8B495
:10B4E20024EC90F001017851800A7F0FD8B086ECED
:10B4F2009DF0010178AFBBD16BEC96F0B8D10101A0
:10B502007705D8A402D0620E806F7651800A7F0F31
:10B51200D8A002D0520E806F76AF1BD0520E0FD041
:10B522007705D8A402D0030E806F7651800A7F0F70
:10B53200D8A002D0510E806F76AF0BD0510E806F23
:10B5420008D001018051510AD8B4D9D7030AD8B41E
:10B55200E7D77905D8A40AD08DC160F08EC161F019
:10B56200FCEC95F060C08DF161C08EF10101785163
:10B57200800A7F0FD8A01CD08D518F278E51902327
:10B58200000E9123000E922392BF12D0925108E135
:10B59200A10E8F5D860E9059010E9159D8A008D048
:10B5A200A00E8F6F860E906F010E916F000E926F3C
:10B5B20078AF5DD18D510001C46F01018E51000140
:10B5C200C56FC66BC76BC45101018F5F0001C551C6
:10B5D2000101905B0001C6510101915B0001C7515D
:10B5E2000101925B92BF07D092519111901102E139
:10B5F2008F05D8B03CD1010E8F6F000E906F000EF8
:10B60200916F000E926F33D101017651800A7F0F44
:10B61200D8A011D0B251935DB3519459D8B002D091
:10B62200934B942B8151D8B406D093C160F094C14E
:10B6320061F096ECA1F0010176AF46D09351AC5D7A
:10B642009451AD59D8B003D09307D8A09407815133
:10B65200D8B43AD093C160F094C161F096ECA1F0F5
:10B6620033D001017905D8A406D0FF0EB8EC88F0DA
:10B67200620E0101806F7851800A7F0FD8A0F7D047
:10B68200620EBFD07905D8A407D08151D8A4BBECF3
:10B692009CF0030E0101806F7851800A7F0FD8A0C1
:10B6A20002D0630E806F78AFE2D0610EAAD0790526
:10B6B200D8A406D0010EB8EC88F0620E0101806FAA
:10B6C20078AFD5D0620E9DD001018051610AD8B405
:10B6D200C8D7030AD8B4D6D7010AD8B4E8D7C7D096
:10B6E20001017905D8A412D0000E00019E6F000E50
:10B6F2009F6F000EA06F000EA16F2FEC64F0050E7D
:10B702000101806F000E8A6F000E896F7705D8A441
:10B71200AED0050E76D001017651800A7F0FD8A0F7
:10B722000ED0B651965DB7519759D8B008D0964B06
:10B73200972B96C160F097C161F096ECA1F00101E0
:10B7420076AF61D09651AC5D9751AD59D8B05BD010
:10B752009607D8A0970796C160F097C161F096EC62
:10B76200A1F051D001017905D8A413D0000E000137
:10B77200976F000E986F000E996F000E9A6F96C128
:10B782009BF097C19CF0FF0ECEEC8FF0840E01016E
:10B79200806F7851800A7F0FD8A069D0820E31D095
:10B7A2007905D8A402D0040E806F7851800A7F0FE9
:10B7B200D8A002D0830E806F78AF59D0810E21D0ED
:10B7C2007905D8A412D0840E806F000E0001976F05
:10B7D200000E986F000E996F000E9A6F96C19BF043
:10B7E20097C19CF0010ECEEC8FF0010178AF3FD0F3
:10B7F200820E07D07905D8A43AD0BBEC9CF0820E19
:10B802000101806F34D001018051810AD8B4AAD7D6
:10B81200030AD8B4C5D7010AD8B4D2D7070AD8B414
:10B82200E9D725D08051F00B0001C46FC56BC5511B
:10B83200000AD8A41CD0C451000AD8B4ACD4100A4F
:10B84200D8B4E9D4300AD8B4DDD5100AD8B407D6B2
:10B85200700AD8B43DD6100AD8B473D6300AD8B418
:10B86200D3D6100AD8B43CD7F00AD8B454D7000EB5
:10B872000101766F000E786F000E776F000E796F00
:10B8820012009E922050D8A418D08AA215D08A9273
:10B8920001014251161809E14351171806E14451BA
:10B8A200181803E145511918D8A41200CA949E929F
:10B8B2009D92000E816F12008A82010E1626000EE2
:10B8C2001722182219220001F1512E6E000E2EBEEF
:10B8D200FF0E2F6E306E316E2E5001017A272F50DF
:10B8E2007B2330507C2331507D23A3517A1912E1FE
:10B8F200A4517B190FE1A5517C190CE1A6517D19C8
:10B90200D8A408D0000E7A6F000E7B6F000E7C6FF9
:10B91200000E7D6F7A2913E17B2911E17C290FE169
:10B922007D29D8A40CD0FF0EA3257A6FFF0EA42187
:10B932007B6FFF0EA5217C6FFF0EA6217D6F3E510E
:10B94200161809E13F51171806E14051181803E192
:10B9520041511918D8A40FD216C02EF017C02FF0DB
:10B9620018C030F019C031F02E1E2F1E301E311EAD
:10B972002E2A000E2F223022312242512E24426ED4
:10B9820043512F20436E44513020446E45513120A3
:10B99200456ED8900001E935F66EEA35F76E610E14
:10B9A200F626940EF722F86A000EF8220900F5CF67
:10B9B2003EF00A00F5CF3FF0E9C02EF0EAC02FF0CA
:10B9C200D8902E362F36040E2E26000E2F22610E10
:10B9D2002E24F66E940E2F20F76EF86A000EF822CF
:10B9E2000900F5CF40F00A00F5CF41F0E95101011D
:10B9F200625D0001EA5101016359D8A010D03E50A6
:10BA02002E6E3F502F6E306A316A42502E5C435088
:10BA12002F584450305845503158D8A0E0D000013A
:10BA2200E951EA11D8B403D0E907D8A0EA07200403
:10BA3200D8A424D02F0EE925F66E980EEA21F76ECF
:10BA4200F86A000EF8220800F5500009D8B416D0A2
:10BA5200000E206E8A82550EA76EAA0EA76E0E01E8
:10BA6200BF91000EC46F550EA76EAA0EA76EBF81BE
:10BA7200000ECC6EBA90BA92BA94BA96FD0E00013C
:10BA8200E925F66E9B0EEA21F76EF86A000EF8229F
:10BA92000800F5CF2EF0CA502E18FC0B2E18CA6ED5
:10BAA200160EE925F66E9A0EEA21F76EF86A000E76
:10BAB200F8220800F5CFCBFF2F0EE925F66E980E7F
:10BAC200EA21F76EF86A000EF8220800F5CF2EF090
:10BAD2002E462E462E46CA502E18870B2E18CA6E98
:10BAE200D890CB30BB6EE951EA11D8B458D0FE0ED3
:10BAF2002E6EFF0E2F6EE9C030F0EAC031F0D89002
:10BB0200303631362E5030262F503122610E3024FD
:10BB1200F66E940E3120F76EF86A000EF8220900D4
:10BB2200F5CF32F00900F5CF33F03250346E335096
:10BB3200356E366A376A341E351E361E371E342A73
:10BB4200000E352236223722D890E935F66EEA35D4
:10BB5200F76E610EF626940EF722F86A000EF822AE
:10BB62000900F5CF38F00900F5CF39F03850342408
:10BB72003A6E395035203B6E000E36203C6E000E78
:10BB820037203D6E16503A2401013E6F17503B207C
:10BB92003F6F18503C20406F19503D20EBD0D89099
:10BBA2000001E935F66EEA35F76E610EF626940E5F
:10BBB200F722F86A000EF8220900F5CF2EF00900EC
:10BBC200F5CF2FF02E50162401013E6F2F50172073
:10BBD2003F6F000E1820406F000E1920CBD062512B
:10BBE2000001E91906E1010163510001EA19D8B423
:10BBF20010D040502E6E41502F6E306A316A425042
:10BC02002E5C43502F584450305845503158D8A0DC
:10BC120002D0D8905DD00001E94BEA2BFD0EE92558
:10BC2200F66E9B0EEA21F76EF86A000EF822080003
:10BC3200F5CF2EF0CA502E18FC0B2E18CA6E160E17
:10BC4200E925F66E9A0EEA21F76EF86A000EF822DE
:10BC52000800F5CFCBFF2F0EE925F66E980EEA21EC
:10BC6200F76EF86A000EF8220800F5CF2EF02E4685
:10BC72002E462E46CA502E18870B2E18CA6ED89002
:10BC8200CB30BB6E2050D8A421D02F0EE925F66E02
:10BC9200980EEA21F76EF86A000EF8220800F550B5
:10BCA2000009D8A413D0010E206EBA50F00B0C0973
:10BCB200BA6E550EA76EAA0EA76E0E01BF910E0E9A
:10BCC200C46F550EA76EAA0EA76EBF81D890000151
:10BCD200E935F66EEA35F76E610EF626940EF72216
:10BCE200F86A000EF8220900F5CF2EF00900F5CF10
:10BCF2002FF02E50306E2F50316E326A336A301E62
:10BD0200311E321E331E302A000E312232223322DD
:10BD1200E9C034F0EAC035F0D89034363536020E38
:10BD22003426000E3522610E3424F66E940E352030
:10BD3200F76EF86A000EF8220900F5CF36F0090016
:10BD4200F5CF37F036503024386E37503120396E07
:10BD5200000E32203A6E000E33203B6E165038240D
:10BD620001013E6F175039203F6F18503A20406F43
:10BD720019503B20416F9EA212009E92010E162680
:10BD8200000E1722182219220001F1512E6E000E08
:10BD92002EBEFF0E2F6E306E316E2E5001017A27AD
:10BDA2002F507B2330507C2331507D23A3517A19AD
:10BDB20012E1A4517B190FE1A5517C190CE1A651A6
:10BDC2007D19D8A408D0000E7A6F000E7B6F000E8A
:10BDD2007C6F000E7D6F7A2914E17B2912E17C29A8
:10BDE20010E17D29D8A41200FF0EA3257A6FFF0E61
:10BDF200A4217B6FFF0EA5217C6FFF0EA6217D6F14
:10BE020012001200BFD129EC73F00009D8A412006D
:10BE12000001F969120024EC67F00009D8A41200AD
:10BE22000001F9691200F505D8A402D0F9691200DF
:10BE320012C1ECF013C1EBF0EBC06AF0ECC06BF096
:10BE42006C6B6D6B76EC85F00009D8A41200000EC5
:10BE52000001616F240E606FC7EC8EF0000E0001CE
:10BE6200606F060E616F600E626FA10E636F000E4F
:10BE7200656F240E646F3CEC98F0FD0E0001F96FC3
:10BE82001200D6C160F0D7C161F021EEC4F001D832
:10BE92000AD00500FA6EDE50FD6EDE50FE6EDE50F8
:10BEA200FF6EFA50120060C0A2F061C0A3F062C03F
:10BEB200A4F063C0A5F0D6C160F0D7C161F021EE55
:10BEC200C7F001D80AD00500FA6EDE50FD6EDE50D2
:10BED200FE6EDE50FF6EFA501200000160C09EF04E
:10BEE20061C09FF0A06BA16B26EE00F0A5C0DFFF42
:10BEF20026EE01F0A4C0DFFF26EE02F0A3C0DFFFB2
:10BF020026EE03F0A2C0DFFF26EE04F0A1C0DFFFA1
:10BF120026EE05F0A0C0DFFF26EE06F09FC0DFFF91
:10BF220026EE07F09EC0DFFF000EEC6F080EEB6FEF
:10BF3200000E616F080E606FC7EC8EF0FD0E0001FF
:10BF4200F96F1200F505D8A402D0F9691200000EAB
:10BF5200EC6F120EEB6F000E616F120E606FC7EC8A
:10BF62008EF0000E0001A66F110EA66501D014D04E
:10BF7200A651010D1F0EF324D96E010EF420DA6EC4
:10BF8200A651010D000EF324E16E060EF420E26EBE
:10BF9200DFCFE7FFA62BE8D7FD0EF96F1200030EE5
:10BFA200E8CF00F6000EE8CF01F6D6C160F0D7C1A7
:10BFB20061F021EED0F001D80AD00500FA6EDE5011
:10BFC200FD6EDE50FE6EDE50FF6EFA50120000096A
:10BFD200D8A405D0000E00019C6F000E04D0000E04
:10BFE20000019C6F800E9B6F26EE02F09BC0DFFF6C
:10BFF200000EE8CF03F6000EEC6F040EEB6F000E9E
:10C00200616F040E606FC7EC8EF0FD0E0001F96FD8
:10C01200120001012151F00B0509216F200E2B6F37
:10C02200000E2C6F010E0D018C6F000E886F000E3A
:10C03200896F000E8A6F000E8B6F0001F969120082
:10C04200000E6A6F000E6B6F000E6C6F000E6D6F4C
:10C0520076EC85F00009D8A41200010121510F0BE2
:10C06200060AD8A407D00D018C05D8A403D000017C
:10C07200F9691200DAEC97F0000E0D01886F000EDC
:10C08200896F000E8A6F000E8B6F0001F969120032
:10C09200000E0D01886F000E896F000E8A6F000E70
:10C0A2008B6F0001F9691200ED51EE11D8B406D080
:10C0B200EDC0D9FFEEC0DAFFDFBE120001010B5165
:10C0C2000A11091104E1400E085DD8A00BD0400E00
:10C0D20000019D6F400E0101085F000E095B0A5BC3
:10C0E2000B5B0AD008C19DF0000E086F000E096FAD
:10C0F200000E0A6F000E0B6F00019D51996F9A6B33
:10C102009951EB5D9A51EC59D8A005D09D51EB5F46
:10C11200000EEC5B1AD0000EA66F13D0EB51EC119F
:10C12200D8B404D0EB07D8A0EC070AD0A651010D71
:10C13200000EF324D96E060EF420DA6E000EDF6EC6
:10C14200A62B9D51A65DD8A0E9D7010E606F000E07
:10C15200616F060E626F9DC063F0020E6FEC82F09B
:10C1620060C0EDF061C0EEF00101085109110A1141
:10C172000B11D8A412000001F96912007F0ECBEC5A
:10C182007FF012000001F951000AD8B459D7030A0E
:10C19200D8B4D8D6110AD8B446D6080AD8B4FFD62D
:10C1A200010AD8B475D7050AD8B433D73B0AD8B434
:10C1B20068D60D0AD8B427D6020AD8B42CD6050AF6
:10C1C200D8B466D7D20AD8B46FD7030AD7D700013A
:10C1D2007151800B7A6F71517125806F70BF8081B0
:10C1E2008051D8B40DD08029D8A408D0000E6E6F2B
:10C1F200000E6F6F000E706F000E716F708F08D09F
:10C20200000E6E6F000E6F6F000E706F000E716F7A
:10C212007551800B7A1B755175257B6F74BF7B81BD
:10C222007B51D8B40DD07B29D8A408D0000E726FF0
:10C23200000E736F000E746F000E756F748F08D04E
:10C24200000E726F000E736F000E746F000E756F2A
:10C252007B51D8B403D08051D8A409D0000E6E6FA0
:10C26200000E6F6F000E706F000E716F120074512E
:10C272006E03F3CF85F0F4CF86F085517C6F7D6B32
:10C282007E6B7F6B8651816F826B836B846B735184
:10C292006F03F3CF85F0F4CF86F085517C27000E33
:10C2A2007D237E237F2386518127000E82238323D1
:10C2B200842372517003F3CF85F0F4CF86F0855159
:10C2C2007C27000E7D237E237F2386518127000E4B
:10C2D2008223832384237EC07FF07DC07EF07CC0D6
:10C2E2007DF07C6B72516F03F3CF85F0F4CF86F053
:10C2F20085517C2786517D23000E7E23000E7F23ED
:10C3020073516E03F3CF85F0F4CF86F085517C270D
:10C3120086517D23000E7E23000E7F237EC07FF098
:10C322007DC07EF07CC07DF07C6B72516E03F3CFDA
:10C3320085F0F4CF86F085517C2786517D23000E4F
:10C342007E23000E7F2374516F03F3CF85F0F4CF69
:10C3520086F08551812786518223000E8323000EA9
:10C36200842373517003F3CF85F0F4CF86F08551A7
:10C37200812786518223000E8323000E8423745169
:10C382007003F3CF85F0F4CF86F08551766F865136
:10C39200776F786B796B78C079F077C078F076C078
:10C3A20077F0766B765181277751822378518323F8
:10C3B200795184237CC076F07DC077F07EC078F01E
:10C3C2007FC079F0190E05D0D8907933783377335E
:10C3D2007633E82EF9D77651812777518223785127
:10C3E2008323795184237EC07FF07DC07EF07CC0A0
:10C3F2007DF07C6B7B5180C076F0776B7627000EE8
:10C402007723820E7625856FFF0E7721866F0FD0F8
:10C41200D89081378237833784377FBF8181D89024
:10C422007C377D377E377F378507D8A0860783AF75
:10C43200EFD7000E7B6F7FAF16D0FF0E7C15766FA5
:10C44200FF0E7D15776FFF0E7E15786F7F0E7F15BD
:10C45200796F7651771178117911D8A402D081A120
:10C4620002D0010E7B6F7B51D8B41FD0010E812701
:10C47200000E82238323842384A117D081C076F007
:10C4820082C077F083C078F084C079F0793579334F
:10C4920078337733763376C081F077C082F078C014
:10C4A20083F079C084F0854B862B86BF0DD08651F0
:10C4B20003E18529D8A008D0000E816F000E826F9B
:10C4C200800E836F7F0E20D086BF05D086510EE18D
:10C4D2008505D8B00BD0000E816F000E826F000E62
:10C4E200836F000E846F000E7A6F0FD085C080F0CC
:10C4F200FF0E8117FF0E82177F0E8317000E84171F
:10C5020080B1838FD8908031846F7A51841381C037
:10C512006EF082C06FF083C070F084C071F01200C0
:10C5220000017551800B826F75517525846F74BF40
:10C5320084818451D8B40DD08429D8A408D0000EA7
:10C54200726F000E736F000E746F000E756F748F32
:10C5520006D0000E726F000E736F000E746F000E25
:10C56200756F7951800B836F82518319D8A4828DA4
:10C5720079517925836F78BF83818351D8B40DD0E7
:10C582008329D8A408D0000E766F000E776F000EB4
:10C59200786F000E796F788F06D0000E766F000EDE
:10C5A200776F000E786F000E796F8451835DD8B07B
:10C5B20022D082AD02D0800E821B84C085F083C05F
:10C5C20084F085C083F072C085F076C072F085C0B9
:10C5D20076F073C085F077C073F085C077F074C0D1
:10C5E20085F078C074F085C078F075C085F079C0A8
:10C5F20075F085C079F0000E856F84517A6F7B6B80
:10C602007A1F7B1F7A4B7B2B83517C6F7D6B7A5118
:10C612007C277B517D237DBF2CD07D5104E11A0EF6
:10C622007C5DD8A026D07251731174117511D8B4E3
:10C6320002D0010E01D0000E856F000E726F000E47
:10C64200736F000E746F000E756F83C084F015D087
:10C6520085A105D0D89085310109856F02D0D89087
:10C66200853372B1858F7535753374337333723395
:10C67200842B8351845DD8A0EBD782BD28D084510E
:10C68200D8A409D0000E726F000E736F000E746F83
:10C69200000E756F1200765172277751732378510D
:10C6A20074237951752375A182D085A105D0D890C4
:10C6B20085310109856F02D0D890853372B1858F9B
:10C6C20075357533743373337233842B70D076516E
:10C6D200725D77517359785174597551800A7A6F26
:10C6E2007951800A7A59D8B036D072C07AF073C0C4
:10C6F2007BF074C07CF075C07DF07A1F7B1F7C1FBD
:10C702007D1F7A2B000E7B237C237D2376517A2595
:10C712007E6F77517B217F6F78517C21806F7951B9
:10C722007D21816FFF0E7E25726FFF0E7F21736F59
:10C73200FF0E8021746FFF0E8121756F800E821BA8
:10C74200856D8551D8A40FD0010E7227000E732378
:10C752007423752308D07651725F7751735B7851D9
:10C76200745B7951755B7251731174117511D8A490
:10C772001CD08551D8A419D0000E726F000E736FB1
:10C78200000E746F000E756F1200D89072377337F7
:10C792007437753785BF728185A102D0D88001D0E8
:10C7A200D89085378451D8A4840774AFEED7000E91
:10C7B200836F85AF0AD085C07AF07F0E7A17D8A42E
:10C7C20002D072A102D0010E836F8351D8B420D05F
:10C7D200010E7227000E73237423752375A118D0DE
:10C7E20072C07AF073C07BF074C07CF075C07DF0CB
:10C7F2007D357D337C337B337A337AC072F07BC0F4
:10C8020073F07CC074F07DC075F08429D8A4842BA9
:10C812008429D8B403D08451D8A40DD0000E726FED
:10C82200000E736F000E746F000E756F8451D8A4E2
:10C8320002D0000E826F84A102D0748F01D0749F47
:10C84200D8908431756F82BF758F72C072F073C0D9
:10C8520073F074C074F075C075F01200010181515B
:10C86200D8A4120000019E5101017A1910E10001C1
:10C872009F5101017B190BE10001A05101017C19BB
:10C8820006E10001A15101017D19D8B41200000E88
:10C892000001AA6F000EAB6F000EAC6F000EAD6F01
:10C8A2007AC1A2F07BC1A3F07CC1A4F07DC1A5F046
:10C8B200A21FA31FA41FA51FA22B000EA323A42304
:10C8C200A5239E51A225B26F9F51A321B36FA05100
:10C8D200A421B46FA151A521B56FB2510101A35D8D
:10C8E2000001B3510101A4590001B4510101A5593C
:10C8F2000001B5510101A659D8B00FD0A3510001D2
:10C90200B2270101A4510001B3230101A551000185
:10C91200B4230101A6510001B52301018529D8A440
:10C9220023D0A8510001B2270101A9510001B3236C
:10C93200000EB423000EB5230101A8510001AA275D
:10C942000101A9510001AB23000EAC23000EAD235F
:10C952000101AA510001AA270101AB510001AB2339
:10C96200000EAC23000EAD23000E0001AE6F000ED0
:10C97200AF6F000EB06F000EB16F9EC0A2F09FC0ED
:10C98200A3F0A0C0A4F0A1C0A5F0A21FA31FA41FE2
:10C99200A51FA22B000EA323A423A52301017A51D4
:10C9A2000001A225B66F01017B510001A321B76FDF
:10C9B20001017C510001A421B86F01017D510001E8
:10C9C200A521B96FB6510101A35D0001B751010163
:10C9D200A4590001B8510101A5590001B951010141
:10C9E200A659D8B00FD0A3510001B6270101A45116
:10C9F2000001B7230101A5510001B8230101A6518D
:10CA02000001B92301018505D8A423D0A851000152
:10CA1200B6270101A9510001B723000EB823000E69
:10CA2200B9230101A8510001AE270101A95100015A
:10CA3200AF23000EB023000EB1230101AA51000161
:10CA4200AE270101AB510001AF23000EB023000E4F
:10CA5200B1230001AE51B625A26FAF51B721A36F2A
:10CA6200B051B821A46FB151B921A56FAA51B22515
:10CA7200A66FAB51B321A76FAC51B421A86FAD51D2
:10CA8200B521A96FA251A65DA351A759A451A859D6
:10CA9200A551A959D8B034D001018505D8A411D027
:10CAA200B2C097F0B3C098F0B4C099F0B5C09AF094
:10CAB200000E00019C6F000E9B6F010ECEEC8FF0FA
:10CAC2001200B2C097F0B3C098F0B4C099F0B5C0EC
:10CAD2009AF0000E00019C6F000E9B6F010ECEECCF
:10CAE2008FF0A8C197F0A9C198F00001996B9A6BD9
:10CAF200000E9C6F000E9B6FFF0ECEEC8FF01200AB
:10CB020001018529D8A411D0B6C097F0B7C098F01A
:10CB1200B8C099F0B9C09AF0000E00019C6F000EE7
:10CB22009B6FFF0ECEEC8FF01200B6C097F0B7C02D
:10CB320098F0B8C099F0B9C09AF0000E00019C6F4D
:10CB4200000E9B6FFF0ECEEC8FF0A8C197F0A9C12B
:10CB520098F00001996B9A6B000E9C6F000E9B6F10
:10CB6200010ECEEC8FF01200000E0001E56F000EF8
:10CB7200E66F000EE76F000EE86FFD0E846FA10EE8
:10CB8200856FA3C186F0A4C187F0A5C188F0A6C1B4
:10CB920089F0000EE5258A6F080EE6218B6FD5EC31
:10CBA20087F00001E36FE351E527000EE623E72358
:10CBB200E823490E846FA20E856F0101A75100017F
:10CBC200866F876B886B896B000EE5258A6F080E6E
:10CBD200E6218B6FD5EC87F00001E36FE351E52787
:10CBE200000EE623E723E823120E846FA20E856F60
:10CBF200A8C186F0A9C187F0886B896B000EE52574
:10CC02008A6F080EE6218B6FD5EC87F00001E36F87
:10CC1200E351E527000EE623E723E823BB0E846FEA
:10CC2200A10E856FAAC186F0ABC187F0886B896BB4
:10CC3200000EE5258A6F080EE6218B6FD5EC87F092
:10CC42000001E36FE351E527000EE623E723E82323
:10CC5200890E846FA20E856FACC186F0ADC187F0DC
:10CC6200886B896B000EE5258A6F080EE6218B6FB3
:10CC7200D5EC87F00001E36FE351E527000EE623D0
:10CC8200E723E8237B0E846FA20E856FAEC186F088
:10CC9200AFC187F0886B896B000EE5258A6F080E9D
:10CCA200E6218B6FD5EC87F00001E36FE351E527B6
:10CCB200000EE623E723E823370E846FA20E856F6A
:10CCC200B0C186F0B1C187F0886B896B000EE52593
:10CCD2008A6F080EE6218B6FD5EC87F00001E36FB7
:10CCE200E351E527000EE623E723E823250E846FB0
:10CCF200A20E856FB2C186F0B3C187F0886B896BD3
:10CD0200000EE5258A6F080EE6218B6FD5EC87F0C1
:10CD12000001E36FE351E527000EE623E723E82352
:10CD2200E80E846FA10E856FB4C186F0B5C187F09D
:10CD3200886B896B000EE5258A6F080EE6218B6FE2
:10CD4200D5EC87F00001E36FE351E527000EE623FF
:10CD5200E723E823D30E846FA10E856FB6C186F058
:10CD6200B7C187F0886B896B000EE5258A6F080EC4
:10CD7200E6218B6FD5EC87F00001E36FE351E527E5
:10CD8200000EE623E723E8236D0E846FA20E856F63
:10CD92000101B8510001866F876B886B896B000EA9
:10CDA200E5258A6F080EE6218B6FD5EC87F000012E
:10CDB200E36FE351E527000EE623E723E823F00EB5
:10CDC2008B6F010E8C6FF80E8D6F010E8E6F61EC02
:10CDD20087F00001E46FE429D8A415D0F00EAC6FFF
:10CDE200010EAD6FF80EAE6F010EAF6FE5C0B0F081
:10CDF200E6C0B1F0E7C0B2F0E8C0B3F0CCEC7CF032
:10CE02000001E46F0BD0E5C0ACF0E6C0ADF0E7C0C6
:10CE1200AEF0E8C0AFF0E45178EC84F0000E00010F
:10CE2200A16F000EA26F000EA36F000EA46FE5C0EB
:10CE3200A5F0E6C0A6F0000EA76F080EA86FE45199
:10CE4200FDEC6EF012005AD111C151F112C150F134
:10CE520013C14FF114C14EF116C1ECF017C1EBF042
:10CE62000001EB518F6FEC51906F916B926B090E39
:10CE7200D8908F37903791379237E82EF9D78FC0F5
:10CE82006AF090C06BF091C06CF092C06DF076ECDD
:10CE920085F00009D8A443D1D6C160F0D7C161F0B2
:10CEA20021EED0F001D80AD00500FA6EDE50FD6EF8
:10CEB200DE50FE6EDE50FF6EFA5012000009D8B44A
:10CEC20016D0010E0D018C6F01012151F00B0709E3
:10CED200216F270E2B6F000E2C6F000E0001606F6A
:10CEE200020E65EC81F0000E216E21501200010E3F
:10CEF2000001FA6F0001EB51EC11D8B4FCD0030E23
:10CF0200216E000E01016C6F060E6D6F000E0D0199
:10CF1200886F020E896F000E8A6F000E8B6F0D01F3
:10CF2200885189118A118B11D8B41DD00001EF519B
:10CF3200F011D8B406D0EFC0D9FFF0C0DAFFDFBEDF
:10CF4200EED0000E606F6CC161F06DC162F0400EF8
:10CF5200636F020E6FEC82F060C0EFF061C0F0F020
:10CF6200040E216E23D0D6C160F0D7C161F021EE4C
:10CF7200D0F001D80AD00500FA6EDE50FD6EDE5008
:10CF8200FE6EDE50FF6EFA5012000009D8B40CD0CB
:10CF9200010E0D018C6F01012151F00B0209216F6D
:10CFA200270E2B6F000E2C6F020EA6D00001EF5140
:10CFB200F011D8B406D0EFC0D9FFF0C0DAFFDFBE5F
:10CFC200AED020EE01F0EF51D926F051DA22DF5037
:10CFD2008F6F8FC090F0916B926B936B90510101A8
:10CFE200085F000191510101095B000192510101A9
:10CFF2000A5B0001935101010B5B000120EE01F07D
:10D00200EF51D926F051DA22DF508F6F8FC090F0A6
:10D01200916B926B936B90510D01885F000191515E
:10D022000D01895B000192510D018A5B0001935150
:10D032000D018B5B400E01016C27000E6D23030E68
:10D042005BD00D018C51D8A440D0D6C184F0D7C199
:10D0520085F04EC186F04FC187F050C188F051C1B2
:10D0620089F0000E00018A6F060E8B6F01014E518E
:10D072004F1150115111D8A402D0010E01D0000E4F
:10D0820000018C6F21EED3F001D80AD00500FA6EB0
:10D09200DE50FD6EDE50FE6EDE50FF6EFA50120064
:10D0A200E806D8B412D0640E0001F76102D0F72B63
:10D0B20036D0010E0D018C6F01012151F00B0309D5
:10D0C200216F000E2B6F000E2C6F010E01014E27F7
:10D0D200000E4F23502351230001EB07D8A0EC0789
:10D0E200010E0AD0020E0D018C6F000E0001606F5E
:10D0F200020E65EC81F0000E216E11D02150000A63
:10D10200D8B4A2D6010AD8B4F5D6030AD8B499D7AE
:10D11200010AD8B404D7070AD8B448D7E3D72150B4
:10D122001200000E0001A76F000EA66F97C0A2F0BA
:10D1320098C0A3F0000E9E6F020E9D6F000EA16FAD
:10D1420095519611D8A424D097519811D8B420D0D3
:10D152009DC08BF09EC08CF0000E8E6F000E8D6F06
:10D1620018EC8CF08BC095F08CC096F095C060F0F6
:10D1720096C061F015ECA1F060C09DF061C09EF018
:10D18200000195519611D8A403D0956996691200B1
:10D1920095C0AAF096C0ABF003D1AAC060F0ABC0B4
:10D1A20061F015ECA1F060C0A4F061C0A5F0AAC0C6
:10D1B20060F0ABC061F022ECA1F060C0A8F061C0E9
:10D1C200A9F00001A651A41904E1A751A519D8B4E8
:10D1D20037D0A151D8B40AD0A6C07FF0A7C080F042
:10D1E200000E816F0A0E826FFEEC9BF09DC08BF0E9
:10D1F2009EC08CF0A4C08DF0A5C08EF018EC8CF00F
:10D202008BC09FF08CC0A0F09FC060F0A0C061F006
:10D2120015ECA1F060C09DF061C09EF0A4C087F043
:10D22200A5C088F0000E0001896F0A0E8A6F68ECB3
:10D23200A0F0A4C0A6F0A5C0A7F0000E0001A16F47
:10D24200A35104E1020EA25DD8A05ED0A8C060F096
:10D25200A9C061F0000E626F0A0E636F97EC9CF03A
:10D2620060C0AAF061C0ABF00001AB5104E1020E54
:10D27200AA5DD8A006D0DA0EAA5D1F0EAB59D8A0BF
:10D282006BD0020EA825606F000EA921616F000EFF
:10D29200626F0A0E636F6CEC98F060C09BF061C025
:10D2A2009CF000019B2903E19C29D8B413D0FE0E07
:10D2B200A625AA6FFF0EA721AB6FAA51AB6FAA6B6F
:10D2C200D8909C319A6F9B31996F9951AA139A51B8
:10D2D200AB130BD09F51A011D8A403D095699669C6
:10D2E20012009FC0AAF0A0C0ABF0A8C060F0A9C015
:10D2F20061F0000E626F0A0E636FAAC064F0ABC0E9
:10D3020065F08FEC9EF025D0A205A311D8A428D0F9
:10D31200A8C060F0A9C061F0000E626F0A0E636FD0
:10D3220097EC9CF060C0AAF061C0ABF00001AA29A2
:10D3320003E1AB29D8B410D0A8C060F0A9C061F055
:10D34200000E626F0A0E636FFF0E656F64698FECE9
:10D352009EF0010E0001A16FA207D8A0A30720D062
:10D36200A8C060F0A9C061F0000E626F0A0E636F80
:10D3720097EC9CF060C0AAF061C0ABF0A8C060F06E
:10D38200A9C061F0000E0001626F0A0E636F000E09
:10D39200656F000E646F8FEC9EF0010E0001A16FAD
:10D3A200A251A311D8A4F9D6AB5104E1020EAA5D91
:10D3B200D8A006D0DA0EAA5D1F0EAB59D8A0EDD6C2
:10D3C200A151D8B40AD0A6C07FF0A7C080F0000E49
:10D3D200816F0A0E826FFEEC9BF00001975198114B
:10D3E200D8B405D095C095F096C096F01200000E04
:10D3F200966F000E956F120000017151800B7E6FC7
:10D4020071517125856F70BF85818551D8B40DD05A
:10D412008529D8A408D0000E6E6F000E6F6F000E23
:10D42200706F000E716F708F06D0000E6E6F000E5F
:10D432006F6F000E706F000E716F7551800B7E1B47
:10D4420075517525866F74BF86818651D8B40DD00B
:10D452008629D8A408D0000E726F000E736F000EDA
:10D46200746F000E756F748F06D0000E726F000E0F
:10D47200736F000E746F000E756F72517311741119
:10D482007511D8A417D0000E6E6F000E6F6F000ECC
:10D49200706F000E716F800E70137F0E71137E51CC
:10D4A20071136EC06EF06FC06FF070C070F071C01B
:10D4B20071F012008551D8A411D0000E6E6F000ECB
:10D4C2006F6F000E706F000E716F6EC06EF06FC0E6
:10D4D2006FF070C070F071C071F012008651766FFB
:10D4E200776B761F771F764B772B8551786F796B29
:10D4F20076517827775179237F0E78257F6F000E3A
:10D502007921806F6EC07AF06FC07BF070C07CF0C2
:10D5120071C07DF0000E6E6F000E6F6F000E706FA7
:10D52200000E716F000E816F000E826F000E836F0E
:10D53200000E846F000E866F28D08651D8B411D0A9
:10D54200D8907A377B377C377D37D8906E376F37F4
:10D552007037713784BF6E81D890813782378337B5
:10D56200843772517A5D73517B5974517C5975516C
:10D572007D59D8A009D0848D72517A5F73517B5B3B
:10D5820074517C5B75517D5B862B190E8665D5D7F0
:10D592007A517B117C117D11D8B411D081810FD0C9
:10D5A200D8906E376F377037713784BF6E81D890DD
:10D5B20081378237833784377F07D8A0800770AFDF
:10D5C200EFD7000E866F84AF16D0FF0E8115766FEF
:10D5D200FF0E8215776FFF0E8315786F7F0E84150D
:10D5E200796F7651771178117911D8A402D06EA192
:10D5F20002D0010E866F8651D8B41FD0010E6E275D
:10D60200000E6F237023712371A117D06EC076F0C4
:10D612006FC077F070C078F071C079F079357933E6
:10D6220078337733763376C06EF077C06FF078C098
:10D6320070F079C071F07F4B802B80BF10D0805189
:10D6420003E17F29D8A00BD0000E806F7F69000E06
:10D652006E6F000E6F6F000E706F000E716F80BFE5
:10D6620005D0805111E17F05D8B00ED0000E806F39
:10D67200000E7F6F000E6E6F000E6F6F000E706FE8
:10D68200000E716F000E7E6F7FC085F085A102D003
:10D69200708F01D0709FD8908531716F7E51711358
:10D6A2006EC06EF06FC06FF070C070F071C071F03C
:10D6B20012000D013205D8A40ED030511F0B000903
:10D6C200D8A409D00D8E030E3119D8A402D0010EB0
:10D6D20001D0000E286E3251D8A4120030511F0B17
:10D6E200020AD8A4120034510F0B0009D8B4120058
:10D6F20034510F0B456E030E45601200200E2B189D
:10D70200D8A412000D8E34BF19D034510F0B456EC0
:10D712004550020D380EF324D96E010EF420DA6E54
:10D72200DECF49F0DDCF4AF034510F0B456E455044
:10D73200010D5C0EF324D96E010E18D034510F0B7B
:10D74200456E4550020D100EF324D96E000EF420E2
:10D75200DA6EDECF49F0DDCF4AF034510F0B456E61
:10D762004550010D5F0EF324D96E010EF420DA6EDE
:10D77200DF50486E48B006D0FB0E4914496EFF0ECA
:10D782004A1404D0040E4910496E4A504A6E34BFFE
:10D792000AD034510F0B456E4550020D380EF3245A
:10D7A200D96E010E09D034510F0B456E4550020D52
:10D7B200100EF324D96E000EF420DA6E49C0DEFF9B
:10D7C2004AC0DDFF030E3119D8A42DD049C0D9FFBC
:10D7D2004AC0DAFFDFAE1AD034BF0AD034510F0B81
:10D7E200456E4550010D5C0EF324D96E010E0AD030
:10D7F2000D0134510F0B456E4550010D5F0EF324A0
:10D80200D96E010EF420DA6E0101DF8249C0D9FF20
:10D812004AC0DAFF000EDB8449C0D9FF4AC0DAFFF2
:10D82200000EDB8E1200040E4918496E4A504A6EF1
:10D8320049C0D9FF4AC0DAFFDFAE1BD049C0D9FFC9
:10D842004AC0DAFF7F0EDF1649C0D9FF4AC0DAFFAD
:10D85200000EDB8C000E3E6E050E3D6E49C03FF0A1
:10D862004AC040F0000E426E020E416ECDEC93F0C3
:10D8720006D049C0D9FF4AC0DAFF000EDB8C040E85
:10D882004918496E4A504A6E48B206D049C0D9FF7B
:10D892004AC0DAFFDFAE30D00D0134BF0AD03451B6
:10D8A2000F0B456E4550010D5C0EF324D96E010E2F
:10D8B2000AD00D0134510F0B456E4550010D5F0E1C
:10D8C200F324D96E010EF420DA6E0101DF9249C011
:10D8D200D9FF4AC0DAFF3B0EDF16000E3E6E050E80
:10D8E2003D6E49C03FF04AC040F0000E426E020E4B
:10D8F200416ECDEC93F006D049C0D9FF4AC0DAFFA1
:10D902003B0EDF160D0134510F0B456E4550010DD4
:10D91200260EF324466E0F0EF420476E46C0D9FF42
:10D9220047C0DAFFFE0EDF16120098D0EB0E12008F
:10D932003C0E1200900E1200DD0EF66EA20EF76E75
:10D94200000EF86E0800F5501200DE0EF66EA20E02
:10D95200F76E000EF86E0800F5501200DF0EF66E3C
:10D96200A20EF76E000EF86E0800F5501200E00EDF
:10D97200F66EA20EF76E000EF86E0800F550120059
:10D98200E10EF66EA20EF76E000EF86E0800F5506C
:10D992001200E20EF66EA20EF76E000EF86E08008E
:10D9A200F5501200E30EF66EA20EF76E000EF86E40
:10D9B2000800F5501200E40EF66EA20EF76E000E8D
:10D9C200F86E0800F5501200000E1200020E12004E
:10D9D200010E1200010E1200000E1200010E1200C2
:10D9E200400E1200000E1200FF0E12001F0E120057
:10D9F200F80E1200200E1200000E12003F0E12004E
:10DA0200000E1200100E1200000E1200000E120084
:10DA1200000E1200000E1200000E1200010E120083
:10DA2200000E1200220E1200000E1200000E120052
:10DA3200460E1200410E1200540E1200310E120058
:10DA4200360E1200200E1200200E1200200E1200BE
:10DA5200550E1200AA0E1200000E120060C062F0F3
:10DA620061C063F000016351000AD8B404D0010A16
:10DA7200D8B48DD0F1D76251000AD8B457D7010A71
:10DA8200D8B456D7030AD8B455D7010AD8B454D754
:10DA9200070AD8B45AD7010AD8B460D7030AD8B44F
:10DAA20066D7010AD8B46CD70F0AD8B472D7010A64
:10DAB200D8B478D7030AD8B47ED7010AD8B484D7A9
:10DAC200070AD8B483D7010AD8B482D7030AD8B4D4
:10DAD20081D7010AD8B480D71F0AD8B47FD7010AE8
:10DAE200D8B47ED7030AD8B47DD7010AD8B47CD77C
:10DAF200070AD8B47BD7010AD8B47AD7030AD8B4B4
:10DB020079D7010AD8B478D70F0AD8B477D7010ADF
:10DB1200D8B476D7030AD8B475D7010AD8B474D763
:10DB2200070AD8B473D7010AD8B472D7030AD8B493
:10DB320071D7010AD8B470D7370AD8B46FD7010A9F
:10DB4200D8B46ED7050AD8B46DD7010AD8B46CD749
:10DB5200030AD8B46BD7010AD8B468D7190AD8B463
:10DB620067D7010AD8B466D70F0AD8B465D7010AB5
:10DB7200D8B464D7030AD8B463D7010AD8B462D739
:10DB8200070AD8B461D7010AD8B460D765D7625101
:10DB9200FE0AD8B45DD7010AD8B45CD75DD7200E8F
:10DBA2002B18D8A41200A09816D10001EF51F01141
:10DBB200D8B406D0EFC0D9FFF0C0DAFFDFBE1AD169
:10DBC200000EB16F1E0EB16501D014D0B151010D1E
:10DBD200400EF324D96E0D0EF420DA6EB151010D10
:10DBE200000EF324E16E010EF420E26EDFCFE7FFB8
:10DBF200B12BE8D720EE01F0EF51D926F051DA220D
:10DC02001F0EDE18D8A473D0550E010100196FE162
:10DC1200530E01196CE1420E021969E1430E031918
:10DC2200D8A465D0010E716F0D51D8A453D0110E36
:10DC32000E6150D00E51D8B44DD00CC1ACF03F0E95
:10DC42000001AC17D8A446D0550E0D01806F530EBB
:10DC5200816F420E826F530E836F04C184FD05C132
:10DC620085FD06C186FD07C187FD000E886F000E87
:10DC7200896F000E8A6F000E8B6F000E8C6F000191
:10DC8200F969000EF86F000E216E000EF76F030E99
:10DC920001010F19D8B408D0219121932195219720
:10DCA200000E2B6F000E2C6F0CAF02D0010E01D0B4
:10DCB200020E0001FA6F0101085109110A110B113C
:10DCC200D8B402D0000E01D0010E0001F56F0FC1D1
:10DCD200F9F090D0010E0001606F020E65EC81F048
:10DCE200000E0001606F020E65EC81F083D0010E20
:10DCF2000001606F020E65EC81F0000E0001606FA2
:10DD0200020E65EC81F0000E0101716F73D007EC19
:10DD12007EF0FF0AD8A46ED011D007EC7EF0FF0A85
:10DD2200D8A468D00D018C51D8A408D0885189118B
:10DD32008A118B11D8B402D0020E8C6F030E3CD024
:10DD420014C0ADF015C0AEF0AD51AE11D8B40AD0CA
:10DD520014C0AFF015C0B0F0AFC0D9FFB0C0DAFF49
:10DD6200DFBE48D0010E606F800E616F0D0E626FD4
:10DD72000D0E636F020E6FEC82F060C0EDF061C0B9
:10DD8200EEF00001EF51F011D8B406D0EFC0D9FF88
:10DD9200F0C0DAFFDFBE0FD0000E606F400E616F81
:10DDA2000D0E626F400E636F020E6FEC82F060C068
:10DDB200EFF061C0F0F0000E0001FA6F1BD0000E10
:10DDC200FA6F020E0D018C6F000E0001606F020EE1
:10DDD20065EC81F00FD00001FA51000AD8B4E5D603
:10DDE200010AD8B494D7030AD8B497D7010AD8B491
:10DDF200A7D7E5D7A08812000001B56FC30E0001B6
:10DE02008F6F000E906FB5510EEC95F00001B86F58
:10DE1200B851D8A41200A151DF5DA251E059A3511B
:10DE2200E159A451E259D8A01200A551A125A96F28
:10DE3200A651A221AA6F000EA321AB6F000EA4214E
:10DE4200AC6FA951DF5DAA51E059AB51E159AC5118
:10DE5200E259D8B00ED0A1C0A9F0A2C0AAF0A91F61
:10DE6200AA1FA94BAA2BDF51A925A56FE051AA2110
:10DE7200A66FDDC097F0DEC098F0A1C0A9F0A2C0E5
:10DE8200AAF0A3C0ABF0A4C0ACF00A0E05D0D890A3
:10DE9200AC33AB33AA33A933E82EF9D7A9C099F032
:10DEA200AAC09AF022EC91F097C0B9F098C0BAF0EB
:10DEB200000E0001A115BF6FFE0EA215C06FFF0E6E
:10DEC200A315C16FFF0EA415C26FBFC0A9F0C0C0D9
:10DED200AAF0A91FAA1FA94BAA2BA151A925BB6F62
:10DEE200A251AA21BC6F000EBF6F000EC06F000EC0
:10DEF200C16F000EC26F89D0020EBC19BB11D8A42B
:10DF02000FD0B9C08FF0BAC090F003EC9AF08FC076
:10DF1200B9F090C0BAF0000E0001BC6F000EBB6FEA
:10DF2200B9C060F0BAC061F062ECA1F060C0B6F0B6
:10DF320061C0B7F0BBC0A9F0BCC0AAF00001A91F24
:10DF4200AA1FA94BAA2B000EA925BD6F020EAA215A
:10DF5200BE6FBD51A96FBE51AA6FAB6BAC6BBFC098
:10DF6200ADF0C0C0AEF0C1C0AFF0C2C0B0F0AD1FE6
:10DF7200AE1FAF1FB01FAD2B000EAE23AF23B023D9
:10DF8200A551AD25B16FA651AE21B26F000EAF21E2
:10DF9200B36F000EB021B46FA951B15DAA51B2594D
:10DFA200AB51B359AC51B459D8B00ED0BFC0A9F0DF
:10DFB200C0C0AAF0A91FAA1FA94BAA2BA551A92527
:10DFC200BD6FA651AA21BE6FB6C07FF0B7C080F068
:10DFD200BBC081F0BCC082F0BDC083F0BEC084F083
:10DFE200BF51A725856FC051A821866FA2EC96F07C
:10DFF2000001BD51BF27BE51C023000EC123000E38
:10E00200C223BD51BB27BE51BC23A551A96FA65146
:10E01200AA6FAB6BAC6BA951BF5DAA51C059AB5192
:10E02200C159AC51C259D8B0120066D7A00E000136
:10E03200706F000E716F95C072F096C073F0000E93
:10E04200756F0A0E746F00EC9DF0A00E0001606FF8
:10E05200000E616FA6EC9DF000016051AA6F96AFB1
:10E0620054D0AA5100089725020FAB6FAB51800A1A
:10E072007F0FD8A090D097C0ACF0AC29D8B442D0D2
:10E08200AC51ABBF04D0FF0AAB25D8B02AD0ABC08D
:10E092009AF09B6B9ABF9B079A1F9B1F9A4B9B2BD5
:10E0A200AC519C6F9D6B9A519C279B519D23010EF5
:10E0B2009C27000E9D23A00E9C25D96E000E9D214B
:10E0C200DA6EAC519E6F9F6B010E9E27000E9F234E
:10E0D200A00E9E25E16E000E9F21E26EDFCFE7FFCC
:10E0E2000FD0AC519A6F9B6B010E9A27000E9B23A7
:10E0F200A00E9A25D96E000E9B21DA6E300EDF6ECD
:10E10200AC07BBD79751020F45D0AA5100089725FB
:10E112009A6F9A29AB6FAB51800A7F0FD8A03BD080
:10E1220097C0ACF0AC29D8B434D0AC51ABBF04D05A
:10E13200FF0AAB25D8B021D0ABC09AF09B6B9ABF37
:10E142009B079A1F9B1F9A4B9B2BAC519C6F9D6BFD
:10E152009A519C279B519D23A00E9C25D96E000E9F
:10E162009D21DA6EAC51010DA00EF324E16E000E7A
:10E17200F420E26EDFCFE7FF0AD0AC51010DA00E12
:10E18200F324D96E000EF420DA6E300EDF6EAC0787
:10E19200C9D79729AA6F97510008AA259A6F9A059D
:10E1A200976F000EAC6F23D0AC51010DA00EF3247B
:10E1B200D96E000EF420DA6EAC51010DF3509825A1
:10E1C200E16EF4509921E26EDFCFE7FF9751AC196F
:10E1D200D8A40CD0AC2BAC51010DF3509825D96EBC
:10E1E200F4509921DA6E2E0EDF6E1ED0AC2BAA519E
:10E1F200AC5DD8B019D0D8D7AC51010DA00EF32424
:10E20200D96E000EF420DA6EAC519A6F9B6B010E40
:10E212009A27000E9B239A519825E16E9B519921D2
:10E22200E26EDFCFE7FFAC2BAA51AC5DD8A0E4D7FA
:10E23200AC519A6F9B6B010E9A27000E9B239A5149
:10E242009825D96E9B519921DA6E000EDF6E12006D
:10E25200000E0001856F000E846F020E855DD8B03E
:10E2620011D0000E8425D96E0A0E8521DA6E84C083
:10E2720060F085C061F0E0EC8AF0DF6E0001844B53
:10E28200852BEBD7000E806F000E7F6F000E816F23
:10E292000A0E826FFEEC9BF0000E0001856F000EED
:10E2A200846F020E855DD8B011D0000E8425D96E20
:10E2B2000A0E8521DA6E84C060F085C061F096ECAA
:10E2C2006CF0DF6E0001844B852BEBD7000E806F64
:10E2D200010E7F6F000E816F0A0E826FFEEC9BF0C3
:10E2E200000E0001856F000E846F020E855DD8B0AE
:10E2F20011D0000E8425D96E0A0E8521DA6E84C0F3
:10E3020060F085C061F0D7EC99F0DF6E0001844BBC
:10E31200852BEBD7000E806F020E7F6F000E816F90
:10E322000A0E826FFEEC9BF0000E0001856F000E5C
:10E33200846F020E855DD8B00BD0000E8425D96E95
:10E342000A0E8521DA6E000EDF6E844B852BF1D723
:10E35200000E856F030E846F855112E1220E845DDB
:10E36200D8B00ED084C07FF085C080F0000E816FDF
:10E372000A0E826FFEEC9BF00001844B852BECD7DA
:10E38200000E856F000E846F020E855DD8B011D02D
:10E39200000E8425D96E0A0E8521DA6E84C060F0E3
:10E3A20085C061F0C4EC76F0DF6E0001844B852BF2
:10E3B200EBD7000E806F220E7F6F000E816F0A0E68
:10E3C200826FFEEC9BF0000E0001856F000E846FE1
:10E3D200020E855DD8B00BD0000E8425D96E0A0ED0
:10E3E2008521DA6E000EDF6E844B852BF1D7000E8D
:10E3F200856F230E846F855112E1260E845DD8B09D
:10E402000ED084C07FF085C080F0000E816F0A0EAE
:10E41200826FFEEC9BF00001844B852BECD7000E43
:10E42200856F000E846F020E855DD8B011D0000E8C
:10E432008425D96E0A0E8521DA6E84C060F085C00B
:10E4420061F000ECA0F0DF6E0001844B852BEBD76E
:10E45200000E806F260E7F6F000E816F0A0E826F94
:10E46200FEEC9BF0120000016A6F6AC0F1F000013D
:10E472006051611162116311D8A40AD0000E01012A
:10E48200426FFF0E436FFF0E446FFF0E456F08D0C1
:10E4920060C042F161C043F162C044F163C045F122
:10E4A200000164516511D8A405D0AEC162F1AFC1BB
:10E4B20063F104D064C062F165C063F1000EEA6FDB
:10E4C200000EE96F000E166E000E176E000E186E2B
:10E4D200000E196E630EF66E940EF76E000EF86E55
:10E4E2000900F5CF66F00900F5CF67F066C03EF18E
:10E4F20067C03FF10101406B416BBA90BA92BA9486
:10E50200BA968A9000016A29D8A405D00101A751C0
:10E51200D8B405D006D00101A751D8B402D08A944C
:10E5220001D08A848A82010E1626000E1722182232
:10E5320019220001F151666F000E66BFFF0E676F70
:10E54200686F696F665101017A2700016751010105
:10E552007B230001685101017C2300016951010103
:10E562007D23A3517A1912E1A4517B190FE1A55120
:10E572007C190CE1A6517D19D8A408D0000E7A6F3F
:10E58200000E7B6F000E7C6F000E7D6F7A2913E107
:10E592007B2911E17C290FE17D29D8A40CD0FF0E43
:10E5A200A3257A6FFF0EA4217B6FFF0EA5217C6F3E
:10E5B200FF0EA6217D6F550EA76EAA0EA76E0E0145
:10E5C200BF91000EC46F550EA76EAA0EA76EBF8133
:10E5D200000E206EFD0E0001E925F66E9B0EEA216B
:10E5E200F76EF86A000EF8220800F5CF66F0CA50FE
:10E5F2006619FC0B6619CA6E160EE925F66E9A0E9E
:10E60200EA21F76EF86A000EF8220800F5CFCBFF78
:10E612002F0EE925F66E980EEA21F76EF86A000EC3
:10E62200F8220800F5CF66F0664766476647CA508B
:10E632006619870B6619CA6ED890CB30BB6E9E9254
:10E642009D82000ECC6ECA84010E0101816F120000
:10E65200DBD011C151F112C150F113C14FF114C1FC
:10E662004EF116C1ECF017C1EBF0EB51956FEC5186
:10E67200966F976B986B090ED890953796379737A8
:10E682009837E82EF9D795C06AF096C06BF097C01C
:10E692006CF098C06DF076EC85F00009D8A4C6D075
:10E6A200010E0001F86FEB51EC11D8A402D0000E5C
:10E6B20049D0EB07D8A0EC07020EF86FED51EE112E
:10E6C200D8B406D0EDC0D9FFEEC0DAFFDFBEAED0BF
:10E6D200D6C18BF0D7C18CF04EC18DF04FC18EF0F8
:10E6E20050C18FF051C190F0000E916F060E926FE3
:10E6F20021EECDF001D80AD00500FA6EDE50FD6E93
:10E70200DE50FE6EDE50FF6EFA501200E806D8B4FC
:10E712001BD0640E0001F76102D0F72B87D0020EE6
:10E722000D018C6F01012151F00B0309216F000EC5
:10E732002B6F000E2C6F010E0001606F020E65EC54
:10E7420081F05FD0F86F72D0010E01014E27000EEA
:10E752004F2350235123000E0D01886F020E896F43
:10E76200000E8A6F000E8B6F000E01016C6F060E99
:10E772006D6F030E0001F86F0D01885189118A1126
:10E782008B11D8A402D0010E3DD0040E0001F86F07
:10E79200ED51EE11D8B406D0EDC0D9FFEEC0DAFFCC
:10E7A200DFBE44D0010E606F6CC161F06DC162F0DA
:10E7B200400E636F020E6FEC82F060C0EDF061C03C
:10E7C200EEF0030E0001F86F400E0101085F000E2B
:10E7D200095B0A5B0B5B400E0D01885F000E895BD3
:10E7E2008A5B8B5B400E01016C27000E6D231ED0ED
:10E7F200020E0D018C6F010E0001606F020E65ECBE
:10E8020081F0000E00019ED70001F851000AD8B431
:10E8120020D7010AD8B447D7030AD8B44FD7010A80
:10E82200D8B4AAD7070AD8B4B3D7E2D70001F851AF
:10E832001200C4CF89F000018A6B89518A6F896BFB
:10E84200C350891301013151020D320EF324D96EE6
:10E85200010EF420DA6E00018951DE268A51DD2292
:10E8620001013151010D360EF324D96E010EF4204F
:10E87200DA6EDF2AC2823151010D360EF324D96ECF
:10E88200010EF420DA6E080EDE18D8A4AED0315193
:10E89200020D320EF324D96E010EF420DA6EDECFB1
:10E8A20087F0DDCF88F087C060F088C061F000019A
:10E8B200626B636B000EE7EC7AF060C06EF061C0D1
:10E8C2006FF062C070F063C071F05EEC9FF06EC0DA
:10E8D20072F06FC073F070C074F071C075F0000E0A
:10E8E2000001766F900E776FA40E786F460E796FE7
:10E8F20091EC62F072C08BF073C08CF074C08DF03A
:10E9020075C08EF08BC06EF08CC06FF08DC070F051
:10E912008EC071F0680E0001726F910E736F3D0E22
:10E92200746F3F0E756FE8EC60F06EC08BF06FC0D5
:10E932008CF070C08DF071C08EF08BC060F08CC016
:10E9420061F08DC062F08EC063F028EC89F00101A5
:10E952003151020D9A0EF324D96E010EF420DA6EB3
:10E96200000160C0DEFF61C0DDFF01013151020D17
:10E97200320EF324D96E010EF420DA6E000EDE6E32
:10E98200000EDD6E3151010D360EF324D96E010EEB
:10E99200F420DA6E000EDF6EA151D8B413D09BBF03
:10E9A20006D0600E9A5D090E9B59D8B01ED09DBF4D
:10E9B20006D0600E9C5D090E9D59D8B016D08B9C76
:10E9C200000E12D09BBF06D0C50E9A5D090E9B5950
:10E9D200D8B008D09DBF09D0C50E9C5D090E9D59C7
:10E9E200D8A003D08B8C010EA16F3151D8A407D0CF
:10E9F200C250C30B2C09C26E010E316F1200C250FD
:10EA0200C30B2409C26E000E316F12006BC0D9FF16
:10EA12006CC0DAFF100EDF6E000120EE01F06B51C8
:10EA2200D9266C51DA22A10EDF6E20EE02F06B5174
:10EA3200D9266C51DA22620EDF6E20EE03F06B51A2
:10EA4200D9266C51DA22000EDF6E20EE04F06B51F3
:10EA5200D9266C51DA22040EDF6E20EE05F06B51DE
:10EA6200D9266C51DA22000EDF6E20EE06F06B51D1
:10EA7200D9266C51DA2273C1DFFF20EE07F06B5109
:10EA8200D9266C51DA2274C1DFFF20EE08F06B51F7
:10EA9200D9266C51DA2275C1DFFF20EE09F06B51E5
:10EAA200D9266C51DA2276C1DFFF20EE0AF06B51D3
:10EAB200D9266C51DA2277C1DFFF20EE0BF06B51C1
:10EAC200D9266C51DA2278C1DFFF20EE0CF06B51AF
:10EAD200D9266C51DA2279C1DFFF0D0E6B25606FEA
